:020000040800F2
:10000000F84A00204501000891100008F50F00088B
:1000100065100008550400081926000800000000BB
:100020000000000000000000000000007D19000832
:100030005901000800000000F1120008F11A000840
:100040005F0100085F0100085F010008E117000878
:100050005F0100085F01000865070008D10700087C
:100060005F010008F90700085F0100085F01000850
:100070005F0100085F0100085F0100085F010008E0
:100080005F0100085F0100085F0100085F010008D0
:10009000192500085F0100085F0100083108000809
:1000A0005F0100085F0100085F0100085F010008B0
:1000B000551B00087D1B00085F0100085F01000858
:1000C0005F0100085F0100085F0100085F01000890
:1000D0005F010008C91E0008451F0008E91F00084D
:1000E00091070008211600085F0100085F01000861
:1000F0005F0100085F0100085F0100085F01000860
:100100005F0100085F0100085F0100085F0100084F
:10011000C51D0008611E00085F0100085F0100089E
:100120005F0100085F0100085F0100085F0100082F
:10013000DFF80CD000F034F900480047454D0008C6
:10014000F84A00200648804706480047FEE7FEE7D9
:10015000FEE7FEE7FEE7FEE7FEE7FEE7FEE7FEE777
:10016000F51A00083101000840EA01039B0703D09B
:1001700009E008C9121F08C0042AFAD203E011F8E6
:10018000013B00F8013B521EF9D27047D2B201E0A8
:1001900000F8012B491EFBD270470022F6E710B58C
:1001A00004460846114602462046FFF7EFFF204668
:1001B00010BD034600E0401C0278002AFBD111F874
:1001C000012B00F8012B002AF9D11846704730B5F1
:1001D0000EE003460A4601E05B1C521C1C781578B1
:1001E000AC4201D1002CF7D115F0FF0F04D0401C18
:1001F0000278002AEDD1002030BD0146002000E049
:10020000401C0A5C002AFBD170472DE9F0470F46DD
:10021000914680460446002614F8015B2DB100F09B
:100220006DF80068405DC007F6D12B2D02D02D2D52
:1002300018D0641E4A463946204600F063F827B1BC
:100240003968A14201D1C7F8008071054FF002045E
:100250000BD54042002803DD02F018FA0460A00725
:10026000BDE8F08746F48066E4E70028F8DA02F09B
:100270000DFA04606FF00040F2E770B5064602F038
:1002800005FA046805460A2200213046FFF7BDFF43
:100290002C6070BD2DE9F05F0546002092469B461C
:1002A00088460646814640241DE02846414647468A
:1002B000224600F096F8B0EB0A0052465B4671EB1E
:1002C0000B0110D310461946224600F07BF82D1A78
:1002D00067EB01084F4622460120002100F072F82A
:1002E00017EB00094E41201EA4F10104DDDC484655
:1002F00031462A464346BDE8F09F0000004870475B
:100300007C6E00082DE9F05F8246044600780027E5
:10031000641C8B461546B946302801D09DB113E0C8
:1003200014F8010B0127782803D0582801D045B1D3
:100330000AE00DB1102D07D10027102514F8010B8C
:1003400002E0082500E00A250026B0460EE005FB85
:10035000080005FB06F1012701EB10461FFA80F8A3
:10036000B6F5803F00D3B94614F8010B294600F0DA
:1003700048F80028EBDABBF1000F04D0641E07B97F
:100380005446CBF80040B9F1000F06D002F07EF9D8
:1003900002210160C81EBDE8F09F48EA0640FAE766
:1003A000064C074D06E0E06840F0010394E80700C2
:1003B00098471034AC42F6D3FFF7BEFE806E0008BB
:1003C000A06E0008202A04DB203A00FA02F1002087
:1003D00070479140C2F1200320FA03F31943904083
:1003E0007047202A04DB203A21FA02F000217047EE
:1003F00021FA02F3D040C2F120029140084319468D
:1004000070473A2800D2303820F02002412A01D328
:10041000A2F137004FF0FF32884200D20246104668
:10042000704710B5012000F099FF002000F096FF02
:1004300010BD000001460022014A0A44108870479E
:10044000006C00400022024A024411607047000024
:10045000006C00400AE006A002F0F4F872B671B633
:100460004FF4FA6003F072F800F026FFF3E70000A3
:100470000D0A4552524F525F4255530D0A0000007B
:10048000B1F5007F3AD00FDC202928D006DC012905
:100490001CD004291DD0082940D11DE0402921D0BD
:1004A000B1F5807F3AD126E0B1F5004F31D006DCBE
:1004B000B1F5806F25D0B1F5006F2FD124E0B1F5F3
:1004C000803F12D0B1F5003F28D111E0154A82607B
:1004D00025E00822C26022E01022C2601FE008224C
:1004E00002611CE01022026119E00822426016E05D
:1004F0001022426013E00422426010E004224260B5
:100500000DE0042242600AE000228261042242607F
:1005100005E0002282610422426000E000BF00BFCB
:10052000704700000101010021B9C26842F02002B9
:10053000C26003E0026942F02002026170470000DD
:1005400070B504460D4600266069284271D0B5F5A5
:10055000807F5CD010DC082D35D006DC012D20D04A
:10056000022D24D0042D77D127E0102D31D0202D5D
:1005700035D0402D70D138E0B5F5004F60D009DCA2
:10058000B5F5007F49D0B5F5806F4CD0B5F5006F5B
:1005900062D14FE0B5F5803F2DD0B5F5003F5BD17E
:1005A0002FE0A0682F4900F0D4F8064656E0E06836
:1005B000032100F0CEF8064650E0E068082100F084
:1005C000C8F806464AE0E068102100F0C2F8064686
:1005D00044E02069032100F0BCF806463EE02069B3
:1005E000082100F0B6F8064638E02069102100F036
:1005F000B0F8064632E06068082100F0AAF8064626
:100600002CE06068102100F0A4F8064626E0A069FE
:10061000012100F09EF8064620E0A069022100F0CA
:1006200098F806461AE0A069042100F092F8064600
:1006300014E014E0A069702100F08BF806460DE08C
:10064000A069772100F085F806466068042100F073
:1006500080F8064302E0FFE7002600BF00E0002626
:10066000304670BD0101010030B504460D46134609
:1006700004F5D87000EB0510006800F00400187253
:10068000187A50B904F5D87000EB0510006840F2F4
:10069000FF7101EA5050186009E004F5D87000EBD2
:1006A000051000686FF0604101EAD000586004F561
:1006B000D87000EB0510006800F00200587204F5D5
:1006C000D87000EB0510406800F00F00987204F538
:1006D000D87000EB05104068000AD87404F5D87093
:1006E00000EB05108068D87204F5D87000EB051097
:1006F0008068000A187304F5D87000EB0510806854
:10070000000C587304F5D87000EB05108068000EDB
:10071000987304F5D87000EB0510C068D87304F521
:10072000D87000EB0510C068000A187404F5D87082
:1007300000EB0510C068000C587404F5D87000EB8D
:100740000510C068000E987429462046FFF7ECFE9D
:1007500030BD024600200A4201D0012000E0002006
:100760007047000010B5C82002F0F0FE012000F034
:10077000DDF828B1012000F067F802A001F062FF67
:1007800010BD00000D0A6B6579300D0A00000000F5
:1007900010B54FF4006000F0C9F840B14FF40060AC
:1007A00000F052F809480068401C084908604FF4FE
:1007B000805000F0BBF840B14FF4805000F044F896
:1007C00002480068401C0149086010BD2800002054
:1007D00010B5022000F0AAF828B1022000F034F889
:1007E00001A001F02FFF10BD0D0ABDF8C8EBD6D057
:1007F000B6CF310D0A00000010B5082000F096F8C1
:1008000028B1082000F020F801A001F01BFF10BD66
:100810000D0ABDF8C8EBC0B6D1C0D7B4CCACB1E4BA
:10082000BBAFD6D0B6CFA3A1A3A1A3A10D0A000050
:1008300010B54FF4807000F079F818B14FF4807063
:1008400000F002F810BD0000014908607047000088
:10085000140401401CB54FF40030FFF7F5FF4FF4CE
:100860000030009000208DF8040008208DF805006D
:1008700001208DF80600684600F06EF80021084659
:1008800000F0B8FA0120FFF7DFFF01200090002000
:100890008DF804000C208DF8050001208DF806006D
:1008A000684600F059F80121002000F0A3FA022068
:1008B000FFF7CAFF0220009000208DF804000C20F2
:1008C0008DF8050001208DF80600684600F044F818
:1008D0000321042000F08EFA0820FFF7B5FF08205E
:1008E000009000208DF8040010208DF805000120F4
:1008F0008DF80600684600F02FF80B21002000F06C
:1009000079FA4FF40060FFF79FFF4FF4006000900A
:1009100000208DF804000C208DF8050001208DF8D2
:100920000600684600F018F81CBD000001460020D3
:100930000022074B1B6803EA0102064BD3F814346C
:100940000B4202D00AB1012000E0002070470000F5
:100950000004014000000140002127498279DAB3F8
:10096000264AD2F8002403689A43244BC3F8002493
:100970001A46D2F8042403689A4301F104031A606A
:10098000027911440A68036842EA03020A601B4ABA
:10099000D2F80824036822EA0302184BC3F808249B
:1009A0001A46D2F80C24036822EA0302144B1A6098
:1009B0004279102A11D1114AD2F8082403681A4347
:1009C0000E4BC3F808241A46D2F80C2403681A43C5
:1009D0000A4BC3F80C240EE007E0074942791144A2
:1009E0000A6803681A430A6005E0027911440A683C
:1009F00003689A430A607047000401400000014008
:100A00000C0401400549096821F01001034A1160F6
:100A10001146096801431160704700000020024040
:100A200001460020034A106800F0380008431060B7
:100A3000704700000020024008B5012144F27D000B
:100A400000F07CFC0121E74800F068FC4FF6FF70E5
:100A5000ADF8000000208DF8030003208DF802009F
:100A60004FF40070ADF8000018208DF8030003204B
:100A70008DF802006946DC4800F0DCF94FF4806034
:100A8000ADF8000004208DF803006946D64800F058
:100A9000D1F90420ADF8000018208DF803000320E0
:100AA0008DF802006946D04800F0C4F90820ADF87E
:100AB000000004208DF803006946CB4800F0BAF925
:100AC0004FF40060ADF8000004208DF80300694683
:100AD000C64800F0AFF94FF48060ADF80000182070
:100AE0008DF8030003208DF802006946C04800F02D
:100AF000A1F94FF40060ADF8000004208DF8030068
:100B000003208DF802006946B94800F093F94FF4CC
:100B10008060ADF8000018208DF8030003208DF8E8
:100B200002006946B14800F085F94FF40060ADF865
:100B3000000004208DF8030003208DF802006946B0
:100B4000AA4800F077F903208DF802004FF4006006
:100B5000ADF8000048208DF803006946A24800F077
:100B600069F90820ADF8000010208DF8030003207B
:100B70008DF8020069469D4800F05CF900220821CA
:100B80009A4800F032FA1020ADF800008DF803000A
:100B900003208DF802006946944800F04BF90022CA
:100BA0001021924800F021FA2020ADF8000010201A
:100BB0008DF8030003208DF8020069468B4800F091
:100BC00039F900222021894800F00FFA0120ADF800
:100BD000000004208DF8030003208DF80200694610
:100BE000814800F027F90120ADF8000048208DF879
:100BF000030003208DF8020069467D4800F01AF9D1
:100C00004FF40050ADF8000010208DF803000320D1
:100C10008DF802006946754800F00CF90122510375
:100C2000724800F0E2F91020ADF8000014208DF8B1
:100C3000030003208DF8020069466B4800F0FAF8C3
:100C400001221021684800F0D0F94020ADF80000E2
:100C500010208DF8030003208DF8020069466248D9
:100C600000F0E8F8002240215F4800F0BEF90820BB
:100C7000ADF8000010208DF8030003208DF802006D
:100C800069465B4800F0D6F800220821584800F079
:100C9000ACF94FF48050ADF8000010208DF803003F
:100CA00003208DF802006946504800F0C3F8002286
:100CB0004FF480514D4800F098F94FF40040ADF8E2
:100CC000000010208DF8030003208DF80200694613
:100CD000464800F0AFF80122D103444800F085F9FE
:100CE0004FF48040ADF8000010208DF80300032081
:100CF0008DF8020069463D4800F09CF801229103FE
:100D00003A4800F072F90220ADF8000010208DF88A
:100D1000030003208DF802006946334800F08AF88A
:100D200000220221304800F060F98020ADF8000078
:100D300048208DF8030003208DF8020069462B48F7
:100D400000F078F84020ADF8000010208DF8030086
:100D500003208DF802006946244800F06BF8002259
:100D60004021224800F041F94FF48070ADF80000B6
:100D700010208DF8030003208DF8020069461B48FF
:100D800000F058F800224FF48071184800F02DF957
:100D90004FF40070ADF8000010208DF80300032020
:100DA0008DF802006946114800F044F800224FF423
:100DB00000710E4800F019F94FF40050ADF8000032
:100DC00010208DF8030003208DF8020069460848C2
:100DD00000F030F800224FF40051054800F005F90A
:100DE00008BD000002001E1A00080140000C01406E
:100DF0000010014030B500228B071C0F0F2303FAAF
:100E000004F20B4B8C1053F824309343084C8D1094
:100E100044F8253023468C1053F824308C07240FD7
:100E200000FA04F42343024C8D1044F8253030BD01
:100E3000080001402DE9F04102460025002600206F
:100E400000230024002791F803C00CF00F0591F84F
:100E500003C01CF0100F03D091F802C04CEA050546
:100E6000B1F800C01CF0FF0F31D0146800202BE057
:100E70004FF0010C0CFA00F3B1F800C00CEA0306C5
:100E80009E4220D183004FF00F0C0CFA03F7BC43B5
:100E900005FA03FC4CEA040491F803C0BCF1280FE6
:100EA00006D14FF0010C0CFA00FCC2F814C00AE0A5
:100EB00091F803C0BCF1480F05D14FF0010C0CFABA
:100EC00000FCC2F810C0401C0828D1D31460B1F84F
:100ED00000C0BCF1FF0F34DD546800202EE000F1AB
:100EE000080C4FF0010808FA0CF3B1F800C00CEA46
:100EF00003069E4221D183004FF00F0C0CFA03F73A
:100F0000BC4305FA03FC4CEA040491F803C0BCF1AD
:100F1000280F05D100F1080C08FA0CF8C2F814806B
:100F200091F803C0BCF1480F07D100F1080C4FF055
:100F3000010808FA0CF8C2F81080401C0828CED32B
:100F40005460BDE8F0810000F0B50A46002300249B
:100F50000021002500F00046B6F1004F02D11D4EE1
:100F6000F16901E01B4E7168C0F3034583B200F4E0
:100F70004016B6F5401F08D121F07061154E766815
:100F800026F07066134F7E6012E000F48016B6F50E
:100F9000801F06D1032606FA05F4A14341F07061D3
:100FA00006E0460D360103FA06F6B14341F07061E2
:100FB00022B1460D360103FA06F6314300F0004631
:100FC000B6F1004F02D1034EF16101E0014E7160B4
:100FD000F0BD0000000001400246002093680B4273
:100FE00001D0012000E0002070470AB1016100E05B
:100FF000416170470AE006A001F024FB72B671B6A9
:101000004FF4FA6002F0A2FA00F056F9F3E700009C
:101010000D0A4552524F525F484152445F46415576
:101020004C540D0A000000000146CA1701EB9272F1
:101030009210B1EB820212D1642091FBF0F200FB1E
:10104000121050B94FF4C87091FBF0F200FB12106F
:1010500008B9012070470020FCE70120FAE70020D2
:10106000F8E700000AE006A001F0ECFA72B671B6EB
:101070004FF4FA6002F06AFA00F01EF9F3E700009C
:101080000D0A4552524F525F4D454D0D0A0000006A
:1010900005A001F0D7FA72B671B64FF4FA6002F00B
:1010A00055FA00F009F900000D0A4552524F525FFF
:1010B0004E4D490D0A00000008B54FF4E06000F005
:1010C000F1F825208DF8000002208DF801000020A5
:1010D0008DF8020001208DF80300684600F0A0F8AA
:1010E0004FF4E06000F0DEF826208DF800000020CC
:1010F0008DF801008DF8020001208DF8030068468C
:1011000000F08EF84FF4E06000F0CCF827208DF866
:10111000000001208DF8010000208DF80200012060
:101120008DF80300684600F07BF84FF4E06000F0B3
:10113000B9F834208DF8000001208DF8010000205E
:101140008DF8020001208DF80300684600F068F871
:101150004FF4E06000F0A6F835208DF80000012083
:101160008DF8010000208DF8020001208DF80300A9
:10117000684600F055F84FF4C06000F093F8062080
:101180008DF8000000208DF801008DF802008DF828
:101190000300684600F044F84FF4C06000F082F8A5
:1011A00028208DF8000000208DF801008DF8020045
:1011B0008DF80300684600F033F84FF4C06000F08B
:1011C00071F809208DF8000000208DF801008DF8DD
:1011D00002008DF80300684600F022F84FF4A0608A
:1011E00000F060F81D208DF8000000208DF801004F
:1011F0008DF8020001208DF80300684600F010F819
:1012000028208DF8000000208DF801008DF80200E4
:1012100001208DF80300684600F002F808BD0000C8
:1012200070B5002100230F22C4784CB31A4C2468F7
:1012300004F4E064C4F5E0644FEA1421C1F104034E
:1012400022FA01F2447804FA03F1847804EA0204F1
:1012500044EA01014FEA0111104C0678A1550478C7
:1012600004F01F054FF0010404FA05F405784FEA75
:1012700065154FF0E02606EB8505C5F8004109E04D
:10128000047804F01F050124AC40054D0678761162
:1012900045F8264070BD00000CED00E000E400E0E1
:1012A00080E100E002490143024A116070470000FA
:1012B0000000FA050CED00E00848006800F4E0606A
:1012C000074940EA010000F104004FF0E021C1F8B5
:1012D0000C0DBFF3408F00BFFEE700000CED00E0F7
:1012E0000000FA05014908627047000000000E4244
:1012F00005A001F0A7F972B671B64FF4FA6002F0DA
:1013000025F9FFF7D9FF00000D0A4552524F525FF1
:1013100050454E4453560D0A0000000029B1064ABC
:10132000D2690243044BDA6104E0034AD269824382
:10133000014BDA61704700000010024029B1064AF3
:1013400092690243044B9A6104E0034A9269824322
:10135000014B9A617047000000100240014908608B
:1013600070470000400442420348406A40F08070E9
:1013700001494862704700000010024010B500F0BB
:101380003BF8012000F0FAF800BF212000F0C4F87B
:101390000028FAD01020FFF735FB0220FFF740FBB2
:1013A000002000F0DFF8002000F000F9002000F03D
:1013B000F1F84FF46011002000F00AF9012000F06C
:1013C00001F900BF392000F0A7F80028FAD0022068
:1013D00000F01AF900BF00F0BDF80828FBD1012188
:1013E00044F27D00FFF7AAFF01210248FFF796FFB4
:1013F00010BD000002001E1A0F48006840F00100F6
:101400000D490860084640680C4908400A49486090
:10141000084600680A49084007490860084600680D
:1014200020F4802008600846406820F4FE004860F0
:101430004FF41F0088607047001002400000FFF862
:10144000FFFFF6FE30B500210022002400232D4DC1
:101450006D6805F00C0121B1042905D0082923D1BC
:1014600005E0294D056022E0274D05601FE0254D70
:101470006D6805F47012234D6D6805F48034022503
:1014800005EB92421CB9214D554305600BE01D4D03
:101490006D6815F4003F03D01C4D5543056002E014
:1014A000194D5543056002E0174D056000BF00BFB0
:1014B000144D6D6805F0F0010909154D6B5C056868
:1014C000DD4045600F4D6D6805F4E061090A104D7F
:1014D0006B5C4568DD4085600A4D6D6805F46051C0
:1014E000C90A0B4D6B5C4568DD40C560054D6D68F4
:1014F00005F44041890B074D6B5CC568B5FBF3F5FE
:10150000056130BD0010024000127A0000093D0064
:101510004C0000205C00002010B501460022002392
:1015200000204A11012A02D1094C236806E0022A50
:1015300002D1074C236A01E0054C636A01F01F02E7
:10154000012494401C4201D0012000E0002010BD85
:10155000001002400248406800F00C007047000094
:101560000010024001460020034A506820F0F000BD
:1015700008435060704700000010024001490860B5
:1015800070470000000042420149086070470000B7
:101590008004424201460020034A506820F4E06083
:1015A00008435060704700000010024001460020D0
:1015B000034A506820F4605040EAC1005060704710
:1015C00000100240014908667047000000004242D6
:1015D00002460020044B586820F47C1042EA0103C4
:1015E0001843014B586070470010024001490860E1
:1015F000704700003C0442420249096A0143014A23
:10160000116270470010024001460020034A5068F2
:1016100020F00300084350607047000000100240B3
:1016200010B5022000F0C6F850B14FF40030FFF7BB
:101630000BF900F085F9022000F004F800F080F9C1
:1016400010BD0000054909886FEA000292B201EA64
:101650000201034AA2F80418704700000428004061
:10166000002000400348008840F010000249A1F823
:101670000408704704280040002000400448008807
:101680004FF6EF7100EA01000249A1F80408704723
:10169000042800400020004070B5002600240025EA
:1016A00000F07AF806463848B6FBF0F43748B0F94F
:1016B0000000A04240D020B23449088040F2B27508
:1016C00010E02846FFF7B0FC40B1B4F5B77F02D96F
:1016D000A4F5B77404E0681C05B206E0A4F26D142A
:1016E000681C05B2B4F5B67FEBD800BF284805806A
:1016F000002517E02649B1F90000FFF795FC30B14D
:10170000012D04D11D2C01D91D3C09E00CE021481C
:101710004057A04203D81F484057241A00E003E076
:10172000681C05B21C2CE5D200BF681C40B21849E9
:101730008870601C40B2C8701348B6FBF0F100FB23
:1017400011644FF46160B4FBF0F040B210490871CD
:101750004FF46160B4FBF0F100FB11403C21B0FBA1
:10176000F1F040B20A4948714FF46160B4FBF0F106
:1017700000FB11403C21B0FBF1F201FB120040B232
:1017800003498871012070BD80510100BA0000201A
:10179000300000201C6B0008002104480188044828
:1017A000B0F8180841EA0040704700001C280040CB
:1017B0000020004001460020074A128802EA010288
:1017C000D0B2064AB2F800280A4202D008B101207D
:1017D00000E0002070470000042800400020004086
:1017E00010B50120FFF7E6FF70B10120FFF72AFFD7
:1017F00000F0A6F8FFF7D0FF0449884204D100208A
:1018000000F07AF800F09CF810BD00008051010053
:101810002DE9F05F06460F4690469946DDE90AAB92
:101820000024B6F5FA6F03DB40F63300864202DD92
:101830000120BDE8F09F40F2B2750AE02846FFF7AC
:10184000F3FB10B12148044401E021480444681C22
:1018500005B2B542F2DB781E47B2002510E01D4804
:10186000405740F2A321484304EBC0143046FFF731
:10187000DBFB18B1012D01D117480444681C05B2E7
:10188000BD42ECDBA8F1010040F2A321484304EB88
:10189000C014C9EB4910C0EB092004EB0014CAEBDB
:1018A0000A1004EB80045C440CA000F0CBFE012085
:1018B000FFF718FD00F044F8204600F01DF800F096
:1018C0003FF809A000F0BEFE0020B2E70085E2016B
:1018D0008033E1011C6B0008805101000D0A492092
:1018E000616D206F6B0D0A000D0A4920616D206F3C
:1018F0006B320D0A0000000000B50246FFF7B2FE91
:10190000100C044908800449A1F81C28FFF7B6FE12
:1019100000BD0000182800400020004000B502462D
:10192000FFF7A0FEC2F30340034908800349A1F872
:101930000C28FFF7A3FE00BD08280040002000404F
:1019400000BF0348008810F0200FFAD07047000055
:1019500004280040074800884FF6F77100EA0100AC
:101960000549A1F8040800BF0248008810F0080FDC
:10197000FAD07047042800400020004005A000F085
:1019800061FE72B671B64FF4FA6001F0DFFDFFF749
:1019900093FC00000D0A4552524F525F5356430DBF
:1019A0000A0000002DE9F04104460F4616464FF4A8
:1019B00096711748FEF7F1FB0020164908600025D4
:1019C0000BE0615D144800F0A2FD00BF4021124809
:1019D00000F0D0FC0028F9D06D1C605D0028F0D12B
:1019E000012208210D48FFF700FB304601F0AEFD53
:1019F000002208210948FFF7F8FA39460448FEF7A3
:101A0000E6FB10B10120BDE8F0810020FBE70000FB
:101A1000180600200400002000440040000C014093
:101A200010B500F001F810BD002100202E4A126808
:101A300042F480322C4B1A6000BF2B4A126802F429
:101A40000030491C10B9B1F5A06FF6D1264A1268D2
:101A500012F4003F01D0012000E00020012842D113
:101A6000224A126842F01002204B1A601A4612688D
:101A700022F003021A601A46126842F002021A604B
:101A8000194A5268184B5A601A4652685A601A46E8
:101A9000526842F480625A601A46526822F47C12FC
:101AA0005A601A46526842F4E8125A601A4612689E
:101AB00042F080721A6000BF0B4A126812F0007F79
:101AC000FAD0094A526822F00302074B5A601A46BC
:101AD000526842F002025A6000BF034A526802F0A4
:101AE0000C02082AF9D17047001002400020024081
:101AF0007047000010B51348006840F0010011491C
:101B0000086008464068104908400E494860084689
:101B100000680E4908400B4908600846006820F438
:101B2000802008600846406820F4FE0048604FF4BA
:101B30001F008860FFF774FF4FF0006004490860E1
:101B400010BD0000001002400000FFF8FFFFF6FE8D
:101B500008ED00E010B50121880700F0C3F860B17E
:101B60000121880700F088F800214FF0804000F044
:101B700086F800204FF08041888410BD10B5012107
:101B8000244800F0AFF8D8B30121224800F074F8DF
:101B900021480068401C2049086008460068052864
:101BA00008D11EA000F04EFD012001F0DCFC002059
:101BB0001F49086018480068052816DD1C480068A1
:101BC0000A2801DD012000E000201A4908601848B9
:101BD00002680846016818A000F034FD00200E4994
:101BE00008601349086001F0BEFC1B48006840B95A
:101BF000012210211948FFF7F8F901201649086061
:101C000007E0002210211548FFF7EFF900201249E4
:101C1000086010BD00040040480000200D0A656EF9
:101C200061626C652063616E20657874690D0A00DD
:101C3000280000202C0000200D0A44455649434549
:101C40002053544154452D2D2D3E2564202D2D3EED
:101C500025640D0A0000000044000020000C014033
:101C600021B1028842F08002028004E002884FF62F
:101C70007F731A4002807047CA430282704721B1C5
:101C8000028842F00102028004E002884FF6FE73EF
:101C90001A400280704700000EB542F21070ADF895
:101CA00004004FF4E150ADF800000020ADF806004C
:101CB000ADF8020069460A4800F032F801210848F0
:101CC000FFF7CEFF01210648FFF7D6FF012211469C
:101CD000034800F018F801210148FFF7D0FF0EBDBE
:101CE0000004004030B50246002000230024158A7D
:101CF00005EA0103958905EA010413B10CB101203D
:101D000000E0002030BD10B51AB183890B438381F8
:101D100004E08389CC43A4B22340838110BD00003A
:101D2000002202881D4B98420ED01D4B98420BD0CA
:101D3000B0F1804F08D01B4B984205D01A4B984207
:101D400002D01A4B984204D14FF68F731A404B8839
:101D50001A43174B984207D0164B984204D04FF6BF
:101D6000FF431A40CB881A4302808B8883850B88F7
:101D700003850A4B98420BD0094B984208D00E4B72
:101D8000984205D00D4B984202D00D4B984201D19C
:101D90000B7A03860123838270470000002C0140E8
:101DA000003401400004004000080040000C0040E6
:101DB0000010004000140040004001400044014079
:101DC0000048014010B508211E4800F0D3FA30B198
:101DD00008211C4800F064F91A4800F093FB40F217
:101DE0002551184800F0D3FA30B3164800F08AFBAA
:101DF000C4B2154801680068401C134A10601348BB
:101E0000445400201149126888540F480068B0F506
:101E1000967F02D900200C4908600D48006804280C
:101E200003D121460B4800F072FB0B48006818B143
:101E300021460A4800F06BFB2021024800F030F9EF
:101E400010BD0000004C00400C000020580C002089
:101E5000140000200038014020000020004800400D
:101E600010B50821154800F085FA30B10821134853
:101E700000F016F9114800F045FB40F225510F48DB
:101E800000F085FAA8B10D4800F03CFBC4B2204632
:101E900001F002FF0A48006805280AD121460948D6
:101EA00000F035FB00BF4021064800F063FA00282F
:101EB000F9D02021014800F0F3F810BD0050004097
:101EC000140000200038014010B50821194800F026
:101ED00051FA30B10821174800F0E2F8154800F037
:101EE00011FB40F22551134800F051FAE0B11148BE
:101EF00000F008FB10490870084601780F48026896
:101F00000068401C0D4B18600D48815400200C499E
:101F10001A46126888541846006840F214518842E4
:101F200002D90020194608602021024800F0B8F8C4
:101F300010BD0000003801403C00002000000020DF
:101F40000401002010B50821214800F013FA30B137
:101F500008211F4800F0A4F81D4800F0D3FA40F211
:101F600025511B4800F013FA80B3194800F0CAFA53
:101F7000184908701848006802280BD108460178F3
:101F8000164800F0C4FA00BF4021144800F0F2F9EE
:101F90000028F9D00F480178114802680068401CF9
:101FA0000F4B18600F48815400200E491A461268E2
:101FB00088541846006840F21451884202D9002023
:101FC000194608602021024800F06AF810BD0000A0
:101FD000004400403D000020140000200038014073
:101FE000040000201806002010B50821254800F044
:101FF000C1F930B10821234800F052F8214800F01F
:1020000081FA40F225511F4800F0C1F9A0B31D48E4
:1020100000F078FAC4B21C48006803280AD12146AF
:102020001A4800F074FA00BF4021184800F0A2F9E5
:102030000028F9D0164801680068401C144A106056
:10204000144844540020134912688854104800680A
:10205000B0F5967F02D900200D4908600E4800684F
:1020600050B121460D4800F052FA00BF4021074808
:1020700000F080F90028F9D02021024800F010F883
:1020800010BD00000048004014000020003801404E
:10209000080000202C0B002020000020004C0040F5
:1020A00001F40072B2F5007F00D100BFCA43028084
:1020B000704721B1828942F40052828104E0828912
:1020C0004DF6FF731A4082817047000000B585B05D
:1020D000012144F20400FFF731F94FF40070ADF82C
:1020E000100018208DF8130003208DF8120004A9A9
:1020F0009748FEF79FFE4FF48060ADF81000042073
:102100008DF8130003208DF8120004A99048FEF703
:1021100091FE4FF47A3000900020ADF80400ADF845
:102120000600ADF80800ADF80C000C20ADF80A0070
:102130006946884800F07AF9012240F22551854825
:1021400000F04FF901218348FFF7B3FF0121480454
:10215000FFF7E4F801210420FFF7F0F80420ADF8C0
:10216000100018208DF8130003208DF8120004A928
:102170007748FEF75FFE0820ADF8100004208DF8C8
:10218000130003208DF8120004A97148FEF752FED7
:102190004FF4E13000900020ADF80400ADF80600E7
:1021A000ADF80800ADF80C000C20ADF80A00694647
:1021B000694800F03BF9012240F22551664800F0E1
:1021C00010F901216448FFF774FF01218804FFF72B
:1021D000A5F801210820FFF7B1F84FF48060ADF8B1
:1021E000100018208DF8130003208DF8120004A9A8
:1021F0005A48FEF71FFE4FF40060ADF8100028208B
:102200008DF8130003208DF8120004A95348FEF73F
:1022100011FE4FF4164000900020ADF80400ADF818
:102220000600ADF80800ADF80C000C20ADF80A006F
:1022300069464B4800F0FAF8012240F2255148481F
:1022400000F0CFF801214648FFF733FF0121C80411
:10225000FFF764F801211020FFF770F84FF4806059
:10226000ADF8100018208DF8130003208DF812002F
:1022700004A93C48FEF7DEFD4FF40060ADF8100005
:1022800004208DF8130003208DF8120004A93548AE
:10229000FEF7D0FD4FF4164000900020ADF804008A
:1022A000ADF80600ADF80800ADF80C000C20ADF854
:1022B0000A0069462C4800F0B9F8012240F2255185
:1022C000294800F08EF801212748FFF7F2FE01218E
:1022D0000805FFF723F801213020FFF72FF84FF40E
:1022E0008050ADF8100018208DF8130003208DF8F1
:1022F000120004A91B48FEF79DFD0420ADF8100054
:102300008DF8130003208DF8120004A91748FEF77A
:1023100091FD4FF4165000900020ADF80400ADF888
:102320000600ADF80800ADF80C000C20ADF80A006E
:1023300069460F4800F07AF8012240F225510C4816
:1023400000F04FF801210A48FFF7B3FE05B000BDC9
:10235000000801400038014000440040000C0140EA
:102360000048004000100140004C004000140140B3
:102370000050004002460020B1F5007F00D100BFB0
:1023800013880B4201D0012000E00020704770B597
:1023900002460024002300250020A1F510666A3EB5
:1023A00000D100BFC1F3421501F01F03012606FA58
:1023B00003F3012D02D19689334006E0022D02D1AC
:1023C000168A334001E0968A33400C12012606FA41
:1023D00004F41688344013B10CB1012000E0002051
:1023E00070BDF0B503460024002600250020A1F5AD
:1023F00010676A3F00D100BF1846C1F3421401F0D4
:102400001F06012707FA06F5012C01D10C3004E064
:10241000022C01D1103000E014301AB107682F43AC
:10242000076002E00768AF430760F0BD2DE9F047A1
:1024300086B005460E460024A24600BFA1460027EE
:10244000B08900B100BF2F462C8A4CF6FF700440C3
:10245000F08804432C82AC894EF6F3100440B08817
:1024600031890843718908430443AC81AC8A4FF633
:10247000FF400440B0890443AC8201A8FEF7E2FFAC
:102480001F48874202D1DDF810A001E0DDF80CA062
:10249000A88910F4004F08D00AEBCA0000EB0A101C
:1024A00031684900B0FBF1F807E00AEBCA0000EB25
:1024B0000A1031688900B0FBF1F86420B8FBF0F035
:1024C00004012009642101FB1089A88910F4004F40
:1024D00008D0322000EBC900B0FBF1F000F007009B
:1024E000044308E0322000EB09106421B0FBF1F056
:1024F00000F00F0004432C8106B0BDE8F087000017
:102500000038014001468888C0F308007047C1F3D5
:10251000080282807047000000B585B000220121CA
:102520002848FEF762FD08212748FEF709F860B148
:1025300026A000F087F86A4600212348FEF794F8A9
:1025400008212148FDF79CFF00BF40211E48FDF7F0
:10255000F7FF60B122A000F075F86A4601211A4821
:10256000FEF782F840211848FDF78AFF00BF0221DC
:102570001548FDF7E5FF60B16A4600211248FEF7F5
:1025800073F81CA000F05EF802210F48FDF778FFF9
:1025900000BF10210C48FDF7D3FF60B119A000F077
:1025A00051F86A4601210848FEF75EF810210648F6
:1025B000FDF766FF00BF012211460248FEF715FD38
:1025C00005B000BD000C0140006400400D0A43410D
:1025D0004E206572726F723121210D0A00000000D9
:1025E0000D0A43414E206572726F723221210D0A2D
:1025F000000000000D0A43414E206F6B21210D0A9F
:10260000000000000D0A43414E206572726F723364
:1026100021210D0A000000000AE006A000F012F8D7
:1026200072B671B64FF4FA6000F090FFFEF744FE08
:10263000F3E700000D0A4552524F525F5553414790
:10264000450D0A000FB4054B10B503A9044A0298C2
:1026500000F030F810BC5DF814FB000011390008E0
:10266000FC0000200FB4084B10B504A902AA03987F
:1026700000F020F8044602A9002000F059FA204694
:1026800010BC5DF814FB0000312B000800487047B7
:102690000001002002E008C8121F08C1002AFAD178
:1026A00070477047002001E001C1121F002AFBD1D2
:1026B000704700002DE9FF4F8DB005460F460026FC
:1026C000EEE1252879D100246D1CF94AA246A146E5
:1026D00001212B78203B01FA03F0104202D0044381
:1026E0006D1CF6E728782A2810D06FF02F02287882
:1026F000A0F13001092915D80AEB8A0102EB41014A
:1027000044F0020400EB010A6D1CF0E757F804AB3B
:10271000BAF1000F03DA44F40054CAF1000A44F09D
:1027200002046D1C28782E2817D115F8010F44F0EB
:1027300004042A280ED06FF02F022878A0F130016F
:1027400009290AD809EB890102EB410100EB0109D3
:102750006D1CF2E757F8049B6D1C28786C280FD08D
:1027600006DC4C2817D068280DD06A2814D104E064
:10277000742810D07A280FD10DE044F400140AE038
:1027800044F4801401E044F440146978814202D199
:102790006D1C04F580146D1C95F800C0BCF16E0F23
:1027A0002AD012DCBCF1630F3CD007DCBCF1000F77
:1027B00076D0BCF1580F19D1ACE018E0BCF1640F31
:1027C0006FD0BCF1690F11D16BE0BCF1730F32D047
:1027D00006DCBCF16F0F71D0BCF1700F06D19BE02D
:1027E000BCF1750F6BD0BCF1780F69D06046DDE9A4
:1027F0000F129047761C52E1C4F30250022806D013
:1028000003280AD0042801CF0AD0066047E101CF8F
:102810004FEAE671C0E9006141E101CF06803EE187
:1028200006703CE101CF8DF8000000208DF801001A
:10283000EB46012003E057F804BB4FF0FF3061077F
:102840004FF0000102D40DE008F10101884649452E
:102850000FDA8045F8DB1BF808100029F4D108E0F6
:1028600008F1010188468142FADB1BF808100029B3
:10287000F6D1DDE90F23AAEB08008146214600F0DE
:1028800040F9304400EB080604E0DDE90F121BF8C4
:10289000010B9047B8F10108F7D221464846F9E00C
:1028A00002E10A20C4F302524FF0000B0890022A02
:1028B00007D001CFC117032A09D00AE035E022E092
:1028C00023E0FF1D27F00707F7E8020105E000B24B
:1028D000C117042A01D140B2C117002906DA00232A
:1028E000D0EB030063EB01012D2202E0220504D5A9
:1028F0002B228DF82420012203E0E20701D02022C0
:10290000F7E7904653E00A2110E010204FF0000B4B
:1029100008900EE0102109E010214FF0000B44F068
:1029200004044FF00809089103E008214FF0000B60
:102930000891C4F30252022A04D001CF0021032AD5
:1029400006D007E0FF1D27F00707F7E8020105E0C2
:1029500080B20021042A01D1C0B200214FF000084A
:10296000220724D5BCF1700F2AD0089B83F01003F6
:1029700053EA0B0309D150EA010206D030228DF848
:1029800024208DF825C002229046089B83F008037E
:1029900053EA0B030BD150EA010201D1620706D5BD
:1029A00030228DF824204FF00108A9F1010941A23D
:1029B000BCF1580F00D044A20B9208AA0A920FE073
:1029C00040228DF824200122DEE75B46089AFDF7BD
:1029D00061FC0B9B9B5C0A9AA2F101020A921370A4
:1029E00050EA0102F1D10A98ADEB000000F1200B92
:1029F000600702D524F4803401E04FF00109002083
:102A000049465A46D94501DDA1EB020000EB0B0116
:102A100041440890AAEB01000B90E00306D4DDE9E5
:102A20000F2321460B9800F06CF806444FF0000984
:102A30000DF1240A07E0DDE90F121AF809009047AA
:102A4000761C09F10109C145F5DBE0030CD5DDE990
:102A50000F2321460B9800F054F8064404E0DDE90A
:102A60000F1230209047761C0899481E08900029C4
:102A7000F5DC08E00A980A990078491C0A91DDE91A
:102A80000F129047761CBBF10001ABF1010BF1DC9A
:102A90000B982146DDE90F2300F020F806446D1C59
:102AA000287800287FF40DAE11B03046BDE8F08FD5
:102AB0000928010030313233343536373839414254
:102AC0004344454600000000303132333435363758
:102AD0003839616263646566000000002DE9F041E9
:102AE0000446002517461E46880405D406E03946EC
:102AF0002020B04705F10105641EF8D52846BDE841
:102B0000F0812DE9F04104460025302790461E460D
:102B1000C80300D42027880405D506E0414638467E
:102B2000B04705F10105641EF8D52846BDE8F081DF
:102B30000A68531C0B601070704700002DE9F041CB
:102B400004460F46164600254FF496711148FDF7CE
:102B500024FB00BF0BE0615D0F48FFF7D8FC00BF0E
:102B600040210D48FFF706FC0028F9D06D1C605D80
:102B70000028F0D109490860304600F0E7FC3946EA
:102B80000448FDF724FB10B10120BDE8F0810020CE
:102B9000FBE70000580C0020004C00400C00002017
:102BA00070B5044600250420174908604CB917A0E9
:102BB000FFF748FD002202211B48FEF716FA01200C
:102BC00070BD1AA0FFF73EFD012202211648FEF754
:102BD0000CFA4FF4FA6000F0B9FC00250CE04FF459
:102BE0007A7218A118A0FFF7A9FF20B117A0FFF76C
:102BF00029FD0120E4E76D1C052DF0DB18A0FFF78F
:102C000021FD0020DCE70000140000200D0A626CAA
:102C1000756520746F6F74682070776F6572206FB0
:102C200066660D0A00000000000801400D0A626C93
:102C3000756520746F6F74682070776F6572206F90
:102C40006E0D0A004F4B000041540D000D0A626CDE
:102C50007565207374617274206F6B0D0A0000003B
:102C60000D626C7565207374617274206572726F89
:102C7000720A0000F0B5ADF5017D05460E464FF431
:102C800000720F4901A8FDF76FFA00240EE02046FC
:102C9000E11704EB1161C1F307272006040C287823
:102CA000784001A931F8100044406D1C3000A6F1B5
:102CB0000101CEB2EBD120460DF5017DF0BD000043
:102CC000106700082DE9FF4FADF5017D07468946E5
:102CD00090469A46DDF838B200254FF40072264936
:102CE00001A8FDF741FA002497B100BF0EE020468D
:102CF000E11704EB1161C1F307262006040C785D8F
:102D0000704001A931F8100044406D1C4D45EEDBC8
:102D1000B8F1000F13D000250FE02046E11704EBB7
:102D20001161C1F307262006040C18F80500704055
:102D300001A931F8100044406D1C5545EDDBBBF195
:102D4000000F14D000250FE02046E11704EB1161BD
:102D5000C1F307262006040C1BF80500704001A9EA
:102D600031F8100044406D1C8F988542ECDB204602
:102D70000DF5057DBDE8F08F1069000838B50446F3
:102D8000042C00D82CB916A0FFF75CFC4FF0FF30E4
:102D900038BD224618A16846FFF764FC694617A0B3
:102DA000FFF750FC4FF4C8721EA121A0FEF7FAFDF8
:102DB00028B923A0FFF746FC4FF0FF30E8E769464B
:102DC0002648FDF704FA28B1694625A0FFF73AFC2A
:102DD0000020DDE7694624A0FFF734FC0120D7E797
:102DE000717565727920736F636B65742049442037
:102DF0006572726F720D0A00256400000D0A636827
:102E000065636B20736F636B657420257320737427
:102E10006174652B2B2B2B2B2B2B2B2B2B2B2B2B49
:102E20000D0A00002B4D49504F50454E0000000048
:102E300041542B4D49504F50454E3F0D000000006E
:102E4000717565727920736F636B657420636D644F
:102E5000206572726F720D0A0000000018060020D3
:102E600063616E206E6F742066696E64207468659D
:102E700020736F636B65743A25730D0A00000000C0
:102E800092B000BF0024002500204249086001F0F4
:102E90005FFD0020FFF784FE0120FFF781FE002088
:102EA00001F094FD3CA0FFF7CDFB4FF4FA6000F079
:102EB0004DFB01F017FF00213C48FEF7E0FE01202A
:102EC0003449086000203A49086001F093FF6D1C06
:102ED00002203849086038A0FFF7B4FB00BF03F0B8
:102EE00011FB4FF4FA7239A139A0FEF75BFD4FF4E4
:102EF000FA7236A136A0FEF755FD36A13948FDF726
:102F000066F920B938A13748FDF761F930B138A02A
:102F1000FFF798FB012003F0AFFBE0E702F02CF98C
:102F200036E0FEF739FC044637A0FFF78BFB00F0D4
:102F30000BFE442238496846FDF716F93648143826
:102F4000001D0FC800F02AFB20B9294633A0FFF767
:102F500079FBC4E716480122002103682E48103887
:102F600002F09CFA012200212B48103802F056FB97
:102F7000FEF712FC061BFEF70FFC074633462246FF
:102F800001462EA0FFF75EFB40F6B83000F0DEFAF7
:102F9000C7E70000200000200D0A207379737465D4
:102FA0006D20626567696E0D0A0000000004004034
:102FB00024000020140000200D0A424547494E20FD
:102FC00053454E44204D53470D0A00004F4B00001F
:102FD00041540D004E4F5420494E534552544544E0
:102FE000000000001806002052454D4F56450000D5
:102FF0000D0A73696D2063617264206E6F742069BD
:103000006E736572740D0A000D0A707265706172DC
:1030100065206770730D0A00F81100200D0A6573B2
:103020007461626C697368206E6574776F726B206F
:103030006661696C203A25640D0A00000D0A544946
:103040004D452055534544203A25642D3E25642D99
:103050002D3E25640D0A00002DE9FF4F97B00E4666
:103060001746984600240025A146A2464FF47A71DF
:10307000B348FDF792F8142112A8FDF78EF800BFAF
:1030800000BFB9F1020F15DDB8F1010F07D1ADA0F6
:10309000FFF7D8FA4FF0FF301BB0BDE8F08FB2A0B9
:1030A000FFF7D0FA4FF000094FF47A7000F04EFAB3
:1030B0000020F1E709F101093A9888B1B3A0FFF7C0
:1030C000C1FA442229A96846FDF74EF825A80FC881
:1030D00000F064FA002803DCB3A0FFF7B3FAD0E7EE
:1030E0004FF0000A00BF0AF1010ABAF1020F05DD34
:1030F000B2A0FFF7A7FA4FF0FF30CDE74FF47A7197
:103100008F48FDF74AF800242146B1A0FFF79AFA4C
:103110000FB38B4A1C21B44803F024FA044604EB95
:10312000D4714910B4EB410103D0B0A0FFF78AFA83
:10313000D9E783480219B1B2179803F013FA204473
:1031400004B204EBD4714910B4EB41011CD0AFA020
:10315000FFF778FAC7E77A48FDF74FF8784900EBB0
:10316000010B5A46B1B2179803F0FCF9204404B29F
:1031700004EBD4714910B4EB410105D0A3A0FFF7D3
:1031800061FA4FF0FF3087E7A34604EBD47042109A
:10319000A5A1AB48FFF766FAA949AAA0FFF752FA22
:1031A0004FF4FA72ADA1A648FEF7FCFB40F21451B1
:1031B000AB48FCF7F2FF0020AA4908601421AA4896
:1031C000FCF7EBFFA9A1A848319AFFF74BFA5C493D
:1031D000AAA0FFF737FA5A4AA349ACA0FFF732FA80
:1031E0002221AF48FFF793F900BF4021AC48FFF719
:1031F000C1F80028F9D00D21A948FFF788F900BFD0
:103200004021A748FFF7B6F80028F9D00A21A448C2
:10321000FFF77DF900BF4021A148FFF7ABF8002878
:10322000F9D04748FCF7E9FF83468F48FCF7E5FFF4
:1032300023465A46014611909AA0FFF703FA4FF42D
:103240007A7000F083F914219DA0FFF7FBF9214665
:10325000A0A0FFF7F7F900250DE08348405781B2A1
:10326000A148FFF754F900BF40219F48FFF782F8BB
:103270000028F9D06D1C7C48FCF7BFFFA842ECD8B1
:1032800000251AE02E48405781B29748FFF73FF9D2
:1032900000BF40219448FFF76DF80028F9D0284876
:1032A000405781B27E48FFF732F900BF40217C4889
:1032B000FFF760F80028F9D06D1CA542E2DB00BFE3
:1032C00040218948FFF756F80028F9D02221864886
:1032D000FFF71DF900BF40218348FFF74BF8002896
:1032E000F9D00D218048FFF712F900BF40217E4838
:1032F000FFF740F80028F9D07CA0FFF7A3F91BE006
:10330000642000F023F955A15548FCF760FF18B17F
:1033100077A0FFF797F910E07CA15148FCF757FF21
:1033200018B17CA0FFF78EF9ABE66D1C322D03DDE2
:1033300081A0FFF787F900E0E2E700BF0120ABE6DC
:103340009C1700200D0ACAFDBEDDD6D8B7A2CAA7B9
:10335000B0DCD7B4CCACA3ACB2BBB2B9B7A2CAFD97
:10336000BEDD0D0A000000000D0ACAFDBEDDD6D884
:10337000B7A2CAA7B0DCA3ACB4E6B4A2B5BDCAFD7F
:10338000BEDD466C617368D6D00D0A000D0ABCEC38
:10339000B2E9CDF8C2E7CAC7B7F1D0E8D2AAD6D809
:1033A000C1AC0D0A000000000D0ACDF8C2E7D6D866
:1033B000C1ACCAA7B0DC0D0A000000000D0A73748E
:1033C0007232486578206572726F720D0A000000D3
:1033D0000D0A64617461206C656E677468203A2020
:1033E00025640D0A00000000AC1B00200D0A636874
:1033F0006172207472616C617465206865616465D6
:1034000072206572726F720D0A0000000D0A7472EC
:10341000616E736C617465206461746120657272A1
:103420006F720D0A0000000041542B4D4950534566
:1034300054533D312C25642C3530300D00000000F4
:10344000981B00200D0A73657420736F636B65749D
:1034500020636D643A25730D0A0000004F4B000095
:103460001806002004000020841B002041542B4D2E
:10347000495053454E443D25642C22000D0A646199
:10348000746120203A25730D0A0000000D0A73654F
:103490006E6420636D64203A25732573000000007C
:1034A000003801400D0A636D643A2564202062757E
:1034B000663A25642020646174613A25640D0A002F
:1034C0000D0A636D642073697A65203A25640D0ADC
:1034D000000000000D0A6275662073697A65203A63
:1034E00025640D0A00000000004400400D0A0000A1
:1034F0000D0A46494E442053454E44204F4B2C4321
:103500004F4E54494E55450D0A0000004552524F4A
:10351000520000000D0A46494E44204552524F5277
:103520002E474F544F2053544F524520414E442074
:103530004552524F520D0A000D0A54494D45204F35
:103540005554202C474F4F4E0D0A0000002107E034
:10355000002200E0521C42F228339A42FAD3491C5E
:103560008142F5D3704738B504461CB900208DF868
:10357000030002E001208DF803004FF4E060FDF746
:1035800091FE28208DF8000000208DF801008DF8B4
:1035900002006846FDF744FE38BD00000FB4FEB5DA
:1035A00000256748007838BB4FF47A70FFF7CEFFEC
:1035B00050216448FCF7F1FD28216348FCF7EDFD3C
:1035C00009A9139B169A8DE80E0060A15D48DDE9FC
:1035D0001423FFF747F8012364A15B48149AFFF70F
:1035E00041F8584965A0FFF72DF8574968A0FFF743
:1035F00029F80120524908701498FFF7BFFB0028F2
:1036000006DD68A0FFF71EF80120FEBC5DF814FB84
:1036100068A0FFF717F86DA0FFF714F800BF032D9F
:1036200008DD70A0FFF70EF8012003F025F8002553
:10363000681EEAE76D1C01F021FDD0B3002410E004
:103640004FF47A7272A175A0FEF7ACF900B10AE0EE
:103650004FF47A7274A171A0FEF7A4F900B102E0F0
:10366000641C142CECDB00BF0E2C06DB71A0FEF7F3
:10367000E9FF002003F000F8D1E701F0EBFD01F0D5
:10368000BBFE002002F0B4FD002800DAC7E70024EA
:1036900041E04FF4C8726DA16DA0FEF783F94FF4BD
:1036A000FA6229492748FEF77DF96AA0FEF7CAFFAA
:1036B0002EE03BE06BA16E48FCF789FD20B96DA1BF
:1036C0006B48FCF784FDB8B16DA0FEF7BBFF149802
:1036D000FFF754FB01280AD172A0FEF7B3FF75A0D3
:1036E000FEF7B0FF79A0FEF7ADFF01208DE74FF4A4
:1036F0007A70FFF72BFF0CE04FF47A70FFF726FF8C
:1037000078A0FEF79FFF761C052E01DD002600E065
:10371000D0E700BF641C0A2CBBDB092C0DDB72A0B8
:10372000FEF790FF002002F0A7FF78E773A0FEF7F6
:1037300089FF002002F0A0FF71E7012065E700008B
:103740009C000020241700207417002041542B4DAA
:1037500049504F50454E3D25642C25642C2225733D
:10376000222C25642C25640D000000002B4D4950AF
:103770004F50454E3A2025642C2564000D0A736F86
:10378000636B657420636D64203A25730D0A000035
:103790000D0A736F636B65742073746174653A25E9
:1037A000730D0A006E6574776F726B206F6B0D0A74
:1037B000000000004E6574204572726F722C7265B5
:1037C000436F6E6E6563740D0A0000000D0A657329
:1037D0007461626C697368206E6574776F726B0DCB
:1037E0000A0000000D0ACDF8C2E7D7A2B2E1CAA7CD
:1037F000B0DCB4CECAFDB9FDB6E02CC9E8B1B8B9A9
:10380000CAD5CFA3ACC7EBBCECB2E90D0A000000EF
:103810002B435245473A20302C31000041542B4372
:103820005245473F0D0000002B435245473A203098
:103830002C3500000D0A53494D393030CDF8C2E720
:10384000D7A2B2E1CAA7B0DC0D0A00004F4B0000BE
:1038500041540D000D0A77616974696E67206E65C9
:10386000740D0A002B4D4950535441540000000080
:10387000180600202B4D49504F50454E00000000C7
:103880000D0A6F70656E20636D64206F7665722C13
:10389000626567696E20636865636B207374617429
:1038A000650D0A000D0A73636F6B6574206F6B0DF5
:1038B0000A0000000D0A53494D393030207265630B
:1038C0006F6E6E656374204F4B0D0A000D0A5345F1
:1038D0004E44204F4E4C494E45204D455353414791
:1038E000450D0A002B2B2B000D0A53494DCDF8C274
:1038F000E7BDA8C1A2CAA7B0DC0D0A000D0A534952
:103900004D393030C6F4B6AFCAA7B0DC0D0A00009E
:1039100070B504460D46E1B20548FEF7F8FD00BF5C
:1039200080210348FEF726FD0028F9D0204670BD0F
:1039300000380140F8B505460E4600246648008868
:10394000F0BB00206549088000BF15E06448B0F86E
:103950002C010119634800EB810080785F4931F840
:10396000141001445D4A601C32F81000084481B212
:10397000601C22F8101084B25948B0F82E11B0F82B
:103980002C01081AA042E1DC57A0FEF75BFE0024E0
:103990001BE00A2094FBF0F100FB114010B958A085
:1039A000FEF750FE4D4830F814304D48B0F82C0169
:1039B00001194C4800EB81008278214651A000E0BB
:1039C0004CE0FEF73FFE601C84B2C82CE1DB002017
:1039D00050490880002415E04148B0F83001011931
:1039E000404800EB810080784A4931F814100144C6
:1039F000484A601C32F81000084481B2601C22F86A
:103A0000101084B23648B0F83211B0F83001081AFC
:103A1000A042E1DC40A0FEF715FE002419E00A20D8
:103A200094FBF0F100FB114010B935A0FEF70AFE3F
:103A3000384830F814302A48B0F8300101192948C4
:103A400000EB8100827821462EA0FEF7FBFD601C72
:103A500084B2C82CE3DB01201F49088026BB204824
:103A6000B0F82C01281A1D4931F810301C48009379
:103A7000B0F82E31B0F82C2129462CA0FEF7E2FD3B
:103A80001748B0F82E01A84204DB1548B0F82C0105
:103A9000A84201DD0020F8BD1148B0F82C01281A19
:103AA0000E4931F81000F6E7012E13D10C48B0F89A
:103AB0003201A84204DB0A48B0F83001A84201DD17
:103AC0000020E8E70648B0F83001281A114931F81B
:103AD0001000E0E70020DEE7A8000020441C0020E2
:103AE000E4110020181300200D0A4E4F524D414C96
:103AF00020494E444558204D41500D0A0000000019
:103B00000D0A00002534642D3E2534642D3E2534F5
:103B100064202000D41D00200D0A46415354204942
:103B20004E444558204D41503A0D0A006D617020B9
:103B3000696E646578202564202D3E2025642D3E25
:103B400025642D2D3E25640010B500213E48FEF76A
:103B5000B0FA3EA0FEF776FD0020414908604149D9
:103B600008604149086017E0782040493E4A1268E1
:103B7000885478213D481E303B4A126881541438DD
:103B8000394A126881541E30374A126881543648C7
:103B90000068401C34490860334800680928E3DBAA
:103BA00078203249487281F82700087581F8320080
:103BB00000202D4908600EE078212C4835302A4A33
:103BC00012688154401D284A1268815426480068B2
:103BD000401C25490860244800680528ECDB40F2B9
:103BE000E7302249886100201E4908601C490860AE
:103BF0001F49086030201D49087730211B48417754
:103C000030201A4981F833003021184880F83410E8
:103C100000201849086018490860184908601849C8
:103C20000860184908601849087018490860184960
:103C300008601848002101608180817101210248DB
:103C4000FEF737FA10BD0000004800400D0A47504B
:103C50005320496E69742D2D2D2D2D2D0D0A000038
:103C6000840000207C00002078000020E416002062
:103C700080000020880000208C00002090000020A0
:103C800094000020980000207000002060000020B8
:103C90006C00002064000020FA49097879B3FA49E1
:103CA0000968062902D0FF297ED12FE1F749C9789A
:103CB000472972D1F549097947296ED1F3494979E4
:103CC00041296AD10121F24A11600021F14A1160B3
:103CD00009E07822F049EF4B1B68CA54ED490968A6
:103CE000491CEC4A1160EB4909680929F1DB78218C
:103CF000E94A921ED1720021E64A11600BE0F3E31B
:103D00007822E5490A31E34B1B68CA54E149096846
:103D1000491CE04A1160DF4909680A29F0DB782173
:103D2000DD4A921E9175D1750021DA4A11600AE0D0
:103D30007822D9491631D74B1B68CA54D54909682E
:103D4000491CD44A1160D34909680229F0DB0021DB
:103D5000D04A11600AE07822CF491831CD4B1B6858
:103D6000CA54CC490968491CCA4A1160C949096842
:103D70000429F0DB0021C74A11600AE00022C6498D
:103D80001C31C44B1B68CA54C2490968491CC14A4A
:103D90001160C04909680A29F0DBBC4949795629F4
:103DA00028D10421BA4A00E0FEE311600021B94A9B
:103DB00011601BE07822B949B64B1B6801F823203B
:103DC000B44B1B6801EB83014A70B449B14B1B68CB
:103DD00001EB83018A70B149AE4B1B6801EB830193
:103DE000CA70AC490968491CAA4A1160A949096806
:103DF0000C29DFDBA5494979432971D10821A44A5F
:103E000011600021A34A116009E07822A449A14B66
:103E10001B68CA549F490968491C9E4A11609D4904
:103E200009680A29F1DB78219D4A921E117300214D
:103E3000984A11600AE0782299490B31954B1B682A
:103E4000CA5494490968491C924A11609149096809
:103E50000929F0DB7821924A921E917500218D4A42
:103E600011600AE078228E4915318A4B1B68CA54CA
:103E700088490968491C874A1160864909680A29E6
:103E8000F0DB7821864A921E82F821100021814AB7
:103E900011600AE07822824920317E4B1B68CA54A7
:103EA0007C490968491C7B4A11607A4909680529DF
:103EB000F0DB0021774A11600AE078227849253149
:103EC000744B1B68CA5473490968491C714A1160D4
:103ED000704909680529F0DB00216E4A11600BE08A
:103EE0000EE078226E492A316A4B1B68CA54694930
:103EF0000968491C674A1160664909680629F0DBB0
:103F00002C2802D1FF21604A1160FEE36049096854
:103F1000012904D004297ED008297DD1EDE02A288A
:103F200002D02C2879D190E00021564A11705A49CC
:103F3000891EC97D302971D05749891EC97E2E2915
:103F40000FD15549891E097F3039534A921E927EFE
:103F5000303A02EB820201EB42014F4A921E91621B
:103F600020E04D49891E097F2E2916D14A49891E14
:103F7000897E303964225143474A921ED27E303ABC
:103F800002EB820201EB42024349891E497F30392C
:103F90001144414A921E916204E04FF47A713E4A04
:103FA000921E91623C49891E896A3E4A92699142F9
:103FB0004ADC0021374A11600CE03749354A126863
:103FC000895C384A334B1B68D15432490968491C13
:103FD000304A11602F4909680929EEDB00212D4A7A
:103FE00011600EE02C490A312A4A12688A5C2D4978
:103FF0000A31284B1B68CA5426490968491C254ABE
:104000001160244909680A29ECDB2349891EC97A11
:10401000244A517203E0B9E1F6E320E014E01E49BE
:10402000891E897D11751C49891E097E11771A49DF
:10403000891E4A7E1B494A771749891E896A194A8F
:1040400091610121184A116055E01349891E0978D0
:10405000491C114A921E1170002151704BE00E490B
:10406000891E097809293ED2DFE801F03D052023A9
:10407000282B2E3338000849891E4A78891C885419
:1040800032E00000700000206C000020640000207E
:10409000600000207800002082160020B416002066
:1040A0004E160020E41600207C000020FF49C87254
:1040B0001AE0FE494A780C31885415E0FB498875AE
:1040C00012E0FA49C8750FE0F8494A781831885467
:1040D0000AE0F6494A781A31885400BFF3494A7811
:1040E0001E31885400E000BF00BFF0494978491CE8
:1040F000EE4A517000BF00BFD6E32A2802D02C2818
:104100007DD1FEE00021EA4A1170EA4A11600121E6
:10411000E94A1160E949097B412978D10021E84A3F
:1041200011600DE0E5490D31E54A12688A5CE54908
:10413000E34B1B68CA54E2490968491CE04A116014
:10414000DF4909680929EDDB0021DD4A11600EE035
:10415000DA491731DA4A12688A5CDA490A31D84BEF
:104160001B68CA54D6490968491CD54A1160D4490C
:1041700009680A29ECDBD149897DD24A1E3A82F8C6
:104180002710CE4991F8211082F832100021CC4A34
:1041900011600EE0C9492231C94A12688A5CC949D6
:1041A0001731C74B1B68CA54C5490968491CC44A22
:1041B0001160C34909680529ECDB0021C04A116080
:1041C0000EE0BE492731BE4A12688A5CBD491C31E7
:1041D000BB4B1B68CA54BA490968491CB84A1160EC
:1041E000B74909680529ECDBB049097EB54A1E3A92
:1041F00082F83310AD494A7EB2491E3901E088E0A9
:1042000005E081F834200121AF4A11607047AB49C5
:10421000897D782974D00021A94A11600DE0A74951
:104220000D31A74A12688A5CA649A54B1B68CA547F
:10423000A3490968491CA24A1160A14909680929D2
:10424000EDDB00219E4A11600EE09C4917319C4A2B
:1042500012688A5C9B490A31994B1B68CA54984979
:104260000968491C964A1160954909680A29ECDBDE
:104270009249897D934A1E3A82F827108F4991F816
:10428000211082F8321000218D4A11600EE08B4916
:1042900022318B4A12688A5C8A491731884B1B6825
:1042A000CA5487490968491C854A116084490968CC
:1042B0000529ECDB0021824A11600EE07F4927319D
:1042C0007F4A12688A5C7F491C317D4B1B68CA5447
:1042D0007B490968491C7A4A1160794909680529AE
:1042E000ECDB7249097E774A1E3A82F833106F4937
:1042F0004A7E74491E3981F834200121734A1160C5
:1043000042E06E490978491C6C4A117000215170D5
:104310003AE06A49097809292ED2DFE801F0050A56
:104320000D12151A1E23280064494A78891C8854E6
:1043300023E06249087320E060494A780D318854CF
:104340001BE05E49887518E05C494A78173188544B
:1043500013E05A4981F821000FE058494A78223188
:1043600088540AE055494A782731885405E0534972
:104370004A782C31885400E000BF00BF4F4949788B
:10438000491C4E4A517000BF00BF8DE22A2802D05E
:104390002C287ED1DFE10021454A11704C49C978B3
:1043A000312977D100214B4A11604B4A11604B4AA9
:1043B00011604B4A11604B4A1160414A1160A2E002
:1043C000434908313E4A126801EB8201C9787829D5
:1043D0006BD040490968491C3E4A11603C4908318C
:1043E000374A126801EB8201C9783039384A0832FD
:1043F000334B1B6802EB83029278303A02EB820265
:1044000001EB42010A2904DB33490968491C324A9D
:1044100011602F4908312A4A126801EB8201C978DC
:1044200030392B4A0832264B1B6802EB8302927804
:10443000303A02EB820201EB4201142904DB2749E6
:104440000968491C254A1160214908311C4A126833
:1044500001EB8201C97830391D4A0832184B1B68BC
:1044600002EB83029278303A02EB820201EB4201C6
:104470001E2904DB1A490968491C194A11601449AC
:1044800008310F4A126801EB8201C9783039104AAD
:1044900001E068E13DE00832094B1B6802EB830252
:1044A0009278303A02EB82021FE027E0801600206B
:1044B000700000206C000020740000204C160020CA
:1044C00078000020021700208400002080000020D7
:1044D000AC160020880000208C00002090000020F6
:1044E0009400002098000020F2E101EB420128290D
:1044F00004DBFF490968491CFD4A1160FD49096850
:10450000491CFC4A1160FB4909680429FFF658AFB1
:1045100020E1F949C97832297ED10421F54A116098
:1045200083E0F5490831F34A126801EB8201C9784A
:10453000782975D0F1490968491CF04A1160EE49A3
:104540000831EC4A126801EB8201C9783039EA4A35
:104550000832E84B1B6802EB83029278303A02EB98
:10456000820201EB42010A2904DBE5490968491C82
:10457000E34A1160E0490831DE4A126801EB82012A
:10458000C9783039DC4A0832DA4B1B6802EB830207
:104590009278303A02EB820201EB4201142906DBE9
:1045A000D8490968491C00E080E1D64A1160D24927
:1045B0000831D04A126801EB8201C9783039CE4AFD
:1045C0000832CC4B1B6802EB83029278303A02EB44
:1045D000820201EB42011E2904DBCB490968491C18
:1045E000C94A1160C4490831C24A126801EB82010C
:1045F000C9783039C04A0832BE4B1B6802EB8302CF
:104600009278303A02EB820201EB4201282907DB63
:10461000B7490968491C01E00DE001E0B44A1160A6
:10462000B4490968491CB34A1160B24909680829AC
:10463000FFF677AF8EE0B049C978332966D10821FB
:10464000AC4A116081E0AC490831AA4A126801EB1A
:104650008201C978782973D0A8490968491CA74AFA
:104660001160A5490831A34A126801EB8201C9789B
:104670003039A14A08329F4B1B6802EB83029278C3
:10468000303A02EB820201EB42010A2904DB9C4929
:104690000968491C9A4A116097490831954A12687D
:1046A00001EB8201C9783039934A0832914B1B687B
:1046B00002EB83029278303A02EB820201EB420174
:1046C000142904DB8F490968491C8E4A11608A4904
:1046D0000831884A126801EB8201C9783039864A6C
:1046E0000832844B1B6802EB83029278303A02EB6B
:1046F000820201EB42011E2904DB83490968491C3F
:10470000814A11607C49083101E0E0E022E0794A09
:10471000126801EB8201C9783039774A0832754B4B
:104720001B6802EB83029278303A02EB820201EBC3
:104730004201282904DB6E490968491C6C4A116052
:104740006C490968491C6B4A11606A4909680C295F
:10475000FFF679AFA2E068490978491C664A1170F2
:10476000002151709AE064490978132974D2DFE876
:1047700001F00A0D2A2B343536404C4D4E5A6566F1
:1047800067747F8081005C49887080E05A49C870F6
:10479000C978312903D10021574A516012E05649A6
:1047A000C978322903D10421534A51600AE05249A1
:1047B000C978332903D108214F4A516002E008210A
:1047C0004D4A516063E062E04B494A68083101EBB1
:1047D0008201494A5278885459E058E057E04649E6
:1047E0004A68083101EB8201891C434A5278885497
:1047F0004DE041494968491C3F4A083202EB8101BA
:10480000083A5278885442E04AE040E03FE03A49B2
:104810004968491C384A083202EB8101891C083A70
:104820005278885433E034494968891C324A083246
:1048300002EB8101083A5278885428E027E026E00C
:104840002D494968891C2C4A083202EB8101891CD8
:10485000083A527888541AE018E027494968C91C78
:10486000254A083202EB8101083A527888540EE05A
:104870000DE00CE020494968C91C1F4A083202EBD0
:104880008101891C083A5278885400E000BF00BFBB
:1048900019494978491C184A517000BF00BF03E00C
:1048A00000211A4A117000BF00BF10E01849194AD0
:1048B0001268885417490968491C164A1160114644
:1048C0000968072902DD0021104A117000BF33E09A
:1048D000242831D10E4900220A608A808A7108702A
:1048E00001210A4A117000210B4A1160012115E0D3
:1048F0009800002078000020AC16002088000020DE
:104900008C00002090000020940000207000002007
:10491000640000206C00002060000020074A116045
:104920000021074A11705170064A11705170064AF1
:1049300011705170054A116000BF67E46C000020DF
:104940004C160020AC1600208016002074000020B9
:1049500010B50BA0FDF776FE002208210F48FCF7EA
:1049600044FB4FF4FA70FEF7F1FD012208210B48D9
:10497000FCF73BFB4FF4FA70FEF7E8FD10BD0000BA
:104980000D0A4F50454E2047505320506F776572A7
:104990002E2E2E2E2E2E2E2E0D0A0000001001403F
:1049A00010B5FCF7EBFC01210748FCF7CDFAFCF74A
:1049B00043F8FDF78BFBFBF74DFFFCF77DFB01F0A8
:1049C00005FAFDF769F910BD0004300010B58CB090
:1049D000044678A0FDF736FE4FF4FA727BA17CA066
:1049E000FEF7ACF84FF4FA7278A179A0FEF7A6F8BA
:1049F000794A7AA104A8FDF735FE04A97AA0FDF74B
:104A000021FE4FF4FA7271A104A8FEF797F800286E
:104A100003DA4FF0FF300CB010BD4FF4FA726BA107
:104A200077A0FEF78BF8202104A8FBF7B6FB6A4AB3
:104A3000143276A104A8FDF715FE04A976A0FDF7AF
:104A400001FE4FF4FA7261A104A8FEF777F800287E
:104A500002DA4FF0FF30DEE74FF4FA725BA174A088
:104A6000FEF76CF8202104A8FBF797FB4FF41641E2
:104A70004EF2E842881A914247D014DCB1F5165F35
:104A800034D009DCB1F5966F21D0B1F5166F23D083
:104A9000B1F5965F57D124E0B1F5964F2BD0B1F523
:104AA000164F50D12CE0654A811A90423CD007DC69
:104AB000A0F55D4018382DD0B0F5E13F43D12EE090
:104AC000B1F5E12F35D0B1F5612F3CD136E05CA1D5
:104AD00004A8FBF76EFB3BE05CA104A8FBF769FBB5
:104AE00036E05DA104A8FBF764FB31E05DA104A8FA
:104AF000FBF75FFB2CE05EA104A8FBF75AFB27E065
:104B00005EA104A8FBF755FB22E05FA104A8FBF718
:104B100050FB1DE05FA104A8FBF74BFB18E060A170
:104B200004A8FBF746FB13E060A104A8FBF741FBD8
:104B30000EE061A104A8FBF73CFB09E061A104A819
:104B4000FBF737FB04E04DA104A8FBF732FB00BFE5
:104B500000BF04A95EA0FDF775FD4FF4FA721BA11A
:104B600004A8FDF7EBFF002802DA4FF0FF3052E710
:104B70004FF4FA7215A12EA0FDF7E0FF4FF4164096
:104B800000900020ADF80400ADF80600ADF8080074
:104B9000ADF80C000C20ADF80A0069465048FDF74E
:104BA00045FC012240F225514D48FDF71AFC012039
:104BB00031E700000D0A73657420626C7565746FCF
:104BC0006F7468206D6F64650D0A00004F4B000024
:104BD00041540D0A00000000BC12002041542B4E2D
:104BE000414D4525730D0A0073657420626C75652F
:104BF000206E616D6520636D64203A2573000000AE
:104C000041542B4E414D450D0A00000041542B509C
:104C1000494E25730D0A000073657420626C75653A
:104C2000207061737320636D64203A257300000067
:104C300041542B50494E0D0A000000001823060075
:104C400041542B42415544310D0A000041542B423E
:104C5000415544320D0A000041542B424155443322
:104C60000D0A000041542B42415544340D0A000006
:104C700041542B42415544350D0A000041542B420A
:104C8000415544360D0A000041542B4241554437EA
:104C90000D0A000041542B42415544380D0A0000D2
:104CA00041542B42415544390D0A000041542B42D6
:104CB000415544410D0A000041542B4241554442A4
:104CC0000D0A000041542B42415544430D0A000097
:104CD0006261756420636D64203A257300000000F2
:104CE000004C004000B505220249034800F006F8D8
:104CF00000BD0000D0200020EC22002030B513467B
:104D0000002484600160416000220EE002EBC204D6
:104D100004EB440401EB84046C3402EBC20505EBA4
:104D2000450501EB8505AC66521C5C1E9442EDD82E
:104D300003EBC30404EB440401EB840444F8041CB7
:104D400030BD000010B5FFF72BFE0120FEF70BFC75
:104D5000012000F05BF901F071F9022002490860BE
:104D6000FEF78EF8002010BD140000202DE9F04160
:104D700004460F46164600254FF496711548FBF77A
:104D80000CFA002014490860214614A0FDF75AFCD3
:104D900000BF0BE0615D1548FDF7B9FB00BF402186
:104DA0001248FDF7E7FA0028F9D06D1C605D002875
:104DB000F0D10FA0FDF746FC3046FEF7C7FB3946A1
:104DC0000448FBF704FA10B10120BDE8F08100208F
:104DD000FBE700002C0B0020080000200D0A4154C6
:104DE0002D2D2D3E25730D0A0000000000480040C7
:104DF0000D0A000010B500F0EFF8002045490860EA
:104E000000F004F94FF47A70FEF7A0FB012000F0E7
:104E1000FDF84FF47A70FEF799FB03203E490860D5
:104E20004FF4FA7200213DA0FFF7A0FF4FF4FA7291
:104E300000213BA0FFF79AFF4FF4FA72002138A03F
:104E4000FFF794FF4FF4FA72002137A0FFF78EFFAF
:104E50004FF4FA72002136A0FFF788FF4FF4FA7280
:104E6000002135A0FFF782FF4FF4FA72002134A031
:104E7000FFF77CFF4FF4FA72002133A0FFF776FFB3
:104E80004FF4FA72002132A0FFF770FF4FF4FA726C
:104E9000002131A0FFF76AFF4FF4FA72002132A01F
:104EA000FFF764FF4FF4FA72002133A0FFF75EFFB3
:104EB0004FF4FA72002134A0FFF758FF4FF4FA7252
:104EC000002135A0FFF752FF4FF4FA72002136A0FF
:104ED000FFF74CFF4FF4FA72002135A0FFF746FFB1
:104EE00041F28832002134A0FFF740FF4FF4FA72FC
:104EF000002133A0FFF73AFF4FF4FA72002132A0ED
:104F0000FFF734FF4FF4FA72002131A0FFF72EFFB4
:104F100010BD0000200000201400002061740D006E
:104F2000415445300D00000041544D300D0000004B
:104F300041544C300D000000415453300D0000002E
:104F4000415440310D0000004154490D0000000063
:104F50005354490D0000000041545050203045206A
:104F60004F46460D00000000535420534C206F66FE
:104F7000662C6F6E0D000000535420534C55206F6B
:104F800066662C6F6E0D0000535420534C564C2017
:104F90006F66662C6F6E0D00535420534C5647209D
:104FA0006F66660D0000000041544154310D000051
:104FB00041545350300D0000303130300D000000AE
:104FC000415444504E0D0000303930320D00000085
:104FD00030393032350D000010B500200949088104
:104FE0000949088123224FF4C87106480A30FBF7AB
:104FF000CDF823224FF4C87103480A30FBF7C6F8F6
:1050000010BD0000B00E00204A10002010B504466C
:105010004FF47A70FEF79AFA03200C49086054B9ED
:105020000BA0FDF70FFB00224FF480510D48FBF75A
:10503000DCFF012010BD0CA0FDF704FB01221103D1
:105040000848FBF7D2FF0120F4E70000140000201D
:105050000D0A4F424420706F776572206F66660DAF
:105060000A000000000C01400D0A4F424420706FFE
:10507000776572206F6E0D0A0000000010B51D49A3
:105080001DA0FDF7DFFA4FF4FA721EA11EA0FCF777
:1050900089FC60BB1DA0FDF7D5FA4FF4FA60FEF75E
:1050A00055FA4FF4FA7217A117A0FCF77BFCC8B9A8
:1050B0001BA0FDF7C7FA01F025FA4FF4FA60FEF7DE
:1050C00045FA4FF4FA720FA10FA0FCF76BFC20B168
:1050D00018A0FDF7B7FA012010BD1EA0FDF7B2FA27
:1050E0000020F9E713A0FDF7ADFA0120F4E7012055
:1050F000F2E70000846D00080D0A6E616D653A25C7
:10510000730D0A004F4B000041540D000D0A466913
:10511000727374204154206661696C0D0A000000AE
:105120000D0A5365636F6E64204154206661696C9B
:105130000D0A00000D0A504F5745525F53494D3933
:105140003030204F4B202C52455455524E20310DBB
:105150000A0000000D0A494E20504F5745525F5338
:10516000494D393030204641494C20524554555222
:105170004E20300D0A0000003EB5002412212248C6
:10518000FBF70BF84FF47A7220A121A0FCF70AFC80
:1051900020B922A0FDF756FA601E3EBD1BA124488F
:1051A000FBF715F80546133D002404E0285D164979
:1051B0000855601C84B20F2CF8DB13491DA0FDF7C5
:1051C00041FA1148016800918188ADF80410807996
:1051D0008DF806006846FBF750F80B4988630020FD
:1051E000009001900290C91D6846FAF7E2FF6846F8
:1051F000FBF743F80449C8630846C26B816B10A0F3
:10520000FDF720FA0120C8E7902000204F4B000056
:1052100041542B4347534E0D000000000D0A6765B3
:10522000742069656D69206572726F720D0A0000E5
:10523000180600200D0A696D65693A25730D0A008C
:105240000D0A69656D69203A2564202025640D0AE0
:105250000000000070B509212948FAF79EFFC82216
:1052600028A129A0FCF79EFB4FF4FA70FEF76EF917
:10527000C82224A127A0FCF795FB4FF4FA70FEF793
:1052800065F927A12848FAF7A2FF0546287B3028B0
:1052900002DB287B392805DD287B412821DB287BA0
:1052A0005A281EDC012405E02819C27A601E144920
:1052B0000A54641C052CF7DB082405E02819C27A7F
:1052C000201F0F490A54641C0C2CF7DBC8220DA1C7
:1052D00016A0FCF767FB0A4917A0FDF7B3F90120F8
:1052E00070BD002403E0302105480155641C082CE2
:1052F000F9DBC82203A10DA0FCF754FB0020EFE767
:10530000B42000204F4B000041542B435245473DF1
:10531000320D000041542B435245473F0D00000021
:105320002B435245473A00001806002041542B43B6
:105330005245473D300D00000D0A63656C6C696491
:10534000206973203A25730D0A00000070B51E48CD
:105350000021C0F81510A0F819104FF4FA721BA123
:105360001BA0FCF71FFB1DA11E48FAF730FF0446E7
:10537000E079302825DBE079392822DC207A3028D2
:105380001FDB207A39281CDC607A302819DB607A30
:10539000392816DCA07A302813DBA07A392810DCF3
:1053A000002505E0E01D415D0748153041556D1CA5
:1053B000052DF7DB044915310BA0FDF743F901205A
:1053C00070BD0020FCE70000902000204F4B000043
:1053D00041542B43494D490D0000000043494D49BC
:1053E00000000000180600200D0A63696D69093A83
:1053F00025730D0A0000000010B54FF47A721DA14C
:105400001DA0FCF7CFFA1EA11F48FAF7E0FE0446E4
:10541000E0792C2812D1A07930280FDBA079392827
:105420000CDC302019498874A1791848C17400F146
:10543000120117A0FDF706F9012010BDA079302850
:1054400015DBA079392812DCE07930280FDBE07910
:1054500039280CDCA0790D498874E1790B48C174B6
:1054600000F112010AA0FDF7EDF80120E5E70020A8
:10547000E3E700004F4B000041542B4353510D0014
:105480002B4353513A0000001806002090200020C2
:105490000D0A637371093A25730D0A002DE9F04175
:1054A00098B006460F4690461C46002500214B4802
:1054B000FCF7E5FBF4BB4A48006840B1FCF7ECF8A8
:1054C000484849490A6802604968416004E0082286
:1054D00000214448FAF75AFE4448B0F82E01001A59
:1054E00043490881084600F0D1FF4049B1F82E0138
:1054F0000021FEF71FFA01463C48B0F82E2100F5C6
:105500009A7000EB82008078084400F10805294673
:1055100038A0FDF797F82AB23549302000F014FD85
:1055200001235422314601A81693FAF71DFE0023E9
:10553000012200E004E029462D480093FDF78CFD90
:10554000012C44D12648006840B1FCF7A5F8254855
:1055500025490A6802604968416004E00822002188
:105560002048FAF713FE2148B0F83211B0F83001A4
:10557000081A1C490881084600F088FF1B49B1F849
:1055800032010021FEF7D6F901461848B0F8322161
:1055900000F59A7000EB82008078084400F108055D
:1055A000294614A0FDF74EF82AB20E49322000F029
:1055B000CBFC01235422314601A81693FAF7D4FDFF
:1055C00000230122294607480093FDF745FD0121EC
:1055D0000248FCF754FB18B0BDE8F081000400401D
:1055E0001C0000204A10002030000020E4110020A0
:1055F000B00E00200D0A4F4244206E6F726D616C38
:10560000206461746120626567696E206C656E67F5
:105610007468202D2D3E2025640D0A00F0B599B048
:1056200005460E4617460024FB48006858B1FB4863
:10563000006840B1FAA0FDF705F8FF480068401C7B
:10564000FD49086005E0FDA0FCF7FCFF0020FA49D9
:105650000860FE48006818B9F748006803280BDCAA
:10566000F54800681E2190FBF1F201FB1200F0BB2F
:10567000F148006803286CDD0120F4490860F4A0BB
:10568000FCF7E0FFF94890F831003038F74991F81D
:105690003010303901EB810100EB4100F449088002
:1056A000F24890F82F003038F04991F82E10303938
:1056B00001EB810100EB410040B2ED498870EB48FD
:1056C00090F82D003038E94991F82C10303901EB71
:1056D000810100EB410040B2E549C870E348C07861
:1056E0003038E2498978303901EB810100E030E05F
:1056F00000EB410040B2DE490871DC4840793038A7
:10570000DA490979303901EB810100EB410040B2FF
:10571000D7494871D548C0793038D449897930396A
:1057200001EB810100EB410040B2D149887108468C
:1057300090F9063090F906208446CDE900239CF9C3
:1057400004309CF903209CF90210BCF90000FCF71E
:105750005FF8BE48006850B1FBF79EFFC548C449DA
:105760000A68C0F816204968C0F81A1005E0082237
:105770000021C0481630FAF709FDBE48163000F087
:1057800085FEBD48006BBB4981F82200084690F8B1
:105790002210BAA0FCF756FFB748C07C3038B64993
:1057A000897C303901EB810100EB4100B1498877F8
:1057B0000846817FB5A0FCF745FFAF48407D3038F3
:1057C00042F210714843AC49897D303901EB410206
:1057D000C2EBC11100EBC101A748C07D303800EB1E
:1057E000C00202EB001001EB8001A348007E3038BC
:1057F00000EB800001EB40019F48407E30380844B8
:105800009C49886008468168A3A0FCF71BFF102212
:1058100018A999482430FAF7F8FC9649C860084658
:10582000C168A1A0FCF70EFF0020924981F820007A
:1058300079480068E8B379480068D0B39EA0FCF7C7
:1058400001FFA2A0FCF7FEFE002405E08749891CA9
:10585000A1A0FCF7F7FE641C322CF7D39BA0FCF749
:10586000F1FE002404E09D499BA0FCF7EBFE641CC4
:105870002C2CF8D301207F4981F820007B492C3162
:1058800097A0FCF7DFFE7949891C98A0FCF7DAFEA7
:1058900092491C3198A0FCF7D5FE90481C30FAF7CD
:1058A000ECFC00B2734908820846B0F9101096A0CB
:1058B00000E0DAE1FCF7C6FE4FF4FA60FDF746FEC1
:1058C00001206C4981F820009448807A303894494E
:1058D00041439248C07A3038924A504301EBC0119C
:1058E0008E48007B303843F60952504301EB80115B
:1058F0008A48407B303840F63542504301EB401136
:105900008648807B303840F27122504301EB001111
:105910008248007C303800EB4002C2EBC01001EB43
:10592000C0017E48407C303800EBC00202EB001022
:1059300001EB80017948807C303800EB800001EB7E
:1059400040017648C07C303808444A4908607348B2
:10595000007830387449414370484078303843F615
:105960000952504301EB80116C488078303840F682
:105970003542504301EB40116848C078303840F25E
:105980007122504301EB001164484079303800EB3C
:105990004002C2EBC01001EBC00160488079303892
:1059A00000EBC00202EB001001EB80015B48C07904
:1059B000303800EB800001EB40015848007A303865
:1059C00008442C4948605548007D572803D0534867
:1059D000007D772805D12748006840F4004025491C
:1059E00008604E48407A532803D04C48407A7328C8
:1059F00005D12048406840F400401E49486000201E
:105A00001C490882488249A144483530FAF7DFFB37
:105A1000189000B1BEE0BFE0840000207C000020B0
:105A20000D0A426567696E20475053204D657373B8
:105A30006167650D0A000000A40000200D0A4750B0
:105A400053CEB4B6A8CEBB0D0A0000001C00002047
:105A50000D0A6D6F64696679207274632074696DD4
:105A600065722D2D2D2D2D2D2D0D0A004C1600208B
:105A700030000020C81B0020902000200D0A566F27
:105A80006C74616765A3BA25640D0A000D0A43535F
:105A900051A3BA25640D0A000D0A43494D49A3BA22
:105AA00025640D0A000000000D0A43454C4C494492
:105AB000A3BA25640D0A00000D0A47505320444143
:105AC00054412052454144590D0A00000D0A4750E7
:105AD0005320524D430D0A002025630082160020FA
