:020000040800F2
:100000000042002045010008FD0D00089D0D00087C
:10001000D10D000885020008FD2200080000000044
:10002000000000000000000000000000C5140008EF
:10003000590100080000000075100008BD150008F7
:100040005F0100085F0100085F0100085D140008FF
:100050005F0100085F01000895050008010600081F
:100060005F010008290600085F0100085F01000821
:100070005F0100085F0100085F0100085F010008E0
:100080005F0100085F0100085F0100085F010008D0
:10009000FD2100085F0100085F01000861060008FB
:1000A0005F0100085F0100085F0100085F010008B0
:1000B00021160008411600085F0100085F010008D2
:1000C0005F0100085F0100085F0100085F01000890
:1000D0005F010008AD1B0008291C0008CD1C0008AA
:1000E000C10500089D1300085F0100085F010008BA
:1000F0005F0100085F0100085F0100085F01000860
:100100005F0100085F0100085F0100085F0100084F
:10011000A91A0008451B00085F0100085F010008DC
:100120005F0100085F0100085F0100085F0100082F
:10013000DFF80CD000F074F800480047854500084F
:10014000004200200648804706480047FEE7FEE7D9
:10015000FEE7FEE7FEE7FEE7FEE7FEE7FEE7FEE777
:10016000C115000831010008D2B201E000F8012BEE
:10017000491EFBD270470022F6E710B50446084638
:10018000114602462046FFF7EFFF204610BD30B56E
:100190000EE003460A4601E05B1C521C1C781578F1
:1001A000AC4201D1002CF7D115F0FF0F04D0401C58
:1001B0000278002AEDD1002030BD2DE9F05F054620
:1001C000002092469B4688460646814640241DE014
:1001D000284641464746224600F043F8B0EB0A0065
:1001E00052465B4671EB0B0110D31046194622466E
:1001F00000F028F82D1A67EB01084F46224601202F
:10020000002100F01FF817EB00094E41201EA4F159
:100210000104DDDC484631462A464346BDE8F09FEE
:10022000064C074D06E0E06840F0010394E8070043
:1002300098471034AC42F6D3FFF77EFF6C9A000863
:100240008C9A0008202A04DB203A00FA02F10020F0
:1002500070479140C2F1200320FA03F31943904004
:100260007047202A04DB203A21FA02F0002170476F
:1002700021FA02F3D040C2F120029140084319460E
:10028000704700000AE006A002F04EF872B671B6A0
:100290004FF4FA6002F026FD00F0D6FEF3E700000E
:1002A0000D0A4552524F525F4255530D0A0000004D
:1002B000B1F5007F3AD00FDC202928D006DC0129D7
:1002C0001CD004291DD0082940D11DE0402921D08F
:1002D000B1F5807F3AD126E0B1F5004F31D006DC90
:1002E000B1F5806F25D0B1F5006F2FD124E0B1F5C5
:1002F000803F12D0B1F5003F28D111E0154A82604D
:1003000025E00822C26022E01022C2601FE008221D
:1003100002611CE01022026119E00822426016E02E
:100320001022426013E00422426010E00422426086
:100330000DE0042242600AE0002282610422426051
:1003400005E0002282610422426000E000BF00BF9D
:10035000704700000101010021B9C26842F020028B
:10036000C26003E0026942F02002026170470000AF
:1003700070B504460D4600266069284271D0B5F577
:10038000807F5CD010DC082D35D006DC012D20D01C
:10039000022D24D0042D77D127E0102D31D0202D2F
:1003A00035D0402D70D138E0B5F5004F60D009DC74
:1003B000B5F5007F49D0B5F5806F4CD0B5F5006F2D
:1003C00062D14FE0B5F5803F2DD0B5F5003F5BD150
:1003D0002FE0A0682F4900F0D4F8064656E0E06808
:1003E000032100F0CEF8064650E0E068082100F056
:1003F000C8F806464AE0E068102100F0C2F8064658
:1004000044E02069032100F0BCF806463EE0206984
:10041000082100F0B6F8064638E02069102100F007
:10042000B0F8064632E06068082100F0AAF80646F7
:100430002CE06068102100F0A4F8064626E0A069D0
:10044000012100F09EF8064620E0A069022100F09C
:1004500098F806461AE0A069042100F092F80646D2
:1004600014E014E0A069702100F08BF806460DE05E
:10047000A069772100F085F806466068042100F045
:1004800080F8064302E0FFE7002600BF00E00026F8
:10049000304670BD0101010030B504460D461346DB
:1004A00004F5D87000EB0510006800F00400187225
:1004B000187A50B904F5D87000EB0510006840F2C6
:1004C000FF7101EA5050186009E004F5D87000EBA4
:1004D000051000686FF0604101EAD000586004F533
:1004E000D87000EB0510006800F00200587204F5A7
:1004F000D87000EB0510406800F00F00987204F50A
:10050000D87000EB05104068000AD87404F5D87064
:1005100000EB05108068D87204F5D87000EB051068
:100520008068000A187304F5D87000EB0510806825
:10053000000C587304F5D87000EB05108068000EAD
:10054000987304F5D87000EB0510C068D87304F5F3
:10055000D87000EB0510C068000A187404F5D87054
:1005600000EB0510C068000C587404F5D87000EB5F
:100570000510C068000E987429462046FFF7ECFE6F
:1005800030BD024600200A4201D0012000E00020D8
:100590007047000010B5C82002F0A4FB012000F055
:1005A000B3F828B1012000F067F802A001F0BCFE0A
:1005B00010BD00000D0A6B6579300D0A00000000C7
:1005C00010B54FF4006000F09FF840B14FF40060A8
:1005D00000F052F809480068401C084908604FF4D0
:1005E000805000F091F840B14FF4805000F044F892
:1005F00002480068401C0149086010BD2800002026
:1006000010B5022000F080F828B1022000F034F884
:1006100001A001F089FE10BD0D0ABDF8C8EBD6D0CF
:10062000B6CF310D0A00000010B5082000F06CF8BC
:1006300028B1082000F020F801A001F075FE10BDDF
:100640000D0ABDF8C8EBC0B6D1C0D7B4CCACB1E48C
:10065000BBAFD6D0B6CFA3A1A3A1A3A10D0A000022
:1006600010B54FF4807000F04FF818B14FF480705F
:1006700000F002F810BD000001490860704700005A
:10068000140401401CB54FF40030FFF7F5FF4FF4A0
:100690000030009000208DF8040008208DF805003F
:1006A00001208DF80600684600F044F8032104207C
:1006B00000F07CFA0820FFF7DFFF08200090002000
:1006C0008DF8040010208DF8050001208DF806003B
:1006D000684600F02FF80B21002000F067FA4FF475
:1006E0000060FFF7C9FF4FF40060009000208DF814
:1006F00004000C208DF8050001208DF806006846E6
:1007000000F018F81CBD0000014600200022074B35
:100710001B6803EA0102064BD3F814340B4202D0E3
:100720000AB1012000E000207047000000040140F1
:1007300000000140002127498279DAB3264AD2F825
:10074000002403689A43244BC3F800241A46D2F8C5
:10075000042403689A4301F104031A6002791144E6
:100760000A68036842EA03020A601B4AD2F80824B6
:10077000036822EA0302184BC3F808241A46D2F889
:100780000C24036822EA0302144B1A604279102AEF
:1007900011D1114AD2F8082403681A430E4BC3F84A
:1007A00008241A46D2F80C2403681A430A4BC3F8EB
:1007B0000C240EE007E00749427911440A680368F7
:1007C0001A430A6005E0027911440A6803689A43F3
:1007D0000A60704700040140000001400C04014021
:1007E0000549096821F01001034A116011460968A2
:1007F00001431160704700000020024001460020C4
:10080000034A106800F03800084310607047000089
:100810000020024008B5012144F27D0000F060FC98
:100820000121DE4800F03CFC4FF6FF70ADF80000FF
:1008300000208DF8030003208DF802004FF40070B3
:10084000ADF8000018208DF8030003208DF8020099
:100850006946D34800F0CAF94FF48060ADF8000053
:1008600004208DF803006946CD4800F0BFF904204C
:10087000ADF8000018208DF8030003208DF8020069
:100880006946C74800F0B2F90820ADF8000004201E
:100890008DF803006946C24800F0A8F94FF40060E3
:1008A000ADF8000004208DF803006946BD4800F053
:1008B0009DF94FF48060ADF8000018208DF803001A
:1008C00003208DF802006946B74800F08FF94FF415
:1008D0000060ADF8000004208DF8030003208DF8BF
:1008E00002006946B04800F081F94FF48060ADF82D
:1008F000000018208DF8030003208DF802006946DF
:10090000A84800F073F94FF40060ADF8000004202F
:100910008DF8030003208DF802006946A14800F01D
:1009200065F903208DF802004FF40060ADF8000077
:1009300048208DF803006946994800F057F90820CF
:10094000ADF8000010208DF8030003208DF80200A0
:100950006946944800F04AF900220821914800F0C5
:1009600017FA1020ADF800008DF8030003208DF871
:10097000020069468B4800F039F9002210218948AD
:1009800000F006FA2020ADF8000010208DF80300DA
:1009900003208DF802006946824800F027F9002202
:1009A0002021804800F0F4F90120ADF80000042077
:1009B0008DF8030003208DF802006946784800F0A6
:1009C00015F90220ADF8000048208DF8030003203F
:1009D0008DF802006946744800F008F94FF40050A1
:1009E000ADF8000010208DF8030003208DF8020000
:1009F00069466C4800F0FAF801225103694800F09A
:100A0000C7F91020ADF8000014208DF80300032072
:100A10008DF802006946624800F0E8F801221021D2
:100A20005F4800F0B5F94020ADF8000010208DF8C7
:100A3000030003208DF802006946594800F0D6F8FB
:100A400000224021564800F0A3F90820ADF800002C
:100A500010208DF8030003208DF8020069465248EB
:100A600000F0C4F8002208214F4800F091F94FF43B
:100A70008050ADF8000010208DF8030003208DF8A1
:100A800002006946474800F0B1F800224FF4805157
:100A9000444800F07DF94FF40040ADF8000010200C
:100AA0008DF8030003208DF8020069463D4800F0F0
:100AB0009DF80122D1033B4800F06AF94FF48040D1
:100AC000ADF8000010208DF8030003208DF802001F
:100AD0006946344800F08AF801229103314800F059
:100AE00057F98020ADF8000048208DF8030003205E
:100AF0008DF8020069462B4800F078F84020ADF8E8
:100B0000000010208DF8030003208DF802006946D4
:100B1000244800F06BF800224021224800F038F908
:100B20004FF48070ADF8000010208DF80300032012
:100B30008DF8020069461B4800F058F800224FF477
:100B40008071184800F024F94FF40070ADF80000EF
:100B500010208DF8030003208DF80200694611482B
:100B600000F044F800224FF400710E4800F010F934
:100B70004FF40050ADF8000010208DF80300032062
:100B80008DF802006946084800F030F800224FF462
:100B90000051054800F0FCF808BD000002001E1AD4
:100BA00000080140000C01400010014030B5002257
:100BB0008B071C0F0F2303FA04F20B4B8C1053F816
:100BC00024309343084C8D1044F8253023468C1074
:100BD00053F824308C07240F00FA04F42343024C0A
:100BE0008D1044F8253030BD080001402DE9F0415A
:100BF000024600250026002000230024002791F84B
:100C000003C00CF00F0591F803C01CF0100F03D0C7
:100C100091F802C04CEA0505B1F800C01CF0FF0FC6
:100C200031D0146800202BE04FF0010C0CFA00F3D7
:100C3000B1F800C00CEA03069E4220D183004FF0B9
:100C40000F0C0CFA03F7BC4305FA03FC4CEA04044E
:100C500091F803C0BCF1280F06D14FF0010C0CFA3B
:100C600000FCC2F814C00AE091F803C0BCF1480FC0
:100C700005D14FF0010C0CFA00FCC2F810C0401C6A
:100C80000828D1D31460B1F800C0BCF1FF0F34DDE7
:100C9000546800202EE000F1080C4FF0010808FA1B
:100CA0000CF3B1F800C00CEA03069E4221D1830088
:100CB0004FF00F0C0CFA03F7BC4305FA03FC4CEAA7
:100CC000040491F803C0BCF1280F05D100F1080C11
:100CD00008FA0CF8C2F8148091F803C0BCF1480F70
:100CE00007D100F1080C4FF0010808FA0CF8C2F81F
:100CF0001080401C0828CED35460BDE8F08100006D
:100D0000F0B50A46002300240021002500F000462B
:100D1000B6F1004F02D11D4EF16901E01B4E716822
:100D2000C0F3034583B200F44016B6F5401F08D166
:100D300021F07061154E766826F07066134F7E6064
:100D400012E000F48016B6F5801F06D1032606FADD
:100D500005F4A14341F0706106E0460D360103FA47
:100D600006F6B14341F0706122B1460D360103FA37
:100D700006F6314300F00046B6F1004F02D1034EB3
:100D8000F16101E0014E7160F0BD00000000014022
:100D90000AB1016100E04161704700000AE006A06D
:100DA00001F0C2FA72B671B64FF4FA6001F09AFF20
:100DB00000F04AF9F3E700000D0A4552524F525F26
:100DC000484152445F4641554C540D0A0000000012
:100DD0000AE006A001F0A8FA72B671B64FF4FA6004
:100DE00001F080FF00F030F9F3E700000D0A4552F2
:100DF000524F525F4D454D0D0A00000005A001F015
:100E000093FA72B671B64FF4FA6001F06BFF00F01E
:100E10001BF900000D0A4552524F525F4E4D490DCD
:100E20000A00000008B54FF4E06000F003F9252047
:100E30008DF8000002208DF8010000208DF80200DE
:100E400001208DF80300684600F0B2F84FF4E0602E
:100E500000F0F0F826208DF8000000208DF8010049
:100E60008DF8020001208DF80300684600F0A0F81C
:100E70004FF4E06000F0DEF827208DF8000001203C
:100E80008DF8010000208DF8020001208DF803008C
:100E9000684600F08DF84FF4E06000F0CBF83420A5
:100EA0008DF8000001208DF8010000208DF802006F
:100EB00001208DF80300684600F07AF84FF4E060F6
:100EC00000F0B8F835208DF8000001208DF8010001
:100ED00000208DF8020001208DF80300684600F024
:100EE00067F84FF4C06000F0A5F806208DF8000008
:100EF00000208DF801008DF802008DF8030068468F
:100F000000F056F84FF4C06000F094F828208DF8F7
:100F1000000000208DF801008DF802008DF803001C
:100F2000684600F045F84FF4C06000F083F80920EF
:100F30008DF8000000208DF801008DF802008DF87A
:100F40000300684600F034F84FF4A06000F072F837
:100F50001C208DF8000000208DF801008DF80200A3
:100F600001208DF80300684600F022F84FF4A060DD
:100F700000F060F81D208DF8000000208DF80100C1
:100F80008DF8020001208DF80300684600F010F88B
:100F900028208DF8000005208DF801008DF8020052
:100FA00001208DF80300684600F002F808BD00003B
:100FB00070B5002100230F22C4784CB31A4C24686A
:100FC00004F4E064C4F5E0644FEA1421C1F10403C1
:100FD00022FA01F2447804FA03F1847804EA020464
:100FE00044EA01014FEA0111104C0678A15504783A
:100FF00004F01F054FF0010404FA05F405784FEAE8
:1010000065154FF0E02606EB8505C5F8004109E0BF
:10101000047804F01F050124AC40054D06787611D4
:1010200045F8264070BD00000CED00E000E400E053
:1010300080E100E002490143024A1160704700006C
:101040000000FA050CED00E00848006800F4E060DC
:10105000074940EA010000F104004FF0E021C1F827
:101060000C0DBFF3408F00BFFEE700000CED00E069
:101070000000FA0505A001F057F972B671B64FF4F9
:10108000FA6001F02FFEFFF7DFFF00000D0A455266
:10109000524F525F50454E4453560D0A0000000017
:1010A00029B1064AD2690243044BDA6104E0034ADB
:1010B000D2698243014BDA617047000000100240A0
:1010C00029B1064A12690243044B1A6104E0034A3B
:1010D00012698243014B1A61704700000010024000
:1010E00029B1064A92690243044B9A6104E0034A1B
:1010F00092698243014B9A617047000000100240E0
:1011000029B1064AD2680243044BDA6004E0034A7C
:10111000D2688243014BDA60704700000010024041
:1011200010B500F03BF8012000F0FAF800BF2120D4
:1011300000F0C4F80028FAD01020FFF751FB02207D
:10114000FFF75CFB002000F0DFF8002000F0FAF869
:10115000002000F0EBF84FF46011002000F004F9DB
:10116000012000F0FBF800BF392000F0A7F80028AC
:10117000FAD0022000F006F900BF00F0BDF8082800
:10118000FBD1012144F27D00FFF7AAFF01210248B3
:10119000FFF786FF10BD000003001E1A0F4800680D
:1011A00040F001000D490860084640680C490840BD
:1011B0000A494860084600680A490840074908602B
:1011C0000846006820F4802008600846406820F443
:1011D000FE0048604FF41F00886070470010024016
:1011E0000000FFF8FFFFF6FE30B5002100220024CA
:1011F00000232D4D6D6805F00C0121B1042905D0A7
:10120000082923D105E0294D056022E0274D05601E
:101210001FE0254D6D6805F47012234D6D6805F4CF
:101220008034022505EB92421CB9214D55430560DF
:101230000BE01D4D6D6815F4003F03D01C4D554368
:10124000056002E0194D5543056002E0174D056049
:1012500000BF00BF144D6D6805F0F0010909154D80
:101260006B5C0568DD4045600F4D6D6805F4E0611D
:10127000090A104D6B5C4568DD4085600A4D6D685C
:1012800005F46051C90A0B4D6B5C4568DD40C560D3
:10129000054D6D6805F44041890B074D6B5CC568D1
:1012A000B5FBF3F5056130BD0010024000127A0075
:1012B00000093D00500000206000002010B50146EC
:1012C0000022002300204A11012A02D1094C236880
:1012D00006E0022A02D1074C236A01E0054C636A4A
:1012E00001F01F02012494401C4201D0012000E0C3
:1012F000002010BD001002400248406800F00C00C1
:10130000704700000010024001460020034A506868
:1013100020F0F000084350607047000000100240C9
:101320000149086070470000000042420146002069
:10133000034A506820F4E0600843506070470000A2
:101340000010024001460020034A506820F460501B
:1013500040EAC10050607047001002400149086631
:10136000704700000000424202460020044B5868CB
:1013700020F47C1042EA01031843014B5860704787
:101380000010024001460020034A506820F003008C
:1013900008435060704700000010024010B5022062
:1013A00000F046F850B14FF40030FFF765F900F057
:1013B0007FF8022000F004F800F07AF810BD000079
:1013C000054909886FEA000292B201EA0201034A64
:1013D000A2F80418704700000428004000200040D4
:1013E0000348008840F010000249A1F80408704743
:1013F0000428004000200040044800884FF6EF71A8
:1014000000EA01000249A1F80408704704280040DE
:10141000002000400021044801880448B0F8180862
:1014200041EA0040704700001C28004000200040B6
:1014300001460020074A128802EA0102D0B2064A99
:10144000B2F800280A4202D008B1012000E00020D2
:1014500070470000042800400020004010B5012023
:10146000FFF7E6FF70B10120FFF7AAFF00F020F8B8
:10147000FFF7D0FF0449884204D1002000F006F8AD
:1014800000F016F810BD00008051010000B50246C2
:10149000FFF7A6FF100C044908800449A1F81C2896
:1014A000FFF7AAFF00BD0000182800400020004000
:1014B00000BF0348008810F0200FFAD070470000EA
:1014C0000428004005A000F02FFF72B671B64FF45B
:1014D000FA6001F007FCFFF7B7FD00000D0A455266
:1014E000524F525F5356430D0A00000010B500F0F2
:1014F00001F810BD002100202E4A126842F480320B
:101500002C4B1A6000BF2B4A126802F40030491CB1
:1015100010B9B1F5A06FF6D1264A126812F4003F57
:1015200001D0012000E00020012842D1224A1268A7
:1015300042F01002204B1A601A46126822F0030291
:101540001A601A46126842F002021A60194A52687A
:10155000184B5A601A4652685A601A46526842F44A
:1015600080625A601A46526822F47C125A601A4607
:10157000526842F4E8125A601A46126842F08072C9
:101580001A6000BF0B4A126812F0007FFAD0094AB5
:10159000526822F00302074B5A601A46526842F022
:1015A00002025A6000BF034A526802F00C02082A85
:1015B000F9D170470010024000200240704700003F
:1015C00010B51348006840F0010011490860084652
:1015D0004068104908400E494860084600680E49B6
:1015E00008400B4908600846006820F48020086025
:1015F0000846406820F4FE0048604FF41F008860F1
:10160000FFF774FF4FF000600449086010BD000050
:10161000001002400000FFF8FFFFF6FE08ED00E0BA
:1016200010B50121880700F0C6F938B101218807FB
:1016300000F076F84FF6FA704107888410BD00007C
:1016400010B50121274800F0B6F9F0B30121254873
:1016500000F066F82448006808B103F02BFB23482B
:101660000068401C2149086008460068032805D12D
:10167000012001F0A5FB00201D4908601B480068FF
:10168000032817DD1A480068B0F5FA6F01DD012064
:1016900000E0002017490860154802680846016804
:1016A00015A000F041FE00201049086010490860B4
:1016B00001F086FB1848006850B901221021174834
:1016C000FFF766FB0120144900E009E0086007E02D
:1016D000002210211148FFF75BFB00200E49086033
:1016E00010BD000000040040300000204C0000202D
:1016F000280000202C0000200D0A4445564943458F
:101700002053544154452D2D2D3E2564202D2D3E32
:1017100025640D0A0000000048000020000C014074
:10172000CA430282704721B1028842F0010202805E
:1017300004E002884FF6FE731A40028070470EB52F
:101740004FF0804000F024F84FF6FF70ADF8040031
:101750000420ADF80000C001ADF806000020ADF88F
:10176000020069464FF0804000F04CF970214FF0C4
:10177000804000F031F900231A4619464FF08040AE
:1017800000F0FAF801218807FFF7CDFF0EBD000039
:1017900010B504466848844208D10121C014FFF7FF
:1017A000AFFC0021E014FFF7ABFCC4E0B4F1804FC4
:1017B00008D101210846FFF783FC00210120FFF733
:1017C0007FFCB8E05D48844208D101210220FFF788
:1017D00077FC00210220FFF773FCACE058488442FC
:1017E00008D101210420FFF76BFC00210420FFF742
:1017F00067FCA0E05348844208D101210820FFF78C
:101800005FFC00210820FFF75BFC94E04E48844217
:1018100008D101211020FFF753FC00211020FFF711
:101820004FFC88E04948844208D101212020FFF77D
:1018300047FC00212020FFF743FC7CE04448844221
:1018400008D101214014FFF75BFC00216014FFF771
:1018500057FC70E03F48844209D10121C804FFF7DA
:101860004FFC00214FF40020FFF74AFC63E03A48A8
:10187000844209D101210805FFF742FC00214FF401
:101880008010FFF73DFC56E03448844209D1012125
:101890004805FFF735FC00214FF40010FFF730FC3E
:1018A00049E02F48844208D101214020FFF708FC7D
:1018B00000214020FFF704FC3DE02A48844208D183
:1018C00001218020FFF7FCFB00218020FFF7F8FBBF
:1018D00031E02548844208D101218015FFF7F0FB53
:1018E0000021A015FFF7ECFB25E02048844209D138
:1018F00001210804FFF704FC00214FF48030FFF7BA
:10190000FFFB18E01A48844209D101214804FFF77F
:10191000F7FB00214FF40030FFF7F2FB0BE0154816
:10192000844208D101218804FFF7EAFB00214FF42B
:101930008020FFF7E5FB10BD002C014000040040B3
:1019400000080040000C004000100040001400405F
:1019500000340140004C014000500140005401405F
:1019600000180040001C00400020004000400140E2
:101970000044014000480140F0B504460D461646BB
:101980001F463B4632462946204600F005F820898E
:1019900040F480402081F0BD30B50C460021018923
:1019A000C9B21D0642EA154525432943018130BDD0
:1019B0000146888C704730B5024600200023002481
:1019C000158A05EA0103958905EA010413B10CB1F2
:1019D000012000E0002030BD30B504460D46294608
:1019E000204600F005F8208940F00700208130BD36
:1019F0000A46002101894FF68F7319401143018176
:101A000070470000002202881D4B98420ED01D4BEB
:101A100098420BD0B0F1804F08D01B4B984205D0B4
:101A20001A4B984202D01A4B984204D14FF68F734A
:101A30001A404B881A43174B984207D0164B9842CE
:101A400004D04FF6FF431A40CB881A4302808B889C
:101A500083850B8803850A4B98420BD0094B98422B
:101A600008D00E4B984205D00D4B984202D00D4B3A
:101A7000984201D10B7A03860123838270470000CC
:101A8000002C0140003401400004004000080040E8
:101A9000000C0040001000400014004000400140D5
:101AA000004401400048014010B508211E4800F0E4
:101AB000D3FA30B108211C4800F064F91A4800F04C
:101AC00093FB40F22551184800F0D3FA30B3164882
:101AD00000F08AFBC4B2154801680068401C134A34
:101AE00010601348445400201149126888540F486C
:101AF0000068B0F5967F02D900200C4908600D48B7
:101B00000068042803D121460B4800F072FB0B4803
:101B1000006818B121460A4800F06BFB20210248FA
:101B200000F030F910BD0000004C00400C00002017
:101B3000100C00201400002000380140200000207C
:101B40000048004010B50821154800F085FA30B172
:101B50000821134800F016F9114800F045FB40F247
:101B600025510F4800F085FAA8B10D4800F03CFB64
:101B7000C4B2204601F0B6FD0A48006805280AD123
:101B80002146094800F035FB00BF4021064800F01F
:101B900063FA0028F9D02021014800F0F3F810BDC5
:101BA00000500040140000200038014010B508210A
:101BB000194800F051FA30B10821174800F0E2F856
:101BC000154800F011FB40F22551134800F051FA7E
:101BD000E0B1114800F008FB104908700846017890
:101BE0000F4802680068401C0D4B18600D48815476
:101BF00000200C491A46126888541846006840F2C2
:101C00001451884202D90020194608602021024858
:101C100000F0B8F810BD000000380140400000207E
:101C200000000020BC00002010B50821214800F071
:101C300013FA30B108211F4800F0A4F81D4800F045
:101C4000D3FA40F225511B4800F013FA80B319482B
:101C500000F0CAFA184908701848006802280BD129
:101C600008460178164800F0C4FA00BF4021144825
:101C700000F0F2F90028F9D00F4801781148026805
:101C80000068401C0F4B18600F48815400200E491B
:101C90001A46126888541846006840F21451884267
:101CA00002D90020194608602021024800F06AF895
:101CB00010BD00000044004041000020140000203E
:101CC0000038014004000020D005002010B5082194
:101CD000254800F0C1F930B10821234800F052F83E
:101CE000214800F081FA40F225511F4800F0C1F967
:101CF000A0B31D4800F078FAC4B21C48006803285D
:101D00000AD121461A4800F074FA00BF4021184851
:101D100000F0A2F90028F9D0164801680068401CBC
:101D2000144A10601448445400201349126888541F
:101D300010480068B0F5967F02D900200D49086070
:101D40000E48006850B121460D4800F052FA00BF1D
:101D50004021074800F080F90028F9D020210248EE
:101D600000F010F810BD00000048004014000020F2
:101D70000038014008000020E40A00202000002074
:101D8000004C004001F40072B2F5007F00D100BFAA
:101D9000CA430280704721B1828942F40052828195
:101DA00004E082894DF6FF731A408281704700007B
:101DB00000B585B0012144F20400FFF791F94FF41A
:101DC0000070ADF8100018208DF8130003208DF876
:101DD000120004A99748FEF709FF4FF48060ADF8A0
:101DE000100004208DF8130003208DF8120004A9C0
:101DF0009048FEF7FBFE4FF47A3000900020ADF8DB
:101E00000400ADF80600ADF80800ADF80C000C2099
:101E1000ADF80A006946884800F07AF9012240F2DC
:101E20002551854800F04FF901218348FFF7B3FFA2
:101E300001214804FFF734F901210420FFF750F98C
:101E40000420ADF8100018208DF8130003208DF841
:101E5000120004A97748FEF7C9FE0820ADF810006B
:101E600004208DF8130003208DF8120004A9714896
:101E7000FEF7BCFE4FF4E13000900020ADF8040006
:101E8000ADF80600ADF80800ADF80C000C20ADF878
:101E90000A006946694800F03BF9012240F22551E9
:101EA000664800F010F901216448FFF774FF012132
:101EB0008804FFF7F5F801210820FFF711F94FF426
:101EC0008060ADF8100018208DF8130003208DF805
:101ED000120004A95A48FEF789FE4FF40060ADF8DD
:101EE000100028208DF8130003208DF8120004A99B
:101EF0005348FEF77BFE4FF4164000900020ADF8EB
:101F00000400ADF80600ADF80800ADF80C000C2098
:101F1000ADF80A0069464B4800F0FAF8012240F299
:101F20002551484800F0CFF801214648FFF733FF1C
:101F30000121C804FFF7B4F801211020FFF7D0F801
:101F40004FF48060ADF8100018208DF813000320C6
:101F50008DF8120004A93C48FEF748FE4FF40060DB
:101F6000ADF8100004208DF8130003208DF8120046
:101F700004A93548FEF73AFE4FF4164000900020C1
:101F8000ADF80400ADF80600ADF80800ADF80C009F
:101F90000C20ADF80A0069462C4800F0B9F801227F
:101FA00040F22551294800F08EF801212748FFF71B
:101FB000F2FE01210805FFF773F801213020FFF739
:101FC0008FF84FF48050ADF8100018208DF81300F2
:101FD00003208DF8120004A91B48FEF707FE042019
:101FE000ADF810008DF8130003208DF8120004A93D
:101FF0001748FEF7FBFD4FF4165000900020ADF897
:102000000400ADF80600ADF80800ADF80C000C2097
:10201000ADF80A0069460F4800F07AF8012240F254
:1020200025510C4800F04FF801210A48FFF7B3FE94
:1020300005B000BD000801400038014000440040E8
:10204000000C01400048004000100140004C0040DE
:10205000001401400050004002460020B1F5007F0E
:1020600000D100BF13880B4201D0012000E0002006
:10207000704770B502460024002300250020A1F51A
:1020800010666A3E00D100BFC1F3421501F01F0384
:10209000012606FA03F3012D02D19689334006E0AA
:1020A000022D02D1168A334001E0968A33400C1289
:1020B000012606FA04F41688344013B10CB101204D
:1020C00000E0002070BDF0B5034600240026002586
:1020D0000020A1F510676A3F00D100BF1846C1F388
:1020E000421401F01F06012707FA06F5012C01D161
:1020F0000C3004E0022C01D1103000E014301AB191
:1021000007682F43076002E00768AF430760F0BD30
:102110002DE9F04786B005460E460024A24600BFD2
:10212000A1460027B08900B100BF2F462C8A4CF68B
:10213000FF700440F08804432C82AC894EF6F31003
:102140000440B08831890843718908430443AC8155
:10215000AC8A4FF6FF400440B0890443AC8201A82A
:10216000FFF742F81F48874202D1DDF810A001E0D6
:10217000DDF80CA0A88910F4004F08D00AEBCA00C3
:1021800000EB0A1031684900B0FBF1F807E00AEBF8
:10219000CA0000EB0A1031688900B0FBF1F8642036
:1021A000B8FBF0F004012009642101FB1089A88923
:1021B00010F4004F08D0322000EBC900B0FBF1F062
:1021C00000F00700044308E0322000EB091064210E
:1021D000B0FBF1F000F00F0004432C8106B0BDE825
:1021E000F08700000038014001468888C0F30800ED
:1021F0007047C1F3080282807047000000B585B0C7
:10220000002201212848FEF7C3FD08212748FEF7D8
:10221000AFF860B126A000F087F86A460021234895
:10222000FEF73AF908212148FEF742F800BF4021A5
:102230001E48FEF79DF860B122A000F075F86A46CE
:1022400001211A48FEF728F940211848FEF730F816
:1022500000BF02211548FEF78BF860B16A460021E5
:102260001248FEF719F91CA000F05EF802210F4891
:10227000FEF71EF800BF10210C48FEF779F860B198
:1022800019A000F051F86A4601210848FEF704F948
:1022900010210648FEF70CF800BF01221146024843
:1022A000FEF776FD05B000BD000C01400064004063
:1022B0000D0A43414E206572726F723121210D0A61
:1022C000000000000D0A43414E206572726F7232A9
:1022D00021210D0A000000000D0A43414E206F6BC2
:1022E00021210D0A000000000D0A43414E206572B5
:1022F000726F723321210D0A000000000AE006A06F
:1023000000F012F872B671B64FF4FA6000F0EAFC11
:10231000FEF79AFEF3E700000D0A4552524F525F56
:1023200055534147450D0A000FB4054B10B503A99D
:10233000044A029800F018F810BC5DF814FB000085
:1023400019320008B800002002E008C8121F08C1B6
:10235000002AFAD170477047002001E001C1121F26
:10236000002AFBD1704700002DE9FF4F8DB00546D4
:102370000F460026EEE1252879D100246D1CF94A8C
:10238000A246A14601212B78203B01FA03F010421E
:1023900002D004436D1CF6E728782A2810D06FF08D
:1023A0002F022878A0F13001092915D80AEB8A01FB
:1023B00002EB410144F0020400EB010A6D1CF0E75E
:1023C00057F804ABBAF1000F03DA44F40054CAF131
:1023D000000A44F002046D1C28782E2817D115F845
:1023E000010F44F004042A280ED06FF02F02287841
:1023F000A0F1300109290AD809EB890102EB41015A
:1024000000EB01096D1CF2E757F8049B6D1C28785E
:102410006C280FD006DC4C2817D068280DD06A280D
:1024200014D104E0742810D07A280FD10DE044F4C0
:1024300000140AE044F4801401E044F44014697884
:10244000814202D16D1C04F580146D1C95F800C00A
:10245000BCF16E0F2AD012DCBCF1630F3CD007DC5C
:10246000BCF1000F76D0BCF1580F19D1ACE018E0E8
:10247000BCF1640F6FD0BCF1690F11D16BE0BCF1FE
:10248000730F32D006DCBCF16F0F71D0BCF1700F4E
:1024900006D19BE0BCF1750F6BD0BCF1780F69D011
:1024A0006046DDE90F129047761C52E1C4F30250FA
:1024B000022806D003280AD0042801CF0AD00660DB
:1024C00047E101CF4FEAE671C0E9006141E101CF88
:1024D00006803EE106703CE101CF8DF8000000204F
:1024E0008DF80100EB46012003E057F804BB4FF0E4
:1024F000FF3061074FF0000102D40DE008F1010147
:10250000884649450FDA8045F8DB1BF8081000299A
:10251000F4D108E008F1010188468142FADB1BF89A
:1025200008100029F6D1DDE90F23AAEB0800814647
:10253000214600F040F9304400EB080604E0DDE9F4
:102540000F121BF8010B9047B8F10108F7D2214692
:102550004846F9E002E10A20C4F302524FF0000BB2
:102560000890022A07D001CFC117032A09D00AE038
:1025700035E022E023E0FF1D27F00707F7E802011E
:1025800005E000B2C117042A01D140B2C1170029E9
:1025900006DA0023D0EB030063EB01012D2202E0F9
:1025A000220504D52B228DF82420012203E0E20726
:1025B00001D02022F7E7904653E00A2110E01020D6
:1025C0004FF0000B08900EE0102109E010214FF0B1
:1025D000000B44F004044FF00809089103E00821BF
:1025E0004FF0000B0891C4F30252022A04D001CF2D
:1025F0000021032A06D007E0FF1D27F00707F7E8B0
:10260000020105E080B20021042A01D1C0B20021FC
:102610004FF00008220724D5BCF1700F2AD0089B88
:1026200083F0100353EA0B0309D150EA010206D0EC
:1026300030228DF824208DF825C002229046089B78
:1026400083F0080353EA0B030BD150EA010201D1D6
:10265000620706D530228DF824204FF00108A9F139
:10266000010941A2BCF1580F00D044A20B9208AA64
:102670000A920FE040228DF824200122DEE75B461B
:10268000089AFDF79AFD0B9B9B5C0A9AA2F1010246
:102690000A92137050EA0102F1D10A98ADEB0000E2
:1026A00000F1200B600702D524F4803401E04FF0E4
:1026B0000109002049465A46D94501DDA1EB020037
:1026C00000EB0B0141440890AAEB01000B90E003E2
:1026D00006D4DDE90F2321460B9800F06CF8064480
:1026E0004FF000090DF1240A07E0DDE90F121AF896
:1026F00009009047761C09F10109C145F5DBE003AB
:102700000CD5DDE90F2321460B9800F054F8064460
:1027100004E0DDE90F1230209047761C0899481E2E
:1027200008900029F5DC08E00A980A990078491C0D
:102730000A91DDE90F129047761CBBF10001ABF165
:10274000010BF1DC0B982146DDE90F2300F020F8A6
:1027500006446D1C287800287FF40DAE11B0304679
:10276000BDE8F08F09280100303132333435363777
:10277000383941424344454600000000303132338D
:1027800034353637383961626364656600000000AD
:102790002DE9F0410446002517461E46880405D45D
:1027A00006E039462020B04705F10105641EF8D542
:1027B0002846BDE8F0812DE9F04104460025302788
:1027C00090461E46C80300D42027880405D506E09D
:1027D00041463846B04705F10105641EF8D5284644
:1027E000BDE8F08170B504460D460CA12846FDF702
:1027F000CEFC06460F21284600F0B4F9002800DB85
:102800002EB900222946A0B200F034FC04E00122D7
:10281000311DA0B200F02EFC70BD00003431353304
:102820000000000070B504460D460CA12846FDF7D7
:10283000AEFC06460F21284600F094F9002800DB84
:102840002EB900222946A0B200F014FC04E00122B7
:10285000311DA0B200F00EFC70BD000034313433E5
:102860000000000070B504460D460CA12846FDF797
:102870008EFC06460F21284600F074F9002800DB84
:102880002EB900222946A0B200F0F4FB04E0012298
:10289000311DA0B200F0EEFB70BD000034313437C2
:1028A0000000000070B504460D460CA12846FDF757
:1028B0006EFC06460F21284600F054F9002800DB84
:1028C0002EB900222946A0B200F0D4FB04E0012278
:1028D000311DA0B200F0CEFB70BD000034313438A1
:1028E0000000000070B504460D460CA12846FDF717
:1028F0004EFC06460F21284600F034F9002800DB84
:102900002EB900222946A0B200F0B4FB04E0012257
:10291000311DA0B200F0AEFB70BD0000343134397F
:102920000000000070B504460D460CA12846FDF7D6
:102930002EFC06460F21284600F014F9002800DB83
:102940002EB900222946A0B200F094FB04E0012237
:10295000311DA0B200F08EFB70BD00003431344157
:102960000000000070B504460D460CA12846FDF796
:102970000EFC06460F21284600F0F4F8002800DB84
:102980002EB900222946A0B200F074FB04E0012217
:10299000311DA0B200F06EFB70BD00003431344236
:1029A0000000000070B504460D460CA12846FDF756
:1029B000EEFB06460F21284600F0D4F8002800DB85
:1029C0002EB900222946A0B200F054FB04E00122F7
:1029D000311DA0B200F04EFB70BD0000343131302B
:1029E0000000000070B504460D460CA12846FDF716
:1029F000CEFB06460F21284600F0B4F8002800DB85
:102A00002EB900222946A0B200F034FB04E00122D6
:102A1000311DA0B200F02EFB70BD00003431343601
:102A20000000000070B504460D460CA12846FDF7D5
:102A3000AEFB06460F21284600F094F8002800DB84
:102A40002EB900222946A0B200F014FB04E00122B6
:102A5000311DA0B200F00EFB70BD000034313333E5
:102A60000000000070B504460D460CA12846FDF795
:102A70008EFB06460F21284600F074F8002800DB84
:102A80002EB900222946A0B200F0F4FA04E0012297
:102A9000311DA0B200F0EEFA70BD000034313343B6
:102AA0000000000070B504460D460CA12846FDF755
:102AB0006EFB06460F21284600F054F8002800DB84
:102AC0002EB900222946A0B200F0D4FA04E0012277
:102AD000311DA0B200F0CEFA70BD00003431334495
:102AE0000000000070B504460D460CA12846FDF715
:102AF0004EFB06460F21284600F034F8002800DB84
:102B00002EB900222946A0B200F0B4FA04E0012256
:102B1000311DA0B200F0AEFA70BD00003431334573
:102B20000000000070B504460D460CA12846FDF7D4
:102B30002EFB06460F21284600F014F8002800DB83
:102B40002EB900222946A0B200F094FA04E0012236
:102B5000311DA0B200F08EFA70BD00003431334652
:102B60000000000070B505460C4614F0080F07D0B1
:102B700015A12846FDF70BFB10B14FF0FF3070BDDB
:102B800014F0020F07D012A12846FDF700FB10B188
:102B90006FF00100F3E714F0040F07D00EA12846F0
:102BA000FDF7F5FA10B16FF00200E8E714F0010F3D
:102BB00007D00BA12846FDF7EAFA10B94FF0FF3015
:102BC000DDE70120DBE70000444154410000000044
:102BD0004E45435400000000524348494E47000010
:102BE0003E00000070B504460D460CA12846FDF7D6
:102BF000CEFA06460F212846FFF7B4FF002800DB77
:102C00002EB900222946A0B200F034FA04E00122D5
:102C1000311DA0B200F02EFA70BD00003431333106
:102C20000000000070B504460D460CA12846FDF7D3
:102C3000AEFA06460F212846FFF794FF002800DB76
:102C40002EB900222946A0B200F014FA04E00122B5
:102C5000311DA0B200F00EFA70BD000034313445D1
:102C60000000000070B504460D460CA12846FDF793
:102C70008EFA06460F212846FFF774FF002800DB76
:102C80002EB900222946A0B200F0F4F904E0012296
:102C9000311DA0B200F0EEF970BD000034313243B6
:102CA0000000000070B504460D460CA12846FDF753
:102CB0006EFA06460F212846FFF754FF002800DB76
:102CC0002EB900222946A0B200F0D4F904E0012276
:102CD000311DA0B200F0CEF970BD000034313035A6
:102CE00000000000002107E0002200E0521C42F238
:102CF00028339A42FAD3491C8142F5D37047000029
:102D000070B504460D460CA12846FDF740FA06466C
:102D10000F212846FFF726FF002800DB2EB90022EE
:102D20002946A0B200F0A6F904E00122311DA0B2AC
:102D300000F0A0F970BD0000343134320000000012
:102D400070B504460D460CA12846FDF720FA06464C
:102D50000F212846FFF706FF002800DB2EB90022CE
:102D60002946A0B200F086F904E00122311DA0B28C
:102D700000F080F970BD00003431324400000000E2
:102D800070B504460D460CA12846FDF700FA06462C
:102D90000F212846FFF7E6FE002800DB2EB90022AF
:102DA0002946A0B200F066F904E00122311DA0B26C
:102DB00000F060F970BD00003431354600000000BD
:102DC00038B504461CB900208DF8030002E001204C
:102DD0008DF803004FF4E060FEF72CF928208DF801
:102DE000000000208DF801008DF802006846FEF713
:102DF000DFF838BD70B504460D460CA12846FDF736
:102E0000C6F906460F212846FFF7ACFE002800DB76
:102E10002EB900222946A0B200F02CF904E00122CC
:102E2000311DA0B200F026F970BD000034313034FD
:102E30000000000070B504460D460CA12846FDF7C1
:102E4000A6F906460F212846FFF78CFE002800DB76
:102E50002EB900222946A0B200F00CF904E00122AC
:102E6000311DA0B200F006F970BD000034313543C9
:102E70000000000070B504460D460CA12846FDF781
:102E800086F906460F212846FFF76CFE002800DB76
:102E90002EB900222946A0B200F0ECF804E001228D
:102EA000311DA0B200F0E6F870BD000034313043AF
:102EB0000000000070B504460D460CA12846FDF741
:102EC00066F906460F212846FFF74CFE002800DB76
:102ED0002EB900222946A0B200F0CCF804E001226D
:102EE000311DA0B200F0C6F870BD0000343131468B
:102EF0000000000070B504460D460CA12846FDF701
:102F000046F906460F212846FFF72CFE002800DB75
:102F10002EB900222946A0B200F0ACF804E001224C
:102F2000311DA0B200F0A6F870BD00003431343479
:102F30000000000070B504460D460CA12846FDF7C0
:102F400026F906460F212846FFF70CFE002800DB75
:102F50002EB900222946A0B200F08CF804E001222C
:102F6000311DA0B200F086F870BD0000343132454A
:102F70000000000070B504460D460CA12846FDF780
:102F800006F906460F212846FFF7ECFD002800DB76
:102F90002EB900222946A0B200F06CF804E001220C
:102FA000311DA0B200F066F870BD00003431353438
:102FB0000000000070B504460D460CA12846FDF740
:102FC000E6F806460F212846FFF7CCFD002800DB77
:102FD0002EB900222946A0B200F04CF804E00122EC
:102FE000311DA0B200F046F870BD0000343133321C
:102FF0000000000070B504460D460CA12846FDF700
:10300000C6F806460F212846FFF7ACFD002800DB76
:103010002EB900222946A0B200F02CF804E00122CB
:10302000311DA0B200F026F870BD000034313446E6
:103030000000000070B504460D460CA12846FDF7BF
:10304000A6F806460F212846FFF78CFD002800DB76
:103050002EB900222946A0B200F00CF804E00122AB
:10306000311DA0B200F006F870BD000034313530DB
:10307000000000002DE9F04706460F469146002467
:10308000A046464800EB86008578314644A0FFF70D
:103090004BF9C6EB0610484A02EBC000011D47A0E1
:1030A000FFF742F9C6EB0610434A02EBC00000F1FD
:1030B000440146A0FFF738F915B928B2BDE8F087FA
:1030C0004548006888BB44480168304600F0F0F984
:1030D00080464B464246294640A0FFF725F900248A
:1030E00005E0395D49A0FFF71FF9601C84B2AC42CE
:1030F000F7DBB9F1000F0BD0002406E0395D08EBD7
:10310000040243488154601C84B2AC42F6DB0AE0FE
:10311000002406E03F2108EB04023D488154601C76
:1031200084B2AC42F6DB28B2C8E7FFE72A48006861
:10313000012831D128480168304600F0B9F98046AD
:103140004B464246294625A0FFF7EEF8002405E04D
:10315000395D2EA0FFF7E8F8601C84B2AC42F7DBC3
:10316000B9F1000F0BD0002406E0395D08EB040232
:1031700028488154601C84B2AC42F6DB0AE000248B
:1031800006E03F2108EB040222488154601C84B20F
:10319000AC42F6DB28B291E700BF8FE7D0120020E7
:1031A0000D0A43555252454E5420494E4445583A13
:1031B00025640D0A00000000845500080D0A6C61AA
:1031C00062656C203A25730D0A0000000D0A434D1C
:1031D00044203A25730D0A00240000200D0A6E6574
:1031E000656420646174612073697A652D2D3E25C4
:1031F000642020696E6465782D2D3E2564207661FB
:103200006C75652D2D3E25640D0A00002533580090
:10321000720E00200C10002070B504460D46E1B27D
:103220000548FEF7E6FF00BF80210348FEF714FFC4
:103230000028F9D0204670BD0038014070B5044622
:103240000D460CA12846FCF7A2FF06460F21284692
:10325000FFF788FC002800DB2EB900222946A0B227
:10326000FFF708FF04E00122311DA0B2FFF702FFC3
:1032700070BD0000343132320000000070B50446E9
:103280000D460CA12846FCF782FF06460F21284672
:10329000FFF768FC002800DB2EB900222946A0B207
:1032A000FFF7E8FE04E00122311DA0B2FFF7E2FEC5
:1032B00070BD0000343132330000000070B50446A8
:1032C0000D460CA12846FCF762FF06460F21284652
:1032D000FFF748FC002800DB2EB900222946A0B2E7
:1032E000FFF7C8FE04E00122311DA0B2FFF7C2FEC5
:1032F00070BD0000343135440000000070B5044654
:103300000D460CA12846FCF742FF06460F21284631
:10331000FFF728FC002800DB2EB900222946A0B2C6
:10332000FFF7A8FE04E00122311DA0B2FFF7A2FEC4
:1033300070BD0000343132460000000070B5044614
:103340000D460CA12846FCF722FF06460F21284611
:10335000FFF708FC002800DB2EB900222946A0B2A6
:10336000FFF788FE04E00122311DA0B2FFF782FEC4
:1033700070BD0000343130410000000070B50446DB
:103380000D460CA12846FCF702FF06460F212846F1
:10339000FFF7E8FB002800DB2EB900222946A0B287
:1033A000FFF768FE04E00122311DA0B2FFF762FEC4
:1033B00070BD0000343135450000000070B5044692
:1033C0000D4609A12846FCF7E2FE06462EB1012271
:1033D0003146A0B2FFF74EFE04E000223146A0B213
:1033E000FFF748FE70BD00003431303200000000AD
:1033F00070B504460D460CA12846FCF7C8FE0646EB
:103400000F212846FFF7AEFB002800DB2EB9002273
:103410002946A0B2FFF72EFE04E00122311DA0B222
:10342000FFF728FE70BD000034313033000000008B
:1034300070B504460D460CA12846FCF7A8FE0646CA
:103440000F212846FFF78EFB002800DB2EB9002253
:103450002946A0B2FFF70EFE04E00122311DA0B202
:10346000FFF708FE70BD0000343135310000000068
:1034700070B504460D460CA12846FCF788FE0646AA
:103480000F212846FFF76EFB002800DB2EB9002233
:103490002946A0B2FFF7EEFD04E00122311DA0B2E3
:1034A000FFF7E8FD70BD0000343135390000000041
:1034B000F8B505460E46002466480088F0BB00209B
:1034C0006549088000BF15E06448B0F82C01011977
:1034D000634800EB810080785F4931F814100144A3
:1034E0005D4A601C32F81000084481B2601C22F86A
:1034F000101084B25948B0F82E11B0F82C01081AF7
:10350000A042E1DC57A0FEF70FFF00241BE00A20D9
:1035100094FBF0F100FB114010B958A0FEF704FF36
:103520004D4830F814304D48B0F82C0101194C4882
:1035300000EB81008278214651A000E04CE0FEF7CC
:10354000F3FE601C84B2C82CE1DB002050490880E7
:10355000002415E04148B0F830010119404800EB63
:10356000810080784A4931F814100144484A601CAF
:1035700032F81000084481B2601C22F8101084B2A6
:103580003648B0F83211B0F83001081AA042E1DC38
:1035900040A0FEF7C9FE002419E00A2094FBF0F1D8
:1035A00000FB114010B935A0FEF7BEFE384830F8D8
:1035B00014302A48B0F830010119294800EB810085
:1035C000827821462EA0FEF7AFFE601C84B2C82C84
:1035D000E3DB01201F49088026BB2048B0F82C01FE
:1035E000281A1D4931F810301C480093B0F82E31CC
:1035F000B0F82C2129462CA0FEF796FE1748B0F80B
:103600002E01A84204DB1548B0F82C01A84201DDC8
:103610000020F8BD1148B0F82C01281A0E4931F8E5
:103620001000F6E7012E13D10C48B0F83201A84281
:1036300004DB0A48B0F83001A84201DD0020E8E7C9
:103640000648B0F83001281A114931F81000E0E7B7
:103650000020DEE7A0000020DC1600209C110020E6
:10366000D01200200D0A4E4F524D414C20494E447D
:103670004558204D41500D0A000000000D0A000081
:103680002534642D3E2534642D3E253464202000ED
:103690006C1800200D0A4641535420494E444558A9
:1036A000204D41503A0D0A006D617020696E6465CD
:1036B00078202564202D3E2025642D3E25642D2D67
:1036C0003E25640070B506460C46002501212046C3
:1036D000FFF748FA002803DA00E06D1C142DFCDB2C
:1036E00070BD0000FA49097879B3FA4909680629DA
:1036F00002D0FF297ED12FE1F749C978472972D13D
:10370000F549097947296ED1F349497941296AD1A7
:103710000121F24A11600021F14A116009E078228A
:10372000F049EF4B1B68CA54ED490968491CEC4A43
:103730001160EB4909680929F1DB7821E94A921EF9
:10374000D1720021E64A11600BE0F3E37822E549EB
:103750000A31E34B1B68CA54E1490968491CE04A35
:103760001160DF4909680A29F0DB7821DD4A921EE1
:103770009175D1750021DA4A11600AE07822D949A1
:103780001631D74B1B68CA54D5490968491CD44A1D
:103790001160D34909680229F0DB0021D04A116089
:1037A0000AE07822CF491831CD4B1B68CA54CC4966
:1037B0000968491CCA4A1160C94909680429F0DB33
:1037C0000021C74A11600AE00022C6491C31C44BDF
:1037D0001B68CA54C2490968491CC14A1160C049E2
:1037E00009680A29F0DBBC494979562928D1042106
:1037F000BA4A00E0FEE311600021B94A11601BE003
:103800007822B949B64B1B6801F82320B44B1B68DA
:1038100001EB83014A70B449B14B1B6801EB830192
:103820008A70B149AE4B1B6801EB8301CA70AC4989
:103830000968491CAA4A1160A94909680C29DFDBFB
:10384000A5494979432971D10821A44A1160002171
:10385000A34A116009E07822A449A14B1B68CA540D
:103860009F490968491C9E4A11609D4909680A29B7
:10387000F1DB78219D4A921E11730021984A116054
:103880000AE0782299490B31954B1B68CA54944938
:103890000968491C924A1160914909680929F0DBBD
:1038A0007821924A921E917500218D4A11600AE09A
:1038B00078228E4915318A4B1B68CA548849096899
:1038C000491C874A1160864909680A29F0DB78217A
:1038D000864A921E82F821100021814A11600AE076
:1038E0007822824920317E4B1B68CA547C49096882
:1038F000491C7B4A11607A4909680529F0DB0021DF
:10390000774A11600AE0782278492531744B1B68A8
:10391000CA5473490968491C714A116070490968A1
:103920000529F0DB00216E4A11600BE00EE07822E1
:103930006E492A316A4B1B68CA5469490968491C97
:10394000674A1160664909680629F0DB2C2802D114
:10395000FF21604A1160FEE360490968012904D033
:1039600004297ED008297DD1EDE02A2802D02C2818
:1039700079D190E00021564A11705A49891EC97DBB
:10398000302971D05749891EC97E2E290FD155493A
:10399000891E097F3039534A921E927E303A02EBDB
:1039A000820201EB42014F4A921E916220E04D4992
:1039B000891E097F2E2916D14A49891E897E3039F0
:1039C00064225143474A921ED27E303A02EB820271
:1039D00001EB42024349891E497F30391144414A73
:1039E000921E916204E04FF47A713E4A921E9162F7
:1039F0003C49891E896A3E4A926991424ADC00210B
:103A0000374A11600CE03749354A1268895C384AF8
:103A1000334B1B68D15432490968491C304A116044
:103A20002F4909680929EEDB00212D4A11600EE0BB
:103A30002C490A312A4A12688A5C2D490A31284BDE
:103A40001B68CA5426490968491C254A1160244943
:103A500009680A29ECDB2349891EC97A244A517274
:103A600003E0B9E1F6E320E014E01E49891E897DF8
:103A700011751C49891E097E11771A49891E4A7ED3
:103A80001B494A771749891E896A194A91610121A0
:103A9000184A116055E01349891E0978491C114ADA
:103AA000921E1170002151704BE00E49891E097859
:103AB00009293ED2DFE801F03D052023282B2E33D3
:103AC00038000849891E4A78891C885432E0000071
:103AD00074000020700000206800002064000020B6
:103AE0007C0000203A1600206C16002006160020EC
:103AF0009C16002080000020FF49C8721AE0FE4991
:103B00004A780C31885415E0FB49887512E0FA496F
:103B1000C8750FE0F8494A78183188540AE0F64928
:103B20004A781A31885400BFF3494A781E318854C4
:103B300000E000BF00BFF0494978491CEE4A5170CF
:103B400000BF00BFD6E32A2802D02C287DD1FEE09A
:103B50000021EA4A1170EA4A11600121E94A116024
:103B6000E949097B412978D10021E84A11600DE03B
:103B7000E5490D31E54A12688A5CE549E34B1B686B
:103B8000CA54E2490968491CE04A1160DF490968E2
:103B90000929EDDB0021DD4A11600EE0DA49173119
:103BA000DA4A12688A5CDA490A31D84B1B68CA546F
:103BB000D6490968491CD54A1160D44909680A29BF
:103BC000ECDBD149897DD24A1E3A82F82710CE49D2
:103BD00091F8211082F832100021CC4A11600EE0D9
:103BE000C9492231C94A12688A5CC9491731C74B91
:103BF0001B68CA54C5490968491CC44A1160C349B5
:103C000009680529ECDB0021C04A11600EE0BE49BD
:103C10002731BE4A12688A5CBD491C31BB4B1B6808
:103C2000CA54BA490968491CB84A1160B7490968B9
:103C30000529ECDBB049097EB54A1E3A82F83310FB
:103C4000AD494A7EB2491E3901E088E005E081F8BD
:103C500034200121AF4A11607047AB49897D782932
:103C600074D00021A94A11600DE0A7490D31A74A7F
:103C700012688A5CA649A54B1B68CA54A349096807
:103C8000491CA24A1160A14909680929EDDB0021FC
:103C90009E4A11600EE09C4917319C4A12688A5C6A
:103CA0009B490A31994B1B68CA5498490968491CB9
:103CB000964A1160954909680A29ECDB9249897D89
:103CC000934A1E3A82F827108F4991F8211082F802
:103CD000321000218D4A11600EE08B4922318B4A4F
:103CE00012688A5C8A491731884B1B68CA54874915
:103CF0000968491C854A1160844909680529ECDB7B
:103D00000021824A11600EE07F4927317F4A126804
:103D10008A5C7F491C317D4B1B68CA547B4909680A
:103D2000491C7A4A1160794909680529ECDB724916
:103D3000097E774A1E3A82F833106F494A7E7449E9
:103D40001E3981F834200121734A116042E06E4926
:103D50000978491C6C4A1170002151703AE06A4997
:103D6000097809292ED2DFE801F0050A0D12151A8B
:103D70001E23280064494A78891C885423E062493C
:103D8000087320E060494A780D3188541BE05E4991
:103D9000887518E05C494A781731885413E05A490D
:103DA00081F821000FE058494A78223188540AE00E
:103DB00055494A782731885405E053494A782C31CF
:103DC000885400E000BF00BF4F494978491C4E4A63
:103DD000517000BF00BF8DE22A2802D02C287ED16E
:103DE000DFE10021454A11704C49C978312977D16A
:103DF00000214B4A11604B4A11604B4A11604B4AFB
:103E000011604B4A1160414A1160A2E043490831F8
:103E10003E4A126801EB8201C97878296BD040498B
:103E20000968491C3E4A11603C490831374A12680A
:103E300001EB8201C9783039384A0832334B1B68AC
:103E400002EB83029278303A02EB820201EB4201EC
:103E50000A2904DB33490968491C324A11602F4999
:103E600008312A4A126801EB8201C97830392B4A9D
:103E70000832264B1B6802EB83029278303A02EB41
:103E8000820201EB4201142904DB27490968491C1D
:103E9000254A1160214908311C4A126801EB820150
:103EA000C97830391D4A0832184B1B6802EB83026F
:103EB0009278303A02EB820201EB42011E2904DBC8
:103EC0001A490968491C194A1160144908310F4AF6
:103ED000126801EB8201C9783039104A01E068E1CB
:103EE0003DE00832094B1B6802EB83029278303ABE
:103EF00002EB82021FE027E0381600207400002049
:103F00007000002078000020041600207C000020B3
:103F1000BA160020880000208400002064160020CB
:103F20008C000020900000209400002098000020C9
:103F30009C000020F2E101EB4201282904DBFF494B
:103F40000968491CFD4A1160FD490968491CFC4A81
:103F50001160FB4909680429FFF658AF20E1F949CF
:103F6000C97832297ED10421F54A116083E0F549F0
:103F70000831F34A126801EB8201C978782975D0BB
:103F8000F1490968491CF04A1160EE490831EC4AD0
:103F9000126801EB8201C9783039EA4A0832E84BED
:103FA0001B6802EB83029278303A02EB820201EB4B
:103FB00042010A2904DBE5490968491CE34A11600A
:103FC000E0490831DE4A126801EB8201C9783039D4
:103FD000DC4A0832DA4B1B6802EB83029278303AF3
:103FE00002EB820201EB4201142906DBD849096881
:103FF000491C00E080E1D64A1160D2490831D04A1C
:10400000126801EB8201C9783039CE4A0832CC4BB4
:104010001B6802EB83029278303A02EB820201EBDA
:1040200042011E2904DBCB490968491CC94A1160B9
:10403000C4490831C24A126801EB8201C97830399B
:10404000C04A0832BE4B1B6802EB83029278303ABA
:1040500002EB820201EB4201282907DBB74909681C
:10406000491C01E00DE001E0B44A1160B44909685F
:10407000491CB34A1160B24909680829FFF677AFB5
:104080008EE0B049C978332966D10821AC4A116065
:1040900081E0AC490831AA4A126801EB8201C97873
:1040A000782973D0A8490968491CA74A1160A54915
:1040B0000831A34A126801EB8201C9783039A14A5C
:1040C00008329F4B1B6802EB83029278303A02EB76
:1040D000820201EB42010A2904DB9C490968491C60
:1040E0009A4A116097490831954A126801EB82019A
:1040F000C9783039934A0832914B1B6802EB83022E
:104100009278303A02EB820201EB4201142904DB7F
:104110008F490968491C8E4A11608A490831884ACA
:10412000126801EB8201C9783039864A0832844B23
:104130001B6802EB83029278303A02EB820201EBB9
:1041400042011E2904DB83490968491C814A116028
:104150007C49083101E0E0E022E0794A126801EB95
:104160008201C9783039774A0832754B1B6802EBF7
:1041700083029278303A02EB820201EB4201282955
:1041800004DB6E490968491C6C4A11606C49096876
:10419000491C6B4A11606A4909680C29FFF679AF1E
:1041A000A2E068490978491C664A117000215170E3
:1041B0009AE064490978132974D2DFE801F00A0D06
:1041C0002A2B343536404C4D4E5A656667747F80D5
:1041D00081005C49887080E05A49C870C9783129EB
:1041E00003D10021574A516012E05649C97832295B
:1041F00003D10421534A51600AE05249C978332956
:1042000003D108214F4A516002E008214D4A516014
:1042100063E062E04B494A68083101EB8201494A98
:104220005278885459E058E057E046494A680831C6
:1042300001EB8201891C434A527888544DE0414980
:104240004968491C3F4A083202EB8101083A52781A
:10425000885442E04AE040E03FE03A494968491C5E
:10426000384A083202EB8101891C083A5278885496
:1042700033E034494968891C324A083202EB810133
:10428000083A5278885428E027E026E02D4949680A
:10429000891C2C4A083202EB8101891C083A5278A9
:1042A00088541AE018E027494968C91C254A083291
:1042B00002EB8101083A527888540EE00DE00CE0E0
:1042C00020494968C91C1F4A083202EB8101891C38
:1042D000083A5278885400E000BF00BF1949497875
:1042E000491C184A517000BF00BF03E000211A4A60
:1042F000117000BF00BF10E01849194A12688854B5
:1043000017490968491C164A1160114609680729AE
:1043100002DD0021104A117000BF33E0242831D1A2
:104320000E4900220A608A808A71087001210A4AB7
:10433000117000210B4A1160012115E09C00002042
:104340007C000020641600208C00002090000020DB
:1043500094000020980000207400002068000020D5
:104360007000002064000020074A11600021074A05
:1043700011705170064A11705170064A11705170D7
:10438000054A116000BF67E4700000200416002099
:1043900064160020381600207800002010B5FCF7C5
:1043A000BFFE01210648FCF7ABFCFCF733FAFDF732
:1043B000FFFCFCF767F9FCF735FDFDF7C0F910BD10
:1043C0000004300070B504460D460CA12846FBF7EA
:1043D000DEFE06460F212846FEF7C4FB002800DB60
:1043E0002EB900222946A0B2FEF744FE04E00122C5
:1043F000311DA0B2FEF73EFE70BD000034313542E3
:104400000000000070B504460D460CA12846FBF7DD
:10441000BEFE06460F212846FEF7A4FB002800DB5F
:104420002EB900222946A0B2FEF724FE04E00122A4
:10443000311DA0B2FEF71EFE70BD000034313046C3
:104440000000000070B504460D460CA12846FBF79D
:104450009EFE06460F212846FEF784FB002800DB5F
:104460002EB900222946A0B2FEF704FE04E0012284
:10447000311DA0B2FEF7FEFD70BD000034313042A8
:104480000000000070B504460D460CA12846FBF75D
:104490007EFE06460F212846FEF764FB002800DB5F
:1044A0002EB900222946A0B2FEF7E4FD04E0012265
:1044B000311DA0B2FEF7DEFD70BD00003431303793
:1044C0000000000070B504460D460CA12846FBF71D
:1044D0005EFE06460F212846FEF744FB002800DB5F
:1044E0002EB900222946A0B2FEF7C4FD04E0012245
:1044F000311DA0B2FEF7BEFD70BD00003431303971
:104500000000000070B504460D460CA12846FBF7DC
:104510003EFE06460F212846FEF724FB002800DB5E
:104520002EB900222946A0B2FEF7A4FD04E0012224
:10453000311DA0B2FEF79EFD70BD0000343135364E
:104540000000000070B504460D460CA12846FBF79C
:104550001EFE06460F212846FEF704FB002800DB5E
:104560002EB900222946A0B2FEF784FD04E0012204
:10457000311DA0B2FEF77EFD70BD0000343135382C
:1045800000000000FFF70AFF0BE04FF08040FDF74E
:104590000FFA0446014603A0FDF7C6FE0A20FEF707
:1045A000A1FBF2E70D0A74696D6572203A2025645B
:1045B000200D0A0070B504460D460CA12846FBF7F5
:1045C000E6FD06460F212846FEF7CCFA002800DB60
:1045D0002EB900222946A0B2FEF74CFD04E00122CC
:1045E000311DA0B2FEF746FD70BD000034313231FE
:1045F0000000000070B504460D460CA12846FBF7EC
:10460000C6FD06460F212846FEF7ACFA002800DB5F
:104610002EB900222946A0B2FEF72CFD04E00122AB
:10462000311DA0B2FEF726FD70BD000034313444C8
:104630000000000070B504460D460CA12846FBF7AB
:10464000A6FD06460F212846FEF78CFA002800DB5F
:104650002EB900222946A0B2FEF70CFD04E001228B
:10466000311DA0B2FEF706FD70BD000034313431BB
:104670000000000070B504460D460CA12846FBF76B
:1046800086FD06460F212846FEF76CFA002800DB5F
:104690002EB900222946A0B2FEF7ECFC04E001226C
:1046A000311DA0B2FEF7E6FC70BD000034313031A0
:1046B0000000000070B504460D460CA12846FBF72B
:1046C00066FD06460F212846FEF74CFA002800DB5F
:1046D0002EB900222946A0B2FEF7CCFC04E001224C
:1046E000311DA0B2FEF7C6FC70BD0000343131347C
:1046F0000000000070B504460D460CA12846FBF7EB
:1047000046FD06460F212846FEF72CFA002800DB5E
:104710002EB900222946A0B2FEF7ACFC04E001222B
:10472000311DA0B2FEF7A6FC70BD0000343131355A
:104730000000000070B504460D460CA12846FBF7AA
:1047400026FD06460F212846FEF70CFA002800DB5E
:104750002EB900222946A0B2FEF78CFC04E001220B
:10476000311DA0B2FEF786FC70BD00003431313639
:104770000000000070B504460D460CA12846FBF76A
:1047800006FD06460F212846FEF7ECF9002800DB5F
:104790002EB900222946A0B2FEF76CFC04E00122EB
:1047A000311DA0B2FEF766FC70BD00003431313718
:1047B0000000000070B504460D460CA12846FBF72A
:1047C000E6FC06460F212846FEF7CCF9002800DB60
:1047D0002EB900222946A0B2FEF74CFC04E00122CB
:1047E000311DA0B2FEF746FC70BD000034313138F7
:1047F0000000000070B504460D460CA12846FBF7EA
:10480000C6FC06460F212846FEF7ACF9002800DB5F
:104810002EB900222946A0B2FEF72CFC04E00122AA
:10482000311DA0B2FEF726FC70BD000034313139D5
:104830000000000070B504460D460CA12846FBF7A9
:10484000A6FC06460F212846FEF78CF9002800DB5F
:104850002EB900222946A0B2FEF70CFC04E001228A
:10486000311DA0B2FEF706FC70BD000034313141AD
:104870000000000070B504460D460CA12846FBF769
:1048800086FC06460F212846FEF76CF9002800DB5F
:104890002EB900222946A0B2FEF7ECFB04E001226B
:1048A000311DA0B2FEF7E6FB70BD0000343131428D
:1048B0000000000070B504460D460CA12846FBF729
:1048C00066FC06460F212846FEF74CF9002800DB5F
:1048D0002EB900222946A0B2FEF7CCFB04E001224B
:1048E000311DA0B2FEF7C6FB70BD00003431333479
:1048F0000000000070B504460D460CA12846FBF7E9
:1049000046FC06460F212846FEF72CF9002800DB5E
:104910002EB900222946A0B2FEF7ACFB04E001222A
:10492000311DA0B2FEF7A6FB70BD00003431333557
:104930000000000070B504460D460CA12846FBF7A8
:1049400026FC06460F212846FEF70CF9002800DB5E
:104950002EB900222946A0B2FEF78CFB04E001220A
:10496000311DA0B2FEF786FB70BD00003431333636
:104970000000000070B504460D460CA12846FBF768
:1049800006FC06460F212846FEF7ECF8002800DB5F
:104990002EB900222946A0B2FEF76CFB04E00122EA
:1049A000311DA0B2FEF766FB70BD00003431333715
:1049B0000000000070B504460D460CA12846FBF728
:1049C000E6FB06460F212846FEF7CCF8002800DB60
:1049D0002EB900222946A0B2FEF74CFB04E00122CA
:1049E000311DA0B2FEF746FB70BD000034313338F4
:1049F0000000000070B504460D460CA12846FBF7E8
:104A0000C6FB06460F212846FEF7ACF8002800DB5F
:104A10002EB900222946A0B2FEF72CFB04E00122A9
:104A2000311DA0B2FEF726FB70BD000034313339D2
:104A30000000000070B504460D460CA12846FBF7A7
:104A4000A6FB06460F212846FEF78CF8002800DB5F
:104A50002EB900222946A0B2FEF70CFB04E0012289
:104A6000311DA0B2FEF706FB70BD000034313341AA
:104A70000000000070B504460D460CA12846FBF767
:104A800086FB06460F212846FEF76CF8002800DB5F
:104A90002EB900222946A0B2FEF7ECFA04E001226A
:104AA000311DA0B2FEF7E6FA70BD0000343133428A
:104AB0000000000070B504460D460CA12846FBF727
:104AC00066FB06460F212846FEF74CF8002800DB5F
:104AD0002EB900222946A0B2FEF7CCFA04E001224A
:104AE000311DA0B2FEF7C6FA70BD00003431323479
:104AF0000000000070B504460D460CA12846FBF7E7
:104B000046FB06460F212846FEF72CF8002800DB5E
:104B10002EB900222946A0B2FEF7ACFA04E0012229
:104B2000311DA0B2FEF7A6FA70BD00003431323557
:104B30000000000070B504460D460CA12846FBF7A6
:104B400026FB06460F212846FEF70CF8002800DB5E
:104B50002EB900222946A0B2FEF78CFA04E0012209
:104B6000311DA0B2FEF786FA70BD00003431323636
:104B70000000000070B504460D460CA12846FBF766
:104B800006FB06460F212846FDF7ECFF002800DB58
:104B90002EB900222946A0B2FEF76CFA04E00122E9
:104BA000311DA0B2FEF766FA70BD00003431323715
:104BB0000000000070B504460D460CA12846FBF726
:104BC000E6FA06460F212846FDF7CCFF002800DB59
:104BD0002EB900222946A0B2FEF74CFA04E00122C9
:104BE000311DA0B2FEF746FA70BD000034313238F4
:104BF0000000000070B504460D460CA12846FBF7E6
:104C0000C6FA06460F212846FDF7ACFF002800DB58
:104C10002EB900222946A0B2FEF72CFA04E00122A8
:104C2000311DA0B2FEF726FA70BD000034313239D2
:104C30000000000070B504460D460CA12846FBF7A5
:104C4000A6FA06460F212846FDF78CFF002800DB58
:104C50002EB900222946A0B2FEF70CFA04E0012288
:104C6000311DA0B2FEF706FA70BD000034313241AA
:104C70000000000070B504460D460CA12846FBF765
:104C800086FA06460F212846FDF76CFF002800DB58
:104C90002EB900222946A0B2FEF7ECF904E0012269
:104CA000311DA0B2FEF7E6F970BD0000343132428A
:104CB00000000000B0B5002400250027DC48008873
:104CC00001285CD1DB48008820B9DB48B0F8280116
:104CD000D8490880002400BFD848D649098830F850
:104CE0002100C0EB0010D64901EBC0004430075D45
:104CF000D248D04A128830F82200C0EB00100A4691
:104D000002EBC0004430015DCE48FDF772FACB489B
:104D1000C84A128830F82200C0EB0010C84A02EBE3
:104D2000C0004430015DC848FDF763FA00BF402170
:104D3000C448FDF791F90028F9D0C048BD49098859
:104D400030F82100C0EB0010BD4901EBC000443039
:104D5000005D0D2800D101E0641CBDE700BFB5482F
:104D60000088401CB3490880B348B0F82A0109887C
:104D7000884202DA0020AE4908803046B0BDB34810
:104D8000006870B90120B1490860AB48B0F82C0147
:104D9000401EAF490880A848B0F83001401EAD4918
:104DA0000880AD480068F0BBA348B0F83001401E51
:104DB000A84908800020A9490880A048A44909887A
:104DC00000EB8100C078A6490988884206DBA44828
:104DD0000088401CA24908800020CFE70020A0499D
:104DE000088096489A49098800EB81008578CDB102
:104DF00097480088C0EB0010914951F8300088B105
:104E00008D48B0F82C019249098888420ADC904804
:104E10000088C0EB00108A4951F8302091498C4835
:104E20000088904700E05CE04FF496718D48FBF7F6
:104E3000A2F900208C49086085480088401C8449FC
:104E400008807D48B0F82E010988884204DA7A4843
:104E5000B0F82C017E490880002400BF77487C49C7
:104E6000098830F82100C0EB0010754901EBC00043
:104E70004430075D7148764A128830F82200C0EB52
:104E800000100A4602EBC0004430015D6D48FDF79A
:104E9000B0F96A486E4A128830F82200C0EB001060
:104EA000674A02EBC0004430015D6748FDF7A1F995
:104EB00000BF40216348FDF7CFF80028F9D05F48D4
:104EC0006349098830F82100C0EB00105C4901EB10
:104ED000C0004430005D0D2800D101E0641CBDE736
:104EE00000BF5D48006801287ED160A0FDF71CFA74
:104EF0005148B0F82C01401E5549088000205849FF
:104F000008804E485249098800EB8100C078534917
:104F10000988884206DB51480088401C4F490880B8
:104F200000202BE700204D49088044484949098862
:104F300000EB81008578CDB146480088C0EB0010B9
:104F40003F4951F8300088B13B48B0F83001414941
:104F5000098888420ADC3F480088C0EB00103849C5
:104F600051F830203F493B48008890474FF49671F4
:104F70003C48FBF700F900203B49086035480088B1
:104F8000401C344908802C48B0F832010988884216
:104F900004DA2948B0F830012E490880002400BF07
:104FA00026482C49098830F82100C0EB001024491C
:104FB00001EBC0004430075D2048264A128830F8D3
:104FC0002200C0EB00100A4602EBC0004430015D35
:104FD0001C48FDF70EF919481E4A128830F82200C5
:104FE000C0EB0010164A00E01FE002EBC0004430A6
:104FF000015D1548FDF7FDF800BF40211148FDF7A0
:105000002BF80028F9D00D481249098830F8210002
:10501000C0EB00100A4901EBC0004430005D0D28D0
:1050200000D101E0641CBBE700BF0120A6E6000040
:10503000B2000020B40000209C110020D0120020FB
:10504000845500080048004000380140A4000020BA
:10505000AE000020B000002024000020AA000020A4
:10506000A8000020E40A0020080000200D0A4F429A
:105070004420696E2066617374206D6F64652B2B0C
:105080000D0A000070B504460D460CA12846FBF73A
:105090007EF806460F212846FDF764FD002800DB58
:1050A0002EB900222946A0B2FDF7E4FF04E0012258
:1050B000311DA0B2FDF7DEFF70BD00003431314379
:1050C0000000000070B504460D460CA12846FBF711
:1050D0005EF806460F212846FDF744FD002800DB58
:1050E0002EB900222946A0B2FDF7C4FF04E0012238
:1050F000311DA0B2FDF7BEFF70BD00003431313369
:105100000000000070B504460D460CA12846FBF7D0
:105110003EF806460F212846FDF724FD002800DB57
:105120002EB900222946A0B2FDF7A4FF04E0012217
:10513000311DA0B2FDF79EFF70BD00003431314437
:105140000000000070B504460D460CA12846FBF790
:105150001EF806460F212846FDF704FD002800DB57
:105160002EB900222946A0B2FDF784FF04E00122F7
:10517000311DA0B2FDF77EFF70BD00003431353225
:105180000000000070B504460D460CA12846FAF751
:10519000FEFF06460F212846FDF7E4FC002800DB51
:1051A0002EB900222946A0B2FDF764FF04E00122D7
:1051B000311DA0B2FDF75EFF70BD000034313145F6
:1051C0000000000070B504460D460CA12846FAF711
:1051D000DEFF06460F212846FDF7C4FC002800DB51
:1051E0002EB900222946A0B2FDF744FF04E00122B7
:1051F000311DA0B2FDF73EFF70BD000034313541D6
:105200000000000070B504460D460CA12846FAF7D0
:10521000BEFF06460F212846FDF7A4FC002800DB50
:105220002EB900222946A0B2FDF724FF04E0012296
:10523000311DA0B2FDF71EFF70BD000034313435C2
:105240000000000070B504460D460CA12846FAF790
:105250009EFF06460F212846FDF784FC002800DB50
:105260002EB900222946A0B2FDF704FF04E0012276
:10527000311DA0B2FDF7FEFE70BD000034313132A9
:105280000000000070B504460D460CA12846FAF750
:105290007EFF06460F212846FDF764FC002800DB50
:1052A0002EB900222946A0B2FDF7E4FE04E0012257
:1052B000311DA0B2FDF7DEFE70BD00003431303686
:1052C0000000000070B504460D460CA12846FAF710
:1052D0005EFF06460F212846FDF744FC002800DB50
:1052E0002EB900222946A0B2FDF7C4FE04E0012237
:1052F000311DA0B2FDF7BEFE70BD00003431303864
:105300000000000070B504460D460CA12846FAF7CF
:105310003EFF06460F212846FDF724FC002800DB4F
:105320002EB900222946A0B2FDF7A4FE04E0012216
:10533000311DA0B2FDF79EFE70BD00003431353541
:105340000000000070B504460D460CA12846FAF78F
:105350001EFF06460F212846FDF704FC002800DB4F
:105360002EB900222946A0B2FDF784FE04E00122F6
:10537000311DA0B2FDF77EFE70BD0000343135371F
:105380000000000070B504460D460CA12846FAF74F
:10539000FEFE06460F212846FDF7E4FB002800DB51
:1053A0002EB900222946A0B2FDF764FE04E00122D6
:1053B000311DA0B2FDF75EFE70BD0000343130300B
:1053C0000000000070B504460D460CA12846FAF70F
:1053D000DEFE06460F212846FDF7C4FB002800DB51
:1053E0002EB900222946A0B2FDF744FE04E00122B6
:1053F000311DA0B2FDF73EFE70BD000034313230E9
:105400000000000070B504460D460CA12846FAF7CE
:10541000BEFE06460F212846FDF7A4FB002800DB50
:105420002EB900222946A0B2FDF724FE04E0012295
:10543000311DA0B2FDF71EFE70BD000034313430C6
:105440000000000070B504460D460CA12846FAF78E
:105450009EFE06460F212846FDF784FB002800DB50
:105460002EB900222946A0B2FDF704FE04E0012275
:10547000311DA0B2FDF7FEFD70BD00003431344394
:105480000000000070B504460D460CA12846FAF74E
:105490007EFE06460F212846FDF764FB002800DB50
:1054A0002EB900222946A0B2FDF7E4FD04E0012256
:1054B000311DA0B2FDF7DEFD70BD00003431313189
:1054C0000000000070B504460D460CA12846FAF70E
:1054D0005EFE06460F212846FDF744FB002800DB50
:1054E0002EB900222946A0B2FDF7C4FD04E0012236
:1054F000311DA0B2FDF7BEFD70BD00003431304556
:105500000000000070B504460D460CA12846FAF7CD
:105510003EFE06460F212846FDF724FB002800DB4F
:105520002EB900222946A0B2FDF7A4FD04E0012215
:10553000311DA0B2FDF79EFD70BD00003431304436
:105540000000000070B504460D460CA12846FAF78D
:105550001EFE06460F212846FDF704FB002800DB4F
:105560002EB900222946A0B2FDF784FD04E00122F5
:10557000311DA0B2FDF77EFD70BD00003431333027
:1055800000000000000000005245424F4F54000050
:10559000000000000000000000000000000000000B
:1055A00000000000000000000000000000000000FB
:1055B00000000000000000000000000000000000EB
:1055C000000000000000000041545A0D00000000DF
:1055D00000000000000000000000000000000000CB
:1055E00000000000000000000100000004000000B6
:1055F000C8000000000000000000000000000000E3
:105600004543484F204F4646000000000000000080
:10561000000000000000000000000000000000008A
:10562000000000000000000000000000000000007A
:10563000000000000000000000000000000000006A
:10564000415445300D000000000000000000000043
:10565000000000000000000000000000000000004A
:105660000100000004000000C8000000000000006D
:1056700000000000000000004543484F204F4E004E
:10568000000000000000000000000000000000001A
:10569000000000000000000000000000000000000A
:1056A00000000000000000000000000000000000FA
:1056B0000000000000000000415445310D000000D2
:1056C00000000000000000000000000000000000DA
:1056D00000000000000000000100000004000000C5
:1056E000C8000000000000000000000000000000F2
:1056F0004D454D4F5259204F4646000000000000D6
:105700000000000000000000000000000000000099
:105710000000000000000000000000000000000089
:105720000000000000000000000000000000000079
:1057300041544D300D00000000000000000000004A
:105740000000000000000000000000000000000059
:105750000100000004000000C8000000000000007C
:1057600000000000000000004C494E4546454544FD
:10577000204F46460000000000000000000000002E
:105780000000000000000000000000000000000019
:105790000000000000000000000000000000000009
:1057A000000000000000000041544C300D000000DB
:1057B00000000000000000000000000000000000E9
:1057C00000000000000000000100000004000000D4
:1057D000C800000000000000000000000000000001
:1057E0005052494E5420535041434553204F464652
:1057F00000000000000000000000000000000000A9
:105800000000000000000000000000000000000098
:105810000000000000000000000000000000000088
:10582000415453300D000000000000000000000053
:105830000000000000000000000000000000000068
:105840000100000004000000C8000000000000008B
:10585000000000000000000044455649434520492F
:1058600044310000000000000000000000000000C3
:105870000000000000000000000000000000000028
:105880000000000000000000000000000000000018
:105890000000000000000000415440310D000000F5
:1058A00000000000000000000000000000000000F8
:1058B00000000000000000000100000004000000E3
:1058C000C80000000000000000000000C53600080D
:1058D0004445564943452049443200000000000039
:1058E00000000000000000000000000000000000B8
:1058F00000000000000000000000000000000000A8
:105900000000000000000000000000000000000097
:10591000415440320D000000000000000000000073
:105920000000000000000000000000000000000077
:105930000100000004000000C8000000000000009A
:105940000000000000000000454C4D333237204974
:105950004E464F0000000000000000000000000064
:105960000000000000000000000000000000000037
:105970000000000000000000000000000000000027
:1059800000000000000000004154490D000000002C
:105990000000000000000000000000000000000007
:1059A00000000000000000000100000004000000F2
:1059B000C80000000000000000000000000000001F
:1059C00053544E3131313020494E464F00000000D3
:1059D00000000000000000000000000000000000C7
:1059E00000000000000000000000000000000000B7
:1059F00000000000000000000000000000000000A7
:105A00005354490D00000000000000000000000099
:105A10000000000000000000000000000000000086
:105A20000100000004000000C800000000000000A9
:105A300000000000000000003F3F3F3F3F3F0000EC
:105A40000000000000000000000000000000000056
:105A50000000000000000000000000000000000046
:105A60000000000000000000000000000000000036
:105A7000000000000000000041545050203045203C
:105A80004F46460D0000000000000000000000002E
:105A90000000000000000000010000000400000001
:105AA000C80000000000000000000000000000002E
:105AB0003F3F3F3F3F3F000000000000000000006C
:105AC00000000000000000000000000000000000D6
:105AD00000000000000000000000000000000000C6
