:020000040800F2
:10000000C03E002045010008850E0008250E0008AE
:10001000590E000865020008D52100080000000004
:10002000000000000000000000000000C5150008EE
:10003000590100080000000021110008BD16000849
:100040005F0100085F0100085F010008111500084A
:100050005F0100085F01000875050008FD05000844
:100060005F010008250600085F0100085F01000825
:100070005F0100085F0100085F0100085F010008E0
:100080005F0100085F0100085F0100085F010008D0
:10009000D52000085F0100085F0100085D06000828
:1000A0005F0100085F0100085F0100085F010008B0
:1000B00021170008491700085F0100085F010008C8
:1000C0005F0100085F0100085F0100085F01000890
:1000D0005F010008851A0008011B0008A51B000825
:1000E000A1050008511400085F0100085F01000825
:1000F0005F0100085F0100085F0100085F01000860
:100100005F0100085F0100085F0100085F0100084F
:10011000811900081D1A00085F0100085F0100082E
:100120005F0100085F0100085F0100085F0100082F
:10013000DFF80CD000F04CF80048004765340008A8
:10014000C03E00200648804706480047FEE7FEE71D
:10015000FEE7FEE7FEE7FEE7FEE7FEE7FEE7FEE777
:10016000C1160008310100082DE9F05F05460020A6
:1001700092469B4688460646814640241DE0284616
:1001800041464746224600F044F8B0EB0A0052468A
:100190005B4671EB0B0110D310461946224600F066
:1001A00029F82D1A67EB01084F462246012000214D
:1001B00000F020F817EB00094E41201EA4F10104C5
:1001C000DDDC484631462A464346BDE8F09F000044
:1001D000064C074D06E0E06840F0010394E8070094
:1001E00098471034AC42F6D3FFF7A6FF0436000858
:1001F00024360008202A04DB203A00FA02F100200D
:1002000070479140C2F1200320FA03F31943904054
:100210007047202A04DB203A21FA02F000217047BF
:1002200021FA02F3D040C2F120029140084319465E
:10023000704710B5012000F0A9FF002000F0A6FFD4
:1002400010BD000001460022014A0A441088704790
:10025000006C00400022024A024411607047000016
:10026000006C00400AE006A001F0CAFF72B671B649
:100270004FF4FA6002F022FA00F036FFF3E70000D4
:100280000D0A4552524F525F4255530D0A0000006D
:10029000B1F5007F3AD00FDC202928D006DC0129F7
:1002A0001CD004291DD0082940D11DE0402921D0AF
:1002B000B1F5807F3AD126E0B1F5004F31D006DCB0
:1002C000B1F5806F25D0B1F5006F2FD124E0B1F5E5
:1002D000803F12D0B1F5003F28D111E0154A82606D
:1002E00025E00822C26022E01022C2601FE008223E
:1002F00002611CE01022026119E00822426016E04F
:100300001022426013E00422426010E004224260A6
:100310000DE0042242600AE0002282610422426071
:1003200005E0002282610422426000E000BF00BFBD
:10033000704700000101010021B9C26842F02002AB
:10034000C26003E0026942F02002026170470000CF
:1003500070B504460D4600266069284271D0B5F597
:10036000807F5CD010DC082D35D006DC012D20D03C
:10037000022D24D0042D77D127E0102D31D0202D4F
:1003800035D0402D70D138E0B5F5004F60D009DC94
:10039000B5F5007F49D0B5F5806F4CD0B5F5006F4D
:1003A00062D14FE0B5F5803F2DD0B5F5003F5BD170
:1003B0002FE0A0682F4900F0D4F8064656E0E06828
:1003C000032100F0CEF8064650E0E068082100F076
:1003D000C8F806464AE0E068102100F0C2F8064678
:1003E00044E02069032100F0BCF806463EE02069A5
:1003F000082100F0B6F8064638E02069102100F028
:10040000B0F8064632E06068082100F0AAF8064617
:100410002CE06068102100F0A4F8064626E0A069F0
:10042000012100F09EF8064620E0A069022100F0BC
:1004300098F806461AE0A069042100F092F80646F2
:1004400014E014E0A069702100F08BF806460DE07E
:10045000A069772100F085F806466068042100F065
:1004600080F8064302E0FFE7002600BF00E0002618
:10047000304670BD0101010030B504460D461346FB
:1004800004F5D87000EB0510006800F00400187245
:10049000187A50B904F5D87000EB0510006840F2E6
:1004A000FF7101EA5050186009E004F5D87000EBC4
:1004B000051000686FF0604101EAD000586004F553
:1004C000D87000EB0510006800F00200587204F5C7
:1004D000D87000EB0510406800F00F00987204F52A
:1004E000D87000EB05104068000AD87404F5D87085
:1004F00000EB05108068D87204F5D87000EB051089
:100500008068000A187304F5D87000EB0510806845
:10051000000C587304F5D87000EB05108068000ECD
:10052000987304F5D87000EB0510C068D87304F513
:10053000D87000EB0510C068000A187404F5D87074
:1005400000EB0510C068000C587404F5D87000EB7F
:100550000510C068000E987429462046FFF7ECFE8F
:1005600030BD024600200A4201D0012000E00020F8
:100570007047000010B5C82002F0A0F8012000F07C
:10058000EBF828B1012000F075F802A001F038FE68
:1005900010BD00000D0A6B6579300D0A00000000E7
:1005A00010B50AA001F02CFE4FF4006000F0D4F862
:1005B00058B14FF4006000F05DF807A001F020FE94
:1005C0000D480068401C0C49086010BD0D0A746598
:1005D00073740D0A000000000D0ABDF8C8EB43411A
:1005E0004ED7B4CCACB1E4BBAFD6D0B6CFA3A1A3A9
:1005F000A1A3A10D0A0000002800002010B50220D0
:1006000000F0AAF828B1022000F034F801A001F0AF
:10061000F7FD10BD0D0ABDF8C8EBD6D0B6CF310D31
:100620000A00000010B5082000F096F828B1082054
:1006300000F020F801A001F0E3FD10BD0D0ABDF8A7
:10064000C8EBC0B6D1C0D7B4CCACB1E4BBAFD6D048
:10065000B6CFA3A1A3A1A3A10D0A000010B54FF42A
:10066000807000F079F818B14FF4807000F002F853
:1006700010BD0000014908607047000014040140EB
:100680001CB54FF40030FFF7F5FF4FF40030009039
:1006900000208DF8040008208DF8050001208DF859
:1006A0000600684600F06EF80021084600F0C2FA25
:1006B0000120FFF7DFFF0120009000208DF80400EB
:1006C0000C208DF8050001208DF80600684600F02A
:1006D00059F80121002000F0ADFA0220FFF7CAFF0F
:1006E0000220009000208DF804000C208DF80500F9
:1006F00001208DF80600684600F044F8032104202C
:1007000000F098FA0820FFF7B5FF082000900020BD
:100710008DF8040010208DF8050001208DF80600EA
:10072000684600F02FF80B21002000F083FA4FF408
:100730000060FFF79FFF4FF40060009000208DF8ED
:10074000040010208DF8050001208DF80600684691
:1007500000F018F81CBD0000014600200022074BE5
:100760001B6803EA0102064BD3F814340B4202D093
:100770000AB1012000E000207047000000040140A1
:1007800000000140002127498279DAB3264AD2F8D5
:10079000002403689A43244BC3F800241A46D2F875
:1007A000042403689A4301F104031A600279114496
:1007B0000A68036842EA03020A601B4AD2F8082466
:1007C000036822EA0302184BC3F808241A46D2F839
:1007D0000C24036822EA0302144B1A604279102A9F
:1007E00011D1114AD2F8082403681A430E4BC3F8FA
:1007F00008241A46D2F80C2403681A430A4BC3F89B
:100800000C240EE007E00749427911440A680368A6
:100810001A430A6005E0027911440A6803689A43A2
:100820000A60704700040140000001400C040140D0
:100830000549096821F01001034A11601146096851
:100840000143116070470000002002400146002073
:10085000034A106800F03800084310607047000039
:100860000020024008B5012144F27D0000F07EFC2A
:100870000121EC4800F06AFC4FF6FF70ADF8000073
:1008800000208DF8030003208DF802004FF4007063
:10089000ADF8000018208DF8030003208DF8020049
:1008A0006946E14800F0E6F94FF48060ADF80000D9
:1008B00004208DF803006946DB4800F0DBF90420D2
:1008C000ADF8000018208DF8030003208DF8020019
:1008D0006946D54800F0CEF90820ADF800000420A4
:1008E0008DF803006946D04800F0C4F94FF4006069
:1008F000ADF8000004208DF803006946CB4800F0F5
:10090000B9F94FF48060ADF8000018208DF80300AD
:1009100003208DF802006946C54800F0ABF94FF49A
:100920000060ADF8000004208DF8030003208DF86E
:1009300002006946BE4800F09DF94FF48060ADF8B2
:10094000000018208DF8030003208DF8020069468E
:10095000B64800F08FF94FF40060ADF800000420B5
:100960008DF8030003208DF802006946AF4800F0BF
:1009700081F903208DF802004FF40060ADF800000B
:1009800048208DF803006946A74800F073F94FF43A
:100990008050ADF8000018208DF803006946A24889
:1009A00000F068F90820ADF8000010208DF8030071
:1009B00003208DF8020069469C4800F05BF9002294
:1009C00008219A4800F028FA1020ADF800008DF8B0
:1009D000030003208DF802006946944800F04AF9AC
:1009E00000221021914800F017FA2020ADF80000F5
:1009F00010208DF8030003208DF8020069468B4813
:100A000000F038F900222021884800F005FA012082
:100A1000ADF8000004208DF8030003208DF80200DB
:100A20006946814800F026F90120ADF80000482011
:100A30008DF8030003208DF8020069467C4800F021
:100A400019F94FF40050ADF8000010208DF80300A4
:100A500003208DF802006946744800F00BF901226A
:100A60005103724800F0D8F91020ADF800001420AE
:100A70008DF8030003208DF8020069466A4800F0F3
:100A8000F9F801221021684800F0C6F94020ADF8BD
:100A9000000010208DF8030003208DF80200694645
:100AA000614800F0E7F8002240215F4800F0B4F907
:100AB0000820ADF8000010208DF8030003208DF809
:100AC000020069465A4800F0D5F80022082158482B
:100AD00000F0A2F94FF48050ADF8000010208DF81E
:100AE000030003208DF802006946504800F0C2F868
:100AF00000224FF480514D4800F08EF94FF4004031
:100B0000ADF8000010208DF8030003208DF80200DE
:100B10006946464800F0AEF80122D103434800F090
:100B20007BF94FF48040ADF8000010208DF80300F1
:100B300003208DF8020069463C4800F09BF8012232
:100B400091033A4800F068F90220ADF80000102047
:100B50008DF8030003208DF802006946324800F04A
:100B600089F800220221304800F056F98020ADF8C3
:100B7000000048208DF8030003208DF8020069462C
:100B80002A4800F077F84020ADF8000010208DF8DA
:100B9000030003208DF802006946244800F06AF83B
:100BA00000224021214800F037F94FF48070ADF861
:100BB000000010208DF8030003208DF80200694624
:100BC0001A4800F057F800224FF48071174800F0DF
:100BD00023F94FF40070ADF8000010208DF80300E9
:100BE00003208DF802006946104800F043F8002207
:100BF0004FF400710D4800F00FF94FF40050ADF8BC
:100C0000000010208DF8030003208DF802006946D3
:100C1000074800F02FF800224FF40051044800F07C
:100C2000FBF808BD02001E1A00080140000C01403C
:100C30000010014030B500228B071C0F0F2303FA70
:100C400004F20B4B8C1053F824309343084C8D1056
:100C500044F8253023468C1053F824308C07240F99
:100C600000FA04F42343024C8D1044F8253030BDC3
:100C7000080001402DE9F041024600250026002031
:100C800000230024002791F803C00CF00F0591F811
:100C900003C01CF0100F03D091F802C04CEA050508
:100CA000B1F800C01CF0FF0F31D0146800202BE019
:100CB0004FF0010C0CFA00F3B1F800C00CEA030687
:100CC0009E4220D183004FF00F0C0CFA03F7BC4377
:100CD00005FA03FC4CEA040491F803C0BCF1280FA8
:100CE00006D14FF0010C0CFA00FCC2F814C00AE067
:100CF00091F803C0BCF1480F05D14FF0010C0CFA7C
:100D000000FCC2F810C0401C0828D1D31460B1F810
:100D100000C0BCF1FF0F34DD546800202EE000F16C
:100D2000080C4FF0010808FA0CF3B1F800C00CEA07
:100D300003069E4221D183004FF00F0C0CFA03F7FB
:100D4000BC4305FA03FC4CEA040491F803C0BCF16F
:100D5000280F05D100F1080C08FA0CF8C2F814802D
:100D600091F803C0BCF1480F07D100F1080C4FF017
:100D7000010808FA0CF8C2F81080401C0828CED3ED
:100D80005460BDE8F0810000F0B50A46002300245D
:100D90000021002500F00046B6F1004F02D11D4EA3
:100DA000F16901E01B4E7168C0F3034583B200F4A2
:100DB0004016B6F5401F08D121F07061154E7668D7
:100DC00026F07066134F7E6012E000F48016B6F5D0
:100DD000801F06D1032606FA05F4A14341F0706195
:100DE00006E0460D360103FA06F6B14341F07061A4
:100DF00022B1460D360103FA06F6314300F00046F3
:100E0000B6F1004F02D1034EF16101E0014E716075
:100E1000F0BD0000000001400AB1016100E0416145
:100E2000704700000AE006A001F0EAF972B671B658
:100E30004FF4FA6001F042FC00F056F9F3E70000CD
:100E40000D0A4552524F525F484152445F46415548
:100E50004C540D0A000000000AE006A001F0D0F991
:100E600072B671B64FF4FA6001F028FC00F03CF95C
:100E7000F3E700000D0A4552524F525F4D454D0DAC
:100E80000A00000005A001F0BBF972B671B64FF47C
:100E9000FA6001F013FC00F027F900000D0A45523A
:100EA000524F525F4E4D490D0A00000008B54FF4F5
:100EB000E06000F00FF925208DF8000002208DF889
:100EC000010000208DF8020001208DF80300684623
:100ED00000F0BEF84FF4E06000F0FCF826208DF83A
:100EE000000000208DF801008DF8020001208DF82F
:100EF0000300684600F0ACF84FF4E06000F0EAF858
:100F000027208DF8000001208DF8010000208DF8C9
:100F1000020001208DF80300684600F099F84FF4B4
:100F2000E06000F0D7F834208DF8000001208DF843
:100F3000010000208DF8020001208DF803006846B2
:100F400000F086F84FF4E06000F0C4F835208DF82A
:100F5000000001208DF8010000208DF80200012022
:100F60008DF80300684600F073F84FF4C06000F09D
:100F7000B1F829208DF8000000208DF801008DF8CF
:100F800002008DF80300684600F062F84FF4C0607C
:100F900000F0A0F806208DF8000000208DF8010078
:100FA0008DF802008DF80300684600F051F84FF408
:100FB000C06000F08FF828208DF8000000208DF828
:100FC00001008DF802008DF80300684600F040F83B
:100FD0004FF4C06000F07EF809208DF8000000207A
:100FE0008DF801008DF802008DF80300684600F0CE
:100FF0002FF84FF4A06000F06DF81D208DF8000070
:1010000000208DF801008DF8020001208DF803000A
:10101000684600F01DF814208DF8000000208DF8BF
:1010200001008DF8020001208DF80300684600F0F1
:101030000FF828208DF8000000208DF801008DF8B1
:10104000020001208DF80300684600F001F808BD99
:1010500070B5002100230F22C4784CB31A4C2468C9
:1010600004F4E064C4F5E0644FEA1421C1F1040320
:1010700022FA01F2447804FA03F1847804EA0204C3
:1010800044EA01014FEA0111104C0678A155047899
:1010900004F01F054FF0010404FA05F405784FEA47
:1010A00065154FF0E02606EB8505C5F8004109E01F
:1010B000047804F01F050124AC40054D0678761134
:1010C00045F8264070BD00000CED00E000E400E0B3
:1010D00080E100E002490143024A116070470000CC
:1010E0000000FA050CED00E00848006800F4E0603C
:1010F000074940EA010000F104004FF0E021C1F887
:101100000C0DBFF3408F00BFFEE700000CED00E0C8
:101110000000FA05014908627047000000000E4215
:1011200005A001F06DF872B671B64FF4FA6001F0E7
:10113000C5FAFFF7D9FF00000D0A4552524F525F22
:1011400050454E4453560D0A0000000029B1064A8E
:10115000D2690243044BDA6104E0034AD269824354
:10116000014BDA61704700000010024029B1064AC5
:1011700092690243044B9A6104E0034A92698243F4
:10118000014B9A617047000000100240014908605D
:1011900070470000400442420348406A40F08070BB
:1011A00001494862704700000010024010B500F08D
:1011B0003BF8012000F0FAF800BF212000F0C4F84D
:1011C0000028FAD01020FFF733FB0220FFF73EFB88
:1011D000002000F0DFF8002000F000F9002000F00F
:1011E000F1F84FF46011002000F00AF9012000F03E
:1011F00001F900BF392000F0A7F80028FAD002203A
:1012000000F01AF900BF00F0BDF80828FBD1012159
:1012100044F27D00FFF7AAFF01210248FFF796FF85
:1012200010BD000002001E1A0F48006840F00100C7
:101230000D490860084640680C4908400A49486062
:10124000084600680A4908400749086008460068DF
:1012500020F4802008600846406820F4FE004860C2
:101260004FF41F0088607047001002400000FFF834
:10127000FFFFF6FE30B500210022002400232D4D93
:101280006D6805F00C0121B1042905D0082923D18E
:1012900005E0294D056022E0274D05601FE0254D42
:1012A0006D6805F47012234D6D6805F480340225D5
:1012B00005EB92421CB9214D554305600BE01D4DD5
:1012C0006D6815F4003F03D01C4D5543056002E0E6
:1012D000194D5543056002E0174D056000BF00BF82
:1012E000144D6D6805F0F0010909154D6B5C05683A
:1012F000DD4045600F4D6D6805F4E061090A104D51
:101300006B5C4568DD4085600A4D6D6805F4605191
:10131000C90A0B4D6B5C4568DD40C560054D6D68C5
:1013200005F44041890B074D6B5CC568B5FBF3F5CF
:10133000056130BD0010024000127A0000093D0036
:10134000480000205800002010B50146002200236C
:1013500000204A11012A02D1094C236806E0022A22
:1013600002D1074C236A01E0054C636A01F01F02B9
:10137000012494401C4201D0012000E0002010BD57
:10138000001002400248406800F00C007047000066
:101390000010024001460020034A506820F0F0008F
:1013A0000843506070470000001002400149086087
:1013B0007047000000004242014908607047000089
:1013C0008004424201460020034A506820F4E06055
:1013D00008435060704700000010024001460020A2
:1013E000034A506820F4605040EAC10050607047E2
:1013F00000100240014908667047000000004242A8
:1014000002460020044B586820F47C1042EA010395
:101410001843014B586070470010024001490860B2
:10142000704700003C0442420249096A0143014AF4
:10143000116270470010024001460020034A5068C4
:1014400020F0030008435060704700000010024085
:1014500010B5022000F046F850B14FF40030FFF70D
:1014600009F900F091F8022000F004F800F08CF87F
:1014700010BD0000054909886FEA000292B201EA36
:101480000201034AA2F80418704700000428004033
:10149000002000400348008840F010000249A1F8F5
:1014A00004087047042800400020004004480088D9
:1014B0004FF6EF7100EA01000249A1F804087047F5
:1014C000042800400020004000210448018804480E
:1014D000B0F8180841EA0040704700001C2800409E
:1014E0000020004001460020074A128802EA01025B
:1014F000D0B2064AB2F800280A4202D008B1012050
:1015000000E0002070470000042800400020004058
:1015100010B50120FFF7E6FF70B10120FFF7AAFF29
:1015200000F032F8FFF7D0FF0449884204D10020D0
:1015300000F006F800F028F810BD0000805101000E
:1015400000B50246FFF7A6FF100C044908800449C5
:10155000A1F81C28FFF7AAFF00BD000018280040D2
:101560000020004000B50246FFF794FFC2F303409D
:10157000034908800349A1F80C28FFF797FF00BD35
:10158000082800400020004000BF0348008810F0F9
:10159000200FFAD070470000042800400748008858
:1015A0004FF6F77100EA01000549A1F8040800BFF1
:1015B0000248008810F0080FFAD070470428004055
:1015C0000020004005A000F01BFE72B671B64FF47B
:1015D000FA6001F073F8FFF787FD00000D0A45522D
:1015E000524F525F5356430D0A00000010B500F0F1
:1015F00001F810BD002100202E4A126842F480320A
:101600002C4B1A6000BF2B4A126802F40030491CB0
:1016100010B9B1F5A06FF6D1264A126812F4003F56
:1016200001D0012000E00020012842D1224A1268A6
:1016300042F01002204B1A601A46126822F0030290
:101640001A601A46126842F002021A60194A526879
:10165000184B5A601A4652685A601A46526842F449
:1016600080625A601A46526822F47C125A601A4606
:10167000526842F4E8125A601A46126842F08072C8
:101680001A6000BF0B4A126812F0007FFAD0094AB4
:10169000526822F00302074B5A601A46526842F021
:1016A00002025A6000BF034A526802F00C02082A84
:1016B000F9D170470010024000200240704700003E
:1016C00010B51348006840F0010011490860084651
:1016D0004068104908400E494860084600680E49B5
:1016E00008400B4908600846006820F48020086024
:1016F0000846406820F4FE0048604FF41F008860F0
:10170000FFF774FF4FF000600449086010BD00004F
:10171000001002400000FFF8FFFFF6FE08ED00E0B9
:1017200010B50121880700F0BBF860B101218807DE
:1017300000F080F800214FF0804000F07EF800209B
:101740004FF08041888410BD10B50121224800F07F
:10175000A7F8B8B30121204800F06CF81F480068D2
:10176000401C1E49086008460068142808D11CA0C7
:1017700000F046FD012000F0AEFF00201D4908608A
:1017800016480068192812D11B480068022801DD9C
:10179000012000E00020184908600846016817A0F1
:1017A00000F02EFD00200D4908601249086019481C
:1017B000006840B9012210211748FFF72DFB0120D6
:1017C0001449086007E0002210211348FFF724FBAA
:1017D00000201049086010BD0004004044000020B3
:1017E0000D0A656E61626C652063616E20657874B8
:1017F000690D0A00280000202C0000200D0A444535
:10180000564943452053544154452D2D2D3E2564C2
:10181000200D0A0040000020000C014021B1028888
:1018200042F08002028004E002884FF67F731A4083
:1018300002807047CA430282704721B1028842F099
:101840000102028004E002884FF6FE731A40028013
:10185000704700000EB542F21070ADF804004FF46E
:10186000E150ADF800000020ADF80600ADF8020030
:1018700069460A4800F032F801210848FFF7CEFF18
:1018800001210648FFF7D6FF01221146034800F068
:1018900018F801210148FFF7D0FF0EBD00040040F9
:1018A00030B50246002000230024158A05EA010312
:1018B000958905EA010413B10CB1012000E0002074
:1018C00030BD10B51AB183890B43838104E083894D
:1018D000CC43A4B22340838110BD000000220288C3
:1018E0001D4B98420ED01D4B98420BD0B0F1804F4B
:1018F00008D01B4B984205D01A4B984202D01A4B85
:10190000984204D14FF68F731A404B881A43174BF5
:10191000984207D0164B984204D04FF6FF431A4026
:10192000CB881A4302808B8883850B8803850A4BFA
:1019300098420BD0094B984208D00E4B984205D0E4
:101940000D4B984202D00D4B984201D10B7A038681
:101950000123838270470000002C014000340140C5
:101960000004004000080040000C0040001000404F
:101970000014004000400140004401400048014084
:1019800010B508211E4800F0D3FA30B108211C48D8
:1019900000F064F91A4800F093FB40F22551184812
:1019A00000F0D3FA30B3164800F08AFBC4B21548F1
:1019B00001680068401C134A10601348445400201A
:1019C0001149126888540F480068B0F5967F02D913
:1019D00000200C4908600D480068042803D1214606
:1019E0000B4800F072FB0B48006818B121460A480A
:1019F00000F06BFB2021024800F030F910BD000020
:101A0000004C00400C000020F00B002014000020CF
:101A100000380140200000200048004010B5082197
:101A2000154800F085FA30B10821134800F016F986
:101A3000114800F045FB40F225510F4800F085FAAF
:101A4000A8B10D4800F03CFBC4B2204600F070FE87
:101A50000A48006805280AD12146094800F035FBEC
:101A600000BF4021064800F063FA0028F9D0202189
:101A7000014800F0F3F810BD0050004014000020B1
:101A80000038014010B50821194800F051FA30B172
:101A90000821174800F0E2F8154800F011FB40F269
:101AA0002551134800F051FAE0B1114800F008FB4D
:101AB00010490870084601780F4802680068401C09
:101AC0000D4B18600D48815400200C491A461268CD
:101AD00088541846006840F21451884202D9002008
:101AE000194608602021024800F0B8F810BD000037
:101AF000003801403C000020000000209C00002035
:101B000010B50821214800F013FA30B108211F4810
:101B100000F0A4F81D4800F0D3FA40F225511B480C
:101B200000F013FA80B3194800F0CAFA1849087097
:101B30001848006802280BD108460178164800F0C2
:101B4000C4FA00BF4021144800F0F2F90028F9D08F
:101B50000F480178114802680068401C0F4B18605C
:101B60000F48815400200E491A46126888541846BE
:101B7000006840F21451884202D9002019460860DA
:101B80002021024800F06AF810BD00000044004027
:101B90003D00002014000020003801400400002017
:101BA000B005002010B50821254800F0C1F930B17A
:101BB0000821234800F052F8214800F081FA40F251
:101BC00025511F4800F0C1F9A0B31D4800F078FA74
:101BD000C4B21C48006803280AD121461A4800F004
:101BE00074FA00BF4021184800F0A2F90028F9D08B
:101BF000164801680068401C144A10601448445498
:101C0000002013491268885410480068B0F5967F88
:101C100002D900200D4908600E48006850B12146E5
:101C20000D4800F052FA00BF4021074800F080F94B
:101C30000028F9D02021024800F010F810BD000063
:101C40000048004014000020003801400800002037
:101C5000C40A002020000020004C004001F4007263
:101C6000B2F5007F00D100BFCA430280704721B1A6
:101C7000828942F40052828104E082894DF6FF732A
:101C80001A4082817047000000B585B0012144F2FE
:101C90000400FFF76BFA4FF40070ADF81000182045
:101CA0008DF8130003208DF8120004A99748FEF761
:101CB000E1FF4FF48060ADF8100004208DF81300B0
:101CC00003208DF8120004A99048FEF7D3FF4FF4CB
:101CD000E13000900020ADF80400ADF80600ADF84A
:101CE0000800ADF80C000C20ADF80A0069468848E1
:101CF00000F07AF9012240F22551854800F04FF9B1
:101D000001218348FFF7B3FF01214804FFF71EFAC2
:101D100001210420FFF72AFA0420ADF81000182052
:101D20008DF8130003208DF8120004A97748FEF700
:101D3000A1FF0820ADF8100004208DF81300032047
:101D40008DF8120004A97148FEF794FF4FF4E130BA
:101D500000900020ADF80400ADF80600ADF80800D2
:101D6000ADF80C000C20ADF80A006946694800F097
:101D70003BF9012240F22551664800F010F901219B
:101D80006448FFF774FF01218804FFF7DFF90121A0
:101D90000820FFF7EBF94FF48060ADF81000182031
:101DA0008DF8130003208DF8120004A95A48FEF79D
:101DB00061FF4FF40060ADF8100028208DF813008B
:101DC00003208DF8120004A95348FEF753FF4FF487
:101DD000164000900020ADF80400ADF80600ADF804
:101DE0000800ADF80C000C20ADF80A0069464B481D
:101DF00000F0FAF8012240F22551484800F0CFF8EF
:101E000001214648FFF733FF0121C804FFF79EF97F
:101E100001211020FFF7AAF94FF48060ADF81000FF
:101E200018208DF8130003208DF8120004A93C48F7
:101E3000FEF720FF4FF40060ADF8100004208DF88D
:101E4000130003208DF8120004A93548FEF712FF95
:101E50004FF4164000900020ADF80400ADF80600E5
:101E6000ADF80800ADF80C000C20ADF80A0069468A
:101E70002C4800F0B9F8012240F22551294800F021
:101E80008EF801212748FFF7F2FE01210805FFF730
:101E90005DF901213020FFF769F94FF48050ADF86A
:101EA000100018208DF8130003208DF8120004A9EB
:101EB0001B48FEF7DFFE0420ADF810008DF813007C
:101EC00003208DF8120004A91748FEF7D3FE4FF443
:101ED000165000900020ADF80400ADF80600ADF8F3
:101EE0000800ADF80C000C20ADF80A0069460F4858
:101EF00000F07AF8012240F225510C4800F04FF82A
:101F000001210A48FFF7B3FE05B000BD00080140FB
:101F10000038014000440040000C014000480040EF
:101F200000100140004C00400014014000500040EF
:101F300002460020B1F5007F00D100BF13880B429C
:101F400001D0012000E00020704770B50246002457
:101F5000002300250020A1F510666A3E00D100BFD5
:101F6000C1F3421501F01F03012606FA03F3012D08
:101F700002D19689334006E0022D02D1168A334001
:101F800001E0968A33400C12012606FA04F4168802
:101F9000344013B10CB1012000E0002070BDF0B559
:101FA00003460024002600250020A1F510676A3FA3
:101FB00000D100BF1846C1F3421401F01F060127EB
:101FC00007FA06F5012C01D10C3004E0022C01D1F6
:101FD000103000E014301AB107682F43076002E0A8
:101FE0000768AF430760F0BD2DE9F04786B00546AE
:101FF0000E460024A24600BFA1460027B08900B1CA
:1020000000BF2F462C8A4CF6FF700440F088044332
:102010002C82AC894EF6F3100440B0883189084315
:10202000718908430443AC81AC8A4FF6FF400440F9
:10203000B0890443AC8201A8FFF71CF91F4887420E
:1020400002D1DDF810A001E0DDF80CA0A88910F4A1
:10205000004F08D00AEBCA0000EB0A1031684900B3
:10206000B0FBF1F807E00AEBCA0000EB0A10316898
:102070008900B0FBF1F86420B8FBF0F004012009FE
:10208000642101FB1089A88910F4004F08D0322088
:1020900000EBC900B0FBF1F000F00700044308E0DA
:1020A000322000EB09106421B0FBF1F000F00F00CA
:1020B00004432C8106B0BDE8F087000000380140E1
:1020C00001468888C0F308007047C1F30802828087
:1020D0007047000000B585B0002201212848FEF7B6
:1020E0009BFE08212748FEF733F960B126A000F0D7
:1020F00087F86A4600212348FEF7BEF908212148E7
:10210000FEF7C6F800BF40211E48FEF721F960B176
:1021100022A000F075F86A4601211A48FEF7ACF9D2
:1021200040211848FEF7B4F800BF02211548FEF719
:102130000FF960B16A4600211248FEF79DF91CA014
:1021400000F05EF802210F48FEF7A2F800BF102150
:102150000C48FEF7FDF860B119A000F051F86A468E
:1021600001210848FEF788F910210648FEF790F88B
:1021700000BF012211460248FEF74EFE05B000BD29
:10218000000C0140006400400D0A43414E2065727E
:10219000726F723121210D0A000000000D0A4341C7
:1021A0004E206572726F723221210D0A000000000C
:1021B0000D0A43414E206F6B21210D0A00000000E3
:1021C0000D0A43414E206572726F723321210D0A50
:1021D000000000000AE006A000F012F872B671B626
:1021E0004FF4FA6000F06AFAFEF77EFFF3E70000B2
:1021F0000D0A4552524F525F55534147450D0A0053
:102200000FB4054B10B503A9044A029800F018F862
:1022100010BC5DF814FB00000D270008980000209A
:1022200002E008C8121F08C1002AFAD1704770479F
:10223000002001E001C1121F002AFBD170470000FD
:102240002DE9FF4F8DB005460F460026EEE125280B
:1022500079D100246D1CF94AA246A14601212B78B0
:10226000203B01FA03F0104202D004436D1CF6E754
:1022700028782A2810D06FF02F022878A0F130019A
:10228000092915D80AEB8A0102EB410144F0020446
:1022900000EB010A6D1CF0E757F804ABBAF1000F30
:1022A00003DA44F40054CAF1000A44F002046D1C3D
:1022B00028782E2817D115F8010F44F004042A2895
:1022C0000ED06FF02F022878A0F1300109290AD82A
:1022D00009EB890102EB410100EB01096D1CF2E7FA
:1022E00057F8049B6D1C28786C280FD006DC4C280E
:1022F00017D068280DD06A2814D104E0742810D0B3
:102300007A280FD10DE044F400140AE044F480145C
:1023100001E044F440146978814202D16D1C04F557
:1023200080146D1C95F800C0BCF16E0F2AD012DC31
:10233000BCF1630F3CD007DCBCF1000F76D0BCF1E0
:10234000580F19D1ACE018E0BCF1640F6FD0BCF1AC
:10235000690F11D16BE0BCF1730F32D006DCBCF118
:102360006F0F71D0BCF1700F06D19BE0BCF1750FFF
:102370006BD0BCF1780F69D06046DDE90F12904751
:10238000761C52E1C4F30250022806D003280AD07A
:10239000042801CF0AD0066047E101CF4FEAE67179
:1023A000C0E9006141E101CF06803EE106703CE1F9
:1023B00001CF8DF8000000208DF80100EB460120D0
:1023C00003E057F804BB4FF0FF3061074FF0000106
:1023D00002D40DE008F10101884649450FDA804535
:1023E000F8DB1BF808100029F4D108E008F101011E
:1023F00088468142FADB1BF808100029F6D1DDE996
:102400000F23AAEB08008146214600F040F9304432
:1024100000EB080604E0DDE90F121BF8010B904702
:10242000B8F10108F7D221464846F9E002E10A2056
:10243000C4F302524FF0000B0890022A07D001CFDC
:10244000C117032A09D00AE035E022E023E0FF1D8E
:1024500027F00707F7E8020105E000B2C117042AD8
:1024600001D140B2C117002906DA0023D0EB0300E6
:1024700063EB01012D2202E0220504D52B228DF809
:102480002420012203E0E20701D02022F7E7904652
:1024900053E00A2110E010204FF0000B08900EE0EE
:1024A000102109E010214FF0000B44F004044FF01C
:1024B0000809089103E008214FF0000B0891C4F3CC
:1024C0000252022A04D001CF0021032A06D007E0DD
:1024D000FF1D27F00707F7E8020105E080B20021A1
:1024E000042A01D1C0B200214FF00008220724D5F0
:1024F000BCF1700F2AD0089B83F0100353EA0B0342
:1025000009D150EA010206D030228DF824208DF83E
:1025100025C002229046089B83F0080353EA0B0370
:102520000BD150EA010201D1620706D530228DF8A5
:1025300024204FF00108A9F1010941A2BCF1580F74
:1025400000D044A20B9208AA0A920FE040228DF814
:1025500024200122DEE75B46089AFDF705FE0B9B6F
:102560009B5C0A9AA2F101020A92137050EA0102DE
:10257000F1D10A98ADEB000000F1200B600702D505
:1025800024F4803401E04FF00109002049465A4606
:10259000D94501DDA1EB020000EB0B01414408909D
:1025A000AAEB01000B90E00306D4DDE90F232146DE
:1025B0000B9800F06CF806444FF000090DF1240A66
:1025C00007E0DDE90F121AF809009047761C09F1BF
:1025D0000109C145F5DBE0030CD5DDE90F232146F8
:1025E0000B9800F054F8064404E0DDE90F123020A7
:1025F0009047761C0899481E08900029F5DC08E0F1
:102600000A980A990078491C0A91DDE90F1290474F
:10261000761CBBF10001ABF1010BF1DC0B982146FC
:10262000DDE90F2300F020F806446D1C287800280F
:102630007FF40DAE11B03046BDE8F08F09280100DF
:1026400030313233343536373839414243444546E8
:1026500000000000303132333435363738396162AA
:1026600063646566000000002DE9F0410446002522
:1026700017461E46880405D406E039462020B04798
:1026800005F10105641EF8D52846BDE8F0812DE965
:10269000F04104460025302790461E46C80300D46A
:1026A0002027880405D506E041463846B04705F1A5
:1026B0000105641EF8D52846BDE8F081002107E039
:1026C000002200E0521C42F228339A42FAD3491CFD
:1026D0008142F5D3704738B504461CB900208DF807
:1026E000030002E001208DF803004FF4E060FEF7E4
:1026F000F1FC28208DF8000000208DF801008DF8F5
:1027000002006846FEF7A4FC38BD000070B5044620
:102710000D46E1B20548FFF7D8FC00BF8021034811
:10272000FFF706FC0028F9D0204670BD00380140B4
:10273000FA49097879B3FA490968062902D0FF29CC
:102740007ED12FE1F749C978472972D1F549097936
:1027500047296ED1F349497941296AD10121F24AC9
:1027600011600021F14A116009E07822F049EF4B35
:102770001B68CA54ED490968491CEC4A1160EB49D1
:1027800009680929F1DB7821E94A921ED1720021FA
:10279000E64A11600BE0F3E37822E5490A31E34BA6
:1027A0001B68CA54E1490968491CE04A1160DF49C5
:1027B00009680A29F0DB7821DD4A921E9175D175EE
:1027C0000021DA4A11600AE07822D9491631D74B44
:1027D0001B68CA54D5490968491CD44A1160D349B9
:1027E00009680229F0DB0021D04A11600AE0782252
:1027F000CF491831CD4B1B68CA54CC490968491CD4
:10280000CA4A1160C94909680429F0DB0021C74A96
:1028100011600AE00022C6491C31C44B1B68CA542F
:10282000C2490968491CC14A1160C04909680A299E
:10283000F0DBBC494979562928D10421BA4A00E085
:10284000FEE311600021B94A11601BE07822B9490A
:10285000B64B1B6801F82320B44B1B6801EB8301C6
:102860004A70B449B14B1B6801EB83018A70B149CE
:10287000AE4B1B6801EB8301CA70AC490968491C67
:10288000AA4A1160A94909680C29DFDBA5494979E1
:10289000432971D10821A44A11600021A34A116083
:1028A00009E07822A449A14B1B68CA549F490968D2
:1028B000491C9E4A11609D4909680A29F1DB78216B
:1028C0009D4A921E11730021984A11600AE07822F5
:1028D00099490B31954B1B68CA5494490968491CA6
:1028E000924A1160914909680929F0DB7821924ADE
:1028F000921E917500218D4A11600AE078228E495E
:1029000015318A4B1B68CA5488490968491C874A93
:102910001160864909680A29F0DB7821864A921EEF
:1029200082F821100021814A11600AE07822824950
:1029300020317E4B1B68CA547C490968491C7B4A7C
:1029400011607A4909680529F0DB0021774A116096
:102950000AE0782278492531744B1B68CA547349C0
:102960000968491C714A1160704909680529F0DB42
:1029700000216E4A11600BE00EE078226E492A3188
:102980006A4B1B68CA5469490968491C674A116047
:10299000664909680629F0DB2C2802D1FF21604A2C
:1029A0001160FEE360490968012904D004297ED042
:1029B00008297DD1EDE02A2802D02C2879D190E099
:1029C0000021564A11705A49891EC97D302971D09B
:1029D0005749891EC97E2E290FD15549891E097F65
:1029E0003039534A921E927E303A02EB820201EB5A
:1029F00042014F4A921E916220E04D49891E097F93
:102A00002E2916D14A49891E897E303964225143C4
:102A1000474A921ED27E303A02EB820201EB42021A
:102A20004349891E497F30391144414A921E9162BF
:102A300004E04FF47A713E4A921E91623C49891E2D
:102A4000896A3E4A926991424ADC0021374A116004
:102A50000CE03749354A1268895C384A334B1B68A9
:102A6000D15432490968491C304A11602F4909681C
:102A70000929EEDB00212D4A11600EE02C490A31B4
:102A80002A4A12688A5C2D490A31284B1B68CA54AD
:102A900026490968491C254A1160244909680A2900
:102AA000ECDB2349891EC97A244A517203E0B9E15B
:102AB000F6E320E014E01E49891E897D11751C494A
:102AC000891E097E11771A49891E4A7E1B494A7759
:102AD0001749891E896A194A91610121184A1160B2
:102AE00055E01349891E0978491C114A921E11703C
:102AF000002151704BE00E49891E097809293ED208
:102B0000DFE801F03D052023282B2E33380008494B
:102B1000891E4A78891C885432E000006C0000202D
:102B200068000020600000205C000020740000208D
:102B30001A1600204C160020E61500207C160020F6
:102B400078000020FF49C8721AE0FE494A780C312B
:102B5000885415E0FB49887512E0FA49C8750FE002
:102B6000F8494A78183188540AE0F6494A781A3107
:102B7000885400BFF3494A781E31885400E000BFF2
:102B800000BFF0494978491CEE4A517000BF00BFB0
:102B9000D6E32A2802D02C287DD1FEE00021EA4A83
:102BA0001170EA4A11600121E94A1160E949097B83
:102BB000412978D10021E84A11600DE0E5490D3145
:102BC000E54A12688A5CE549E34B1B68CA54E2494E
:102BD0000968491CE04A1160DF4909680929EDDBF1
:102BE0000021DD4A11600EE0DA491731DA4A126835
:102BF0008A5CDA490A31D84B1B68CA54D64909683D
:102C0000491CD54A1160D44909680A29ECDBD1492D
:102C1000897DD24A1E3A82F82710CE4991F82110B8
:102C200082F832100021CC4A11600EE0C9492231ED
:102C3000C94A12688A5CC9491731C74B1B68CA5414
:102C4000C5490968491CC44A1160C3490968052976
:102C5000ECDB0021C04A11600EE0BE492731BE4ABC
:102C600012688A5CBD491C31BB4B1B68CA54BA4907
:102C70000968491CB84A1160B74909680529ECDBA5
:102C8000B049097EB54A1E3A82F83310AD494A7EF2
:102C9000B2491E3901E088E005E081F834200121C5
:102CA000AF4A11607047AB49897D782974D0002103
:102CB000A94A11600DE0A7490D31A74A12688A5C44
:102CC000A649A54B1B68CA54A3490968491CA24AD6
:102CD0001160A14909680929EDDB00219E4A1160B4
:102CE0000EE09C4917319C4A12688A5C9B490A3164
:102CF000994B1B68CA5498490968491C964A116047
:102D0000954909680A29ECDB9249897D934A1E3A64
:102D100082F827108F4991F8211082F83210002193
:102D20008D4A11600EE08B4922318B4A12688A5C11
:102D30008A491731884B1B68CA5487490968491C5E
:102D4000854A1160844909680529ECDB0021824A23
:102D500011600EE07F4927317F4A12688A5C7F4903
:102D60001C317D4B1B68CA547B490968491C7A4A4F
:102D70001160794909680529ECDB7249097E774AB7
:102D80001E3A82F833106F494A7E74491E3981F821
:102D900034200121734A116042E06E490978491CD0
:102DA0006C4A1170002151703AE06A49097809298A
:102DB0002ED2DFE801F0050A0D12151A1E23280095
:102DC00064494A78891C885423E06249087320E0EA
:102DD00060494A780D3188541BE05E49887518E0D7
:102DE0005C494A781731885413E05A4981F8210028
:102DF0000FE058494A78223188540AE055494A7808
:102E00002731885405E053494A782C31885400E032
:102E100000BF00BF4F494978491C4E4A517000BF5E
:102E200000BF8DE22A2802D02C287ED1DFE10021CC
:102E3000454A11704C49C978312977D100214B4A54
:102E400011604B4A11604B4A11604B4A11604B4A6A
:102E50001160414A1160A2E0434908313E4A1268BC
:102E600001EB8201C97878296BD040490968491C77
:102E70003E4A11603C490831374A126801EB820131
:102E8000C9783039384A0832334B1B6802EB830269
:102E90009278303A02EB820201EB42010A2904DB0C
:102EA00033490968491C324A11602F4908312A4ABE
:102EB000126801EB8201C97830392B4A0832264B5F
:102EC0001B6802EB83029278303A02EB820201EB3C
:102ED0004201142904DB27490968491C254A11606D
:102EE000214908311C4A126801EB8201C978303946
:102EF0001D4A0832184B1B6802EB83029278303A65
:102F000002EB820201EB42011E2904DB1A49096827
:102F1000491C194A1160144908310F4A126801EB23
:102F20008201C9783039104A01E068E13DE0083299
:102F3000094B1B6802EB83029278303A02EB820263
:102F40001FE027E0181600206C0000206800002019
:102F500070000020E4150020740000209A16002064
:102F6000800000207C000020441600208400002007
:102F7000880000208C000020900000209400002099
:102F8000F2E101EB4201282904DBFF490968491CF1
:102F9000FD4A1160FD490968491CFC4A1160FB4962
:102FA00009680429FFF658AF20E1F949C9783229A8
:102FB0007ED10421F54A116083E0F5490831F34AD6
:102FC000126801EB8201C978782975D0F149096846
:102FD000491CF04A1160EE490831EC4A126801EBD5
:102FE0008201C9783039EA4A0832E84B1B6802EBA3
:102FF00083029278303A02EB820201EB42010A2905
:1030000004DBE5490968491CE34A1160E0490831DD
:10301000DE4A126801EB8201C9783039DC4A083295
:10302000DA4B1B6802EB83029278303A02EB8202A1
:1030300001EB4201142906DBD8490968491C00E06C
:1030400080E1D64A1160D2490831D04A126801EBBA
:103050008201C9783039CE4A0832CC4B1B6802EB6A
:1030600083029278303A02EB820201EB42011E2980
:1030700004DBCB490968491CC94A1160C4490831BD
:10308000C24A126801EB8201C9783039C04A08325D
:10309000BE4B1B6802EB83029278303A02EB82024D
:1030A00001EB4201282907DBB7490968491C01E007
:1030B0000DE001E0B44A1160B4490968491CB34A03
:1030C0001160B24909680829FFF677AF8EE0B04970
:1030D000C978332966D10821AC4A116081E0AC4936
:1030E0000831AA4A126801EB8201C978782973D0A5
:1030F000A8490968491CA74A1160A5490831A34A93
:10310000126801EB8201C9783039A14A08329F4B1D
:103110001B6802EB83029278303A02EB820201EBE9
:1031200042010A2904DB9C490968491C9A4A11603A
:1031300097490831954A126801EB8201C978303904
:10314000934A0832914B1B6802EB83029278303A23
:1031500002EB820201EB4201142904DB8F4909686A
:10316000491C8E4A11608A490831884A126801EB6D
:103170008201C9783039864A0832844B1B6802EBD9
:1031800083029278303A02EB820201EB42011E295F
:1031900004DB83490968491C814A11607C49083174
:1031A00001E0E0E022E0794A126801EB8201C9788F
:1031B0003039774A0832754B1B6802EB83029278EC
:1031C000303A02EB820201EB4201282904DB6E490E
:1031D0000968491C6C4A11606C490968491C6B4AB2
:1031E00011606A4909680C29FFF679AFA2E06849C5
:1031F0000978491C664A1170002151709AE06449AF
:103200000978132974D2DFE801F00A0D2A2B34352E
:1032100036404C4D4E5A656667747F8081005C492C
:10322000887080E05A49C870C978312903D10021DB
:10323000574A516012E05649C978322903D1042116
:10324000534A51600AE05249C978332903D1082111
:103250004F4A516002E008214D4A516063E062E04C
:103260004B494A68083101EB8201494A5278885437
:1032700059E058E057E046494A68083101EB8201BD
:10328000891C434A527888544DE041494968491C99
:103290003F4A083202EB8101083A5278885442E0F2
:1032A0004AE040E03FE03A494968491C384A083260
:1032B00002EB8101891C083A5278885433E0344982
:1032C0004968891C324A083202EB8101083A527877
:1032D000885428E027E026E02D494968891C2C4ABB
:1032E000083202EB8101891C083A527888541AE0AE
:1032F00018E027494968C91C254A083202EB8101B8
:10330000083A527888540EE00DE00CE020494968F4
:10331000C91C1F4A083202EB8101891C083A527805
:10332000885400E000BF00BF19494978491C184A79
:10333000517000BF00BF03E000211A4A117000BFA6
:1033400000BF10E01849194A1268885417490968E3
:10335000491C164A116011460968072902DD00213F
:10336000104A117000BF33E0242831D10E490022E9
:103370000A608A808A71087001210A4A117000214E
:103380000B4A1160012115E0940000207400002018
:103390004416002084000020880000208C000020BB
:1033A000900000206C0000206000002068000020D9
:1033B0005C000020074A11600021074A117051701B
:1033C000064A11705170064A11705170054A116019
:1033D00000BF67E468000020E415002044160020C8
:1033E000181600207000002010B50BA0FEF708FF93
:1033F000002208210F48FDF70FFD4FF4FA70FFF788
:103400005DF9012208210B48FDF706FD4FF4FA7023
:10341000FFF754F910BD00000D0A4F50454E2047EC
:10342000505320506F7765722E2E2E2E2E2E2E2E5C
:103430000D0A00000010014010B5FDF7B7FE012194
:103440000748FDF7A1FCFDF70DFAFEF71DFCFDF79F
:1034500017F9FDF72BFD00F017F8FEF7FBF910BD8B
:1034600000043000FFF7E8FF00210548FEF7E5F90A
:10347000FFF7BAFF4FF005000249086000BFFEE702
:10348000000400401400002010B53BA0FEF7B8FE79
:103490000420FCF7D7FEA0F5B4415A393CD039A03E
:1034A000FEF7AEFE01214FF0C050FDF74FFE0120A8
:1034B000FDF730FEFCF7BDFE0120FDF77DFF002487
:1034C00001E0601C04B241F288308442F9DB32A092
:1034D000FEF796FE00BF6120FDF736FF0028FAD008
:1034E0004FF40070FDF7A0FF0120FDF797FFFEF7F6
:1034F00055F8FEF749F8FEF747F849F64040FEF761
:1035000031F8FEF741F845F65A210420FCF7A2FEF7
:1035100027A0FEF775FE2DE02AA0FEF771FE012020
:103520002F49086001214FF0C050FDF70FFE002425
:1035300001E0601C04B241F288308442F9DB7B2058
:10354000FDF702FF18B127A0FEF75AFE06E07A2029
:10355000FDF7FAFE10B127A0FEF752FEFDF71CFEA4
:103560000120FDF729FF0120FDF758FFFEF716F8AF
:10357000FEF70AF810BD00000D0A7365742072741E
:10358000630D0A000D0A7265636F6E6669672072CB
:1035900074630D0A000000000D0A776169742066EB
:1035A0006F72206C73692072656164790D0A000086
:1035B0000D0A73657420727463206F7665720D0A4C
:1035C000000000000D0A6E6F206E65656420746F48
:1035D00020636F6E666967207274630D0A000000D5
:1035E0001C0000200D0A506F7765722072657365AC
:1035F000740D0A000D0A5253542072657365740DE0
:103600000A00000024360008000000209C00000092
:1036100020220008C03600089C000020243E000044
:103620003022000800000000000000000000000040
:10363000000000000000000000000000000000008A
:10364000000000000000000000000000000000007A
:10365000000000000000000000000000000000006A
:10366000000000000000000000000000000000005A
:103670000102030401020304060708090204060804
:10368000000000002447507878782C0000000000EB
:10369000000000000000000000000000000000002A
:1036A000000000000000000000000000000000001A
:1036B000000000000000000000000000000000000A
:0400000508000131BD
:00000001FF
