:020000040800F2
:10000000E841002045010008610E0008010E0008CB
:10001000350E0008B502000841210008000000006C
:10002000000000000000000000000000B5150008FE
:100030005901000800000000E1100008AD1600089A
:100040005F0100085F0100085F010008D11400088B
:100050005F0100085F010008C505000809060008E7
:100060005F010008310600085F0100085F01000819
:100070005F0100085F0100085F0100085F010008E0
:100080005F0100085F0100085F0100085F010008D0
:10009000412000085F0100085F01000869060008B0
:1000A0005F0100085F0100085F0100085F010008B0
:1000B00011170008391700085F0100085F010008E8
:1000C0005F0100085F0100085F0100085F01000890
:1000D0005F010008F11900086D1A0008111B0008E3
:1000E000F1050008111400085F0100085F01000815
:1000F0005F0100085F0100085F0100085F01000860
:100100005F0100085F0100085F0100085F0100084F
:10011000ED180008891900085F0100085F01000858
:100120005F0100085F0100085F0100085F0100082F
:10013000DFF80CD000F074F800480047794300085D
:10014000E84100200648804706480047FEE7FEE7F2
:10015000FEE7FEE7FEE7FEE7FEE7FEE7FEE7FEE777
:10016000B116000831010008D2B201E000F8012BFD
:10017000491EFBD270470022F6E710B50446084638
:10018000114602462046FFF7EFFF204610BD30B56E
:100190000EE003460A4601E05B1C521C1C781578F1
:1001A000AC4201D1002CF7D115F0FF0F04D0401C58
:1001B0000278002AEDD1002030BD2DE9F05F054620
:1001C000002092469B4688460646814640241DE014
:1001D000284641464746224600F043F8B0EB0A0065
:1001E00052465B4671EB0B0110D31046194622466E
:1001F00000F028F82D1A67EB01084F46224601202F
:10020000002100F01FF817EB00094E41201EA4F159
:100210000104DDDC484631462A464346BDE8F09FEE
:10022000064C074D06E0E06840F0010394E8070043
:1002300098471034AC42F6D3FFF77EFF14980008BD
:1002400034980008202A04DB203A00FA02F100204A
:1002500070479140C2F1200320FA03F31943904004
:100260007047202A04DB203A21FA02F0002170476F
:1002700021FA02F3D040C2F120029140084319460E
:10028000704710B5012000F061FF002000F05EFF14
:1002900010BD000001460022014A0A441088704740
:1002A000006C00400022024A0244116070470000C6
:1002B000006C00400AE006A001F058FF72B671B66B
:1002C0004FF4FA6002F030FC00F0EEFEF3E70000BD
:1002D0000D0A4552524F525F4255530D0A0000001D
:1002E000B1F5007F3AD00FDC202928D006DC0129A7
:1002F0001CD004291DD0082940D11DE0402921D05F
:10030000B1F5807F3AD126E0B1F5004F31D006DC5F
:10031000B1F5806F25D0B1F5006F2FD124E0B1F594
:10032000803F12D0B1F5003F28D111E0154A82601C
:1003300025E00822C26022E01022C2601FE00822ED
:1003400002611CE01022026119E00822426016E0FE
:100350001022426013E00422426010E00422426056
:100360000DE0042242600AE0002282610422426021
:1003700005E0002282610422426000E000BF00BF6D
:10038000704700000101010021B9C26842F020025B
:10039000C26003E0026942F020020261704700007F
:1003A00070B504460D4600266069284271D0B5F547
:1003B000807F5CD010DC082D35D006DC012D20D0EC
:1003C000022D24D0042D77D127E0102D31D0202DFF
:1003D00035D0402D70D138E0B5F5004F60D009DC44
:1003E000B5F5007F49D0B5F5806F4CD0B5F5006FFD
:1003F00062D14FE0B5F5803F2DD0B5F5003F5BD120
:100400002FE0A0682F4900F0D4F8064656E0E068D7
:10041000032100F0CEF8064650E0E068082100F025
:10042000C8F806464AE0E068102100F0C2F8064627
:1004300044E02069032100F0BCF806463EE0206954
:10044000082100F0B6F8064638E02069102100F0D7
:10045000B0F8064632E06068082100F0AAF80646C7
:100460002CE06068102100F0A4F8064626E0A069A0
:10047000012100F09EF8064620E0A069022100F06C
:1004800098F806461AE0A069042100F092F80646A2
:1004900014E014E0A069702100F08BF806460DE02E
:1004A000A069772100F085F806466068042100F015
:1004B00080F8064302E0FFE7002600BF00E00026C8
:1004C000304670BD0101010030B504460D461346AB
:1004D00004F5D87000EB0510006800F004001872F5
:1004E000187A50B904F5D87000EB0510006840F296
:1004F000FF7101EA5050186009E004F5D87000EB74
:10050000051000686FF0604101EAD000586004F502
:10051000D87000EB0510006800F00200587204F576
:10052000D87000EB0510406800F00F00987204F5D9
:10053000D87000EB05104068000AD87404F5D87034
:1005400000EB05108068D87204F5D87000EB051038
:100550008068000A187304F5D87000EB05108068F5
:10056000000C587304F5D87000EB05108068000E7D
:10057000987304F5D87000EB0510C068D87304F5C3
:10058000D87000EB0510C068000A187404F5D87024
:1005900000EB0510C068000C587404F5D87000EB2F
:1005A0000510C068000E987429462046FFF7ECFE3F
:1005B00030BD024600200A4201D0012000E00020A8
:1005C0007047000010B5C82002F0AEFA012000F01C
:1005D000B1F828B1012000F053F802A001F0C6FDE7
:1005E00010BD00000D0A6B6579300D0A0000000097
:1005F00010B502A001F0BAFD10BD00000D0A74652F
:1006000073740D0A0000000010B5022000F092F88B
:1006100028B1022000F034F801A001F0A7FD10BDC0
:100620000D0ABDF8C8EBD6D0B6CF310D0A000000D8
:1006300010B5082000F07EF828B1082000F020F85E
:1006400001A001F093FD10BD0D0ABDF8C8EBC0B6C6
:10065000D1C0D7B4CCACB1E4BBAFD6D0B6CFA3A198
:10066000A3A1A3A10D0A000010B54FF4807000F003
:1006700061F818B14FF4807000F002F810BD00006E
:100680000149086070470000140401401CB54FF494
:100690000030FFF7F5FF4FF40030009000208DF898
:1006A000040008208DF8050001208DF8060068463A
:1006B00000F056F80021084600F0AAFA0120FFF7E2
:1006C000DFFF0120009000208DF804000C208DF841
:1006D000050001208DF80600684600F041F8012170
:1006E000002000F095FA0220FFF7CAFF02200090D8
:1006F00000208DF804000C208DF8050001208DF8F5
:100700000600684600F02CF80321042000F080FA6F
:100710000820FFF7B5FF0820009000208DF80400A6
:1007200010208DF8050001208DF80600684600F0C5
:1007300017F81CBD014600200022074B1B6803EA86
:100740000102064BD3F814340B4202D00AB1012047
:1007500000E000207047000000040140000001405C
:10076000002127498279DAB3264AD2F800240368A7
:100770009A43244BC3F800241A46D2F80424036891
:100780009A4301F104031A60027911440A6803686C
:1007900042EA03020A601B4AD2F80824036822EAEC
:1007A0000302184BC3F808241A46D2F80C24036835
:1007B00022EA0302144B1A604279102A11D1114A1D
:1007C000D2F8082403681A430E4BC3F808241A46CB
:1007D000D2F80C2403681A430A4BC3F80C240EE029
:1007E00007E00749427911440A6803681A430A601E
:1007F00005E0027911440A6803689A430A60704769
:1008000000040140000001400C0401400549096852
:1008100021F01001034A116011460968014311607B
:10082000704700000020024001460020034A106883
:1008300000F03800084310607047000000200240BC
:1008400008B5012144F27D0000F070FC0121EC4864
:1008500000F05CFC4FF6FF70ADF8000000208DF852
:10086000030003208DF802004FF40070ADF8000083
:1008700018208DF8030003208DF802006946E14836
:1008800000F0E6F94FF48060ADF8000004208DF828
:1008900003006946DB4800F0DBF90420ADF80000F6
:1008A00018208DF8030003208DF802006946D54812
:1008B00000F0CEF90820ADF8000004208DF8030008
:1008C0006946D04800F0C4F94FF40060ADF800006C
:1008D00004208DF803006946CB4800F0B9F94FF4C5
:1008E0008060ADF8000018208DF8030003208DF81B
:1008F00002006946C54800F0ABF94FF40060ADF85E
:10090000000004208DF8030003208DF802006946E2
:10091000BE4800F09DF94FF48060ADF8000018204B
:100920008DF8030003208DF802006946B64800F0F8
:100930008FF94FF40060ADF8000004208DF803003B
:1009400003208DF802006946AF4800F081F90320CA
:100950008DF802004FF40060ADF8000048208DF8DB
:1009600003006946A74800F073F94FF48050ADF8D2
:10097000000018208DF803006946A24800F068F9CD
:100980000820ADF8000010208DF8030003208DF83A
:10099000020069469C4800F05BF9002208219A4851
:1009A00000F028FA1020ADF800008DF803000320B5
:1009B0008DF802006946944800F04AF9002210219F
:1009C000914800F017FA2020ADF8000010208DF8B3
:1009D000030003208DF8020069468B4800F038F9C7
:1009E00000222021884800F005FA0120ADF800001F
:1009F00004208DF8030003208DF802006946814829
:100A000000F026F90120ADF8000048208DF8030021
:100A100003208DF8020069467C4800F019F94FF474
:100A20000050ADF8000010208DF8030003208DF871
:100A300002006946744800F00BF901225103724824
:100A400000F0D8F91020ADF8000014208DF8030054
:100A500003208DF8020069466A4800F0F9F8012287
:100A60001021684800F0C6F94020ADF800001020C1
:100A70008DF8030003208DF802006946614800F0FC
:100A8000E7F8002240215F4800F0B4F90820ADF8F3
:100A9000000010208DF8030003208DF80200694645
:100AA0005A4800F0D5F800220821584800F0A2F971
:100AB0004FF48050ADF8000010208DF803000320A3
:100AC0008DF802006946504800F0C2F800224FF449
:100AD00080514D4800F08EF94FF40040ADF8000011
:100AE00010208DF8030003208DF802006946464867
:100AF00000F0AEF80122D103434800F07BF94FF437
:100B00008040ADF8000010208DF8030003208DF820
:100B1000020069463C4800F09BF8012291033A48E4
:100B200000F068F90220ADF8000010208DF80300F5
:100B300003208DF802006946324800F089F800224F
:100B40000221304800F056F98020ADF8000048201E
:100B50008DF8030003208DF8020069462A4800F052
:100B600077F84020ADF8000010208DF80300032036
:100B70008DF802006946244800F06AF800224021FE
:100B8000214800F037F94FF48070ADF800001020D4
:100B90008DF8030003208DF8020069461A4800F022
:100BA00057F800224FF48071174800F023F94FF4F2
:100BB0000070ADF8000010208DF8030003208DF8C0
:100BC00002006946104800F043F800224FF400711B
:100BD0000D4800F00FF94FF40050ADF80000102060
:100BE0008DF8030003208DF802006946074800F0E5
:100BF0002FF800224FF40051044800F0FBF808BD24
:100C000002001E1A00080140000C014000100140C3
:100C100030B500228B071C0F0F2303FA04F20B4B95
:100C20008C1053F824309343084C8D1044F8253031
:100C300023468C1053F824308C07240F00FA04F458
:100C40002343024C8D1044F8253030BD080001408C
:100C50002DE9F04102460025002600200023002453
:100C6000002791F803C00CF00F0591F803C01CF0A9
:100C7000100F03D091F802C04CEA0505B1F800C08E
:100C80001CF0FF0F31D0146800202BE04FF0010C56
:100C90000CFA00F3B1F800C00CEA03069E4220D122
:100CA00083004FF00F0C0CFA03F7BC4305FA03FC6A
:100CB0004CEA040491F803C0BCF1280F06D14FF0B0
:100CC000010C0CFA00FCC2F814C00AE091F803C051
:100CD000BCF1480F05D14FF0010C0CFA00FCC2F832
:100CE00010C0401C0828D1D31460B1F800C0BCF17A
:100CF000FF0F34DD546800202EE000F1080C4FF0A7
:100D0000010808FA0CF3B1F800C00CEA03069E4291
:100D100021D183004FF00F0C0CFA03F7BC4305FA06
:100D200003FC4CEA040491F803C0BCF1280F05D180
:100D300000F1080C08FA0CF8C2F8148091F803C00E
:100D4000BCF1480F07D100F1080C4FF0010808FA78
:100D50000CF8C2F81080401C0828CED35460BDE8BF
:100D6000F0810000F0B50A46002300240021002590
:100D700000F00046B6F1004F02D11D4EF16901E0CE
:100D80001B4E7168C0F3034583B200F44016B6F5FC
:100D9000401F08D121F07061154E766826F070660C
:100DA000134F7E6012E000F48016B6F5801F06D166
:100DB000032606FA05F4A14341F0706106E0460DF2
:100DC000360103FA06F6B14341F0706122B1460DD7
:100DD000360103FA06F6314300F00046B6F1004F43
:100DE00002D1034EF16101E0014E7160F0BD0000DF
:100DF000000001400AB1016100E04161704700005C
:100E00000AE006A001F0B2F972B671B64FF4FA60CA
:100E100001F08AFE00F048F9F3E700000D0A4552A0
:100E2000524F525F484152445F4641554C540D0A5F
:100E3000000000000AE006A001F098F972B671B651
:100E40004FF4FA6001F070FE00F02EF9F3E70000B5
:100E50000D0A4552524F525F4D454D0D0A0000009C
:100E600005A001F083F972B671B64FF4FA6001F093
:100E70005BFE00F019F900000D0A4552524F525F17
:100E80004E4D490D0A00000008B54FF4E06000F037
:100E900001F925208DF8000002208DF801000020C6
:100EA0008DF8020001208DF80300684600F0B0F8CC
:100EB0004FF4E06000F0EEF826208DF800000020EE
:100EC0008DF801008DF8020001208DF803006846BE
:100ED00000F09EF84FF4E06000F0DCF827208DF879
:100EE000000001208DF8010000208DF80200012093
:100EF0008DF80300684600F08BF84FF4E06000F0D6
:100F0000C9F834208DF8000001208DF80100002080
:100F10008DF8020001208DF80300684600F078F893
:100F20004FF4E06000F0B6F835208DF800000120A5
:100F30008DF8010000208DF8020001208DF80300DB
:100F4000684600F065F84FF4C06000F0A3F829206F
:100F50008DF8000000208DF801008DF802008DF85A
:100F60000300684600F054F84FF4C06000F092F8B7
:100F700006208DF8000000208DF801008DF8020099
:100F80008DF80300684600F043F84FF4C06000F0AD
:100F900081F828208DF8000000208DF801008DF8E0
:100FA00002008DF80300684600F032F84FF4C0608C
:100FB00000F070F809208DF8000000208DF8010085
:100FC0008DF802008DF80300684600F021F84FF418
:100FD000A06000F05FF81D208DF8000000208DF863
:100FE00001008DF8020001208DF80300684600F032
:100FF0000FF814208DF8000000208DF801008DF806
:10100000020001208DF80300684600F001F808BDD9
:1010100070B5002100230F22C4784CB31A4C246809
:1010200004F4E064C4F5E0644FEA1421C1F1040360
:1010300022FA01F2447804FA03F1847804EA020403
:1010400044EA01014FEA0111104C0678A1550478D9
:1010500004F01F054FF0010404FA05F405784FEA87
:1010600065154FF0E02606EB8505C5F8004109E05F
:10107000047804F01F050124AC40054D0678761174
:1010800045F8264070BD00000CED00E000E400E0F3
:1010900080E100E002490143024A1160704700000C
:1010A0000000FA050CED00E00848006800F4E0607C
:1010B000074940EA010000F104004FF0E021C1F8C7
:1010C0000C0DBFF3408F00BFFEE700000CED00E009
:1010D0000000FA05014908627047000000000E4256
:1010E00005A001F043F872B671B64FF4FA6001F052
:1010F0001BFDFFF7D9FF00000D0A4552524F525F0A
:1011000050454E4453560D0A0000000029B1064ACE
:10111000D2690243044BDA6104E0034AD269824394
:10112000014BDA61704700000010024029B1064A05
:1011300092690243044B9A6104E0034A9269824334
:10114000014B9A617047000000100240014908609D
:1011500070470000400442420348406A40F08070FB
:1011600001494862704700000010024010B500F0CD
:101170003BF8012000F0FAF800BF212000F0C4F88D
:101180000028FAD01020FFF741FB0220FFF74CFBAC
:10119000002000F0DFF8002000F000F9002000F04F
:1011A000F1F84FF46011002000F00AF9012000F07E
:1011B00001F900BF392000F0A7F80028FAD002207A
:1011C00000F01AF900BF00F0BDF80828FBD101219A
:1011D00044F27D00FFF7AAFF01210248FFF796FFC6
:1011E00010BD000002001E1A0F48006840F0010008
:1011F0000D490860084640680C4908400A494860A3
:10120000084600680A49084007490860084600681F
:1012100020F4802008600846406820F4FE00486002
:101220004FF41F0088607047001002400000FFF874
:10123000FFFFF6FE30B500210022002400232D4DD3
:101240006D6805F00C0121B1042905D0082923D1CE
:1012500005E0294D056022E0274D05601FE0254D82
:101260006D6805F47012234D6D6805F48034022515
:1012700005EB92421CB9214D554305600BE01D4D15
:101280006D6815F4003F03D01C4D5543056002E026
:10129000194D5543056002E0174D056000BF00BFC2
:1012A000144D6D6805F0F0010909154D6B5C05687A
:1012B000DD4045600F4D6D6805F4E061090A104D91
:1012C0006B5C4568DD4085600A4D6D6805F46051D2
:1012D000C90A0B4D6B5C4568DD40C560054D6D6806
:1012E00005F44041890B074D6B5CC568B5FBF3F510
:1012F000056130BD0010024000127A0000093D0077
:101300003C0000204C00002010B5014600220023C4
:1013100000204A11012A02D1094C236806E0022A62
:1013200002D1074C236A01E0054C636A01F01F02F9
:10133000012494401C4201D0012000E0002010BD97
:10134000001002400248406800F00C0070470000A6
:101350000010024001460020034A506820F0F000CF
:1013600008435060704700000010024001490860C7
:1013700070470000000042420149086070470000C9
:101380008004424201460020034A506820F4E06095
:1013900008435060704700000010024001460020E2
:1013A000034A506820F4605040EAC1005060704722
:1013B00000100240014908667047000000004242E8
:1013C00002460020044B586820F47C1042EA0103D6
:1013D0001843014B586070470010024001490860F3
:1013E000704700003C0442420249096A0143014A35
:1013F000116270470010024001460020034A506805
:1014000020F00300084350607047000000100240C5
:1014100010B5022000F046F850B14FF40030FFF74D
:101420002FF900F0A9F8022000F004F800F0A4F869
:1014300010BD0000054909886FEA000292B201EA76
:101440000201034AA2F80418704700000428004073
:10145000002000400348008840F010000249A1F835
:101460000408704704280040002000400448008819
:101470004FF6EF7100EA01000249A1F80408704735
:10148000042800400020004000210448018804484E
:10149000B0F8180841EA0040704700001C280040DE
:1014A0000020004001460020074A128802EA01029B
:1014B000D0B2064AB2F800280A4202D008B1012090
:1014C00000E0002070470000042800400020004099
:1014D00010B50120FFF7E6FF70B10120FFF7AAFF6A
:1014E00000F04AF8FFF7D0FF0449884204D10020F9
:1014F00000F01EF800F040F810BD0000805101001F
:1015000039B1094A128842EA0002084BA3F80028C0
:1015100009E0054A12886FEA00039BB202EA03025F
:10152000024BA3F80028704700280040002000402C
:1015300000B50246FFF78EFF100C044908800449ED
:10154000A1F81C28FFF792FF00BD000018280040FA
:101550000020004000B50246FFF77CFFC2F30340C5
:10156000034908800349A1F80C28FFF77FFF00BD5D
:10157000082800400020004000BF0348008810F009
:10158000200FFAD070470000042800400748008868
:101590004FF6F77100EA01000549A1F8040800BF01
:1015A0000248008810F0080FFAD070470428004065
:1015B0000020004005A000F0D9FD72B671B64FF4CE
:1015C000FA6001F0B1FAFFF76FFD00000D0A455215
:1015D000524F525F5356430D0A00000010B500F001
:1015E00001F810BD002100202E4A126842F480321A
:1015F0002C4B1A6000BF2B4A126802F40030491CC1
:1016000010B9B1F5A06FF6D1264A126812F4003F66
:1016100001D0012000E00020012842D1224A1268B6
:1016200042F01002204B1A601A46126822F00302A0
:101630001A601A46126842F002021A60194A526889
:10164000184B5A601A4652685A601A46526842F459
:1016500080625A601A46526822F47C125A601A4616
:10166000526842F4E8125A601A46126842F08072D8
:101670001A6000BF0B4A126812F0007FFAD0094AC4
:10168000526822F00302074B5A601A46526842F031
:1016900002025A6000BF034A526802F00C02082A94
:1016A000F9D170470010024000200240704700004E
:1016B00010B51348006840F0010011490860084661
:1016C0004068104908400E494860084600680E49C5
:1016D00008400B4908600846006820F48020086034
:1016E0000846406820F4FE0048604FF41F00886000
:1016F000FFF774FF4FF000600449086010BD000060
:10170000001002400000FFF8FFFFF6FE08ED00E0C9
:1017100010B50121880700F079F860B10121880730
:1017200000F03EF800214FF0804000F03CF800202F
:101730004FF08041888410BD10B501210F4800F0A2
:1017400065F8C8B101210D4800F02AF803F0A6F9A8
:101750000B48006840B9012210210A48FFF74AFBF4
:1017600001200749086007E0002210210548FFF723
:1017700041FB00200249086010BD00000004004049
:1017800038000020000C014021B1028842F08002A4
:10179000028004E002884FF67F731A40028070478F
:1017A000CA430282704721B1028842F001020280DE
:1017B00004E002884FF6FE731A4002807047000072
:1017C0000EB542F21070ADF804004FF4E150ADF8E0
:1017D00000000020ADF80600ADF8020069460A4896
:1017E00000F032F801210848FFF7CEFF012106483A
:1017F000FFF7D6FF01221146034800F018F8012137
:101800000148FFF7D0FF0EBD0004004030B502468E
:10181000002000230024158A05EA0103958905EAC2
:10182000010413B10CB1012000E0002030BD10B55F
:101830001AB183890B43838104E08389CC43A4B22A
:101840002340838110BD0000002202881D4B984276
:101850000ED01D4B98420BD0B0F1804F08D01B4BDF
:10186000984205D01A4B984202D01A4B984204D1A4
:101870004FF68F731A404B881A43174B984207D084
:10188000164B984204D04FF6FF431A40CB881A43B8
:1018900002808B8883850B8803850A4B98420BD086
:1018A000094B984208D00E4B984205D00D4B9842F8
:1018B00002D00D4B984201D10B7A0386012383821B
:1018C00070470000002C014000340140000400403B
:1018D00000080040000C00400010004000140040D0
:1018E00000400140004401400048014010B508217B
:1018F0001E4800F0D3FA30B108211C4800F064F90A
:101900001A4800F093FB40F22551184800F0D3FA32
:1019100030B3164800F08AFBC4B21548016800686D
:10192000401C134A106013484454002011491268A7
:1019300088540F480068B0F5967F02D900200C4902
:1019400008600D480068042803D121460B4800F0C8
:1019500072FB0B48006818B121460A4800F06BFB87
:101960002021024800F030F910BD0000004C00407A
:101970000C000020F80B002014000020003801406B
:10198000200000200048004010B50821154800F054
:1019900085FA30B10821134800F016F9114800F01B
:1019A00045FB40F225510F4800F085FAA8B10D48DB
:1019B00000F03CFBC4B2204601F064FD0A48006818
:1019C00005280AD12146094800F035FB00BF402117
:1019D000064800F063FA0028F9D02021014800F001
:1019E000F3F810BD00500040140000200038014002
:1019F00010B50821194800F051FA30B108211748F4
:101A000000F0E2F8154800F011FB40F225511348B0
:101A100000F051FAE0B1114800F008FB10490870DD
:101A2000084601780F4802680068401C0D4B18609A
:101A30000D48815400200C491A46126888541846F3
:101A4000006840F21451884202D90020194608600B
:101A50002021024800F0B8F810BD00000038014015
:101A60003400002000000020A400002010B5082150
:101A7000214800F013FA30B108211F4800F0A4F803
:101A80001D4800F0D3FA40F225511B4800F013FA2C
:101A900080B3194800F0CAFA18490870184800685D
:101AA00002280BD108460178164800F0C4FA00BF9E
:101AB0004021144800F0F2F90028F9D00F480178CD
:101AC000114802680068401C0F4B18600F48815491
:101AD00000200E491A46126888541846006840F2E1
:101AE0001451884202D9002019460860202102487A
:101AF00000F06AF810BD00000044004035000020EE
:101B0000140000200038014004000020B805002027
:101B100010B50821254800F0C1F930B1082123484B
:101B200000F052F8214800F081FA40F225511F4898
:101B300000F0C1F9A0B31D4800F078FAC4B21C4807
:101B4000006803280AD121461A4800F074FA00BF41
:101B50004021184800F0A2F90028F9D01648016881
:101B60000068401C144A1060144844540020134973
:101B70001268885410480068B0F5967F02D900209A
:101B80000D4908600E48006850B121460D4800F02C
:101B900052FA00BF4021074800F080F90028F9D030
:101BA0002021024800F010F810BD0000004800405D
:101BB000140000200038014008000020CC0A00205A
:101BC00020000020004C004001F40072B2F5007FBC
:101BD00000D100BFCA430280704721B1828942F41C
:101BE0000052828104E082894DF6FF731A4082819F
:101BF0007047000000B585B0012144F20400FFF7F2
:101C000095FA4FF40070ADF8100018208DF813000D
:101C100003208DF8120004A99748FFF719F84FF434
:101C20008060ADF8100004208DF8130003208DF8BB
:101C3000120004A99048FFF70BF84FF47A30009097
:101C40000020ADF80400ADF80600ADF80800ADF8CE
:101C50000C000C20ADF80A006946884800F07AF9BB
:101C6000012240F22551854800F04FF901218348B7
:101C7000FFF7B3FF01214804FFF748FA01210420D0
:101C8000FFF754FA0420ADF8100018208DF8130067
:101C900003208DF8120004A97748FEF7D9FF082029
:101CA000ADF8100004208DF8130003208DF8120009
:101CB00004A97148FEF7CCFF4FF4E13000900020FA
:101CC000ADF80400ADF80600ADF80800ADF80C0062
:101CD0000C20ADF80A006946694800F03BF9012282
:101CE00040F22551664800F010F901216448FFF7E1
:101CF00074FF01218804FFF709FA01210820FFF78A
:101D000015FA4FF48060ADF8100018208DF813001C
:101D100003208DF8120004A95A48FEF799FF4FF4EA
:101D20000060ADF8100028208DF8130003208DF816
:101D3000120004A95348FEF78BFF4FF416400090A1
:101D40000020ADF80400ADF80600ADF80800ADF8CD
:101D50000C000C20ADF80A0069464B4800F0FAF878
:101D6000012240F22551484800F0CFF801214648B1
:101D7000FFF733FF0121C804FFF7C8F90121102044
:101D8000FFF7D4F94FF48060ADF8100018208DF8FB
:101D9000130003208DF8120004A93C48FEF758FFF9
:101DA0004FF40060ADF8100004208DF813000320FC
:101DB0008DF8120004A93548FEF74AFF4FF416408B
:101DC00000900020ADF80400ADF80600ADF8080062
:101DD000ADF80C000C20ADF80A0069462C4800F064
:101DE000B9F8012240F22551294800F08EF801216E
:101DF0002748FFF7F2FE01210805FFF787F90121C7
:101E00003020FFF793F94FF48050ADF81000182000
:101E10008DF8130003208DF8120004A91B48FEF76B
:101E200017FF0420ADF810008DF8130003208DF883
:101E3000120004A91748FEF70BFF4FF4165000904C
:101E40000020ADF80400ADF80600ADF80800ADF8CC
:101E50000C000C20ADF80A0069460F4800F07AF833
:101E6000012240F225510C4800F04FF801210A48A8
:101E7000FFF7B3FE05B000BD000801400038014087
:101E800000440040000C01400048004000100140A8
:101E9000004C004000140140005000400246002069
:101EA000B1F5007F00D100BF13880B4201D00120A3
:101EB00000E00020704770B5024600240023002592
:101EC0000020A1F510666A3E00D100BFC1F34215A3
:101ED00001F01F03012606FA03F3012D02D19689B2
:101EE000334006E0022D02D1168A334001E0968A83
:101EF00033400C12012606FA04F41688344013B15C
:101F00000CB1012000E0002070BDF0B503460024B4
:101F1000002600250020A1F510676A3F00D100BF10
:101F20001846C1F3421401F01F06012707FA06F50F
:101F3000012C01D10C3004E0022C01D1103000E062
:101F400014301AB107682F43076002E00768AF43F7
:101F50000760F0BD2DE9F04786B005460E46002427
:101F6000A24600BFA1460027B08900B100BF2F469E
:101F70002C8A4CF6FF700440F08804432C82AC8914
:101F80004EF6F3100440B088318908437189084344
:101F90000443AC81AC8A4FF6FF400440B08904434F
:101FA000AC8201A8FFF746F91F48874202D1DDF84D
:101FB00010A001E0DDF80CA0A88910F4004F08D0B3
:101FC0000AEBCA0000EB0A1031684900B0FBF1F8D7
:101FD00007E00AEBCA0000EB0A1031688900B0FB89
:101FE000F1F86420B8FBF0F004012009642101FB42
:101FF0001089A88910F4004F08D0322000EBC900E6
:10200000B0FBF1F000F00700044308E0322000EBE1
:1020100009106421B0FBF1F000F00F0004432C81A3
:1020200006B0BDE8F087000000380140014688880E
:10203000C0F308007047C1F30802828070470000B7
:1020400000B585B0002201212848FEF7D3FE082103
:102050002748FEF7A5F960B126A000F087F86A4688
:1020600000212348FEF730FA08212148FEF738F90D
:1020700000BF40211E48FEF793F960B122A000F096
:1020800075F86A4601211A48FEF71EFA40211848E1
:10209000FEF726F900BF02211548FEF781F960B16D
:1020A0006A4600211248FEF70FFA1CA000F05EF805
:1020B00002210F48FEF714F900BF10210C48FEF76B
:1020C0006FF960B119A000F051F86A460121084883
:1020D000FEF7FAF910210648FEF702F900BF0122C7
:1020E00011460248FEF786FE05B000BD000C014017
:1020F000006400400D0A43414E206572726F7231D8
:1021000021210D0A000000000D0A43414E20657296
:10211000726F723221210D0A000000000D0A434146
:102120004E206F6B21210D0A000000000D0A434173
:102130004E206572726F723321210D0A000000007B
:102140000AE006A000F012F872B671B64FF4FA6019
:1021500000F0EAFCFEF7A8FFF3E700000D0A455285
:10216000524F525F55534147450D0A000FB4054B7E
:1021700010B503A9044A029800F018F810BC5DF8E5
:1021800014FB0000B92F0008A000002002E008C8DE
:10219000121F08C1002AFAD170477047002001E0E1
:1021A00001C1121F002AFBD1704700002DE9FF4F2B
:1021B0008DB005460F460026EEE1252879D1002492
:1021C0006D1CF94AA246A14601212B78203B01FA59
:1021D00003F0104202D004436D1CF6E728782A2849
:1021E00010D06FF02F022878A0F13001092915D8FE
:1021F0000AEB8A0102EB410144F0020400EB010A00
:102200006D1CF0E757F804ABBAF1000F03DA44F4A1
:102210000054CAF1000A44F002046D1C28782E28EC
:1022200017D115F8010F44F004042A280ED06FF0DE
:102230002F022878A0F1300109290AD809EB890179
:1022400002EB410100EB01096D1CF2E757F8049B1A
:102250006D1C28786C280FD006DC4C2817D0682815
:102260000DD06A2814D104E0742810D07A280FD138
:102270000DE044F400140AE044F4801401E044F456
:1022800040146978814202D16D1C04F580146D1CE4
:1022900095F800C0BCF16E0F2AD012DCBCF1630FC0
:1022A0003CD007DCBCF1000F76D0BCF1580F19D13F
:1022B000ACE018E0BCF1640F6FD0BCF1690F11D134
:1022C0006BE0BCF1730F32D006DCBCF16F0F71D044
:1022D000BCF1700F06D19BE0BCF1750F6BD0BCF167
:1022E000780F69D06046DDE90F129047761C52E105
:1022F000C4F30250022806D003280AD0042801CFD4
:102300000AD0066047E101CF4FEAE671C0E90061FB
:1023100041E101CF06803EE106703CE101CF8DF83E
:10232000000000208DF80100EB46012003E057F883
:1023300004BB4FF0FF3061074FF0000102D40DE005
:1023400008F10101884649450FDA8045F8DB1BF8A2
:1023500008100029F4D108E008F101018846814203
:10236000FADB1BF808100029F6D1DDE90F23AAEBF0
:1023700008008146214600F040F9304400EB080691
:1023800004E0DDE90F121BF8010B9047B8F10108DA
:10239000F7D221464846F9E002E10A20C4F302528E
:1023A0004FF0000B0890022A07D001CFC117032A73
:1023B00009D00AE035E022E023E0FF1D27F00707FF
:1023C000F7E8020105E000B2C117042A01D140B2CA
:1023D000C117002906DA0023D0EB030063EB0101EB
:1023E0002D2202E0220504D52B228DF82420012283
:1023F00003E0E20701D02022F7E7904653E00A21EC
:1024000010E010204FF0000B08900EE0102109E0C2
:1024100010214FF0000B44F004044FF0080908911C
:1024200003E008214FF0000B0891C4F30252022A86
:1024300004D001CF0021032A06D007E0FF1D27F0BA
:102440000707F7E8020105E080B20021042A01D164
:10245000C0B200214FF00008220724D5BCF1700F54
:102460002AD0089B83F0100353EA0B0309D150EAEA
:10247000010206D030228DF824208DF825C00222DA
:102480009046089B83F0080353EA0B030BD150EAF4
:10249000010201D1620706D530228DF824204FF0C9
:1024A0000108A9F1010941A2BCF1580F00D044A2D2
:1024B0000B9208AA0A920FE040228DF824200122F4
:1024C000DEE75B46089AFDF778FE0B9B9B5C0A9A59
:1024D000A2F101020A92137050EA0102F1D10A98A6
:1024E000ADEB000000F1200B600702D524F480342E
:1024F00001E04FF00109002049465A46D94501DD67
:10250000A1EB020000EB0B0141440890AAEB010093
:102510000B90E00306D4DDE90F2321460B9800F071
:102520006CF806444FF000090DF1240A07E0DDE9DC
:102530000F121AF809009047761C09F10109C145EC
:10254000F5DBE0030CD5DDE90F2321460B9800F005
:1025500054F8064404E0DDE90F1230209047761C61
:102560000899481E08900029F5DC08E00A980A99A5
:102570000078491C0A91DDE90F129047761CBBF1E7
:102580000001ABF1010BF1DC0B982146DDE90F23D3
:1025900000F020F806446D1C287800287FF40DAE6A
:1025A00011B03046BDE8F08F0928010030313233D8
:1025B000343536373839414243444546000000003F
:1025C00030313233343536373839616263646566A9
:1025D000000000002DE9F0410446002517461E4684
:1025E000880405D406E039462020B04705F10105EE
:1025F000641EF8D52846BDE8F0812DE9F041044677
:102600000025302790461E46C80300D420278804A2
:1026100005D506E041463846B04705F10105641E80
:10262000F8D52846BDE8F08170B504460D460CA1EA
:102630002846FDF7ACFD06460F21284600F0B4F908
:10264000002800DB2EB900222946A0B200F01AFCB7
:1026500004E00122311DA0B200F014FC70BD0000A6
:10266000343135330000000070B504460D460CA12E
:102670002846FDF78CFD06460F21284600F094F908
:10268000002800DB2EB900222946A0B200F0FAFB98
:1026900004E00122311DA0B200F0F4FB70BD000087
:1026A000343134330000000070B504460D460CA1EF
:1026B0002846FDF76CFD06460F21284600F074F908
:1026C000002800DB2EB900222946A0B200F0DAFB78
:1026D00004E00122311DA0B200F0D4FB70BD000067
:1026E000343134370000000070B504460D460CA1AB
:1026F0002846FDF74CFD06460F21284600F054F908
:10270000002800DB2EB900222946A0B200F0BAFB57
:1027100004E00122311DA0B200F0B4FB70BD000046
:10272000343134380000000070B504460D460CA169
:102730002846FDF72CFD06460F21284600F034F907
:10274000002800DB2EB900222946A0B200F09AFB37
:1027500004E00122311DA0B200F094FB70BD000026
:10276000343134390000000070B504460D460CA128
:102770002846FDF70CFD06460F21284600F014F907
:10278000002800DB2EB900222946A0B200F07AFB17
:1027900004E00122311DA0B200F074FB70BD000006
:1027A000343134410000000070B504460D460CA1E0
:1027B0002846FDF7ECFC06460F21284600F0F4F809
:1027C000002800DB2EB900222946A0B200F05AFBF7
:1027D00004E00122311DA0B200F054FB70BD0000E6
:1027E000343134420000000070B504460D460CA19F
:1027F0002846FDF7CCFC06460F21284600F0D4F809
:10280000002800DB2EB900222946A0B200F03AFBD6
:1028100004E00122311DA0B200F034FB70BD0000C5
:10282000343131300000000070B504460D460CA173
:102830002846FDF7ACFC06460F21284600F0B4F808
:10284000002800DB2EB900222946A0B200F01AFBB6
:1028500004E00122311DA0B200F014FB70BD0000A5
:10286000343134360000000070B504460D460CA12A
:102870002846FDF78CFC06460F21284600F094F808
:10288000002800DB2EB900222946A0B200F0FAFA97
:1028900004E00122311DA0B200F0F4FA70BD000086
:1028A000343133330000000070B504460D460CA1EE
:1028B0002846FDF76CFC06460F21284600F074F808
:1028C000002800DB2EB900222946A0B200F0DAFA77
:1028D00004E00122311DA0B200F0D4FA70BD000066
:1028E000343133430000000070B504460D460CA19E
:1028F0002846FDF74CFC06460F21284600F054F808
:10290000002800DB2EB900222946A0B200F0BAFA56
:1029100004E00122311DA0B200F0B4FA70BD000045
:10292000343133440000000070B504460D460CA15C
:102930002846FDF72CFC06460F21284600F034F807
:10294000002800DB2EB900222946A0B200F09AFA36
:1029500004E00122311DA0B200F094FA70BD000025
:10296000343133450000000070B504460D460CA11B
:102970002846FDF70CFC06460F21284600F014F807
:10298000002800DB2EB900222946A0B200F07AFA16
:1029900004E00122311DA0B200F074FA70BD000005
:1029A000343133460000000070B505460C4614F083
:1029B000080F07D015A12846FDF7E9FB10B14FF02D
:1029C000FF3070BD14F0020F07D012A12846FDF7AA
:1029D000DEFB10B16FF00100F3E714F0040F07D035
:1029E0000EA12846FDF7D3FB10B16FF00200E8E717
:1029F00014F0010F07D00BA12846FDF7C8FB10B952
:102A00004FF0FF30DDE70120DBE700004441544197
:102A1000000000004E454354000000005243484966
:102A20004E4700003E00000070B504460D460CA164
:102A30002846FDF7ACFB06460F212846FFF7B4FFFA
:102A4000002800DB2EB900222946A0B200F01AFAB5
:102A500004E00122311DA0B200F014FA70BD0000A4
:102A6000343133310000000070B504460D460CA12E
:102A70002846FDF78CFB06460F212846FFF794FFFA
:102A8000002800DB2EB900222946A0B200F0FAF996
:102A900004E00122311DA0B200F0F4F970BD000085
:102AA000343134450000000070B504460D460CA1D9
:102AB0002846FDF76CFB06460F212846FFF774FFFA
:102AC000002800DB2EB900222946A0B200F0DAF976
:102AD00004E00122311DA0B200F0D4F970BD000065
:102AE000343132430000000070B504460D460CA19D
:102AF0002846FDF74CFB06460F212846FFF754FFFA
:102B0000002800DB2EB900222946A0B200F0BAF955
:102B100004E00122311DA0B200F0B4F970BD000044
:102B20003431303500000000002107E0002200E0D1
:102B3000521C43F2C8239A42FAD3491C8142F5D36E
:102B40007047000070B504460D460CA12846FDF7FD
:102B50001EFB06460F212846FFF726FF002800DB54
:102B60002EB900222946A0B200F08CF904E001221F
:102B7000311DA0B200F086F970BD0000343134324E
:102B80000000000070B504460D460CA12846FDF774
:102B9000FEFA06460F212846FFF706FF002800DB55
:102BA0002EB900222946A0B200F06CF904E00122FF
:102BB000311DA0B200F066F970BD0000343132441E
:102BC0000000000070B504460D460CA12846FDF734
:102BD000DEFA06460F212846FFF7E6FE002800DB56
:102BE0002EB900222946A0B200F04CF904E00122DF
:102BF000311DA0B200F046F970BD000034313546F9
:102C00000000000070B504460D460CA12846FDF7F3
:102C1000BEFA06460F212846FFF7C6FE002800DB55
:102C20002EB900222946A0B200F02CF904E00122BE
:102C3000311DA0B200F026F970BD000034313034EF
:102C40000000000070B504460D460CA12846FDF7B3
:102C50009EFA06460F212846FFF7A6FE002800DB55
:102C60002EB900222946A0B200F00CF904E001229E
:102C7000311DA0B200F006F970BD000034313543BB
:102C80000000000070B504460D460CA12846FDF773
:102C90007EFA06460F212846FFF786FE002800DB55
:102CA0002EB900222946A0B200F0ECF804E001227F
:102CB000311DA0B200F0E6F870BD000034313043A1
:102CC0000000000070B504460D460CA12846FDF733
:102CD0005EFA06460F212846FFF766FE002800DB55
:102CE0002EB900222946A0B200F0CCF804E001225F
:102CF000311DA0B200F0C6F870BD0000343131467D
:102D00000000000070B504460D460CA12846FDF7F2
:102D10003EFA06460F212846FFF746FE002800DB54
:102D20002EB900222946A0B200F0ACF804E001223E
:102D3000311DA0B200F0A6F870BD0000343134346B
:102D40000000000070B504460D460CA12846FDF7B2
:102D50001EFA06460F212846FFF726FE002800DB54
:102D60002EB900222946A0B200F08CF804E001221E
:102D7000311DA0B200F086F870BD0000343132453C
:102D80000000000070B504460D460CA12846FDF772
:102D9000FEF906460F212846FFF706FE002800DB55
:102DA0002EB900222946A0B200F06CF804E00122FE
:102DB000311DA0B200F066F870BD0000343135342A
:102DC0000000000070B504460D460CA12846FDF732
:102DD000DEF906460F212846FFF7E6FD002800DB56
:102DE0002EB900222946A0B200F04CF804E00122DE
:102DF000311DA0B200F046F870BD0000343133320E
:102E00000000000070B504460D460CA12846FDF7F1
:102E1000BEF906460F212846FFF7C6FD002800DB55
:102E20002EB900222946A0B200F02CF804E00122BD
:102E3000311DA0B200F026F870BD000034313446D8
:102E40000000000070B504460D460CA12846FDF7B1
:102E50009EF906460F212846FFF7A6FD002800DB55
:102E60002EB900222946A0B200F00CF804E001229D
:102E7000311DA0B200F006F870BD000034313530CD
:102E8000000000002DE9F04706460F46904600245A
:102E9000A1462B4800EB86008578314629A0FFF734
:102EA00065F9C6EB06102D4A02EBC000011D2CA0EF
:102EB000FFF75CF9C6EB0610284A02EBC00000F1F0
:102EC00044012BA0FFF752F915B928B2BDE8F087ED
:102ED0002A48006888BB29480168304600F0B8F9E4
:102EE000814643464A46294625A0FFF73FF900247C
:102EF00005E0395D2EA0FFF739F9601C84B2AC42C1
:102F0000F7DBB8F1000F0BD0002406E0395D09EBC8
:102F1000040228488154601C84B2AC42F6DB0AE00B
:102F2000002406E03F2109EB040222488154601C82
:102F300084B2AC42F6DB28B2C8E7FFE700BFC5E7C2
:102F4000B81200200D0A43555252454E5420494EA6
:102F50004445583A25640D0A000000002C5300082F
:102F60000D0A6C6162656C203A25730D0A00000041
:102F70000D0A434D44203A25730D0A002400002019
:102F80000D0A6E65656420646174612073697A65F9
:102F90002D2D3E25642020696E6465782D2D3E25FB
:102FA000642076616C75652D2D3E25640D0A000048
:102FB000253358005A0E002070B504460D46E1B284
:102FC0000548FFF738F800BF80210348FEF766FF89
:102FD0000028F9D0204670BD0038014070B5044685
:102FE0000D460CA12846FDF7D2F806460F212846CB
:102FF000FFF7DAFC002800DB2EB900222946A0B238
:10300000FFF740FF04E00122311DA0B2FFF73AFFB5
:1030100070BD0000343132320000000070B504464B
:103020000D460CA12846FDF7B2F806460F212846AA
:10303000FFF7BAFC002800DB2EB900222946A0B217
:10304000FFF720FF04E00122311DA0B2FFF71AFFB5
:1030500070BD0000343132330000000070B504460A
:103060000D460CA12846FDF792F806460F2128468A
:10307000FFF79AFC002800DB2EB900222946A0B2F7
:10308000FFF700FF04E00122311DA0B2FFF7FAFEB6
:1030900070BD0000343135440000000070B50446B6
:1030A0000D460CA12846FDF772F806460F2128466A
:1030B000FFF77AFC002800DB2EB900222946A0B2D7
:1030C000FFF7E0FE04E00122311DA0B2FFF7DAFEB7
:1030D00070BD0000343132460000000070B5044677
:1030E0000D460CA12846FDF752F806460F2128464A
:1030F000FFF75AFC002800DB2EB900222946A0B2B7
:10310000FFF7C0FE04E00122311DA0B2FFF7BAFEB6
:1031100070BD0000343130410000000070B504463D
:103120000D460CA12846FDF732F806460F21284629
:10313000FFF73AFC002800DB2EB900222946A0B296
:10314000FFF7A0FE04E00122311DA0B2FFF79AFEB6
:1031500070BD0000343135450000000070B50446F4
:103160000D4609A12846FDF712F806462EB10122A8
:103170003146A0B2FFF786FE04E000223146A0B23D
:10318000FFF780FE70BD00003431303200000000D7
:1031900070B504460D460CA12846FCF7F8FF06461C
:1031A0000F212846FFF700FC002800DB2EB9002283
:1031B0002946A0B2FFF766FE04E00122311DA0B24D
:1031C000FFF760FE70BD00003431303300000000B6
:1031D00070B504460D460CA12846FCF7D8FF0646FC
:1031E0000F212846FFF7E0FB002800DB2EB9002264
:1031F0002946A0B2FFF746FE04E00122311DA0B22D
:10320000FFF740FE70BD0000343135310000000092
:1032100070B504460D460CA12846FCF7B8FF0646DB
:103220000F212846FFF7C0FB002800DB2EB9002243
:103230002946A0B2FFF726FE04E00122311DA0B20C
:10324000FFF720FE70BD000034313539000000006A
:10325000F8B505460E46002466480088F0BB0020FD
:103260006549088000BF15E06448B0F82C010119D9
:10327000634800EB810080785F4931F81410014405
:103280005D4A601C32F81000084481B2601C22F8CC
:10329000101084B25948B0F82E11B0F82C01081A59
:1032A000A042E1DC57A0FEF761FF00241BE00A20EA
:1032B00094FBF0F100FB114010B958A0FEF756FF47
:1032C0004D4830F814304D48B0F82C0101194C48E5
:1032D00000EB81008278214651A000E04CE0FEF72F
:1032E00045FF601C84B2C82CE1DB002050490880F7
:1032F000002415E04148B0F830010119404800EBC6
:10330000810080784A4931F814100144484A601C11
:1033100032F81000084481B2601C22F8101084B208
:103320003648B0F83211B0F83001081AA042E1DC9A
:1033300040A0FEF71BFF002419E00A2094FBF0F1E7
:1033400000FB114010B935A0FEF710FF384830F8E7
:1033500014302A48B0F830010119294800EB8100E7
:10336000827821462EA0FEF701FF601C84B2C82C93
:10337000E3DB01201F49088026BB2048B0F82C0160
:10338000281A1D4931F810301C480093B0F82E312E
:10339000B0F82C2129462CA0FEF7E8FE1748B0F81B
:1033A0002E01A84204DB1548B0F82C01A84201DD2B
:1033B0000020F8BD1148B0F82C01281A0E4931F848
:1033C0001000F6E7012E13D10C48B0F83201A842E4
:1033D00004DB0A48B0F83001A84201DD0020E8E72C
:1033E0000648B0F83001281A114931F81000E0E71A
:1033F0000020DEE78C000020C4160020841100208D
:10340000B81200200D0A4E4F524D414C20494E44F7
:103410004558204D41500D0A000000000D0A0000E3
:103420002534642D3E2534642D3E2534642020004F
:10343000541800200D0A4641535420494E44455823
:10344000204D41503A0D0A006D617020696E64652F
:1034500078202564202D3E2025642D3E25642D2DC9
:103460003E25640070B506460C4600250121204625
:10347000FFF79AFA002803DA00E06D1C142DFCDB3C
:1034800070BD0000FA49097879B3FA49096806293C
:1034900002D0FF297ED12FE1F749C978472972D19F
:1034A000F549097947296ED1F349497941296AD10A
:1034B0000121F24A11600021F14A116009E07822ED
:1034C000F049EF4B1B68CA54ED490968491CEC4AA6
:1034D0001160EB4909680929F1DB7821E94A921E5C
:1034E000D1720021E64A11600BE0F3E37822E5494E
:1034F0000A31E34B1B68CA54E1490968491CE04A98
:103500001160DF4909680A29F0DB7821DD4A921E43
:103510009175D1750021DA4A11600AE07822D94903
:103520001631D74B1B68CA54D5490968491CD44A7F
:103530001160D34909680229F0DB0021D04A1160EB
:103540000AE07822CF491831CD4B1B68CA54CC49C8
:103550000968491CCA4A1160C94909680429F0DB95
:103560000021C74A11600AE00022C6491C31C44B41
:103570001B68CA54C2490968491CC14A1160C04944
:1035800009680A29F0DBBC494979562928D1042168
:10359000BA4A00E0FEE311600021B94A11601BE065
:1035A0007822B949B64B1B6801F82320B44B1B683D
:1035B00001EB83014A70B449B14B1B6801EB8301F5
:1035C0008A70B149AE4B1B6801EB8301CA70AC49EC
:1035D0000968491CAA4A1160A94909680C29DFDB5E
:1035E000A5494979432971D10821A44A11600021D4
:1035F000A34A116009E07822A449A14B1B68CA5470
:103600009F490968491C9E4A11609D4909680A2919
:10361000F1DB78219D4A921E11730021984A1160B6
:103620000AE0782299490B31954B1B68CA5494499A
:103630000968491C924A1160914909680929F0DB1F
:103640007821924A921E917500218D4A11600AE0FC
:1036500078228E4915318A4B1B68CA5488490968FB
:10366000491C874A1160864909680A29F0DB7821DC
:10367000864A921E82F821100021814A11600AE0D8
:103680007822824920317E4B1B68CA547C490968E4
:10369000491C7B4A11607A4909680529F0DB002141
:1036A000774A11600AE0782278492531744B1B680B
:1036B000CA5473490968491C714A11607049096804
:1036C0000529F0DB00216E4A11600BE00EE0782244
:1036D0006E492A316A4B1B68CA5469490968491CFA
:1036E000674A1160664909680629F0DB2C2802D177
:1036F000FF21604A1160FEE360490968012904D096
:1037000004297ED008297DD1EDE02A2802D02C287A
:1037100079D190E00021564A11705A49891EC97D1D
:10372000302971D05749891EC97E2E290FD155499C
:10373000891E097F3039534A921E927E303A02EB3D
:10374000820201EB42014F4A921E916220E04D49F4
:10375000891E097F2E2916D14A49891E897E303952
:1037600064225143474A921ED27E303A02EB8202D3
:1037700001EB42024349891E497F30391144414AD5
:10378000921E916204E04FF47A713E4A921E916259
:103790003C49891E896A3E4A926991424ADC00216D
:1037A000374A11600CE03749354A1268895C384A5B
:1037B000334B1B68D15432490968491C304A1160A7
:1037C0002F4909680929EEDB00212D4A11600EE01E
:1037D0002C490A312A4A12688A5C2D490A31284B41
:1037E0001B68CA5426490968491C254A11602449A6
:1037F00009680A29ECDB2349891EC97A244A5172D7
:1038000003E0B9E1F6E320E014E01E49891E897D5A
:1038100011751C49891E097E11771A49891E4A7E35
:103820001B494A771749891E896A194A9161012102
:10383000184A116055E01349891E0978491C114A3C
:10384000921E1170002151704BE00E49891E0978BB
:1038500009293ED2DFE801F03D052023282B2E3335
:1038600038000849891E4A78891C885432E00000D3
:10387000600000205C000020540000205000002068
:10388000680000202216002054160020EE150020AB
:10389000841600206C000020FF49C8721AE0FE491F
:1038A0004A780C31885415E0FB49887512E0FA49D2
:1038B000C8750FE0F8494A78183188540AE0F6498B
:1038C0004A781A31885400BFF3494A781E31885427
:1038D00000E000BF00BFF0494978491CEE4A517032
:1038E00000BF00BFD6E32A2802D02C287DD1FEE0FD
:1038F0000021EA4A1170EA4A11600121E94A116087
:10390000E949097B412978D10021E84A11600DE09D
:10391000E5490D31E54A12688A5CE549E34B1B68CD
:10392000CA54E2490968491CE04A1160DF49096844
:103930000929EDDB0021DD4A11600EE0DA4917317B
:10394000DA4A12688A5CDA490A31D84B1B68CA54D1
:10395000D6490968491CD54A1160D44909680A2921
:10396000ECDBD149897DD24A1E3A82F82710CE4934
:1039700091F8211082F832100021CC4A11600EE03B
:10398000C9492231C94A12688A5CC9491731C74BF3
:103990001B68CA54C5490968491CC44A1160C34917
:1039A00009680529ECDB0021C04A11600EE0BE4920
:1039B0002731BE4A12688A5CBD491C31BB4B1B686B
:1039C000CA54BA490968491CB84A1160B74909681C
:1039D0000529ECDBB049097EB54A1E3A82F833105E
:1039E000AD494A7EB2491E3901E088E005E081F820
:1039F00034200121AF4A11607047AB49897D782995
:103A000074D00021A94A11600DE0A7490D31A74AE1
:103A100012688A5CA649A54B1B68CA54A349096869
:103A2000491CA24A1160A14909680929EDDB00215E
:103A30009E4A11600EE09C4917319C4A12688A5CCC
:103A40009B490A31994B1B68CA5498490968491C1B
:103A5000964A1160954909680A29ECDB9249897DEB
:103A6000934A1E3A82F827108F4991F8211082F864
:103A7000321000218D4A11600EE08B4922318B4AB1
:103A800012688A5C8A491731884B1B68CA54874977
:103A90000968491C854A1160844909680529ECDBDD
:103AA0000021824A11600EE07F4927317F4A126867
:103AB0008A5C7F491C317D4B1B68CA547B4909686D
:103AC000491C7A4A1160794909680529ECDB724979
:103AD000097E774A1E3A82F833106F494A7E74494C
:103AE0001E3981F834200121734A116042E06E4989
:103AF0000978491C6C4A1170002151703AE06A49FA
:103B0000097809292ED2DFE801F0050A0D12151AED
:103B10001E23280064494A78891C885423E062499E
:103B2000087320E060494A780D3188541BE05E49F3
:103B3000887518E05C494A781731885413E05A496F
:103B400081F821000FE058494A78223188540AE070
:103B500055494A782731885405E053494A782C3131
:103B6000885400E000BF00BF4F494978491C4E4AC5
:103B7000517000BF00BF8DE22A2802D02C287ED1D0
:103B8000DFE10021454A11704C49C978312977D1CC
:103B900000214B4A11604B4A11604B4A11604B4A5D
:103BA00011604B4A1160414A1160A2E0434908315B
:103BB0003E4A126801EB8201C97878296BD04049EE
:103BC0000968491C3E4A11603C490831374A12686D
:103BD00001EB8201C9783039384A0832334B1B680F
:103BE00002EB83029278303A02EB820201EB42014F
:103BF0000A2904DB33490968491C324A11602F49FC
:103C000008312A4A126801EB8201C97830392B4AFF
:103C10000832264B1B6802EB83029278303A02EBA3
:103C2000820201EB4201142904DB27490968491C7F
:103C3000254A1160214908311C4A126801EB8201B2
:103C4000C97830391D4A0832184B1B6802EB8302D1
:103C50009278303A02EB820201EB42011E2904DB2A
:103C60001A490968491C194A1160144908310F4A58
:103C7000126801EB8201C9783039104A01E068E12D
:103C80003DE00832094B1B6802EB83029278303A20
:103C900002EB82021FE027E02016002060000020D7
:103CA0005C00002064000020EC150020680000206B
:103CB000A216002074000020700000204C16002086
:103CC000780000207C00002080000020840000207C
:103CD00088000020F2E101EB4201282904DBFF49C2
:103CE0000968491CFD4A1160FD490968491CFC4AE4
:103CF0001160FB4909680429FFF658AF20E1F94932
:103D0000C97832297ED10421F54A116083E0F54952
:103D10000831F34A126801EB8201C978782975D01D
:103D2000F1490968491CF04A1160EE490831EC4A32
:103D3000126801EB8201C9783039EA4A0832E84B4F
:103D40001B6802EB83029278303A02EB820201EBAD
:103D500042010A2904DBE5490968491CE34A11606C
:103D6000E0490831DE4A126801EB8201C978303936
:103D7000DC4A0832DA4B1B6802EB83029278303A55
:103D800002EB820201EB4201142906DBD8490968E3
:103D9000491C00E080E1D64A1160D2490831D04A7E
:103DA000126801EB8201C9783039CE4A0832CC4B17
:103DB0001B6802EB83029278303A02EB820201EB3D
:103DC00042011E2904DBCB490968491CC94A11601C
:103DD000C4490831C24A126801EB8201C9783039FE
:103DE000C04A0832BE4B1B6802EB83029278303A1D
:103DF00002EB820201EB4201282907DBB74909687F
:103E0000491C01E00DE001E0B44A1160B4490968C1
:103E1000491CB34A1160B24909680829FFF677AF17
:103E20008EE0B049C978332966D10821AC4A1160C7
:103E300081E0AC490831AA4A126801EB8201C978D5
:103E4000782973D0A8490968491CA74A1160A54977
:103E50000831A34A126801EB8201C9783039A14ABE
:103E600008329F4B1B6802EB83029278303A02EBD8
:103E7000820201EB42010A2904DB9C490968491CC2
:103E80009A4A116097490831954A126801EB8201FC
:103E9000C9783039934A0832914B1B6802EB830290
:103EA0009278303A02EB820201EB4201142904DBE2
:103EB0008F490968491C8E4A11608A490831884A2D
:103EC000126801EB8201C9783039864A0832844B86
:103ED0001B6802EB83029278303A02EB820201EB1C
:103EE00042011E2904DB83490968491C814A11608B
:103EF0007C49083101E0E0E022E0794A126801EBF8
:103F00008201C9783039774A0832754B1B6802EB59
:103F100083029278303A02EB820201EB42012829B7
:103F200004DB6E490968491C6C4A11606C490968D8
:103F3000491C6B4A11606A4909680C29FFF679AF80
:103F4000A2E068490978491C664A11700021517045
:103F50009AE064490978132974D2DFE801F00A0D68
:103F60002A2B343536404C4D4E5A656667747F8037
:103F700081005C49887080E05A49C870C97831294D
:103F800003D10021574A516012E05649C9783229BD
:103F900003D10421534A51600AE05249C9783329B8
:103FA00003D108214F4A516002E008214D4A516077
:103FB00063E062E04B494A68083101EB8201494AFB
:103FC0005278885459E058E057E046494A68083129
:103FD00001EB8201891C434A527888544DE04149E3
:103FE0004968491C3F4A083202EB8101083A52787D
:103FF000885442E04AE040E03FE03A494968491CC1
:10400000384A083202EB8101891C083A52788854F8
:1040100033E034494968891C324A083202EB810195
:10402000083A5278885428E027E026E02D4949686C
:10403000891C2C4A083202EB8101891C083A52780B
:1040400088541AE018E027494968C91C254A0832F3
:1040500002EB8101083A527888540EE00DE00CE042
:1040600020494968C91C1F4A083202EB8101891C9A
:10407000083A5278885400E000BF00BF19494978D7
:10408000491C184A517000BF00BF03E000211A4AC2
:10409000117000BF00BF10E01849194A1268885417
:1040A00017490968491C164A116011460968072911
:1040B00002DD0021104A117000BF33E0242831D105
:1040C0000E4900220A608A808A71087001210A4A1A
:1040D000117000210B4A1160012115E088000020B9
:1040E000680000204C160020780000207C00002092
:1040F0008000002084000020600000205400002088
:104100005C00002050000020074A11600021074A8F
:1041100011705170064A11705170064A1170517039
:10412000054A116000BF67E45C000020EC15002028
:104130004C160020201600206400002010B50BA0B3
:10414000FEF714F8002208210F48FCF753FE4FF445
:10415000FA70FEF7E9FC012208210B48FCF74AFE41
:104160004FF4FA70FEF7E0FC10BD00000D0A4F504E
:10417000454E2047505320506F7765722E2E2E2EBD
:104180002E2E2E2E0D0A00000010014010B5FCF757
:10419000EDFF01210748FCF7E5FDFCF751FBFDF7BA
:1041A00029FDFCF773FAFCF76FFE00F059FEFDF7EE
:1041B00007FB10BD0004300070B504460D460CA18D
:1041C0002846FBF7E4FF06460F212846FEF7ECFBE6
:1041D000002800DB2EB900222946A0B2FEF752FECD
:1041E00004E00122311DA0B2FEF74CFE70BD0000BC
:1041F000343135420000000070B504460D460CA174
:104200002846FBF7C4FF06460F212846FEF7CCFBE5
:10421000002800DB2EB900222946A0B2FEF732FEAC
:1042200004E00122311DA0B2FEF72CFE70BD00009B
:10423000343130460000000070B504460D460CA134
:104240002846FBF7A4FF06460F212846FEF7ACFBE5
:10425000002800DB2EB900222946A0B2FEF712FE8C
:1042600004E00122311DA0B2FEF70CFE70BD00007B
:10427000343130420000000070B504460D460CA1F8
:104280002846FBF784FF06460F212846FEF78CFBE5
:10429000002800DB2EB900222946A0B2FEF7F2FD6D
:1042A00004E00122311DA0B2FEF7ECFD70BD00005C
:1042B000343130370000000070B504460D460CA1C3
:1042C0002846FBF764FF06460F212846FEF76CFBE5
:1042D000002800DB2EB900222946A0B2FEF7D2FD4D
:1042E00004E00122311DA0B2FEF7CCFD70BD00003C
:1042F000343130390000000070B504460D460CA181
:104300002846FBF744FF06460F212846FEF74CFBE4
:10431000002800DB2EB900222946A0B2FEF7B2FD2C
:1043200004E00122311DA0B2FEF7ACFD70BD00001B
:10433000343135360000000070B504460D460CA13E
:104340002846FBF724FF06460F212846FEF72CFBE4
:10435000002800DB2EB900222946A0B2FEF792FD0C
:1043600004E00122311DA0B2FEF78CFD70BD0000FB
:104370003431353800000000FFF708FF0021054800
:10438000FDF711FAFFF7DAFE4FF005000249086069
:1043900000BFFEE7000400401400002070B5044692
:1043A0000D460CA12846FBF7F2FE06460F212846D3
:1043B000FEF7FAFA002800DB2EB900222946A0B247
:1043C000FEF760FD04E00122311DA0B2FEF75AFDA8
:1043D00070BD0000343132310000000070B5044679
:1043E0000D460CA12846FBF7D2FE06460F212846B3
:1043F000FEF7DAFA002800DB2EB900222946A0B227
:10440000FEF740FD04E00122311DA0B2FEF73AFDA7
:1044100070BD0000343134440000000070B5044623
:104420000D460CA12846FBF7B2FE06460F21284692
:10443000FEF7BAFA002800DB2EB900222946A0B206
:10444000FEF720FD04E00122311DA0B2FEF71AFDA7
:1044500070BD0000343134310000000070B50446F6
:104460000D460CA12846FBF792FE06460F21284672
:10447000FEF79AFA002800DB2EB900222946A0B2E6
:10448000FEF700FD04E00122311DA0B2FEF7FAFCA8
:1044900070BD0000343130310000000070B50446BA
:1044A0000D460CA12846FBF772FE06460F21284652
:1044B000FEF77AFA002800DB2EB900222946A0B2C6
:1044C000FEF7E0FC04E00122311DA0B2FEF7DAFCA9
:1044D00070BD0000343131340000000070B5044676
:1044E0000D460CA12846FBF752FE06460F21284632
:1044F000FEF75AFA002800DB2EB900222946A0B2A6
:10450000FEF7C0FC04E00122311DA0B2FEF7BAFCA8
:1045100070BD0000343131350000000070B5044634
:104520000D460CA12846FBF732FE06460F21284611
:10453000FEF73AFA002800DB2EB900222946A0B285
:10454000FEF7A0FC04E00122311DA0B2FEF79AFCA8
:1045500070BD0000343131360000000070B50446F3
:104560000D460CA12846FBF712FE06460F212846F1
:10457000FEF71AFA002800DB2EB900222946A0B265
:10458000FEF780FC04E00122311DA0B2FEF77AFCA8
:1045900070BD0000343131370000000070B50446B2
:1045A0000D460CA12846FBF7F2FD06460F212846D2
:1045B000FEF7FAF9002800DB2EB900222946A0B246
:1045C000FEF760FC04E00122311DA0B2FEF75AFCA8
:1045D00070BD0000343131380000000070B5044671
:1045E0000D460CA12846FBF7D2FD06460F212846B2
:1045F000FEF7DAF9002800DB2EB900222946A0B226
:10460000FEF740FC04E00122311DA0B2FEF73AFCA7
:1046100070BD0000343131390000000070B504462F
:104620000D460CA12846FBF7B2FD06460F21284691
:10463000FEF7BAF9002800DB2EB900222946A0B205
:10464000FEF720FC04E00122311DA0B2FEF71AFCA7
:1046500070BD0000343131410000000070B50446E7
:104660000D460CA12846FBF792FD06460F21284671
:10467000FEF79AF9002800DB2EB900222946A0B2E5
:10468000FEF700FC04E00122311DA0B2FEF7FAFBA8
:1046900070BD0000343131420000000070B50446A6
:1046A0000D460CA12846FBF772FD06460F21284651
:1046B000FEF77AF9002800DB2EB900222946A0B2C5
:1046C000FEF7E0FB04E00122311DA0B2FEF7DAFBA9
:1046D00070BD0000343133340000000070B5044672
:1046E0000D460CA12846FBF752FD06460F21284631
:1046F000FEF75AF9002800DB2EB900222946A0B2A5
:10470000FEF7C0FB04E00122311DA0B2FEF7BAFBA8
:1047100070BD0000343133350000000070B5044630
:104720000D460CA12846FBF732FD06460F21284610
:10473000FEF73AF9002800DB2EB900222946A0B284
:10474000FEF7A0FB04E00122311DA0B2FEF79AFBA8
:1047500070BD0000343133360000000070B50446EF
:104760000D460CA12846FBF712FD06460F212846F0
:10477000FEF71AF9002800DB2EB900222946A0B264
:10478000FEF780FB04E00122311DA0B2FEF77AFBA8
:1047900070BD0000343133370000000070B50446AE
:1047A0000D460CA12846FBF7F2FC06460F212846D1
:1047B000FEF7FAF8002800DB2EB900222946A0B245
:1047C000FEF760FB04E00122311DA0B2FEF75AFBA8
:1047D00070BD0000343133380000000070B504466D
:1047E0000D460CA12846FBF7D2FC06460F212846B1
:1047F000FEF7DAF8002800DB2EB900222946A0B225
:10480000FEF740FB04E00122311DA0B2FEF73AFBA7
:1048100070BD0000343133390000000070B504462B
:104820000D460CA12846FBF7B2FC06460F21284690
:10483000FEF7BAF8002800DB2EB900222946A0B204
:10484000FEF720FB04E00122311DA0B2FEF71AFBA7
:1048500070BD0000343133410000000070B50446E3
:104860000D460CA12846FBF792FC06460F21284670
:10487000FEF79AF8002800DB2EB900222946A0B2E4
:10488000FEF700FB04E00122311DA0B2FEF7FAFAA8
:1048900070BD0000343133420000000070B50446A2
:1048A0000D460CA12846FBF772FC06460F21284650
:1048B000FEF77AF8002800DB2EB900222946A0B2C4
:1048C000FEF7E0FA04E00122311DA0B2FEF7DAFAA9
:1048D00070BD0000343132340000000070B5044671
:1048E0000D460CA12846FBF752FC06460F21284630
:1048F000FEF75AF8002800DB2EB900222946A0B2A4
:10490000FEF7C0FA04E00122311DA0B2FEF7BAFAA8
:1049100070BD0000343132350000000070B504462F
:104920000D460CA12846FBF732FC06460F2128460F
:10493000FEF73AF8002800DB2EB900222946A0B283
:10494000FEF7A0FA04E00122311DA0B2FEF79AFAA8
:1049500070BD0000343132360000000070B50446EE
:104960000D460CA12846FBF712FC06460F212846EF
:10497000FEF71AF8002800DB2EB900222946A0B263
:10498000FEF780FA04E00122311DA0B2FEF77AFAA8
:1049900070BD0000343132370000000070B50446AD
:1049A0000D460CA12846FBF7F2FB06460F212846D0
:1049B000FDF7FAFF002800DB2EB900222946A0B23D
:1049C000FEF760FA04E00122311DA0B2FEF75AFAA8
:1049D00070BD0000343132380000000070B504466C
:1049E0000D460CA12846FBF7D2FB06460F212846B0
:1049F000FDF7DAFF002800DB2EB900222946A0B21D
:104A0000FEF740FA04E00122311DA0B2FEF73AFAA7
:104A100070BD0000343132390000000070B504462A
:104A20000D460CA12846FBF7B2FB06460F2128468F
:104A3000FDF7BAFF002800DB2EB900222946A0B2FC
:104A4000FEF720FA04E00122311DA0B2FEF71AFAA7
:104A500070BD0000343132410000000070B50446E2
:104A60000D460CA12846FBF792FB06460F2128466F
:104A7000FDF79AFF002800DB2EB900222946A0B2DC
:104A8000FEF700FA04E00122311DA0B2FEF7FAF9A8
:104A900070BD0000343132420000000070B50024C7
:104AA000002500266B48006870B90120694908603C
:104AB0006948B0F82C01401E684908806648B0F883
:104AC0003001401E6649088066480068F0BB6248B5
:104AD000B0F83001401E6249088000206249088019
:104AE00062485E49098800EB8100C0786049098806
:104AF000884206DB5E480088401C5D490880002033
:104B000070BD00205A49088058485449098800EB74
:104B100081008578CDB151480088C0EB001055491F
:104B200051F8300088B14C48B0F82C014B49098845
:104B300088420ADC49480088C0EB00104D4951F812
:104B400030204D4945480088904700E05CE04FF434
:104B500096714948FBF70FFB0020484908603F4821
:104B60000088401C3D4908803B48B0F82E01098868
:104B7000884204DA3848B0F82C013849088000240B
:104B800000BF3A483549098830F82100C0EB0010D1
:104B9000384901EBC0004430065D34482F4A128882
:104BA00030F82200C0EB00100A4602EBC00044308F
:104BB000015D3348FDF73FFA2C48284A128830F847
:104BC0002200C0EB00102B4A02EBC0004430015D14
:104BD0002C48FDF730FA00BF40212948FDF75EF967
:104BE0000028F9D021481D49098830F82100C0EB80
:104BF0000010204901EBC0004430005D0D2800D1B9
:104C000001E0641CBDE700BF1648006801281FD101
:104C10001DA0FDF7ABFA1048B0F82C01401E0F495B
:104C2000088000201249088010480C49098800EBD0
:104C30008100C0780C490988884206DB0A48008850
:104C4000401C0949088000205AE7002006490880D6
:104C5000012055E790000020841100209A000020D8
:104C60009C0000202400002096000020B8120020A4
:104C7000940000202C530008CC0A002008000020DB
:104C800000480040003801400D0A4F424420696E40
:104C90002066617374206D6F64652B2B0D0A000014
:104CA00070B504460D460CA12846FBF770FA06467F
:104CB0000F212846FDF778FE002800DB2EB90022E0
:104CC0002946A0B2FEF7DEF804E00122311DA0B2B1
:104CD000FEF7D8F870BD0000343131430000000009
:104CE00070B504460D460CA12846FBF750FA06465F
:104CF0000F212846FDF758FE002800DB2EB90022C0
:104D00002946A0B2FEF7BEF804E00122311DA0B290
:104D1000FEF7B8F870BD00003431313300000000F8
:104D200070B504460D460CA12846FBF730FA06463E
:104D30000F212846FDF738FE002800DB2EB900229F
:104D40002946A0B2FEF79EF804E00122311DA0B270
:104D5000FEF798F870BD00003431314400000000C7
:104D600070B504460D460CA12846FBF710FA06461E
:104D70000F212846FDF718FE002800DB2EB900227F
:104D80002946A0B2FEF77EF804E00122311DA0B250
:104D9000FEF778F870BD00003431353200000000B5
:104DA00070B504460D460CA12846FBF7F0F90646FF
:104DB0000F212846FDF7F8FD002800DB2EB9002260
:104DC0002946A0B2FEF75EF804E00122311DA0B230
:104DD000FEF758F870BD0000343131450000000086
:104DE00070B504460D460CA12846FBF7D0F90646DF
:104DF0000F212846FDF7D8FD002800DB2EB9002240
:104E00002946A0B2FEF73EF804E00122311DA0B20F
:104E1000FEF738F870BD0000343135410000000065
:104E200070B504460D460CA12846FBF7B0F90646BE
:104E30000F212846FDF7B8FD002800DB2EB900221F
:104E40002946A0B2FEF71EF804E00122311DA0B2EF
:104E5000FEF718F870BD0000343134350000000052
:104E600010B53FA0FDF782F90420FBF713FAA0F577
:104E7000B4415A3940D03DA0FDF778F901214FF0F7
:104E8000C050FCF743F90120FCF724F9FBF7F9F9CE
:104E90000120FCF771FA002401E0601C04B241F229
:104EA00088308442F9DB36A0FDF760F900BF61204D
:104EB000FCF72AFA0028FAD04FF40070FCF794FAB5
:104EC0000120FCF78BFAFCF761FBFCF755FB012195
:104ED0000846FCF715FBFCF74FFB49F64040FCF792
:104EE00039FBFCF749FB45F65A210420FBF7DAF9B8
:104EF00029A0FDF73BF931E02CA0FDF737F901209F
:104F00003149086001214FF0C050FCF7FFF8002440
:104F100001E0601C04B241F288308442F9DB7B205E
:104F2000FCF7F2F918B129A0FDF720F906E07A2084
:104F3000FCF7EAF910B129A0FDF718F9FCF70CF914
:104F40000120FCF719FA0120FCF748FAFCF71EFBD8
:104F500001210846FCF7D4FAFCF70EFB10BD000057
:104F60000D0A736574207274630D0A000D0A726570
:104F7000636F6E666967207274630D0A000000003B
:104F80000D0A7761697420666F72206C73692072F4
:104F9000656164790D0A00000D0A736574207274EE
:104FA00063206F7665720D0A000000000D0A6E6FB7
:104FB000206E65656420746F20636F6E666967207C
:104FC0007274630D0A0000001C0000200D0A506F6F
:104FD0007765722072657365740D0A000D0A52536D
:104FE000542072657365740D0A00000070B50446A4
:104FF0000D460CA12846FBF7CAF806460F212846A5
:10500000FDF7D2FC002800DB2EB900222946A0B211
:10501000FDF738FF04E00122311DA0B2FDF732FF99
:1050200070BD0000343131320000000070B504461C
:105030000D460CA12846FBF7AAF806460F21284684
:10504000FDF7B2FC002800DB2EB900222946A0B2F1
:10505000FDF718FF04E00122311DA0B2FDF712FF99
:1050600070BD0000343130360000000070B50446D9
:105070000D460CA12846FBF78AF806460F21284664
:10508000FDF792FC002800DB2EB900222946A0B2D1
:10509000FDF7F8FE04E00122311DA0B2FDF7F2FE9B
:1050A00070BD0000343130380000000070B5044697
:1050B0000D460CA12846FBF76AF806460F21284644
:1050C000FDF772FC002800DB2EB900222946A0B2B1
:1050D000FDF7D8FE04E00122311DA0B2FDF7D2FE9B
:1050E00070BD0000343135350000000070B5044655
:1050F0000D460CA12846FBF74AF806460F21284624
:10510000FDF752FC002800DB2EB900222946A0B290
:10511000FDF7B8FE04E00122311DA0B2FDF7B2FE9A
:1051200070BD0000343135370000000070B5044612
:105130000D460CA12846FBF72AF806460F21284603
:10514000FDF732FC002800DB2EB900222946A0B270
:10515000FDF798FE04E00122311DA0B2FDF792FE9A
:1051600070BD0000343130300000000070B50446DE
:105170000D460CA12846FBF70AF806460F212846E3
:10518000FDF712FC002800DB2EB900222946A0B250
:10519000FDF778FE04E00122311DA0B2FDF772FE9A
:1051A00070BD0000343132300000000070B504469C
:1051B0000D460CA12846FAF7EAFF06460F212846BD
:1051C000FDF7F2FB002800DB2EB900222946A0B231
:1051D000FDF758FE04E00122311DA0B2FDF752FE9A
:1051E00070BD0000343134300000000070B504465A
:1051F0000D460CA12846FAF7CAFF06460F2128469D
:10520000FDF7D2FB002800DB2EB900222946A0B210
:10521000FDF738FE04E00122311DA0B2FDF732FE99
:1052200070BD0000343134430000000070B5044606
:105230000D460CA12846FAF7AAFF06460F2128467C
:10524000FDF7B2FB002800DB2EB900222946A0B2F0
:10525000FDF718FE04E00122311DA0B2FDF712FE99
:1052600070BD0000343131310000000070B50446DB
:105270000D460CA12846FAF78AFF06460F2128465C
:10528000FDF792FB002800DB2EB900222946A0B2D0
:10529000FDF7F8FD04E00122311DA0B2FDF7F2FD9B
:1052A00070BD0000343130450000000070B5044688
:1052B0000D460CA12846FAF76AFF06460F2128463C
:1052C000FDF772FB002800DB2EB900222946A0B2B0
:1052D000FDF7D8FD04E00122311DA0B2FDF7D2FD9B
:1052E00070BD0000343130440000000070B5044649
:1052F0000D460CA12846FAF74AFF06460F2128461C
:10530000FDF752FB002800DB2EB900222946A0B28F
:10531000FDF7B8FD04E00122311DA0B2FDF7B2FD9A
:1053200070BD000034313330000000000000000088
:105330005245424F4F5400000000000000000000A2
:10534000000000000000000000000000000000005D
:10535000000000000000000000000000000000004D
:10536000000000000000000000000000000000003D
:1053700041545A0D00000000000000000000000031
:10538000000000000000000000000000000000001D
:105390000100000004000000C80000000000000040
:1053A00000000000000000004543484F204F4646E3
:1053B00000000000000000000000000000000000ED
:1053C00000000000000000000000000000000000DD
:1053D00000000000000000000000000000000000CD
:1053E0000000000000000000415445300D000000A6
:1053F00000000000000000000000000000000000AD
:105400000000000000000000010000000400000097
:10541000C8000000000000000000000000000000C4
:105420004543484F204F4E000000000000000000A0
:10543000000000000000000000000000000000006C
:10544000000000000000000000000000000000005C
:10545000000000000000000000000000000000004C
:10546000415445310D000000000000000000000024
:10547000000000000000000000000000000000002C
:105480000100000004000000C8000000000000004F
:1054900000000000000000004D454D4F5259204FC4
:1054A0004646000000000000000000000000000070
:1054B00000000000000000000000000000000000EC
:1054C00000000000000000000000000000000000DC
:1054D000000000000000000041544D300D000000AD
:1054E00000000000000000000000000000000000BC
:1054F00000000000000000000100000004000000A7
:10550000C8000000000000000000000000000000D3
:105510004C494E4546454544204F46460000000054
:10552000000000000000000000000000000000007B
:10553000000000000000000000000000000000006B
:10554000000000000000000000000000000000005B
:1055500041544C300D00000000000000000000002D
:10556000000000000000000000000000000000003B
:105570000100000004000000C8000000000000005E
:1055800000000000000000005052494E54205350CB
:1055900041434553204F46460000000000000000F4
:1055A00000000000000000000000000000000000FB
:1055B00000000000000000000000000000000000EB
:1055C0000000000000000000415453300D000000B6
:1055D00000000000000000000000000000000000CB
:1055E00000000000000000000100000004000000B6
:1055F000C8000000000000000000000000000000E3
:10560000444556494345204944310000000000000C
:10561000000000000000000000000000000000008A
:10562000000000000000000000000000000000007A
:10563000000000000000000000000000000000006A
:10564000415440310D000000000000000000000047
:10565000000000000000000000000000000000004A
:105660000100000004000000C8000000000000006D
:105670000000000065340008444556494345204970
:1056800044320000000000000000000000000000A4
:10569000000000000000000000000000000000000A
:1056A00000000000000000000000000000000000FA
:1056B0000000000000000000415440320D000000D6
:1056C00000000000000000000000000000000000DA
:1056D00000000000000000000100000004000000C5
:1056E000C8000000000000000000000000000000F2
:1056F000454C4D33323720494E464F0000000000E4
:105700000000000000000000000000000000000099
:105710000000000000000000000000000000000089
:105720000000000000000000000000000000000079
:105730004154490D0000000000000000000000007E
:105740000000000000000000000000000000000059
:105750000100000004000000C8000000000000007C
:10576000000000000000000053544E313131302061
:10577000494E464F000000000000000000000000FD
:105780000000000000000000000000000000000019
:105790000000000000000000000000000000000009
:1057A00000000000000000005354490D00000000FC
:1057B00000000000000000000000000000000000E9
:1057C00000000000000000000100000004000000D4
:1057D000C800000000000000000000000000000001
:1057E0003F3F3F3F3F3F000000000000000000003F
:1057F00000000000000000000000000000000000A9
:105800000000000000000000000000000000000098
:105810000000000000000000000000000000000088
:1058200041545050203045204F46460D00000000A6
:105830000000000000000000000000000000000068
:105840000100000004000000C8000000000000008B
:1058500000000000000000003F3F3F3F3F3F0000CE
:105860000000000000000000000000000000000038
:105870000000000000000000000000000000000028
:105880000000000000000000000000000000000018
:105890000000000000000000535420534C206F66AD
:1058A000662C6F6E0D00000000000000000000007C
:1058B00000000000000000000100000004000000E3
:1058C000C800000000000000000000000000000010
:1058D000535420534C206F66662C6F6E00000000FE
:1058E00000000000000000000000000000000000B8
:1058F00000000000000000000000000000000000A8
:105900000000000000000000000000000000000097
:10591000535420534C206F66662C6F6E0D000000B0
:105920000000000000000000000000000000000077
:105930000100000004000000C8000000000000009A
:105940000000000000000000535420534C55206F0D
:1059500066662C6F6E000000000000000000000072
:105960000000000000000000000000000000000037
:105970000000000000000000000000000000000027
:105980000000000000000000535420534C55206FCD
:1059900066662C6F6E0D0000000000000000000025
:1059A00000000000000000000100000004000000F2
:1059B000C80000000000000000000000000000001F
:1059C000535420534C564C206F66662C6F6E00006B
:1059D00000000000000000000000000000000000C7
:1059E00000000000000000000000000000000000B7
:1059F00000000000000000000000000000000000A7
:105A0000535420534C564C206F66662C6F6E0D001D
:105A10000000000000000000000000000000000086
:105A20000100000004000000C800000000000000A9
:105A30000000000000000000535420534C564C203E
:105A40006F66662C6F6E0000000000000000000012
:105A50000000000000000000000000000000000046
:105A60000000000000000000000000000000000036
:105A70000000000000000000535420534C56472003
:105A80006F66660D000000000000000000000000CE
:105A90000000000000000000010000000400000001
:105AA000C80000000000000000000000000000002E
:105AB0005052494E542041542050502053554D4D82
:105AC00041525900000000000000000000000000EA
:105AD00000000000000000000000000000000000C6
