:020000040800F2
:10000000E84A0020450100084D100008B10F000823
:100010002110000855040008912500080000000088
:100020000000000000000000000000008919000826
:100030005901000800000000CD120008FD1A000858
:100040005F0100085F0100085F010008BD1700089C
:100050005F0100085F01000865070008A9070008A4
:100060005F010008D10700085F0100085F01000878
:100070005F0100085F0100085F0100085F010008E0
:100080005F0100085F0100085F0100085F010008D0
:10009000912400085F0100085F01000809080008BA
:1000A0005F0100085F0100085F0100085F010008B0
:1000B000611B0008891B00085F0100085F01000840
:1000C0005F0100085F0100085F0100085F01000890
:1000D0005F010008411E0008BD1E0008611F0008E6
:1000E00091070008FD1500085F0100085F01000886
:1000F0005F0100085F0100085F0100085F01000860
:100100005F0100085F0100085F0100085F0100084F
:100110003D1D0008D91D00085F0100085F010008AF
:100120005F0100085F0100085F0100085F0100082F
:10013000DFF80CD000F034F900480047495A0008B5
:10014000E84A00200648804706480047FEE7FEE7E9
:10015000FEE7FEE7FEE7FEE7FEE7FEE7FEE7FEE777
:10016000011B00083101000840EA01039B0703D08E
:1001700009E008C9121F08C0042AFAD203E011F8E6
:10018000013B00F8013B521EF9D27047D2B201E0A8
:1001900000F8012B491EFBD270470022F6E710B58C
:1001A00004460846114602462046FFF7EFFF204668
:1001B00010BD034600E0401C0278002AFBD111F874
:1001C000012B00F8012B002AF9D11846704730B5F1
:1001D0000EE003460A4601E05B1C521C1C781578B1
:1001E000AC4201D1002CF7D115F0FF0F04D0401C18
:1001F0000278002AEDD1002030BD0146002000E049
:10020000401C0A5C002AFBD170472DE9F0470F46DD
:10021000914680460446002614F8015B2DB100F09B
:100220006DF80068405DC007F6D12B2D02D02D2D52
:1002300018D0641E4A463946204600F063F827B1BC
:100240003968A14201D1C7F8008071054FF002045E
:100250000BD54042002803DD02F0D4F90460A0076A
:10026000BDE8F08746F48066E4E70028F8DA02F09B
:10027000C9F904606FF00040F2E770B5064602F07D
:10028000C1F9046805460A2200213046FFF7BDFF88
:100290002C6070BD2DE9F05F0546002092469B461C
:1002A00088460646814640241DE02846414647468A
:1002B000224600F096F8B0EB0A0052465B4671EB1E
:1002C0000B0110D310461946224600F07BF82D1A78
:1002D00067EB01084F4622460120002100F072F82A
:1002E00017EB00094E41201EA4F10104DDDC484655
:1002F00031462A464346BDE8F09F0000004870475B
:10030000DCCE00082DE9F05F824604460078002725
:10031000641C8B461546B946302801D09DB113E0C8
:1003200014F8010B0127782803D0582801D045B1D3
:100330000AE00DB1102D07D10027102514F8010B8C
:1003400002E0082500E00A250026B0460EE005FB85
:10035000080005FB06F1012701EB10461FFA80F8A3
:10036000B6F5803F00D3B94614F8010B294600F0DA
:1003700048F80028EBDABBF1000F04D0641E07B97F
:100380005446CBF80040B9F1000F06D002F03AF91C
:1003900002210160C81EBDE8F09F48EA0640FAE766
:1003A000064C074D06E0E06840F0010394E80700C2
:1003B00098471034AC42F6D3FFF7BEFEE0CE0008FB
:1003C00000CF0008202A04DB203A00FA02F10020C6
:1003D00070479140C2F1200320FA03F31943904083
:1003E0007047202A04DB203A21FA02F000217047EE
:1003F00021FA02F3D040C2F120029140084319468D
:1004000070473A2800D2303820F02002412A01D328
:10041000A2F137004FF0FF32884200D20246104668
:10042000704710B5012000F087FF002000F084FF26
:1004300010BD000001460022014A0A44108870479E
:10044000006C00400022024A024411607047000024
:10045000006C00400AE006A002F0B0F872B671B677
:100460004FF4FA6003F0ACFA00F014FFF3E7000079
:100470000D0A4552524F525F4255530D0A0000007B
:10048000B1F5007F3AD00FDC202928D006DC012905
:100490001CD004291DD0082940D11DE0402921D0BD
:1004A000B1F5807F3AD126E0B1F5004F31D006DCBE
:1004B000B1F5806F25D0B1F5006F2FD124E0B1F5F3
:1004C000803F12D0B1F5003F28D111E0154A82607B
:1004D00025E00822C26022E01022C2601FE008224C
:1004E00002611CE01022026119E00822426016E05D
:1004F0001022426013E00422426010E004224260B5
:100500000DE0042242600AE000228261042242607F
:1005100005E0002282610422426000E000BF00BFCB
:10052000704700000101010021B9C26842F02002B9
:10053000C26003E0026942F02002026170470000DD
:1005400070B504460D4600266069284271D0B5F5A5
:10055000807F5CD010DC082D35D006DC012D20D04A
:10056000022D24D0042D77D127E0102D31D0202D5D
:1005700035D0402D70D138E0B5F5004F60D009DCA2
:10058000B5F5007F49D0B5F5806F4CD0B5F5006F5B
:1005900062D14FE0B5F5803F2DD0B5F5003F5BD17E
:1005A0002FE0A0682F4900F0D4F8064656E0E06836
:1005B000032100F0CEF8064650E0E068082100F084
:1005C000C8F806464AE0E068102100F0C2F8064686
:1005D00044E02069032100F0BCF806463EE02069B3
:1005E000082100F0B6F8064638E02069102100F036
:1005F000B0F8064632E06068082100F0AAF8064626
:100600002CE06068102100F0A4F8064626E0A069FE
:10061000012100F09EF8064620E0A069022100F0CA
:1006200098F806461AE0A069042100F092F8064600
:1006300014E014E0A069702100F08BF806460DE08C
:10064000A069772100F085F806466068042100F073
:1006500080F8064302E0FFE7002600BF00E0002626
:10066000304670BD0101010030B504460D46134609
:1006700004F5D87000EB0510006800F00400187253
:10068000187A50B904F5D87000EB0510006840F2F4
:10069000FF7101EA5050186009E004F5D87000EBD2
:1006A000051000686FF0604101EAD000586004F561
:1006B000D87000EB0510006800F00200587204F5D5
:1006C000D87000EB0510406800F00F00987204F538
:1006D000D87000EB05104068000AD87404F5D87093
:1006E00000EB05108068D87204F5D87000EB051097
:1006F0008068000A187304F5D87000EB0510806854
:10070000000C587304F5D87000EB05108068000EDB
:10071000987304F5D87000EB0510C068D87304F521
:10072000D87000EB0510C068000A187404F5D87082
:1007300000EB0510C068000C587404F5D87000EB8D
:100740000510C068000E987429462046FFF7ECFE9D
:1007500030BD024600200A4201D0012000E0002006
:100760007047000010B5C82003F02AF9012000F0FE
:10077000B1F828B1012000F053F802A001F01EFFEB
:1007800010BD00000D0A6B6579300D0A00000000F5
:1007900010B502A001F012FF10BD00000D0A746533
:1007A00073740D0A0000000010B5022000F092F8EA
:1007B00028B1022000F034F801A001F0FFFE10BDC6
:1007C0000D0ABDF8C8EBD6D0B6CF310D0A00000037
:1007D00010B5082000F07EF828B1082000F020F8BD
:1007E00001A001F0EBFE10BD0D0ABDF8C8EBC0B6CC
:1007F000D1C0D7B4CCACB1E4BBAFD6D0B6CFA3A1F7
:10080000A3A1A3A10D0A000010B54FF4807000F061
:1008100061F818B14FF4807000F002F810BD0000CC
:100820000149086070470000140401401CB54FF4F2
:100830000030FFF7F5FF4FF40030009000208DF8F6
:10084000040008208DF8050001208DF80600684698
:1008500000F056F80021084600F0AAFA0120FFF740
:10086000DFFF0120009000208DF804000C208DF89F
:10087000050001208DF80600684600F041F80121CE
:10088000002000F095FA0220FFF7CAFF0220009036
:1008900000208DF804000C208DF8050001208DF853
:1008A0000600684600F02CF80321042000F080FACE
:1008B0000820FFF7B5FF0820009000208DF8040005
:1008C00010208DF8050001208DF80600684600F024
:1008D00017F81CBD014600200022074B1B6803EAE5
:1008E0000102064BD3F814340B4202D00AB10120A6
:1008F00000E00020704700000004014000000140BB
:10090000002127498279DAB3264AD2F80024036805
:100910009A43244BC3F800241A46D2F804240368EF
:100920009A4301F104031A60027911440A680368CA
:1009300042EA03020A601B4AD2F80824036822EA4A
:100940000302184BC3F808241A46D2F80C24036893
:1009500022EA0302144B1A604279102A11D1114A7B
:10096000D2F8082403681A430E4BC3F808241A4629
:10097000D2F80C2403681A430A4BC3F80C240EE087
:1009800007E00749427911440A6803681A430A607C
:1009900005E0027911440A6803689A430A607047C7
:1009A00000040140000001400C04014005490968B1
:1009B00021F01001034A11601146096801431160DA
:1009C000704700000020024001460020034A1068E2
:1009D00000F038000843106070470000002002401B
:1009E00008B5012144F27D0000F096FC0121EC489D
:1009F00000F082FC4FF6FF70ADF8000000208DF88B
:100A0000030003208DF802004FF40070ADF80000E1
:100A100018208DF8030003208DF802006946E14894
:100A200000F0E6F94FF48060ADF8000004208DF886
:100A300003006946DB4800F0DBF90420ADF8000054
:100A400018208DF8030003208DF802006946D54870
:100A500000F0CEF90820ADF8000004208DF8030066
:100A60006946D04800F0C4F94FF40060ADF80000CA
:100A700004208DF803006946CB4800F0B9F94FF423
:100A80008060ADF8000018208DF8030003208DF879
:100A900002006946C54800F0ABF94FF40060ADF8BC
:100AA000000004208DF8030003208DF80200694641
:100AB000BE4800F09DF94FF48060ADF800001820AA
:100AC0008DF8030003208DF802006946B64800F057
:100AD0008FF94FF40060ADF8000004208DF803009A
:100AE00003208DF802006946AF4800F081F9032029
:100AF0008DF802004FF40060ADF8000048208DF83A
:100B000003006946A74800F073F94FF48050ADF830
:100B1000000018208DF803006946A24800F068F92B
:100B20000820ADF8000010208DF8030003208DF898
:100B3000020069469C4800F05BF9002208219A48AF
:100B400000F031FA1020ADF800008DF8030003200A
:100B50008DF802006946944800F04AF900221021FD
:100B6000914800F020FA2020ADF8000010208DF808
:100B7000030003208DF8020069468B4800F038F925
:100B800000222021884800F00EFA0120ADF8000074
:100B900004208DF8030003208DF802006946814887
:100BA00000F026F90120ADF8000048208DF8030080
:100BB00003208DF8020069467C4800F019F94FF4D3
:100BC0000050ADF8000010208DF8030003208DF8D0
:100BD00002006946744800F00BF901225103724883
:100BE00000F0E1F91020ADF8000014208DF80300AA
:100BF00003208DF8020069466A4800F0F9F80122E6
:100C00001021684800F0CFF94020ADF80000102016
:100C10008DF8030003208DF802006946614800F05A
:100C2000E7F8002240215F4800F0BDF90820ADF848
:100C3000000010208DF8030003208DF802006946A3
:100C40005A4800F0D5F800220821584800F0ABF9C6
:100C50004FF48050ADF8000010208DF80300032001
:100C60008DF802006946504800F0C2F800224FF4A7
:100C700080514D4800F097F94FF40040ADF8000066
:100C800010208DF8030003208DF8020069464648C5
:100C900000F0AEF80122D103434800F084F94FF48C
:100CA0008040ADF8000010208DF8030003208DF87F
:100CB000020069463C4800F09BF8012291033A4843
:100CC00000F071F90220ADF8000010208DF803004B
:100CD00003208DF802006946324800F089F80022AE
:100CE0000221304800F05FF98020ADF80000482074
:100CF0008DF8030003208DF8020069462A4800F0B1
:100D000077F84020ADF8000010208DF80300032094
:100D10008DF802006946244800F06AF8002240215C
:100D2000214800F040F94FF48070ADF80000102029
:100D30008DF8030003208DF8020069461A4800F080
:100D400057F800224FF48071174800F02CF94FF447
:100D50000070ADF8000010208DF8030003208DF81E
:100D600002006946104800F043F800224FF4007179
:100D70000D4800F018F94FF40050ADF800001020B5
:100D80008DF8030003208DF802006946074800F043
:100D90002FF800224FF40051044800F004F908BD78
:100DA00002001E1A00080140000C01400010014022
:100DB00030B500228B071C0F0F2303FA04F20B4BF4
:100DC0008C1053F824309343084C8D1044F8253090
:100DD00023468C1053F824308C07240F00FA04F4B7
:100DE0002343024C8D1044F8253030BD08000140EB
:100DF0002DE9F041024600250026002000230024B2
:100E0000002791F803C00CF00F0591F803C01CF007
:100E1000100F03D091F802C04CEA0505B1F800C0EC
:100E20001CF0FF0F31D0146800202BE04FF0010CB4
:100E30000CFA00F3B1F800C00CEA03069E4220D180
:100E400083004FF00F0C0CFA03F7BC4305FA03FCC8
:100E50004CEA040491F803C0BCF1280F06D14FF00E
:100E6000010C0CFA00FCC2F814C00AE091F803C0AF
:100E7000BCF1480F05D14FF0010C0CFA00FCC2F890
:100E800010C0401C0828D1D31460B1F800C0BCF1D8
:100E9000FF0F34DD546800202EE000F1080C4FF005
:100EA000010808FA0CF3B1F800C00CEA03069E42F0
:100EB00021D183004FF00F0C0CFA03F7BC4305FA65
:100EC00003FC4CEA040491F803C0BCF1280F05D1DF
:100ED00000F1080C08FA0CF8C2F8148091F803C06D
:100EE000BCF1480F07D100F1080C4FF0010808FAD7
:100EF0000CF8C2F81080401C0828CED35460BDE81E
:100F0000F0810000F0B50A460023002400210025EE
:100F100000F00046B6F1004F02D11D4EF16901E02C
:100F20001B4E7168C0F3034583B200F44016B6F55A
:100F3000401F08D121F07061154E766826F070666A
:100F4000134F7E6012E000F48016B6F5801F06D1C4
:100F5000032606FA05F4A14341F0706106E0460D50
:100F6000360103FA06F6B14341F0706122B1460D35
:100F7000360103FA06F6314300F00046B6F1004FA1
:100F800002D1034EF16101E0014E7160F0BD00003D
:100F9000000001400246002093680B4201D001206E
:100FA00000E0002070470AB1016100E04161704734
:100FB0000AE006A001F002FB72B671B64FF4FA60C7
:100FC00002F0FEFC00F066F9F3E700000D0A45525E
:100FD000524F525F484152445F4641554C540D0AAE
:100FE000000000000146CA1701EB92729210B1EBAB
:100FF000820212D1642091FBF0F200FB121050B972
:101000004FF4C87091FBF0F200FB121008B90120F8
:1010100070470020FCE70120FAE70020F8E7000015
:101020000AE006A001F0CAFA72B671B64FF4FA608F
:1010300002F0C6FC00F02EF9F3E700000D0A45525D
:10104000524F525F4D454D0D0A00000005A001F0C2
:10105000B5FA72B671B64FF4FA6002F0B1FC00F066
:1010600019F900000D0A4552524F525F4E4D490D7D
:101070000A00000008B54FF4E06000F001F92520F7
:101080008DF8000002208DF8010000208DF802008C
:1010900001208DF80300684600F0B0F84FF4E060DE
:1010A00000F0EEF826208DF8000000208DF80100F9
:1010B0008DF8020001208DF80300684600F09EF8CC
:1010C0004FF4E06000F0DCF827208DF800000120EC
:1010D0008DF8010000208DF8020001208DF803003A
:1010E000684600F08BF84FF4E06000F0C9F8342057
:1010F0008DF8000001208DF8010000208DF802001D
:1011000001208DF80300684600F078F84FF4E060A5
:1011100000F0B6F835208DF8000001208DF80100B0
:1011200000208DF8020001208DF80300684600F0D1
:1011300065F84FF4C06000F0A3F829208DF8000096
:1011400000208DF801008DF802008DF8030068463C
:1011500000F054F84FF4C06000F092F806208DF8CB
:10116000000000208DF801008DF802008DF80300CA
:10117000684600F043F84FF4C06000F081F8282082
:101180008DF8000000208DF801008DF802008DF828
:101190000300684600F032F84FF4C06000F070F8C9
:1011A00009208DF8000000208DF801008DF8020064
:1011B0008DF80300684600F021F84FF4A06000F0BD
:1011C0005FF81D208DF8000000208DF801008DF8DB
:1011D000020001208DF80300684600F00FF814208B
:1011E0008DF8000000208DF801008DF8020001202C
:1011F0008DF80300684600F001F808BD70B50021C5
:1012000000230F22C4784CB31A4C246804F4E06421
:10121000C4F5E0644FEA1421C1F1040322FA01F29B
:10122000447804FA03F1847804EA020444EA0101F0
:101230004FEA0111104C0678A155047804F01F05FF
:101240004FF0010404FA05F405784FEA65154FF0F4
:10125000E02606EB8505C5F8004109E0047804F0B6
:101260001F050124AC40054D0678761145F826404F
:1012700070BD00000CED00E000E400E080E100E063
:1012800002490143024A1160704700000000FA055C
:101290000CED00E00848006800F4E060074940EA0F
:1012A000010000F104004FF0E021C1F80C0DBFF384
:1012B000408F00BFFEE700000CED00E00000FA05E3
:1012C000014908627047000000000E4205A001F0CD
:1012D00075F972B671B64FF4FA6002F071FBFFF760
:1012E000D9FF00000D0A4552524F525F50454E44FF
:1012F00053560D0A0000000029B1064AD269024384
:10130000044BDA6104E0034AD2698243014BDA619B
:10131000704700000010024029B1064A926902435A
:10132000044B9A6104E0034A92698243014B9A613B
:10133000704700000010024001490860704700003B
:10134000400442420348406A40F0807001494862CC
:10135000704700000010024010B500F03BF801207B
:1013600000F0FAF800BF212000F0C4F80028FAD0FD
:101370001020FFF71BFB0220FFF726FB002000F0E8
:10138000DFF8002000F000F9002000F0F1F84FF441
:101390006011002000F00AF9012000F001F900BFFF
:1013A000392000F0A7F80028FAD0022000F01AF93E
:1013B00000BF00F0BDF80828FBD1012144F27D00F8
:1013C000FFF7AAFF01210248FFF796FF10BD0000BA
:1013D00002001E1A0F48006840F001000D49086025
:1013E000084640680C4908400A49486008460068B9
:1013F0000A490840074908600846006820F4802030
:1014000008600846406820F4FE0048604FF41F0062
:1014100088607047001002400000FFF8FFFFF6FEF2
:1014200030B500210022002400232D4D6D6805F009
:101430000C0121B1042905D0082923D105E0294D4B
:10144000056022E0274D05601FE0254D6D6805F41D
:101450007012234D6D6805F48034022505EB92422D
:101460001CB9214D554305600BE01D4D6D6815F409
:10147000003F03D01C4D5543056002E0194D554314
:10148000056002E0174D056000BF00BF144D6D6898
:1014900005F0F0010909154D6B5C0568DD404560FC
:1014A0000F4D6D6805F4E061090A104D6B5C4568ED
:1014B000DD4085600A4D6D6805F46051C90A0B4D29
:1014C0006B5C4568DD40C560054D6D6805F44041C5
:1014D000890B074D6B5CC568B5FBF3F5056130BD45
:1014E0000010024000127A0000093D003C0000207C
:1014F0004C00002010B501460022002300204A11B4
:10150000012A02D1094C236806E0022A02D1074CC5
:10151000236A01E0054C636A01F01F020124944034
:101520001C4201D0012000E0002010BD001002404C
:101530000248406800F00C007047000000100240B4
:1015400001460020034A506820F0F0000843506034
:101550007047000000100240014908607047000019
:101560000000424201490860704700008004424286
:1015700001460020034A506820F4E06008435060B0
:10158000704700000010024001460020034A5068E6
:1015900020F4605040EAC1005060704700100240E3
:1015A00001490866704700000000424202460020E0
:1015B000044B586820F47C1042EA01031843014BA5
:1015C00058607047001002400149086070470000F1
:1015D0003C0442420249096A0143014A11627047D0
:1015E0000010024001460020034A506820F003002A
:1015F00008435060704700000010024010B5022000
:1016000000F0C6F850B14FF40030FFF709F900F0D0
:101610009DF9022000F004F800F098F910BD0000D8
:10162000054909886FEA000292B201EA0201034A01
:10163000A2F8041870470000042800400020004071
:101640000348008840F010000249A1F804087047E0
:101650000428004000200040044800884FF6EF7145
:1016600000EA01000249A1F804087047042800407C
:101670000020004070B500260024002500F07AF814
:1016800006463848B6FBF0F43748B0F90000A042EF
:1016900040D020B23449088040F2B27510E02846AC
:1016A000FFF7A0FC40B1B4F5B77F02D9A4F5B77439
:1016B00004E0681C05B206E0A4F26D14681C05B2D3
:1016C000B4F5B67FEBD800BF28480580002517E0A9
:1016D0002649B1F90000FFF785FC30B1012D04D196
:1016E0001D2C01D91D3C09E00CE021484057A042C7
:1016F00003D81F484057241A00E003E0681C05B2D5
:101700001C2CE5D200BF681C40B218498870601CD0
:1017100040B2C8701348B6FBF0F100FB11644FF4FF
:101720006160B4FBF0F040B2104908714FF46160A1
:10173000B4FBF0F100FB11403C21B0FBF1F040B2F2
:101740000A4948714FF46160B4FBF0F100FB1140AD
:101750003C21B0FBF1F201FB120040B20349887159
:10176000012070BD80510100AA0000202800002047
:101770007CCB00080021044801880448B0F8180810
:1017800041EA0040704700001C2800400020004053
:1017900001460020074A128802EA0102D0B2064A36
:1017A000B2F800280A4202D008B1012000E000206F
:1017B00070470000042800400020004010B50120C0
:1017C000FFF7E6FF70B10120FFF72AFF00F0BEF837
:1017D000FFF7D0FF0449884204D1002000F092F8BE
:1017E00000F0B4F810BD00008051010039B1094A81
:1017F000128842EA0002084BA3F8002809E0054AD3
:1018000012886FEA00039BB202EA0302024BA3F8BC
:101810000028704700280040002000402DE9F05FBC
:1018200006460F4690469946DDE90AAB0024B6F518
:10183000FA6F03DB40F63300864202DD0120BDE88B
:10184000F09F40F2B2750AE02846FFF7CBFB10B1DB
:101850002148044401E021480444681C05B2B54213
:10186000F2DB781E47B2002510E01D48405740F2D9
:10187000A321484304EBC0143046FFF7B3FB18B173
:10188000012D01D117480444681C05B2BD42ECDBB0
:10189000A8F1010040F2A321484304EBC014C9EBB6
:1018A0004910C0EB092004EB0014CAEB0A1004EB4A
:1018B00080045C440CA000F081FE0120FFF700FDD5
:1018C00000F044F8204600F01DF800F03FF809A0B1
:1018D00000F074FE0020B2E70085E2018033E101F0
:1018E0007CCB0008805101000D0A4920616D206FFA
:1018F0006B0D0A000D0A4920616D206F6B320D0AD5
:101900000000000000B50246FFF79AFE100C0449E3
:1019100008800449A1F81C28FFF79EFE00BD0000C6
:10192000182800400020004000B50246FFF788FE5E
:10193000C2F30340034908800349A1F80C28FFF7CC
:101940008BFE00BD082800400020004000BF034877
:10195000008810F0200FFAD07047000004280040E3
:10196000074800884FF6F77100EA01000549A1F821
:10197000040800BF0248008810F0080FFAD0704732
:10198000042800400020004005A000F017FE72B6B9
:1019900071B64FF4FA6002F013F8FFF77BFC000019
:1019A0000D0A4552524F525F5356430D0A00000034
:1019B0002DE9F04104460F4616464FF4967117483C
:1019C000FEF7EBFB00201649086000250BE0615D87
:1019D000144800F058FD00BF4021124800F086FC7A
:1019E0000028F9D06D1C605D0028F0D1012208218B
:1019F0000D48FFF7D8FA304601F0E2FF0022082137
:101A00000948FFF7D0FA39460448FEF7E0FB10B169
:101A10000120BDE8F0810020FBE70000080600205F
:101A20000400002000440040000C014010B500F00C
:101A300001F810BD002100202E4A126842F48032C5
:101A40002C4B1A6000BF2B4A126802F40030491C6C
:101A500010B9B1F5A06FF6D1264A126812F4003F12
:101A600001D0012000E00020012842D1224A126862
:101A700042F01002204B1A601A46126822F003024C
:101A80001A601A46126842F002021A60194A526835
:101A9000184B5A601A4652685A601A46526842F405
:101AA00080625A601A46526822F47C125A601A46C2
:101AB000526842F4E8125A601A46126842F0807284
:101AC0001A6000BF0B4A126812F0007FFAD0094A70
:101AD000526822F00302074B5A601A46526842F0DD
:101AE00002025A6000BF034A526802F00C02082A40
:101AF000F9D17047001002400020024070470000FA
:101B000010B51348006840F001001149086008460C
:101B10004068104908400E494860084600680E4970
:101B200008400B4908600846006820F480200860DF
:101B30000846406820F4FE0048604FF41F008860AB
:101B4000FFF774FF4FF000600449086010BD00000B
:101B5000001002400000FFF8FFFFF6FE08ED00E075
:101B600010B50121880700F079F860B101218807DC
:101B700000F03EF800214FF0804000F03CF80020DB
:101B80004FF08041888410BD10B501210F4800F04E
:101B900065F8C8B101210D4800F02AF804F03AFCBC
:101BA0000B48006840B9012210210A48FFF7FBF9F1
:101BB00001200749086007E0002210210548FFF7CF
:101BC000F2F900200249086010BD00000004004046
:101BD00038000020000C014021B1028842F0800250
:101BE000028004E002884FF67F731A40028070473B
:101BF000CA430282704721B1028842F0010202808A
:101C000004E002884FF6FE731A400280704700001D
:101C10000EB542F21070ADF804004FF4E150ADF88B
:101C200000000020ADF80600ADF8020069460A4841
:101C300000F032F801210848FFF7CEFF01210648E5
:101C4000FFF7D6FF01221146034800F018F80121E2
:101C50000148FFF7D0FF0EBD0004004030B502463A
:101C6000002000230024158A05EA0103958905EA6E
:101C7000010413B10CB1012000E0002030BD10B50B
:101C80001AB183890B43838104E08389CC43A4B2D6
:101C90002340838110BD0000002202881D4B984222
:101CA0000ED01D4B98420BD0B0F1804F08D01B4B8B
:101CB000984205D01A4B984202D01A4B984204D150
:101CC0004FF68F731A404B881A43174B984207D030
:101CD000164B984204D04FF6FF431A40CB881A4364
:101CE00002808B8883850B8803850A4B98420BD032
:101CF000094B984208D00E4B984205D00D4B9842A4
:101D000002D00D4B984201D10B7A038601238382C6
:101D100070470000002C01400034014000040040E6
:101D200000080040000C004000100040001400407B
:101D300000400140004401400048014010B5082126
:101D40001E4800F0D3FA30B108211C4800F064F9B5
:101D50001A4800F093FB40F22551184800F0D3FADE
:101D600030B3164800F08AFBC4B215480168006819
:101D7000401C134A10601348445400201149126853
:101D800088540F480068B0F5967F02D900200C49AE
:101D900008600D480068042803D121460B4800F074
:101DA00072FB0B48006818B121460A4800F06BFB33
:101DB0002021024800F030F910BD0000004C004026
:101DC0000C000020480C00201400002000380140C6
:101DD000200000200048004010B50821154800F000
:101DE00085FA30B10821134800F016F9114800F0C7
:101DF00045FB40F225510F4800F085FAA8B10D4887
:101E000000F03CFBC4B2204602F0EAFC0A4800683D
:101E100005280AD12146094800F035FB00BF4021C2
:101E2000064800F063FA0028F9D02021014800F0AC
:101E3000F3F810BD005000401400002000380140AD
:101E400010B50821194800F051FA30B1082117489F
:101E500000F0E2F8154800F011FB40F2255113485C
:101E600000F051FAE0B1114800F008FB1049087089
:101E7000084601780F4802680068401C0D4B186046
:101E80000D48815400200C491A461268885418469F
:101E9000006840F21451884202D9002019460860B7
:101EA0002021024800F0B8F810BD000000380140C1
:101EB0003400002000000020F400002010B50821AC
:101EC000214800F013FA30B108211F4800F0A4F8AF
:101ED0001D4800F0D3FA40F225511B4800F013FAD8
:101EE00080B3194800F0CAFA184908701848006809
:101EF00002280BD108460178164800F0C4FA00BF4A
:101F00004021144800F0F2F90028F9D00F48017878
:101F1000114802680068401C0F4B18600F4881543C
:101F200000200E491A46126888541846006840F28C
:101F30001451884202D90020194608602021024825
:101F400000F06AF810BD0000004400403500002099
:101F50001400002000380140040000200806002082
:101F600010B50821254800F0C1F930B108212348F7
:101F700000F052F8214800F081FA40F225511F4844
:101F800000F0C1F9A0B31D4800F078FAC4B21C48B3
:101F9000006803280AD121461A4800F074FA00BFED
:101FA0004021184800F0A2F90028F9D0164801682D
:101FB0000068401C144A106014484454002013491F
:101FC0001268885410480068B0F5967F02D9002046
:101FD0000D4908600E48006850B121460D4800F0D8
:101FE00052FA00BF4021074800F080F90028F9D0DC
:101FF0002021024800F010F810BD00000048004009
:102000001400002000380140080000201C0B0020B4
:1020100020000020004C004001F40072B2F5007F67
:1020200000D100BFCA430280704721B1828942F4C7
:102030000052828104E082894DF6FF731A4082814A
:102040007047000000B585B0012144F20400FFF79D
:1020500063F94FF40070ADF8100018208DF81300EC
:1020600003208DF8120004A99748FEF7C1FE4FF433
:102070008060ADF8100004208DF8130003208DF867
:10208000120004A99048FEF7B3FE4FF47A30009096
:102090000020ADF80400ADF80600ADF80800ADF87A
:1020A0000C000C20ADF80A006946884800F07AF967
:1020B000012240F22551854800F04FF90121834863
:1020C000FFF7B3FF01214804FFF716F901210420AF
:1020D000FFF722F90420ADF8100018208DF8130046
:1020E00003208DF8120004A97748FEF781FE08202E
:1020F000ADF8100004208DF8130003208DF81200B5
:1021000004A97148FEF774FE4FF4E13000900020FE
:10211000ADF80400ADF80600ADF80800ADF80C000D
:102120000C20ADF80A006946694800F03BF901222D
:1021300040F22551664800F010F901216448FFF78C
:1021400074FF01218804FFF7D7F801210820FFF769
:10215000E3F84FF48060ADF8100018208DF81300FC
:1021600003208DF8120004A95A48FEF741FE4FF4EF
:102170000060ADF8100028208DF8130003208DF8C2
:10218000120004A95348FEF733FE4FF416400090A6
:102190000020ADF80400ADF80600ADF80800ADF879
:1021A0000C000C20ADF80A0069464B4800F0FAF824
:1021B000012240F22551484800F0CFF8012146485D
:1021C000FFF733FF0121C804FFF796F80121102023
:1021D000FFF7A2F84FF48060ADF8100018208DF8DA
:1021E000130003208DF8120004A93C48FEF700FEFE
:1021F0004FF40060ADF8100004208DF813000320A8
:102200008DF8120004A93548FEF7F2FD4FF4164090
:1022100000900020ADF80400ADF80600ADF808000D
:10222000ADF80C000C20ADF80A0069462C4800F00F
:10223000B9F8012240F22551294800F08EF8012119
:102240002748FFF7F2FE01210805FFF755F80121A5
:102250003020FFF761F84FF48050ADF810001820DF
:102260008DF8130003208DF8120004A91B48FEF717
:10227000BFFD0420ADF810008DF8130003208DF889
:10228000120004A91748FEF7B3FD4FF41650009052
:102290000020ADF80400ADF80600ADF80800ADF878
:1022A0000C000C20ADF80A0069460F4800F07AF8DF
:1022B000012240F225510C4800F04FF801210A4854
:1022C000FFF7B3FE05B000BD000801400038014033
:1022D00000440040000C0140004800400010014054
:1022E000004C004000140140005000400246002015
:1022F000B1F5007F00D100BF13880B4201D001204F
:1023000000E00020704770B502460024002300253D
:102310000020A1F510666A3E00D100BFC1F342154E
:1023200001F01F03012606FA03F3012D02D196895D
:10233000334006E0022D02D1168A334001E0968A2E
:1023400033400C12012606FA04F41688344013B107
:102350000CB1012000E0002070BDF0B50346002460
:10236000002600250020A1F510676A3F00D100BFBC
:102370001846C1F3421401F01F06012707FA06F5BB
:10238000012C01D10C3004E0022C01D1103000E00E
:1023900014301AB107682F43076002E00768AF43A3
:1023A0000760F0BD2DE9F04786B005460E460024D3
:1023B000A24600BFA1460027B08900B100BF2F464A
:1023C0002C8A4CF6FF700440F08804432C82AC89C0
:1023D0004EF6F3100440B0883189084371890843F0
:1023E0000443AC81AC8A4FF6FF400440B0890443FB
:1023F000AC8201A8FFF714F81F48874202D1DDF82C
:1024000010A001E0DDF80CA0A88910F4004F08D05E
:102410000AEBCA0000EB0A1031684900B0FBF1F882
:1024200007E00AEBCA0000EB0A1031688900B0FB34
:10243000F1F86420B8FBF0F004012009642101FBED
:102440001089A88910F4004F08D0322000EBC90091
:10245000B0FBF1F000F00700044308E0322000EB8D
:1024600009106421B0FBF1F000F00F0004432C814F
:1024700006B0BDE8F08700000038014001468888BA
:10248000C0F308007047C1F3080282807047000063
:1024900000B585B0002201212848FEF784FD0821FF
:1024A0002748FEF74DF860B126A000F087F86A468D
:1024B00000212348FEF7D8F808212148FDF7E0FF66
:1024C00000BF40211E48FEF73BF860B122A000F09B
:1024D00075F86A4601211A48FEF7C6F840211848E7
:1024E000FDF7CEFF00BF02211548FEF729F860B1C5
:1024F0006A4600211248FEF7B7F81CA000F05EF80B
:1025000002210F48FDF7BCFF00BF10210C48FEF769
:1025100017F860B119A000F051F86A460121084887
:10252000FEF7A2F810210648FDF7AAFF00BF01221E
:1025300011460248FEF737FD05B000BD000C014012
:10254000006400400D0A43414E206572726F723183
:1025500021210D0A000000000D0A43414E20657242
:10256000726F723221210D0A000000000D0A4341F2
:102570004E206F6B21210D0A000000000D0A43411F
:102580004E206572726F723321210D0A0000000027
:102590000AE006A000F012F872B671B64FF4FA60C5
:1025A00001F00EFAFEF776FEF3E700000D0A455241
:1025B000524F525F55534147450D0A000FB4054B2A
:1025C00010B503A9044A029800F030F810BC5DF879
:1025D00014FB0000C5410008EC0000200FB4084BBC
:1025E00010B504A902AA039800F020F8044602A935
:1025F000002000F059FA204610BC5DF814FB0000E2
:10260000A92A000800487047F000002002E008C82E
:10261000121F08C1002AFAD170477047002001E05C
:1026200001C1121F002AFBD1704700002DE9FF4FA6
:102630008DB005460F460026EEE1252879D100240D
:102640006D1CF94AA246A14601212B78203B01FAD4
:1026500003F0104202D004436D1CF6E728782A28C4
:1026600010D06FF02F022878A0F13001092915D879
:102670000AEB8A0102EB410144F0020400EB010A7B
:102680006D1CF0E757F804ABBAF1000F03DA44F41D
:102690000054CAF1000A44F002046D1C28782E2868
:1026A00017D115F8010F44F004042A280ED06FF05A
:1026B0002F022878A0F1300109290AD809EB8901F5
:1026C00002EB410100EB01096D1CF2E757F8049B96
:1026D0006D1C28786C280FD006DC4C2817D0682891
:1026E0000DD06A2814D104E0742810D07A280FD1B4
:1026F0000DE044F400140AE044F4801401E044F4D2
:1027000040146978814202D16D1C04F580146D1C5F
:1027100095F800C0BCF16E0F2AD012DCBCF1630F3B
:102720003CD007DCBCF1000F76D0BCF1580F19D1BA
:10273000ACE018E0BCF1640F6FD0BCF1690F11D1AF
:102740006BE0BCF1730F32D006DCBCF16F0F71D0BF
:10275000BCF1700F06D19BE0BCF1750F6BD0BCF1E2
:10276000780F69D06046DDE90F129047761C52E180
:10277000C4F30250022806D003280AD0042801CF4F
:102780000AD0066047E101CF4FEAE671C0E9006177
:1027900041E101CF06803EE106703CE101CF8DF8BA
:1027A000000000208DF80100EB46012003E057F8FF
:1027B00004BB4FF0FF3061074FF0000102D40DE081
:1027C00008F10101884649450FDA8045F8DB1BF81E
:1027D00008100029F4D108E008F10101884681427F
:1027E000FADB1BF808100029F6D1DDE90F23AAEB6C
:1027F00008008146214600F040F9304400EB08060D
:1028000004E0DDE90F121BF8010B9047B8F1010855
:10281000F7D221464846F9E002E10A20C4F3025209
:102820004FF0000B0890022A07D001CFC117032AEE
:1028300009D00AE035E022E023E0FF1D27F007077A
:10284000F7E8020105E000B2C117042A01D140B245
:10285000C117002906DA0023D0EB030063EB010166
:102860002D2202E0220504D52B228DF824200122FE
:1028700003E0E20701D02022F7E7904653E00A2167
:1028800010E010204FF0000B08900EE0102109E03E
:1028900010214FF0000B44F004044FF00809089198
:1028A00003E008214FF0000B0891C4F30252022A02
:1028B00004D001CF0021032A06D007E0FF1D27F036
:1028C0000707F7E8020105E080B20021042A01D1E0
:1028D000C0B200214FF00008220724D5BCF1700FD0
:1028E0002AD0089B83F0100353EA0B0309D150EA66
:1028F000010206D030228DF824208DF825C0022256
:102900009046089B83F0080353EA0B030BD150EA6F
:10291000010201D1620706D530228DF824204FF044
:102920000108A9F1010941A2BCF1580F00D044A24D
:102930000B9208AA0A920FE040228DF8242001226F
:10294000DEE75B46089AFDF7A5FC0B9B9B5C0A9AA9
:10295000A2F101020A92137050EA0102F1D10A9821
:10296000ADEB000000F1200B600702D524F48034A9
:1029700001E04FF00109002049465A46D94501DDE2
:10298000A1EB020000EB0B0141440890AAEB01000F
:102990000B90E00306D4DDE90F2321460B9800F0ED
:1029A0006CF806444FF000090DF1240A07E0DDE958
:1029B0000F121AF809009047761C09F10109C14568
:1029C000F5DBE0030CD5DDE90F2321460B9800F081
:1029D00054F8064404E0DDE90F1230209047761CDD
:1029E0000899481E08900029F5DC08E00A980A9921
:1029F0000078491C0A91DDE90F129047761CBBF163
:102A00000001ABF1010BF1DC0B982146DDE90F234E
:102A100000F020F806446D1C287800287FF40DAEE5
:102A200011B03046BDE8F08F092801003031323353
:102A300034353637383941424344454600000000BA
:102A40003031323334353637383961626364656624
:102A5000000000002DE9F0410446002517461E46FF
:102A6000880405D406E039462020B04705F1010569
:102A7000641EF8D52846BDE8F0812DE9F0410446F2
:102A80000025302790461E46C80300D4202788041E
:102A900005D506E041463846B04705F10105641EFC
:102AA000F8D52846BDE8F0810A68531C0B60107009
:102AB0007047000070B504460D460CA12846FDF78E
:102AC00086FB06460F21284600F056FB002800DB57
:102AD0002EB900222946A0B201F0DAFA04E0012260
:102AE000311DA0B201F0D4FA70BD0000343135338D
:102AF0000000000070B504460D460CA12846FDF705
:102B000066FB06460F21284600F036FB002800DB56
:102B10002EB900222946A0B201F0BAFA04E001223F
:102B2000311DA0B201F0B4FA70BD0000343134336D
:102B30000000000070B504460D460CA12846FDF7C4
:102B400046FB06460F21284600F016FB002800DB56
:102B50002EB900222946A0B201F09AFA04E001221F
:102B6000311DA0B201F094FA70BD00003431343749
:102B70000000000070B504460D460CA12846FDF784
:102B800026FB06460F21284600F0F6FA002800DB57
:102B90002EB900222946A0B201F07AFA04E00122FF
:102BA000311DA0B201F074FA70BD00003431343828
:102BB0000000000070B504460D460CA12846FDF744
:102BC00006FB06460F21284600F0D6FA002800DB57
:102BD0002EB900222946A0B201F05AFA04E00122DF
:102BE000311DA0B201F054FA70BD00003431343907
:102BF0000000000070B504460D460CA12846FDF704
:102C0000E6FA06460F21284600F0B6FA002800DB57
:102C10002EB900222946A0B201F03AFA04E00122BE
:102C2000311DA0B201F034FA70BD000034313441DE
:102C30000000000070B504460D460CA12846FDF7C3
:102C4000C6FA06460F21284600F096FA002800DB57
:102C50002EB900222946A0B201F01AFA04E001229E
:102C6000311DA0B201F014FA70BD000034313442BD
:102C70000000000070B504460D460CA12846FDF783
:102C8000A6FA06460F21284600F076FA002800DB57
:102C90002EB900222946A0B201F0FAF904E001227F
:102CA000311DA0B201F0F4F970BD000034313130B3
:102CB0000000000070B504460D460CA12846FDF743
:102CC00086FA06460F21284600F056FA002800DB57
:102CD0002EB900222946A0B201F0DAF904E001225F
:102CE000311DA0B201F0D4F970BD0000343134368A
:102CF0000000000070B504460D460CA12846FDF703
:102D000066FA06460F21284600F036FA002800DB56
:102D10002EB900222946A0B201F0BAF904E001223E
:102D2000311DA0B201F0B4F970BD0000343133336D
:102D3000000000002DE9F04104460F46164600252C
:102D40004FF496711148FDF728FA00BF0BE0615D62
:102D50000F48FFF798FB00BF40210D48FFF7C6FA68
:102D60000028F9D06D1C605D0028F0D10949086089
:102D7000304600F025FE39460448FDF728FA10B128
:102D80000120BDE8F0810020FBE70000480C002096
:102D9000004C00400C00002070B5044600250420C3
:102DA000174908604CB917A0FFF708FC0022022160
:102DB0001B48FEF7F8F8012070BD1AA0FFF7FEFBD4
:102DC000012202211648FEF7EEF84FF4FA6000F0F7
:102DD000F7FD00250CE04FF47A7218A118A0FFF758
:102DE000A9FF20B117A0FFF7E9FB0120E4E76D1C64
:102DF000052DF0DB18A0FFF7E1FB0020DCE7000069
:102E0000140000200D0A626C756520746F6F746881
:102E10002070776F6572206F66660D0A00000000F3
:102E2000000801400D0A626C756520746F6F74684C
:102E30002070776F6572206F6E0D0A004F4B000097
:102E400041540D000D0A626C7565207374617274D3
:102E5000206F6B0D0A0000000D626C7565207374A5
:102E6000617274206572726F720A0000F0B5ADF580
:102E7000017D05460E464FF400720F4901A8FDF78B
:102E800073F900240EE02046E11704EB1161C1F351
:102E900007272006040C2878784001A931F8100093
:102EA00044406D1C3000A6F10101CEB2EBD12046AA
:102EB0000DF5017DF0BD0000888200082DE9FF4F6F
:102EC000ADF5017D0746894690469A46DDF838B251
:102ED00000254FF40072264901A8FDF745F90024AA
:102EE00097B100BF0EE02046E11704EB1161C1F37A
:102EF00007262006040C785D704001A931F8100007
:102F000044406D1C4D45EEDBB8F1000F13D0002599
:102F10000FE02046E11704EB1161C1F307262006FC
:102F2000040C18F80500704001A931F81000444065
:102F30006D1C5545EDDBBBF1000F14D000250FE0F3
:102F40002046E11704EB1161C1F307262006040CAB
:102F50001BF80500704001A931F8100044406D1CB9
:102F60008F988542ECDB20460DF5057DBDE8F08F9E
:102F70008884000870B504460D460CA12846FDF76C
:102F800026F906460F21284600F0F6F8002800DB57
:102F90002EB900222946A0B201F07AF804E00122FD
:102FA000311DA0B201F074F870BD0000343133431C
:102FB0000000000070B504460D460CA12846FDF740
:102FC00006F906460F21284600F0D6F8002800DB57
:102FD0002EB900222946A0B201F05AF804E00122DD
:102FE000311DA0B201F054F870BD000034313344FB
:102FF0000000000070B504460D460CA12846FDF700
:10300000E6F806460F21284600F0B6F8002800DB57
:103010002EB900222946A0B201F03AF804E00122BC
:10302000311DA0B201F034F870BD000034313345D9
:103030000000000070B504460D460CA12846FDF7BF
:10304000C6F806460F21284600F096F8002800DB57
:103050002EB900222946A0B201F01AF804E001229C
:10306000311DA0B201F014F870BD000034313346B8
:103070000000000038B50446042C00D82CB916A076
:10308000FFF79CFA4FF0FF3038BD224618A1684682
:10309000FFF7A4FA694617A0FFF790FA4FF4C87239
:1030A0001EA121A0FEF784FC28B923A0FFF786FA11
:1030B0004FF0FF30E8E769462648FDF788F828B169
:1030C000694625A0FFF77AFA0020DDE7694624A0CB
:1030D000FFF774FA0120D7E7717565727920736F75
:1030E000636B6574204944206572726F720D0A002B
:1030F000256400000D0A636865636B20736F636B62
:1031000065742025732073746174652B2B2B2B2B16
:103110002B2B2B2B2B2B2B2B0D0A00002B4D49502F
:103120004F50454E0000000041542B4D49504F5028
:10313000454E3F0D00000000717565727920736F78
:10314000636B657420636D64206572726F720D0A23
:10315000000000000806002063616E206E6F74207E
:1031600066696E642074686520736F636B65743A7A
:1031700025730D0A0000000070B505460C4614F0DA
:10318000080F07D015A12846FDF721F810B14FF020
:10319000FF3070BD14F0020F07D012A12846FDF7D2
:1031A00016F810B16FF00100F3E714F0040F07D028
:1031B0000EA12846FDF70BF810B16FF00200E8E70A
:1031C00014F0010F07D00BA12846FDF700F810B945
:1031D0004FF0FF30DDE70120DBE7000044415441C0
:1031E000000000004E45435400000000524348498F
:1031F0004E4700003E00000070B504460D460CA18D
:103200002846FCF7E4FF06460F212846FFF7B4FFE7
:10321000002800DB2EB900222946A0B200F038FFBA
:1032200004E00122311DA0B200F032FF70BD0000A9
:10323000343133310000000070B504460D460CA156
:103240002846FCF7C4FF06460F212846FFF794FFE7
:10325000002800DB2EB900222946A0B200F018FF9A
:1032600004E00122311DA0B200F012FF70BD000089
:10327000343134450000000092B000BF0024002526
:1032800000204149086002F007F90020FFF784FDA3
:103290000120FFF781FD002002F05AF93BA0FFF763
:1032A0008DF94FF4FA6000F08BFB02F0DDFA00219B
:1032B0003B48FEF7A0FC0120334908600020394953
:1032C000086002F09BFF6D1C02203749086037A0A0
:1032D000FFF774F900BF04F0D1FD4FF4FA7238A182
:1032E00038A0FEF765FB4FF4FA7235A135A0FEF762
:1032F0005FFB35A13848FCF76AFF20B937A1364893
:10330000FCF765FF30B137A0FFF758F9012004F052
:10331000CFFEE0E703F0D6FA35E0FEF72BFA0446DD
:1033200036A0FFF74BF901F0B3F94422374968465C
:10333000FCF71AFF35481438001D0FC800F04EFC8A
:1033400020B9294632A0FFF739F9C4E7002301224A
:1033500019462E48103803F087FC012200212B4823
:10336000103803F041FDFEF705FA061BFEF702FADE
:1033700007463346224601462DA0FFF71FF940F6C7
:10338000B83000F01DFBC8E7200000200D0A2073B4
:10339000797374656D20626567696E0D0A000000BF
:1033A0000004004024000020140000200D0A4245C3
:1033B00047494E2053454E44204D53470D0A0000C7
:1033C0004F4B000041540D004E4F5420494E534581
:1033D00052544544000000000806002052454D4F5D
:1033E000564500000D0A73696D2063617264206E9A
:1033F0006F7420696E736572740D0A000D0A707225
:103400006570617265206770730D0A00E811002015
:103410000D0A65737461626C697368206E657477F8
:103420006F726B206661696C203A25640D0A00009A
:103430000D0A54494D452055534544203A25642DE5
:103440003E25642D2D3E25640D0A000070B504460E
:103450000D460CA12846FCF7BAFE06460F21284669
:10346000FFF78AFE002800DB2EB900222946A0B211
:1034700000F00EFE04E00122311DA0B200F008FEB3
:1034800070BD0000343132430000000070B50446C6
:103490000D460CA12846FCF79AFE06460F21284649
:1034A000FFF76AFE002800DB2EB900222946A0B2F1
:1034B00000F0EEFD04E00122311DA0B200F0E8FDB5
:1034C00070BD000034313035000000002DE9FF4FA1
:1034D00097B00E461746984600240025A146A246FE
:1034E0004FF47A71B348FCF758FE142112A8FCF788
:1034F00054FE00BF00BFB9F1020F15DDB8F1010F96
:1035000007D1ADA0FFF75AF84FF0FF301BB0BDE870
:10351000F08FB2A0FFF752F84FF000094FF47A7025
:1035200000F04EFA0020F1E709F101093A9888B15C
:10353000B3A0FFF743F8442229A96846FCF714FE1C
:1035400025A80FC800F04AFB002803DCB3A0FFF752
:1035500035F8D0E74FF0000A00BF0AF1010ABAF1CE
:10356000020F05DDB2A0FFF729F84FF0FF30CDE7DD
:103570004FF47A718F48FCF710FE00242146B1A069
:10358000FFF71CF80FB38B4A1C21B44804F0A6FCCB
:10359000044604EBD4714910B4EB410103D0B0A050
:1035A000FFF70CF8D9E783480219B1B2179804F075
:1035B00095FC204404B204EBD4714910B4EB4101F2
:1035C0001CD0AFA0FEF7FAFFC7E77A48FCF715FE5C
:1035D000784900EB010B5A46B1B2179804F07EFC13
:1035E000204404B204EBD4714910B4EB410105D07E
:1035F000A3A0FEF7E3FF4FF0FF3087E7A34604EBFD
:10360000D4704210A5A1AB48FEF7E8FFA949AAA0D3
:10361000FEF7D4FF4FF4FA72ADA1A648FEF7C8F941
:1036200040F21451AB48FCF7B8FD0020AA490860ED
:103630001421AA48FCF7B1FDA9A1A848319AFEF7C8
:10364000CDFF5C49AAA0FEF7B9FF5A4AA349ACA036
:10365000FEF7B4FF2221AF48FEF715FF00BF40215F
:10366000AC48FEF743FE0028F9D00D21A948FEF72B
:103670000AFF00BF4021A748FEF738FE0028F9D016
:103680000A21A448FEF7FFFE00BF4021A148FEF733
:103690002DFE0028F9D04748FCF7AFFD83468F4840
:1036A000FCF7ABFD23465A46014611909AA0FEF75F
:1036B00085FF4FF47A7000F083F914219DA0FEF786
:1036C0007DFF2146A0A0FEF779FF00250DE083488D
:1036D000405781B2A148FEF7D6FE00BF40219F4867
:1036E000FEF704FE0028F9D06D1C7C48FCF785FD30
:1036F000A842ECD800251AE02E48405781B29748DE
:10370000FEF7C1FE00BF40219448FEF7EFFD002800
:10371000F9D02848405781B27E48FEF7B4FE00BF7A
:1037200040217C48FEF7E2FD0028F9D06D1CA5423F
:10373000E2DB00BF40218948FEF7D8FD0028F9D020
:1037400022218648FEF79FFE00BF40218348FEF7F6
:10375000CDFD0028F9D00D218048FEF794FE00BF72
:1037600040217E48FEF7C2FD0028F9D07CA0FEF77C
:1037700025FF1BE0642000F023F955A15548FCF714
:1037800026FD18B177A0FEF719FF10E07CA1514883
:10379000FCF71DFD18B17CA0FEF710FFABE66D1C19
:1037A000322D03DD81A0FEF709FF00E0E2E700BF54
:1037B0000120ABE68C1700200D0ACAFDBEDDD6D86D
:1037C000B7A2CAA7B0DCD7B4CCACA3ACB2BBB2B979
:1037D000B7A2CAFDBEDD0D0A000000000D0ACAFD39
:1037E000BEDDD6D8B7A2CAA7B0DCA3ACB4E6B4A2FB
:1037F000B5BDCAFDBEDD466C617368D6D00D0A004A
:103800000D0ABCECB2E9CDF8C2E7CAC7B7F1D0E8FF
:10381000D2AAD6D8C1AC0D0A000000000D0ACDF81E
:10382000C2E7D6D8C1ACCAA7B0DC0D0A00000000C0
:103830000D0A73747232486578206572726F720D6A
:103840000A0000000D0A64617461206C656E677483
:1038500068203A2025640D0A000000009C1B00200F
:103860000D0A63686172207472616C61746520680E
:103870006561646572206572726F720D0A000000E6
:103880000D0A7472616E736C617465206461746199
:10389000206572726F720D0A0000000041542B4DBA
:1038A0004950534554533D312C25642C3530300D4F
:1038B00000000000881B00200D0A73657420736FE0
:1038C000636B657420636D643A25730D0A00000014
:1038D0004F4B00000806002004000020741B00204D
:1038E00041542B4D495053454E443D25642C2200F4
:1038F0000D0A6461746120203A25730D0A000000EE
:103900000D0A73656E6420636D64203A2573257318
:1039100000000000003801400D0A636D643A256420
:1039200020206275663A25642020646174613A251E
:10393000640D0A000D0A636D642073697A65203A8C
:1039400025640D0A000000000D0A62756620736987
:103950007A65203A25640D0A00000000004400400A
:103960000D0A00000D0A46494E442053454E44209E
:103970004F4B2C434F4E54494E55450D0A00000005
:103980004552524F520000000D0A46494E44204510
:1039900052524F522E474F544F2053544F524520AE
:1039A000414E44204552524F520D0A000D0A5449CF
:1039B0004D45204F5554202C474F4F4E0D0A0000C7
:1039C000002107E0002200E0521C43F2C8239A4283
:1039D000FAD3491C8142F5D37047000070B5044604
:1039E0000D460CA12846FCF7F2FB06460F2128469F
:1039F000FFF7C2FB002800DB2EB900222946A0B247
:103A000000F046FB04E00122311DA0B200F040FBB3
:103A100070BD0000343134320000000070B504463F
:103A20000D460CA12846FCF7D2FB06460F2128467E
:103A3000FFF7A2FB002800DB2EB900222946A0B226
:103A400000F026FB04E00122311DA0B200F020FBB3
:103A500070BD0000343132440000000070B50446EF
:103A60000D460CA12846FCF7B2FB06460F2128465E
:103A7000FFF782FB002800DB2EB900222946A0B206
:103A800000F006FB04E00122311DA0B200F000FBB3
:103A900070BD0000343135460000000070B50446AA
:103AA0000D460CA12846FCF792FB06460F2128463E
:103AB000FFF762FB002800DB2EB900222946A0B2E6
:103AC00000F0E6FA04E00122311DA0B200F0E0FAB5
:103AD00070BD0000343130340000000070B5044681
:103AE0000D460CA12846FCF772FB06460F2128461E
:103AF000FFF742FB002800DB2EB900222946A0B2C6
:103B000000F0C6FA04E00122311DA0B200F0C0FAB4
:103B100070BD0000343135430000000070B504462C
:103B20000D460CA12846FCF752FB06460F212846FD
:103B3000FFF722FB002800DB2EB900222946A0B2A5
:103B400000F0A6FA04E00122311DA0B200F0A0FAB4
:103B500070BD0000343130430000000070B50446F1
:103B60000D460CA12846FCF732FB06460F212846DD
:103B7000FFF702FB002800DB2EB900222946A0B285
:103B800000F086FA04E00122311DA0B200F080FAB4
:103B900070BD0000343131460000000070B50446AD
:103BA0000D460CA12846FCF712FB06460F212846BD
:103BB000FFF7E2FA002800DB2EB900222946A0B266
:103BC00000F066FA04E00122311DA0B200F060FAB4
:103BD00070BD000034313434000000000FB4FEB575
:103BE00000256748007838BB4FF47A70FFF7E8FE8D
:103BF00050216448FCF7D1FA28216348FCF7CDFA3C
:103C000009A9139B169A8DE80E0060A15D48DDE9B5
:103C10001423FEF7E3FC012364A15B48149AFEF72A
:103C2000DDFC584965A0FEF7C9FC574968A0FEF7BE
:103C3000C5FC0120524908701498FFF71BFA0028B0
:103C400006DD68A0FEF7BAFC0120FEBC5DF814FB9F
:103C500068A0FEF7B3FC6DA0FEF7B0FC00BF032D1B
:103C600008DD70A0FEF7AAFC012004F021FA00256F
:103C7000681EEAE76D1C02F087FDD0B3002410E057
:103C80004FF47A7272A175A0FDF792FE00B10AE0BE
:103C90004FF47A7274A171A0FDF78AFE00B102E0C0
:103CA000641C142CECDB00BF0E2C06DB71A0FEF7AD
:103CB00085FC002004F0FCF9D1E702F071FE02F06F
:103CC00041FF002003F0D0FE002800DAC7E70024FF
:103CD00041E04FF4C8726DA16DA0FDF769FE4FF48D
:103CE000FA6229492748FDF763FE6AA0FEF766FCE1
:103CF0002EE03BE06BA16E48FCF769FA20B96DA19C
:103D00006B48FCF764FAB8B16DA0FEF757FC149845
:103D1000FFF7B0F901280AD172A0FEF74FFC75A099
:103D2000FEF74CFC79A0FEF749FC01208DE74FF42B
:103D30007A70FFF745FE0CE04FF47A70FFF740FE13
:103D400078A0FEF73BFC761C052E01DD002600E086
:103D5000D0E700BF641C0A2CBBDB092C0DDB72A072
:103D6000FEF72CFC002004F0A3F978E773A0FEF71F
:103D700025FC002004F09CF971E7012065E70000B4
:103D80008C000020141700206417002041542B4D94
:103D900049504F50454E3D25642C25642C222573F7
:103DA000222C25642C25640D000000002B4D495069
:103DB0004F50454E3A2025642C2564000D0A736F40
:103DC000636B657420636D64203A25730D0A0000EF
:103DD0000D0A736F636B65742073746174653A25A3
:103DE000730D0A006E6574776F726B206F6B0D0A2E
:103DF000000000004E6574204572726F722C72656F
:103E0000436F6E6E6563740D0A0000000D0A6573E2
:103E10007461626C697368206E6574776F726B0D84
:103E20000A0000000D0ACDF8C2E7D7A2B2E1CAA786
:103E3000B0DCB4CECAFDB9FDB6E02CC9E8B1B8B962
:103E4000CAD5CFA3ACC7EBBCECB2E90D0A000000A9
:103E50002B435245473A20302C31000041542B432C
:103E60005245473F0D0000002B435245473A203052
:103E70002C3500000D0A53494D393030CDF8C2E7DA
:103E8000D7A2B2E1CAA7B0DC0D0A00004F4B000078
:103E900041540D000D0A77616974696E67206E6583
:103EA000740D0A002B4D495053544154000000003A
:103EB000080600202B4D49504F50454E0000000091
:103EC0000D0A6F70656E20636D64206F7665722CCD
:103ED000626567696E20636865636B2073746174E3
:103EE000650D0A000D0A73636F6B6574206F6B0DAF
:103EF0000A0000000D0A53494D39303020726563C5
:103F00006F6E6E656374204F4B0D0A000D0A5345AA
:103F10004E44204F4E4C494E45204D45535341474A
:103F2000450D0A002B2B2B000D0A53494DCDF8C22D
:103F3000E7BDA8C1A2CAA7B0DC0D0A000D0A53490B
:103F40004D393030C6F4B6AFCAA7B0DC0D0A000058
:103F500070B504460D460CA12846FCF738F9064614
:103F60000F212846FFF708F9002800DB2EB90022B0
:103F70002946A0B200F08CF804E00122311DA0B265
:103F800000F086F870BD00003431324500000000BA
:103F900070B504460D460CA12846FCF718F90646F4
:103FA0000F212846FFF7E8F8002800DB2EB9002291
:103FB0002946A0B200F06CF804E00122311DA0B245
:103FC00000F066F870BD00003431353400000000A8
:103FD00070B504460D460CA12846FCF7F8F80646D5
:103FE0000F212846FFF7C8F8002800DB2EB9002271
:103FF0002946A0B200F04CF804E00122311DA0B225
:1040000000F046F870BD000034313332000000008B
:1040100070B504460D460CA12846FCF7D8F80646B4
:104020000F212846FFF7A8F8002800DB2EB9002250
:104030002946A0B200F02CF804E00122311DA0B204
:1040400000F026F870BD0000343134460000000056
:1040500070B504460D460CA12846FCF7B8F8064694
:104060000F212846FFF788F8002800DB2EB9002230
:104070002946A0B200F00CF804E00122311DA0B2E4
:1040800000F006F870BD000034313530000000004B
:104090002DE9F04706460F4690460024A1462B48DE
:1040A00000EB86008578314629A0FEF787FAC6EB3B
:1040B00006102D4A02EBC000011D2CA0FEF77EFA6F
:1040C000C6EB0610284A02EBC00000F144012BA009
:1040D000FEF774FA15B928B2BDE8F0872A480068DF
:1040E00088BB29480168304600F0B8F9814643464C
:1040F0004A46294625A0FEF761FA002405E0395D0D
:104100002EA0FEF75BFA601C84B2AC42F7DBB8F17C
:10411000000F0BD0002406E0395D09EB04022848AB
:104120008154601C84B2AC42F6DB0AE0002406E055
:104130003F2109EB040222488154601C84B2AC4246
:10414000F6DB28B2C8E7FFE700BFC5E70813002089
:104150000D0A43555252454E5420494E4445583A53
:1041600025640D0A00000000888600080D0A6C61B5
:1041700062656C203A25730D0A0000000D0A434D5C
:1041800044203A25730D0A00240000200D0A6E65B4
:10419000656420646174612073697A652D2D3E2504
:1041A000642020696E6465782D2D3E25642076613B
:1041B0006C75652D2D3E25640D0A000025335800D1
:1041C000AA0E002070B504460D46E1B20548FEF780
:1041D0005AF900BF80210348FEF788F80028F9D07B
:1041E000204670BD0038014070B504460D460CA154
:1041F0002846FBF7ECFF06460F212846FEF7BCFFDA
:10420000002800DB2EB900222946A0B2FFF740FFAC
:1042100004E00122311DA0B2FFF73AFF70BD00009B
:10422000343132320000000070B504460D460CA156
:104230002846FBF7CCFF06460F212846FEF79CFFD9
:10424000002800DB2EB900222946A0B2FFF720FF8C
:1042500004E00122311DA0B2FFF71AFF70BD00007B
:10426000343132330000000070B504460D460CA115
:104270002846FBF7ACFF06460F212846FEF77CFFD9
:10428000002800DB2EB900222946A0B2FFF700FF6C
:1042900004E00122311DA0B2FFF7FAFE70BD00005C
:1042A000343135440000000070B504460D460CA1C1
:1042B0002846FBF78CFF06460F212846FEF75CFFD9
:1042C000002800DB2EB900222946A0B2FFF7E0FE4D
:1042D00004E00122311DA0B2FFF7DAFE70BD00003C
:1042E000343132460000000070B504460D460CA182
:1042F0002846FBF76CFF06460F212846FEF73CFFD9
:10430000002800DB2EB900222946A0B2FFF7C0FE2C
:1043100004E00122311DA0B2FFF7BAFE70BD00001B
:10432000343130410000000070B504460D460CA148
:104330002846FBF74CFF06460F212846FEF71CFFD8
:10434000002800DB2EB900222946A0B2FFF7A0FE0C
:1043500004E00122311DA0B2FFF79AFE70BD0000FB
:10436000343135450000000070B504460D4609A102
:104370002846FBF72CFF06462EB101223146A0B29B
:10438000FFF786FE04E000223146A0B2FFF780FE70
:1043900070BD0000343130320000000070B50446BA
:1043A0000D460CA12846FBF712FF06460F212846B2
:1043B000FEF7E2FE002800DB2EB900222946A0B25B
:1043C000FFF766FE04E00122311DA0B2FFF760FE98
:1043D00070BD0000343130330000000070B5044679
:1043E0000D460CA12846FBF7F2FE06460F21284693
:1043F000FEF7C2FE002800DB2EB900222946A0B23B
:10440000FFF746FE04E00122311DA0B2FFF740FE97
:1044100070BD0000343135310000000070B5044635
:104420000D460CA12846FBF7D2FE06460F21284672
:10443000FEF7A2FE002800DB2EB900222946A0B21A
:10444000FFF726FE04E00122311DA0B2FFF720FE97
:1044500070BD00003431353900000000F8B5054664
:104460000E46002466480088F0BB0020654908809D
:1044700000BF15E06448B0F82C010119634800EB57
:10448000810080785F4931F8141001445D4A601C56
:1044900032F81000084481B2601C22F8101084B277
:1044A0005948B0F82E11B0F82C01081AA042E1DCEE
:1044B00057A0FEF783F800241BE00A2094FBF0F1DC
:1044C00000FB114010B958A0FEF778F84D4830F8BD
:1044D00014304D48B0F82C0101194C4800EB810014
:1044E0008278214651A000E04CE0FEF767F8601C9E
:1044F00084B2C82CE1DB002050490880002415E07C
:104500004148B0F830010119404800EB8100807843
:104510004A4931F814100144484A601C32F810002E
:10452000084481B2601C22F8101084B23648B0F8FA
:104530003211B0F83001081AA042E1DC40A0FEF7C9
:104540003DF8002419E00A2094FBF0F100FB114033
:1045500010B935A0FEF732F8384830F814302A4840
:10456000B0F830010119294800EB8100827821461A
:104570002EA0FEF723F8601C84B2C82CE3DB0120D8
:104580001F49088026BB2048B0F82C01281A1D4975
:1045900031F810301C480093B0F82E31B0F82C21BF
:1045A00029462CA0FEF70AF81748B0F82E01A842B9
:1045B00004DB1548B0F82C01A84201DD0020F8BD4D
:1045C0001148B0F82C01281A0E4931F81000F6E70E
:1045D000012E13D10C48B0F83201A84204DB0A487E
:1045E000B0F83001A84201DD0020E8E70648B0F845
:1045F0003001281A114931F81000E0E70020DEE709
:1046000098000020341C0020D41100200813002042
:104610000D0A4E4F524D414C20494E444558204DB5
:1046200041500D0A000000000D0A00002534642DE1
:104630003E2534642D3E253464202000C41D002016
:104640000D0A4641535420494E444558204D41508F
:104650003A0D0A006D617020696E646578202564EA
:10466000202D3E2025642D3E25642D2D3E25640001
:1046700070B506460C46002501212046FEF77CFD5C
:10468000002803DA00E06D1C142DFCDB70BD000077
:1046900010B500213E48FDF7C8FC3EA0FDF78EFF97
:1046A000002041490860414908604149086017E01D
:1046B000782040493E4A1268885478213D481E308F
:1046C0003B4A126881541438394A126881541E30AA
:1046D000374A1268815436480068401C34490860E3
:1046E000334800680928E3DB78203249487281F8B2
:1046F0002700087581F8320000202D4908600EE07F
:1047000078212C4835302A4A12688154401D284AA5
:104710001268815426480068401C254908602448D6
:1047200000680528ECDB40F2E73022498861002070
:104730001E4908601C4908601F49086030201D4957
:10474000087730211B48417730201A4981F833001F
:104750003021184880F834100020184908601849A2
:104760000860184908601849086018490860184925
:10477000087018490860184908601848002101604D
:104780008180817101210248FDF74FFC10BD0000BE
:10479000004800400D0A47505320496E69742D2D82
:1047A0002D2D2D2D0D0A0000740000206C0000201E
:1047B00068000020D416002070000020780000203F
:1047C0007C00002080000020840000208800002061
:1047D00060000020500000205C00002054000020F9
:1047E000FA49097879B3FA490968062902D0FF29FC
:1047F0007ED12FE1F749C978472972D1F549097966
:1048000047296ED1F349497941296AD10121F24AF8
:1048100011600021F14A116009E07822F049EF4B64
:104820001B68CA54ED490968491CEC4A1160EB4900
:1048300009680929F1DB7821E94A921ED172002129
:10484000E64A11600BE0F3E37822E5490A31E34BD5
:104850001B68CA54E1490968491CE04A1160DF49F4
:1048600009680A29F0DB7821DD4A921E9175D1751D
:104870000021DA4A11600AE07822D9491631D74B73
:104880001B68CA54D5490968491CD44A1160D349E8
:1048900009680229F0DB0021D04A11600AE0782281
:1048A000CF491831CD4B1B68CA54CC490968491C03
:1048B000CA4A1160C94909680429F0DB0021C74AC6
:1048C00011600AE00022C6491C31C44B1B68CA545F
:1048D000C2490968491CC14A1160C04909680A29CE
:1048E000F0DBBC494979562928D10421BA4A00E0B5
:1048F000FEE311600021B94A11601BE07822B9493A
:10490000B64B1B6801F82320B44B1B6801EB8301F5
:104910004A70B449B14B1B6801EB83018A70B149FD
:10492000AE4B1B6801EB8301CA70AC490968491C96
:10493000AA4A1160A94909680C29DFDBA549497910
:10494000432971D10821A44A11600021A34A1160B2
:1049500009E07822A449A14B1B68CA549F49096801
:10496000491C9E4A11609D4909680A29F1DB78219A
:104970009D4A921E11730021984A11600AE0782224
:1049800099490B31954B1B68CA5494490968491CD5
:10499000924A1160914909680929F0DB7821924A0D
:1049A000921E917500218D4A11600AE078228E498D
:1049B00015318A4B1B68CA5488490968491C874AC3
:1049C0001160864909680A29F0DB7821864A921E1F
:1049D00082F821100021814A11600AE07822824980
:1049E00020317E4B1B68CA547C490968491C7B4AAC
:1049F00011607A4909680529F0DB0021774A1160C6
:104A00000AE0782278492531744B1B68CA547349EF
:104A10000968491C714A1160704909680529F0DB71
:104A200000216E4A11600BE00EE078226E492A31B7
:104A30006A4B1B68CA5469490968491C674A116076
:104A4000664909680629F0DB2C2802D1FF21604A5B
:104A50001160FEE360490968012904D004297ED071
:104A600008297DD1EDE02A2802D02C2879D190E0C8
:104A70000021564A11705A49891EC97D302971D0CA
:104A80005749891EC97E2E290FD15549891E097F94
:104A90003039534A921E927E303A02EB820201EB89
:104AA00042014F4A921E916220E04D49891E097FC2
:104AB0002E2916D14A49891E897E303964225143F4
:104AC000474A921ED27E303A02EB820201EB42024A
:104AD0004349891E497F30391144414A921E9162EF
:104AE00004E04FF47A713E4A921E91623C49891E5D
:104AF000896A3E4A926991424ADC0021374A116034
:104B00000CE03749354A1268895C384A334B1B68D8
:104B1000D15432490968491C304A11602F4909684B
:104B20000929EEDB00212D4A11600EE02C490A31E3
:104B30002A4A12688A5C2D490A31284B1B68CA54DC
:104B400026490968491C254A1160244909680A292F
:104B5000ECDB2349891EC97A244A517203E0B9E18A
:104B6000F6E320E014E01E49891E897D11751C4979
:104B7000891E097E11771A49891E4A7E1B494A7788
:104B80001749891E896A194A91610121184A1160E1
:104B900055E01349891E0978491C114A921E11706B
:104BA000002151704BE00E49891E097809293ED237
:104BB000DFE801F03D052023282B2E33380008497B
:104BC000891E4A78891C885432E000006000002069
:104BD0005C000020540000205000002068000020ED
:104BE00072160020A41600203E160020D4160020C5
:104BF0006C000020FF49C8721AE0FE494A780C3167
:104C0000885415E0FB49887512E0FA49C8750FE031
:104C1000F8494A78183188540AE0F6494A781A3136
:104C2000885400BFF3494A781E31885400E000BF21
:104C300000BFF0494978491CEE4A517000BF00BFDF
:104C4000D6E32A2802D02C287DD1FEE00021EA4AB2
:104C50001170EA4A11600121E94A1160E949097BB2
:104C6000412978D10021E84A11600DE0E5490D3174
:104C7000E54A12688A5CE549E34B1B68CA54E2497D
:104C80000968491CE04A1160DF4909680929EDDB20
:104C90000021DD4A11600EE0DA491731DA4A126864
:104CA0008A5CDA490A31D84B1B68CA54D64909686C
:104CB000491CD54A1160D44909680A29ECDBD1495D
:104CC000897DD24A1E3A82F82710CE4991F82110E8
:104CD00082F832100021CC4A11600EE0C94922311D
:104CE000C94A12688A5CC9491731C74B1B68CA5444
:104CF000C5490968491CC44A1160C34909680529A6
:104D0000ECDB0021C04A11600EE0BE492731BE4AEB
:104D100012688A5CBD491C31BB4B1B68CA54BA4936
:104D20000968491CB84A1160B74909680529ECDBD4
:104D3000B049097EB54A1E3A82F83310AD494A7E21
:104D4000B2491E3901E088E005E081F834200121F4
:104D5000AF4A11607047AB49897D782974D0002132
:104D6000A94A11600DE0A7490D31A74A12688A5C73
:104D7000A649A54B1B68CA54A3490968491CA24A05
:104D80001160A14909680929EDDB00219E4A1160E3
:104D90000EE09C4917319C4A12688A5C9B490A3193
:104DA000994B1B68CA5498490968491C964A116076
:104DB000954909680A29ECDB9249897D934A1E3A94
:104DC00082F827108F4991F8211082F832100021C3
:104DD0008D4A11600EE08B4922318B4A12688A5C41
:104DE0008A491731884B1B68CA5487490968491C8E
:104DF000854A1160844909680529ECDB0021824A53
:104E000011600EE07F4927317F4A12688A5C7F4932
:104E10001C317D4B1B68CA547B490968491C7A4A7E
:104E20001160794909680529ECDB7249097E774AE6
:104E30001E3A82F833106F494A7E74491E3981F850
:104E400034200121734A116042E06E490978491CFF
:104E50006C4A1170002151703AE06A4909780929B9
:104E60002ED2DFE801F0050A0D12151A1E232800C4
:104E700064494A78891C885423E06249087320E019
:104E800060494A780D3188541BE05E49887518E006
:104E90005C494A781731885413E05A4981F8210057
:104EA0000FE058494A78223188540AE055494A7837
:104EB0002731885405E053494A782C31885400E062
:104EC00000BF00BF4F494978491C4E4A517000BF8E
:104ED00000BF8DE22A2802D02C287ED1DFE10021FC
:104EE000454A11704C49C978312977D100214B4A84
:104EF00011604B4A11604B4A11604B4A11604B4A9A
:104F00001160414A1160A2E0434908313E4A1268EB
:104F100001EB8201C97878296BD040490968491CA6
:104F20003E4A11603C490831374A126801EB820160
:104F3000C9783039384A0832334B1B6802EB830298
:104F40009278303A02EB820201EB42010A2904DB3B
:104F500033490968491C324A11602F4908312A4AED
:104F6000126801EB8201C97830392B4A0832264B8E
:104F70001B6802EB83029278303A02EB820201EB6B
:104F80004201142904DB27490968491C254A11609C
:104F9000214908311C4A126801EB8201C978303975
:104FA0001D4A0832184B1B6802EB83029278303A94
:104FB00002EB820201EB42011E2904DB1A49096857
:104FC000491C194A1160144908310F4A126801EB53
:104FD0008201C9783039104A01E068E13DE00832C9
:104FE000094B1B6802EB83029278303A02EB820293
:104FF0001FE027E070160020600000205C00002009
:10500000640000203C16002068000020F2160020FA
:1050100074000020700000209C1600207800002002
:105020007C000020800000208400002088000020F8
:10503000F2E101EB4201282904DBFF490968491C20
:10504000FD4A1160FD490968491CFC4A1160FB4991
:1050500009680429FFF658AF20E1F949C9783229D7
:105060007ED10421F54A116083E0F5490831F34A05
:10507000126801EB8201C978782975D0F149096875
:10508000491CF04A1160EE490831EC4A126801EB04
:105090008201C9783039EA4A0832E84B1B6802EBD2
:1050A00083029278303A02EB820201EB42010A2934
:1050B00004DBE5490968491CE34A1160E04908310D
:1050C000DE4A126801EB8201C9783039DC4A0832C5
:1050D000DA4B1B6802EB83029278303A02EB8202D1
:1050E00001EB4201142906DBD8490968491C00E09C
:1050F00080E1D64A1160D2490831D04A126801EBEA
:105100008201C9783039CE4A0832CC4B1B6802EB99
:1051100083029278303A02EB820201EB42011E29AF
:1051200004DBCB490968491CC94A1160C4490831EC
:10513000C24A126801EB8201C9783039C04A08328C
:10514000BE4B1B6802EB83029278303A02EB82027C
:1051500001EB4201282907DBB7490968491C01E036
:105160000DE001E0B44A1160B4490968491CB34A32
:105170001160B24909680829FFF677AF8EE0B0499F
:10518000C978332966D10821AC4A116081E0AC4965
:105190000831AA4A126801EB8201C978782973D0D4
:1051A000A8490968491CA74A1160A5490831A34AC2
:1051B000126801EB8201C9783039A14A08329F4B4D
:1051C0001B6802EB83029278303A02EB820201EB19
:1051D00042010A2904DB9C490968491C9A4A11606A
:1051E00097490831954A126801EB8201C978303934
:1051F000934A0832914B1B6802EB83029278303A53
:1052000002EB820201EB4201142904DB8F49096899
:10521000491C8E4A11608A490831884A126801EB9C
:105220008201C9783039864A0832844B1B6802EB08
:1052300083029278303A02EB820201EB42011E298E
:1052400004DB83490968491C814A11607C490831A3
:1052500001E0E0E022E0794A126801EB8201C978BE
:105260003039774A0832754B1B6802EB830292781B
:10527000303A02EB820201EB4201282904DB6E493D
:105280000968491C6C4A11606C490968491C6B4AE1
:1052900011606A4909680C29FFF679AFA2E06849F4
:1052A0000978491C664A1170002151709AE06449DE
:1052B0000978132974D2DFE801F00A0D2A2B34355E
:1052C00036404C4D4E5A656667747F8081005C495C
:1052D000887080E05A49C870C978312903D100210B
:1052E000574A516012E05649C978322903D1042146
:1052F000534A51600AE05249C978332903D1082141
:105300004F4A516002E008214D4A516063E062E07B
:105310004B494A68083101EB8201494A5278885466
:1053200059E058E057E046494A68083101EB8201EC
:10533000891C434A527888544DE041494968491CC8
:105340003F4A083202EB8101083A5278885442E021
:105350004AE040E03FE03A494968491C384A08328F
:1053600002EB8101891C083A5278885433E03449B1
:105370004968891C324A083202EB8101083A5278A6
:10538000885428E027E026E02D494968891C2C4AEA
:10539000083202EB8101891C083A527888541AE0DD
:1053A00018E027494968C91C254A083202EB8101E7
:1053B000083A527888540EE00DE00CE02049496824
:1053C000C91C1F4A083202EB8101891C083A527835
:1053D000885400E000BF00BF19494978491C184AA9
:1053E000517000BF00BF03E000211A4A117000BFD6
:1053F00000BF10E01849194A126888541749096813
:10540000491C164A116011460968072902DD00216E
:10541000104A117000BF33E0242831D10E49002218
:105420000A608A808A71087001210A4A117000217D
:105430000B4A1160012115E088000020680000205F
:105440009C160020780000207C00002080000020B6
:105450008400002060000020540000205C00002038
:1054600050000020074A11600021074A1170517056
:10547000064A11705170064A11705170054A116048
:1054800000BF67E45C0000203C1600209C16002052
:10549000701600206400002010B50BA0FDF78EF8F8
:1054A000002208210F48FBF77EFD4FF4FA70FEF74B
:1054B00087FA012208210B48FBF775FD4FF4FA70BB
:1054C000FEF77EFA10BD00000D0A4F50454E2047F2
:1054D000505320506F7765722E2E2E2E2E2E2E2E8C
:1054E0000D0A00000010014010B5FBF735FF012147
:1054F0000648FBF707FDFBF773FAFCF7A3FDFBF784
:1055000095F9FBF7B7FDFCF783FB10BD00043000F5
:1055100070B504460D460CA12846FAF758FE06461B
:105520000F212846FDF728FE002800DB2EB90022B7
:105530002946A0B2FEF7ACFD04E00122311DA0B265
:10554000FEF7A6FD70BD00003431354200000000BA
:1055500010B58CB0044678A0FDF730F84FF4FA721D
:105560007BA17CA0FDF7E6FB4FF4FA7278A179A04D
:10557000FDF7E0FB794A7AA104A8FDF72FF804A90A
:105580007AA0FDF71BF84FF4FA7271A104A8FDF799
:10559000D1FB002803DA4FF0FF300CB010BD4FF400
:1055A000FA726BA177A0FDF7C5FB202104A8FAF7DA
:1055B000F4FD6A4A143276A104A8FDF70FF804A995
:1055C00076A0FCF7FBFF4FF4FA7261A104A8FDF787
:1055D000B1FB002802DA4FF0FF30DEE74FF4FA7239
:1055E0005BA174A0FDF7A6FB202104A8FAF7D5FD66
:1055F0004FF416414EF2E842881A914247D014DC2B
:10560000B1F5165F34D009DCB1F5966F21D0B1F554
:10561000166F23D0B1F5965F57D124E0B1F5964FC0
:105620002BD0B1F5164F50D12CE0654A811A90422B
:105630003CD007DCA0F55D4018382DD0B0F5E13F37
:1056400043D12EE0B1F5E12F35D0B1F5612F3CD13A
:1056500036E05CA104A8FAF7ACFD3BE05CA104A82D
:10566000FAF7A7FD36E05DA104A8FAF7A2FD31E044
:105670005DA104A8FAF79DFD2CE05EA104A8FAF74D
:1056800098FD27E05EA104A8FAF793FD22E05FA150
:1056900004A8FAF78EFD1DE05FA104A8FAF789FDC2
:1056A00018E060A104A8FAF784FD13E060A104A843
:1056B000FAF77FFD0EE061A104A8FAF77AFD09E090
:1056C00061A104A8FAF775FD04E04DA104A8FAF75A
:1056D00070FD00BF00BF04A95EA0FCF76FFF4FF490
:1056E000FA721BA104A8FDF725FB002802DA4FF08F
:1056F000FF3052E74FF4FA7215A12EA0FDF71AFB06
:105700004FF4164000900020ADF80400ADF80600FC
:10571000ADF80800ADF80C000C20ADF80A006946A1
:105720005048FCF73FFE012240F225514D48FCF75E
:1057300014FE012031E700000D0A73657420626CCD
:105740007565746F6F7468206D6F64650D0A000075
:105750004F4B000041540D0A00000000AC12002025
:1057600041542B4E414D4525730D0A00736574203D
:10577000626C7565206E616D6520636D64203A25ED
:105780007300000041542B4E414D450D0A000000AE
:1057900041542B50494E25730D0A00007365742047
:1057A000626C7565207061737320636D64203A25A7
:1057B0007300000041542B50494E0D0A00000000B8
:1057C0001823060041542B42415544310D0A000074
:1057D00041542B42415544320D0A000041542B42A2
:1057E000415544330D0A000041542B424155443485
:1057F0000D0A000041542B42415544350D0A00006A
:1058000041542B42415544360D0A000041542B426D
:10581000415544370D0A000041542B42415544384C
:105820000D0A000041542B42415544390D0A000035
:1058300041542B42415544410D0A000041542B4232
:10584000415544420D0A000041542B424155444306
:105850000D0A00006261756420636D64203A25734F
:1058600000000000004C004000B50522024903483A
:1058700000F006F800BD0000C0200020DC2200205F
:1058800030B51346002484600160416000220EE0C0
:1058900002EBC20404EB440401EB84046C3402EB1D
:1058A000C20505EB450501EB8505AC66521C5C1E87
:1058B0009442EDD803EBC30404EB440401EB8404ED
:1058C00044F8041C30BD000070B504460D460CA120
:1058D0002846FAF77CFC06460F212846FDF74CFCCB
:1058E000002800DB2EB900222946A0B2FEF7D0FB2B
:1058F00004E00122311DA0B2FEF7CAFB70BD00001A
:10590000343130460000000070B504460D460CA14D
:105910002846FAF75CFC06460F212846FDF72CFCCA
:10592000002800DB2EB900222946A0B2FEF7B0FB0A
:1059300004E00122311DA0B2FEF7AAFB70BD0000F9
:10594000343130420000000070B504460D460CA111
:105950002846FAF73CFC06460F212846FDF70CFCCA
:10596000002800DB2EB900222946A0B2FEF790FBEA
:1059700004E00122311DA0B2FEF78AFB70BD0000D9
:10598000343130370000000070B504460D460CA1DC
:105990002846FAF71CFC06460F212846FDF7ECFBCB
:1059A000002800DB2EB900222946A0B2FEF770FBCA
:1059B00004E00122311DA0B2FEF76AFB70BD0000B9
:1059C000343130390000000070B504460D460CA19A
:1059D0002846FAF7FCFB06460F212846FDF7CCFBCC
:1059E000002800DB2EB900222946A0B2FEF750FBAA
:1059F00004E00122311DA0B2FEF74AFB70BD000099
:105A0000343135360000000070B504460D460CA157
:105A10002846FAF7DCFB06460F212846FDF7ACFBCB
:105A2000002800DB2EB900222946A0B2FEF730FB89
:105A300004E00122311DA0B2FEF72AFB70BD000078
:105A4000343135380000000010B5FFF74DFD00215E
:105A50000648FCF7D0F801F065FE01F02BFF0220AC
:105A600003490860FDF708FC002010BD0004004059
:105A70001400002070B504460D460CA12846FAF724
:105A8000A6FB06460F212846FDF776FB002800DB23
:105A90002EB900222946A0B2FEF7FAFA04E001224C
:105AA000311DA0B2FEF7F4FA70BD0000343132317E
:105AB0000000000070B504460D460CA12846FAF718
:105AC00086FB06460F212846FDF756FB002800DB23
:105AD0002EB900222946A0B2FEF7DAFA04E001222C
