:020000040800F2
:10000000185000204501000879110008F51000087B
:100010005911000855040008CD290008000000000F
:10002000000000000000000000000000B11A0008FD
:100030005901000800000000F11300085D010008EC
:100040005F0100085F0100085F0100081519000842
:100050005F0100085F01000859070008C507000894
:100060005F010008ED0700085F0100085F0100085C
:100070005F0100085F0100085F0100085F010008E0
:100080005F0100085F0100085F0100085F010008D0
:10009000CD2800085F0100085F010008250800085E
:1000A0005F0100085F0100085F0100085F010008B0
:1000B000791C0008991C00085F0100085F01000816
:1000C0005F0100085F0100085F0100085F01000890
:1000D0005F010008AD22000829230008ED23000875
:1000E00085070008551700085F0100085F01000838
:1000F0005F0100085F0100085F0100085F01000860
:100100005F0100085F0100085F0100085F0100084F
:100110007D210008192200085F0100085F01000826
:100120005F0100085F0100085F0100085F0100082F
:10013000DFF80CD000F034F9004800473D610008BA
:10014000185000200648804706480047FEE7FEE7B3
:10015000FEE7FEE7FEE7FEE7FEE7FEE7FEE7FEE777
:10016000191C00083101000840EA01039B0703D075
:1001700009E008C9121F08C0042AFAD203E011F8E6
:10018000013B00F8013B521EF9D27047D2B201E0A8
:1001900000F8012B491EFBD270470022F6E710B58C
:1001A00004460846114602462046FFF7EFFF204668
:1001B00010BD034600E0401C0278002AFBD111F874
:1001C000012B00F8012B002AF9D11846704730B5F1
:1001D0000EE003460A4601E05B1C521C1C781578B1
:1001E000AC4201D1002CF7D115F0FF0F04D0401C18
:1001F0000278002AEDD1002030BD0146002000E049
:10020000401C0A5C002AFBD170472DE9F0470F46DD
:10021000914680460446002614F8015B2DB100F09B
:100220006DF80068405DC007F6D12B2D02D02D2D52
:1002300018D0641E4A463946204600F063F827B1BC
:100240003968A14201D1C7F8008071054FF002045E
:100250000BD54042002803DD02F04CFC0460A007EF
:10026000BDE8F08746F48066E4E70028F8DA02F09B
:1002700041FC04606FF00040F2E770B5064602F002
:1002800039FC046805460A2200213046FFF7BDFF0D
:100290002C6070BD2DE9F05F0546002092469B461C
:1002A00088460646814640241DE02846414647468A
:1002B000224600F096F8B0EB0A0052465B4671EB1E
:1002C0000B0110D310461946224600F07BF82D1A78
:1002D00067EB01084F4622460120002100F072F82A
:1002E00017EB00094E41201EA4F10104DDDC484655
:1002F00031462A464346BDE8F09F0000004870475B
:1003000004E500082DE9F05F8246044600780027E6
:10031000641C8B461546B946302801D09DB113E0C8
:1003200014F8010B0127782803D0582801D045B1D3
:100330000AE00DB1102D07D10027102514F8010B8C
:1003400002E0082500E00A250026B0460EE005FB85
:10035000080005FB06F1012701EB10461FFA80F8A3
:10036000B6F5803F00D3B94614F8010B294600F0DA
:1003700048F80028EBDABBF1000F04D0641E07B97F
:100380005446CBF80040B9F1000F06D002F0B2FBA2
:1003900002210160C81EBDE8F09F48EA0640FAE766
:1003A000064C074D06E0E06840F0010394E80700C2
:1003B00098471034AC42F6D3FFF7BEFE08E50008BC
:1003C00028E50008202A04DB203A00FA02F1002088
:1003D00070479140C2F1200320FA03F31943904083
:1003E0007047202A04DB203A21FA02F000217047EE
:1003F00021FA02F3D040C2F120029140084319468D
:1004000070473A2800D2303820F02002412A01D328
:10041000A2F137004FF0FF32884200D20246104668
:10042000704710B5012001F033F8002001F030F8DA
:1004300010BD000001460022014A0A44108870479E
:10044000006C00400022024A024411607047000024
:10045000006C004004E003A002F028FB00BFFEE7B0
:10046000F9E700000D0A4552524F525F4255530DB5
:100470000A000000B1F5007F3AD00FDC202928D017
:1004800006DC01291CD004291DD0082940D11DE01B
:10049000402921D0B1F5807F3AD126E0B1F5004F57
:1004A00031D006DCB1F5806F25D0B1F5006F2FD1CA
:1004B00024E0B1F5803F12D0B1F5003F28D111E022
:1004C000154A826025E00822C26022E01022C26044
:1004D0001FE0082202611CE01022026119E00822DC
:1004E000426016E01022426013E00422426010E0F5
:1004F000042242600DE0042242600AE00022826190
:100500000422426005E0002282610422426000E091
:1005100000BF00BF704700000101010021B9C2689F
:1005200042F02002C26003E0026942F02002026150
:100530007047000070B504460D46002660692842E9
:1005400071D0B5F5807F5CD010DC082D35D006DC8D
:10055000012D20D0022D24D0042D77D127E0102D9D
:1005600031D0202D35D0402D70D138E0B5F5004F79
:1005700060D009DCB5F5007F49D0B5F5806F4CD06F
:10058000B5F5006F62D14FE0B5F5803F2DD0B5F5E0
:10059000003F5BD12FE0A0682F4900F0D4F8064659
:1005A00056E0E068032100F0CEF8064650E0E0682F
:1005B000082100F0C8F806464AE0E068102100F083
:1005C000C2F8064644E02069032100F0BCF8064664
:1005D0003EE02069082100F0B6F8064638E02069C0
:1005E000102100F0B0F8064632E06068082100F003
:1005F000AAF806462CE06068102100F0A4F8064630
:1006000026E0A069012100F09EF8064620E0A069DE
:10061000022100F098F806461AE0A069042100F0D3
:1006200092F8064614E014E0A069702100F08BF8FF
:1006300006460DE0A069772100F085F8064660685F
:10064000042100F080F8064302E0FFE7002600BF27
:1006500000E00026304670BD0101010030B50446BF
:100660000D46134604F5D87000EB0510006800F045
:1006700004001872187A50B904F5D87000EB051010
:10068000006840F2FF7101EA5050186009E004F57B
:10069000D87000EB051000686FF0604101EAD000EF
:1006A000586004F5D87000EB0510006800F00200F7
:1006B000587204F5D87000EB0510406800F00F0088
:1006C000987204F5D87000EB05104068000AD874E1
:1006D00004F5D87000EB05108068D87204F5D87066
:1006E00000EB05108068000A187304F5D87000EB61
:1006F00005108068000C587304F5D87000EB0510E5
:100700008068000E987304F5D87000EB0510C0687F
:10071000D87304F5D87000EB0510C068000A18748F
:1007200004F5D87000EB0510C068000C587404F58F
:10073000D87000EB0510C068000E9874294620465A
:10074000FFF7ECFE30BD024600200A4201D0012036
:1007500000E000207047000010B5C82003F0D0FB77
:10076000012000F0B3F828B1012000F067F802A0E2
:1007700002F09CF910BD00000D0A6B6579300D0A7E
:100780000000000010B54FF4006000F09FF840B189
:100790004FF4006000F052F809480068401C084916
:1007A00008604FF4805000F091F840B14FF4805051
:1007B00000F044F802480068401C0149086010BD80
:1007C0002800002010B5022000F080F828B1022097
:1007D00000F034F801A002F069F910BD0D0ABDF86F
:1007E000C8EBD6D0B6CF310D0A00000010B50820F6
:1007F00000F06CF828B1082000F020F801A002F009
:1008000055F910BD0D0ABDF8C8EBC0B6D1C0D7B4BC
:10081000CCACB1E4BBAFD6D0B6CFA3A1A3A1A3A16A
:100820000D0A000010B54FF4807000F04FF818B1B9
:100830004FF4807000F002F810BD0000014908601C
:1008400070470000140401401CB54FF40030FFF75E
:10085000F5FF4FF40030009000208DF804000820D0
:100860008DF8050001208DF80600684600F044F878
:100870000321042000F03EFB0820FFF7DFFF0820E3
:10088000009000208DF8040010208DF80500012054
:100890008DF80600684600F02FF80B21002000F0CC
:1008A00029FB4FF40060FFF7C9FF4FF40060009090
:1008B00000208DF804000C208DF8050001208DF833
:1008C0000600684600F018F81CBD00000146002034
:1008D0000022074B1B6803EA0102064BD3F81434CD
:1008E0000B4202D00AB1012000E000207047000056
:1008F0000004014000000140002127498279DAB359
:10090000264AD2F8002403689A43244BC3F80024F3
:100910001A46D2F8042403689A4301F104031A60CA
:10092000027911440A68036842EA03020A601B4A1A
:10093000D2F80824036822EA0302184BC3F80824FB
:100940001A46D2F80C24036822EA0302144B1A60F8
:100950004279102A11D1114AD2F8082403681A43A7
:100960000E4BC3F808241A46D2F80C2403681A4325
:100970000A4BC3F80C240EE007E007494279114402
:100980000A6803681A430A6005E0027911440A689C
:1009900003689A430A607047000401400000014068
:1009A0000C04014004200C49C96801F0010101292F
:1009B00001D101200EE00849C96811F0040F01D0EF
:1009C000022007E00449C96811F0100F01D003208C
:1009D00000E0042070470000002002400348006946
:1009E00040F080000149086170470000002002408B
:1009F0000549096821F01001034A11601146096890
:100A0000014311607047000000200240F0B5044629
:100A10000D4604260027F00200F042F80646042E98
:100A200022D11248006940F0010010490861258078
:100A3000F00200F035F80646042E0ED1A71C280C53
:100A40003880F00200F02CF806460848006941F6AC
:100A5000FE7108400549086106E00448006941F656
:100A6000FE710840014908613046F0BD0020024097
:100A700001460020034A106800F038000843106067
:100A800070470000002002400248034948600348C4
:100A9000486070472301674500200240AB89EFCDD5
:100AA00000B502460423FFF77DFF034603E0FFF78E
:100AB00079FF0346521E012B01D1002AF7D102B95A
:100AC0000523184600BD000008B5012144F27D0051
:100AD00000F0BEFC0121FF4800F09AFC4FF6FF70C9
:100AE000ADF8000000208DF8030003208DF802000F
:100AF0006946F94800F01EFA6946F84800F01AFA0B
:100B00006946F74800F016FA6946F64800F012FA0E
:100B10004FF40070ADF8000018208DF8030003209A
:100B20008DF802006946EC4800F004FA4FF480604A
:100B3000ADF8000004208DF803006946E64800F097
:100B4000F9F90420ADF8000018208DF80300032007
:100B50008DF802006946E04800F0ECF90820ADF895
:100B6000000004208DF803006946DB4800F0E2F93C
:100B70004FF40060ADF8000004208DF803006946D2
:100B8000D64800F0D7F94FF48060ADF80000182087
:100B90008DF8030003208DF802006946D04800F06C
:100BA000C9F94FF40060ADF8000004208DF803008F
:100BB00003208DF802006946C94800F0BBF94FF4E4
:100BC0008060ADF8000018208DF8030003208DF838
:100BD00002006946C14800F0ADF94FF40060ADF87D
:100BE000000004208DF8030003208DF80200694600
:100BF000BA4800F09FF94FF40060ADF800001020F3
:100C00008DF8030003208DF802006946B34800F018
:100C100091F90122D102B14800F067FA4FF48050F7
:100C2000ADF8000010208DF8030003208DF80200BD
:100C30006946AA4800F07EF901221103A74800F096
:100C400054FA4FF40050ADF8000010208DF8030066
:100C500003208DF802006946A04800F06BF90122DC
:100C600020219E4800F041FA4FF40040ADF800000A
:100C700004208DF8030003208DF802006946974890
:100C800000F058F94FF40070ADF8000010208DF816
:100C9000030003208DF802006946904800F04AF9ED
:100CA000012251028D4800F020FA1020ADF800001A
:100CB00014208DF8030003208DF802006946874850
:100CC00000F038F901221021844800F00EFA0820C3
:100CD000ADF8000010208DF8030003208DF802000D
:100CE00069467E4800F026F9002208217B4800F082
:100CF000FCF90220ADF8000010208DF8030003205D
:100D00008DF802006946754800F014F900220221AE
:100D1000724800F0EAF90120ADF8000010208DF8CB
:100D2000030003208DF8020069466C4800F002F9C8
:100D300000220121694800F0D8F94FF48040ADF855
:100D4000000010208DF8030003208DF80200694692
:100D5000614800F0EFF800224FF480415E4800F057
:100D6000C4F92020ADF8000048208DF803000320CE
:100D70008DF802006946594800F0DCF84020ADF8D3
:100D8000000010208DF8030003208DF80200694652
:100D9000524800F0CFF800224021504800F0A5F959
:100DA0004FF48070ADF8000010208DF80300032090
:100DB0008DF802006946494800F0BCF800224FF463
:100DC0008071464800F091F98020ADF800001020B5
:100DD0008DF8030003208DF8020069463F4800F0BB
:100DE000A9F8002280213D4800F07FF94FF400501F
:100DF000ADF8000004208DF8030003208DF80200F8
:100E00006946354800F096F800224FF40051324808
:100E100000F06BF90220ADF8000010208DF80300FF
:100E200003208DF8020069462B4800F083F8002269
:100E30000221294800F059F91020ADF800000420E3
:100E40008DF8030003208DF802006946224800F067
:100E500071F80120ADF8000004208DF80300032094
:100E60008DF8020069461E4800F064F80220ADF8D3
:100E7000000004208DF8030003208DF8020069466D
:100E8000174800F057F800220221154800F02DF90C
:100E90000420ADF8000010208DF8030003208DF829
:100EA000020069460E4800F045F8002204210C4873
:100EB00000F01BF90820ADF8000010208DF80300A9
:100EC00003208DF802006946054800F033F800223F
:100ED000082109E002001E1A00080140000C014030
:100EE0000010014000140140014800F0FEF808BD68
:100EF0000010014030B500228B071C0F0F2303FAAE
:100F000004F20B4B8C1053F824309343084C8D1093
:100F100044F8253023468C1053F824308C07240FD6
:100F200000FA04F42343024C8D1044F8253030BD00
:100F3000080001402DE9F04102460025002600206E
:100F400000230024002791F803C00CF00F0591F84E
:100F500003C01CF0100F03D091F802C04CEA050545
:100F6000B1F800C01CF0FF0F31D0146800202BE056
:100F70004FF0010C0CFA00F3B1F800C00CEA0306C4
:100F80009E4220D183004FF00F0C0CFA03F7BC43B4
:100F900005FA03FC4CEA040491F803C0BCF1280FE5
:100FA00006D14FF0010C0CFA00FCC2F814C00AE0A4
:100FB00091F803C0BCF1480F05D14FF0010C0CFAB9
:100FC00000FCC2F810C0401C0828D1D31460B1F84E
:100FD00000C0BCF1FF0F34DD546800202EE000F1AA
:100FE000080C4FF0010808FA0CF3B1F800C00CEA45
:100FF00003069E4221D183004FF00F0C0CFA03F739
:10100000BC4305FA03FC4CEA040491F803C0BCF1AC
:10101000280F05D100F1080C08FA0CF8C2F814806A
:1010200091F803C0BCF1480F07D100F1080C4FF054
:10103000010808FA0CF8C2F81080401C0828CED32A
:101040005460BDE8F0810000F0B50A46002300249A
:101050000021002500F00046B6F1004F02D11D4EE0
:10106000F16901E01B4E7168C0F3034583B200F4DF
:101070004016B6F5401F08D121F07061154E766814
:1010800026F07066134F7E6012E000F48016B6F50D
:10109000801F06D1032606FA05F4A14341F07061D2
:1010A00006E0460D360103FA06F6B14341F07061E1
:1010B00022B1460D360103FA06F6314300F0004630
:1010C000B6F1004F02D1034EF16101E0014E7160B3
:1010D000F0BD0000000001400246002093680B4272
:1010E00001D0012000E0002070470AB1016100E05A
:1010F0004161704704E003A001F0D8FC00BFFEE7A7
:10110000F9E700000D0A4552524F525F48415244E0
:101110005F4641554C540D0A000000000146CA17B5
:1011200001EB92729210B1EB820212D1642091FB1A
:10113000F0F200FB121050B94FF4C87091FBF0F2BE
:1011400000FB121008B9012070470020FCE70120C5
:10115000FAE70020F8E7000004E003A001F0A6FC95
:1011600000BFFEE7F9E700000D0A4552524F525FFB
:101170004D454D0D0A00000002A001F097FC00BF94
:10118000FEE700000D0A4552524F525F4E4D490D89
:101190000A00000008B54FF4E06000F003F92520D4
:1011A0008DF8000002208DF8010000208DF802006B
:1011B00001208DF80300684600F0B2F84FF4E060BB
:1011C00000F0F0F826208DF8000000208DF80100D6
:1011D0008DF8020001208DF80300684600F0A0F8A9
:1011E0004FF4E06000F0DEF827208DF800000120C9
:1011F0008DF8010000208DF8020001208DF8030019
:10120000684600F08DF84FF4E06000F0CBF8342031
:101210008DF8000001208DF8010000208DF80200FB
:1012200001208DF80300684600F07AF84FF4E06082
:1012300000F0B8F835208DF8000001208DF801008D
:1012400000208DF8020001208DF80300684600F0B0
:1012500067F84FF4C06000F0A5F806208DF8000094
:1012600000208DF801008DF802008DF8030068461B
:1012700000F056F84FF4C06000F094F828208DF884
:10128000000000208DF801008DF802008DF80300A9
:10129000684600F045F84FF4C06000F083F809207C
:1012A0008DF8000000208DF801008DF802008DF807
:1012B0000300684600F034F84FF4A06000F072F8C4
:1012C0001C208DF8000000208DF801008DF8020030
:1012D00001208DF80300684600F022F84FF4A0606A
:1012E00000F060F81D208DF8000000208DF801004E
:1012F0008DF8020001208DF80300684600F010F818
:1013000028208DF8000005208DF801008DF80200DE
:1013100001208DF80300684600F002F808BD0000C7
:1013200070B5002100230F22C4784CB31A4C2468F6
:1013300004F4E064C4F5E0644FEA1421C1F104034D
:1013400022FA01F2447804FA03F1847804EA0204F0
:1013500044EA01014FEA0111104C0678A1550478C6
:1013600004F01F054FF0010404FA05F405784FEA74
:1013700065154FF0E02606EB8505C5F8004109E04C
:10138000047804F01F050124AC40054D0678761161
:1013900045F8264070BD00000CED00E000E400E0E0
:1013A00080E100E002490143024A116070470000F9
:1013B0000000FA050CED00E00848006800F4E06069
:1013C000074940EA010000F104004FF0E021C1F8B4
:1013D0000C0DBFF3408F00BFFEE700000CED00E0F6
:1013E0000000FA05014908627047000000000E4243
:1013F00002A001F05BFB00BFFEE700000D0A4552B2
:10140000524F525F50454E4453560D0A00000000A3
:1014100029B1064AD2690243044BDA6104E0034A67
:10142000D2698243014BDA6170470000001002402C
:1014300029B1064A12690243044B1A6104E0034AC7
:1014400012698243014B1A6170470000001002408C
:1014500029B1064A92690243044B9A6104E0034AA7
:1014600092698243014B9A6170470000001002406C
:1014700029B1064AD2680243044BDA6004E0034A09
:10148000D2688243014BDA607047000000100240CE
:101490000149086070470000400442420348406A26
:1014A00040F080700149486270470000001002401F
:1014B00010B500F03BF8012000F0FAF800BF212041
:1014C00000F0C4F80028FAD01020FFF791FA0220AB
:1014D000FFF7CEFA002000F0DFF8002000F000F95E
:1014E000002000F0F1F84FF46011002000F00AF93C
:1014F000012000F001F900BF392000F0A7F8002812
:10150000FAD0022000F01AF900BF00F0BDF8082858
:10151000FBD1012144F27D00FFF79AFF012102482F
:10152000FFF776FF10BD000003001E1A0F48006889
:1015300040F001000D490860084640680C49084029
:101540000A494860084600680A4908400749086097
:101550000846006820F4802008600846406820F4AF
:10156000FE0048604FF41F00886070470010024082
:101570000000FFF8FFFFF6FE30B500210022002436
:1015800000232D4D6D6805F00C0121B1042905D013
:10159000082923D105E0294D056022E0274D05608B
:1015A0001FE0254D6D6805F47012234D6D6805F43C
:1015B0008034022505EB92421CB9214D554305604C
:1015C0000BE01D4D6D6815F4003F03D01C4D5543D5
:1015D000056002E0194D5543056002E0174D0560B6
:1015E00000BF00BF144D6D6805F0F0010909154DED
:1015F0006B5C0568DD4045600F4D6D6805F4E0618A
:10160000090A104D6B5C4568DD4085600A4D6D68C8
:1016100005F46051C90A0B4D6B5C4568DD40C5603F
:10162000054D6D6805F44041890B074D6B5CC5683D
:10163000B5FBF3F5056130BD0010024000127A00E1
:1016400000093D00500000206000002010B5014658
:101650000022002300204A11012A02D1094C2368EC
:1016600006E0022A02D1074C236A01E0054C636AB6
:1016700001F01F02012494401C4201D0012000E02F
:10168000002010BD001002400248406800F00C002D
:10169000704700000010024001460020034A5068D5
:1016A00020F0F00008435060704700000010024036
:1016B000014908607047000000004242014908608B
:1016C000704700008004424201460020034A5068EF
:1016D00020F4E060084350607047000000100240B2
:1016E00001460020034A506820F4605040EAC100DF
:1016F00050607047001002400149086670470000C2
:101700000000424202460020044B586820F47C103E
:1017100042EA01031843014B586070470010024031
:1017200001490860704700003C0442420249096ACE
:101730000143014A11627047001002400146002037
:10174000034A506820F003000843506070470000CF
:101750000010024010B5022000F0C6F850B14FF45E
:101760000030FFF76BF800F085F9022000F004F874
:1017700000F080F910BD0000054909886FEA0002F9
:1017800092B201EA0201034AA2F80418704700006D
:1017900004280040002000400348008840F010006A
:1017A0000249A1F8040870470428004000200040C6
:1017B000044800884FF6EF7100EA01000249A1F8E1
:1017C00004087047042800400020004070B500263F
:1017D0000024002500F07AF806463848B6FBF0F4FD
:1017E0003748B0F90000A04240D020B23449088008
:1017F00040F2B27510E02846FFF790FC40B1B4F516
:10180000B77F02D9A4F5B77404E0681C05B206E0FE
:10181000A4F26D14681C05B2B4F5B67FEBD800BF16
:1018200028480580002517E02649B1F90000FFF798
:1018300075FC30B1012D04D11D2C01D91D3C09E0EE
:101840000CE021484057A04203D81F484057241AB3
:1018500000E003E0681C05B21C2CE5D200BF681C48
:1018600040B218498870601C40B2C8701348B6FB7B
:10187000F0F100FB11644FF46160B4FBF0F040B292
:10188000104908714FF46160B4FBF0F100FB1140A6
:101890003C21B0FBF1F040B20A4948714FF461605D
:1018A000B4FBF0F100FB11403C21B0FBF1F201FB75
:1018B000120040B203498871012070BD80510100BF
:1018C000C200002034000020A4E1000800210448E8
:1018D00001880448B0F8180841EA00407047000049
:1018E0001C2800400020004001460020074A1288C2
:1018F00002EA0102D0B2064AB2F800280A4202D037
:1019000008B1012000E000207047000004280040DA
:101910000020004010B50120FFF7E6FF70B1012064
:10192000FFF72AFF00F0A6F8FFF7D0FF044988422E
:1019300004D1002000F07AF800F09CF810BD0000FF
:10194000805101002DE9F05F06460F46904699460A
:10195000DDE90AAB0024B6F5FA6F03DB40F633008D
:10196000864202DD0120BDE8F09F40F2B2750AE038
:101970002846FFF7D3FB10B12148044401E0214879
:101980000444681C05B2B542F2DB781E47B200255C
:1019900010E01D48405740F2A321484304EBC01417
:1019A0003046FFF7BBFB18B1012D01D117480444A5
:1019B000681C05B2BD42ECDBA8F1010040F2A32196
:1019C000484304EBC014C9EB4910C0EB092004EBF9
:1019D0000014CAEB0A1004EB80045C440CA001F074
:1019E00065F80120FFF7FEFC00F044F8204600F007
:1019F0001DF800F03FF809A001F058F80020B2E708
:101A00000085E2018033E101A4E10008805101007A
:101A10000D0A4920616D206F6B0D0A000D0A4920E7
:101A2000616D206F6B320D0A0000000000B50246A8
:101A3000FFF7B2FE100C044908800449A1F81C28E5
:101A4000FFF7B6FE00BD000018280040002000404F
:101A500000B50246FFF7A0FEC2F303400349088029
:101A60000349A1F80C28FFF7A3FE00BD0828004099
:101A70000020004000BF0348008810F0200FFAD07B
:101A80007047000004280040074800884FF6F771AF
:101A900000EA01000549A1F8040800BF02480088D7
:101AA00010F0080FFAD070470428004000200040D2
:101AB00002A000F0FBFF00BFFEE700000D0A455248
:101AC000524F525F5356430D0A0000002DE9F0417A
:101AD00004460F4616464FF496711748FEF75DFB15
:101AE00000201649086000250BE0615D144800F0F5
:101AF000E8FE00BF4021124800F016FE0028F9D091
:101B00006D1C605D0028F0D1012211030D48FFF724
:101B1000ECFA304602F0F4F900224FF48051094803
:101B2000FFF7E3FA39460448FEF751FB10B10120F4
:101B3000BDE8F0810020FBE7200600200400002023
:101B400000500040000C014010B500F001F810BD3D
:101B5000002100202E4A126842F480322C4B1A6079
:101B600000BF2B4A126802F40030491C10B9B1F5CD
:101B7000A06FF6D1264A126812F4003F01D001206E
:101B800000E00020012842D1224A126842F01002EF
:101B9000204B1A601A46126822F003021A601A4695
:101BA000126842F002021A60194A5268184B5A60D1
:101BB0001A4652685A601A46526842F480625A6065
:101BC0001A46526822F47C125A601A46526842F44D
:101BD000E8125A601A46126842F080721A6000BF1A
:101BE0000B4A126812F0007FFAD0094A526822F0BC
:101BF0000302074B5A601A46526842F002025A60CA
:101C000000BF034A526802F00C02082AF9D170475B
:101C1000001002400020024010B51348006840F058
:101C200001001149086008464068104908400E4903
:101C30004860084600680E4908400B49086008469D
:101C4000006820F4802008600846406820F4FE0008
:101C500048604FF41F008860FFF776FF4FF0006088
:101C60000449086010BD0000001002400000FFF8A9
:101C7000FFFFF6FE08ED00E010B50121880700F037
:101C8000F8F938B10121880700F084F84FF6FA70AE
:101C90004107888410BD000010B50121304800F0D4
:101CA000E8F9F0B301212E4800F074F82D480068DF
:101CB00008B104F077FF2C480068032805D1012003
:101CC00002F08CF9002029490860274800680328A1
:101CD00012DD4FF0804000F0C9F924490860084641
:101CE0000068B0F5FA6F01DD012000E00020204916
:101CF000086000201C4908601B480068401C1A4905
:101D000008601C480068B0B9012211031A48FFF7A7
:101D1000ECF900224FF400511748FFF7E6F90022D2
:101D200000E01BE04FF480411348FFF7DEF901208B
:101D30001049086012E000224FF480510E48FFF76E
:101D4000D4F9012251030C48FFF7CFF90122910386
:101D50000948FFF7CAF900200649086010BD0000D5
:101D600000040040300000204C000020280000202B
:101D70002C00002048000020000C014021B1028806
:101D800042F08002028004E002884FF67F731A401E
:101D900002807047CA430282704721B1028842F034
:101DA0000102028004E002884FF6FE731A400280AE
:101DB000704700000EB54FF0804000F047F84FF636
:101DC000FF70ADF804000420ADF80000C001ADF8CC
:101DD00006000020ADF8020069464FF0804000F098
:101DE0007BF970214FF0804000F060F900231A4623
:101DF00019464FF0804000F01DF901218807FFF7D8
:101E0000CCFF42F21070ADF804004FF4E150ADF891
:101E100000000020ADF80600ADF8020069460A484F
:101E200000F05AF901210848FFF7A8FF01210648F0
:101E3000FFF7B0FF01221146034800F02BF9012102
:101E40000148FFF7AAFF0EBD0004004010B504468C
:101E50006848844208D10121C014FFF709FB002122
:101E6000E014FFF705FBC4E0B4F1804F08D1012175
:101E70000846FFF7DDFA00210120FFF7D9FAB8E0A4
:101E80005D48844208D101210220FFF7D1FA0021E8
:101E90000220FFF7CDFAACE05848844208D1012176
:101EA0000420FFF7C5FA00210420FFF7C1FAA0E0E3
:101EB0005348844208D101210820FFF7B9FA0021D4
:101EC0000820FFF7B5FA94E04E48844208D101217A
:101ED0001020FFF7ADFA00211020FFF7A9FA88E0E3
:101EE0004948844208D101212020FFF7A1FA0021AE
:101EF0002020FFF79DFA7CE04448844208D101216C
:101F00004014FFF7B5FA00216014FFF7B1FA70E052
:101F10003F48844209D10121C804FFF7A9FA0021F2
:101F20004FF40020FFF7A4FA63E03A48844209D155
:101F300001210805FFF79CFA00214FF48010FFF7FC
:101F400097FA56E03448844209D101214805FFF749
:101F50008FFA00214FF40010FFF78AFA49E02F486A
:101F6000844208D101214020FFF762FA002140207D
:101F7000FFF75EFA3DE02A48844208D10121802023
:101F8000FFF756FA00218020FFF752FA31E025488A
:101F9000844208D101218015FFF74AFA0021A015DB
:101FA000FFF746FA25E02048844209D101210804C0
:101FB000FFF75EFA00214FF48030FFF759FA18E07E
:101FC0001A48844209D101214804FFF751FA00213F
:101FD0004FF40030FFF74CFA0BE01548844208D16B
:101FE00001218804FFF744FA00214FF48020FFF715
:101FF0003FFA10BD002C01400004004000080040E2
:10200000000C00400010004000140040003401406B
:10201000004C0140005001400054014000180040B5
:10202000001C0040002000400040014000440140EE
:1020300000480140F0B504460D4616461F463B4693
:1020400032462946204600F005F8208940F48040B9
:102050002081F0BD30B50C4600210189C9B21D06B2
:1020600042EA154525432943018130BD0146888C4C
:10207000704730B50246002000230024158A05EA87
:102080000103958905EA010413B10CB1012000E0B8
:10209000002030BD10B51AB183890B43838104E061
:1020A0008389CC43A4B22340838110BD30B504465C
:1020B0000D462946204600F005F8208940F007002B
:1020C000208130BD0A46002101894FF68F731940E7
:1020D0001143018170470000002202881D4B984285
:1020E0000ED01D4B98420BD0B0F1804F08D01B4B47
:1020F000984205D01A4B984202D01A4B984204D10C
:102100004FF68F731A404B881A43174B984207D0EB
:10211000164B984204D04FF6FF431A40CB881A431F
:1021200002808B8883850B8803850A4B98420BD0ED
:10213000094B984208D00E4B984205D00D4B98425F
:1021400002D00D4B984201D10B7A03860123838282
:1021500070470000002C01400034014000040040A2
:1021600000080040000C0040001000400014004037
:1021700000400140004401400048014010B50821E2
:102180001E4800F0D1FA30B108211C4800F062F975
:102190001A4800F091FB40F22551184800F0D1FA9E
:1021A00030B3164800F088FBC4B2154801680068D7
:1021B000401C134A1060134844540020114912680F
:1021C00088540F480068B0F5967F02D900200C496A
:1021D00008600D480068042803D121460B4800F030
:1021E00070FB0B48006818B121460A4800F069FBF3
:1021F0002021024800F02EF910BD0000004C0040E4
:102200000C000020600C0020140000200038014069
:10221000200000200044004010B508211E4800F0B6
:1022200083FA30B108211C4800F014F91A4800F074
:1022300043FB40F22551184800F083FA38B31648A2
:1022400000F03AFBC4B21548006802280AD12146C2
:10225000134800F036FB00BF4021114800F064FA3B
:102260000028F9D00F4801680068401C0D4A106032
:102270000D48445400200C491268885409480068ED
:1022800040F21451884202D90020064908602021FA
:10229000014800F0DFF810BD00500040140000209D
:1022A00000380140040000202006002010B508215D
:1022B000194800F039FA30B10821174800F0CAF87F
:1022C000154800F0F9FA40F22551134800F039FAA8
:1022D000E0B1114800F0F0FA1049087008460178A2
:1022E0000F4802680068401C0D4B18600D4881546F
:1022F00000200C491A46126888541846006840F2BB
:102300001451884202D90020194608602021024851
:1023100000F0A0F810BD000000380140400000208F
:10232000000000200C01002010B50821274800F013
:10233000FBF930B10821254800F08CF8234800F063
:10234000BBFA40F22551214800F0FBF9E8B31F48E1
:1023500000F0B2FA1E4908701E48006803280BD12D
:10236000084601781C4800F0ACFA00BF40211A482A
:1023700000F0DAF90028F9D015480178174802680A
:102380000068401C154B18601548815400211A46FE
:102390001268815418460068B0F5967F02D9002073
:1023A000194608600F48006858B1094801780E487E
:1023B00000F087FA00BF4021074800F0B5F9002877
:1023C000F9D02021014800F045F810BD004400403C
:1023D00041000020140000200038014008000020C7
:1023E000340B002020000020004C004010B50821D4
:1023F000154800F099F930B10821134800F02AF887
:10240000114800F059FA40F225510F4800F099F9AF
:10241000A8B10D4800F050FAC4B2204602F042FDC7
:102420000A48006805280AD12146094800F049FAFF
:1024300000BF4021064800F077F90028F9D020219C
:10244000014800F007F810BD0048004014000020CB
:102450000038014001F40072B2F5007F00D100BFE6
:10246000CA430280704721B1828942F400528281BE
:1024700004E082894DF6FF731A40828170470000A4
:1024800000B585B0012144F20400FEF7E1FF4FF4EE
:102490000070ADF8100018208DF8130003208DF89F
:1024A000120004A99748FEF745FD4FF48060ADF88F
:1024B000100004208DF8130003208DF8120004A9E9
:1024C0009048FEF737FD4FF47A3000900020ADF8C9
:1024D0000400ADF80600ADF80800ADF80C000C20C3
:1024E000ADF80A006946884800F07AF9012240F206
:1024F0002551854800F04FF901218348FFF7B3FFCC
:1025000001214804FEF784FF01210420FEF7A0FF0B
:102510000420ADF8100018208DF8130003208DF86A
:10252000120004A97748FEF705FD0820ADF8100059
:1025300004208DF8130003208DF8120004A97148BF
:10254000FEF7F8FC4FF4164000900020ADF80400B0
:10255000ADF80600ADF80800ADF80C000C20ADF8A1
:102560000A006946694800F03BF9012240F2255112
:10257000664800F010F901216448FFF774FF01215B
:102580008804FEF745FF01210820FEF761FF4FF4A4
:102590008060ADF8100018208DF8130003208DF82E
:1025A000120004A95A48FEF7C5FC4FF40060ADF8CC
:1025B000100004208DF8130003208DF8120004A9E8
:1025C0005348FEF7B7FC4FF4165000900020ADF8CA
:1025D0000400ADF80600ADF80800ADF80C000C20C2
:1025E000ADF80A0069464B4800F0FAF8012240F2C3
:1025F0002551484800F0CFF801214648FFF733FF46
:102600000121C804FEF704FF01211020FEF720FF7E
:102610004FF48060ADF8100018208DF813000320EF
:102620008DF8120004A93C48FEF784FC4FF40060CA
:10263000ADF8100004208DF8130003208DF812006F
:1026400004A93548FEF776FC4FF4164000900020B0
:10265000ADF80400ADF80600ADF80800ADF80C00C8
:102660000C20ADF80A0069462C4800F0B9F80122A8
:1026700040F22551294800F08EF801212748FFF744
:10268000F2FE01210805FEF7C3FE01213020FEF70E
:10269000DFFE4FF48050ADF8100018208DF81300C5
:1026A00003208DF8120004A91B48FEF743FC042008
:1026B000ADF810008DF8130003208DF8120004A966
:1026C0001748FEF737FC4FF4E13000900020ADF8DA
:1026D0000400ADF80600ADF80800ADF80C000C20C1
:1026E000ADF80A0069460F4800F07AF8012240F27E
:1026F00025510C4800F04FF801210A48FFF7B3FEBE
:1027000005B000BD00080140003801400044004011
:10271000000C01400048004000100140004C004007
:10272000001401400050004002460020B1F5007F37
:1027300000D100BF13880B4201D0012000E000202F
:10274000704770B502460024002300250020A1F543
:1027500010666A3E00D100BFC1F3421501F01F03AD
:10276000012606FA03F3012D02D19689334006E0D3
:10277000022D02D1168A334001E0968A33400C12B2
:10278000012606FA04F41688344013B10CB1012076
:1027900000E0002070BDF0B50346002400260025AF
:1027A0000020A1F510676A3F00D100BF1846C1F3B1
:1027B000421401F01F06012707FA06F5012C01D18A
:1027C0000C3004E0022C01D1103000E014301AB1BA
:1027D00007682F43076002E00768AF430760F0BD5A
:1027E0002DE9F04786B005460E460024A24600BFFC
:1027F000A1460027B08900B100BF2F462C8A4CF6B5
:10280000FF700440F08804432C82AC894EF6F3102C
:102810000440B08831890843718908430443AC817E
:10282000AC8A4FF6FF400440B0890443AC8201A853
:10283000FEF7A2FE1F48874202D1DDF810A001E09A
:10284000DDF80CA0A88910F4004F08D00AEBCA00EC
:1028500000EB0A1031684900B0FBF1F807E00AEB21
:10286000CA0000EB0A1031688900B0FBF1F864205F
:10287000B8FBF0F004012009642101FB1089A8894C
:1028800010F4004F08D0322000EBC900B0FBF1F08B
:1028900000F00700044308E0322000EB0910642137
:1028A000B0FBF1F000F00F0004432C8106B0BDE84E
:1028B000F08700000038014001468888C0F3080016
:1028C0007047C1F3080282807047000000B585B0F0
:1028D000002201212848FEF708FC08212748FDF7BF
:1028E00029FE60B126A000F0E1F86A4600212348E5
:1028F000FDF7B4FE08212148FDF7BCFD00BF4021D3
:102900001E48FDF717FE60B122A000F0CFF86A461E
:1029100001211A48FDF7A2FE40211848FDF7AAFD43
:1029200000BF02211548FDF705FE60B16A4600218F
:102930001248FDF793FE1CA000F0B8F802210F48E2
:10294000FDF798FD00BF10210C48FDF7F3FD60B1C5
:1029500019A000F0ABF86A4601210848FDF77EFE99
:1029600010210648FDF786FD00BF012211460248EE
:10297000FEF7BBFB05B000BD000C01400064004049
:102980000D0A43414E206572726F723121210D0A8A
:10299000000000000D0A43414E206572726F7232D2
:1029A00021210D0A000000000D0A43414E206F6BEB
:1029B00021210D0A000000000D0A43414E206572DE
:1029C000726F723321210D0A0000000004E003A0A1
:1029D00000F06CF800BFFEE7F9E700000D0A455271
:1029E000524F525F55534147450D0A002DE9F041C2
:1029F00007460C4615461E464FF00008E9B2204631
:102A000000F0ACFCB04206D00FA000F04FF84FF041
:102A1000FF30BDE8F0812A462146384601F0D3FE5A
:102A20004FF47A7001F06CFAFF2240F2145115480D
:102A3000FDF7ACFB2A461349384601F0B5FE12A05B
:102A400000F034F80120E4E70D0A62756620646145
:102A5000746120637263206572726F72202C6375DB
:102A60007272656E7420646174612061626F727449
:102A70002C706C65617365207265747279212121F7
:102A80000D0A0000541600200D0A77726974652043
:102A90007265616420636865636B20666C6173684E
:102AA000206F6B2B2B2B2B2B0D0A00000FB4054B2B
:102AB00010B503A9044A029800F030F810BC5DF884
:102AC00014FB000059480008040100200FB4084B13
:102AD00010B504A902AA039800F020F8044602A940
:102AE000002000F059FA204610BC5DF814FB0000ED
:102AF000992F0008004870470801002002E008C82C
:102B0000121F08C1002AFAD170477047002001E067
:102B100001C1121F002AFBD1704700002DE9FF4FB1
:102B20008DB005460F460026EEE1252879D1002418
:102B30006D1CF94AA246A14601212B78203B01FADF
:102B400003F0104202D004436D1CF6E728782A28CF
:102B500010D06FF02F022878A0F13001092915D884
:102B60000AEB8A0102EB410144F0020400EB010A86
:102B70006D1CF0E757F804ABBAF1000F03DA44F428
:102B80000054CAF1000A44F002046D1C28782E2873
:102B900017D115F8010F44F004042A280ED06FF065
:102BA0002F022878A0F1300109290AD809EB890100
:102BB00002EB410100EB01096D1CF2E757F8049BA1
:102BC0006D1C28786C280FD006DC4C2817D068289C
:102BD0000DD06A2814D104E0742810D07A280FD1BF
:102BE0000DE044F400140AE044F4801401E044F4DD
:102BF00040146978814202D16D1C04F580146D1C6B
:102C000095F800C0BCF16E0F2AD012DCBCF1630F46
:102C10003CD007DCBCF1000F76D0BCF1580F19D1C5
:102C2000ACE018E0BCF1640F6FD0BCF1690F11D1BA
:102C30006BE0BCF1730F32D006DCBCF16F0F71D0CA
:102C4000BCF1700F06D19BE0BCF1750F6BD0BCF1ED
:102C5000780F69D06046DDE90F129047761C52E18B
:102C6000C4F30250022806D003280AD0042801CF5A
:102C70000AD0066047E101CF4FEAE671C0E9006182
:102C800041E101CF06803EE106703CE101CF8DF8C5
:102C9000000000208DF80100EB46012003E057F80A
:102CA00004BB4FF0FF3061074FF0000102D40DE08C
:102CB00008F10101884649450FDA8045F8DB1BF829
:102CC00008100029F4D108E008F10101884681428A
:102CD000FADB1BF808100029F6D1DDE90F23AAEB77
:102CE00008008146214600F040F9304400EB080618
:102CF00004E0DDE90F121BF8010B9047B8F1010861
:102D0000F7D221464846F9E002E10A20C4F3025214
:102D10004FF0000B0890022A07D001CFC117032AF9
:102D200009D00AE035E022E023E0FF1D27F0070785
:102D3000F7E8020105E000B2C117042A01D140B250
:102D4000C117002906DA0023D0EB030063EB010171
:102D50002D2202E0220504D52B228DF82420012209
:102D600003E0E20701D02022F7E7904653E00A2172
:102D700010E010204FF0000B08900EE0102109E049
:102D800010214FF0000B44F004044FF008090891A3
:102D900003E008214FF0000B0891C4F30252022A0D
:102DA00004D001CF0021032A06D007E0FF1D27F041
:102DB0000707F7E8020105E080B20021042A01D1EB
:102DC000C0B200214FF00008220724D5BCF1700FDB
:102DD0002AD0089B83F0100353EA0B0309D150EA71
:102DE000010206D030228DF824208DF825C0022261
:102DF0009046089B83F0080353EA0B030BD150EA7B
:102E0000010201D1620706D530228DF824204FF04F
:102E10000108A9F1010941A2BCF1580F00D044A258
:102E20000B9208AA0A920FE040228DF8242001227A
:102E3000DEE75B46089AFDF72DFA0B9B9B5C0A9A2E
:102E4000A2F101020A92137050EA0102F1D10A982C
:102E5000ADEB000000F1200B600702D524F48034B4
:102E600001E04FF00109002049465A46D94501DDED
:102E7000A1EB020000EB0B0141440890AAEB01001A
:102E80000B90E00306D4DDE90F2321460B9800F0F8
:102E90006CF806444FF000090DF1240A07E0DDE963
:102EA0000F121AF809009047761C09F10109C14573
:102EB000F5DBE0030CD5DDE90F2321460B9800F08C
:102EC00054F8064404E0DDE90F1230209047761CE8
:102ED0000899481E08900029F5DC08E00A980A992C
:102EE0000078491C0A91DDE90F129047761CBBF16E
:102EF0000001ABF1010BF1DC0B982146DDE90F235A
:102F000000F020F806446D1C287800287FF40DAEF0
:102F100011B03046BDE8F08F09280100303132335E
:102F200034353637383941424344454600000000C5
:102F3000303132333435363738396162636465662F
:102F4000000000002DE9F0410446002517461E460A
:102F5000880405D406E039462020B04705F1010574
:102F6000641EF8D52846BDE8F0812DE9F0410446FD
:102F70000025302790461E46C80300D42027880429
:102F800005D506E041463846B04705F10105641E07
:102F9000F8D52846BDE8F0810A68531C0B60107014
:102FA0007047000070B504460D460CA12846FDF799
:102FB0000EF906460F21284600F056FB002800DBDC
:102FC0002EB900222946A0B201F01CFB04E0012228
:102FD000311DA0B201F016FB70BD00003431353355
:102FE0000000000070B504460D460CA12846FDF710
:102FF000EEF806460F21284600F036FB002800DBDD
:103000002EB900222946A0B201F0FCFA04E0012208
:10301000311DA0B201F0F6FA70BD00003431343336
:103020000000000070B504460D460CA12846FDF7CF
:10303000CEF806460F21284600F016FB002800DBDC
:103040002EB900222946A0B201F0DCFA04E00122E8
:10305000311DA0B201F0D6FA70BD00003431343712
:103060000000000070B504460D460CA12846FDF78F
:10307000AEF806460F21284600F0F6FA002800DBDD
:103080002EB900222946A0B201F0BCFA04E00122C8
:10309000311DA0B201F0B6FA70BD000034313438F1
:1030A0000000000070B504460D460CA12846FDF74F
:1030B0008EF806460F21284600F0D6FA002800DBDD
:1030C0002EB900222946A0B201F09CFA04E00122A8
:1030D000311DA0B201F096FA70BD000034313439D0
:1030E0000000000070B504460D460CA12846FDF70F
:1030F0006EF806460F21284600F0B6FA002800DBDD
:103100002EB900222946A0B201F07CFA04E0012287
:10311000311DA0B201F076FA70BD000034313441A7
:103120000000000070B504460D460CA12846FDF7CE
:103130004EF806460F21284600F096FA002800DBDC
:103140002EB900222946A0B201F05CFA04E0012267
:10315000311DA0B201F056FA70BD00003431344286
:103160000000000070B504460D460CA12846FDF78E
:103170002EF806460F21284600F076FA002800DBDC
:103180002EB900222946A0B201F03CFA04E0012247
:10319000311DA0B201F036FA70BD0000343131307B
:1031A0000000000070B504460D460CA12846FDF74E
:1031B0000EF806460F21284600F056FA002800DBDC
:1031C0002EB900222946A0B201F01CFA04E0012227
:1031D000311DA0B201F016FA70BD00003431343652
:1031E0000000000070B504460D460CA12846FCF70F
:1031F000EEFF06460F21284600F036FA002800DBD5
:103200002EB900222946A0B201F0FCF904E0012207
:10321000311DA0B201F0F6F970BD00003431333336
:10322000000000002DE9F04104460F461646002537
:103230004FF496711148FCF7B0FF00BF0BE0615DE1
:103240000F48FFF73EFB00BF40210D48FFF76CFA27
:103250000028F9D06D1C605D0028F0D10949086094
:10326000304600F04DFE39460448FCF7B0FF10B17F
:103270000120BDE8F0810020FBE70000600C002089
:10328000004C00400C00002070B5044600250420CE
:103290001749086054B917A0FFF708FC00224FF443
:1032A00080411B48FDF721FF012070BD19A0FFF7E9
:1032B000FDFB012291031648FDF717FF4FF4FA605A
:1032C00000F01EFE00250CE04FF47A7217A118A042
:1032D000FFF7A8FF20B117A0FFF7E8FB0120E4E704
:1032E0006D1C052DF0DB18A0FFF7E0FB0020DCE7EC
:1032F000140000200D0A626C756520746F6F74688D
:103300002070776F6572206F66660D0A00000000FE
:10331000000801400D0A626C756520746F6F746857
:103320002070776F6572206F6E0D0A004F4B0000A2
:1033300041540D000D0A626C7565207374617274DE
:10334000206F6B0D0A0000000D626C7565207374B0
:10335000617274206572726F720A0000F0B5ADF58B
:10336000017D05460E464FF400720F4901A8FCF797
:10337000FBFE00240EE02046E11704EB1161C1F3CF
:1033800007272006040C2878784001A931F810009E
:1033900044406D1C3000A6F10101CEB2EBD12046B5
:1033A0000DF5017DF0BD0000B09800082DE9FF4F3C
:1033B000ADF5017D0746894690469A46DDF838B25C
:1033C00000254FF40072264901A8FCF7CDFE002429
:1033D00097B100BF0EE02046E11704EB1161C1F385
:1033E00007262006040C785D704001A931F8100012
:1033F00044406D1C4D45EEDBB8F1000F13D00025A5
:103400000FE02046E11704EB1161C1F30726200607
:10341000040C18F80500704001A931F81000444070
:103420006D1C5545EDDBBBF1000F14D000250FE0FE
:103430002046E11704EB1161C1F307262006040CB6
:103440001BF80500704001A931F8100044406D1CC4
:103450008F988542ECDB20460DF5057DBDE8F08FA9
:10346000B09A000870B504460D460CA12846FCF73A
:10347000AEFE06460F21284600F0F6F8002800DBD5
:103480002EB900222946A0B201F0BCF804E00122C6
:10349000311DA0B201F0B6F870BD000034313343E5
:1034A0000000000070B504460D460CA12846FCF74C
:1034B0008EFE06460F21284600F0D6F8002800DBD5
:1034C0002EB900222946A0B201F09CF804E00122A6
:1034D000311DA0B201F096F870BD000034313344C4
:1034E0000000000070B504460D460CA12846FCF70C
:1034F0006EFE06460F21284600F0B6F8002800DBD5
:103500002EB900222946A0B201F07CF804E0012285
:10351000311DA0B201F076F870BD000034313345A2
:103520000000000070B504460D460CA12846FCF7CB
:103530004EFE06460F21284600F096F8002800DBD4
:103540002EB900222946A0B201F05CF804E0012265
:10355000311DA0B201F056F870BD00003431334681
:103560000000000038B50446042C00D82CB916A081
:10357000FFF79CFA4FF0FF3038BD224618A168468D
:10358000FFF7A4FA694617A0FFF790FA4FF4C87244
:103590001EA121A0FEF79AFA28B923A0FFF786FA08
:1035A0004FF0FF30E8E769462648FCF710FE28B1E7
:1035B000694625A0FFF77AFA0020DDE7694624A0D6
:1035C000FFF774FA0120D7E7717565727920736F80
:1035D000636B6574204944206572726F720D0A0036
:1035E000256400000D0A636865636B20736F636B6D
:1035F00065742025732073746174652B2B2B2B2B22
:103600002B2B2B2B2B2B2B2B0D0A00002B4D49503A
:103610004F50454E0000000041542B4D49504F5033
:10362000454E3F0D00000000717565727920736F83
:10363000636B657420636D64206572726F720D0A2E
:10364000000000002006002063616E206E6F742071
:1036500066696E642074686520736F636B65743A85
:1036600025730D0A0000000070B505460C4614F0E5
:10367000080F07D015A12846FCF7A9FD10B14FF09F
:10368000FF3070BD14F0020F07D012A12846FCF7DE
:103690009EFD10B16FF00100F3E714F0040F07D0A6
:1036A0000EA12846FCF793FD10B16FF00200E8E789
:1036B00014F0010F07D00BA12846FCF788FD10B9C4
:1036C0004FF0FF30DDE70120DBE7000044415441CB
:1036D000000000004E45435400000000524348499A
:1036E0004E4700003E00000070B504460D460CA198
:1036F0002846FCF76CFD06460F212846FFF7B4FF6D
:10370000002800DB2EB900222946A0B200F07AFF83
:1037100004E00122311DA0B200F074FF70BD000072
:10372000343133310000000070B504460D460CA161
:103730002846FCF74CFD06460F212846FFF794FF6C
:10374000002800DB2EB900222946A0B200F05AFF63
:1037500004E00122311DA0B200F054FF70BD000052
:10376000343134450000000092B0002400250026CA
:1037700000205349086002F0F1F90020FFF784FDB2
:103780000120FFF781FD002002F05CFA4DA0FFF759
:103790008DF94FF4FA6000F0B3FB02F0DFFB761C0A
:1037A00002204D4908604DA0FFF780F900BF0021BD
:1037B0004F48FEF7F2FA00204E49086001204049C8
:1037C000086000204C49086003F0B6F90121484820
:1037D000FEF7E3FA01204749086005F0DDFC4FF4ED
:1037E000FA7246A146A0FEF771F94FF4FA7243A1AE
:1037F00043A0FEF76BF943A14648FCF7E8FC20B96B
:1038000045A14448FCF7E3FC30B145A0FFF74EF971
:10381000012005F0D9FDCAE703F000FD4EE0FEF7F8
:1038200055F8054644A0FFF741F901F093FA442208
:1038300045496846FCF798FC43481438001D0FC8FA
:1038400000F086FC20B9314640A0FFF72FF9AEE723
:103850004648006890B128480122002103683A4890
:10386000103803F00DFF012200213748103803F013
:10387000D9FF42F2107000F043FB13E00122002157
:103880003148103803F0CEFF002408E037480068C4
:1038900000B106E04FF47A7000F032FB641C3C2C5F
:1038A000F4DB00BFFEF712F8471BFEF70FF8804667
:1038B0003B462A4601462EA0FFF7F8F8AFE7000086
:1038C000200000200D0A2073797374656D206265F5
:1038D00067696E0D0A000000140000200D0A4245C1
:1038E00047494E2053454E44204D53470D0A000092
:1038F0000004004030000020240000204F4B000056
:1039000041540D004E4F5420494E534552544544A6
:10391000000000002006002052454D4F5645000093
:103920000D0A73696D2063617264206E6F74206983
:103930006E736572740D0A000D0A707265706172A3
:1039400065206770730D0A00001200200D0A657370
:103950007461626C697368206E6574776F726B2036
:103960006661696C203A25640D0A00002C00002075
:103970000D0A54494D452055534544203A25642DA0
:103980003E25642D2D3E25640D0A000070B50446C9
:103990000D460CA12846FCF71AFC06460F212846C6
:1039A000FFF762FE002800DB2EB900222946A0B2F4
:1039B00000F028FE04E00122311DA0B200F022FE3A
:1039C00070BD0000343132430000000070B5044681
:1039D0000D460CA12846FCF7FAFB06460F212846A7
:1039E000FFF742FE002800DB2EB900222946A0B2D4
:1039F00000F008FE04E00122311DA0B200F002FE3A
:103A000070BD000034313035000000002DE9FF4F5B
:103A100097B00E461746984600240025A146A246B8
:103A20004FF47A71B348FCF7B8FB142112A8FCF7E5
:103A3000B4FB00BF00BFB9F1020F15DDB8F1010FF3
:103A400007D1ADA0FFF732F84FF0FF301BB0BDE853
:103A5000F08FB2A0FFF72AF84FF000094FF47A7008
:103A600000F04EFA0020F1E709F101093A9888B117
:103A7000B3A0FFF71BF8442229A96846FCF774FBA2
:103A800025A80FC800F064FB002803DCB3A0FFF7F3
:103A90000DF8D0E74FF0000A00BF0AF1010ABAF1B1
:103AA000020F05DDB2A0FFF701F84FF0FF30CDE7C0
:103AB0004FF47A718F48FCF770FB00242146B1A0C7
:103AC000FEF7F4FF0FB38B4A1C21B44805F092FBBC
:103AD000044604EBD4714910B4EB410103D0B0A00B
:103AE000FEF7E4FFD9E783480219B1B2179805F051
:103AF00081FB204404B204EBD4714910B4EB4101C2
:103B00001CD0AFA0FEF7D2FFC7E77A48FCF775FBE1
:103B1000784900EB010B5A46B1B2179805F06AFBE1
:103B2000204404B204EBD4714910B4EB410105D038
:103B3000A3A0FEF7BBFF4FF0FF3087E7A34604EBDF
:103B4000D4704210A5A1AB48FEF7C0FFA949AAA0B6
:103B5000FEF7ACFF4FF4FA72ADA1A648FDF7B6FF31
:103B600040F21451AB48FCF718FB0020AA4908604A
:103B70001421AA48FCF711FBA9A1A848319AFEF725
:103B8000A5FF5C49AAA0FEF791FF5A4AA349ACA041
:103B9000FEF78CFF2221AF48FEF793FE00BF4021C5
:103BA000AC48FEF7C1FD0028F9D00D21A948FEF769
:103BB00088FE00BF4021A748FEF7B6FD0028F9D0D7
:103BC0000A21A448FEF77DFE00BF4021A148FEF770
:103BD000ABFD0028F9D04748FCF70FFB83468F4820
:103BE000FCF70BFB23465A46014611909AA0FEF7BC
:103BF0005DFF4FF47A7000F083F914219DA0FEF769
:103C000055FF2146A0A0FEF751FF00250DE0834897
:103C1000405781B2A148FEF754FE00BF40219F48A3
:103C2000FEF782FD0028F9D06D1C7C48FCF7E5FA10
:103C3000A842ECD800251AE02E48405781B2974898
:103C4000FEF73FFE00BF40219448FEF76DFD0028BF
:103C5000F9D02848405781B27E48FEF732FE00BFB7
:103C600040217C48FEF760FD0028F9D06D1CA5427C
:103C7000E2DB00BF40218948FEF756FD0028F9D05D
:103C800022218648FEF71DFE00BF40218348FEF733
:103C90004BFD0028F9D00D218048FEF712FE00BF31
:103CA00040217E48FEF740FD0028F9D07CA0FEF7B9
:103CB000FDFE1BE0642000F023F955A15548FCF7F8
:103CC00086FA18B177A0FEF7F1FE10E07CA151480A
:103CD000FCF77DFA18B17CA0FEF7E8FEABE66D1CA0
:103CE000322D03DD81A0FEF7E1FE00E0E2E700BF38
:103CF0000120ABE6B81C00200D0ACAFDBEDDD6D8F7
:103D0000B7A2CAA7B0DCD7B4CCACA3ACB2BBB2B933
:103D1000B7A2CAFDBEDD0D0A000000000D0ACAFDF3
:103D2000BEDDD6D8B7A2CAA7B0DCA3ACB4E6B4A2B5
:103D3000B5BDCAFDBEDD466C617368D6D00D0A0004
:103D40000D0ABCECB2E9CDF8C2E7CAC7B7F1D0E8BA
:103D5000D2AAD6D8C1AC0D0A000000000D0ACDF8D9
:103D6000C2E7D6D8C1ACCAA7B0DC0D0A000000007B
:103D70000D0A73747232486578206572726F720D25
:103D80000A0000000D0A64617461206C656E67743E
:103D900068203A2025640D0A00000000C820002099
:103DA0000D0A63686172207472616C6174652068C9
:103DB0006561646572206572726F720D0A000000A1
:103DC0000D0A7472616E736C617465206461746154
:103DD000206572726F720D0A0000000041542B4D75
:103DE0004950534554533D312C25642C3530300D0A
:103DF00000000000B42000200D0A73657420736F6A
:103E0000636B657420636D643A25730D0A000000CE
:103E10004F4B00002006002004000020A0200020BE
:103E200041542B4D495053454E443D25642C2200AE
:103E30000D0A6461746120203A25730D0A000000A8
:103E40000D0A73656E6420636D64203A25732573D3
:103E500000000000003801400D0A636D643A2564DB
:103E600020206275663A25642020646174613A25D9
:103E7000640D0A000D0A636D642073697A65203A47
:103E800025640D0A000000000D0A62756620736942
:103E90007A65203A25640D0A0000000000500040B9
:103EA0000D0A00000D0A46494E442053454E442059
:103EB0004F4B2C434F4E54494E55450D0A000000C0
:103EC0004552524F520000000D0A46494E442045CB
:103ED00052524F522E474F544F2053544F52452069
:103EE000414E44204552524F520D0A000D0A54498A
:103EF0004D45204F5554202C474F4F4E0D0A000082
:103F0000002107E0002200E0521C42F228339A42CE
:103F1000FAD3491C8142F5D37047000070B50446BE
:103F20000D460CA12846FCF752F906460F212846FB
:103F3000FFF79AFB002800DB2EB900222946A0B229
:103F400000F060FB04E00122311DA0B200F05AFB3A
:103F500070BD0000343134320000000070B50446FA
:103F60000D460CA12846FCF732F906460F212846DB
:103F7000FFF77AFB002800DB2EB900222946A0B209
:103F800000F040FB04E00122311DA0B200F03AFB3A
:103F900070BD0000343132440000000070B50446AA
:103FA0000D460CA12846FCF712F906460F212846BB
:103FB000FFF75AFB002800DB2EB900222946A0B2E9
:103FC00000F020FB04E00122311DA0B200F01AFB3A
:103FD00070BD0000343135460000000038B504469D
:103FE0001CB900208DF8030002E001208DF80300C9
:103FF0004FF4E060FDF7D6F928208DF8000000208E
:104000008DF801008DF802006846FDF789F938BD8A
:1040100070B504460D460CA12846FCF7D8F80646B4
:104020000F212846FFF720FB002800DB2EB90022D5
:104030002946A0B200F0E6FA04E00122311DA0B248
:1040400000F0E0FA70BD00003431303400000000B0
:1040500070B504460D460CA12846FCF7B8F8064694
:104060000F212846FFF700FB002800DB2EB90022B5
:104070002946A0B200F0C6FA04E00122311DA0B228
:1040800000F0C0FA70BD000034313543000000007C
:1040900070B504460D460CA12846FCF798F8064674
:1040A0000F212846FFF7E0FA002800DB2EB9002296
:1040B0002946A0B200F0A6FA04E00122311DA0B208
:1040C00000F0A0FA70BD0000343130430000000061
:1040D00070B504460D460CA12846FCF778F8064654
:1040E0000F212846FFF7C0FA002800DB2EB9002276
:1040F0002946A0B200F086FA04E00122311DA0B2E8
:1041000000F080FA70BD000034313146000000003C
:1041100070B504460D460CA12846FCF758F8064633
:104120000F212846FFF7A0FA002800DB2EB9002255
:104130002946A0B200F066FA04E00122311DA0B2C7
:1041400000F060FA70BD000034313434000000002B
:104150000FB4FEB500256748007838BB4FF47A707D
:10416000FFF7CEFE50216448FCF717F8282163487A
:10417000FCF713F809A9139B169A8DE80E0060A1AD
:104180005D48DDE91423FEF7A1FC012364A15B482F
:10419000149AFEF79BFC584965A0FEF787FC574927
:1041A00068A0FEF783FC0120524908701498FFF7BD
:1041B000D9F9002806DD68A0FEF778FC0120FEBCD6
:1041C0005DF814FB68A0FEF771FC6DA0FEF76EFCB5
:1041D00000BF032D08DD70A0FEF768FC012005F08C
:1041E000F3F80025681EEAE76D1C02F079FFD0B3F2
:1041F000002410E04FF47A7272A175A0FDF766FCFE
:1042000000B10AE04FF47A7274A171A0FDF75EFC70
:1042100000B102E0641C142CECDB00BF0E2C06DBAA
:1042200071A0FEF743FC002005F0CEF8D1E703F0C3
:1042300063F803F033F9002004F01AF9002800DADB
:10424000C7E7002441E04FF4C8726DA16DA0FDF7EF
:104250003DFC4FF4FA6229492748FDF737FC6AA074
:10426000FEF724FC2EE03BE06BA16E48FBF7AFFFAE
:1042700020B96DA16B48FBF7AAFFB8B16DA0FEF79E
:1042800015FC1498FFF76EF901280AD172A0FEF709
:104290000DFC75A0FEF70AFC79A0FEF707FC0120D3
:1042A0008DE74FF47A70FFF72BFE0CE04FF47A7035
:1042B000FFF726FE78A0FEF7F9FB761C052E01DD40
:1042C000002600E0D0E700BF641C0A2CBBDB092CF1
:1042D0000DDB72A0FEF7EAFB002005F075F878E729
:1042E00073A0FEF7E3FB002005F06EF871E70120F4
:1042F00065E70000A0000020401C0020901C00206A
:1043000041542B4D49504F50454E3D25642C25645A
:104310002C222573222C25642C25640D000000001E
:104320002B4D49504F50454E3A2025642C256400B2
:104330000D0A736F636B657420636D64203A257397
:104340000D0A00000D0A736F636B6574207374614E
:1043500074653A25730D0A006E6574776F726B2071
:104360006F6B0D0A000000004E6574204572726F7D
:10437000722C7265436F6E6E6563740D0A000000E7
:104380000D0A65737461626C697368206E65747779
:104390006F726B0D0A0000000D0ACDF8C2E7D7A2BC
:1043A000B2E1CAA7B0DCB4CECAFDB9FDB6E02CC9F3
:1043B000E8B1B8B9CAD5CFA3ACC7EBBCECB2E90D34
:1043C0000A0000002B435245473A20302C310000B0
:1043D00041542B435245473F0D0000002B435245AB
:1043E000473A20302C3500000D0A53494D39303002
:1043F000CDF8C2E7D7A2B2E1CAA7B0DC0D0A00002F
:104400004F4B000041540D000D0A77616974696ECD
:1044100067206E65740D0A002B4D4950535441546A
:1044200000000000200600202B4D49504F50454E03
:10443000000000000D0A6F70656E20636D64206FD0
:104440007665722C626567696E20636865636B20B0
:1044500073746174650D0A000D0A73636F6B657484
:10446000206F6B0D0A0000000D0A53494D393030A2
:10447000207265636F6E6E656374204F4B0D0A008A
:104480000D0A53454E44204F4E4C494E45204D4554
:1044900053534147450D0A002B2B2B000D0A53495E
:1044A0004DCDF8C2E7BDA8C1A2CAA7B0DC0D0A0075
:1044B0000D0A53494D393030C6F4B6AFCAA7B0DC47
:1044C0000D0A000070B504460D460CA12846FBF706
:1044D0007EFE06460F212846FFF7C6F8002800DBBF
:1044E0002EB900222946A0B200F08CF804E0012287
:1044F000311DA0B200F086F870BD000034313245A5
:104500000000000070B504460D460CA12846FBF7DC
:104510005EFE06460F212846FFF7A6F8002800DBBE
:104520002EB900222946A0B200F06CF804E0012266
:10453000311DA0B200F066F870BD00003431353492
:104540000000000070B504460D460CA12846FBF79C
:104550003EFE06460F212846FFF786F8002800DBBE
:104560002EB900222946A0B200F04CF804E0012246
:10457000311DA0B200F046F870BD00003431333276
:104580000000000070B504460D460CA12846FBF75C
:104590001EFE06460F212846FFF766F8002800DBBE
:1045A0002EB900222946A0B200F02CF804E0012226
:1045B000311DA0B200F026F870BD00003431344641
:1045C0000000000070B504460D460CA12846FBF71C
:1045D000FEFD06460F212846FFF746F8002800DBBF
:1045E0002EB900222946A0B200F00CF804E0012206
:1045F000311DA0B200F006F870BD00003431353036
:10460000000000002DE9F04706460F4691460024C1
:10461000A046464800EB86008578314644A0FEF768
:1046200045FAC6EB0610484A02EBC000011D47A040
:10463000FEF73CFAC6EB0610434A02EBC00000F15D
:10464000440146A0FEF732FA15B928B2BDE8F0875A
:104650004548006888BB44480168304600F048FA85
:1046600080464B464246294640A0FEF71FFA0024EA
:1046700005E0395D49A0FEF719FA601C84B2AC422E
:10468000F7DBB9F1000F0BD0002406E0395D08EB31
:10469000040243488154601C84B2AC42F6DB0AE059
:1046A000002406E03F2108EB04023D488154601CD1
:1046B00084B2AC42F6DB28B2C8E7FFE72A480068BC
:1046C000012831D128480168304600F011FA8046AF
:1046D0004B464246294625A0FEF7E8F9002405E0AE
:1046E000395D2EA0FEF7E2F9601C84B2AC42F7DB24
:1046F000B9F1000F0BD0002406E0395D08EB04028D
:1047000028488154601C84B2AC42F6DB0AE00024E5
:1047100006E03F2108EB040222488154601C84B269
:10472000AC42F6DB28B291E700BF8FE720130020F0
:104730000D0A43555252454E5420494E4445583A6D
:1047400025640D0A00000000B09C00080D0A6C6191
:1047500062656C203A25730D0A0000000D0A434D76
:1047600044203A25730D0A00240000200D0A6E65CE
:10477000656420646174612073697A652D2D3E251E
:10478000642020696E6465782D2D3E256420766155
:104790006C75652D2D3E25640D0A000025335800EB
:1047A000C20E00205C10002010B50346002000BFA0
:1047B00003E01C580C54441CA0B29042F9DB10BD1D
:1047C0000246012070472DE9F04180460F4614460D
:1047D000FCF75AF9E11704EB91718910B4EB8101F0
:1047E0001BD0002504E0FF2079190855681C85B20C
:1047F000E11704EB91718910A4EB8101C1F104016F
:10480000A942F0DC2046E11704EB91718910A4EB7A
:104810008101C1F1040121448CB2002515E000267C
:104820007819C07806433602781980780643360234
:104830007819407806433602785D064308EB050098
:104840003146FCF7E3F8281D85B2A542E7DBFCF70B
:10485000C5F8BDE8F081000070B504460D46E1B230
:104860000548FEF72EF800BF80210348FDF75CFFE6
:104870000028F9D0204670BD0038014070B50446CC
:104880000D460CA12846FBF7A2FC06460F21284640
:10489000FEF7EAFE002800DB2EB900222946A0B26E
:1048A000FFF7B0FE04E00122311DA0B2FFF7AAFE1F
:1048B00070BD0000343132320000000070B5044693
:1048C0000D460CA12846FBF782FC06460F21284620
:1048D000FEF7CAFE002800DB2EB900222946A0B24E
:1048E000FFF790FE04E00122311DA0B2FFF78AFE1F
:1048F00070BD0000343132330000000070B5044652
:104900000D460CA12846FBF762FC06460F212846FF
:10491000FEF7AAFE002800DB2EB900222946A0B22D
:10492000FFF770FE04E00122311DA0B2FFF76AFE1E
:1049300070BD0000343135440000000070B50446FD
:104940000D460CA12846FBF742FC06460F212846DF
:10495000FEF78AFE002800DB2EB900222946A0B20D
:10496000FFF750FE04E00122311DA0B2FFF74AFE1E
:1049700070BD0000343132460000000070B50446BE
:104980000D460CA12846FBF722FC06460F212846BF
:10499000FEF76AFE002800DB2EB900222946A0B2ED
:1049A000FFF730FE04E00122311DA0B2FFF72AFE1E
:1049B00070BD0000343130410000000070B5044685
:1049C0000D460CA12846FBF702FC06460F2128469F
:1049D000FEF74AFE002800DB2EB900222946A0B2CD
:1049E000FFF710FE04E00122311DA0B2FFF70AFE1E
:1049F00070BD0000343135450000000070B504463C
:104A00000D4609A12846FBF7E2FB06462EB101221E
:104A10003146A0B2FFF7F6FD04E000223146A0B215
:104A2000FFF7F0FD70BD00003431303200000000AF
:104A300070B504460D460CA12846FBF7C8FB064698
:104A40000F212846FEF710FE002800DB2EB90022B9
:104A50002946A0B2FFF7D6FD04E00122311DA0B225
:104A6000FFF7D0FD70BD000034313033000000008E
:104A700070B504460D460CA12846FBF7A8FB064678
:104A80000F212846FEF7F0FD002800DB2EB900229A
:104A90002946A0B2FFF7B6FD04E00122311DA0B205
:104AA000FFF7B0FD70BD000034313531000000006B
:104AB00070B504460D460CA12846FBF788FB064658
:104AC0000F212846FEF7D0FD002800DB2EB900227A
:104AD0002946A0B2FFF796FD04E00122311DA0B2E5
:104AE000FFF790FD70BD0000343135390000000043
:104AF000F8B505460E4600246B480088F0BB002040
:104B00006A49088000BF15E06948B0F82C01011916
:104B1000684800EB81008078644931F81410014442
:104B2000624A601C32F81000084481B2601C22F80E
:104B3000101084B25E48B0F82E11B0F82C01081A9B
:104B4000A042E1DC5CA0FDF7B1FF002420E00520DD
:104B500094FBF0F100FB114010B95DA0FDF7A6FF3A
:104B6000524830F8143052480093B0F82C01011923
:104B7000504800EB810083784D4800E056E0B0F8E3
:104B80002C010219214653A0FDF790FF601C84B24E
:104B9000C82CDCDB002055490880002415E044487F
:104BA000B0F830010119434800EB810080784F498B
:104BB00031F8141001444D4A601C32F810000844CA
:104BC00081B2601C22F8101084B23948B0F832115A
:104BD000B0F83001081AA042E1DC45A0FDF766FFFD
:104BE00000241EE0052094FBF0F100FB114010B9F9
:104BF00037A0FDF75BFF3D4830F814302C48009398
:104C0000B0F8300101192B4800EB81008378284867
:104C1000B0F83001021921463AA0FDF747FF601CA9
:104C200084B2C82CDEDB01201F49088026BB204847
:104C3000B0F82C01281A1D4931F810301C48009397
:104C4000B0F82E31B0F82C21294633A0FDF72EFF05
:104C50001748B0F82E01A84204DB1548B0F82C0123
:104C6000A84201DD0020F8BD1148B0F82C01281A37
:104C70000E4931F81000F6E7012E13D10C48B0F8B8
:104C80003201A84204DB0A48B0F83001A84201DD35
:104C90000020E8E70648B0F83001281A134931F837
:104CA0001000E0E70020DEE7AC00002060210020DB
:104CB000EC110020201300200D0A4E4F524D414CA4
:104CC00020494E444558204D41500D0A0000000037
:104CD0000D0A00003A3A3A25642D3E25642D2D3EFA
:104CE00025642D3E2564202020000000F0220020B5
:104CF0000D0A4641535420494E444558204D4150D9
:104D00003A0D0A003A3A3A25642D3E25642D2D3E8F
:104D100025642D3E256409006D617020696E64650F
:104D200078202564202D3E2025642D3E25642D2DE0
:104D30003E25640070B506460C460025012120463C
:104D4000FEF792FC002803DA00E06D1C142DFCDB5A
:104D500070BD000010B500213E48FDF784FB3EA069
:104D6000FDF7A4FE0020414908604149086041491F
:104D7000086017E0782040493E4A1268885478213C
:104D80003D481E303B4A126881541438394A126833
:104D900081541E30374A1268815436480068401CDE
:104DA00034490860334800680928E3DB7820324939
:104DB000487281F82700087581F8320000202D49DB
:104DC00008600EE078212C4835302A4A1268815458
:104DD000401D284A1268815426480068401C254915
:104DE0000860244800680528ECDB40F2E7302249DF
:104DF000886100201E4908601C4908601F4908603E
:104E000030201D49087730211B48417730201A494E
:104E100081F833003021184880F8341000201849F8
:104E2000086018490860184908601849086018495E
:104E3000086018490870184908601849086018483F
:104E4000002101608180817101210248FDF70BFB87
:104E500010BD0000004800400D0A47505320496E25
:104E600069742D2D2D2D2D2D0D0A00008800002098
:104E7000800000207C000020001C00208400002016
:104E80008C0000209000002094000020980000205A
:104E90009C000020740000206400002070000020AE
:104EA00068000020FA49097879B3FA4909680629A7
:104EB00002D0FF297ED12FE1F749C978472972D165
:104EC000F549097947296ED1F349497941296AD1D0
:104ED0000121F24A11600021F14A116009E07822B3
:104EE000F049EF4B1B68CA54ED490968491CEC4A6C
:104EF0001160EB4909680929F1DB7821E94A921E22
:104F0000D1720021E64A11600BE0F3E37822E54913
:104F10000A31E34B1B68CA54E1490968491CE04A5D
:104F20001160DF4909680A29F0DB7821DD4A921E09
:104F30009175D1750021DA4A11600AE07822D949C9
:104F40001631D74B1B68CA54D5490968491CD44A45
:104F50001160D34909680229F0DB0021D04A1160B1
:104F60000AE07822CF491831CD4B1B68CA54CC498E
:104F70000968491CCA4A1160C94909680429F0DB5B
:104F80000021C74A11600AE00022C6491C31C44B07
:104F90001B68CA54C2490968491CC14A1160C0490A
:104FA00009680A29F0DBBC494979562928D104212E
:104FB000BA4A00E0FEE311600021B94A11601BE02B
:104FC0007822B949B64B1B6801F82320B44B1B6803
:104FD00001EB83014A70B449B14B1B6801EB8301BB
:104FE0008A70B149AE4B1B6801EB8301CA70AC49B2
:104FF0000968491CAA4A1160A94909680C29DFDB24
:10500000A5494979432971D10821A44A1160002199
:10501000A34A116009E07822A449A14B1B68CA5435
:105020009F490968491C9E4A11609D4909680A29DF
:10503000F1DB78219D4A921E11730021984A11607C
:105040000AE0782299490B31954B1B68CA54944960
:105050000968491C924A1160914909680929F0DBE5
:105060007821924A921E917500218D4A11600AE0C2
:1050700078228E4915318A4B1B68CA5488490968C1
:10508000491C874A1160864909680A29F0DB7821A2
:10509000864A921E82F821100021814A11600AE09E
:1050A0007822824920317E4B1B68CA547C490968AA
:1050B000491C7B4A11607A4909680529F0DB002107
:1050C000774A11600AE0782278492531744B1B68D1
:1050D000CA5473490968491C714A116070490968CA
:1050E0000529F0DB00216E4A11600BE00EE078220A
:1050F0006E492A316A4B1B68CA5469490968491CC0
:10510000674A1160664909680629F0DB2C2802D13C
:10511000FF21604A1160FEE360490968012904D05B
:1051200004297ED008297DD1EDE02A2802D02C2840
:1051300079D190E00021564A11705A49891EC97DE3
:10514000302971D05749891EC97E2E290FD1554962
:10515000891E097F3039534A921E927E303A02EB03
:10516000820201EB42014F4A921E916220E04D49BA
:10517000891E097F2E2916D14A49891E897E303918
:1051800064225143474A921ED27E303A02EB820299
:1051900001EB42024349891E497F30391144414A9B
:1051A000921E916204E04FF47A713E4A921E91621F
:1051B0003C49891E896A3E4A926991424ADC002133
:1051C000374A11600CE03749354A1268895C384A21
:1051D000334B1B68D15432490968491C304A11606D
:1051E0002F4909680929EEDB00212D4A11600EE0E4
:1051F0002C490A312A4A12688A5C2D490A31284B07
:105200001B68CA5426490968491C254A116024496B
:1052100009680A29ECDB2349891EC97A244A51729C
:1052200003E0B9E1F6E320E014E01E49891E897D20
:1052300011751C49891E097E11771A49891E4A7EFB
:105240001B494A771749891E896A194A91610121C8
:10525000184A116055E01349891E0978491C114A02
:10526000921E1170002151704BE00E49891E097881
:1052700009293ED2DFE801F03D052023282B2E33FB
:1052800038000849891E4A78891C885432E0000099
:1052900074000020700000206800002064000020DE
:1052A0007C0000209E1B0020D01B00206A1B0020D9
:1052B000001C002080000020FF49C8721AE0FE494F
:1052C0004A780C31885415E0FB49887512E0FA4998
:1052D000C8750FE0F8494A78183188540AE0F64951
:1052E0004A781A31885400BFF3494A781E318854ED
:1052F00000E000BF00BFF0494978491CEE4A5170F8
:1053000000BF00BFD6E32A2802D02C287DD1FEE0C2
:105310000021EA4A1170EA4A11600121E94A11604C
:10532000E949097B412978D10021E84A11600DE063
:10533000E5490D31E54A12688A5CE549E34B1B6893
:10534000CA54E2490968491CE04A1160DF4909680A
:105350000929EDDB0021DD4A11600EE0DA49173141
:10536000DA4A12688A5CDA490A31D84B1B68CA5497
:10537000D6490968491CD54A1160D44909680A29E7
:10538000ECDBD149897DD24A1E3A82F82710CE49FA
:1053900091F8211082F832100021CC4A11600EE001
:1053A000C9492231C94A12688A5CC9491731C74BB9
:1053B0001B68CA54C5490968491CC44A1160C349DD
:1053C00009680529ECDB0021C04A11600EE0BE49E6
:1053D0002731BE4A12688A5CBD491C31BB4B1B6831
:1053E000CA54BA490968491CB84A1160B7490968E2
:1053F0000529ECDBB049097EB54A1E3A82F8331024
:10540000AD494A7EB2491E3901E088E005E081F8E5
:1054100034200121AF4A11607047AB49897D78295A
:1054200074D00021A94A11600DE0A7490D31A74AA7
:1054300012688A5CA649A54B1B68CA54A34909682F
:10544000491CA24A1160A14909680929EDDB002124
:105450009E4A11600EE09C4917319C4A12688A5C92
:105460009B490A31994B1B68CA5498490968491CE1
:10547000964A1160954909680A29ECDB9249897DB1
:10548000934A1E3A82F827108F4991F8211082F82A
:10549000321000218D4A11600EE08B4922318B4A77
:1054A00012688A5C8A491731884B1B68CA5487493D
:1054B0000968491C854A1160844909680529ECDBA3
:1054C0000021824A11600EE07F4927317F4A12682D
:1054D0008A5C7F491C317D4B1B68CA547B49096833
:1054E000491C7A4A1160794909680529ECDB72493F
:1054F000097E774A1E3A82F833106F494A7E744912
:105500001E3981F834200121734A116042E06E494E
:105510000978491C6C4A1170002151703AE06A49BF
:10552000097809292ED2DFE801F0050A0D12151AB3
:105530001E23280064494A78891C885423E0624964
:10554000087320E060494A780D3188541BE05E49B9
:10555000887518E05C494A781731885413E05A4935
:1055600081F821000FE058494A78223188540AE036
:1055700055494A782731885405E053494A782C31F7
:10558000885400E000BF00BF4F494978491C4E4A8B
:10559000517000BF00BF8DE22A2802D02C287ED196
:1055A000DFE10021454A11704C49C978312977D192
:1055B00000214B4A11604B4A11604B4A11604B4A23
:1055C00011604B4A1160414A1160A2E04349083121
:1055D0003E4A126801EB8201C97878296BD04049B4
:1055E0000968491C3E4A11603C490831374A126833
:1055F00001EB8201C9783039384A0832334B1B68D5
:1056000002EB83029278303A02EB820201EB420114
:105610000A2904DB33490968491C324A11602F49C1
:1056200008312A4A126801EB8201C97830392B4AC5
:105630000832264B1B6802EB83029278303A02EB69
:10564000820201EB4201142904DB27490968491C45
:10565000254A1160214908311C4A126801EB820178
:10566000C97830391D4A0832184B1B6802EB830297
:105670009278303A02EB820201EB42011E2904DBF0
:105680001A490968491C194A1160144908310F4A1E
:10569000126801EB8201C9783039104A01E068E1F3
:1056A0003DE00832094B1B6802EB83029278303AE6
:1056B00002EB82021FE027E09C1B00207400002008
:1056C0007000002078000020681B00207C00002073
:1056D0001E1C00208800002084000020C81B002021
:1056E0008C000020900000209400002098000020F2
:1056F0009C000020F2E101EB4201282904DBFF4974
:105700000968491CFD4A1160FD490968491CFC4AA9
:105710001160FB4909680429FFF658AF20E1F949F7
:10572000C97832297ED10421F54A116083E0F54918
:105730000831F34A126801EB8201C978782975D0E3
:10574000F1490968491CF04A1160EE490831EC4AF8
:10575000126801EB8201C9783039EA4A0832E84B15
:105760001B6802EB83029278303A02EB820201EB73
:1057700042010A2904DBE5490968491CE34A116032
:10578000E0490831DE4A126801EB8201C9783039FC
:10579000DC4A0832DA4B1B6802EB83029278303A1B
:1057A00002EB820201EB4201142906DBD8490968A9
:1057B000491C00E080E1D64A1160D2490831D04A44
:1057C000126801EB8201C9783039CE4A0832CC4BDD
:1057D0001B6802EB83029278303A02EB820201EB03
:1057E00042011E2904DBCB490968491CC94A1160E2
:1057F000C4490831C24A126801EB8201C9783039C4
:10580000C04A0832BE4B1B6802EB83029278303AE2
:1058100002EB820201EB4201282907DBB749096844
:10582000491C01E00DE001E0B44A1160B449096887
:10583000491CB34A1160B24909680829FFF677AFDD
:105840008EE0B049C978332966D10821AC4A11608D
:1058500081E0AC490831AA4A126801EB8201C9789B
:10586000782973D0A8490968491CA74A1160A5493D
:105870000831A34A126801EB8201C9783039A14A84
:1058800008329F4B1B6802EB83029278303A02EB9E
:10589000820201EB42010A2904DB9C490968491C88
:1058A0009A4A116097490831954A126801EB8201C2
:1058B000C9783039934A0832914B1B6802EB830256
:1058C0009278303A02EB820201EB4201142904DBA8
:1058D0008F490968491C8E4A11608A490831884AF3
:1058E000126801EB8201C9783039864A0832844B4C
:1058F0001B6802EB83029278303A02EB820201EBE2
:1059000042011E2904DB83490968491C814A116050
:105910007C49083101E0E0E022E0794A126801EBBD
:105920008201C9783039774A0832754B1B6802EB1F
:1059300083029278303A02EB820201EB420128297D
:1059400004DB6E490968491C6C4A11606C4909689E
:10595000491C6B4A11606A4909680C29FFF679AF46
:10596000A2E068490978491C664A1170002151700B
:105970009AE064490978132974D2DFE801F00A0D2E
:105980002A2B343536404C4D4E5A656667747F80FD
:1059900081005C49887080E05A49C870C978312913
:1059A00003D10021574A516012E05649C978322983
:1059B00003D10421534A51600AE05249C97833297E
:1059C00003D108214F4A516002E008214D4A51603D
:1059D00063E062E04B494A68083101EB8201494AC1
:1059E0005278885459E058E057E046494A680831EF
:1059F00001EB8201891C434A527888544DE04149A9
:105A00004968491C3F4A083202EB8101083A527842
:105A1000885442E04AE040E03FE03A494968491C86
:105A2000384A083202EB8101891C083A52788854BE
:105A300033E034494968891C324A083202EB81015B
:105A4000083A5278885428E027E026E02D49496832
:105A5000891C2C4A083202EB8101891C083A5278D1
:105A600088541AE018E027494968C91C254A0832B9
:105A700002EB8101083A527888540EE00DE00CE008
:105A800020494968C91C1F4A083202EB8101891C60
:105A9000083A5278885400E000BF00BF194949789D
:105AA000491C184A517000BF00BF03E000211A4A88
:105AB000117000BF00BF10E01849194A12688854DD
:105AC00017490968491C164A1160114609680729D7
:105AD00002DD0021104A117000BF33E0242831D1CB
