:020000040800F2
:100000001047002045010008CD0F0008850F0008AB
:10001000AD0F0008F5020008BD2500080000000033
:100020000000000000000000000000001D17000894
:100030005901000800000000451200085D01000899
:100040005F0100085F0100085F01000869160008F1
:100050005F0100085F010008F90500086506000857
:100060005F0100088D0600085F0100085F010008BD
:100070005F0100085F0100085F0100085F010008E0
:100080005F0100085F0100085F0100085F010008D0
:10009000BD2400085F0100085F010008C5060008D4
:1000A0005F0100085F0100085F0100085F010008B0
:1000B00069180008891800085F0100085F0100083E
:1000C0005F0100085F0100085F0100085F01000890
:1000D0005F0100089D1E0008191F0008DD1F0008B1
:1000E00025060008A91500085F0100085F01000847
:1000F0005F0100085F0100085F0100085F01000860
:100100005F0100085F0100085F0100085F0100084F
:100110006D1D0008091E00085F0100085F0100084E
:100120005F0100085F0100085F0100085F0100082F
:10013000DFF80CD000F094F8004800476D4F00083D
:10014000104700200648804706480047FEE7FEE7C4
:10015000FEE7FEE7FEE7FEE7FEE7FEE7FEE7FEE777
:10016000091800083101000840EA01039B0703D089
:1001700009E008C9121F08C0042AFAD203E011F8E6
:10018000013B00F8013B521EF9D27047D2B201E0A8
:1001900000F8012B491EFBD270470022F6E710B58C
:1001A00004460846114602462046FFF7EFFF204668
:1001B00010BD034600E0401C0278002AFBD111F874
:1001C000012B00F8012B002AF9D11846704730B5F1
:1001D0000EE003460A4601E05B1C521C1C781578B1
:1001E000AC4201D1002CF7D115F0FF0F04D0401C18
:1001F0000278002AEDD1002030BD2DE9F05F0546E0
:10020000002092469B4688460646814640241DE0D3
:10021000284641464746224600F043F8B0EB0A0024
:1002200052465B4671EB0B0110D31046194622462D
:1002300000F028F82D1A67EB01084F4622460120EE
:10024000002100F01FF817EB00094E41201EA4F119
:100250000104DDDC484631462A464346BDE8F09FAE
:10026000064C074D06E0E06840F0010394E8070003
:1002700098471034AC42F6D3FFF75EFFD4B50008C0
:10028000F4B50008202A04DB203A00FA02F100202D
:1002900070479140C2F1200320FA03F319439040C4
:1002A0007047202A04DB203A21FA02F0002170472F
:1002B00021FA02F3D040C2F12002914008431946CE
:1002C000704710B5012001F00DF8002001F00AF888
:1002D00010BD000001460022014A0A441088704700
:1002E000006C00400022024A024411607047000086
:1002F000006C004004E003A002F0D0F900BFFEE76C
:10030000F9E700000D0A4552524F525F4255530D16
:100310000A000000B1F5007F3AD00FDC202928D078
:1003200006DC01291CD004291DD0082940D11DE07C
:10033000402921D0B1F5807F3AD126E0B1F5004FB8
:1003400031D006DCB1F5806F25D0B1F5006F2FD12B
:1003500024E0B1F5803F12D0B1F5003F28D111E083
:10036000154A826025E00822C26022E01022C260A5
:100370001FE0082202611CE01022026119E008223D
:10038000426016E01022426013E00422426010E056
:10039000042242600DE0042242600AE000228261F1
:1003A0000422426005E0002282610422426000E0F3
:1003B00000BF00BF704700000101010021B9C26801
:1003C00042F02002C26003E0026942F020020261B2
:1003D0007047000070B504460D460026606928424B
:1003E00071D0B5F5807F5CD010DC082D35D006DCEF
:1003F000012D20D0022D24D0042D77D127E0102DFF
:1004000031D0202D35D0402D70D138E0B5F5004FDA
:1004100060D009DCB5F5007F49D0B5F5806F4CD0D0
:10042000B5F5006F62D14FE0B5F5803F2DD0B5F541
:10043000003F5BD12FE0A0682F4900F0D4F80646BA
:1004400056E0E068032100F0CEF8064650E0E06890
:10045000082100F0C8F806464AE0E068102100F0E4
:10046000C2F8064644E02069032100F0BCF80646C5
:100470003EE02069082100F0B6F8064638E0206921
:10048000102100F0B0F8064632E06068082100F064
:10049000AAF806462CE06068102100F0A4F8064691
:1004A00026E0A069012100F09EF8064620E0A06940
:1004B000022100F098F806461AE0A069042100F035
:1004C00092F8064614E014E0A069702100F08BF861
:1004D00006460DE0A069772100F085F806466068C1
:1004E000042100F080F8064302E0FFE7002600BF89
:1004F00000E00026304670BD0101010030B5044621
:100500000D46134604F5D87000EB0510006800F0A6
:1005100004001872187A50B904F5D87000EB051071
:10052000006840F2FF7101EA5050186009E004F5DC
:10053000D87000EB051000686FF0604101EAD00050
:10054000586004F5D87000EB0510006800F0020058
:10055000587204F5D87000EB0510406800F00F00E9
:10056000987204F5D87000EB05104068000AD87442
:1005700004F5D87000EB05108068D87204F5D870C7
:1005800000EB05108068000A187304F5D87000EBC2
:1005900005108068000C587304F5D87000EB051046
:1005A0008068000E987304F5D87000EB0510C068E1
:1005B000D87304F5D87000EB0510C068000A1874F1
:1005C00004F5D87000EB0510C068000C587404F5F1
:1005D000D87000EB0510C068000E987429462046BC
:1005E000FFF7ECFE30BD024600200A4201D0012098
:1005F00000E000207047000010B5C82002F068FE3F
:10060000012000F0B3F828B1012000F067F802A043
:1006100002F044F810BD00000D0A6B6579300D0A38
:100620000000000010B54FF4006000F09FF840B1EA
:100630004FF4006000F052F809480068401C084977
:1006400008604FF4805000F091F840B14FF48050B2
:1006500000F044F802480068401C0149086010BDE1
:100660002800002010B5022000F080F828B10220F8
:1006700000F034F801A002F011F810BD0D0ABDF829
:10068000C8EBD6D0B6CF310D0A00000010B5082057
:1006900000F06CF828B1082000F020F801A001F06B
:1006A000FDFF10BD0D0ABDF8C8EBC0B6D1C0D7B470
:1006B000CCACB1E4BBAFD6D0B6CFA3A1A3A1A3A1CC
:1006C0000D0A000010B54FF4807000F04FF818B11B
:1006D0004FF4807000F002F810BD0000014908607E
:1006E00070470000140401401CB54FF40030FFF7C0
:1006F000F5FF4FF40030009000208DF80400082032
:100700008DF8050001208DF80600684600F044F8D9
:100710000321042000F03EFB0820FFF7DFFF082044
:10072000009000208DF8040010208DF805000120B5
:100730008DF80600684600F02FF80B21002000F02D
:1007400029FB4FF40060FFF7C9FF4FF400600090F1
:1007500000208DF804000C208DF8050001208DF894
:100760000600684600F018F81CBD00000146002095
:100770000022074B1B6803EA0102064BD3F814342E
:100780000B4202D00AB1012000E0002070470000B7
:100790000004014000000140002127498279DAB3BA
:1007A000264AD2F8002403689A43244BC3F8002455
:1007B0001A46D2F8042403689A4301F104031A602C
:1007C000027911440A68036842EA03020A601B4A7C
:1007D000D2F80824036822EA0302184BC3F808245D
:1007E0001A46D2F80C24036822EA0302144B1A605A
:1007F0004279102A11D1114AD2F8082403681A4309
:100800000E4BC3F808241A46D2F80C2403681A4386
:100810000A4BC3F80C240EE007E007494279114463
:100820000A6803681A430A6005E0027911440A68FD
:1008300003689A430A6070470004014000000140C9
:100840000C04014004200C49C96801F00101012990
:1008500001D101200EE00849C96811F0040F01D050
:10086000022007E00449C96811F0100F01D00320ED
:1008700000E00420704700000020024003480069A7
:1008800040F08000014908617047000000200240EC
:100890000549096821F01001034A116011460968F1
:1008A000014311607047000000200240F0B504468B
:1008B0000D4604260027F00200F042F80646042EFA
:1008C00022D11248006940F00100104908612580DA
:1008D000F00200F035F80646042E0ED1A71C280CB5
:1008E0003880F00200F02CF806460848006941F60E
:1008F000FE7108400549086106E00448006941F6B8
:10090000FE710840014908613046F0BD00200240F8
:1009100001460020034A106800F0380008431060C8
:100920007047000000200240024803494860034825
:10093000486070472301674500200240AB89EFCD36
:1009400000B502460423FFF77DFF034603E0FFF7EF
:1009500079FF0346521E012B01D1002AF7D102B9BB
:100960000523184600BD000008B5012144F27D00B2
:1009700000F098FC0121FF4800F074FC4FF6FF7076
:10098000ADF8000000208DF8030003208DF8020070
:100990006946F94800F01EFA6946F84800F01AFA6C
:1009A0006946F74800F016FA6946F64800F012FA70
:1009B0004FF40070ADF8000018208DF803000320FC
:1009C0008DF802006946EC4800F004FA4FF48060AC
:1009D000ADF8000004208DF803006946E64800F0F9
:1009E000F9F90420ADF8000018208DF80300032069
:1009F0008DF802006946E04800F0ECF90820ADF8F7
:100A0000000004208DF803006946DB4800F0E2F99D
:100A10004FF40060ADF8000004208DF80300694633
:100A2000D64800F0D7F94FF48060ADF800001820E8
:100A30008DF8030003208DF802006946D04800F0CD
:100A4000C9F94FF40060ADF8000004208DF80300F0
:100A500003208DF802006946C94800F0BBF94FF445
:100A60008060ADF8000018208DF8030003208DF899
:100A700002006946C14800F0ADF94FF40060ADF8DE
:100A8000000004208DF8030003208DF80200694661
:100A9000BA4800F09FF94FF40060ADF80000102054
:100AA0008DF8030003208DF802006946B34800F07A
:100AB00091F90122D102B14800F05EFA4FF4805062
:100AC000ADF8000010208DF8030003208DF802001F
:100AD0006946AA4800F07EF901221103A74800F0F8
:100AE0004BFA4FF40050ADF8000010208DF80300D1
:100AF00003208DF802006946A04800F06BF901223E
:100B000020219E4800F038FA4FF40040ADF8000074
:100B100004208DF8030003208DF8020069469748F1
:100B200000F058F94FF40070ADF8000010208DF877
:100B3000030003208DF802006946904800F04AF94E
:100B4000012251028D4800F017FA1020ADF8000084
:100B500014208DF8030003208DF8020069468748B1
:100B600000F038F901221021844800F005FA08202D
:100B7000ADF8000010208DF8030003208DF802006E
:100B800069467E4800F026F9002208217B4800F0E3
:100B9000F3F90220ADF8000010208DF803000320C7
:100BA0008DF802006946754800F014F90022022110
:100BB000724800F0E1F90120ADF8000010208DF836
:100BC000030003208DF8020069466C4800F002F92A
:100BD00000220121694800F0CFF94FF48040ADF8C0
:100BE000000010208DF8030003208DF802006946F4
:100BF000614800F0EFF800224FF480415E4800F0B9
:100C0000BBF92020ADF8000048208DF80300032038
:100C10008DF802006946594800F0DCF84020ADF834
:100C2000000010208DF8030003208DF802006946B3
:100C3000524800F0CFF800224021504800F09CF9C3
:100C40004FF48070ADF8000010208DF803000320F1
:100C50008DF802006946494800F0BCF800224FF4C4
:100C60008071464800F088F98020ADF8000010201F
:100C70008DF8030003208DF8020069463F4800F01C
:100C8000A9F8002280213D4800F076F94FF4005089
:100C9000ADF8000004208DF8030003208DF8020059
:100CA0006946354800F096F800224FF4005132486A
:100CB00000F062F90220ADF8000010208DF803006A
:100CC00003208DF8020069462B4800F083F80022CB
:100CD0000221294800F050F91020ADF8000004204E
:100CE0008DF8030003208DF802006946224800F0C9
:100CF00071F80120ADF8000004208DF803000320F6
:100D00008DF8020069461E4800F064F80220ADF834
:100D1000000004208DF8030003208DF802006946CE
:100D2000174800F057F800220221154800F024F976
:100D30000420ADF8000010208DF8030003208DF88A
:100D4000020069460E4800F045F8002204210C48D4
:100D500000F012F90820ADF8000010208DF8030013
:100D600003208DF802006946054800F033F80022A0
:100D7000082109E002001E1A00080140000C014091
:100D80000010014000140140014800F0F5F808BDD2
:100D90000010014030B500228B071C0F0F2303FA0F
:100DA00004F20B4B8C1053F824309343084C8D10F5
:100DB00044F8253023468C1053F824308C07240F38
:100DC00000FA04F42343024C8D1044F8253030BD62
:100DD000080001402DE9F0410246002500260020D0
:100DE00000230024002791F803C00CF00F0591F8B0
:100DF00003C01CF0100F03D091F802C04CEA0505A7
:100E0000B1F800C01CF0FF0F31D0146800202BE0B7
:100E10004FF0010C0CFA00F3B1F800C00CEA030625
:100E20009E4220D183004FF00F0C0CFA03F7BC4315
:100E300005FA03FC4CEA040491F803C0BCF1280F46
:100E400006D14FF0010C0CFA00FCC2F814C00AE005
:100E500091F803C0BCF1480F05D14FF0010C0CFA1A
:100E600000FCC2F810C0401C0828D1D31460B1F8AF
:100E700000C0BCF1FF0F34DD546800202EE000F10B
:100E8000080C4FF0010808FA0CF3B1F800C00CEAA6
:100E900003069E4221D183004FF00F0C0CFA03F79A
:100EA000BC4305FA03FC4CEA040491F803C0BCF10E
:100EB000280F05D100F1080C08FA0CF8C2F81480CC
:100EC00091F803C0BCF1480F07D100F1080C4FF0B6
:100ED000010808FA0CF8C2F81080401C0828CED38C
:100EE0005460BDE8F0810000F0B50A4600230024FC
:100EF0000021002500F00046B6F1004F02D11D4E42
:100F0000F16901E01B4E7168C0F3034583B200F440
:100F10004016B6F5401F08D121F07061154E766875
:100F200026F07066134F7E6012E000F48016B6F56E
:100F3000801F06D1032606FA05F4A14341F0706133
:100F400006E0460D360103FA06F6B14341F0706142
:100F500022B1460D360103FA06F6314300F0004691
:100F6000B6F1004F02D1034EF16101E0014E716014
:100F7000F0BD0000000001400AB1016100E04161E4
:100F80007047000004E003A001F088FB00BFFEE70B
:100F9000F9E700000D0A4552524F525F4841524452
:100FA0005F4641554C540D0A0000000004E003A0C8
:100FB00001F074FB00BFFEE7F9E700000D0A45529F
:100FC000524F525F4D454D0D0A00000002A001F046
:100FD00065FB00BFFEE700000D0A4552524F525F0D
:100FE0004E4D490D0A00000008B54FF4E06000F0D6
:100FF00003F925208DF8000002208DF80100002063
:101000008DF8020001208DF80300684600F0B2F868
:101010004FF4E06000F0F0F826208DF8000000208A
:101020008DF801008DF8020001208DF8030068465C
:1010300000F0A0F84FF4E06000F0DEF827208DF813
:10104000000001208DF8010000208DF80200012031
:101050008DF80300684600F08DF84FF4E06000F072
:10106000CBF834208DF8000001208DF8010000201D
:101070008DF8020001208DF80300684600F07AF830
:101080004FF4E06000F0B8F835208DF80000012042
:101090008DF8010000208DF8020001208DF803007A
:1010A000684600F067F84FF4C06000F0A5F806202D
:1010B0008DF8000000208DF801008DF802008DF8F9
:1010C0000300684600F056F84FF4C06000F094F852
:1010D00028208DF8000000208DF801008DF8020016
:1010E0008DF80300684600F045F84FF4C06000F04A
:1010F00083F809208DF8000000208DF801008DF89C
:1011000002008DF80300684600F034F84FF4A06048
:1011100000F072F81C208DF8000000208DF801000E
:101120008DF8020001208DF80300684600F022F8D7
:101130004FF4A06000F060F81D208DF80000002042
:101140008DF801008DF8020001208DF8030068463B
:1011500000F010F828208DF8000005208DF801001F
:101160008DF8020001208DF80300684600F002F8B7
:1011700008BD000070B5002100230F22C4784CB3D5
:101180001A4C246804F4E064C4F5E0644FEA1421C6
:10119000C1F1040322FA01F2447804FA03F18478DD
:1011A00004EA020444EA01014FEA0111104C0678F6
:1011B000A155047804F01F054FF0010404FA05F46A
:1011C00005784FEA65154FF0E02606EB8505C5F872
:1011D000004109E0047804F01F050124AC40054DEE
:1011E0000678761145F8264070BD00000CED00E051
:1011F00000E400E080E100E002490143024A11609E
:10120000704700000000FA050CED00E00848006897
:1012100000F4E060074940EA010000F104004FF0EB
:10122000E021C1F80C0DBFF3408F00BFFEE70000C6
:101230000CED00E00000FA0501490862704700006B
:1012400000000E4202A001F029FA00BFFEE70000F4
:101250000D0A4552524F525F50454E4453560D0AA7
:101260000000000029B1064AD2690243044BDA614A
:1012700004E0034AD2698243014BDA6170470000FF
:101280000010024029B1064A12690243044B1A6158
:1012900004E0034A12698243014B1A61704700005F
:1012A0000010024029B1064A92690243044B9A6138
:1012B00004E0034A92698243014B9A61704700003F
:1012C0000010024029B1064AD2680243044BDA609A
:1012D00004E0034AD2688243014BDA6070470000A1
:1012E000001002400149086070470000400442427B
:1012F0000348406A40F0807001494862704700002E
:101300000010024010B500F03BF8012000F0FAF8A0
:1013100000BF212000F0C4F80028FAD01020FFF709
:10132000B7FA0220FFF7F4FA002000F0DFF80020FF
:1013300000F000F9002000F0F1F84FF460110020F7
:1013400000F00AF9012000F001F900BF392000F097
:10135000A7F80028FAD0022000F01AF900BF00F028
:10136000BDF80828FBD1012144F27D00FFF79AFF68
:1013700001210248FFF776FF10BD000003001E1A8E
:101380000F48006840F001000D49086008464068B9
:101390000C4908400A494860084600680A49084064
:1013A000074908600846006820F480200860084665
:1013B000406820F4FE0048604FF41F0088607047CA
:1013C000001002400000FFF8FFFFF6FE30B50021DC
:1013D0000022002400232D4D6D6805F00C0121B181
:1013E000042905D0082923D105E0294D056022E014
:1013F000274D05601FE0254D6D6805F47012234DE3
:101400006D6805F48034022505EB92421CB9214D2C
:10141000554305600BE01D4D6D6815F4003F03D08A
:101420001C4D5543056002E0194D5543056002E02F
:10143000174D056000BF00BF144D6D6805F0F00149
:101440000909154D6B5C0568DD4045600F4D6D6801
:1014500005F4E061090A104D6B5C4568DD4085606C
:101460000A4D6D6805F46051C90A0B4D6B5C456807
:10147000DD40C560054D6D6805F44041890B074DA1
:101480006B5CC568B5FBF3F5056130BD001002402B
:1014900000127A0000093D0050000020600000208A
:1014A00010B501460022002300204A11012A02D172
:1014B000094C236806E0022A02D1074C236A01E0A6
:1014C000054C636A01F01F02012494401C4201D0C4
:1014D000012000E0002010BD0010024002484068DA
:1014E00000F00C0070470000001002400146002090
:1014F000034A506820F0F000084350607047000035
:10150000001002400149086070470000000042429C
:1015100001490860704700008004424201460020F3
:10152000034A506820F4E0600843506070470000B0
:101530000010024001460020034A506820F4605029
:1015400040EAC1005060704700100240014908663F
:10155000704700000000424202460020044B5868D9
:1015600020F47C1042EA01031843014B5860704795
:101570000010024001490860704700003C044242EC
:101580000249096A0143014A116270470010024092
:1015900001460020034A506820F0030008435060D1
:1015A000704700000010024010B5022000F046F81D
:1015B00050B14FF40030FFF791F800F091F802209D
:1015C00000F004F800F08CF810BD0000054909880F
:1015D0006FEA000292B201EA0201034AA2F804187B
:1015E00070470000042800400020004003480088A5
:1015F00040F010000249A1F8040870470428004098
:1016000000200040044800884FF6EF7100EA010016
:101610000249A1F804087047042800400020004057
:101620000021044801880448B0F8180841EA004045
:10163000704700001C2800400020004001460020A8
:10164000074A128802EA0102D0B2064AB2F800281C
:101650000A4202D008B1012000E0002070470000DB
:10166000042800400020004010B50120FFF7E6FFED
:1016700070B10120FFF7AAFF00F032F8FFF7D0FFAA
:101680000449884204D1002000F006F800F028F850
:1016900010BD00008051010000B50246FFF7A6FF13
:1016A000100C044908800449A1F81C28FFF7AAFF80
:1016B00000BD0000182800400020004000B5024690
:1016C000FFF794FFC2F30340034908800349A1F8E0
:1016D0000C28FFF797FF00BD0828004000200040BD
:1016E00000BF0348008810F0200FFAD070470000B8
:1016F00004280040074800884FF6F77100EA01000F
:101700000549A1F8040800BF0248008810F0080F3E
:10171000FAD07047042800400020004002A000F0EA
:10172000BDFF00BFFEE700000D0A4552524F525F59
:101730005356430D0A00000010B500F001F810BD2B
:10174000002100202E4A126842F480322C4B1A608D
:1017500000BF2B4A126802F40030491C10B9B1F5E1
:10176000A06FF6D1264A126812F4003F01D0012082
:1017700000E00020012842D1224A126842F0100203
:10178000204B1A601A46126822F003021A601A46A9
:10179000126842F002021A60194A5268184B5A60E5
:1017A0001A4652685A601A46526842F480625A6079
:1017B0001A46526822F47C125A601A46526842F461
:1017C000E8125A601A46126842F080721A6000BF2E
:1017D0000B4A126812F0007FFAD0094A526822F0D0
:1017E0000302074B5A601A46526842F002025A60DE
:1017F00000BF034A526802F00C02082AF9D1704770
:10180000001002400020024010B51348006840F06C
:1018100001001149086008464068104908400E4917
:101820004860084600680E4908400B4908600846B1
:10183000006820F4802008600846406820F4FE001C
:1018400048604FF41F008860FFF776FF4FF000609C
:101850000449086010BD0000001002400000FFF8BD
:10186000FFFFF6FE08ED00E010B50121880700F04B
:10187000F8F938B10121880700F084F84FF6FA70C2
:101880004107888410BD000010B50121304800F0E8
:10189000E8F9F0B301212E4800F074F82D480068F3
:1018A00008B103F0F1FE2C480068032805D101209F
:1018B00001F07CFD002029490860274800680328C2
:1018C00012DD4FF0804000F0C9F924490860084655
:1018D0000068B0F5FA6F01DD012000E0002020492A
:1018E000086000201C4908601B480068401C1A4919
:1018F00008601C480068B0B9012211031A48FFF7BC
:101900003BFB00224FF400511748FFF735FB002244
:1019100000E01BE04FF480411348FFF72DFB01204E
:101920001049086012E000224FF480510E48FFF782
:1019300023FB012251030C48FFF71EFB01229103F8
:101940000948FFF719FB00200649086010BD000098
:1019500000040040300000204C000020280000203F
:101960002C00002048000020000C014021B102881A
:1019700042F08002028004E002884FF67F731A4032
:1019800002807047CA430282704721B1028842F048
:101990000102028004E002884FF6FE731A400280C2
:1019A000704700000EB54FF0804000F047F84FF64A
:1019B000FF70ADF804000420ADF80000C001ADF8E0
:1019C00006000020ADF8020069464FF0804000F0AC
:1019D0007BF970214FF0804000F060F900231A4637
:1019E00019464FF0804000F01DF901218807FFF7EC
:1019F000CCFF42F21070ADF804004FF4E150ADF8A6
:101A000000000020ADF80600ADF8020069460A4863
:101A100000F05AF901210848FFF7A8FF0121064804
:101A2000FFF7B0FF01221146034800F02BF9012116
:101A30000148FFF7AAFF0EBD0004004010B50446A0
:101A40006848844208D10121C014FFF73BFC002103
:101A5000E014FFF737FCC4E0B4F1804F08D1012156
:101A60000846FFF70FFC00210120FFF70BFCB8E050
:101A70005D48844208D101210220FFF703FC0021C8
:101A80000220FFF7FFFBACE05848844208D1012157
:101A90000420FFF7F7FB00210420FFF7F3FBA0E091
:101AA0005348844208D101210820FFF7EBFB0021B5
:101AB0000820FFF7E7FB94E04E48844208D101215B
:101AC0001020FFF7DFFB00211020FFF7DBFB88E091
:101AD0004948844208D101212020FFF7D3FB00218F
:101AE0002020FFF7CFFB7CE04448844208D101214D
:101AF0004014FFF7E7FB00216014FFF7E3FB70E001
:101B00003F48844209D10121C804FFF7DBFB0021D3
:101B10004FF40020FFF7D6FB63E03A48844209D136
:101B200001210805FFF7CEFB00214FF48010FFF7DD
:101B3000C9FB56E03448844209D101214805FFF72A
:101B4000C1FB00214FF40010FFF7BCFB49E02F4818
:101B5000844208D101214020FFF794FB002140205E
:101B6000FFF790FB3DE02A48844208D10121802004
:101B7000FFF788FB00218020FFF784FB31E0254838
:101B8000844208D101218015FFF77CFB0021A015BC
:101B9000FFF778FB25E02048844209D101210804A1
:101BA000FFF790FB00214FF48030FFF78BFB18E02C
:101BB0001A48844209D101214804FFF783FB002120
:101BC0004FF40030FFF77EFB0BE01548844208D14C
:101BD00001218804FFF776FB00214FF48020FFF7F6
:101BE00071FB10BD002C01400004004000080040C3
:101BF000000C004000100040001400400034014080
:101C0000004C0140005001400054014000180040C9
:101C1000001C004000200040004001400044014002
:101C200000480140F0B504460D4616461F463B46A7
:101C300032462946204600F005F8208940F48040CD
:101C40002081F0BD30B50C4600210189C9B21D06C6
:101C500042EA154525432943018130BD0146888C60
:101C6000704730B50246002000230024158A05EA9B
:101C70000103958905EA010413B10CB1012000E0CC
:101C8000002030BD10B51AB183890B43838104E075
:101C90008389CC43A4B22340838110BD30B5044670
:101CA0000D462946204600F005F8208940F007003F
:101CB000208130BD0A46002101894FF68F731940FB
:101CC0001143018170470000002202881D4B984299
:101CD0000ED01D4B98420BD0B0F1804F08D01B4B5B
:101CE000984205D01A4B984202D01A4B984204D120
:101CF0004FF68F731A404B881A43174B984207D000
:101D0000164B984204D04FF6FF431A40CB881A4333
:101D100002808B8883850B8803850A4B98420BD001
:101D2000094B984208D00E4B984205D00D4B984273
:101D300002D00D4B984201D10B7A03860123838296
:101D400070470000002C01400034014000040040B6
:101D500000080040000C004000100040001400404B
:101D600000400140004401400048014010B50821F6
:101D70001E4800F0D1FA30B108211C4800F062F989
:101D80001A4800F091FB40F22551184800F0D1FAB2
:101D900030B3164800F088FBC4B2154801680068EB
:101DA000401C134A10601348445400201149126823
:101DB00088540F480068B0F5967F02D900200C497E
:101DC00008600D480068042803D121460B4800F044
:101DD00070FB0B48006818B121460A4800F069FB07
:101DE0002021024800F02EF910BD0000004C0040F8
:101DF0000C000020100C00201400002000380140CE
:101E0000200000200044004010B508211E4800F0CA
:101E100083FA30B108211C4800F014F91A4800F088
:101E200043FB40F22551184800F083FA38B31648B6
:101E300000F03AFBC4B21548006802280AD12146D6
:101E4000134800F036FB00BF4021114800F064FA4F
:101E50000028F9D00F4801680068401C0D4A106046
:101E60000D48445400200C49126888540948006801
:101E700040F21451884202D900200649086020210E
:101E8000014800F0DFF810BD0050004014000020B1
:101E90000038014004000020D005002010B50821C2
:101EA000194800F039FA30B10821174800F0CAF893
:101EB000154800F0F9FA40F22551134800F039FABC
:101EC000E0B1114800F0F0FA1049087008460178B6
:101ED0000F4802680068401C0D4B18600D48815483
:101EE00000200C491A46126888541846006840F2CF
:101EF0001451884202D90020194608602021024866
:101F000000F0A0F810BD00000038014040000020A3
:101F100000000020BC00002010B50821274800F078
:101F2000FBF930B10821254800F08CF8234800F077
:101F3000BBFA40F22551214800F0FBF9E8B31F48F5
:101F400000F0B2FA1E4908701E48006803280BD141
:101F5000084601781C4800F0ACFA00BF40211A483E
:101F600000F0DAF90028F9D015480178174802681E
:101F70000068401C154B18601548815400211A4612
:101F80001268815418460068B0F5967F02D9002087
:101F9000194608600F48006858B1094801780E4892
:101FA00000F087FA00BF4021074800F0B5F900288B
:101FB000F9D02021014800F045F810BD0044004050
:101FC00041000020140000200038014008000020DB
:101FD000E40A002020000020004C004010B5082139
:101FE000154800F099F930B10821134800F02AF89B
:101FF000114800F059FA40F225510F4800F099F9C4
:10200000A8B10D4800F050FAC4B2204601F0D0FE4D
:102010000A48006805280AD12146094800F049FA13
:1020200000BF4021064800F077F90028F9D02021B0
:10203000014800F007F810BD0048004014000020DF
:102040000038014001F40072B2F5007F00D100BFFA
:10205000CA430280704721B1828942F400528281D2
:1020600004E082894DF6FF731A40828170470000B8
:1020700000B585B0012144F20400FFF713F94FF4D5
:102080000070ADF8100018208DF8130003208DF8B3
:10209000120004A99748FEF79DFE4FF48060ADF84A
:1020A000100004208DF8130003208DF8120004A9FD
:1020B0009048FEF78FFE4FF47A3000900020ADF884
:1020C0000400ADF80600ADF80800ADF80C000C20D7
:1020D000ADF80A006946884800F07AF9012240F21A
:1020E0002551854800F04FF901218348FFF7B3FFE0
:1020F00001214804FFF7B6F801210420FFF7D2F8C8
:102100000420ADF8100018208DF8130003208DF87E
:10211000120004A97748FEF75DFE0820ADF8100014
:1021200004208DF8130003208DF8120004A97148D3
:10213000FEF750FE4FF4164000900020ADF804006A
:10214000ADF80600ADF80800ADF80C000C20ADF8B5
:102150000A006946694800F03BF9012240F2255126
:10216000664800F010F901216448FFF774FF01216F
:102170008804FFF777F801210820FFF793F84FF460
:102180008060ADF8100018208DF8130003208DF842
:10219000120004A95A48FEF71DFE4FF40060ADF886
:1021A000100004208DF8130003208DF8120004A9FC
:1021B0005348FEF70FFE4FF4165000900020ADF884
:1021C0000400ADF80600ADF80800ADF80C000C20D6
:1021D000ADF80A0069464B4800F0FAF8012240F2D7
:1021E0002551484800F0CFF801214648FFF733FF5A
:1021F0000121C804FFF736F801211020FFF752F83B
:102200004FF48060ADF8100018208DF81300032003
:102210008DF8120004A93C48FEF7DCFD4FF4006085
:10222000ADF8100004208DF8130003208DF8120083
:1022300004A93548FEF7CEFD4FF41640009000206B
:10224000ADF80400ADF80600ADF80800ADF80C00DC
:102250000C20ADF80A0069462C4800F0B9F80122BC
:1022600040F22551294800F08EF801212748FFF758
:10227000F2FE01210805FEF7F5FF01213020FFF7EE
:1022800011F84FF48050ADF8100018208DF81300AD
:1022900003208DF8120004A91B48FEF79BFD0420C3
:1022A000ADF810008DF8130003208DF8120004A97A
:1022B0001748FEF78FFD4FF4E13000900020ADF895
:1022C0000400ADF80600ADF80800ADF80C000C20D5
:1022D000ADF80A0069460F4800F07AF8012240F292
:1022E00025510C4800F04FF801210A48FFF7B3FED2
:1022F00005B000BD00080140003801400044004026
:10230000000C01400048004000100140004C00401B
:10231000001401400050004002460020B1F5007F4B
:1023200000D100BF13880B4201D0012000E0002043
:10233000704770B502460024002300250020A1F557
:1023400010666A3E00D100BFC1F3421501F01F03C1
:10235000012606FA03F3012D02D19689334006E0E7
:10236000022D02D1168A334001E0968A33400C12C6
:10237000012606FA04F41688344013B10CB101208A
:1023800000E0002070BDF0B50346002400260025C3
:102390000020A1F510676A3F00D100BF1846C1F3C5
:1023A000421401F01F06012707FA06F5012C01D19E
:1023B0000C3004E0022C01D1103000E014301AB1CE
:1023C00007682F43076002E00768AF430760F0BD6E
:1023D0002DE9F04786B005460E460024A24600BF10
:1023E000A1460027B08900B100BF2F462C8A4CF6C9
:1023F000FF700440F08804432C82AC894EF6F31041
:102400000440B08831890843718908430443AC8192
:10241000AC8A4FF6FF400440B0890443AC8201A867
:10242000FEF7D4FF1F48874202D1DDF810A001E07B
:10243000DDF80CA0A88910F4004F08D00AEBCA0000
:1024400000EB0A1031684900B0FBF1F807E00AEB35
:10245000CA0000EB0A1031688900B0FBF1F8642073
:10246000B8FBF0F004012009642101FB1089A88960
:1024700010F4004F08D0322000EBC900B0FBF1F09F
:1024800000F00700044308E0322000EB091064214B
:10249000B0FBF1F000F00F0004432C8106B0BDE862
:1024A000F08700000038014001468888C0F308002A
:1024B0007047C1F3080282807047000000B585B004
:1024C000002201212848FEF757FD08212748FDF783
:1024D00081FF60B126A000F0E1F86A4600212348A0
:1024E000FEF70CF808212148FDF714FF00BF40213A
:1024F0001E48FDF76FFF60B122A000F0CFF86A46DA
:1025000001211A48FDF7FAFF40211848FDF702FFA4
:1025100000BF02211548FDF75DFF60B16A4600214A
:102520001248FDF7EBFF1CA000F0B8F802210F489D
:10253000FDF7F0FE00BF10210C48FDF74BFF60B126
:1025400019A000F0ABF86A4601210848FDF7D6FF54
:1025500010210648FDF7DEFE00BF012211460248A9
:10256000FEF70AFD05B000BD000C0140006400400C
:102570000D0A43414E206572726F723121210D0A9E
:10258000000000000D0A43414E206572726F7232E6
:1025900021210D0A000000000D0A43414E206F6BFF
:1025A00021210D0A000000000D0A43414E206572F2
:1025B000726F723321210D0A0000000004E003A0B5
:1025C00000F06CF800BFFEE7F9E700000D0A455285
:1025D000524F525F55534147450D0A002DE9F041D6
:1025E00007460C4615461E464FF00008E9B2204645
:1025F00000F006FDB04206D00FA000F04FF84FF0FB
:10260000FF30BDE8F0812A462146384601F009F93D
:102610004FF47A7000F05CFEFF2240F2145115482E
:10262000FDF7B4FD2A461349384601F0EBF812A035
:1026300000F034F80120E4E70D0A62756620646159
:10264000746120637263206572726F72202C6375EF
:102650007272656E7420646174612061626F72745D
:102660002C706C656173652072657472792121210B
:102670000D0A0000041600200D0A777269746520A7
:102680007265616420636865636B20666C61736862
:10269000206F6B2B2B2B2B2B0D0A00000FB4054B3F
:1026A00010B503A9044A029800F02CF810BC5DF89C
:1026B00014FB0000B5380008B80000200FB4084B28
:1026C00010B504A902AA039800F01CF8044602A958
:1026D000002000F055FA204610BC5DF814FB000005
:1026E000812B000802E008C8121F08C1002AFAD195
:1026F00070477047002001E001C1121F002AFBD182
:10270000704700002DE9FF4F8DB005460F460026AB
:10271000EEE1252879D100246D1CF94AA246A14694
:1027200001212B78203B01FA03F0104202D0044330
:102730006D1CF6E728782A2810D06FF02F02287831
:10274000A0F13001092915D80AEB8A0102EB4101F9
:1027500044F0020400EB010A6D1CF0E757F804ABEB
:10276000BAF1000F03DA44F40054CAF1000A44F04D
:1027700002046D1C28782E2817D115F8010F44F09B
:1027800004042A280ED06FF02F022878A0F130011F
:1027900009290AD809EB890102EB410100EB010983
:1027A0006D1CF2E757F8049B6D1C28786C280FD03D
:1027B00006DC4C2817D068280DD06A2814D104E014
:1027C000742810D07A280FD10DE044F400140AE0E8
:1027D00044F4801401E044F440146978814202D149
:1027E0006D1C04F580146D1C95F800C0BCF16E0FD3
:1027F0002AD012DCBCF1630F3CD007DCBCF1000F27
:1028000076D0BCF1580F19D1ACE018E0BCF1640FE0
:102810006FD0BCF1690F11D16BE0BCF1730F32D0F6
:1028200006DCBCF16F0F71D0BCF1700F06D19BE0DC
:10283000BCF1750F6BD0BCF1780F69D06046DDE953
:102840000F129047761C52E1C4F30250022806D0C2
:1028500003280AD0042801CF0AD0066047E101CF3F
:102860004FEAE671C0E9006141E101CF06803EE137
:1028700006703CE101CF8DF8000000208DF80100CA
:10288000EB46012003E057F804BB4FF0FF3061072F
:102890004FF0000102D40DE008F1010188464945DE
:1028A0000FDA8045F8DB1BF808100029F4D108E0A6
:1028B00008F1010188468142FADB1BF80810002963
:1028C000F6D1DDE90F23AAEB08008146214600F08E
:1028D00040F9304400EB080604E0DDE90F121BF874
:1028E000010B9047B8F10108F7D221464846F9E0BC
:1028F00002E10A20C4F302524FF0000B0890022AB2
:1029000007D001CFC117032A09D00AE035E022E041
:1029100023E0FF1D27F00707F7E8020105E000B2FA
:10292000C117042A01D140B2C117002906DA0023D9
:10293000D0EB030063EB01012D2202E0220504D558
:102940002B228DF82420012203E0E20701D020226F
:10295000F7E7904653E00A2110E010204FF0000BFB
:1029600008900EE0102109E010214FF0000B44F018
:1029700004044FF00809089103E008214FF0000B10
:102980000891C4F30252022A04D001CF0021032A85
:1029900006D007E0FF1D27F00707F7E8020105E072
:1029A00080B20021042A01D1C0B200214FF00008FA
:1029B000220724D5BCF1700F2AD0089B83F01003A6
:1029C00053EA0B0309D150EA010206D030228DF8F8
:1029D00024208DF825C002229046089B83F008032E
:1029E00053EA0B030BD150EA010201D1620706D56D
:1029F00030228DF824204FF00108A9F1010941A2ED
:102A0000BCF1580F00D044A20B9208AA0A920FE022
:102A100040228DF824200122DEE75B46089AFDF76C
:102A2000ECFB0B9B9B5C0A9AA2F101020A921370C9
:102A300050EA0102F1D10A98ADEB000000F1200B41
:102A4000600702D524F4803401E04FF00109002032
:102A500049465A46D94501DDA1EB020000EB0B01C6
:102A600041440890AAEB01000B90E00306D4DDE995
:102A70000F2321460B9800F06CF806444FF0000934
:102A80000DF1240A07E0DDE90F121AF8090090475A
:102A9000761C09F10109C145F5DBE0030CD5DDE940
:102AA0000F2321460B9800F054F8064404E0DDE9BA
:102AB0000F1230209047761C0899481E0890002974
:102AC000F5DC08E00A980A990078491C0A91DDE9CA
:102AD0000F129047761CBBF10001ABF1010BF1DC4A
:102AE0000B982146DDE90F2300F020F806446D1C09
:102AF000287800287FF40DAE11B03046BDE8F08F85
:102B00000928010030313233343536373839414203
:102B10004344454600000000303132333435363707
:102B20003839616263646566000000002DE9F04198
:102B30000446002517461E46880405D406E039469B
:102B40002020B04705F10105641EF8D52846BDE8F0
:102B5000F0812DE9F04104460025302790461E46BD
:102B6000C80300D42027880405D506E0414638462E
:102B7000B04705F10105641EF8D52846BDE8F0818F
:102B80000A68531C0B6010707047000070B5044653
:102B90000D460CA12846FDF71AFB06460F212846D4
:102BA00000F0D6FA002800DB2EB900222946A0B298
:102BB00000F056FD04E00122311DA0B200F050FDEE
:102BC00070BD0000343135330000000070B504469C
:102BD0000D460CA12846FDF7FAFA06460F212846B5
:102BE00000F0B6FA002800DB2EB900222946A0B278
:102BF00000F036FD04E00122311DA0B200F030FDEE
:102C000070BD0000343134330000000070B504465C
:102C10000D460CA12846FDF7DAFA06460F21284694
:102C200000F096FA002800DB2EB900222946A0B257
:102C300000F016FD04E00122311DA0B200F010FDED
:102C400070BD0000343134370000000070B5044618
:102C50000D460CA12846FDF7BAFA06460F21284674
:102C600000F076FA002800DB2EB900222946A0B237
:102C700000F0F6FC04E00122311DA0B200F0F0FCEF
:102C800070BD0000343134380000000070B50446D7
:102C90000D460CA12846FDF79AFA06460F21284654
:102CA00000F056FA002800DB2EB900222946A0B217
:102CB00000F0D6FC04E00122311DA0B200F0D0FCEF
:102CC00070BD0000343134390000000070B5044696
:102CD0000D460CA12846FDF77AFA06460F21284634
:102CE00000F036FA002800DB2EB900222946A0B2F7
:102CF00000F0B6FC04E00122311DA0B200F0B0FCEF
:102D000070BD0000343134410000000070B504464D
:102D10000D460CA12846FDF75AFA06460F21284613
:102D200000F016FA002800DB2EB900222946A0B2D6
:102D300000F096FC04E00122311DA0B200F090FCEE
:102D400070BD0000343134420000000070B504460C
:102D50000D460CA12846FDF73AFA06460F212846F3
:102D600000F0F6F9002800DB2EB900222946A0B2B7
:102D700000F076FC04E00122311DA0B200F070FCEE
:102D800070BD0000343131300000000070B50446E1
:102D90000D460CA12846FDF71AFA06460F212846D3
:102DA00000F0D6F9002800DB2EB900222946A0B297
:102DB00000F056FC04E00122311DA0B200F050FCEE
:102DC00070BD0000343134360000000070B5044698
:102DD0000D460CA12846FDF7FAF906460F212846B4
:102DE00000F0B6F9002800DB2EB900222946A0B277
:102DF00000F036FC04E00122311DA0B200F030FCEE
:102E000070BD000034313333000000002DE9F04183
:102E100004460F46164600254FF496711148FDF7FB
:102E2000BCF900BF0BE0615D0F48FFF742FB00BF3C
:102E300040210D48FFF770FA0028F9D06D1C605D45
:102E40000028F0D109490860304600F041FA3946BF
:102E50000448FDF7BCF910B10120BDE8F081002065
:102E6000FBE70000100C0020004C00400C0000208C
:102E700004202649086026A0FFF710FC012000F07E
:102E800055F841F2883000F023FA012001F022FECB
:102E90003AE04FF4FA7222A122A0FFF7B7FF4FF4F5
:102EA000FA721FA11FA0FFF7B1FF4FF4FA721CA125
:102EB0001CA0FFF7ABFF4FF4FA7219A119A0FFF79E
:102EC000A5FF4FF4FA7216A116A0FFF79FFF4FF46B
:102ED000FA7213A113A0FFF799FF4FF4FA7210A131
:102EE00010A0FFF793FF4FF4FA720DA10DA0FFF7AA
:102EF0008DFF4FF4FA720AA10AA0FFF787FF44F68C
:102F0000206000F0E5F900BFC3E7000014000020D6
:102F10000D0A626C756520746573740D0A000000FB
:102F20004F4B000041540D0A0000000070B50446EC
:102F3000002504201749086054B917A0FFF7AEFB1D
:102F400000224FF480411B48FEF716F8012070BDA7
:102F500019A0FFF7A3FB012291031648FEF70CF816
:102F60004FF4FA6000F0B4F900250CE04FF47A72E7
:102F700017A118A0FFF74AFF20B117A0FFF78EFB9B
:102F80000120E4E76D1C052DF0DB18A0FFF786FBA0
:102F90000020DCE7140000200D0A626C75652074C7
:102FA0006F6F74682070776F6572206F66660D0AA8
:102FB00000000000000801400D0A626C7565207475
:102FC0006F6F74682070776F6572206F6E0D0A00E6
:102FD0004F4B000041540D000D0A626C7565207363
:102FE00074617274206F6B0D0A0000000D626C75C5
:102FF00065207374617274206572726F720A0000CA
:10300000F0B5ADF5017D05460E464FF400720F494F
:1030100001A8FDF7A9F800240EE02046E11704EB13
:103020001161C1F307272006040C2878784001A914
:1030300031F8100044406D1C3000A6F10101CEB201
:10304000EBD120460DF5017DF0BD00001C6A0008A3
:1030500070B504460D460CA12846FDF7B8F80646A3
:103060000F21284600F074F8002800DB2EB900225A
:103070002946A0B200F0F4FA04E00122311DA0B20A
:1030800000F0EEFA70BD0000343133430000000060
:1030900070B504460D460CA12846FDF798F8064683
:1030A0000F21284600F054F8002800DB2EB900223A
:1030B0002946A0B200F0D4FA04E00122311DA0B2EA
:1030C00000F0CEFA70BD000034313344000000003F
:1030D00070B504460D460CA12846FDF778F8064663
:1030E0000F21284600F034F8002800DB2EB900221A
:1030F0002946A0B200F0B4FA04E00122311DA0B2CA
:1031000000F0AEFA70BD000034313345000000001D
:1031100070B504460D460CA12846FDF758F8064642
:103120000F21284600F014F8002800DB2EB90022F9
:103130002946A0B200F094FA04E00122311DA0B2A9
:1031400000F08EFA70BD00003431334600000000FC
:1031500070B505460C4614F0080F07D015A1284697
:10316000FDF735F810B14FF0FF3070BD14F0020FCD
:1031700007D012A12846FDF72AF810B16FF0010020
:10318000F3E714F0040F07D00EA12846FDF71FF84F
:1031900010B16FF00200E8E714F0010F07D00BA1A7
:1031A0002846FDF714F810B94FF0FF30DDE7012095
:1031B000DBE7000044415441000000004E45435409
:1031C00000000000524348494E4700003E00000006
:1031D00070B504460D460CA12846FCF7F8FF0646DC
:1031E0000F212846FFF7B4FF002800DB2EB900228C
:1031F0002946A0B200F034FA04E00122311DA0B249
:1032000000F02EFA70BD00003431333100000000B0
:1032100070B504460D460CA12846FCF7D8FF0646BB
:103220000F212846FFF794FF002800DB2EB900226B
:103230002946A0B200F014FA04E00122311DA0B228
:1032400000F00EFA70BD000034313445000000007B
:1032500070B504460D460CA12846FCF7B8FF06469B
:103260000F212846FFF774FF002800DB2EB900224B
:103270002946A0B200F0F4F904E00122311DA0B209
:1032800000F0EEF970BD0000343132430000000060
:1032900070B504460D460CA12846FCF798FF06467B
:1032A0000F212846FFF754FF002800DB2EB900222B
:1032B0002946A0B200F0D4F904E00122311DA0B2E9
:1032C00000F0CEF970BD0000343130350000000050
:1032D000002107E0002200E0521C42F228339A420B
:1032E000FAD3491C8142F5D37047000070B50446FB
:1032F0000D460CA12846FCF76AFF06460F2128461A
:10330000FFF726FF002800DB2EB900222946A0B2D5
:1033100000F0A6F904E00122311DA0B200F0A0F9EE
:1033200070BD0000343134320000000070B5044636
:103330000D460CA12846FCF74AFF06460F212846F9
:10334000FFF706FF002800DB2EB900222946A0B2B5
:1033500000F086F904E00122311DA0B200F080F9EE
:1033600070BD0000343132440000000070B50446E6
:103370000D460CA12846FCF72AFF06460F212846D9
:10338000FFF7E6FE002800DB2EB900222946A0B296
:1033900000F066F904E00122311DA0B200F060F9EE
:1033A00070BD0000343135460000000038B50446D9
:1033B0001CB900208DF8030002E001208DF8030005
:1033C0004FF4E060FDF718FF28208DF80000002082
:1033D0008DF801008DF802006846FDF7CBFE38BD80
:1033E00070B504460D460CA12846FCF7F0FE0646D3
:1033F0000F212846FFF7ACFE002800DB2EB9002283
:103400002946A0B200F02CF904E00122311DA0B23F
:1034100000F026F970BD00003431303400000000A7
:1034200070B504460D460CA12846FCF7D0FE0646B2
:103430000F212846FFF78CFE002800DB2EB9002262
:103440002946A0B200F00CF904E00122311DA0B21F
:1034500000F006F970BD0000343135430000000073
:1034600070B504460D460CA12846FCF7B0FE064692
:103470000F212846FFF76CFE002800DB2EB9002242
:103480002946A0B200F0ECF804E00122311DA0B200
:1034900000F0E6F870BD0000343130430000000059
:1034A00070B504460D460CA12846FCF790FE064672
:1034B0000F212846FFF74CFE002800DB2EB9002222
:1034C0002946A0B200F0CCF804E00122311DA0B2E0
:1034D00000F0C6F870BD0000343131460000000035
:1034E00070B504460D460CA12846FCF770FE064652
:1034F0000F212846FFF72CFE002800DB2EB9002202
:103500002946A0B200F0ACF804E00122311DA0B2BF
:1035100000F0A6F870BD0000343134340000000023
:1035200070B504460D460CA12846FCF750FE064631
:103530000F212846FFF70CFE002800DB2EB90022E1
:103540002946A0B200F08CF804E00122311DA0B29F
:1035500000F086F870BD00003431324500000000F4
:1035600070B504460D460CA12846FCF730FE064611
:103570000F212846FFF7ECFD002800DB2EB90022C2
:103580002946A0B200F06CF804E00122311DA0B27F
:1035900000F066F870BD00003431353400000000E2
:1035A00070B504460D460CA12846FCF710FE0646F1
:1035B0000F212846FFF7CCFD002800DB2EB90022A2
:1035C0002946A0B200F04CF804E00122311DA0B25F
:1035D00000F046F870BD00003431333200000000C6
:1035E00070B504460D460CA12846FCF7F0FD0646D2
:1035F0000F212846FFF7ACFD002800DB2EB9002282
:103600002946A0B200F02CF804E00122311DA0B23E
:1036100000F026F870BD0000343134460000000090
:1036200070B504460D460CA12846FCF7D0FD0646B1
:103630000F212846FFF78CFD002800DB2EB9002261
:103640002946A0B200F00CF804E00122311DA0B21E
:1036500000F006F870BD0000343135300000000085
:103660002DE9F04706460F4691460024A0464648FD
:1036700000EB86008578314644A0FFF70FF8C6EBD3
:103680000610484A02EBC000011D47A0FFF706F8EC
:10369000C6EB0610434A02EBC00000F1440146A00D
:1036A000FEF7FCFF15B928B2BDE8F0874548006871
:1036B00088BB44480168304600F048FA80464B46D3
:1036C0004246294640A0FEF7E9FF002405E0395DA7
:1036D00049A0FEF7E3FF601C84B2AC42F7DBB9F10E
:1036E000000F0BD0002406E0395D08EB04024348CC
:1036F0008154601C84B2AC42F6DB0AE0002406E090
:103700003F2108EB04023D488154601C84B2AC4266
:10371000F6DB28B2C8E7FFE72A480068012831D164
:1037200028480168304600F011FA80464B46424670
:10373000294625A0FEF7B2FF002405E0395D2EA042
:10374000FEF7ACFF601C84B2AC42F7DBB9F1000FAE
:103750000BD0002406E0395D08EB040228488154B0
:10376000601C84B2AC42F6DB0AE0002406E03F2194
:1037700008EB040222488154601C84B2AC42F6DBA0
:1037800028B291E700BF8FE7D01200200D0A435501
:103790005252454E5420494E4445583A25640D0A2C
:1037A000000000001C6E00080D0A6C6162656C2050
:1037B0003A25730D0A0000000D0A434D44203A25B6
:1037C000730D0A00240000200D0A6E6565642064F4
:1037D0006174612073697A652D2D3E25642020690E
:1037E0006E6465782D2D3E25642076616C75652D9F
:1037F0002D3E25640D0A000025335800720E00206E
:103800000C10002010B50346002000BF03E01C5838
:103810000C54441CA0B29042F9DB10BD02460120BA
:1038200070472DE9F04180460F461446FDF77CF8BD
:10383000E11704EB91718910B4EB81011BD00025D5
:1038400004E0FF2079190855681C85B2E11704EBE4
:1038500091718910A4EB8101C1F10401A942F0DC4E
:103860002046E11704EB91718910A4EB8101C1F1AD
:10387000040121448CB2002515E000267819C07897
:103880000643360278198078064336027819407864
:1038900006433602785D064308EB05003146FDF726
:1038A00005F8281D85B2A542E7DBFCF7E7FFBDE878
:1038B000F081000070B504460D46E1B20548FEF700
:1038C000F8FD00BF80210348FEF726FD0028F9D04F
:1038D000204670BD0038014070B504460D460CA16D
:1038E0002846FCF774FC06460F212846FFF730FCFB
:1038F000002800DB2EB900222946A0B2FFF7B0FE57
:1039000004E00122311DA0B2FFF7AAFE70BD000045
:10391000343132320000000070B504460D460CA16F
:103920002846FCF754FC06460F212846FFF710FCFA
:10393000002800DB2EB900222946A0B2FFF790FE36
:1039400004E00122311DA0B2FFF78AFE70BD000025
:10395000343132330000000070B504460D460CA12E
:103960002846FCF734FC06460F212846FFF7F0FBFB
:10397000002800DB2EB900222946A0B2FFF770FE16
:1039800004E00122311DA0B2FFF76AFE70BD000005
:10399000343135440000000070B504460D460CA1DA
:1039A0002846FCF714FC06460F212846FFF7D0FBFB
:1039B000002800DB2EB900222946A0B2FFF750FEF6
:1039C00004E00122311DA0B2FFF74AFE70BD0000E5
:1039D000343132460000000070B504460D460CA19B
:1039E0002846FCF7F4FB06460F212846FFF7B0FBFC
:1039F000002800DB2EB900222946A0B2FFF730FED6
:103A000004E00122311DA0B2FFF72AFE70BD0000C4
:103A1000343130410000000070B504460D460CA161
:103A20002846FCF7D4FB06460F212846FFF790FBFB
:103A3000002800DB2EB900222946A0B2FFF710FEB5
:103A400004E00122311DA0B2FFF70AFE70BD0000A4
:103A5000343135450000000070B504460D4609A11B
:103A60002846FCF7B4FB06462EB101223146A0B22F
:103A7000FFF7F6FD04E000223146A0B2FFF7F0FDAB
:103A800070BD0000343130320000000070B50446D3
:103A90000D460CA12846FCF79AFB06460F21284646
:103AA000FFF756FB002800DB2EB900222946A0B202
:103AB000FFF7D6FD04E00122311DA0B2FFF7D0FDD3
:103AC00070BD0000343130330000000070B5044692
:103AD0000D460CA12846FCF77AFB06460F21284626
:103AE000FFF736FB002800DB2EB900222946A0B2E2
:103AF000FFF7B6FD04E00122311DA0B2FFF7B0FDD3
:103B000070BD0000343135310000000070B504464E
:103B10000D460CA12846FCF75AFB06460F21284605
:103B2000FFF716FB002800DB2EB900222946A0B2C1
:103B3000FFF796FD04E00122311DA0B2FFF790FDD2
:103B400070BD00003431353900000000F8B505467D
:103B50000E4600246B480088F0BB00206A490880AC
:103B600000BF15E06948B0F82C010119684800EB66
:103B700081008078644931F814100144624A601C65
:103B800032F81000084481B2601C22F8101084B290
:103B90005E48B0F82E11B0F82C01081AA042E1DC02
:103BA0005CA0FEF77BFD002420E0052094FBF0F1F3
:103BB00000FB114010B95DA0FEF770FD524830F8CF
:103BC000143052480093B0F82C010119504800EB12
:103BD000810083784D4800E056E0B0F82C010219CE
:103BE000214653A0FEF75AFD601C84B2C82CDCDBD2
:103BF000002055490880002415E04448B0F8300101
:103C00000119434800EB810080784F4931F81410C6
:103C100001444D4A601C32F81000084481B2601C17
:103C200022F8101084B23948B0F83211B0F83001DF
:103C3000081AA042E1DC45A0FEF730FD00241EE09A
:103C4000052094FBF0F100FB114010B937A0FEF7FE
:103C500025FD3D4830F814302C480093B0F8300171
:103C600001192B4800EB810083782848B0F8300117
:103C7000021921463AA0FEF711FD601C84B2C82C3F
:103C8000DEDB01201F49088026BB2048B0F82C014C
:103C9000281A1D4931F810301C480093B0F82E3115
:103CA000B0F82C21294633A0FEF7F8FC1748B0F8ED
:103CB0002E01A84204DB1548B0F82C01A84201DD12
:103CC0000020F8BD1148B0F82C01281A0E4931F82F
:103CD0001000F6E7012E13D10C48B0F83201A842CB
:103CE00004DB0A48B0F83001A84201DD0020E8E713
:103CF0000648B0F83001281A134931F81000E0E7FF
:103D00000020DEE7A0000020F01B00209C11002016
:103D1000D01200200D0A4E4F524D414C20494E44C6
:103D20004558204D41500D0A000000000D0A0000CA
:103D30003A3A3A25642D3E25642D2D3E25642D3ECC
:103D40002564202020000000801D00200D0A46412F
:103D5000535420494E444558204D41503A0D0A00D5
:103D60003A3A3A25642D3E25642D2D3E25642D3E9C
:103D7000256409006D617020696E64657820256492
:103D8000202D3E2025642D3E25642D2D3E256400EA
:103D900070B506460C46002501212046FFF7D8F9EC
:103DA000002803DA00E06D1C142DFCDB70BD000060
:103DB000FA49097879B3FA490968062902D0FF2936
:103DC0007ED12FE1F749C978472972D1F5490979A0
:103DD00047296ED1F349497941296AD10121F24A33
:103DE00011600021F14A116009E07822F049EF4B9F
:103DF0001B68CA54ED490968491CEC4A1160EB493B
:103E000009680929F1DB7821E94A921ED172002163
:103E1000E64A11600BE0F3E37822E5490A31E34B0F
:103E20001B68CA54E1490968491CE04A1160DF492E
:103E300009680A29F0DB7821DD4A921E9175D17557
:103E40000021DA4A11600AE07822D9491631D74BAD
:103E50001B68CA54D5490968491CD44A1160D34922
:103E600009680229F0DB0021D04A11600AE07822BB
:103E7000CF491831CD4B1B68CA54CC490968491C3D
:103E8000CA4A1160C94909680429F0DB0021C74A00
:103E900011600AE00022C6491C31C44B1B68CA5499
:103EA000C2490968491CC14A1160C04909680A2908
:103EB000F0DBBC494979562928D10421BA4A00E0EF
:103EC000FEE311600021B94A11601BE07822B94974
:103ED000B64B1B6801F82320B44B1B6801EB830130
:103EE0004A70B449B14B1B6801EB83018A70B14938
:103EF000AE4B1B6801EB8301CA70AC490968491CD1
:103F0000AA4A1160A94909680C29DFDBA54949794A
:103F1000432971D10821A44A11600021A34A1160EC
:103F200009E07822A449A14B1B68CA549F4909683B
:103F3000491C9E4A11609D4909680A29F1DB7821D4
:103F40009D4A921E11730021984A11600AE078225E
:103F500099490B31954B1B68CA5494490968491C0F
:103F6000924A1160914909680929F0DB7821924A47
:103F7000921E917500218D4A11600AE078228E49C7
:103F800015318A4B1B68CA5488490968491C874AFD
:103F90001160864909680A29F0DB7821864A921E59
:103FA00082F821100021814A11600AE078228249BA
:103FB00020317E4B1B68CA547C490968491C7B4AE6
:103FC00011607A4909680529F0DB0021774A116000
:103FD0000AE0782278492531744B1B68CA5473492A
:103FE0000968491C714A1160704909680529F0DBAC
:103FF00000216E4A11600BE00EE078226E492A31F2
:104000006A4B1B68CA5469490968491C674A1160B0
:10401000664909680629F0DB2C2802D1FF21604A95
:104020001160FEE360490968012904D004297ED0AB
:1040300008297DD1EDE02A2802D02C2879D190E002
:104040000021564A11705A49891EC97D302971D004
:104050005749891EC97E2E290FD15549891E097FCE
:104060003039534A921E927E303A02EB820201EBC3
:1040700042014F4A921E916220E04D49891E097FFC
:104080002E2916D14A49891E897E3039642251432E
:10409000474A921ED27E303A02EB820201EB420284
:1040A0004349891E497F30391144414A921E916229
:1040B00004E04FF47A713E4A921E91623C49891E97
:1040C000896A3E4A926991424ADC0021374A11606E
:1040D0000CE03749354A1268895C384A334B1B6813
:1040E000D15432490968491C304A11602F49096886
:1040F0000929EEDB00212D4A11600EE02C490A311E
:104100002A4A12688A5C2D490A31284B1B68CA5416
:1041100026490968491C254A1160244909680A2969
:10412000ECDB2349891EC97A244A517203E0B9E1C4
:10413000F6E320E014E01E49891E897D11751C49B3
:10414000891E097E11771A49891E4A7E1B494A77C2
:104150001749891E896A194A91610121184A11601B
:1041600055E01349891E0978491C114A921E1170A5
:10417000002151704BE00E49891E097809293ED271
:10418000DFE801F03D052023282B2E3338000849B5
:10419000891E4A78891C885432E00000740000208F
:1041A0007000002068000020640000207C000020D7
:1041B0004E1B0020801B00201A1B0020B01B00207B
:1041C00080000020FF49C8721AE0FE494A780C318D
:1041D000885415E0FB49887512E0FA49C8750FE06C
:1041E000F8494A78183188540AE0F6494A781A3171
:1041F000885400BFF3494A781E31885400E000BF5C
:1042000000BFF0494978491CEE4A517000BF00BF19
:10421000D6E32A2802D02C287DD1FEE00021EA4AEC
:104220001170EA4A11600121E94A1160E949097BEC
:10423000412978D10021E84A11600DE0E5490D31AE
:10424000E54A12688A5CE549E34B1B68CA54E249B7
:104250000968491CE04A1160DF4909680929EDDB5A
:104260000021DD4A11600EE0DA491731DA4A12689E
:104270008A5CDA490A31D84B1B68CA54D6490968A6
:10428000491CD54A1160D44909680A29ECDBD14997
:10429000897DD24A1E3A82F82710CE4991F8211022
:1042A00082F832100021CC4A11600EE0C949223157
:1042B000C94A12688A5CC9491731C74B1B68CA547E
:1042C000C5490968491CC44A1160C34909680529E0
:1042D000ECDB0021C04A11600EE0BE492731BE4A26
:1042E00012688A5CBD491C31BB4B1B68CA54BA4971
:1042F0000968491CB84A1160B74909680529ECDB0F
:10430000B049097EB54A1E3A82F83310AD494A7E5B
:10431000B2491E3901E088E005E081F8342001212E
:10432000AF4A11607047AB49897D782974D000216C
:10433000A94A11600DE0A7490D31A74A12688A5CAD
:10434000A649A54B1B68CA54A3490968491CA24A3F
:104350001160A14909680929EDDB00219E4A11601D
:104360000EE09C4917319C4A12688A5C9B490A31CD
:10437000994B1B68CA5498490968491C964A1160B0
:10438000954909680A29ECDB9249897D934A1E3ACE
:1043900082F827108F4991F8211082F832100021FD
:1043A0008D4A11600EE08B4922318B4A12688A5C7B
:1043B0008A491731884B1B68CA5487490968491CC8
:1043C000854A1160844909680529ECDB0021824A8D
:1043D00011600EE07F4927317F4A12688A5C7F496D
:1043E0001C317D4B1B68CA547B490968491C7A4AB9
:1043F0001160794909680529ECDB7249097E774A21
:104400001E3A82F833106F494A7E74491E3981F88A
:1044100034200121734A116042E06E490978491C39
:104420006C4A1170002151703AE06A4909780929F3
:104430002ED2DFE801F0050A0D12151A1E232800FE
:1044400064494A78891C885423E06249087320E053
:1044500060494A780D3188541BE05E49887518E040
:104460005C494A781731885413E05A4981F8210091
:104470000FE058494A78223188540AE055494A7871
:104480002731885405E053494A782C31885400E09C
:1044900000BF00BF4F494978491C4E4A517000BFC8
:1044A00000BF8DE22A2802D02C287ED1DFE1002136
:1044B000454A11704C49C978312977D100214B4ABE
:1044C00011604B4A11604B4A11604B4A11604B4AD4
:1044D0001160414A1160A2E0434908313E4A126826
:1044E00001EB8201C97878296BD040490968491CE1
:1044F0003E4A11603C490831374A126801EB82019B
:10450000C9783039384A0832334B1B6802EB8302D2
:104510009278303A02EB820201EB42010A2904DB75
:1045200033490968491C324A11602F4908312A4A27
:10453000126801EB8201C97830392B4A0832264BC8
:104540001B6802EB83029278303A02EB820201EBA5
:104550004201142904DB27490968491C254A1160D6
:10456000214908311C4A126801EB8201C9783039AF
:104570001D4A0832184B1B6802EB83029278303ACE
:1045800002EB820201EB42011E2904DB1A49096891
:10459000491C194A1160144908310F4A126801EB8D
:1045A0008201C9783039104A01E068E13DE0083203
:1045B000094B1B6802EB83029278303A02EB8202CD
:1045C0001FE027E04C1B002074000020700000203A
:1045D00078000020181B00207C000020CE1B00204B
:1045E0008800002084000020781B00208C00002020
:1045F0009000002094000020980000209C000020E3
:10460000F2E101EB4201282904DBFF490968491C5A
:10461000FD4A1160FD490968491CFC4A1160FB49CB
:1046200009680429FFF658AF20E1F949C978322911
:104630007ED10421F54A116083E0F5490831F34A3F
:10464000126801EB8201C978782975D0F1490968AF
:10465000491CF04A1160EE490831EC4A126801EB3E
:104660008201C9783039EA4A0832E84B1B6802EB0C
:1046700083029278303A02EB820201EB42010A296E
:1046800004DBE5490968491CE34A1160E049083147
:10469000DE4A126801EB8201C9783039DC4A0832FF
:1046A000DA4B1B6802EB83029278303A02EB82020B
:1046B00001EB4201142906DBD8490968491C00E0D6
:1046C00080E1D64A1160D2490831D04A126801EB24
:1046D0008201C9783039CE4A0832CC4B1B6802EBD4
:1046E00083029278303A02EB820201EB42011E29EA
:1046F00004DBCB490968491CC94A1160C449083127
:10470000C24A126801EB8201C9783039C04A0832C6
:10471000BE4B1B6802EB83029278303A02EB8202B6
:1047200001EB4201282907DBB7490968491C01E070
:104730000DE001E0B44A1160B4490968491CB34A6C
:104740001160B24909680829FFF677AF8EE0B049D9
:10475000C978332966D10821AC4A116081E0AC499F
:104760000831AA4A126801EB8201C978782973D00E
:10477000A8490968491CA74A1160A5490831A34AFC
:10478000126801EB8201C9783039A14A08329F4B87
:104790001B6802EB83029278303A02EB820201EB53
:1047A00042010A2904DB9C490968491C9A4A1160A4
:1047B00097490831954A126801EB8201C97830396E
:1047C000934A0832914B1B6802EB83029278303A8D
:1047D00002EB820201EB4201142904DB8F490968D4
:1047E000491C8E4A11608A490831884A126801EBD7
:1047F0008201C9783039864A0832844B1B6802EB43
:1048000083029278303A02EB820201EB42011E29C8
:1048100004DB83490968491C814A11607C490831DD
:1048200001E0E0E022E0794A126801EB8201C978F8
:104830003039774A0832754B1B6802EB8302927855
:10484000303A02EB820201EB4201282904DB6E4977
:104850000968491C6C4A11606C490968491C6B4A1B
:1048600011606A4909680C29FFF679AFA2E068492E
:104870000978491C664A1170002151709AE0644918
:104880000978132974D2DFE801F00A0D2A2B343598
:1048900036404C4D4E5A656667747F8081005C4996
:1048A000887080E05A49C870C978312903D1002145
:1048B000574A516012E05649C978322903D1042180
:1048C000534A51600AE05249C978332903D108217B
:1048D0004F4A516002E008214D4A516063E062E0B6
:1048E0004B494A68083101EB8201494A52788854A1
:1048F00059E058E057E046494A68083101EB820127
:10490000891C434A527888544DE041494968491C02
:104910003F4A083202EB8101083A5278885442E05B
:104920004AE040E03FE03A494968491C384A0832C9
:1049300002EB8101891C083A5278885433E03449EB
:104940004968891C324A083202EB8101083A5278E0
:10495000885428E027E026E02D494968891C2C4A24
:10496000083202EB8101891C083A527888541AE017
:1049700018E027494968C91C254A083202EB810121
:10498000083A527888540EE00DE00CE0204949685E
:10499000C91C1F4A083202EB8101891C083A52786F
:1049A000885400E000BF00BF19494978491C184AE3
:1049B000517000BF00BF03E000211A4A117000BF10
:1049C00000BF10E01849194A12688854174909684D
:1049D000491C164A116011460968072902DD0021A9
:1049E000104A117000BF33E0242831D10E49002253
:1049F0000A608A808A71087001210A4A11700021B8
:104A00000B4A1160012115E09C0000207C00002071
:104A1000781B00208C0000209000002094000020D3
:104A20009800002074000020680000207000002022
:104A300064000020074A11600021074A117051707C
:104A4000064A11705170064A11705170054A116082
:104A500000BF67E470000020181B0020781B0020B6
:104A60004C1B00207800002010B5FCF74BFC012106
:104A70000748FCF739FAFBF777FFFDF7F9FAFBF780
:104A800033FEFCF7B1FA01F0C7F8FCF78BFF10BD5D
:104A90000004300070B504460D460CA12846FBF713
:104AA00096FB06460F212846FEF752FB002800DB46
:104AB0002EB900222946A0B2FEF7D2FD04E0012261
:104AC000311DA0B2FEF7CCFD70BD0000343135427F
:104AD0000000000010B58CB0044678A0FDF7DEFDA4
:104AE0004FF4FA727BA17CA0FEF790F94FF4FA72B2
:104AF00078A179A0FEF78AF9794A7AA104A8FDF78E
:104B0000DDFD04A97AA0FDF7C9FD4FF4FA7271A189
:104B100004A8FEF77BF9002803DA4FF0FF300CB051
:104B200010BD4FF4FA726BA177A0FEF76FF9202148
:104B300004A8FBF732FB6A4A143276A104A8FDF7F9
:104B4000BDFD04A976A0FDF7A9FD4FF4FA7261A19D
:104B500004A8FEF75BF9002802DA4FF0FF30DEE729
:104B60004FF4FA725BA174A0FEF750F9202104A85B
:104B7000FBF713FB4FF416414EF2E842881A9142BC
:104B800047D014DCB1F5165F34D009DCB1F5966F6F
:104B900021D0B1F5166F23D0B1F5965F57D124E03F
:104BA000B1F5964F2BD0B1F5164F50D12CE0654A98
:104BB000811A90423CD007DCA0F55D4018382DD01A
:104BC000B0F5E13F43D12EE0B1F5E12F35D0B1F59D
:104BD000612F3CD136E05CA104A8FBF7EAFA3BE088
:104BE0005CA104A8FBF7E5FA36E05DA104A8FBF799
:104BF000E0FA31E05DA104A8FBF7DBFA2CE05EA14E
:104C000004A8FBF7D6FA27E05EA104A8FBF7D1FAC7
:104C100022E05FA104A8FBF7CCFA1DE05FA104A885
:104C2000FBF7C7FA18E060A104A8FBF7C2FA13E08B
:104C300060A104A8FBF7BDFA0EE061A104A8FBF790
:104C4000B8FA09E061A104A8FBF7B3FA04E04DA1AA
:104C500004A8FBF7AEFA00BF00BF04A95EA0FDF7F1
:104C60001DFD4FF4FA721BA104A8FEF7CFF800282F
:104C700002DA4FF0FF3052E74FF4FA7215A12EA07E
:104C8000FEF7C4F84FF4164000900020ADF8040081
:104C9000ADF80600ADF80800ADF80C000C20ADF83A
:104CA0000A0069465048FDF793FB012240F2255166
:104CB0004D48FDF768FB012031E700000D0A7365E0
:104CC0007420626C7565746F6F7468206D6F6465B5
:104CD0000D0A00004F4B000041540D0A0000000077
:104CE0007412002041542B4E414D4525730D0A008E
:104CF00073657420626C7565206E616D6520636DEF
:104D000064203A257300000041542B4E414D450D5F
:104D10000A00000041542B50494E25730D0A000033
:104D200073657420626C7565207061737320636DA8
:104D300064203A257300000041542B50494E0D0A5F
:104D4000000000001823060041542B424155443115
:104D50000D0A000041542B42415544320D0A000017
:104D600041542B42415544330D0A000041542B421B
:104D7000415544340D0A000041542B4241554435FD
:104D80000D0A000041542B42415544360D0A0000E3
:104D900041542B42415544370D0A000041542B42E7
:104DA000415544380D0A000041542B4241554439C5
:104DB0000D0A000041542B42415544410D0A0000A8
:104DC00041542B42415544420D0A000041542B42AC
:104DD000415544430D0A00006261756420636D64AF
:104DE000203A257300000000004C004070B50446D6
:104DF0000D460CA12846FBF7EAF906460F21284686
:104E0000FEF7A6F9002800DB2EB900222946A0B241
:104E1000FEF726FC04E00122311DA0B2FEF720FCC3
:104E200070BD0000343130460000000070B504460B
:104E30000D460CA12846FBF7CAF906460F21284665
:104E4000FEF786F9002800DB2EB900222946A0B221
:104E5000FEF706FC04E00122311DA0B2FEF700FCC3
:104E600070BD0000343130420000000070B50446CF
:104E70000D460CA12846FBF7AAF906460F21284645
:104E8000FEF766F9002800DB2EB900222946A0B201
:104E9000FEF7E6FB04E00122311DA0B2FEF7E0FBC5
:104EA00070BD0000343130370000000070B504469A
:104EB0000D460CA12846FBF78AF906460F21284625
:104EC000FEF746F9002800DB2EB900222946A0B2E1
:104ED000FEF7C6FB04E00122311DA0B2FEF7C0FBC5
:104EE00070BD0000343130390000000070B5044658
:104EF0000D460CA12846FBF76AF906460F21284605
:104F0000FEF726F9002800DB2EB900222946A0B2C0
:104F1000FEF7A6FB04E00122311DA0B2FEF7A0FBC4
:104F200070BD0000343135360000000070B5044615
:104F30000D460CA12846FBF74AF906460F212846E4
:104F4000FEF706F9002800DB2EB900222946A0B2A0
:104F5000FEF786FB04E00122311DA0B2FEF780FBC4
:104F600070BD0000343135380000000010B5FFF787
:104F70007BFD00F02FFFFDF77BFF02200149086059
:104F8000002010BD1400002070B504460D460CA191
:104F90002846FBF71CF906460F212846FEF7D8F8ED
:104FA000002800DB2EB900222946A0B2FEF758FBEC
:104FB00004E00122311DA0B2FEF752FB70BD0000DB
:104FC000343132310000000070B504460D460CA1AA
:104FD0002846FBF7FCF806460F212846FEF7B8F8EE
:104FE000002800DB2EB900222946A0B2FEF738FBCC
:104FF00004E00122311DA0B2FEF732FB70BD0000BB
:10500000343134440000000070B504460D460CA154
:105010002846FBF7DCF806460F212846FEF798F8ED
:10502000002800DB2EB900222946A0B2FEF718FBAB
:1050300004E00122311DA0B2FEF712FB70BD00009A
:10504000343134310000000070B504460D460CA127
:105050002846FBF7BCF806460F212846FEF778F8ED
:10506000002800DB2EB900222946A0B2FEF7F8FA8C
:1050700004E00122311DA0B2FEF7F2FA70BD00007B
:10508000343130310000000070B504460D460CA1EB
:105090002846FBF79CF806460F212846FEF758F8ED
:1050A000002800DB2EB900222946A0B2FEF7D8FA6C
:1050B00004E00122311DA0B2FEF7D2FA70BD00005B
:1050C000343131340000000070B504460D460CA1A7
:1050D0002846FBF77CF806460F212846FEF738F8ED
:1050E000002800DB2EB900222946A0B2FEF7B8FA4C
:1050F00004E00122311DA0B2FEF7B2FA70BD00003B
:10510000343131350000000070B504460D460CA165
:105110002846FBF75CF806460F212846FEF718F8EC
:10512000002800DB2EB900222946A0B2FEF798FA2B
:1051300004E00122311DA0B2FEF792FA70BD00001A
:10514000343131360000000070B504460D460CA124
:105150002846FBF73CF806460F212846FDF7F8FFE6
:10516000002800DB2EB900222946A0B2FEF778FA0B
:1051700004E00122311DA0B2FEF772FA70BD0000FA
:10518000343131370000000070B504460D460CA1E3
:105190002846FBF71CF806460F212846FDF7D8FFE6
:1051A000002800DB2EB900222946A0B2FEF758FAEB
:1051B00004E00122311DA0B2FEF752FA70BD0000DA
:1051C000343131380000000070B504460D460CA1A2
:1051D0002846FAF7FCFF06460F212846FDF7B8FFE0
:1051E000002800DB2EB900222946A0B2FEF738FACB
:1051F00004E00122311DA0B2FEF732FA70BD0000BA
:10520000343131390000000070B504460D460CA160
:105210002846FAF7DCFF06460F212846FDF798FFDF
:10522000002800DB2EB900222946A0B2FEF718FAAA
:1052300004E00122311DA0B2FEF712FA70BD000099
:10524000343131410000000070B504460D460CA118
:105250002846FAF7BCFF06460F212846FDF778FFDF
:10526000002800DB2EB900222946A0B2FEF7F8F98B
:1052700004E00122311DA0B2FEF7F2F970BD00007A
:10528000343131420000000070B504460D460CA1D7
:105290002846FAF79CFF06460F212846FDF758FFDF
:1052A000002800DB2EB900222946A0B2FEF7D8F96B
:1052B00004E00122311DA0B2FEF7D2F970BD00005A
:1052C000343133340000000070B504460D460CA1A3
:1052D0002846FAF77CFF06460F212846FDF738FFDF
:1052E000002800DB2EB900222946A0B2FEF7B8F94B
:1052F00004E00122311DA0B2FEF7B2F970BD00003A
:10530000343133350000000070B504460D460CA161
:105310002846FAF75CFF06460F212846FDF718FFDE
:10532000002800DB2EB900222946A0B2FEF798F92A
:1053300004E00122311DA0B2FEF792F970BD000019
:10534000343133360000000070B504460D460CA120
:105350002846FAF73CFF06460F212846FDF7F8FEDF
:10536000002800DB2EB900222946A0B2FEF778F90A
:1053700004E00122311DA0B2FEF772F970BD0000F9
:10538000343133370000000070B504460D460CA1DF
:105390002846FAF71CFF06460F212846FDF7D8FEDF
:1053A000002800DB2EB900222946A0B2FEF758F9EA
:1053B00004E00122311DA0B2FEF752F970BD0000D9
:1053C000343133380000000070B504460D460CA19E
:1053D0002846FAF7FCFE06460F212846FDF7B8FEE0
:1053E000002800DB2EB900222946A0B2FEF738F9CA
:1053F00004E00122311DA0B2FEF732F970BD0000B9
:10540000343133390000000070B504460D460CA15C
:105410002846FAF7DCFE06460F212846FDF798FEDF
:10542000002800DB2EB900222946A0B2FEF718F9A9
:1054300004E00122311DA0B2FEF712F970BD000098
:10544000343133410000000070B504460D460CA114
:105450002846FAF7BCFE06460F212846FDF778FEDF
:10546000002800DB2EB900222946A0B2FEF7F8F88A
:1054700004E00122311DA0B2FEF7F2F870BD000079
:10548000343133420000000070B504460D460CA1D3
:105490002846FAF79CFE06460F212846FDF758FEDF
:1054A000002800DB2EB900222946A0B2FEF7D8F86A
:1054B00004E00122311DA0B2FEF7D2F870BD000059
:1054C000343132340000000070B504460D460CA1A2
:1054D0002846FAF77CFE06460F212846FDF738FEDF
:1054E000002800DB2EB900222946A0B2FEF7B8F84A
:1054F00004E00122311DA0B2FEF7B2F870BD000039
:10550000343132350000000070B504460D460CA160
:105510002846FAF75CFE06460F212846FDF718FEDE
:10552000002800DB2EB900222946A0B2FEF798F829
:1055300004E00122311DA0B2FEF792F870BD000018
:10554000343132360000000070B504460D460CA11F
:105550002846FAF73CFE06460F212846FDF7F8FDDF
:10556000002800DB2EB900222946A0B2FEF778F809
:1055700004E00122311DA0B2FEF772F870BD0000F8
:10558000343132370000000070B504460D460CA1DE
:105590002846FAF71CFE06460F212846FDF7D8FDDF
:1055A000002800DB2EB900222946A0B2FEF758F8E9
:1055B00004E00122311DA0B2FEF752F870BD0000D8
:1055C000343132380000000070B504460D460CA19D
:1055D0002846FAF7FCFD06460F212846FDF7B8FDE0
:1055E000002800DB2EB900222946A0B2FEF738F8C9
:1055F00004E00122311DA0B2FEF732F870BD0000B8
:10560000343132390000000070B504460D460CA15B
:105610002846FAF7DCFD06460F212846FDF798FDDF
:10562000002800DB2EB900222946A0B2FEF718F8A8
:1056300004E00122311DA0B2FEF712F870BD000097
:10564000343132410000000070B504460D460CA113
:105650002846FAF7BCFD06460F212846FDF778FDDF
:10566000002800DB2EB900222946A0B2FDF7F8FF82
:1056700004E00122311DA0B2FDF7F2FF70BD000071
:105680003431324200000000B0B50024002500276C
:10569000DC48008801285CD1DB48008820B9DB4861
:1056A000B0F82801D8490880002400BFD848D6495E
:1056B000098830F82100C0EB0010D64901EBC0008A
:1056C0004430075DD248D04A128830F82200C0EB3F
:1056D00000100A4602EBC0004430015DCE48FCF7E2
:1056E000E8FECB48C84A128830F82200C0EB001010
:1056F000C84A02EBC0004430015DC848FCF7D9FE3F
:1057000000BF4021C448FCF707FE0028F9D0C0487C
:10571000BD49098830F82100C0EB0010BD4901EBFC
:10572000C0004430005D0D2800D101E0641CBDE7DD
:1057300000BFB5480088401CB3490880B348B0F8A2
:105740002A010988884202DA0020AE4908803046E2
:10575000B0BDB348006870B90120B1490860AB48DA
:10576000B0F82C01401EAF490880A848B0F83001BD
:10577000401EAD490880AD480068F0BBA348B0F8B2
:105780003001401EA84908800020A9490880A0488F
:10579000A449098800EB8100C078A649098888429D
:1057A00006DBA4480088401CA24908800020CFE7FF
:1057B0000020A049088096489A49098800EB81009A
:1057C0008578CDB197480088C0EB0010914951F819
:1057D000300088B18D48B0F82C0192490988884280
:1057E0000ADC90480088C0EB00108A4951F830204C
:1057F00091498C480088904700E05CE04FF4967136
:105800008D48FAF7CAFC00208C490860854800885A
:10581000401C844908807D48B0F82E0109888842E0
:1058200004DA7A48B0F82C017E490880002400BFD1
:1058300077487C49098830F82100C0EB0010754991
:1058400001EBC0004430075D7148764A128830F899
:105850002200C0EB00100A4602EBC0004430015D9C
:105860006D48FCF726FE6A486E4A128830F822001E
:10587000C0EB0010674A02EBC0004430015D67488E
:10588000FCF717FE00BF40216348FCF745FD0028E8
:10589000F9D05F486349098830F82100C0EB001057
:1058A0005C4901EBC0004430005D0D2800D101E0EF
:1058B000641CBDE700BF5D48006801287ED160A080
:1058C000FCF7ECFE5148B0F82C01401E5549088009
:1058D0000020584908804E485249098800EB810051
:1058E000C07853490988884206DB51480088401C2B
:1058F0004F49088000202BE700204D49088044488C
:105900004949098800EB81008578CDB14648008877
:10591000C0EB00103F4951F8300088B13B48B0F867
:1059200030014149098888420ADC3F480088C0EBC1
:105930000010384951F830203F493B4800889047D3
:105940004FF496713C48FAF728FC00203B49086068
:1059500035480088401C344908802C48B0F8320192
:105960000988884204DA2948B0F830012E490880B5
:10597000002400BF26482C49098830F82100C0EBDC
:105980000010244901EBC0004430075D2048264A3E
:10599000128830F82200C0EB00100A4602EBC0006B
:1059A0004430015D1C48FCF784FD19481E4A1288EA
:1059B00030F82200C0EB0010164A00E01FE002EBB6
:1059C000C0004430015D1548FCF773FD00BF402165
:1059D0001148FCF7A1FC0028F9D00D4812490988AC
:1059E00030F82100C0EB00100A4901EBC000443040
:1059F000005D0D2800D101E0641CBBE700BF012061
:105A0000A6E60000B2000020B40000209C11002097
:105A1000D01200201C6E00080044004000380140F5
:105A2000A4000020AE000020B000002024000020D0
:105A3000AA000020A8000020E40A0020080000209E
:105A40000D0A4F424420696E2066617374206D6FA9
:105A500064652B2B0D0A000070B504460D460CA1A1
:105A60002846FAF7B4FB06460F212846FDF770FBDF
:105A7000002800DB2EB900222946A0B2FDF7F0FD78
:105A800004E00122311DA0B2FDF7EAFD70BD000067
:105A9000343131430000000070B504460D460CA1BE
:105AA0002846FAF794FB06460F212846FDF750FBDF
:105AB000002800DB2EB900222946A0B2FDF7D0FD58
:105AC00004E00122311DA0B2FDF7CAFD70BD000047
:105AD000343131330000000070B504460D460CA18E
