:020000040800F2
:100000000042002045010008B90E0008710E0008EA
:10001000990E0008B50200088524000800000000C1
:10002000000000000000000000000000DD150008D6
:100030005901000800000000051100085D010008DA
:100040005F0100085F0100085F0100082915000832
:100050005F0100085F010008B905000825060008D7
:100060005F0100084D0600085F0100085F010008FD
:100070005F0100085F0100085F0100085F010008E0
:100080005F0100085F0100085F0100085F010008D0
:10009000852300085F0100085F010008850600084D
:1000A0005F0100085F0100085F0100085F010008B0
:1000B00029170008491700085F0100085F010008C0
:1000C0005F0100085F0100085F0100085F01000890
:1000D0005F010008651D0008E11D0008A51E00085D
:1000E000E5050008691400085F0100085F010008C9
:1000F0005F0100085F0100085F0100085F01000860
:100100005F0100085F0100085F0100085F0100084F
:10011000351C0008D11C00085F0100085F010008C1
:100120005F0100085F0100085F0100085F0100082F
:10013000DFF80CD000F074F80048004701470008D1
:10014000004200200648804706480047FEE7FEE7D9
:10015000FEE7FEE7FEE7FEE7FEE7FEE7FEE7FEE777
:10016000C916000831010008D2B201E000F8012BE5
:10017000491EFBD270470022F6E710B50446084638
:10018000114602462046FFF7EFFF204610BD30B56E
:100190000EE003460A4601E05B1C521C1C781578F1
:1001A000AC4201D1002CF7D115F0FF0F04D0401C58
:1001B0000278002AEDD1002030BD2DE9F05F054620
:1001C000002092469B4688460646814640241DE014
:1001D000284641464746224600F043F8B0EB0A0065
:1001E00052465B4671EB0B0110D31046194622466E
:1001F00000F028F82D1A67EB01084F46224601202F
:10020000002100F01FF817EB00094E41201EA4F159
:100210000104DDDC484631462A464346BDE8F09FEE
:10022000064C074D06E0E06840F0010394E8070043
:1002300098471034AC42F6D3FFF77EFFB0AA00080F
:10024000D0AA0008202A04DB203A00FA02F100209C
:1002500070479140C2F1200320FA03F31943904004
:100260007047202A04DB203A21FA02F0002170476F
:1002700021FA02F3D040C2F120029140084319460E
:10028000704710B5012000F08DFF002000F08AFFBC
:1002900010BD000001460022014A0A441088704740
:1002A000006C00400022024A0244116070470000C6
:1002B000006C004004E003A002F0F4F800BFFEE789
:1002C000F9E700000D0A4552524F525F4255530D57
:1002D0000A000000B1F5007F3AD00FDC202928D0B9
:1002E00006DC01291CD004291DD0082940D11DE0BD
:1002F000402921D0B1F5807F3AD126E0B1F5004FF9
:1003000031D006DCB1F5806F25D0B1F5006F2FD16B
:1003100024E0B1F5803F12D0B1F5003F28D111E0C3
:10032000154A826025E00822C26022E01022C260E5
:100330001FE0082202611CE01022026119E008227D
:10034000426016E01022426013E00422426010E096
:10035000042242600DE0042242600AE00022826131
:100360000422426005E0002282610422426000E033
:1003700000BF00BF704700000101010021B9C26841
:1003800042F02002C26003E0026942F020020261F2
:100390007047000070B504460D460026606928428B
:1003A00071D0B5F5807F5CD010DC082D35D006DC2F
:1003B000012D20D0022D24D0042D77D127E0102D3F
:1003C00031D0202D35D0402D70D138E0B5F5004F1B
:1003D00060D009DCB5F5007F49D0B5F5806F4CD011
:1003E000B5F5006F62D14FE0B5F5803F2DD0B5F582
:1003F000003F5BD12FE0A0682F4900F0D4F80646FB
:1004000056E0E068032100F0CEF8064650E0E068D0
:10041000082100F0C8F806464AE0E068102100F024
:10042000C2F8064644E02069032100F0BCF8064605
:100430003EE02069082100F0B6F8064638E0206961
:10044000102100F0B0F8064632E06068082100F0A4
:10045000AAF806462CE06068102100F0A4F80646D1
:1004600026E0A069012100F09EF8064620E0A06980
:10047000022100F098F806461AE0A069042100F075
:1004800092F8064614E014E0A069702100F08BF8A1
:1004900006460DE0A069772100F085F80646606801
:1004A000042100F080F8064302E0FFE7002600BFC9
:1004B00000E00026304670BD0101010030B5044661
:1004C0000D46134604F5D87000EB0510006800F0E7
:1004D00004001872187A50B904F5D87000EB0510B2
:1004E000006840F2FF7101EA5050186009E004F51D
:1004F000D87000EB051000686FF0604101EAD00091
:10050000586004F5D87000EB0510006800F0020098
:10051000587204F5D87000EB0510406800F00F0029
:10052000987204F5D87000EB05104068000AD87482
:1005300004F5D87000EB05108068D87204F5D87007
:1005400000EB05108068000A187304F5D87000EB02
:1005500005108068000C587304F5D87000EB051086
:100560008068000E987304F5D87000EB0510C06821
:10057000D87304F5D87000EB0510C068000A187431
:1005800004F5D87000EB0510C068000C587404F531
:10059000D87000EB0510C068000E987429462046FC
:1005A000FFF7ECFE30BD024600200A4201D00120D8
:1005B00000E000207047000010B5C82002F050FC99
:1005C000012000F0B3F828B1012000F067F802A084
:1005D00001F068FF10BD00000D0A6B6579300D0A4F
:1005E0000000000010B54FF4006000F09FF840B12B
:1005F0004FF4006000F052F809480068401C0849B8
:1006000008604FF4805000F091F840B14FF48050F2
:1006100000F044F802480068401C0149086010BD21
:100620002800002010B5022000F080F828B1022038
:1006300000F034F801A001F035FF10BD0D0ABDF83F
:10064000C8EBD6D0B6CF310D0A00000010B5082097
:1006500000F06CF828B1082000F020F801A001F0AB
:1006600021FF10BD0D0ABDF8C8EBC0B6D1C0D7B48C
:10067000CCACB1E4BBAFD6D0B6CFA3A1A3A1A3A10C
:100680000D0A000010B54FF4807000F04FF818B15B
:100690004FF4807000F002F810BD000001490860BE
:1006A00070470000140401401CB54FF40030FFF700
:1006B000F5FF4FF40030009000208DF80400082072
:1006C0008DF8050001208DF80600684600F044F81A
:1006D0000321042000F0D4FA0820FFF7DFFF0820F0
:1006E000009000208DF8040010208DF805000120F6
:1006F0008DF80600684600F02FF80B21002000F06E
:10070000BFFA4FF40060FFF7C9FF4FF4006000909C
:1007100000208DF804000C208DF8050001208DF8D4
:100720000600684600F018F81CBD000001460020D5
:100730000022074B1B6803EA0102064BD3F814346E
:100740000B4202D00AB1012000E0002070470000F7
:100750000004014000000140002127498279DAB3FA
:10076000264AD2F8002403689A43244BC3F8002495
:100770001A46D2F8042403689A4301F104031A606C
:10078000027911440A68036842EA03020A601B4ABC
:10079000D2F80824036822EA0302184BC3F808249D
:1007A0001A46D2F80C24036822EA0302144B1A609A
:1007B0004279102A11D1114AD2F8082403681A4349
:1007C0000E4BC3F808241A46D2F80C2403681A43C7
:1007D0000A4BC3F80C240EE007E0074942791144A4
:1007E0000A6803681A430A6005E0027911440A683E
:1007F00003689A430A60704700040140000001400A
:100800000C0401400549096821F01001034A1160F8
:100810001146096801431160704700000020024042
:1008200001460020034A106800F0380008431060B9
:10083000704700000020024008B5012144F27D000D
:1008400000F090FC0121FF4800F06CFC4FF6FF70B7
:10085000ADF8000000208DF8030003208DF80200A1
:100860006946F94800F02CFA6946F84800F028FA81
:100870006946F74800F024FA6946F64800F020FA85
:100880004FF40070ADF8000018208DF8030003202D
:100890008DF802006946EC4800F012FA4FF48060CF
:1008A000ADF8000004208DF803006946E64800F02A
:1008B00007FA0420ADF8000018208DF8030003208B
:1008C0008DF802006946E04800F0FAF90820ADF81A
:1008D000000004208DF803006946DB4800F0F0F9C1
:1008E0004FF40060ADF8000004208DF80300694665
:1008F000D64800F0E5F94FF48060ADF8000018200C
:100900008DF8030003208DF802006946D04800F0FE
:10091000D7F94FF40060ADF8000004208DF8030013
:1009200003208DF802006946C94800F0C9F94FF468
:100930008060ADF8000018208DF8030003208DF8CA
:1009400002006946C14800F0BBF94FF40060ADF801
:10095000000004208DF8030003208DF80200694692
:10096000BA4800F0ADF94FF40060ADF80000102077
:100970008DF8030003208DF802006946B34800F0AB
:100980009FF90122D102B14800F06CFA4FF4805077
:10099000ADF8000010208DF8030003208DF8020050
:1009A0006946AA4800F08CF901221103A74800F01B
:1009B00059FA4FF40050ADF8000010208DF80300F4
:1009C00003208DF802006946A04800F079F9012261
:1009D00020219E4800F046FA4FF40040ADF8000098
:1009E00004208DF8030003208DF802006946974823
:1009F00000F066F94FF40070ADF8000010208DF89B
:100A0000030003208DF802006946904800F058F971
:100A1000012251028D4800F025FA1020ADF80000A7
:100A200014208DF8030003208DF8020069468748E2
:100A300000F046F901221021844800F013FA082042
:100A4000ADF8000010208DF8030003208DF802009F
:100A500069467E4800F034F9002208217B4800F006
:100A600001FA0220ADF8000010208DF803000320E9
:100A70008DF802006946754800F022F90022022133
:100A8000724800F0EFF90120ADF8000010208DF859
:100A9000030003208DF8020069466C4800F010F94D
:100AA00000220121694800F0DDF90120ADF80000C5
:100AB00004208DF8030003208DF802006946624887
:100AC00000F0FEF84FF48040ADF8000010208DF8E3
:100AD000030003208DF8020069465B4800F0F0F83F
:100AE00000224FF48041584800F0BCF92020ADF8B6
:100AF000000048208DF8030003208DF802006946AD
:100B0000524800F0DDF84020ADF8000010208DF8CC
:100B1000030003208DF8020069464C4800F0D0F82D
:100B200000224021494800F09DF94FF48070ADF853
:100B3000000010208DF8030003208DF802006946A4
:100B4000424800F0BDF800224FF480713F4800F0A9
:100B500089F98020ADF8000010208DF803000320F3
:100B60008DF802006946394800F0AAF80022802179
:100B7000364800F077F94FF40050ADF8000004203B
:100B80008DF8030003208DF8020069462E4800F01E
:100B900097F800224FF400512B4800F063F902202F
:100BA000ADF8000010208DF8030003208DF802003E
:100BB0006946254800F084F800220221224800F00E
:100BC00051F91020ADF8000004208DF80300032037
:100BD0008DF8020069461C4800F072F80120ADF85B
:100BE000000004208DF8030003208DF80200694600
:100BF000174800F065F80220ADF8000004208DF8D9
:100C0000030003208DF802006946114800F058F8EF
:100C1000002202210E4800F025F90420ADF8000062
:100C200010208DF8030003208DF802006946084863
:100C300000F046F800220421054800F013F90820CE
:100C40000AE0000002001E1A00080140000C0140EA
:100C50000010014000140140ADF8000010208DF894
:100C6000030003208DF802006946044800F028F8CC
:100C700000220821014800F0F5F808BD00100140ED
:100C800030B500228B071C0F0F2303FA04F20B4B25
:100C90008C1053F824309343084C8D1044F82530C1
:100CA00023468C1053F824308C07240F00FA04F4E8
:100CB0002343024C8D1044F8253030BD080001401C
:100CC0002DE9F041024600250026002000230024E3
:100CD000002791F803C00CF00F0591F803C01CF039
:100CE000100F03D091F802C04CEA0505B1F800C01E
:100CF0001CF0FF0F31D0146800202BE04FF0010CE6
:100D00000CFA00F3B1F800C00CEA03069E4220D1B1
:100D100083004FF00F0C0CFA03F7BC4305FA03FCF9
:100D20004CEA040491F803C0BCF1280F06D14FF03F
:100D3000010C0CFA00FCC2F814C00AE091F803C0E0
:100D4000BCF1480F05D14FF0010C0CFA00FCC2F8C1
:100D500010C0401C0828D1D31460B1F800C0BCF109
:100D6000FF0F34DD546800202EE000F1080C4FF036
:100D7000010808FA0CF3B1F800C00CEA03069E4221
:100D800021D183004FF00F0C0CFA03F7BC4305FA96
:100D900003FC4CEA040491F803C0BCF1280F05D110
:100DA00000F1080C08FA0CF8C2F8148091F803C09E
:100DB000BCF1480F07D100F1080C4FF0010808FA08
:100DC0000CF8C2F81080401C0828CED35460BDE84F
:100DD000F0810000F0B50A46002300240021002520
:100DE00000F00046B6F1004F02D11D4EF16901E05E
:100DF0001B4E7168C0F3034583B200F44016B6F58C
:100E0000401F08D121F07061154E766826F070669B
:100E1000134F7E6012E000F48016B6F5801F06D1F5
:100E2000032606FA05F4A14341F0706106E0460D81
:100E3000360103FA06F6B14341F0706122B1460D66
:100E4000360103FA06F6314300F00046B6F1004FD2
:100E500002D1034EF16101E0014E7160F0BD00006E
:100E6000000001400AB1016100E0416170470000EB
:100E700004E003A001F016FB00BFFEE7F9E7000065
:100E80000D0A4552524F525F484152445F46415508
:100E90004C540D0A0000000004E003A001F002FB26
:100EA00000BFFEE7F9E700000D0A4552524F525FBE
:100EB0004D454D0D0A00000002A001F0F3FA00BFFD
:100EC000FEE700000D0A4552524F525F4E4D490D4C
:100ED0000A00000008B54FF4E06000F003F9252097
:100EE0008DF8000002208DF8010000208DF802002E
:100EF00001208DF80300684600F0B2F84FF4E0607E
:100F000000F0F0F826208DF8000000208DF8010098
:100F10008DF8020001208DF80300684600F0A0F86B
:100F20004FF4E06000F0DEF827208DF8000001208B
:100F30008DF8010000208DF8020001208DF80300DB
:100F4000684600F08DF84FF4E06000F0CBF83420F4
:100F50008DF8000001208DF8010000208DF80200BE
:100F600001208DF80300684600F07AF84FF4E06045
:100F700000F0B8F835208DF8000001208DF8010050
:100F800000208DF8020001208DF80300684600F073
:100F900067F84FF4C06000F0A5F806208DF8000057
:100FA00000208DF801008DF802008DF803006846DE
:100FB00000F056F84FF4C06000F094F828208DF847
:100FC000000000208DF801008DF802008DF803006C
:100FD000684600F045F84FF4C06000F083F809203F
:100FE0008DF8000000208DF801008DF802008DF8CA
:100FF0000300684600F034F84FF4A06000F072F887
:101000001C208DF8000000208DF801008DF80200F2
:1010100001208DF80300684600F022F84FF4A0602C
:1010200000F060F81D208DF8000000208DF8010010
:101030008DF8020001208DF80300684600F010F8DA
:1010400028208DF8000005208DF801008DF80200A1
:1010500001208DF80300684600F002F808BD00008A
:1010600070B5002100230F22C4784CB31A4C2468B9
:1010700004F4E064C4F5E0644FEA1421C1F1040310
:1010800022FA01F2447804FA03F1847804EA0204B3
:1010900044EA01014FEA0111104C0678A155047889
:1010A00004F01F054FF0010404FA05F405784FEA37
:1010B00065154FF0E02606EB8505C5F8004109E00F
:1010C000047804F01F050124AC40054D0678761124
:1010D00045F8264070BD00000CED00E000E400E0A3
:1010E00080E100E002490143024A116070470000BC
:1010F0000000FA050CED00E00149086270470000AD
:1011000000000E4202A001F0CDF900BFFEE7000092
:101110000D0A4552524F525F50454E4453560D0AE8
:101120000000000029B1064AD2690243044BDA618B
:1011300004E0034AD2698243014BDA617047000040
:101140000010024029B1064A12690243044B1A6199
:1011500004E0034A12698243014B1A6170470000A0
:101160000010024029B1064A92690243044B9A6179
:1011700004E0034A92698243014B9A617047000080
:101180000010024029B1064AD2680243044BDA60DB
:1011900004E0034AD2688243014BDA6070470000E2
:1011A00000100240014908607047000040044242BC
:1011B0000348406A40F0807001494862704700006F
:1011C0000010024010B500F03BF8012000F0FAF8E2
:1011D00000BF212000F0C4F80028FAD01020FFF74B
:1011E00011FB0220FFF71CFB002000F0DFF80020BD
:1011F00000F000F9002000F0F1F84FF46011002039
:1012000000F00AF9012000F001F900BF392000F0D8
:10121000A7F80028FAD0022000F01AF900BF00F069
:10122000BDF80828FBD1012144F27D00FFF79AFFA9
:1012300001210248FFF776FF10BD000003001E1ACF
:101240000F48006840F001000D49086008464068FA
:101250000C4908400A494860084600680A490840A5
:10126000074908600846006820F4802008600846A6
:10127000406820F4FE0048604FF41F00886070470B
:10128000001002400000FFF8FFFFF6FE30B500211D
:101290000022002400232D4D6D6805F00C0121B1C2
:1012A000042905D0082923D105E0294D056022E055
:1012B000274D05601FE0254D6D6805F47012234D24
:1012C0006D6805F48034022505EB92421CB9214D6E
:1012D000554305600BE01D4D6D6815F4003F03D0CC
:1012E0001C4D5543056002E0194D5543056002E071
:1012F000174D056000BF00BF144D6D6805F0F0018B
:101300000909154D6B5C0568DD4045600F4D6D6842
:1013100005F4E061090A104D6B5C4568DD408560AD
:101320000A4D6D6805F46051C90A0B4D6B5C456848
:10133000DD40C560054D6D6805F44041890B074DE2
:101340006B5CC568B5FBF3F5056130BD001002406C
:1013500000127A0000093D005000002060000020CB
:1013600010B501460022002300204A11012A02D1B3
:10137000094C236806E0022A02D1074C236A01E0E7
:10138000054C636A01F01F02012494401C4201D005
:10139000012000E0002010BD00100240024840681B
:1013A00000F00C00704700000010024001460020D1
:1013B000034A506820F0F000084350607047000076
:1013C00000100240014908607047000000004242DE
:1013D0000149086070470000800442420146002035
:1013E000034A506820F4E0600843506070470000F2
:1013F0000010024001460020034A506820F460506B
:1014000040EAC10050607047001002400149086680
:10141000704700000000424202460020044B58681A
:1014200020F47C1042EA01031843014B58607047D6
:101430000010024001490860704700003C0442422D
:101440000249096A0143014A1162704700100240D3
:1014500001460020034A506820F003000843506012
:10146000704700000010024010B5022000F046F85E
:1014700050B14FF40030FFF711F900F091F802205D
:1014800000F004F800F08CF810BD00000549098850
:101490006FEA000292B201EA0201034AA2F80418BC
:1014A00070470000042800400020004003480088E6
:1014B00040F010000249A1F80408704704280040D9
:1014C00000200040044800884FF6EF7100EA010058
:1014D0000249A1F804087047042800400020004099
:1014E0000021044801880448B0F8180841EA004087
:1014F000704700001C2800400020004001460020EA
:10150000074A128802EA0102D0B2064AB2F800285D
:101510000A4202D008B1012000E00020704700001C
:10152000042800400020004010B50120FFF7E6FF2E
:1015300070B10120FFF7AAFF00F032F8FFF7D0FFEB
:101540000449884204D1002000F006F800F028F891
:1015500010BD00008051010000B50246FFF7A6FF54
:10156000100C044908800449A1F81C28FFF7AAFFC1
:1015700000BD0000182800400020004000B50246D1
:10158000FFF794FFC2F30340034908800349A1F821
:101590000C28FFF797FF00BD0828004000200040FE
:1015A00000BF0348008810F0200FFAD070470000F9
:1015B00004280040074800884FF6F77100EA010050
:1015C0000549A1F8040800BF0248008810F0080F80
:1015D000FAD07047042800400020004002A000F02C
:1015E00061FF00BFFEE700000D0A4552524F525FF7
:1015F0005356430D0A00000010B500F001F810BD6D
:10160000002100202E4A126842F480322C4B1A60CE
:1016100000BF2B4A126802F40030491C10B9B1F522
:10162000A06FF6D1264A126812F4003F01D00120C3
:1016300000E00020012842D1224A126842F0100244
:10164000204B1A601A46126822F003021A601A46EA
:10165000126842F002021A60194A5268184B5A6026
:101660001A4652685A601A46526842F480625A60BA
:101670001A46526822F47C125A601A46526842F4A2
:10168000E8125A601A46126842F080721A6000BF6F
:101690000B4A126812F0007FFAD0094A526822F011
:1016A0000302074B5A601A46526842F002025A601F
:1016B00000BF034A526802F00C02082AF9D17047B1
:1016C000001002400020024010B51348006840F0AE
:1016D00001001149086008464068104908400E4959
:1016E0004860084600680E4908400B4908600846F3
:1016F000006820F4802008600846406820F4FE005E
:1017000048604FF41F008860FFF776FF4FF00060DD
:101710000449086010BD0000001002400000FFF8FE
:10172000FFFFF6FE08ED00E010B50121880700F08C
:10173000FAF938B10121880700F086F84FF6FA70FF
:101740004107888410BD000010B50121314800F028
:10175000EAF9E8B301212F4800F076F82E48006836
:1017600008B104F0D5F92D480068032807D10021FD
:101770004FF0804000F009FA00202949086027480E
:101780000068032812DD4FF0804000F0C9F92449B9
:10179000086008460068B0F5FA6F01DD012000E03E
:1017A00000202049086000201C4908601B48006890
:1017B000401C1A4908601C480068B0B90122110396
:1017C0001A48FFF74FFB00224FF40051174800E082
:1017D0001EE0FFF747FB00224FF480411348FFF75C
:1017E00041FB01201049086012E000224FF48051B3
:1017F0000E48FFF737FB012251030C48FFF732FB7D
:10180000012291030948FFF72DFB002006490860DB
:1018100010BD000000040040300000204C000020FB
:10182000280000202C00002048000020000C01406F
:1018300021B1028842F08002028004E002884FF663
:101840007F731A4002807047CA430282704721B1F9
:10185000028842F00102028004E002884FF6FE7323
:101860001A400280704700000EB54FF0804000F033
:1018700047F84FF6FF70ADF804000420ADF8000003
:10188000C001ADF806000020ADF8020069464FF037
:10189000804000F07DF970214FF0804000F060F949
:1018A00000231A4619464FF0804000F01DF901212F
:1018B0008807FFF7CCFF42F21070ADF804004FF438
:1018C000E150ADF800000020ADF80600ADF80200D0
:1018D00069460A4800F05CF901210848FFF7A8FFB3
:1018E00001210648FFF7B0FF01221146034800F02E
:1018F0002BF901210148FFF7AAFF0EBD00040040AB
:1019000010B504466848844208D10121C014FFF78D
:1019100039FC0021E014FFF735FCC4E0B4F1804F3E
:1019200008D101210846FFF70DFC00210120FFF737
:1019300009FCB8E05D48844208D101210220FFF78C
:1019400001FC00210220FFF7FDFBACE05848844277
:1019500008D101210420FFF7F5FB00210420FFF747
:10196000F1FBA0E05348844208D101210820FFF791
:10197000E9FB00210820FFF7E5FB94E04E48844294
:1019800008D101211020FFF7DDFB00211020FFF717
:10199000D9FB88E04948844208D101212020FFF783
:1019A000D1FB00212020FFF7CDFB7CE0444884429E
:1019B00008D101214014FFF7E5FB00216014FFF777
:1019C000E1FB70E03F48844209D10121C804FFF7E0
:1019D000D9FB00214FF40020FFF7D4FB63E03A4825
:1019E000844209D101210805FFF7CCFB00214FF407
:1019F0008010FFF7C7FB56E03448844209D101212B
:101A00004805FFF7BFFB00214FF40010FFF7BAFBBA
:101A100049E02F48844208D101214020FFF792FB82
:101A200000214020FFF78EFB3DE02A48844208D188
:101A300001218020FFF786FB00218020FFF782FB39
:101A400031E02548844208D101218015FFF77AFB57
:101A50000021A015FFF776FB25E02048844209D13C
:101A600001210804FFF78EFB00214FF48030FFF7BF
:101A700089FB18E01A48844209D101214804FFF784
:101A800081FB00214FF40030FFF77CFB0BE0154891
:101A9000844208D101218804FFF774FB00214FF430
:101AA0008020FFF76FFB10BD002C014000040040B8
:101AB00000080040000C00400010004000140040EE
:101AC00000340140004C01400050014000540140EE
:101AD00000180040001C0040002000400040014071
:101AE0000044014000480140F0B504460D4616464A
:101AF0001F463B4632462946204600F005F820891D
:101B000040F480402081F0BD30B50C4600210189B1
:101B1000C9B21D0642EA154525432943018130BD5E
:101B20000146888C704730B502460020002300240F
:101B3000158A05EA0103958905EA010413B10CB180
:101B4000012000E0002030BD10B51AB183890B439D
:101B5000838104E08389CC43A4B22340838110BDF8
:101B600030B504460D462946204600F005F8208988
:101B700040F00700208130BD0A46002101894FF660
:101B80008F731940114301817047818470470000B1
:101B9000002202881D4B98420ED01D4B98420BD05C
:101BA000B0F1804F08D01B4B984205D01A4B984299
:101BB00002D01A4B984204D14FF68F731A404B88CB
:101BC0001A43174B984207D0164B984204D04FF651
:101BD000FF431A40CB881A4302808B8883850B8889
:101BE00003850A4B98420BD0094B984208D00E4B04
:101BF000984205D00D4B984202D00D4B984201D12E
:101C00000B7A03860123838270470000002C014079
:101C1000003401400004004000080040000C004077
:101C2000001000400014004000400140004401400A
:101C30000048014010B508211E4800F0D1FA30B12B
:101C400008211C4800F062F91A4800F091FB40F2AC
:101C50002551184800F0D1FA30B3164800F088FB3F
:101C6000C4B2154801680068401C134A106013484C
:101C7000445400201149126888540F480068B0F598
:101C8000967F02D900200C4908600D48006804289E
:101C900003D121460B4800F070FB0B48006818B1D7
:101CA00021460A4800F069FB2021024800F02EF985
:101CB00010BD0000004C00400C000020100C002063
:101CC00014000020003801402000002000440040A3
:101CD00010B508211E4800F083FA30B108211C48D5
:101CE00000F014F91A4800F043FB40F2255118485F
:101CF00000F083FA38B3164800F03AFBC4B2154836
:101D0000006802280AD12146134800F036FB00BFC4
:101D10004021114800F064FA0028F9D00F4801680A
:101D20000068401C0D4A10600D48445400200C49C6
:101D3000126888540948006840F21451884202D958
:101D40000020064908602021014800F0DFF810BD9E
:101D50000050004014000020003801400400002022
:101D6000D005002010B50821194800F039FA30B12B
:101D70000821174800F0CAF8154800F0F9FA40F2B7
:101D80002551134800F039FAE0B1114800F0F0FA9B
:101D900010490870084601780F4802680068401C26
:101DA0000D4B18600D48815400200C491A461268EA
:101DB00088541846006840F21451884202D9002025
:101DC000194608602021024800F0A0F810BD00006C
:101DD000003801404000002000000020BC0000202E
:101DE00010B50821274800F0FBF930B1082125483B
:101DF00000F08CF8234800F0BBFA40F2255121484E
:101E000000F0FBF9E8B31F4800F0B2FA1E49087071
:101E10001E48006803280BD1084601781C4800F0D2
:101E2000ACFA00BF40211A4800F0DAF90028F9D0D6
:101E300015480178174802680068401C154B186067
:101E40001548815400211A461268815418460068CA
:101E5000B0F5967F02D90020194608600F48006847
:101E600058B1094801780E4800F087FA00BF4021B8
:101E7000074800F0B5F90028F9D02021014800F00A
:101E800045F810BD0044004041000020140000202F
:101E90000038014008000020E40A00202000002053
:101EA000004C004010B50821154800F099F930B1F8
:101EB0000821134800F02AF8114800F059FA40F2BE
:101EC00025510F4800F099F9A8B10D4800F050FADB
:101ED000C4B2204601F0C2FC0A48006805280AD1B5
:101EE0002146094800F049FA00BF4021064800F0A9
:101EF00077F90028F9D02021014800F007F810BD3B
:101F000000480040140000200038014001F4007235
:101F1000B2F5007F00D100BFCA430280704721B1F3
:101F2000828942F40052828104E082894DF6FF7377
:101F30001A4082817047000000B585B0012144F24B
:101F40000400FFF70FF94FF40070ADF810001820EF
:101F50008DF8130003208DF8120004A99748FEF7AE
:101F6000AFFE4FF48060ADF8100004208DF8130030
:101F700003208DF8120004A99048FEF7A1FE4FF44B
:101F80007A3000900020ADF80400ADF80600ADF8FE
:101F90000800ADF80C000C20ADF80A00694688482E
:101FA00000F07AF9012240F22551854800F04FF9FE
:101FB00001218348FFF7B3FF01214804FFF7B2F87E
:101FC00001210420FFF7CEF80420ADF810001820FE
:101FD0008DF8130003208DF8120004A97748FEF74E
:101FE0006FFE0820ADF8100004208DF813000320C8
:101FF0008DF8120004A97148FEF762FE4FF41640F6
:1020000000900020ADF80400ADF80600ADF808001F
:10201000ADF80C000C20ADF80A006946694800F0E4
:102020003BF9012240F22551664800F010F90121E8
:102030006448FFF774FF01218804FFF773F801215A
:102040000820FFF78FF84FF48060ADF810001820DB
:102050008DF8130003208DF8120004A95A48FEF7EA
:102060002FFE4FF40060ADF8100004208DF813002F
:1020700003208DF8120004A95348FEF721FE4FF407
:10208000164000900020ADF80400ADF80600ADF851
:102090000800ADF80C000C20ADF80A0069464B486A
:1020A00000F0FAF8012240F22551484800F0CFF83C
:1020B00001214648FFF733FF0121C804FFF732F83A
:1020C00001211020FFF74EF84FF48060ADF81000AA
:1020D00018208DF8130003208DF8120004A93C4845
:1020E000FEF7EEFD4FF40060ADF8100004208DF80F
:1020F000130003208DF8120004A93548FEF7E0FD17
:102100004FF4164000900020ADF80400ADF8060032
:10211000ADF80800ADF80C000C20ADF80A006946D7
:102120002C4800F0B9F8012240F22551294800F06E
:102130008EF801212748FFF7F2FE01210805FEF77E
:10214000F1FF01213020FFF70DF84FF48050ADF87A
:10215000100018208DF8130003208DF8120004A938
:102160001B48FEF7ADFD0420ADF810008DF81300FC
:1021700003208DF8120004A91748FEF7A1FD4FF4C3
:10218000E13000900020ADF80400ADF80600ADF895
:102190000800ADF80C000C20ADF80A0069460F48A5
:1021A00000F07AF8012240F225510C4800F04FF877
:1021B00001210A48FFF7B3FE05B000BD0008014049
:1021C0000038014000440040000C0140004800403D
:1021D00000100140004C004000140140005000403D
:1021E00002460020B1F5007F00D100BF13880B42EA
:1021F00001D0012000E00020704770B502460024A5
:10220000002300250020A1F510666A3E00D100BF22
:10221000C1F3421501F01F03012606FA03F3012D55
:1022200002D19689334006E0022D02D1168A33404E
:1022300001E0968A33400C12012606FA04F416884F
:10224000344013B10CB1012000E0002070BDF0B5A6
:1022500003460024002600250020A1F510676A3FF0
:1022600000D100BF1846C1F3421401F01F06012738
:1022700007FA06F5012C01D10C3004E0022C01D143
:10228000103000E014301AB107682F43076002E0F5
:102290000768AF430760F0BD2DE9F04786B00546FB
:1022A0000E460024A24600BFA1460027B08900B117
:1022B00000BF2F462C8A4CF6FF700440F088044380
:1022C0002C82AC894EF6F3100440B0883189084363
:1022D000718908430443AC81AC8A4FF6FF40044047
:1022E000B0890443AC8201A8FEF7D0FF1F488742A3
:1022F00002D1DDF810A001E0DDF80CA0A88910F4EF
:10230000004F08D00AEBCA0000EB0A103168490000
:10231000B0FBF1F807E00AEBCA0000EB0A103168E5
:102320008900B0FBF1F86420B8FBF0F0040120094B
:10233000642101FB1089A88910F4004F08D03220D5
:1023400000EBC900B0FBF1F000F00700044308E027
:10235000322000EB09106421B0FBF1F000F00F0017
:1023600004432C8106B0BDE8F0870000003801402E
:1023700001468888C0F308007047C1F308028280D4
:102380007047000000B585B0002201212848FEF703
:1023900069FD08212748FDF7FDFF60B126A000F088
:1023A00081F86A4600212348FEF788F80821214871
:1023B000FDF790FF00BF40211E48FDF7EBFF60B125
:1023C00022A000F06FF86A4601211A48FEF776F85D
:1023D00040211848FDF77EFF00BF02211548FDF798
:1023E000D9FF60B16A4600211248FEF767F81CA0C9
:1023F00000F058F802210F48FDF76CFF00BF1021D4
:102400000C48FDF7C7FF60B119A000F04BF86A4611
:1024100001210848FEF752F810210648FDF75AFF3F
:1024200000BF012211460248FEF71CFD05B000BDA9
:10243000000C0140006400400D0A43414E206572CB
:10244000726F723121210D0A000000000D0A434114
:102450004E206572726F723221210D0A0000000059
:102460000D0A43414E206F6B21210D0A0000000030
:102470000D0A43414E206572726F723321210D0A9D
:102480000000000004E003A000F00CF800BFFEE72D
:10249000F9E700000D0A4552524F525F555341472C
:1024A000450D0A000FB4054B10B503A9044A029864
:1024B00000F018F810BC5DF814FB00006133000850
:1024C000B800002002E008C8121F08C1002AFAD193
:1024D00070477047002001E001C1121F002AFBD1A4
:1024E000704700002DE9FF4F8DB005460F460026CE
:1024F000EEE1252879D100246D1CF94AA246A146B7
:1025000001212B78203B01FA03F0104202D0044352
:102510006D1CF6E728782A2810D06FF02F02287853
:10252000A0F13001092915D80AEB8A0102EB41011B
:1025300044F0020400EB010A6D1CF0E757F804AB0D
:10254000BAF1000F03DA44F40054CAF1000A44F06F
:1025500002046D1C28782E2817D115F8010F44F0BD
:1025600004042A280ED06FF02F022878A0F1300141
:1025700009290AD809EB890102EB410100EB0109A5
:102580006D1CF2E757F8049B6D1C28786C280FD05F
:1025900006DC4C2817D068280DD06A2814D104E036
:1025A000742810D07A280FD10DE044F400140AE00A
:1025B00044F4801401E044F440146978814202D16B
:1025C0006D1C04F580146D1C95F800C0BCF16E0FF5
:1025D0002AD012DCBCF1630F3CD007DCBCF1000F49
:1025E00076D0BCF1580F19D1ACE018E0BCF1640F03
:1025F0006FD0BCF1690F11D16BE0BCF1730F32D019
:1026000006DCBCF16F0F71D0BCF1700F06D19BE0FE
:10261000BCF1750F6BD0BCF1780F69D06046DDE975
:102620000F129047761C52E1C4F30250022806D0E4
:1026300003280AD0042801CF0AD0066047E101CF61
:102640004FEAE671C0E9006141E101CF06803EE159
:1026500006703CE101CF8DF8000000208DF80100EC
:10266000EB46012003E057F804BB4FF0FF30610751
:102670004FF0000102D40DE008F101018846494500
:102680000FDA8045F8DB1BF808100029F4D108E0C8
:1026900008F1010188468142FADB1BF80810002985
:1026A000F6D1DDE90F23AAEB08008146214600F0B0
:1026B00040F9304400EB080604E0DDE90F121BF896
:1026C000010B9047B8F10108F7D221464846F9E0DE
:1026D00002E10A20C4F302524FF0000B0890022AD4
:1026E00007D001CFC117032A09D00AE035E022E064
:1026F00023E0FF1D27F00707F7E8020105E000B21D
:10270000C117042A01D140B2C117002906DA0023FB
:10271000D0EB030063EB01012D2202E0220504D57A
:102720002B228DF82420012203E0E20701D0202291
:10273000F7E7904653E00A2110E010204FF0000B1D
:1027400008900EE0102109E010214FF0000B44F03A
:1027500004044FF00809089103E008214FF0000B32
:102760000891C4F30252022A04D001CF0021032AA7
:1027700006D007E0FF1D27F00707F7E8020105E094
:1027800080B20021042A01D1C0B200214FF000081C
:10279000220724D5BCF1700F2AD0089B83F01003C8
:1027A00053EA0B0309D150EA010206D030228DF81A
:1027B00024208DF825C002229046089B83F0080350
:1027C00053EA0B030BD150EA010201D1620706D58F
:1027D00030228DF824204FF00108A9F1010941A20F
:1027E000BCF1580F00D044A20B9208AA0A920FE045
:1027F00040228DF824200122DEE75B46089AFDF78F
:10280000DCFC0B9B9B5C0A9AA2F101020A921370FA
:1028100050EA0102F1D10A98ADEB000000F1200B63
:10282000600702D524F4803401E04FF00109002054
:1028300049465A46D94501DDA1EB020000EB0B01E8
:1028400041440890AAEB01000B90E00306D4DDE9B7
:102850000F2321460B9800F06CF806444FF0000956
:102860000DF1240A07E0DDE90F121AF8090090477C
:10287000761C09F10109C145F5DBE0030CD5DDE962
:102880000F2321460B9800F054F8064404E0DDE9DC
:102890000F1230209047761C0899481E0890002996
:1028A000F5DC08E00A980A990078491C0A91DDE9EC
:1028B0000F129047761CBBF10001ABF1010BF1DC6C
:1028C0000B982146DDE90F2300F020F806446D1C2B
:1028D000287800287FF40DAE11B03046BDE8F08FA7
:1028E0000928010030313233343536373839414226
:1028F000434445460000000030313233343536372A
:102900003839616263646566000000002DE9F041BA
:102910000446002517461E46880405D406E03946BD
:102920002020B04705F10105641EF8D52846BDE812
:10293000F0812DE9F04104460025302790461E46DF
:10294000C80300D42027880405D506E04146384650
:10295000B04705F10105641EF8D52846BDE8F081B1
:1029600070B504460D460CA12846FDF710FC06463E
:102970000F21284600F0B4F9002800DB2EB9002210
:102980002946A0B200F01AFC04E00122311DA0B2D9
:1029900000F014FC70BD000034313533000000003D
:1029A00070B504460D460CA12846FDF7F0FB06461F
:1029B0000F21284600F094F9002800DB2EB90022F0
:1029C0002946A0B200F0FAFB04E00122311DA0B2BA
:1029D00000F0F4FB70BD000034313433000000001F
:1029E00070B504460D460CA12846FDF7D0FB0646FF
:1029F0000F21284600F074F9002800DB2EB90022D0
:102A00002946A0B200F0DAFB04E00122311DA0B299
:102A100000F0D4FB70BD00003431343700000000FA
:102A200070B504460D460CA12846FDF7B0FB0646DE
:102A30000F21284600F054F9002800DB2EB90022AF
:102A40002946A0B200F0BAFB04E00122311DA0B279
:102A500000F0B4FB70BD00003431343800000000D9
:102A600070B504460D460CA12846FDF790FB0646BE
:102A70000F21284600F034F9002800DB2EB900228F
:102A80002946A0B200F09AFB04E00122311DA0B259
:102A900000F094FB70BD00003431343900000000B8
:102AA00070B504460D460CA12846FDF770FB06469E
:102AB0000F21284600F014F9002800DB2EB900226F
:102AC0002946A0B200F07AFB04E00122311DA0B239
:102AD00000F074FB70BD0000343134410000000090
:102AE00070B504460D460CA12846FDF750FB06467E
:102AF0000F21284600F0F4F8002800DB2EB9002250
:102B00002946A0B200F05AFB04E00122311DA0B218
:102B100000F054FB70BD000034313442000000006E
:102B200070B504460D460CA12846FDF730FB06465D
:102B30000F21284600F0D4F8002800DB2EB900222F
:102B40002946A0B200F03AFB04E00122311DA0B2F8
:102B500000F034FB70BD0000343131300000000063
:102B600070B504460D460CA12846FDF710FB06463D
:102B70000F21284600F0B4F8002800DB2EB900220F
:102B80002946A0B200F01AFB04E00122311DA0B2D8
:102B900000F014FB70BD000034313436000000003A
:102BA00070B504460D460CA12846FDF7F0FA06461E
:102BB0000F21284600F094F8002800DB2EB90022EF
:102BC0002946A0B200F0FAFA04E00122311DA0B2B9
:102BD00000F0F4FA70BD000034313333000000001F
:102BE00070B504460D460CA12846FDF7D0FA0646FE
:102BF0000F21284600F074F8002800DB2EB90022CF
:102C00002946A0B200F0DAFA04E00122311DA0B298
:102C100000F0D4FA70BD00003431334300000000EE
:102C200070B504460D460CA12846FDF7B0FA0646DD
:102C30000F21284600F054F8002800DB2EB90022AE
:102C40002946A0B200F0BAFA04E00122311DA0B278
:102C500000F0B4FA70BD00003431334400000000CD
:102C600070B504460D460CA12846FDF790FA0646BD
:102C70000F21284600F034F8002800DB2EB900228E
:102C80002946A0B200F09AFA04E00122311DA0B258
:102C900000F094FA70BD00003431334500000000AC
:102CA00070B504460D460CA12846FDF770FA06469D
:102CB0000F21284600F014F8002800DB2EB900226E
:102CC0002946A0B200F07AFA04E00122311DA0B238
:102CD00000F074FA70BD000034313346000000008B
:102CE00070B505460C4614F0080F07D015A128460C
:102CF000FDF74DFA10B14FF0FF3070BD14F0020F28
:102D000007D012A12846FDF742FA10B16FF001007A
:102D1000F3E714F0040F07D00EA12846FDF737FAA9
:102D200010B16FF00200E8E714F0010F07D00BA11B
:102D30002846FDF72CFA10B94FF0FF30DDE70120EF
:102D4000DBE7000044415441000000004E4543547D
:102D500000000000524348494E4700003E0000007A
:102D600070B504460D460CA12846FDF710FA06463C
:102D70000F212846FFF7B4FF002800DB2EB9002200
:102D80002946A0B200F01AFA04E00122311DA0B2D7
:102D900000F014FA70BD000034313331000000003F
:102DA00070B504460D460CA12846FDF7F0F906461D
:102DB0000F212846FFF794FF002800DB2EB90022E0
:102DC0002946A0B200F0FAF904E00122311DA0B2B8
:102DD00000F0F4F970BD000034313445000000000B
:102DE00070B504460D460CA12846FDF7D0F90646FD
:102DF0000F212846FFF774FF002800DB2EB90022C0
:102E00002946A0B200F0DAF904E00122311DA0B297
:102E100000F0D4F970BD00003431324300000000EE
:102E200070B504460D460CA12846FDF7B0F90646DC
:102E30000F212846FFF754FF002800DB2EB900229F
:102E40002946A0B200F0BAF904E00122311DA0B277
:102E500000F0B4F970BD00003431303500000000DE
:102E6000002107E0002200E0521C42F228339A427F
:102E7000FAD3491C8142F5D37047000070B504466F
:102E80000D460CA12846FDF782F906460F2128467B
:102E9000FFF726FF002800DB2EB900222946A0B24A
:102EA00000F08CF904E00122311DA0B200F086F997
:102EB00070BD0000343134320000000070B50446AB
:102EC0000D460CA12846FDF762F906460F2128465B
:102ED000FFF706FF002800DB2EB900222946A0B22A
:102EE00000F06CF904E00122311DA0B200F066F997
:102EF00070BD0000343132440000000070B504465B
:102F00000D460CA12846FDF742F906460F2128463A
:102F1000FFF7E6FE002800DB2EB900222946A0B20A
:102F200000F04CF904E00122311DA0B200F046F996
:102F300070BD0000343135460000000070B5044615
:102F40000D460CA12846FDF722F906460F2128461A
:102F5000FFF7C6FE002800DB2EB900222946A0B2EA
:102F600000F02CF904E00122311DA0B200F026F996
:102F700070BD0000343130340000000070B50446EC
:102F80000D460CA12846FDF702F906460F212846FA
:102F9000FFF7A6FE002800DB2EB900222946A0B2CA
:102FA00000F00CF904E00122311DA0B200F006F996
:102FB00070BD0000343135430000000070B5044698
:102FC0000D460CA12846FDF7E2F806460F212846DB
:102FD000FFF786FE002800DB2EB900222946A0B2AA
:102FE00000F0ECF804E00122311DA0B200F0E6F898
:102FF00070BD0000343130430000000070B504465D
:103000000D460CA12846FDF7C2F806460F212846BA
:10301000FFF766FE002800DB2EB900222946A0B289
:1030200000F0CCF804E00122311DA0B200F0C6F897
:1030300070BD0000343131460000000070B5044618
:103040000D460CA12846FDF7A2F806460F2128469A
:10305000FFF746FE002800DB2EB900222946A0B269
:1030600000F0ACF804E00122311DA0B200F0A6F897
:1030700070BD0000343134340000000070B50446E7
:103080000D460CA12846FDF782F806460F2128467A
:10309000FFF726FE002800DB2EB900222946A0B249
:1030A00000F08CF804E00122311DA0B200F086F897
:1030B00070BD0000343132450000000070B5044698
:1030C0000D460CA12846FDF762F806460F2128465A
:1030D000FFF706FE002800DB2EB900222946A0B229
:1030E00000F06CF804E00122311DA0B200F066F897
:1030F00070BD0000343135340000000070B5044666
:103100000D460CA12846FDF742F806460F21284639
:10311000FFF7E6FD002800DB2EB900222946A0B209
:1031200000F04CF804E00122311DA0B200F046F896
:1031300070BD0000343133320000000070B5044629
:103140000D460CA12846FDF722F806460F21284619
:10315000FFF7C6FD002800DB2EB900222946A0B2E9
:1031600000F02CF804E00122311DA0B200F026F896
:1031700070BD0000343134460000000070B50446D4
:103180000D460CA12846FDF702F806460F212846F9
:10319000FFF7A6FD002800DB2EB900222946A0B2C9
:1031A00000F00CF804E00122311DA0B200F006F896
:1031B00070BD000034313530000000002DE9F047CB
:1031C00006460F4691460024A046464800EB86007E
:1031D0008578314644A0FFF765F9C6EB0610484AEA
:1031E00002EBC000011D47A0FFF75CF9C6EB06101B
:1031F000434A02EBC00000F1440146A0FFF752F938
:1032000015B928B2BDE8F0874548006888BB444836
:103210000168304600F0F0F980464B4642462946A8
:1032200040A0FFF73FF9002405E0395D49A0FFF712
:1032300039F9601C84B2AC42F7DBB9F1000F0BD056
:10324000002406E0395D08EB040243488154601C09
:1032500084B2AC42F6DB0AE0002406E03F2108EB32
:1032600004023D488154601C84B2AC42F6DB28B2B3
:10327000C8E7FFE72A480068012831D128480168DB
:10328000304600F0B9F980464B464246294625A013
:10329000FFF708F9002405E0395D2EA0FFF702F9D9
:1032A000601C84B2AC42F7DBB9F1000F0BD00024F4
:1032B00006E0395D08EB040228488154601C84B2A2
:1032C000AC42F6DB0AE0002406E03F2108EB0402F2
:1032D00022488154601C84B2AC42F6DB28B291E7EC
:1032E00000BF8FE7D01200200D0A43555252454EC1
:1032F0005420494E4445583A25640D0A0000000008
:10330000C86500080D0A6C6162656C203A25730D72
:103310000A0000000D0A434D44203A25730D0A00AF
:10332000240000200D0A6E656564206461746120CC
:1033300073697A652D2D3E25642020696E64657859
:103340002D2D3E25642076616C75652D2D3E2564FE
:103350000D0A000025335800720E00200C100020CA
:1033600070B504460D46E1B20548FFF706F800BF08
:1033700080210348FEF734FF0028F9D0204670BDB5
:103380000038014070B504460D460CA12846FCF7F4
:10339000FEFE06460F212846FFF7A2FC002800DBB0
:1033A0002EB900222946A0B2FFF708FF04E001224F
:1033B000311DA0B2FFF702FF70BD00003431323280
:1033C0000000000070B504460D460CA12846FCF72D
:1033D000DEFE06460F212846FFF782FC002800DBB0
:1033E0002EB900222946A0B2FFF7E8FE04E0012230
:1033F000311DA0B2FFF7E2FE70BD00003431323360
:103400000000000070B504460D460CA12846FCF7EC
:10341000BEFE06460F212846FFF762FC002800DBAF
:103420002EB900222946A0B2FFF7C8FE04E001220F
:10343000311DA0B2FFF7C2FE70BD0000343135442B
:103440000000000070B504460D460CA12846FCF7AC
:103450009EFE06460F212846FFF742FC002800DBAF
:103460002EB900222946A0B2FFF7A8FE04E00122EF
:10347000311DA0B2FFF7A2FE70BD0000343132460C
:103480000000000070B504460D460CA12846FCF76C
:103490007EFE06460F212846FFF722FC002800DBAF
:1034A0002EB900222946A0B2FFF788FE04E00122CF
:1034B000311DA0B2FFF782FE70BD000034313041F3
:1034C0000000000070B504460D460CA12846FCF72C
:1034D0005EFE06460F212846FFF702FC002800DBAF
:1034E0002EB900222946A0B2FFF768FE04E00122AF
:1034F000311DA0B2FFF762FE70BD000034313545CA
:103500000000000070B504460D4609A12846FCF7EE
:103510003EFE06462EB101223146A0B2FFF74EFE16
:1035200004E000223146A0B2FFF748FE70BD000063
:10353000343130320000000070B504460D460CA155
:103540002846FCF724FE06460F212846FFF7C8FB55
:10355000002800DB2EB900222946A0B2FFF72EFE7C
:1035600004E00122311DA0B2FFF728FE70BD00006B
:10357000343130330000000070B504460D460CA114
:103580002846FCF704FE06460F212846FFF7A8FB55
:10359000002800DB2EB900222946A0B2FFF70EFE5C
:1035A00004E00122311DA0B2FFF708FE70BD00004B
:1035B000343135310000000070B504460D460CA1D1
:1035C0002846FCF7E4FD06460F212846FFF788FB56
:1035D000002800DB2EB900222946A0B2FFF7EEFD3D
:1035E00004E00122311DA0B2FFF7E8FD70BD00002C
:1035F0003431353900000000F8B505460E46002488
:103600006B480088F0BB00206A49088000BF15E0C5
:103610006948B0F82C010119684800EB81008078F6
:10362000644931F814100144624A601C32F81000F9
:10363000084481B2601C22F8101084B25E48B0F8D1
:103640002E11B0F82C01081AA042E1DC5CA0FEF7B4
:1036500029FF002420E0052094FBF0F100FB11403D
:1036600010B95DA0FEF71EFF524830F814305248E2
:103670000093B0F82C010119504800EB81008378C9
:103680004D4800E056E0B0F82C010219214653A045
:10369000FEF708FF601C84B2C82CDCDB0020554913
:1036A0000880002415E04448B0F83001011943486F
:1036B00000EB810080784F4931F8141001444D4AE5
:1036C000601C32F81000084481B2601C22F810100F
:1036D00084B23948B0F83211B0F83001081AA0426B
:1036E000E1DC45A0FEF7DEFE00241EE0052094FB91
:1036F000F0F100FB114010B937A0FEF7D3FE3D48B2
:1037000030F814302C480093B0F8300101192B48E0
:1037100000EB810083782848B0F830010219214677
:103720003AA0FEF7BFFE601C84B2C82CDEDB01208D
:103730001F49088026BB2048B0F82C01281A1D49D3
:1037400031F810301C480093B0F82E31B0F82C211D
:10375000294633A0FEF7A6FE1748B0F82E01A8426E
:1037600004DB1548B0F82C01A84201DD0020F8BDAB
:103770001148B0F82C01281A0E4931F81000F6E76C
:10378000012E13D10C48B0F83201A84204DB0A48DC
:10379000B0F83001A84201DD0020E8E70648B0F8A3
:1037A0003001281A134931F81000E0E70020DEE765
:1037B000A0000020DC1600209C110020D012002068
:1037C0000D0A4E4F524D414C20494E444558204D14
:1037D00041500D0A000000000D0A00003A3A3A2557
:1037E000642D3E25642D2D3E25642D3E256420202C
:1037F000200000006C1800200D0A46415354204957
:103800004E444558204D41503A0D0A003A3A3A2567
:10381000642D3E25642D2D3E25642D3E2564090032
:103820006D617020696E646578202564202D3E20CE
:1038300025642D3E25642D2D3E25640070B5064679
:103840000C46002501212046FFF74AFA002803DA3A
:1038500000E06D1C142DFCDB70BD0000FA490978F6
:1038600079B3FA490968062902D0FF297ED12FE1F0
:10387000F749C978472972D1F549097947296ED1A5
:10388000F349497941296AD10121F24A11600021A5
:10389000F14A116009E07822F049EF4B1B68CA54E5
:1038A000ED490968491CEC4A1160EB49096809298E
:1038B000F1DB7821E94A921ED1720021E64A1160BB
:1038C0000BE0F3E37822E5490A31E34B1B68CA5465
:1038D000E1490968491CE04A1160DF4909680A2981
:1038E000F0DB7821DD4A921E9175D1750021DA4A0C
:1038F00011600AE07822D9491631D74B1B68CA54A7
:10390000D5490968491CD44A1160D349096802297C
:10391000F0DB0021D04A11600AE07822CF4918314B
:10392000CD4B1B68CA54CC490968491CCA4A11606E
:10393000C94909680429F0DB0021C74A11600AE07F
:103940000022C6491C31C44B1B68CA54C2490968CD
:10395000491CC14A1160C04909680A29F0DBBC4909
:103960004979562928D10421BA4A00E0FEE31160C2
:103970000021B94A11601BE07822B949B64B1B6897
:1039800001F82320B44B1B6801EB83014A70B44952
:10399000B14B1B6801EB83018A70B149AE4B1B68C8
:1039A00001EB8301CA70AC490968491CAA4A11603D
:1039B000A94909680C29DFDBA5494979432971D157
:1039C0000821A44A11600021A34A116009E078226D
:1039D000A449A14B1B68CA549F490968491C9E4AC7
:1039E00011609D4909680A29F1DB78219D4A921EE0
:1039F00011730021984A11600AE0782299490B312D
:103A0000954B1B68CA5494490968491C924A116035
:103A1000914909680929F0DB7821924A921E917533
:103A200000218D4A11600AE078228E4915318A4BB7
:103A30001B68CA5488490968491C874A116086492D
:103A400009680A29F0DB7821864A921E82F8211043
:103A50000021814A11600AE07822824920317E4BA0
:103A60001B68CA547C490968491C7B4A11607A4921
:103A700009680529F0DB0021774A11600AE0782205
:103A800078492531744B1B68CA5473490968491C2D
:103A9000714A1160704909680529F0DB00216E4AFE
:103AA00011600BE00EE078226E492A316A4B1B68E8
:103AB000CA5469490968491C674A1160664909681E
:103AC0000629F0DB2C2802D1FF21604A1160FEE3B9
:103AD00060490968012904D004297ED008297DD1D4
:103AE000EDE02A2802D02C2879D190E00021564A16
:103AF00011705A49891EC97D302971D05749891ED4
:103B0000C97E2E290FD15549891E097F3039534A64
:103B1000921E927E303A02EB820201EB42014F4A42
:103B2000921E916220E04D49891E097F2E2916D1EF
:103B30004A49891E897E303964225143474A921E80
:103B4000D27E303A02EB820201EB42024349891EE7
:103B5000497F30391144414A921E916204E04FF48A
:103B60007A713E4A921E91623C49891E896A3E4A98
:103B7000926991424ADC0021374A11600CE03749D2
:103B8000354A1268895C384A334B1B68D154324934
:103B90000968491C304A11602F4909680929EEDB80
:103BA00000212D4A11600EE02C490A312A4A126880
:103BB0008A5C2D490A31284B1B68CA54264909687A
:103BC000491C254A1160244909680A29ECDB23496C
:103BD000891EC97A244A517203E0B9E1F6E320E074
:103BE00014E01E49891E897D11751C49891E097EB4
:103BF00011771A49891E4A7E1B494A771749891E3F
:103C0000896A194A91610121184A116055E01349E6
:103C1000891E0978491C114A921E117000215170A9
:103C20004BE00E49891E097809293ED2DFE801F0F0
:103C30003D052023282B2E3338000849891E4A7859
:103C4000891C885432E000007400002070000020BD
:103C500068000020640000207C0000203A1600204C
:103C60006C160020061600209C1600208000002004
:103C7000FF49C8721AE0FE494A780C31885415E0B1
:103C8000FB49887512E0FA49C8750FE0F8494A788F
:103C9000183188540AE0F6494A781A31885400BF2E
:103CA000F3494A781E31885400E000BF00BFF04954
:103CB0004978491CEE4A517000BF00BFD6E32A285C
:103CC00002D02C287DD1FEE00021EA4A1170EA4A98
:103CD00011600121E94A1160E949097B412978D144
:103CE0000021E84A11600DE0E5490D31E54A12680E
:103CF0008A5CE549E34B1B68CA54E2490968491CE0
:103D0000E04A1160DF4909680929EDDB0021DD4A3D
:103D100011600EE0DA491731DA4A12688A5CDA4932
:103D20000A31D84B1B68CA54D6490968491CD54A80
:103D30001160D44909680A29ECDBD149897DD24A4E
:103D40001E3A82F82710CE4991F8211082F83210DD
:103D50000021CC4A11600EE0C9492231C94A1268DB
:103D60008A5CC9491731C74B1B68CA54C5490968E1
:103D7000491CC44A1160C34909680529ECDB0021CC
:103D8000C04A11600EE0BE492731BE4A12688A5C03
:103D9000BD491C31BB4B1B68CA54BA490968491C50
:103DA000B84A1160B74909680529ECDBB049097EBA
:103DB000B54A1E3A82F83310AD494A7EB2491E39DF
:103DC00001E088E005E081F834200121AF4A11606C
:103DD0007047AB49897D782974D00021A94A1160C8
:103DE0000DE0A7490D31A74A12688A5CA649A54B88
:103DF0001B68CA54A3490968491CA24A1160A14919
:103E000009680929EDDB00219E4A11600EE09C49FA
:103E100017319C4A12688A5C9B490A31994B1B688E
:103E2000CA5498490968491C964A1160954909681D
:103E30000A29ECDB9249897D934A1E3A82F82710C1
:103E40008F4991F8211082F8321000218D4A1160BB
:103E50000EE08B4922318B4A12688A5C8A491731FD
:103E6000884B1B68CA5487490968491C854A1160F8
:103E7000844909680529ECDB0021824A11600EE0C3
:103E80007F4927317F4A12688A5C7F491C317D4B0C
:103E90001B68CA547B490968491C7A4A11607949F0
:103EA00009680529ECDB7249097E774A1E3A82F8D7
:103EB00033106F494A7E74491E3981F8342001213C
:103EC000734A116042E06E490978491C6C4A1170CE
:103ED000002151703AE06A49097809292ED2DFE8B9
:103EE00001F0050A0D12151A1E23280064494A78AC
:103EF000891C885423E06249087320E060494A78AD
:103F00000D3188541BE05E49887518E05C494A7899
:103F10001731885413E05A4981F821000FE05849BD
:103F20004A78223188540AE055494A782731885422
:103F300005E053494A782C31885400E000BF00BFA7
:103F40004F494978491C4E4A517000BF00BF8DE26D
:103F50002A2802D02C287ED1DFE10021454A1170A9
:103F60004C49C978312977D100214B4A11604B4A1D
:103F700011604B4A11604B4A11604B4A1160414A33
:103F80001160A2E0434908313E4A126801EB820108
:103F9000C97878296BD040490968491C3E4A1160AC
:103FA0003C490831374A126801EB8201C97830393F
:103FB000384A0832334B1B6802EB83029278303A5E
:103FC00002EB820201EB42010A2904DB3349096852
:103FD000491C324A11602F4908312A4A126801EB04
:103FE0008201C97830392B4A0832264B1B6802EB14
:103FF00083029278303A02EB820201EB42011429EB
:1040000004DB27490968491C254A11602149083108
:104010001C4A126801EB8201C97830391D4A083206
:10402000184B1B6802EB83029278303A02EB820253
:1040300001EB42011E2904DB1A490968491C194A8F
:104040001160144908310F4A126801EB8201C978E6
:104050003039104A01E068E13DE00832094B1B6845
:1040600002EB83029278303A02EB82021FE027E0F3
:104070003816002074000020700000207800002016
:10408000041600207C000020BA16002088000020C2
:1040900084000020641600208C0000209000002086
:1040A00094000020980000209C000020F2E101EB29
:1040B0004201282904DBFF490968491CFD4A1160B7
:1040C000FD490968491CFC4A1160FB49096804293B
:1040D000FFF658AF20E1F949C97832297ED1042191
:1040E000F54A116083E0F5490831F34A126801EBA3
:1040F0008201C978782975D0F1490968491CF04ACC
:104100001160EE490831EC4A126801EB8201C9786E
:104110003039EA4A0832E84B1B6802EB8302927896
:10412000303A02EB820201EB42010A2904DBE54945
:104130000968491CE34A1160E0490831DE4A126807
:1041400001EB8201C9783039DC4A0832DA4B1B684E
:1041500002EB83029278303A02EB820201EB4201D9
:10416000142906DBD8490968491C00E080E1D64AD9
:104170001160D2490831D04A126801EB8201C97836
:104180003039CE4A0832CC4B1B6802EB830292785E
:10419000303A02EB820201EB42011E2904DBCB49DB
:1041A0000968491CC94A1160C4490831C24A1268E9
:1041B00001EB8201C9783039C04A0832BE4B1B6816
:1041C00002EB83029278303A02EB820201EB420169
:1041D000282907DBB7490968491C01E00DE001E027
:1041E000B44A1160B4490968491CB34A1160B24924
:1041F00009680829FFF677AF8EE0B049C9783329FE
:1042000066D10821AC4A116081E0AC490831AA4A64
:10421000126801EB8201C978782973D0A84909682E
:10422000491CA74A1160A5490831A34A126801EB4D
:104230008201C9783039A14A08329F4B1B6802EBD2
:1042400083029278303A02EB820201EB42010A29A2
:1042500004DB9C490968491C9A4A11609749083156
:10426000954A126801EB8201C9783039934A0832C5
:10427000914B1B6802EB83029278303A02EB820288
:1042800001EB4201142904DB8F490968491C8E4A5D
:1042900011608A490831884A126801EB8201C978A5
:1042A0003039864A0832844B1B6802EB83029278CD
:1042B000303A02EB820201EB42011E2904DB834902
:1042C0000968491C814A11607C49083101E0E0E03D
:1042D00022E0794A126801EB8201C9783039774AC5
:1042E0000832754B1B6802EB83029278303A02EB7E
:1042F000820201EB4201282904DB6E490968491C4E
:104300006C4A11606C490968491C6B4A11606A4922
:1043100009680C29FFF679AFA2E068490978491CC1
:10432000664A1170002151709AE064490978132996
:1043300074D2DFE801F00A0D2A2B343536404C4D9B
:104340004E5A656667747F8081005C49887080E0A2
:104350005A49C870C978312903D10021574A5160A0
:1043600012E05649C978322903D10421534A5160D9
:104370000AE05249C978332903D108214F4A5160D4
:1043800002E008214D4A516063E062E04B494A680F
:10439000083101EB8201494A5278885459E058E0CB
:1043A00057E046494A68083101EB8201891C434ABB
:1043B000527888544DE041494968491C3F4A0832C7
:1043C00002EB8101083A5278885442E04AE040E02A
:1043D0003FE03A494968491C384A083202EB8101FA
:1043E000891C083A5278885433E034494968891C5A
:1043F000324A083202EB8101083A5278885428E0A8
:1044000027E026E02D494968891C2C4A083202EB36
:104410008101891C083A527888541AE018E027492B
:104420004968C91C254A083202EB8101083A5278D2
:1044300088540EE00DE00CE020494968C91C1F4A71
:10444000083202EB8101891C083A5278885400E056
:1044500000BF00BF19494978491C184A517000BF74
:1044600000BF03E000211A4A117000BF00BF10E036
:104470001849194A1268885417490968491C164A8C
:10448000116011460968072902DD0021104A1170E8
:1044900000BF33E0242831D10E4900220A608A800F
:1044A0008A71087001210A4A117000210B4A1160BB
:1044B000012115E09C0000207C00002064160020F3
:1044C0008C00002090000020940000209800002024
:1044D00074000020680000207000002064000020AC
:1044E000074A11600021074A11705170064A117085
:1044F0005170064A11705170054A116000BF67E49F
:1045000070000020041600206416002038160020D9
:104510007800002010B5FCF755FE01210748FCF794
:1045200059FCFCF789F9FDF707FDFCF7BDF8FCF72E
:10453000D1FC01F0EBFDFDF797F910BD0004300050
:1045400070B504460D460CA12846FBF720FE064632
:104550000F212846FEF7C4FB002800DB2EB90022FD
:104560002946A0B2FEF72AFE04E00122311DA0B2C6
:10457000FEF724FE70BD000034313542000000001B
:1045800070B504460D460CA12846FBF700FE064612
:104590000F212846FEF7A4FB002800DB2EB90022DD
:1045A0002946A0B2FEF70AFE04E00122311DA0B2A6
:1045B000FEF704FE70BD00003431304600000000FC
:1045C00070B504460D460CA12846FBF7E0FD0646F3
:1045D0000F212846FEF784FB002800DB2EB90022BD
:1045E0002946A0B2FEF7EAFD04E00122311DA0B287
:1045F000FEF7E4FD70BD00003431304200000000E1
:1046000070B504460D460CA12846FBF7C0FD0646D2
:104610000F212846FEF764FB002800DB2EB900229C
:104620002946A0B2FEF7CAFD04E00122311DA0B266
:10463000FEF7C4FD70BD00003431303700000000CB
:1046400070B504460D460CA12846FBF7A0FD0646B2
:104650000F212846FEF744FB002800DB2EB900227C
:104660002946A0B2FEF7AAFD04E00122311DA0B246
:10467000FEF7A4FD70BD00003431303900000000A9
:1046800070B504460D460CA12846FBF780FD064692
:104690000F212846FEF724FB002800DB2EB900225C
:1046A0002946A0B2FEF78AFD04E00122311DA0B226
:1046B000FEF784FD70BD0000343135360000000087
:1046C00070B504460D460CA12846FBF760FD064672
:1046D0000F212846FEF704FB002800DB2EB900223C
:1046E0002946A0B2FEF76AFD04E00122311DA0B206
:1046F000FEF764FD70BD0000343135380000000065
:1047000010B5FFF707FF00F0CDFB002010BD000043
:1047100070B504460D460CA12846FBF738FD064649
:104720000F212846FEF7DCFA002800DB2EB9002214
:104730002946A0B2FEF742FD04E00122311DA0B2DD
:10474000FEF73CFD70BD0000343132310000000046
:1047500070B504460D460CA12846FBF718FD064629
:104760000F212846FEF7BCFA002800DB2EB90022F4
:104770002946A0B2FEF722FD04E00122311DA0B2BD
:10478000FEF71CFD70BD0000343134440000000011
:1047900070B504460D460CA12846FBF7F8FC06460A
:1047A0000F212846FEF79CFA002800DB2EB90022D4
:1047B0002946A0B2FEF702FD04E00122311DA0B29D
:1047C000FEF7FCFC70BD0000343134310000000005
:1047D00070B504460D460CA12846FBF7D8FC0646EA
:1047E0000F212846FEF77CFA002800DB2EB90022B4
:1047F0002946A0B2FEF7E2FC04E00122311DA0B27E
:10480000FEF7DCFC70BD00003431303100000000E8
:1048100070B504460D460CA12846FBF7B8FC0646C9
:104820000F212846FEF75CFA002800DB2EB9002293
:104830002946A0B2FEF7C2FC04E00122311DA0B25D
:10484000FEF7BCFC70BD00003431313400000000C4
:1048500070B504460D460CA12846FBF798FC0646A9
:104860000F212846FEF73CFA002800DB2EB9002273
:104870002946A0B2FEF7A2FC04E00122311DA0B23D
:10488000FEF79CFC70BD00003431313500000000A3
:1048900070B504460D460CA12846FBF778FC064689
:1048A0000F212846FEF71CFA002800DB2EB9002253
:1048B0002946A0B2FEF782FC04E00122311DA0B21D
:1048C000FEF77CFC70BD0000343131360000000082
:1048D00070B504460D460CA12846FBF758FC064669
:1048E0000F212846FEF7FCF9002800DB2EB9002234
:1048F0002946A0B2FEF762FC04E00122311DA0B2FD
:10490000FEF75CFC70BD0000343131370000000060
:1049100070B504460D460CA12846FBF738FC064648
:104920000F212846FEF7DCF9002800DB2EB9002213
:104930002946A0B2FEF742FC04E00122311DA0B2DC
:10494000FEF73CFC70BD000034313138000000003F
:1049500070B504460D460CA12846FBF718FC064628
:104960000F212846FEF7BCF9002800DB2EB90022F3
:104970002946A0B2FEF722FC04E00122311DA0B2BC
:10498000FEF71CFC70BD000034313139000000001E
:1049900070B504460D460CA12846FBF7F8FB064609
:1049A0000F212846FEF79CF9002800DB2EB90022D3
:1049B0002946A0B2FEF702FC04E00122311DA0B29C
:1049C000FEF7FCFB70BD00003431314100000000F7
:1049D00070B504460D460CA12846FBF7D8FB0646E9
:1049E0000F212846FEF77CF9002800DB2EB90022B3
:1049F0002946A0B2FEF7E2FB04E00122311DA0B27D
:104A0000FEF7DCFB70BD00003431314200000000D5
:104A100070B504460D460CA12846FBF7B8FB0646C8
:104A20000F212846FEF75CF9002800DB2EB9002292
:104A30002946A0B2FEF7C2FB04E00122311DA0B25C
:104A4000FEF7BCFB70BD00003431333400000000C1
:104A500070B504460D460CA12846FBF798FB0646A8
:104A60000F212846FEF73CF9002800DB2EB9002272
:104A70002946A0B2FEF7A2FB04E00122311DA0B23C
:104A8000FEF79CFB70BD00003431333500000000A0
:104A900070B504460D460CA12846FBF778FB064688
:104AA0000F212846FEF71CF9002800DB2EB9002252
:104AB0002946A0B2FEF782FB04E00122311DA0B21C
:104AC000FEF77CFB70BD000034313336000000007F
:104AD00070B504460D460CA12846FBF758FB064668
:104AE0000F212846FEF7FCF8002800DB2EB9002233
:104AF0002946A0B2FEF762FB04E00122311DA0B2FC
:104B0000FEF75CFB70BD000034313337000000005D
:104B100070B504460D460CA12846FBF738FB064647
:104B20000F212846FEF7DCF8002800DB2EB9002212
:104B30002946A0B2FEF742FB04E00122311DA0B2DB
:104B4000FEF73CFB70BD000034313338000000003C
:104B500070B504460D460CA12846FBF718FB064627
:104B60000F212846FEF7BCF8002800DB2EB90022F2
:104B70002946A0B2FEF722FB04E00122311DA0B2BB
:104B8000FEF71CFB70BD000034313339000000001B
:104B900070B504460D460CA12846FBF7F8FA064608
:104BA0000F212846FEF79CF8002800DB2EB90022D2
:104BB0002946A0B2FEF702FB04E00122311DA0B29B
:104BC000FEF7FCFA70BD00003431334100000000F4
:104BD00070B504460D460CA12846FBF7D8FA0646E8
:104BE0000F212846FEF77CF8002800DB2EB90022B2
:104BF0002946A0B2FEF7E2FA04E00122311DA0B27C
:104C0000FEF7DCFA70BD00003431334200000000D2
:104C100070B504460D460CA12846FBF7B8FA0646C7
:104C20000F212846FEF75CF8002800DB2EB9002291
:104C30002946A0B2FEF7C2FA04E00122311DA0B25B
:104C4000FEF7BCFA70BD00003431323400000000C1
:104C500070B504460D460CA12846FBF798FA0646A7
:104C60000F212846FEF73CF8002800DB2EB9002271
:104C70002946A0B2FEF7A2FA04E00122311DA0B23B
:104C8000FEF79CFA70BD00003431323500000000A0
:104C900070B504460D460CA12846FBF778FA064687
:104CA0000F212846FEF71CF8002800DB2EB9002251
:104CB0002946A0B2FEF782FA04E00122311DA0B21B
:104CC000FEF77CFA70BD000034313236000000007F
:104CD00070B504460D460CA12846FBF758FA064667
:104CE0000F212846FDF7FCFF002800DB2EB900222B
:104CF0002946A0B2FEF762FA04E00122311DA0B2FB
:104D0000FEF75CFA70BD000034313237000000005D
:104D100070B504460D460CA12846FBF738FA064646
:104D20000F212846FDF7DCFF002800DB2EB900220A
:104D30002946A0B2FEF742FA04E00122311DA0B2DA
:104D4000FEF73CFA70BD000034313238000000003C
:104D500070B504460D460CA12846FBF718FA064626
:104D60000F212846FDF7BCFF002800DB2EB90022EA
:104D70002946A0B2FEF722FA04E00122311DA0B2BA
:104D8000FEF71CFA70BD000034313239000000001B
:104D900070B504460D460CA12846FBF7F8F9064607
:104DA0000F212846FDF79CFF002800DB2EB90022CA
:104DB0002946A0B2FEF702FA04E00122311DA0B29A
:104DC000FEF7FCF970BD00003431324100000000F4
:104DD00070B504460D460CA12846FBF7D8F90646E7
:104DE0000F212846FDF77CFF002800DB2EB90022AA
:104DF0002946A0B2FEF7E2F904E00122311DA0B27B
:104E0000FEF7DCF970BD00003431324200000000D2
:104E10002DE9F04104460F46164600254FF49671E1
:104E20001748FBF7A8F9002016490860214616A08C
:104E3000FDF738FB00BF0FE0615D1748FDF79DFAF5
:104E4000615D1648FDF799FA00BF40211248FDF751
:104E5000C7F90028F9D06D1C605D0028ECD110A0C6
:104E6000FDF720FB3046FDF7FBFF39460448FBF712
:104E70008EF910B10120BDE8F0810020FBE70000B1
:104E8000E40A0020080000200D0A41542D2D2D3E7B
:104E900025730D0A00000000004400400038014066
:104EA0000D0A00001FB542F21075A1A30FCB8DE8CB
:104EB0000F000020A249086000BF0320A14908603C
:104EC000A1A0FDF7EFFA002405E01DF80410A3A04F
:104ED000FDF7E8FA641C0A2CF7DB002001F000F86B
:104EE00040F6B830FDF7BCFF012000F0F9FF41F2B9
:104EF0008830FDF7B5FFFDE32A46002199A0FFF7B2
:104F000087FF2A4600219AA0FFF782FF2A46002148
:104F10009AA0FFF77DFF2A4600219BA0FFF778FFAC
:104F20002A4600219BA0FFF773FF2A4600219EA07E
:104F3000FFF76EFF2A4600219FA0FFF769FF2A4670
:104F40000021A7A0FFF764FF2A460021AEA0FFF7CB
:104F50005FFF2A460021B3A0FFF75AFF2A4600212F
:104F6000B4A0FFF755FF2A460021B6A0FFF750FF77
:104F70002A460021B6A0FFF74BFF2A460021B8A021
:104F8000FFF746FF2A460021B9A0FFF741FF2A4656
:104F90000021BCA0FFF73CFF2A460021BDA0FFF77F
:104FA00037FF2A460021BFA0FFF732FF2A46002123
:104FB000C1A0FFF72DFF2A460021C4A0FFF728FF5C
:104FC0002A460021C6A0FFF723FF2A460021C9A0D8
:104FD000FFF71EFF2A460021A1A0FFF719FF2A466E
:104FE0000021A3A0FFF714FF2A460021C5A0FFF768
:104FF0000FFF2A460021C8A0FFF70AFF2A4600211A
:10500000CAA0FFF705FF2A460021CDA0FFF700FF49
:105010002A460021CFA0FFF7FBFE2A460021D2A09E
:10502000FFF7F6FE2A460021D4A0FFF7F1FE2A463C
:105030000021D7A0FFF7ECFE2A460021D9A0FFF7F8
:10504000E7FE2A46002193A0FFF7E2FE2A46002150
:1050500055A0FFF7DDFE2A460021D6A0FFF7D8FEB7
:105060002A460021D8A0FFF7D3FE2A460021DAA065
:10507000FFF7CEFE2A460021DBA0FFF7C9FE2A4635
:105080000021DDA0FFF7C4FE2A460021DFA0FFF7C4
:10509000BFFE2A460021E2A0FFF7BAFE2A46002101
:1050A000E4A0FFF7B5FE2A460021E7A0FFF7B0FE17
:1050B0002A460021E9A0FFF7ABFE2A460021ECA01A
:1050C000FFF7A6FE2A460021EEA0FFF7A1FE2A4622
:1050D0000021F1A0FFF79CFE2A46002171A0FFF7F6
:1050E00097FE2A460021F1A0FFF792FE2A460021F2
:1050F000F3A0FFF78DFE2A460021F6A0FFF788FEF9
:105100002A460021F8A0FFF783FE2A460021FBA0D3
:10511000FFF77EFE2A460021FCA0FFF779FE2A4613
:105120000021FFA0FFF774FE2A46002102E20000E2
:105130000D0A0D0A0D0A0D0A0D0A0D0A0D0A0000CE
:1051400020000020140000200D0A626567696E20AF
:105150006F626420746573740D0A00003078253323
:105160005820200042542B524454430D0A000000A2
:1051700042542B454454430D0A00000042542B4D29
:10518000494C0D0A0000000042542B504944530D75
:105190000A00000042542B444154412E41445F46D2
:1051A00045480D0A0000000042542B444154412E52
:1051B0005653530D0A00000042542B4D554C3D26CA
:1051C00030312630332630342630352630362630FE
:1051D000372630422630432630442630450D0A001B
:1051E00042542B4D554C3D26304626313126313325
:1051F00026313426313526314326323026323126C7
:1052000034302634370D0A0042542B4D554C3D2680
:1052100039302639332639342639352639360D0AC0
:105220000000000042542B494E464F2E56494E0D69
:105230000A00000042542B494E464F2E4549440D6A
:105240000A00000042542B535057520D0A00000030
:1052500042542B504D494C3D31323334350D0A0008
:1052600042542B444154412E4543540D0A00000042
:1052700042542B444154412E534852544654310D0C
:105280000A00000042542B444154412E4C4F4144EB
:105290000D0A000042542B444154412E52504D0DF2
:1052A0000A00000042542B444154412E4F424453C3
:1052B00055500D0A0000000042542B444154412E29
:1052C00052554E54494D450D0A00000042542B449E
:1052D0004154412E4675656C20537973310D0A0097
:1052E00042542B444154412E4675656C20537973CA
:1052F000320D0A0042542B444154412E6C6F6164BC
:105300000D0A000042542B444154412E534852543C
:105310004654320D0A00000042542B444154412EA1
:10532000534852544654330D0A00000042542B4453
:105330004154412E534852544654340D0A00000043
:1053400042542B444154412E4C4F4E474654310D4C
:105350000A00000042542B444154412E4C4F4E470A
:105360004654320D0A00000042542B444154412E51
:105370004C4F4E474654330D0A00000042542B4414
:105380004154412E4C4F4E474654340D0A00000004
:1053900042542B444154412E4675656C20500D0AF1
:1053A0000000000042542B444154412E4D41500D09
:1053B0000A00000042542B444154412E5370617244
:1053C0006B204164760D0A0042542B444154412E17
:1053D0004941540D0A00000042542B444154412ECF
:1053E0004D41460D0A00000042542B444154412EC9
:1053F0005450530D0A00000042542B444154412E96
:1054000041697220537461740D0A000042542B44A8
:105410004154412E4F3220423153310D0A000000D9
:1054200042542B444154412E4F3220423153320DCD
:105430000A00000042542B444154412E4F32204276
:105440003153330D0A00000042542B444154412E85
:105450004F3220423153340D0A00000042542B4495
:105460004154412E4F3220423253310D0A00000088
:1054700042542B444154412E4F3220423253320D7C
:105480000A00000042542B444154412E4F32204226
:105490003253330D0A00000042542B444154412E34
:1054A0004F3220423253340D0A00000042542B4444
:1054B0004154412E50544F5F535441540D0A000043
:1054C00042542B444154412E52756E54696D650D02
:1054D0000A00000042542B444154412E4D696C5F38
:1054E000646973740D0A000042542B444154412EE8
:1054F0004652505F6D760D0A0000000042542B4466
:105500004154412E4652500D0A00000042542B4493
:105510004154412E45515F52415431310D0A000032
:1055200042542B444154412E45515F524154313233
:105530000D0A000090A0FFF76BFC2A46002193A003
:10554000FFF766FC2A46002195A0FFF761FC2A467A
:10555000002198A0FFF75CFC2A4600219AA0FFF7E3
:1055600057FC2A4600219DA0FFF752FC2A46002145
:105570009FA0FFF74DFC2A460021A1A0FFF748FCA1
:105580002A460021A3A0FFF743FC2A460021A5A03C
:10559000FFF73EFC2A460021A7A0FFF739FC2A4668
:1055A0000021AAA0FFF734FC2A460021ADA0FFF796
:1055B0002FFC2A460021B0A0FFF72AFC2A46002132
:1055C000AFF2B800FFF724FC2A460021AFF2B0008A
:1055D000FFF71EFC2A46002167A0FFF719FC2A46A8
:1055E00000216AA0FFF714FC2A4600216CA0FFF7F7
:1055F0000FFC2A4600216FA0FFF70AFC2A46002173
:1056000071A0FFF705FC2A46002174A0FFF700FCFB
:105610002A4600219CA0FFF7FBFB2A460021A0A000
:10562000FFF7F6FB2A460021A3A0FFF7F1FB2A466D
:105630000021A7A0FFF7ECFB2A460021AAA0FFF754
:10564000E7FB2A460021ACA0FFF7E2FB2A46002137
:10565000AEA0FFF7DDFB2A460021B1A0FFF7D8FB83
:105660002A460021B2A0FFF7D3FB2A460021B4A0AE
:10567000FFF7CEFB2A460021B5A0FFF7C9FB2A465B
:105680000021B7A0FFF7C4FB2A460021B8A0FFF70E
:10569000BFFB2A460021BAA0FFF7BAFB2A46002129
:1056A000BBA0FFF7B5FB2A460021BEA0FFF7B0FB69
:1056B0002A460021C0A0FFF7ABFB2A460021C3A069
:1056C000FFF7A6FB2A460021C5A0FFF7A1FB2A464B
:1056D0000021C8A0FFF79CFB2A460021CAA0FFF7C3
:1056E00097FB2A460021CDA0FFF792FB2A46002116
:1056F000CFA000E03EE0FFF78BFB2A460021D1A0BF
:10570000FFF786FB2A460021D3A0FFF781FB2A463C
:105710000021D6A0FFF77CFB2A460021D8A0FFF786
:1057200077FB2A460021DBA0FFF772FB2A46002107
:10573000DDA0FFF76DFB2A460021DFA0FFF768FB25
:105740002A460021E0A0FFF763FB2A460021E2A0E1
:10575000FFF75EFB2A460021E3A0FFF759FB2A462C
:105760000021E6A0FFF754FB2A460021AFF2DC50EF
:10577000FFF74EFBFFF7C0BB42542B444154412E70
:1057800045515F52415431330D0A000042542B44BD
:105790004154412E45515F52415431340D0A0000AD
:1057A00042542B444154412E45515F5241543231B1
:1057B0000D0A000042542B444154412E45515F5282
:1057C000415432320D0A000042542B444154412EC0
:1057D00045515F52415432330D0A000042542B446C
:1057E0004154412E45515F52415432340D0A00005C
:1057F00042542B444154412E4547520D0A000000AB
:1058000042542B444154412E4547525F4552520D5C
:105810000A00000042542B444154412E4556415049
:105820000D0A000042542B444154412E4675656CCC
:10583000204C766C0D0A000042542B444154412EFA
:105840005761726D207570730D0A000042542B442D
:105850004154412E436C65617220446973740D0A92
:105860000000000042542B444154412E4556415003
:1058700020500D0A0000000042542B444154412E98
:105880004241524F0D0A000042542B444154412ED4
:105890004341542054454D5031310D0A0000000061
:1058A00042542B444154412E4341542054454D50C1
:1058B00032310D0A0000000042542B444154412E65
:1058C0004341542054454D5031320D0A0000000030
:1058D00042542B444154412E4341542054454D5091
:1058E00032320D0A0000000042542B444154412E34
:1058F000565057520D0A000042542B444154412E39
:105900004C4F4144204142530D0A000042542B4465
:105910004154412E45515F5241540D0A0000000090
:1059200042542B444154412E54505F520D0A000002
:1059300042542B444154412E4141540D0A00000071
:1059400042542B444154412E5450535F420D0A009F
:1059500042542B444154412E5450535F430D0A008E
:1059600042542B444154412E4150505F440D0A0093
:1059700042542B444154412E4150505F450D0A0082
:1059800042542B444154412E4150505F460D0A0071
:1059900042542B444154412E5441435F5043540DD3
:1059A0000A00000042542B444154412E4D494C5FA3
:1059B00054494D450D0A000042542B444154412E98
:1059C000434C525F54494D450D0A000042542B444C
:1059D0004154412E414C43485F5043540D0A00004E
:1059E00042542B444154412E455641505F5650413C
:1059F0000D0A000042542B444154412E455641505B
:105A00005F56500D0A00000042542B444154412E71
:105A10005354534F324654310D0A000042542B4424
:105A20004154412E5354534F324654320D0A000014
:105A300042542B444154412E5354534F3246543315
:105A40000D0A000042542B444154412E5354534FED
:105A5000324654340D0A000042542B444154412E26
:105A60004C47534F324654310D0A000042542B44E8
:105A70004154412E4C47534F324654320D0A0000D8
:105A800042542B444154412E4C47534F32465433D9
:105A90000D0A000042542B444154412E4C47534FB1
:105AA000324654340D0A000042542B444154412ED6
:105AB000465250410D0A000042542B444154412E9D
:105AC0004150505F520D0A0042542B444154412E24
:105AD0004946450D0A00000042542B444154412ED2
