:020000040800F2
:10000000B02600204501000855150008B914000865
:1000100029150008950800086D2800080000000058
:10002000000000000000000000000000B51C0008F7
:100030005901000800000000E5170008291E00080B
:100040005F0100085F0100085F0100088D1B0008C8
:100050005F0100085F010008A50B0008D10B000834
:100060005F010008F90B00085F0100085F0100084C
:100070005F0100085F0100085F0100085F010008E0
:100080005F0100085F0100085F0100085F010008D0
:10009000812700085F0100085F010008310C00089B
:1000A0005F0100085F0100085F0100085F010008B0
:1000B0008D1E0008B51E00085F0100085F010008E2
:1000C0005F0100085F0100085F0100085F01000890
:1000D0005F01000865210008E12100088522000871
:1000E0005F010008CD1A00085F0100085F010008E9
:1000F0005F0100085F0100085F0100085F01000860
:100100005F0100085F0100085F0100085F0100084F
:1001100065200008FD2000085F0100085F0100085D
:100120005F0100085F0100085F0100085F0100082F
:10013000DFF80CD000F07CFB00480047C145000808
:10014000B02600200648804706480047FEE7FEE745
:10015000FEE7FEE7FEE7FEE7FEE7FEE7FEE7FEE777
:100160002D1E00083101000840EA01039B0703D05F
:1001700009E008C9121F08C0042AFAD203E011F8E6
:10018000013B00F8013B521EF9D27047D2B201E0A8
:1001900000F8012B491EFBD270470022F6E710B58C
:1001A00004460846114602462046FFF7EFFF204668
:1001B00010BD034600E0401C0278002AFBD111F874
:1001C000012B00F8012B002AF9D11846704730B5F1
:1001D0000EE003460A4601E05B1C521C1C781578B1
:1001E000AC4201D1002CF7D115F0FF0F04D0401C18
:1001F0000278002AEDD1002030BD0146002000E049
:10020000401C0A5C002AFBD170472DE9F0470F46DD
:10021000914680460446002614F8015B2DB100F09B
:10022000B9F90068405DC007F6D12B2D02D02D2D05
:1002300018D0641E4A463946204600F0AFF927B16F
:100240003968A14201D1C7F8008071054FF002045E
:100250000BD54042002803DD02F0BCFB0460A00780
:10026000BDE8F08746F48066E4E70028F8DA02F09B
:10027000B1FB04606FF00040F2E770B5064602F093
:10028000A9FB046805460A2200213046FFF7BDFF9E
:100290002C6070BD2DE9FE4F074681EA0300C00FB8
:1002A0000E46019021F0004123F00044B81AA1410C
:1002B00005D23846314617461E460B46024623F005
:1002C0000040104304D13846314603B0BDE8F08FFA
:1002D000350DC5F30A00C3F30A510290401A00908D
:1002E000402867DAC3F3130040F4801B019892465C
:1002F00020B10023D2EB030A63EB0B0B00985946A5
:10030000C0F14002504600F024F980460C465046A9
:100310005946009A00F02CF9C0197141EF1785EA8F
:1003200011533B433FD0019A4AB3009A012A11DC92
:100330000022801A61EB05514FF0004303EA055596
:10034000CDE90025801841F580114246234600F092
:1003500080F9BAE72E050025401B61EB0601401924
:1003600041F58012001852412818A6F5001343EBFE
:10037000020140EAD47018EB0808644113E06408F5
:100380004FEA38084FF0000244EAC0744FEA0553C0
:10039000801A61EB0301801841F5801149084FEA8A
:1003A0003000801859414246234603B0BDE8F04F63
:1003B00000F042B90198012240000023D0EB020274
:1003C00063EBE07301984FEAE074381A66EB0401BE
:1003D000EBE783F000435DE781F000415AE72DE948
:1003E000FE4F81EA030421F0004504F0004423F0AD
:1003F00000414FF0000A009450EA050302D052EA8F
:10040000010304D10020014603B0BDE8F08FC1F321
:100410000A53C5F30A542344A3F2F3330193A0FB18
:1004200002B3C5F3130545F4801CC1F3130141F475
:1004300080180CFB023300FB083E810A930A41EA54
:100440008C5143EA8853A1FB03474FEA9C2505FBE7
:1004500003734FEA982601FB06373D05260545EA5A
:100460001435BBEB06016EEB0503850E920E45EAD3
:100470008C1542EA8812A5FB0206261E67EB0007D0
:100480000C0D44EA0334A61947EB1350C1F31304CF
:100490004FF000031946E5FB02014FEA033545EA38
:1004A0001455019B4FEA0432009CA3F10C03CDE9E3
:1004B00000A445EA060502932B4600F0CAF8A3E71C
:1004C00030B50B46014600202022012409E021FA24
:1004D00002F59D4205D303FA02F5491B04FA02F521
:1004E0002844151EA2F10102F1DC30BD2DE9F05FB8
:1004F0000546002092469B46884606468146402493
:100500001DE0284641464746224600F0A3F9B0EBDD
:100510000A0052465B4671EB0B0110D31046194698
:10052000224600F016F82D1A67EB01084F462246C6
:100530000120002100F00DF817EB00094E41201EAC
:10054000A4F10104DDDC484631462A464346BDE8B5
:10055000F09F202A04DB203A00FA02F100207047C5
:100560009140C2F1200320FA03F3194390407047F1
:10057000202A06DBCB17203A41FA02F043EAE07367
:1005800006E041FA02F3D040C2F120029140084354
:100590001946704700487047005900082DE9F05F80
:1005A0008246044600780027641C8B461546B946EF
:1005B000302801D09DB113E014F8010B01277828F1
:1005C00003D0582801D045B10AE00DB1102D07D154
:1005D0000027102514F8010B02E0082500E00A2589
:1005E0000026B0460EE005FB080005FB06F10127DA
:1005F00001EB10461FFA80F8B6F5803F00D3B946EC
:1006000014F8010B294600F035F90028EBDABBF1AC
:10061000000F04D0641E07B95446CBF80040B9F16E
:10062000000F06D002F0D6F902210160C81EBDE815
:10063000F09F48EA0640FAE710B5002B08DA401CA4
:1006400041F1000192185B411A4301D120F00100F1
:1006500010BD2DE9FF4D934611B1B1FA81F202E0D0
:10066000B0FA80F220329246FFF773FF039A0746F2
:10067000884640EA0B0011435B46084304D13846E4
:10068000414604B0BDE8F08D114653EA020016D091
:10069000CAF14002584600F0DDF804460D464FF01E
:1006A0000106584652460399FFF753FF084300D10D
:1006B0000026344345EAE675274345EA08080E98C4
:1006C0004FF00005A0EB0A014FEAD7200A314FEAAC
:1006D00047532A4640EA48504FEAD82402D5002022
:1006E0000146CEE7281844EB0151DDE90C4500191D
:1006F00004B06941BDE8F04D9EE72DE9F04D81EA77
:10070000030404F0004B21F0004714464FF0000AA8
:1007100023F0004150EA070220D054EA01021DD024
:10072000C1F30A550246C1F31300C7F30A56C7F3D3
:10073000130340F4801143F48013A6EB0508101B4B
:10074000D64608F2FD3873EB010002D308F1010828
:1007500001E092185B41B8F1000F03DA0020014676
:10076000BDE8F08D00204FF48015064607460EE0E8
:10077000B2EB040C73EB010C04D3121B064363EBC6
:1007800001032F436D084FEA300092185B4150EA95
:10079000050CEDD152EA030012D082EA040083EA8C
:1007A0000105284303D100224FF0004308E0101B4D
:1007B0008B4102D20122002302E06FF001025310AC
:1007C0001AEB060047EB085110EB0A0041EB0B0156
:1007D000BDE8F04DFFF730BFC1F30A52C1F313017A
:1007E00040F2FF3341F480119A4202DA00200146C0
:1007F000704740F233439A42A2F2334202DC524243
:1008000000F028B8FFF7A5BE30B5002904DB4FF093
:100810000044404264EB0101002B04DB4FF0004434
:10082000524264EB0303994208BF904230BD00007E
:10083000064C074D06E0E06840F0010394E807002D
:1008400098471034AC42F6D3FFF776FC0459000801
:1008500024590008202A04DB203A21FA02F0002162
:10086000704721FA02F3D040C2F1200291400843C0
:10087000194670473A2800D2303820F02002412A29
:1008800001D3A2F137004FF0FF32884200D2024676
:10089000104670470AE006A002F078F872B671B60A
:1008A0004FF4FA6002F004FE00F06AFFF3E7000084
:1008B0000D0A4552524F525F4255530D0A00000037
:1008C000B1F5007F3AD00FDC202928D006DC0129C1
:1008D0001CD004291DD0082940D11DE0402921D079
:1008E000B1F5807F3AD126E0B1F5004F31D006DC7A
:1008F000B1F5806F25D0B1F5006F2FD124E0B1F5AF
:10090000803F12D0B1F5003F28D111E0154A826036
:1009100025E00822C26022E01022C2601FE0082207
:1009200002611CE01022026119E00822426016E018
:100930001022426013E00422426010E00422426070
:100940000DE0042242600AE000228261042242603B
:1009500005E0002282610422426000E000BF00BF87
:10096000704700000101010021B9C26842F0200275
:10097000C26003E0026942F0200202617047000099
:1009800070B504460D4600266069284271D0B5F561
:10099000807F5CD010DC082D35D006DC012D20D006
:1009A000022D24D0042D77D127E0102D31D0202D19
:1009B00035D0402D70D138E0B5F5004F60D009DC5E
:1009C000B5F5007F49D0B5F5806F4CD0B5F5006F17
:1009D00062D14FE0B5F5803F2DD0B5F5003F5BD13A
:1009E0002FE0A0682F4900F0D4F8064656E0E068F2
:1009F000032100F0CEF8064650E0E068082100F040
:100A0000C8F806464AE0E068102100F0C2F8064641
:100A100044E02069032100F0BCF806463EE020696E
:100A2000082100F0B6F8064638E02069102100F0F1
:100A3000B0F8064632E06068082100F0AAF80646E1
:100A40002CE06068102100F0A4F8064626E0A069BA
:100A5000012100F09EF8064620E0A069022100F086
:100A600098F806461AE0A069042100F092F80646BC
:100A700014E014E0A069702100F08BF806460DE048
:100A8000A069772100F085F806466068042100F02F
:100A900080F8064302E0FFE7002600BF00E00026E2
:100AA000304670BD0101010030B504460D461346C5
:100AB00004F5D87000EB0510006800F0040018720F
:100AC000187A50B904F5D87000EB0510006840F2B0
:100AD000FF7101EA5050186009E004F5D87000EB8E
:100AE000051000686FF0604101EAD000586004F51D
:100AF000D87000EB0510006800F00200587204F591
:100B0000D87000EB0510406800F00F00987204F5F3
:100B1000D87000EB05104068000AD87404F5D8704E
:100B200000EB05108068D87204F5D87000EB051052
:100B30008068000A187304F5D87000EB051080680F
:100B4000000C587304F5D87000EB05108068000E97
:100B5000987304F5D87000EB0510C068D87304F5DD
:100B6000D87000EB0510C068000A187404F5D8703E
:100B700000EB0510C068000C587404F5D87000EB49
:100B80000510C068000E987429462046FFF7ECFE59
:100B900030BD024600200A4201D0012000E00020C2
:100BA0007047000010B5C82002F082FC012000F060
:100BB000A5F828B1012000F047F802A001F0E6FEF8
:100BC00010BD00000D0A6B6579300D0A00000000B1
:100BD00010B5022000F092F828B1022000F034F89D
:100BE00001A001F0D3FE10BD0D0ABDF8C8EBD6D0B0
:100BF000B6CF310D0A00000010B5082000F07EF8D5
:100C000028B1082000F020F801A001F0BFFE10BDBF
:100C10000D0ABDF8C8EBC0B6D1C0D7B4CCACB1E4B6
:100C2000BBAFD6D0B6CFA3A1A3A1A3A10D0A00004C
:100C300010B54FF4807000F061F818B14FF4807077
:100C400000F002F810BD0000014908607047000084
:100C5000140401401CB54FF40030FFF7F5FF4FF4CA
:100C60000030009000208DF8040008208DF8050069
:100C700001208DF80600684600F056F8002108466D
:100C800000F022FB0120FFF7DFFF01200090002091
:100C90008DF804000C208DF8050001208DF8060069
:100CA000684600F041F80121002000F00DFB022011
:100CB000FFF7CAFF0220009000208DF804000C20EE
:100CC0008DF8050001208DF80600684600F02CF82C
:100CD0000321042000F0F8FA0820FFF7B5FF0820F0
:100CE000009000208DF8040010208DF805000120F0
:100CF0008DF80600684600F017F81CBD014600207C
:100D00000022074B1B6803EA0102064BD3F8143498
:100D10000B4202D00AB1012000E000207047000021
:100D20000004014000000140002127498279DAB324
:100D3000264AD2F8002403689A43244BC3F80024BF
:100D40001A46D2F8042403689A4301F104031A6096
:100D5000027911440A68036842EA03020A601B4AE6
:100D6000D2F80824036822EA0302184BC3F80824C7
:100D70001A46D2F80C24036822EA0302144B1A60C4
:100D80004279102A11D1114AD2F8082403681A4373
:100D90000E4BC3F808241A46D2F80C2403681A43F1
:100DA0000A4BC3F80C240EE007E0074942791144CE
:100DB0000A6803681A430A6005E0027911440A6868
:100DC00003689A430A607047000401400000014034
:100DD0000C04014004200C49C96801F001010129FB
:100DE00001D101200EE00849C96811F0040F01D0BB
:100DF000022007E00449C96811F0100F01D0032058
:100E000000E0042070470000002002400348006911
:100E100040F0800001490861704700000020024056
:100E20000549096821F01001034A1160114609685B
:100E3000014311607047000000200240F0B50446F5
:100E40000D4604260027F00200F042F80646042E64
:100E500022D11248006940F0010010490861258044
:100E6000F00200F035F80646042E0ED1A71C280C1F
:100E70003880F00200F02CF806460848006941F678
:100E8000FE7108400549086106E00448006941F622
:100E9000FE710840014908613046F0BD0020024063
:100EA00001460020034A106800F038000843106033
:100EB0007047000000200240024803494860034890
:100EC000486070472301674500200240AB89EFCDA1
:100ED00000B502460423FFF77DFF034603E0FFF75A
:100EE00079FF0346521E012B01D1002AF7D102B926
:100EF0000523184600BD000008B5012144F27D001D
:100F000000F096FC0121EC4800F082FC4FF6FF70E7
:100F1000ADF8000000208DF8030003208DF80200DA
:100F20004FF40070ADF8000018208DF80300032086
:100F30008DF802006946E14800F0E6F94FF4806060
:100F4000ADF8000004208DF803006946DB4800F08E
:100F5000DBF90420ADF8000018208DF80300032011
:100F60008DF802006946D54800F0CEF90820ADF8AA
:100F7000000004208DF803006946D04800F0C4F951
:100F80004FF40060ADF8000004208DF803006946BE
:100F9000CB4800F0B9F94FF48060ADF8000018209C
:100FA0008DF8030003208DF802006946C54800F063
:100FB000ABF94FF40060ADF8000004208DF8030099
:100FC00003208DF802006946BE4800F09DF94FF4F9
:100FD0008060ADF8000018208DF8030003208DF824
:100FE00002006946B64800F08FF94FF40060ADF892
:100FF000000004208DF8030003208DF802006946EC
:10100000AF4800F081F903208DF802004FF4006032
:10101000ADF8000048208DF803006946A74800F0AD
:1010200073F94FF48050ADF8000018208DF80300DC
:101030006946A24800F068F90820ADF800001020C9
:101040008DF8030003208DF8020069469C4800F0EB
:101050005BF9002208219A4800F028FA1020ADF828
:1010600000008DF8030003208DF8020069469448C3
:1010700000F04AF900221021914800F017FA2020D0
:10108000ADF8000010208DF8030003208DF8020059
:1010900069468B4800F038F900222021884800F08A
:1010A00005FA0120ADF8000004208DF803000320AC
:1010B0008DF802006946814800F026F90120ADF85C
:1010C000000048208DF8030003208DF802006946D7
:1010D0007C4800F019F94FF40050ADF800001020E2
:1010E0008DF8030003208DF802006946744800F073
:1010F0000BF901225103724800F0D8F91020ADF825
:10110000000014208DF8030003208DF802006946CA
:101110006A4800F0F9F801221021684800F0C6F989
:101120004020ADF8000010208DF8030003208DF85A
:1011300002006946614800F0E7F8002240215F485C
:1011400000F0B4F90820ADF8000010208DF803007D
:1011500003208DF8020069465A4800F0D5F80022B5
:101160000821584800F0A2F94FF48050ADF8000073
:1011700010208DF8030003208DF8020069465048C6
:1011800000F0C2F800224FF480514D4800F08EF973
:101190004FF40040ADF8000010208DF8030003204C
:1011A0008DF802006946464800F0AEF80122D103EE
:1011B000434800F07BF94FF48040ADF80000102068
:1011C0008DF8030003208DF8020069463C4800F0CA
:1011D0009BF8012291033A4800F068F90220ADF82B
:1011E000000010208DF8030003208DF802006946EE
:1011F000324800F089F800220221304800F056F908
:101200008020ADF8000048208DF8030003208DF801
:10121000020069462A4800F077F84020ADF8000047
:1012200010208DF8030003208DF802006946244841
:1012300000F06AF800224021214800F037F94FF40D
:101240008070ADF8000010208DF8030003208DF8A9
:10125000020069461A4800F057F800224FF48071E6
:10126000174800F023F94FF40070ADF8000010208B
:101270008DF8030003208DF802006946104800F045
:1012800043F800224FF400710D4800F00FF94FF4BD
:101290000050ADF8000010208DF8030003208DF8F9
:1012A00002006946074800F02FF800224FF4005171
:1012B000044800F0FBF808BD02001E1A00080140B7
:1012C000000C01400010014030B500228B071C0FBC
:1012D0000F2303FA04F20B4B8C1053F82430934382
:1012E000084C8D1044F8253023468C1053F82430D8
:1012F0008C07240F00FA04F42343024C8D1044F8A9
:10130000253030BD080001402DE9F041024600259E
:101310000026002000230024002791F803C00CF0D1
:101320000F0591F803C01CF0100F03D091F802C014
:101330004CEA0505B1F800C01CF0FF0F31D014686D
:1013400000202BE04FF0010C0CFA00F3B1F800C0C4
:101350000CEA03069E4220D183004FF00F0C0CFADA
:1013600003F7BC4305FA03FC4CEA040491F803C0FC
:10137000BCF1280F06D14FF0010C0CFA00FCC2F8AA
:1013800014C00AE091F803C0BCF1480F05D14FF03A
:10139000010C0CFA00FCC2F810C0401C0828D1D384
:1013A0001460B1F800C0BCF1FF0F34DD54680020B8
:1013B0002EE000F1080C4FF0010808FA0CF3B1F828
:1013C00000C00CEA03069E4221D183004FF00F0CAF
:1013D0000CFA03F7BC4305FA03FC4CEA040491F849
:1013E00003C0BCF1280F05D100F1080C08FA0CF875
:1013F000C2F8148091F803C0BCF1480F07D100F186
:10140000080C4FF0010808FA0CF8C2F81080401CD4
:101410000828CED35460BDE8F0810000F0B50A463C
:10142000002300240021002500F00046B6F1004F03
:1014300002D11D4EF16901E01B4E7168C0F30345F6
:1014400083B200F44016B6F5401F08D121F0706158
:10145000154E766826F07066134F7E6012E000F439
:101460008016B6F5801F06D1032606FA05F4A143BF
:1014700041F0706106E0460D360103FA06F6B1430D
:1014800041F0706122B1460D360103FA06F6314390
:1014900000F00046B6F1004F02D1034EF16101E0C9
:1014A000014E7160F0BD0000000001400AB1016111
:1014B00000E04161704700000AE006A001F066FA12
:1014C00072B671B64FF4FA6001F0F2FF00F058F90D
:1014D000F3E700000D0A4552524F525F4841524413
:1014E0005F4641554C540D0A000000000146CA17E2
:1014F00001EB92729210B1EB820212D1642091FB47
:10150000F0F200FB121050B94FF4C87091FBF0F2EA
:1015100000FB121008B9012070470020FCE70120F1
:10152000FAE70020F8E700000AE006A001F02EFA32
:1015300072B671B64FF4FA6001F0BAFF00F020F90C
:10154000F3E700000D0A4552524F525F4D454D0DD5
:101550000A00000005A001F019FA72B671B64FF446
:10156000FA6001F0A5FF00F00BF900000D0A4552EA
:10157000524F525F4E4D490D0A00000008B54FF41E
:10158000E06000F0F3F825208DF8000002208DF8CF
:10159000010000208DF8020001208DF8030068464C
:1015A00000F0A2F84FF4E06000F0E0F826208DF89B
:1015B000000000208DF801008DF8020001208DF858
:1015C0000300684600F090F84FF4E06000F0CEF8B9
:1015D00027208DF8000001208DF8010000208DF8F3
:1015E000020001208DF80300684600F07DF84FF4FA
:1015F000E06000F0BBF834208DF8000001208DF889
:10160000010000208DF8020001208DF803006846DB
:1016100000F06AF84FF4E06000F0A8F835208DF88B
:10162000000001208DF8010000208DF8020001204B
:101630008DF80300684600F057F84FF4C06000F0E2
:1016400095F829208DF8000000208DF801008DF814
:1016500002008DF80300684600F046F84FF4C060C1
:1016600000F084F806208DF8000000208DF80100BD
:101670008DF802008DF80300684600F035F84FF44D
:10168000C06000F073F807208DF8000000208DF88E
:1016900001008DF802008DF80300684600F024F880
:1016A0004FF4C06000F062F809208DF800000020BF
:1016B0008DF801008DF802008DF80300684600F0F7
:1016C00013F84FF4A06000F051F81D208DF80000D1
:1016D00000208DF801008DF8020001208DF8030034
:1016E000684600F001F808BD70B5002100230F2204
:1016F000C4784CB31A4C246804F4E064C4F5E06484
:101700004FEA1421C1F1040322FA01F2447804FAE9
:1017100003F1847804EA020444EA01014FEA01116A
:10172000104C0678A155047804F01F054FF0010411
:1017300004FA05F405784FEA65154FF0E02606EB4C
:101740008505C5F8004109E0047804F01F0501246F
:10175000AC40054D0678761145F8264070BD000076
:101760000CED00E000E400E080E100E0024901430C
:10177000024A1160704700000000FA050CED00E01D
:101780000848006800F4E060074940EA010000F101
:1017900004004FF0E021C1F80C0DBFF3408F00BFF3
:1017A000FEE700000CED00E00000FA0508480068C4
:1017B00000F4E060074940EA010000F104004FF046
:1017C000E021C1F80C0DBFF3408F00BFFEE7000021
:1017D0000CED00E00000FA050149086270470000C6
:1017E00000000E4205A001F0D1F872B671B64FF4B8
:1017F000FA6001F05DFEFFF7C3FF00000D0A4552DD
:10180000524F525F50454E4453560D0A000000009F
:1018100029B1064AD2690243044BDA6104E0034A63
:10182000D2698243014BDA61704700000010024028
:1018300029B1064A92690243044B9A6104E0034AC3
:1018400092698243014B9A61704700000010024088
:1018500010B500F03BF8012000F0FAF800BF21209D
:1018600000F0C4F80028FAD01020FFF7D9FA0220BF
:10187000FFF716FB002000F0DFF8002000F0FAF878
:10188000002000F0EBF84FF46011002000F004F9A4
:10189000012000F0FBF800BF392000F0A7F8002875
:1018A000FAD0022000F006F900BF00F0BDF80828C9
:1018B000FBD1012144F27D00FFF7BAFF012102486C
:1018C000FFF7A6FF10BD000002001E1A0F480068B7
:1018D00040F001000D490860084640680C49084086
:1018E0000A494860084600680A49084007490860F4
:1018F0000846006820F4802008600846406820F40C
:10190000FE0048604FF41F008860704700100240DE
:101910000000FFF8FFFFF6FE30B500210022002492
:1019200000232D4D6D6805F00C0121B1042905D06F
:10193000082923D105E0294D056022E0274D0560E7
:101940001FE0254D6D6805F47012234D6D6805F498
:101950008034022505EB92421CB9214D55430560A8
:101960000BE01D4D6D6815F4003F03D01C4D554331
:10197000056002E0194D5543056002E0174D056012
:1019800000BF00BF144D6D6805F0F0010909154D49
:101990006B5C0568DD4045600F4D6D6805F4E061E6
:1019A000090A104D6B5C4568DD4085600A4D6D6825
:1019B00005F46051C90A0B4D6B5C4568DD40C5609C
:1019C000054D6D6805F44041890B074D6B5CC5689A
:1019D000B5FBF3F5056130BD0010024000127A003E
:1019E00000093D002C0000203C00002010B50146FD
:1019F0000022002300204A11012A02D1094C236849
:101A000006E0022A02D1074C236A01E0054C636A12
:101A100001F01F02012494401C4201D0012000E08B
:101A2000002010BD001002400248406800F00C0089
:101A3000704700000010024001460020034A506831
:101A400020F0F00008435060704700000010024092
:101A50000149086070470000000042420146002032
:101A6000034A506820F4E06008435060704700006B
:101A70000010024001460020034A506820F46050E4
:101A800040EAC100506070470010024001490866FA
:101A9000704700000000424202460020044B586894
:101AA00020F47C1042EA01031843014B5860704750
:101AB0000010024001460020034A506820F0030055
:101AC00008435060704700000010024010B502202B
:101AD00000F046F850B14FF40030FFF7B5F800F0D1
:101AE000DFF8022000F004F800F0DAF810BD000082
:101AF000054909886FEA000292B201EA0201034A2D
:101B0000A2F804187047000004280040002000409C
:101B10000348008840F010000249A1F8040870470B
:101B20000428004000200040044800884FF6EF7170
:101B300000EA01000249A1F80408704704280040A7
:101B4000002000400021044801880448B0F818082B
:101B500041EA0040704700001C280040002000407F
:101B600001460020074A128802EA0102D0B2064A62
:101B7000B2F800280A4202D008B1012000E000209B
:101B800070470000042800400020004010B50120EC
:101B9000FFF7E6FF70B10120FFF7AAFF00F080F821
:101BA000FFF7D0FF0449884204D1002000F066F816
:101BB00000F076F810BD0000805101002DE9F05FC3
:101BC00006460F4690469946DDE90AAB0024B6F575
:101BD000FA6F03DB40F63300864202DD0120BDE8E8
:101BE000F09F40F2B2750AE02846FFF77FFC10B183
:101BF0001E48044401E01E480444681C05B2B54276
:101C0000F2DB781E47B2002510E01A48405740F238
:101C1000A321484304EBC0143046FFF767FC18B11A
:101C2000012D01D114480444681C05B2BD42ECDB0F
:101C3000A8F1010040F2A321484304EBC014C9EB12
:101C40004910C0EB092004EB0014CAEB0A1004EBA6
:101C500080045C440120FFF7BFFD00F021F820461E
:101C600000F00CF800F01CF80020B8E70085E20155
:101C70008033E101FC5700088051010000B50246A5
:101C8000FFF746FF100C044908800449A1F81C28FE
:101C9000FFF74AFF00BD0000182800400020004068
:101CA00000BF0348008810F0200FFAD070470000F2
:101CB0000428004005A000F069FE72B671B64FF42A
:101CC000FA6001F0F5FBFFF75BFD00000D0A4552DD
:101CD000524F525F5356430D0A0000002DE9F04168
:101CE00004460F4616464FF496711748FEF755FA0C
:101CF00000201649086000250BE0615D144800F0E3
:101D00003AFD00BF4021124800F068FC0028F9D0DD
:101D10006D1C605D0028F0D1012208210D48FFF7FD
:101D2000C5FB304601F0C4FB002208210948FFF73B
:101D3000BDFB39460448FEF74AFA10B10120BDE860
:101D4000F0810020FBE7000098050020040000203F
:101D500000440040000C014010B500F001F810BD37
:101D6000002100202E4A126842F480322C4B1A6067
:101D700000BF2B4A126802F40030491C10B9B1F5BB
:101D8000A06FF6D1264A126812F4003F01D001205C
:101D900000E00020012842D1224A126842F01002DD
:101DA000204B1A601A46126822F003021A601A4683
:101DB000126842F002021A60194A5268184B5A60BF
:101DC0001A4652685A601A46526842F480625A6053
:101DD0001A46526822F47C125A601A46526842F43B
:101DE000E8125A601A46126842F080721A6000BF08
:101DF0000B4A126812F0007FFAD0094A526822F0AA
:101E00000302074B5A601A46526842F002025A60B7
:101E100000BF034A526802F00C02082AF9D1704749
:101E200000100240002002407047000010B5134827
:101E3000006840F0010011490860084640681049F8
:101E400008400E494860084600680E4908400B49A2
:101E500008600846006820F4802008600846406852
:101E600020F4FE0048604FF41F008860FFF774FF05
:101E70004FF000600449086010BD000000100240EF
:101E80000000FFF8FFFFF6FE08ED00E010B50121AD
:101E9000880700F077F860B10121880700F03CF86E
:101EA00000214FF0804000F03AF800204FF08041D0
:101EB000888410BD10B501210E4800F063F8B8B158
:101EC00001210C4800F028F80B48006840B90122B5
:101ED00010210A48FFF7EAFA01200749086007E0E5
:101EE000002210210548FFF7E1FA002002490860AE
:101EF00010BD00000004004028000020000C01403C
:101F000021B1028842F08002028004E002884FF68C
:101F10007F731A4002807047CA430282704721B122
:101F2000028842F00102028004E002884FF6FE734C
:101F30001A400280704700000EB542F21070ADF8F2
:101F400004004FF4E150ADF800000020ADF80600A9
:101F5000ADF8020069460A4800F032F8012108484D
:101F6000FFF7CEFF01210648FFF7D6FF01221146F9
:101F7000034800F018F801210148FFF7D0FF0EBD1B
:101F80000004004030B50246002000230024158ADA
:101F900005EA0103958905EA010413B10CB101209A
:101FA00000E0002030BD10B51AB183890B43838156
:101FB00004E08389CC43A4B22340838110BD000098
:101FC000002202881D4B98420ED01D4B98420BD028
:101FD000B0F1804F08D01B4B984205D01A4B984265
:101FE00002D01A4B984204D14FF68F731A404B8897
:101FF0001A43174B984207D0164B984204D04FF61D
:10200000FF431A40CB881A4302808B8883850B8854
:1020100003850A4B98420BD0094B984208D00E4BCF
:10202000984205D00D4B984202D00D4B984201D1F9
:102030000B7A03860123838270470000002C014045
:10204000003401400004004000080040000C004043
:1020500000100040001400400040014000440140D6
:102060000048014010B508211F4800F0B7FA30B110
:1020700008211D4800F048F91B4800F077FB40F2AA
:102080002551194800F0B7FA40B3174800F06EFB2D
:10209000C4B216480068042803D12146144800F051
:1020A0006AFB14480068C8B15921114800F063FB6D
:1020B0002146114800F05FFB00BF40210C4800F0B2
:1020C0008DFA0028F9D02146094800F054FB00BFE2
:1020D0004021074800F082FA0028F9D02021024868
:1020E00000F012F910BD0000004C00401400002068
:1020F000003801401C0000200048004010B50821B5
:10210000154800F06BFA30B10821134800F0FCF8D4
:10211000114800F02BFB40F225510F4800F06BFAFC
:10212000A8B10D4800F022FBC4B2204601F036FAF7
:102130000A48006805280AD12146094800F01BFB1F
:1021400000BF4021064800F049FA0028F9D02021BC
:10215000014800F0D9F810BD0050004014000020E4
:102160000038014010B50821194800F037FA30B1A5
:102170000821174800F0C8F8154800F0F7FA40F2B7
:102180002551134800F037FAE0B1114800F0EEFA9B
:1021900010490870084601780F4802680068401C22
:1021A0000D4B18600D48815400200C491A461268E6
:1021B00088541846006840F21451884202D9002021
:1021C000194608602021024800F09EF810BD00006A
:1021D000003801402400002000000020840000207E
:1021E00010B50821214800F0F9F930B108211F4845
:1021F00000F08AF81D4800F0B9FA40F225511B485A
:1022000000F0F9F980B3194800F0B0FA18490870E5
:102210001848006802280BD108460178164800F0DB
:10222000AAFA00BF4021144800F0D8F90028F9D0DC
:102230000F480178114802680068401C0F4B186075
:102240000F48815400200E491A46126888541846D7
:10225000006840F21451884202D9002019460860F3
:102260002021024800F050F810BD0000004400405A
:102270002500002014000020003801400400002048
:102280009805002010B508211B4800F0A7F930B1CF
:102290000821194800F038F8174800F067FA40F2B2
:1022A0002551154800F0A7F900B3134800F05EFA75
:1022B000C4B212480068C8B15821114800F05BFA56
:1022C0002146104800F057FA00BF40210C4800F0AA
:1022D00085F90028F9D02146094800F04CFA00BFE2
:1022E0004021074800F07AF90028F9D0202102485F
:1022F00000F00AF810BD0000004800401C0000205B
:1023000000380140004C004001F40072B2F5007F3B
:1023100000D100BFCA430280704721B1828942F4D4
:102320000052828104E082894DF6FF731A40828157
:102330007047000000B585B0012144F20400FFF7AA
:1023400077FA4FF40070ADF8100018208DF81300E4
:1023500003208DF8120004A99748FEF7D5FF4FF42B
:102360008060ADF8100004208DF8130003208DF874
:10237000120004A99048FEF7C7FF4FF47A3000908E
:102380000020ADF80400ADF80600ADF80800ADF887
:102390000C000C20ADF80A006946884800F07AF974
:1023A000012240F22551854800F04FF90121834870
:1023B000FFF7B3FF01214804FFF72AFA01210420A7
:1023C000FFF736FA0420ADF8100018208DF813003E
:1023D00003208DF8120004A97748FEF795FF082026
:1023E000ADF8100004208DF8130003208DF81200C2
:1023F00004A97148FEF788FF4FF4E13000900020F7
:10240000ADF80400ADF80600ADF80800ADF80C001A
:102410000C20ADF80A006946694800F03BF901223A
:1024200040F22551664800F010F901216448FFF799
:1024300074FF01218804FFF7EBF901210820FFF761
:10244000F7F94FF48060ADF8100018208DF81300F4
:1024500003208DF8120004A95A48FEF755FF4FF4E7
:102460000060ADF8100028208DF8130003208DF8CF
:10247000120004A95348FEF747FF4FF4164000909E
:102480000020ADF80400ADF80600ADF80800ADF886
:102490000C000C20ADF80A0069464B4800F0FAF831
:1024A000012240F22551484800F0CFF8012146486A
:1024B000FFF733FF0121C804FFF7AAF9012110201B
:1024C000FFF7B6F94FF48060ADF8100018208DF8D2
:1024D000130003208DF8120004A93C48FEF714FFF6
:1024E0004FF40060ADF8100004208DF813000320B5
:1024F0008DF8120004A93548FEF706FF4FF4164088
:1025000000900020ADF80400ADF80600ADF808001A
:10251000ADF80C000C20ADF80A0069462C4800F01C
:10252000B9F8012240F22551294800F08EF8012126
:102530002748FFF7F2FE01210805FFF769F901219D
:102540003020FFF775F94FF48050ADF810001820D7
:102550008DF8130003208DF8120004A91B48FEF724
:10256000D3FE0420ADF810008DF8130003208DF881
:10257000120004A91748FEF7C7FE4FF4165000904A
:102580000020ADF80400ADF80600ADF80800ADF885
:102590000C000C20ADF80A0069460F4800F07AF8EC
:1025A000012240F225510C4800F04FF801210A4861
:1025B000FFF7B3FE05B000BD000801400038014040
:1025C00000440040000C0140004800400010014061
:1025D000004C004000140140005000400246002022
:1025E000B1F5007F00D100BF13880B4201D001205C
:1025F00000E00020704770B502460024002300254B
:102600000020A1F510666A3E00D100BFC1F342155B
:1026100001F01F03012606FA03F3012D02D196896A
:10262000334006E0022D02D1168A334001E0968A3B
:1026300033400C12012606FA04F41688344013B114
:102640000CB1012000E0002070BDF0B5034600246D
:10265000002600250020A1F510676A3F00D100BFC9
:102660001846C1F3421401F01F06012707FA06F5C8
:10267000012C01D10C3004E0022C01D1103000E01B
:1026800014301AB107682F43076002E00768AF43B0
:102690000760F0BD2DE9F04786B005460E460024E0
:1026A000A24600BFA1460027B08900B100BF2F4657
:1026B0002C8A4CF6FF700440F08804432C82AC89CD
:1026C0004EF6F3100440B0883189084371890843FD
:1026D0000443AC81AC8A4FF6FF400440B089044308
:1026E000AC8201A8FFF718F91F48874202D1DDF834
:1026F00010A001E0DDF80CA0A88910F4004F08D06C
:102700000AEBCA0000EB0A1031684900B0FBF1F88F
:1027100007E00AEBCA0000EB0A1031688900B0FB41
:10272000F1F86420B8FBF0F004012009642101FBFA
:102730001089A88910F4004F08D0322000EBC9009E
:10274000B0FBF1F000F00700044308E0322000EB9A
:1027500009106421B0FBF1F000F00F0004432C815C
:1027600006B0BDE8F08700000038014001468888C7
:10277000C0F308007047C1F3080282807047000070
:1027800000B585B0002201212748FEF78FFE082101
:102790002648FEF7F5F860B125A000F0F7F86A4684
:1027A00000212248FEF780F908212048FEF788F82A
:1027B00000BF40211D48FEF7E3F860B121A000F002
:1027C000E5F86A4601211948FEF76EF940211748DD
:1027D000FEF776F800BF02211448FEF7D1F848B1A1
:1027E0006A4600211148FEF75FF902210F48FEF703
:1027F00067F800BF10210D48FEF7C2F860B116A0BF
:1028000000F0C4F86A4601210848FEF74DF910218E
:102810000648FEF755F800BF012211460248FEF7B0
:1028200045FE05B000BD0000000C01400064004002
:102830000D0A43414E206572726F723121210D0ADB
:10284000000000000D0A43414E206572726F723223
:1028500021210D0A000000000D0A43414E2065723F
:10286000726F723321210D0A000000000AE006A0F9
:1028700000F08CF872B671B64FF4FA6000F018FEF2
:10288000FEF77EFFF3E700000D0A4552524F525FFC
:1028900055534147450D0A002DE9F04107460E46C4
:1028A00014461D464FF00008E1B2304600F086FDA8
:1028B000A84206D015A000F069F84FF0FF30BDE83F
:1028C000F08122463146384600F00EFE4FF47A7011
:1028D00000F0EEFDFF2240F214511B48FDF756FCBC
:1028E00022461949384600F0F0FDE1B2164800F0E2
:1028F00065FDA84205D015A000F048F86FF0010072
:10290000DDE719A000F042F80120D8E70D0A627552
:1029100066206461746120637263206572726F72F5
:10292000202C63757272656E74206461746120611D
:10293000626F72742C706C6561736520726574725D
:10294000792121210D0A0000580F00200D0A72651F
:10295000616420666C6173682064617461206572D3
:10296000726F723A0D0A00000D0A77726974652061
:102970007265616420636865636B20666C6173686F
:10298000206F6B2B2B2B2B2B0D0A00000FB4054B4C
:1029900010B503A9044A029800F0DAF810BC5DF8FB
:1029A00014FB0000793500087C0000200FB4084BB0
:1029B00010B504A902AA039800F0CAF8044602A9B7
:1029C000002000F059FC204610BC5DF814FB00000C
:1029D00079320008004870478000002002E008C8F3
:1029E000121F08C1002AFAD170477047002001E089
:1029F00001C1121F002AFBD1704700002DE9FF5FC3
:102A0000DDE90210020DDDF838B001430FD10F9857
:102A100001244AA3012807D000980F9AC0E9003189
:102A2000C0E90242BDE8FF9F6FEA0B01F4E7A2F2A2
:102A3000FF3244F61050424315140F9801280FD06E
:102A4000A5EB0B00401C4FF000043D4EDFF8F49066
:102A5000B0F1000AA046C0F1000717DB074615E0F9
:102A6000CBF10000EFE7F80707D022463346404697
:102A70004946FDF7B4FC8046894622463346204647
:102A80003146FDF7ACFC04460E467F10002FEAD11C
:102A9000DDE90201BAF1000F42464B4602DAFDF7CA
:102AA0009EFC01E0FDF729FE04460E460022264B5F
:102AB000FDF7AAFE03D84FF0FF30014607E00022E1
:102AC000224B20463146FDF7E5FBFDF785FE10243D
:102AD00009E0002C0ADB0A220023FDF707FD019B19
:102AE00030321A55641E50EA0102F2D1641C019A78
:102AF000C4F1110314440F9A012A07D0012208439C
:102B000001D15B450DDD00226D1C0DE0084303D1B2
:102B1000A3EB0B056D1E09E000204FF0110B0F9089
:102B20008BE701DA00226D1E002A86D000980F99EB
:102B3000C0E90231C0E9004574E700003000000040
:102B4000000024400000F03F0000F0430000E03FA0
:102B50002DE9FF4F95B006469A460F460025F2E153
:102B6000252878D10024761CFB4AA0460121069432
:102B70003378203B01FA03F0104202D00443761C64
:102B8000F6E730782A2811D06FF02F023078A0F1C4
:102B90003001092915D8069944F0020401EB81019E
:102BA00002EB41010844761C0690EFE701CF069046
:102BB000002803DA404244F40054069044F0020432
:102BC000761C30782E2817D116F8010F44F0040433
:102BD0002A280ED06FF02F023078A0F13001092999
:102BE0000AD808EB880102EB410100EB0108761CD2
:102BF000F2E757F8048B761C30786C280FD006DC8F
:102C00004C2817D068280DD06A2814D104E0742805
:102C100010D07A280FD10DE044F400140AE044F4F7
:102C2000801401E044F440147178814202D1761C92
:102C300004F58014761C3078864666280AD012DCAB
:102C4000582872D008DC80B3452803D0462801D02C
:102C500047281AD196E118E0632832D0642875D04D
:102C6000652812D18EE170286ED008DC67286CD000
:102C700069286BD06E280DD06F2806D1A9E0732883
:102C800028D075286FD078286ED052461799904773
:102C90006D1C56E1C4F30250022807D003280BD064
:102CA000042801CF0BD005604BE150E101CF4FEA82
:102CB000E571C0E9005144E101CF058041E10570B3
:102CC0003FE101CF8DF8000000208DF80100EB46B8
:102CD000012003E057F804BB4FF0FF3061074FF0CD
:102CE000000102D40DE009F10101894641450FDAE6
:102CF0008145F8DB1BF809100029F4D108E009F13F
:102D0000010189468142FADB1BF809100029F6D13E
:102D100006985346A0EB090080462146179A00F01A
:102D200094FA284400EB090505E047E01BF8010B85
:102D3000524617999047B9F10109F7D253462146F7
:102D40004046179AFAE001E03AE01BE10A21C4F399
:102D500002524FF0000B0091022A06D001CFC1179A
:102D6000032A08D009E022E023E0FF1D27F007072F
:102D7000F7E8020105E000B2C117042A01D140B210
:102D8000C117002906DA0A460021404261EB020120
:102D90002D2202E0220504D52B228DF804200122E9
:102DA00003E0E20701D02022F7E7914653E00A2131
:102DB00010E010204FF0000B00900EE0102109E011
:102DC00010204FF0000B44F004044FF0080800906E
:102DD00003E008214FF0000B0091C4F30252022AD5
:102DE00004D001CF0021032A06D007E0FF1D27F001
:102DF0000707F7E8020105E080B20021042A01D1AB
:102E0000C0B200214FF00009220724D5BEF1700F97
:102E10002AD0009B83F0100353EA0B0309D150EA38
:102E2000010206D030228DF804208DF805E0022240
:102E30009146009B83F0080353EA0B030BD150EA41
:102E4000010201D1620706D530228DF804204FF02F
:102E50000109A8F1010841A2BEF1580F00D044A217
:102E600003920FAA02920FE040228DF80420012263
:102E7000DEE75B46009AFDF739FB039B9B5C029AF9
:102E8000A2F101020292137050EA0102F1D10298FC
:102E900007A9A1EB000000F1200B600702D524F484
:102EA000803401E04FF00108002041465A46D845E1
:102EB00001DDA1EB020000EB0B01009006984944F4
:102EC000A0EB01000690E00306D453462146179A72
:102ED000069800F0BAF90544002008E001A852461F
:102EE00010F80800179990476D1C08F10100804602
:102EF0004845F3DBE0030CD553462146179A069864
:102F000000F0A3F9054404E0302052461799904799
:102F10006D1C0099481E00900029F5DC08E002981D
:102F2000029952460078491C0291179990476D1CEE
:102F3000BBF10001ABF1010BF1DC67E100F072F9CC
:102F4000054406F10106307800287FF409AE19B077
:102F50002846BDE8F08F00000928010030313233E7
:102F60003435363738394142434445460000000085
:102F700030313233343536373839616263646566EF
:102F800000000000600701D44FF0060807F10707B2
:102F900027F00707A0A1F7E8020C0CF000431A0085
:102FA00007D19EA1220504D49DA1E20701D1AFF271
:102FB000440112912CF0004C7146BEF1650F0ED009
:102FC00007DC45290BD0462920D0BEF1470F3DD163
:102FD0003DE066291AD0BEF1670F37D137E00023F4
:102FE00011224146B8F1110F00DA4A1CCDE9002345
:102FF0000246634607A902A8FFF700FD01200090E2
:103000004FF0000B08F10109039868E04FF0004110
:103010000F910123CDE900830246634607A902A868
:10302000FFF7ECFCDDE904904FF0000B20B90399A9
:1030300008F1010001EB0009B8EB090003D4C0F16D
:10304000FF3B08F10109A9EB0800009048E0414668
:10305000B8F1010F01DA0121884600231122B8F1ED
:10306000110F00DC0A46CDE900230246634607A99A
:1030700002A8FFF7C3FC4FF0000BC14620070FD496
:103080000499414503DA894601E0A9F10109B9F142
:10309000010F05DD0299A9F10100085C3028F4D088
:1030A0000399414502DA11F1040F03DA01200F916F
:1030B000009015E0002903DC8B44A9EB010005E03A
:1030C000481C484503DD039800F10100814603993F
:1030D000A1EB0B0000F1010000904FF000400F90B9
:1030E000200705D40098484502DB4FF0FF300090E0
:1030F00000210F980DF147088DF84710B0F1004FEF
:1031000026D0022001902B2013900F9800280CDA73
:1031100040420F902D20139007E00A210F98FDF7F1
:10312000CFF930310F9008F8011D0199481E019028
:103130000029F2DC0F980028EFD1A8F101021399C1
:103140001170317801F0200141F0450108F8021DAD
:1031500010A9A1EB080000F1070001901298007877
:1031600000B1012000EB0901009801EBE07101982A
:1031700001440698A0EB0100A0F101000690E003D5
:1031800006D453462146179A069800F05EF8054487
:103190001298007820B152461799904705F1010521
:1031A000E00322D553462146179A069800F04DF8C1
:1031B00005441AE0BBF1000F07DB0499594504DD13
:1031C000029911F80B00179901E017993020524627
:1031D000904700986D1C401E0BF1010B009004D12C
:1031E0002E205246179990476D1CB9F10001A9F1A4
:1031F0000109DFDC05E018F8010B524617999047EA
:103200006D1C0199481E01900029F4DC53462146AB
:10321000179A069892E600002D0000002B0000008F
:10322000200000002DE9F0410446002517461E4607
:10323000880405D406E039462020B04705F1010591
:10324000641EF8D52846BDE8F0812DE9F04104461A
:103250000025302790461E46C80300D42027880446
:1032600005D506E041463846B04705F10105641E24
:10327000F8D52846BDE8F0810A68531C0B60107031
:10328000704700002DE9F04104460F461646002520
:103290004FF496711148FCF780FF00BF0BE0615DB1
:1032A0000F48FFF768FA00BF40210D48FFF796F975
:1032B0000028F9D06D1C605D0028F0D10949086034
:1032C000304600F0F5F839460448FCF780FF10B1AD
:1032D0000120BDE8F0810020FBE70000D80B0020B2
:1032E000004C00400C00002070B50446002504206E
:1032F000174908604CB917A0FFF748FB00220221CC
:103300001B48FEF7D3F8012070BD1AA0FFF73EFB63
:10331000012202211648FEF7C9F84FF4FA6000F0C6
:10332000C7F800250CE04FF47A7218A118A0FFF737
:10333000A9FF20B117A0FFF729FB0120E4E76D1CCE
:10334000052DF0DB18A0FFF721FB0020DCE70000D3
:10335000140000200D0A626C756520746F6F74682C
:103360002070776F6572206F66660D0A000000009E
:10337000000801400D0A626C756520746F6F7468F7
:103380002070776F6572206F6E0D0A004F4B000042
:1033900041540D000D0A626C75652073746172747E
:1033A000206F6B0D0A0000000D626C756520737450
:1033B000617274206572726F720A0000F0B5ADF52B
:1033C000017D05460E464FF400720F4901A8FCF737
:1033D000CBFE00240EE02046E11704EB1161C1F39F
:1033E00007272006040C2878784001A931F810003E
:1033F00044406D1C3000A6F10101CEB2EBD1204655
:103400000DF5017DF0BD0000F0550008002400BF5F
:1034100000BF0020244908600120FFF765FF01205C
:1034200000F02EFF4FF4FA6000F042F800BF2FE0EA
:103430000D211E48FFF79FF900BF40211B48FFF7F1
:10344000CDF80028F9D00A211848FFF794F900BFF9
:1034500040211648FFF7C2F80028F9D0412113484F
:10346000FFF789F900BF40211048FFF7B7F800289F
:10347000F9D042210D48FFF77EF900BF40210B48EB
:10348000FFF7ACF80028F9D01E2000F011F8641CFA
:10349000642CCDDB01200449086001F0D5F901203E
:1034A00001F07AF800BFFEE71C000020004C00404D
:1034B000002107E0002200E0521C43F2C8239A4298
:1034C000FAD3491C8142F5D3704710B5034600205A
:1034D00000BF03E01C580C54441CA0B29042F9DB1E
:1034E00010BD0246012070472DE9F04180460F468D
:1034F0001446FDF7E1FCE11704EB91718910B4EB80
:1035000081011BD0002504E0FF2079190855681CB3
:1035100085B2E11704EB91718910A4EB8101C1F12F
:103520000401A942F0DC2046E11704EB91718910F7
:10353000A4EB8101C1F1040121448CB2002515E006
:1035400000267819C0780643360278198078064339
:1035500036027819407806433602785D064308EB58
:1035600005003146FDF76AFC281D85B2A542E7DB60
:10357000FDF74CFCBDE8F08170B504460D46E1B2A4
:103580000548FFF7F8F800BF80210348FFF726F849
:103590000028F9D0204670BD00380140FA4909786A
:1035A00079B3FA490968062902D0FF297ED12FE1B3
:1035B000F749C978472972D1F549097947296ED168
:1035C000F349497941296AD10121F24A1160002168
:1035D000F14A116009E07822F049EF4B1B68CA54A8
:1035E000ED490968491CEC4A1160EB490968092951
:1035F000F1DB7821E94A921ED1720021E64A11607E
:103600000BE0F3E37822E5490A31E34B1B68CA5427
:10361000E1490968491CE04A1160DF4909680A2943
:10362000F0DB7821DD4A921E9175D1750021DA4ACE
:1036300011600AE07822D9491631D74B1B68CA5469
:10364000D5490968491CD44A1160D349096802293F
:10365000F0DB0021D04A11600AE07822CF4918310E
:10366000CD4B1B68CA54CC490968491CCA4A116031
:10367000C94909680429F0DB0021C74A11600AE042
:103680000022C6491C31C44B1B68CA54C249096890
:10369000491CC14A1160C04909680A29F0DBBC49CC
:1036A0004979562928D10421BA4A00E0FEE3116085
:1036B0000021B94A11601BE07822B949B64B1B685A
:1036C00001F82320B44B1B6801EB83014A70B44915
:1036D000B14B1B6801EB83018A70B149AE4B1B688B
:1036E00001EB8301CA70AC490968491CAA4A116000
:1036F000A94909680C29DFDBA5494979432971D11A
:103700000821A44A11600021A34A116009E078222F
:10371000A449A14B1B68CA549F490968491C9E4A89
:1037200011609D4909680A29F1DB78219D4A921EA2
:1037300011730021984A11600AE0782299490B31EF
:10374000954B1B68CA5494490968491C924A1160F8
:10375000914909680929F0DB7821924A921E9175F6
:1037600000218D4A11600AE078228E4915318A4B7A
:103770001B68CA5488490968491C874A11608649F0
:1037800009680A29F0DB7821864A921E82F8211006
:103790000021814A11600AE07822824920317E4B63
:1037A0001B68CA547C490968491C7B4A11607A49E4
:1037B00009680529F0DB0021774A11600AE07822C8
:1037C00078492531744B1B68CA5473490968491CF0
:1037D000714A1160704909680529F0DB00216E4AC1
:1037E00011600BE00EE078226E492A316A4B1B68AB
:1037F000CA5469490968491C674A116066490968E1
:103800000629F0DB2C2802D1FF21604A1160FEE37B
:1038100060490968012904D004297ED008297DD196
:10382000EDE02A2802D02C2879D190E00021564AD8
:1038300011705A49891EC97D302971D05749891E96
:10384000C97E2E290FD15549891E097F3039534A27
:10385000921E927E303A02EB820201EB42014F4A05
:10386000921E916220E04D49891E097F2E2916D1B2
:103870004A49891E897E303964225143474A921E43
:10388000D27E303A02EB820201EB42024349891EAA
:10389000497F30391144414A921E916204E04FF44D
:1038A0007A713E4A921E91623C49891E896A3E4A5B
:1038B000926991424ADC0021374A11600CE0374995
:1038C000354A1268895C384A334B1B68D1543249F7
:1038D0000968491C304A11602F4909680929EEDB43
:1038E00000212D4A11600EE02C490A312A4A126843
:1038F0008A5C2D490A31284B1B68CA54264909683D
:10390000491C254A1160244909680A29ECDB23492E
:10391000891EC97A244A517203E0B9E1F6E320E036
:1039200014E01E49891E897D11751C49891E097E76
:1039300011771A49891E4A7E1B494A771749891E01
:10394000896A194A91610121184A116055E01349A9
:10395000891E0978491C114A921E1170002151706C
:103960004BE00E49891E097809293ED2DFE801F0B3
:103970003D052023282B2E3338000849891E4A781C
:10398000891C885432E00000500000204C000020C8
:10399000440000204000002058000020A214002015
:1039A000D41400206E140020041500205C000020B8
:1039B000FF49C8721AE0FE494A780C31885415E074
:1039C000FB49887512E0FA49C8750FE0F8494A7852
:1039D000183188540AE0F6494A781A31885400BFF1
:1039E000F3494A781E31885400E000BF00BFF04917
:1039F0004978491CEE4A517000BF00BFD6E32A281F
:103A000002D02C287DD1FEE00021EA4A1170EA4A5A
:103A100011600121E94A1160E949097B412978D106
:103A20000021E84A11600DE0E5490D31E54A1268D0
:103A30008A5CE549E34B1B68CA54E2490968491CA2
:103A4000E04A1160DF4909680929EDDB0021DD4A00
:103A500011600EE0DA491731DA4A12688A5CDA49F5
:103A60000A31D84B1B68CA54D6490968491CD54A43
:103A70001160D44909680A29ECDBD149897DD24A11
:103A80001E3A82F82710CE4991F8211082F83210A0
:103A90000021CC4A11600EE0C9492231C94A12689E
:103AA0008A5CC9491731C74B1B68CA54C5490968A4
:103AB000491CC44A1160C34909680529ECDB00218F
:103AC000C04A11600EE0BE492731BE4A12688A5CC6
:103AD000BD491C31BB4B1B68CA54BA490968491C13
:103AE000B84A1160B74909680529ECDBB049097E7D
:103AF000B54A1E3A82F83310AD494A7EB2491E39A2
:103B000001E088E005E081F834200121AF4A11602E
:103B10007047AB49897D782974D00021A94A11608A
:103B20000DE0A7490D31A74A12688A5CA649A54B4A
:103B30001B68CA54A3490968491CA24A1160A149DB
:103B400009680929EDDB00219E4A11600EE09C49BD
:103B500017319C4A12688A5C9B490A31994B1B6851
:103B6000CA5498490968491C964A116095490968E0
:103B70000A29ECDB9249897D934A1E3A82F8271084
:103B80008F4991F8211082F8321000218D4A11607E
:103B90000EE08B4922318B4A12688A5C8A491731C0
:103BA000884B1B68CA5487490968491C854A1160BB
:103BB000844909680529ECDB0021824A11600EE086
:103BC0007F4927317F4A12688A5C7F491C317D4BCF
:103BD0001B68CA547B490968491C7A4A11607949B3
:103BE00009680529ECDB7249097E774A1E3A82F89A
:103BF00033106F494A7E74491E3981F834200121FF
:103C0000734A116042E06E490978491C6C4A117090
:103C1000002151703AE06A49097809292ED2DFE87B
:103C200001F0050A0D12151A1E23280064494A786E
:103C3000891C885423E06249087320E060494A786F
:103C40000D3188541BE05E49887518E05C494A785C
:103C50001731885413E05A4981F821000FE0584980
:103C60004A78223188540AE055494A7827318854E5
:103C700005E053494A782C31885400E000BF00BF6A
:103C80004F494978491C4E4A517000BF00BF8DE230
:103C90002A2802D02C287ED1DFE10021454A11706C
:103CA0004C49C978312977D100214B4A11604B4AE0
:103CB00011604B4A11604B4A11604B4A1160414AF6
:103CC0001160A2E0434908313E4A126801EB8201CB
:103CD000C97878296BD040490968491C3E4A11606F
:103CE0003C490831374A126801EB8201C978303902
:103CF000384A0832334B1B6802EB83029278303A21
:103D000002EB820201EB42010A2904DB3349096814
:103D1000491C324A11602F4908312A4A126801EBC6
:103D20008201C97830392B4A0832264B1B6802EBD6
:103D300083029278303A02EB820201EB42011429AD
:103D400004DB27490968491C254A116021490831CB
:103D50001C4A126801EB8201C97830391D4A0832C9
:103D6000184B1B6802EB83029278303A02EB820216
:103D700001EB42011E2904DB1A490968491C194A52
:103D80001160144908310F4A126801EB8201C978A9
:103D90003039104A01E068E13DE00832094B1B6808
:103DA00002EB83029278303A02EB82021FE027E0B6
:103DB000A0140020500000204C00002054000020DF
:103DC0006C14002058000020221500206400002000
:103DD00060000020CC140020680000206C0000204F
:103DE000700000207400002078000020F2E101EB58
:103DF0004201282904DBFF490968491CFD4A11607A
:103E0000FD490968491CFC4A1160FB4909680429FD
:103E1000FFF658AF20E1F949C97832297ED1042153
:103E2000F54A116083E0F5490831F34A126801EB65
:103E30008201C978782975D0F1490968491CF04A8E
:103E40001160EE490831EC4A126801EB8201C97831
:103E50003039EA4A0832E84B1B6802EB8302927859
:103E6000303A02EB820201EB42010A2904DBE54908
:103E70000968491CE34A1160E0490831DE4A1268CA
:103E800001EB8201C9783039DC4A0832DA4B1B6811
:103E900002EB83029278303A02EB820201EB42019C
:103EA000142906DBD8490968491C00E080E1D64A9C
:103EB0001160D2490831D04A126801EB8201C978F9
:103EC0003039CE4A0832CC4B1B6802EB8302927821
:103ED000303A02EB820201EB42011E2904DBCB499E
:103EE0000968491CC94A1160C4490831C24A1268AC
:103EF00001EB8201C9783039C04A0832BE4B1B68D9
:103F000002EB83029278303A02EB820201EB42012B
:103F1000282907DBB7490968491C01E00DE001E0E9
:103F2000B44A1160B4490968491CB34A1160B249E6
:103F300009680829FFF677AF8EE0B049C9783329C0
:103F400066D10821AC4A116081E0AC490831AA4A27
:103F5000126801EB8201C978782973D0A8490968F1
:103F6000491CA74A1160A5490831A34A126801EB10
:103F70008201C9783039A14A08329F4B1B6802EB95
:103F800083029278303A02EB820201EB42010A2965
:103F900004DB9C490968491C9A4A11609749083119
:103FA000954A126801EB8201C9783039934A083288
:103FB000914B1B6802EB83029278303A02EB82024B
:103FC00001EB4201142904DB8F490968491C8E4A20
:103FD00011608A490831884A126801EB8201C97868
:103FE0003039864A0832844B1B6802EB8302927890
:103FF000303A02EB820201EB42011E2904DB8349C5
:104000000968491C814A11607C49083101E0E0E0FF
:1040100022E0794A126801EB8201C9783039774A87
:104020000832754B1B6802EB83029278303A02EB40
:10403000820201EB4201282904DB6E490968491C10
:104040006C4A11606C490968491C6B4A11606A49E5
:1040500009680C29FFF679AFA2E068490978491C84
:10406000664A1170002151709AE064490978132959
:1040700074D2DFE801F00A0D2A2B343536404C4D5E
:104080004E5A656667747F8081005C49887080E065
:104090005A49C870C978312903D10021574A516063
:1040A00012E05649C978322903D10421534A51609C
:1040B0000AE05249C978332903D108214F4A516097
:1040C00002E008214D4A516063E062E04B494A68D2
:1040D000083101EB8201494A5278885459E058E08E
:1040E00057E046494A68083101EB8201891C434A7E
:1040F000527888544DE041494968491C3F4A08328A
:1041000002EB8101083A5278885442E04AE040E0EC
:104110003FE03A494968491C384A083202EB8101BC
:10412000891C083A5278885433E034494968891C1C
:10413000324A083202EB8101083A5278885428E06A
:1041400027E026E02D494968891C2C4A083202EBF9
:104150008101891C083A527888541AE018E02749EE
:104160004968C91C254A083202EB8101083A527895
:1041700088540EE00DE00CE020494968C91C1F4A34
:10418000083202EB8101891C083A5278885400E019
:1041900000BF00BF19494978491C184A517000BF37
:1041A00000BF03E000211A4A117000BF00BF10E0F9
:1041B0001849194A1268885417490968491C164A4F
:1041C000116011460968072902DD0021104A1170AB
:1041D00000BF33E0242831D10E4900220A608A80D2
:1041E0008A71087001210A4A117000210B4A11607E
:1041F000012115E07800002058000020CC14002098
:10420000680000206C000020700000207400002076
:1042100050000020440000204C00002040000020FE
:10422000074A11600021074A11705170064A117047
:104230005170064A11705170054A116000BF67E461
:104240004C0000206C140020CC140020A01400208E
:104250005400002010B5FDF7FBFA01210748FDF7D7
:10426000DDF8FCF749FEFEF765F8FCF7F3FCFDF717
:1042700085F9FDF7A3FCFDF75FFE10BD00043000DB
:1042800010B58CB0044678A0FEF780FB4FF4FA72AC
:104290007BA17CA0FEF7F6FF4FF4FA7278A179A01B
:1042A000FEF7F0FF794A7AA104A8FEF77FFB04A984
:1042B0007AA0FEF76BFB4FF4FA7271A104A8FEF727
:1042C000E1FF002803DA4FF0FF300CB010BD4FF4CF
:1042D000FA726BA177A0FEF7D5FF202104A8FBF7A7
:1042E0005CFF6A4A143276A104A8FEF75FFB04A9BA
:1042F00076A0FEF74BFB4FF4FA7261A104A8FEF71B
:10430000C1FF002802DA4FF0FF30DEE74FF4FA7207
:104310005BA174A0FEF7B6FF202104A8FBF73DFFC8
:104320004FF416414EF2E842881A914247D014DC0D
:10433000B1F5165F34D009DCB1F5966F21D0B1F537
:10434000166F23D0B1F5965F57D124E0B1F5964FA3
:104350002BD0B1F5164F50D12CE0654A811A90420E
:104360003CD007DCA0F55D4018382DD0B0F5E13F1A
:1043700043D12EE0B1F5E12F35D0B1F5612F3CD11D
:1043800036E05CA104A8FBF714FF3BE05CA104A8A5
:10439000FBF70FFF36E05DA104A8FBF70AFF31E051
:1043A0005DA104A8FBF705FF2CE05EA104A8FBF7C4
:1043B00000FF27E05EA104A8FBF7FBFE22E05FA15F
:1043C00004A8FBF7F6FE1DE05FA104A8FBF7F1FED1
:1043D00018E060A104A8FBF7ECFE13E060A104A8BC
:1043E000FBF7E7FE0EE061A104A8FBF7E2FE09E09F
:1043F00061A104A8FBF7DDFE04E04DA104A8FBF7D2
:10440000D8FE00BF00BF04A95EA0FEF7BFFA4FF4BC
:10441000FA721BA104A8FEF735FF002802DA4FF05C
:10442000FF3052E74FF4FA7215A12EA0FEF72AFFD3
:104430004FF4164000900020ADF80400ADF80600DF
:10444000ADF80800ADF80C000C20ADF80A00694684
:104450005048FEF71FF9012240F225514D48FEF762
:10446000F4F8012031E700000D0A73657420626CD6
:104470007565746F6F7468206D6F64650D0A000058
:104480004F4B000041540D0A00000000000F0020B7
:1044900041542B4E414D4525730D0A007365742020
:1044A000626C7565206E616D6520636D64203A25D0
:1044B0007300000041542B4E414D450D0A00000091
:1044C00041542B50494E25730D0A0000736574202A
:1044D000626C7565207061737320636D64203A258A
:1044E0007300000041542B50494E0D0A000000009B
:1044F0001823060041542B42415544310D0A000057
:1045000041542B42415544320D0A000041542B4284
:10451000415544330D0A000041542B424155443467
:104520000D0A000041542B42415544350D0A00004C
:1045300041542B42415544360D0A000041542B4250
:10454000415544370D0A000041542B42415544382F
:104550000D0A000041542B42415544390D0A000018
:1045600041542B42415544410D0A000041542B4215
:10457000415544420D0A000041542B4241554443E9
:104580000D0A00006261756420636D64203A257332
:1045900000000000004C004010B5044602A0FEF7E9
:1045A000F5F9012010BD00000D0A736574206F62DB
:1045B0006420776F726B206D6F64650D0A000000D8
:1045C00010B5FFF747FE0220124908604FF4FA6069
:1045D000FEF76EFF00F07EFA0F4A104910A0FEF7BA
:1045E000D5F94FF4947217490C48FEF76EFF154841
:1045F00000F012FC4FF4947212490748FEF765FF71
:10460000104800F009FC00F01FF8FEF7FFFE002044
:1046100010BD00001400002000F4000800F00008A5
:104620000D0A524541442053595354454D20434FA0
:104630004E464947203A2531305820253130580D13
:104640000A000000300E002070B50025012208216C
:104650005D48FCF72BFF012210215B48FCF726FF89
:10466000012220215848FCF721FF40F6B830FEF720
:104670001FFF5648D0F80200401C08D05348D0F81D
:104680000204401C03D052A0FEF780F970BD012047
:104690005549086055A0FEF779F95BA0FEF776F959
:1046A00001216148FDF739FE00F0F0FD00BF00F088
:1046B00025F90028FBD04FF4FA725CA15CA0FDF74D
:1046C0000DFB4FF4FA7259A159A0FDF707FB00F05A
:1046D00093F900215748FDF722FC00215648FDF7C9
:1046E0001CFE01215048FDF718FE00F0E5F86AE0D5
:1046F0004FF496715148FBF750FD00205049086077
:1047000000240BE02A214848FEF735F800BF40217D
:104710004548FDF763FF0028F9D0641C042CF1DB49
:104720007C214148FEF727F800BF40213E48FDF7B5
:1047300055FF0028F9D000240CE04248015D3A48BA
:10474000FEF719F800BF40213748FDF747FF002862
:10475000F9D0641C0F2CF0DB7C213348FEF70BF8FA
:1047600000BF40213048FDF739FF0028F9D0312142
:104770002D48FEF700F800BF40212B48FDF72EFF23
:104780000028F9D031212848FDF7F5FF00BF40216E
:104790002548FDF723FF0028F9D023212248FDF703
:1047A000EAFF00BF40212048FDF718FF0028F9D09C
:1047B0004FF47A70FEF77CFE012000F02DFA4FF4E2
:1047C000FA60FEF775FE93E7000C014000F0000868
:1047D0000D0A6465766963652073746172742E2EA8
:1047E0002E2E2E2E2E0D0A00140000200D0A6D61B3
:1047F000737350726F64756374696F6E2E2E2E2EF4
:104800002E2E2E0D0A0000000D0A64657669636580
:1048100020696E69742E2E2E2E2E2E2E2E2E2E2ECA
:104820002E2E2E2E0D0A0000003801404F4B0000A6
:1048300041540D000004004000440040840000206A
:10484000000000207016002010B504464FF47A7066
:10485000FEF72EFE03200C49086054B90BA0FEF7AA
:1048600095F800224FF480510D48FCF71FFE0120FF
:1048700010BD0CA0FEF78AF8012211030848FCF7CE
:1048800015FE0120F4E70000140000200D0A4F423D
:104890004420706F776572206F66660D0A00000015
:1048A000000C01400D0A4F424420706F7765722062
:1048B0006F6E0D0A000000001FB54FF461300090CC
:1048C0000020ADF80400ADF80600ADF80800ADF822
:1048D0000C000C20ADF80A0069460748FDF7DAFE27
:1048E000012240F225510448FDF7AFFE01210248A4
:1048F000FDF713FD1FBD00000038014010B51D4934
:104900001DA0FEF743F84FF4FA721EA11EA0FDF79A
:10491000E5F960BB1DA0FEF739F84FF4FA60FEF729
:10492000C7FD4FF4FA7217A117A0FDF7D7F9C8B960
:104930001BA0FEF72BF800F0A9FC4FF4FA60FEF77D
:10494000B7FD4FF4FA720FA10FA0FDF7C7F920B120
:1049500018A0FEF71BF8012010BD1EA0FEF716F8E8
:104960000020F9E713A0FEF711F80120F4E7012079
:10497000F2E70000085800080D0A6E616D653A25DF
:10498000730D0A004F4B000041540D000D0A46699B
:10499000727374204154206661696C0D0A00000036
:1049A0000D0A5365636F6E64204154206661696C23
:1049B0000D0A00000D0A504F5745525F53494D39BB
:1049C0003030204F4B202C52455455524E20310D43
:1049D0000A0000000D0A494E20504F5745525F53C0
:1049E000494D393030204641494C205245545552AA
:1049F0004E20300D0A0000003EB50024122122484E
:104A0000FBF7CBFB4FF47A7220A121A0FDF766F9EA
:104A100020B922A0FDF7BAFF601E3EBD1BA12448AD
:104A2000FBF7D5FB0546133D002404E0285D16493D
:104A30000855601C84B20F2CF8DB13491DA0FDF74C
:104A4000A5FF1148016800918188ADF804108079B4
:104A50008DF806006846FBF710FC0B4988630020C0
:104A6000009001900290C91D6846FBF7A2FB6846C2
:104A7000FBF703FC0449C8630846C26B816B10A0B6
:104A8000FDF784FF0120C8E7701600204F4B00009F
:104A900041542B4347534E0D000000000D0A67653B
:104AA000742069656D69206572726F720D0A00006D
:104AB000980500200D0A696D65693A25730D0A0095
:104AC0000D0A69656D69203A2564202025640D0A68
:104AD0000000000008B545F255514448A0F85610B2
:104AE00043A15830FBF765FB00214048C0F8801017
:104AF0000121C0F8841041F28831C0F8881042F2D8
:104B00002831C0F88C1056304E21FEF757FC00B209
:104B10003649A1F8540045F255513448C18034A1BA
:104B20000830FBF746FB012130480163416341F245
:104B30008831816342F22931C163801D4E21FEF725
:104B40003DFC00B2294988804FF416412748C0F83F
:104B5000CC102DA1D030FBF72CFB2DA12348E43045
:104B6000FBF727FB2148CA304221FEF727FC00B2A1
:104B70001E4988804FF416411C48C0F8101100F5FA
:104B800087701A21FEF71AFC1849A1F80C0145F2AA
:104B9000555008800121154880F8AA1080F8AB1004
:104BA000FF21A0F8AC1045F25551A0F8AE1043F229
:104BB0003901C0F8B0102A200C4981F8A4002A213C
:104BC0000A4880F8A5100C21A830FEF7F7FB07492A
:104BD000A1F8A60001F586730093443B01F1A402FD
:104BE0005431A1F1500000F081FB08BD300E0020CF
:104BF000696E2E70686F6E6577696E677374656332
:104C0000682E636F6D0000004F42445F3200000069
:104C10003030303000000000F0B5C3B00746002649
:104C20006FA17148FBF7D3FA044684B300250BE06B
:104C3000615D6E48FDF79FFD00BF40216B48FDF7A9
:104C4000CDFC0028F9D06D1C2046FBF7D6FAA8420F
:104C5000EED8241D002504E020783EA94855641CA8
:104C60006D1C20787C28F7D1641C002505E0207895
:104C700041B228A84155641C6D1C20787C28F6D1CF
:104C8000641C00203B903C903D90002505E054E0E2
:104C900020783BA94855641C6D1C20787C28F7D1EE
:104CA0003BA8FBF7EAFA3590641C002505E0207864
:104CB00041B214A84155641C6D1C20787C28F6D1A3
:104CC000641C00203B903C903D90002504E020783F
:104CD0003BA94855641C6D1C20787C28F7D13BA863
:104CE000FBF7CBFA2190641C002504E0217804A88E
:104CF0004155641C6D1C20787C28F7D1641C00256C
:104D000004E0217809A84155641C6D1C20787C289A
:104D1000F7D1641C00203B903C903D90002504E0BE
:104D200020783BA94855641C6D1C20782328F7D1B6
:104D30003BA8FBF7A2FA039001E043B0F0BD40F6B8
:104D4000B830FEF7B5FB0020ADF89E003290012090
:104D5000339041F2883034900DF19E004E21FEF7E1
:104D60002DFB00B2ADF89C000020ADF84E000120F4
:104D70001E901F9041F2893020900DF14E004E217F
:104D8000FEF71CFB00B2ADF84C004E210DF10A00FD
:104D9000FEF714FBADF808000023009302AB0022DD
:104DA00027A913A800F0A2FA11A0FDF7EFFD72B633
:104DB00071B64FF47A70FEF77BFB00BF14480068B1
:104DC00000F4E060134940EA010000F104004FF0F4
:104DD000E021C1F80C0DBFF3408F00BF00BFFEE71C
:104DE0002A2A2A2A000000008400002000380140FE
:104DF0000D0A434F4E4649472055504441544520E3
:104E00004F4B202C5245424F4F540D0A00000000DA
:104E10000CED00E00000FA0570B50446002571486D
:104E2000FDF7B4FD218870A0FDF7B0FD618873A087
:104E3000FDF7ACFD76A0FDF7A9FDB4F9041079A04B
:104E4000FDF7A4FDB4F906107BA0FDF79FFD04F16A
:104E500008017EA0FDF79AFD81A0216BFDF796FD6C
:104E600084A0616BFDF792FD87A0A16BFDF78EFD1D
:104E700089A0E16BFDF78AFD8BA0FDF787FD00BFE0
:104E800006E004F14000415D8CA0FDF77FFD6D1C44
:104E9000142DF6DB8AA0FDF779FDB4F954108DA02E
:104EA000FDF774FDB4F956108EA0FDF76FFD04F107
:104EB000580190A0FDF76AFD8020015991A0FDF7EF
:104EC00065FD8420015994A0FDF760FD88200159FB
:104ED00096A0FDF75BFD8C20015999A0FDF756FDCA
:104EE00071A0FDF753FD002506E004F19000415D3F
:104EF00072A0FDF74BFD6D1C142DF6DB95A0FDF7A0
:104F000045FD04F1A40197A0FDF740FDA620015B3B
:104F100099A0FDF73BFDAA20015D9CA0FDF736FDA1
:104F2000AB20015D9EA0FDF731FDAC20015BA0A090
:104F3000FDF72CFDAE20015BA2A0FDF727FDB02000
:104F40000159A5A0FDF722FDA8A0FDF71FFDB4F8AB
:104F5000C81034A0FDF71AFDCA20015BA8A0FDF718
:104F600015FD04F1D001ABA0FDF710FD04F1E40143
:104F7000ADA0FDF70BFDCC200159B0A0FDF706FD5B
:104F800049A0FDF703FD002506E004F58A70415DA8
:104F90004AA0FDF7FBFC6D1C142DF6DBACA0FDF761
:104FA000F5FCB4F80C1174A0FDF7F0FC4FF4877019
:104FB000015BACA0FDF7EAFC4FF488700159AEA08C
:104FC000FDF7E4FC38A0FDF7E1FC002506E004F560
:104FD0008A70415D39A0FDF7D9FC6D1C142DF6DBFC
:104FE00070BD0000185800080D0A435243092020E4
:104FF000202020093A25580D0A0000000D0A464CD1
:1050000041472020202020093A25580D0A000000A1
:105010000D0A0D0A4E455420534F434B45540D0A7B
:10502000000000000D0A4352432020202020093AAE
:105030000925580D0A0000000D0A464C4147202062
:10504000202020093A0925580D0A00000D0A495070
:1050500020202020202020093A0925730D0A000075
:105060000D0A5544505443502020093A0925580D43
:105070000A0000000D0A534F434B45542009093ADA
:105080000925580D0A0000000D0A4C504F525409D2
:10509000093A0925640D0A000D0A44504F5254097B
:1050A000093A0925640D0A000D0A52455345525626
:1050B000454420444154413A0D0A0000253358002C
:1050C0000D0A0D0A49415020534F434B45540D0AD8
:1050D000000000000D0A4352432009093A092558EF
:1050E0000D0A00000D0A464C414709093A092558A6
:1050F0000D0A00000D0A49500909093A0925730DE6
:105100000A0000000D0A5544505443502020200945
:105110003A0925580D0A00000D0A534F434B4554D8
:105120002020093A0925580D0A0000000D0A4C50AC
:105130004F525420202020093A0925580D0A00001A
:105140000D0A44504F525420202020093A09255876
:105150000D0A00000D0A0D0A4941502042524946ED
:10516000450D0A000D0A5354415254202009093AB2
:105170000925730D0A0000000D0A43524320202028
:1051800009093A0925580D0A000000000D0A485681
:105190002020202009093A0925580D0A00000000A6
:1051A0000D0A535620202009093A0925580D0A00F6
:1051B0000D0A5041434B5F4E554D093A0925640D88
:1051C0000A0000000D0A4352435F4150502020095D
:1051D0003A0925580D0A00000D0A53495A455F4106
:1051E0005050093A0925580D0A0000000D0A0D0A11
:1051F000424C554520434F4E4649470D0A0000009A
:105200000D0A4F54484552202020093A0925580DCF
:105210000A0000000D0A4E414D4520202009093AA0
:105220000925730D0A0000000D0A50415353202038
:105230002009093A0925730D0A0000000D0A626170
:1052400075647261746520093A0925580D0A0000D9
:105250000D0A0D0A4F424420434F4E4649470D0A5E
:10526000000000000D0A464C414720202020093A4A
:105270000925580D0A0000000D0A424155445241CB
:10528000544520093A0925580D0A000010B540F68A
:10529000B830FEF70DF90EA0FDF778FB0022402193
:1052A0001048FCF703F9012251030F48FCF7FEF800
:1052B0004FF47A70FEF7FCF800224FF400510A48D0
:1052C000FCF7F4F840F6B830FEF7F2F810BD000035
:1052D0000D0A4F50454E2053494D3930302E2E2E59
:1052E0002E0D0A0000080140000C01402DE9F04F8E
:1052F000CBB00546884616461F46DDF850914FF064
:10530000000A01AC25B15022294602A8FAF72CFF69
:10531000B8F1000F04D05022414616A8FAF724FF36
:105320002EB196E80F00CDE92C23CDE92A0127B153
:105330004422394633A8FAF717FFB9F1000F04D019
:105340001C22494644A8FAF70FFF0020ADF80600DA
:105350002621A01CFEF732F8ADF8040028212046D3
:10536000FEF72CF883464FF49473224612490090BE
:10537000124800F053F8002807DA11A0FDF706FBE9
:105380004FF0FF304BB0BDE8F08F17A0FDF7FEFAED
:105390004FF4947101A8FAF700FF1BA0FDF7F6FA8D
:1053A0004FF4947221460548FEF78FF801A8FFF7E5
:1053B00033FD0120E6E7000000F4000800F00008DB
:1053C0000D0A20706172616D65746572207570647C
:1053D000617465206572726F722C646F206E6F74D9
:1053E00068696E670D0A00000D0A706172616D6573
:1053F000746572207570646174652073756363658C
:1054000073730D0A000000000D0A666C617368205A
:105410006E6F772062650D0A000000002DE9F047ED
:1054200006460F4690461C46DDF820904FF0000AD5
:1054300000253FE04B46A2B241463046FDF72CFA2C
:10544000002804DD314641A0FDF7A0FA33E0E1B2C7
:105450004046FDF7B3FF484503D1BAF1040F00DA27
:1054600028E031463846FEF73CF800280FDA0025E0
:105470000AE0324639463CA0FDF788FA41F288300E
:10548000FEF716F8681C85B2322DF2DB11E044A05D
:10549000FDF77CFA4DA0FDF779FA4FF47A70FEF72C
:1054A00007F872B671B64FF4FA60FEF701F8FCF730
:1054B0007DF900BFBEE700BF3FE04B46A2B24146C8
:1054C0003846FDF7E9F9002804DD39461FA0FDF74D
:1054D0005DFA33E0E1B24046FDF770FF484503D185
:1054E000BAF1040F00DA28E039463046FDF7F9FF3B
:1054F00000280FDA00250AE03A4631461AA0FDF7E7
:1055000045FA41F28830FDF7D3FF681C85B2322D91
:10551000F2DB11E022A0FDF739FA2CA0FDF736FAF4
:105520004FF47A70FDF7C4FF72B671B64FF4FA60AB
:10553000FDF7BEFFFCF73AF900BFBEE700BF27A0AA
:10554000FDF724FA0120BDE8F08700000D0A636F23
:105550006E666967207772697465206F6B20A3BAE5
:1055600025580D0A000000000D0A73797374656DEB
:10557000206661756C74206572726F7220A3AC72C4
:105580006F6C6C206261636B206572726F72202C8D
:1055900066726F6D20255820746F2025580D0A0003
:1055A0000D0A75706461746520636F6E66696720AB
:1055B0006661696C202C726F6C6C206261636B2079
:1055C0007375636365737321210D0A0073797374B6
:1055D000656D207265626F6F740000000D0A636F65
:1055E0006E6669672072656E6577206F6B0D0A00C5
:1055F00000002110422063308440A550C660E7704F
:10560000088129914AA16BB18CC1ADD1CEE1EFF1F6
:105610003112100273325222B5529442F772D6629E
:10562000399318837BB35AA3BDD39CC3FFF3DEE346
:105630006224433420040114E664C774A4448554EE
:105640006AA54BB528850995EEE5CFF5ACC58DD596
:105650005336722611163006D776F6669556B4463E
:105660005BB77AA719973887DFF7FEE79DD7BCC7E6
:10567000C448E5588668A77840086118022823388E
:10568000CCC9EDD98EE9AFF9488969990AA92BB936
:10569000F55AD44AB77A966A711A500A333A122ADE
:1056A000FDDBDCCBBFFB9EEB799B588B3BBB1AAB86
:1056B000A66C877CE44CC55C222C033C600C411C2E
:1056C000AEED8FFDECCDCDDD2AAD0BBD688D499DD6
:1056D000977EB66ED55EF44E133E322E511E700E7E
:1056E0009FFFBEEFDDDFFCCF1BBF3AAF599F788F26
:1056F0008891A981CAB1EBA10CD12DC14EF16FE106
:105700008010A100C230E32004502540467067603D
:10571000B9839893FBA3DAB33DC31CD37FE35EF355
:10572000B1029012F322D23235421452776256728D
:10573000EAB5CBA5A89589856EF54FE52CD50DC5A5
:10574000E234C324A01481046674476424540544DD
:10575000DBA7FAB79987B8975FE77EF71DC73CD7F5
:10576000D326F2369106B01657667676154634562D
:105770004CD96DC90EF92FE9C899E9898AB9ABA945
:105780004458654806782768C018E1088238A3287D
:105790007DCB5CDB3FEB1EFBF98BD89BBBAB9ABB95
:1057A000754A545A376A167AF10AD01AB32A923ACD
:1057B0002EFD0FED6CDD4DCDAABD8BADE89DC98DE5
:1057C000267C076C645C454CA23C832CE01CC10C1D
:1057D0001FEF3EFF5DCF7CDF9BAFBABFD98FF89F35
:1057E000176E367E554E745E932EB23ED10EF01E6D
:1057F0000003030601040602050003051F1C1F1E0B
:105800001F1E1F1F1E1F1E1F706F7765725F73693B
:105810006D393030000000000D0A0D0A0D0A434FAB
:105820004E46494720444154412B2B2B2B2B2B2BED
:105830002B2B2B2B2B2B2B2B2B2B2B2B2B2B2B2BB8
:105840002B2B2B2B2B2B2B2B2B2B2B2B2B2B2B2BA8
:105850002B2B2B2B2B2B2B2B2B2B2B2B2B2B2B2B98
:105860002B2B2B2B2B2B2B2B2B2B2B2B2B2B2B2B88
:105870002B2B2B2B2B2B2B2B2B0D0A0000404040CE
:105880004040404040404141414141404040404013
:1058900040404040404040404040404040050202BF
:1058A000020202020202020202020202022020207E
:1058B00020202020202020020202020202029090DA
:1058C00090909090101010101010101010101010D8
:1058D000101010101010101002020202020288882C
:1058E0008888888808080808080808080808080838
:1058F0000808080808080808020202024000000020
:105900007D58000824590008000000208400000091
:10591000DC290008A8590008840000202C2600007B
:10592000EC2900080000000000000000000000005A
:105930000000000000000000000000000000000067
:105940000000000000000000000000000000000057
:105950000000000001020304010203040607080915
:1059600002040608000000002447507878782C00D4
:105970000000000000000000000000000000000027
:105980000000000000000000000000000000000017
:105990000000000000000000000000000000000007
:0859A0000000000000000000FF
:0400000508000131BD
:00000001FF
