:020000040800F2
:10000000283B002045010008BD1600085D160008C9
:100010009116000801090008952A00080000000058
:10002000000000000000000000000000511E000859
:1000300059010008000000004D190008C51F000804
:100040005F0100085F0100085F010008691D0008EA
:100050005F0100085F010008350D0008690D000808
:100060005F010008910D00085F0100085F010008B2
:100070005F0100085F0100085F0100085F010008E0
:100080005F0100085F0100085F0100085F010008D0
:10009000A52900085F0100085F010008C90D0008DC
:1000A0005F0100085F0100085F0100085F010008B0
:1000B00029200008512000085F0100085F010008A6
:1000C0005F0100085F0100085F0100085F01000890
:1000D0005F01000849230008B92300085D240008D7
:1000E0005F010008691C00085F0100085F0100084B
:1000F0005F0100085F0100085F0100085F01000860
:100100005F0100085F0100085F0100085F0100084F
:1001100001220008E12200085F0100085F010008D9
:100120005F0100085F0100085F0100085F0100082F
:10013000DFF80CD000F07CFB004800479D5A000817
:10014000283B00200648804706480047FEE7FEE7B8
:10015000FEE7FEE7FEE7FEE7FEE7FEE7FEE7FEE777
:10016000C91F00083101000840EA01039B0703D0C2
:1001700009E008C9121F08C0042AFAD203E011F8E6
:10018000013B00F8013B521EF9D27047D2B201E0A8
:1001900000F8012B491EFBD270470022F6E710B58C
:1001A00004460846114602462046FFF7EFFF204668
:1001B00010BD034600E0401C0278002AFBD111F874
:1001C000012B00F8012B002AF9D11846704730B5F1
:1001D0000EE003460A4601E05B1C521C1C781578B1
:1001E000AC4201D1002CF7D115F0FF0F04D0401C18
:1001F0000278002AEDD1002030BD0146002000E049
:10020000401C0A5C002AFBD170472DE9F0470F46DD
:10021000914680460446002614F8015B2DB100F09B
:10022000B9F90068405DC007F6D12B2D02D02D2D05
:1002300018D0641E4A463946204600F0AFF927B16F
:100240003968A14201D1C7F8008071054FF002045E
:100250000BD54042002803DD02F0D0FC0460A0076B
:10026000BDE8F08746F48066E4E70028F8DA02F09B
:10027000C5FC04606FF00040F2E770B5064602F07E
:10028000BDFC046805460A2200213046FFF7BDFF89
:100290002C6070BD2DE9FE4F074681EA0300C00FB8
:1002A0000E46019021F0004123F00044B81AA1410C
:1002B00005D23846314617461E460B46024623F005
:1002C0000040104304D13846314603B0BDE8F08FFA
:1002D000350DC5F30A00C3F30A510290401A00908D
:1002E000402867DAC3F3130040F4801B019892465C
:1002F00020B10023D2EB030A63EB0B0B00985946A5
:10030000C0F14002504600F024F980460C465046A9
:100310005946009A00F02CF9C0197141EF1785EA8F
:1003200011533B433FD0019A4AB3009A012A11DC92
:100330000022801A61EB05514FF0004303EA055596
:10034000CDE90025801841F580114246234600F092
:1003500080F9BAE72E050025401B61EB0601401924
:1003600041F58012001852412818A6F5001343EBFE
:10037000020140EAD47018EB0808644113E06408F5
:100380004FEA38084FF0000244EAC0744FEA0553C0
:10039000801A61EB0301801841F5801149084FEA8A
:1003A0003000801859414246234603B0BDE8F04F63
:1003B00000F042B90198012240000023D0EB020274
:1003C00063EBE07301984FEAE074381A66EB0401BE
:1003D000EBE783F000435DE781F000415AE72DE948
:1003E000FE4F81EA030421F0004504F0004423F0AD
:1003F00000414FF0000A009450EA050302D052EA8F
:10040000010304D10020014603B0BDE8F08FC1F321
:100410000A53C5F30A542344A3F2F3330193A0FB18
:1004200002B3C5F3130545F4801CC1F3130141F475
:1004300080180CFB023300FB083E810A930A41EA54
:100440008C5143EA8853A1FB03474FEA9C2505FBE7
:1004500003734FEA982601FB06373D05260545EA5A
:100460001435BBEB06016EEB0503850E920E45EAD3
:100470008C1542EA8812A5FB0206261E67EB0007D0
:100480000C0D44EA0334A61947EB1350C1F31304CF
:100490004FF000031946E5FB02014FEA033545EA38
:1004A0001455019B4FEA0432009CA3F10C03CDE9E3
:1004B00000A445EA060502932B4600F0CAF8A3E71C
:1004C00030B50B46014600202022012409E021FA24
:1004D00002F59D4205D303FA02F5491B04FA02F521
:1004E0002844151EA2F10102F1DC30BD2DE9F05FB8
:1004F0000546002092469B46884606468146402493
:100500001DE0284641464746224600F0A3F9B0EBDD
:100510000A0052465B4671EB0B0110D31046194698
:10052000224600F016F82D1A67EB01084F462246C6
:100530000120002100F00DF817EB00094E41201EAC
:10054000A4F10104DDDC484631462A464346BDE8B5
:10055000F09F202A04DB203A00FA02F100207047C5
:100560009140C2F1200320FA03F3194390407047F1
:10057000202A06DBCB17203A41FA02F043EAE07367
:1005800006E041FA02F3D040C2F120029140084354
:1005900019467047004870472C7E00082DE9F05F2F
:1005A0008246044600780027641C8B461546B946EF
:1005B000302801D09DB113E014F8010B01277828F1
:1005C00003D0582801D045B10AE00DB1102D07D154
:1005D0000027102514F8010B02E0082500E00A2589
:1005E0000026B0460EE005FB080005FB06F10127DA
:1005F00001EB10461FFA80F8B6F5803F00D3B946EC
:1006000014F8010B294600F035F90028EBDABBF1AC
:10061000000F04D0641E07B95446CBF80040B9F16E
:10062000000F06D002F0EAFA02210160C81EBDE800
:10063000F09F48EA0640FAE710B5002B08DA401CA4
:1006400041F1000192185B411A4301D120F00100F1
:1006500010BD2DE9FF4D934611B1B1FA81F202E0D0
:10066000B0FA80F220329246FFF773FF039A0746F2
:10067000884640EA0B0011435B46084304D13846E4
:10068000414604B0BDE8F08D114653EA020016D091
:10069000CAF14002584600F0DDF804460D464FF01E
:1006A0000106584652460399FFF753FF084300D10D
:1006B0000026344345EAE675274345EA08080E98C4
:1006C0004FF00005A0EB0A014FEAD7200A314FEAAC
:1006D00047532A4640EA48504FEAD82402D5002022
:1006E0000146CEE7281844EB0151DDE90C4500191D
:1006F00004B06941BDE8F04D9EE72DE9F04D81EA77
:10070000030404F0004B21F0004714464FF0000AA8
:1007100023F0004150EA070220D054EA01021DD024
:10072000C1F30A550246C1F31300C7F30A56C7F3D3
:10073000130340F4801143F48013A6EB0508101B4B
:10074000D64608F2FD3873EB010002D308F1010828
:1007500001E092185B41B8F1000F03DA0020014676
:10076000BDE8F08D00204FF48015064607460EE0E8
:10077000B2EB040C73EB010C04D3121B064363EBC6
:1007800001032F436D084FEA300092185B4150EA95
:10079000050CEDD152EA030012D082EA040083EA8C
:1007A0000105284303D100224FF0004308E0101B4D
:1007B0008B4102D20122002302E06FF001025310AC
:1007C0001AEB060047EB085110EB0A0041EB0B0156
:1007D000BDE8F04DFFF730BFC1F30A52C1F313017A
:1007E00040F2FF3341F480119A4202DA00200146C0
:1007F000704740F233439A42A2F2334202DC524243
:1008000000F028B8FFF7A5BE30B5002904DB4FF093
:100810000044404264EB0101002B04DB4FF0004434
:10082000524264EB0303994208BF904230BD00007E
:10083000064C074D06E0E06840F0010394E807002D
:1008400098471034AC42F6D3FFF776FC307E0008B0
:10085000507E0008202A04DB203A21FA02F0002111
:10086000704721FA02F3D040C2F1200291400843C0
:10087000194670473A2800D2303820F02002412A29
:1008800001D3A2F137004FF0FF32884200D2024676
:100890001046704770B501EB020410F8015B15F0CB
:1008A000070301D110F8013B2A1106D110F8012BE2
:1008B00003E010F8016B01F8016B5B1EF9D12B0707
:1008C00005D40023521E0FD401F8013BFAE710F8BB
:1008D000013B02F10202A1EB030303E013F8015B09
:1008E00001F8015B521EF9D5A142D6D3002070BD9C
:1008F00010B5012001F060F8002001F05DF810BD96
:100900000AE006A002F056F972B671B64FF4FA602A
:1009100003F0FCFC00F0E8FFF3E700000D0A45528D
:10092000524F525F4255530D0A000000B1F5007F4F
:100930003AD00FDC202928D006DC01291CD004295C
:100940001DD0082940D11DE0402921D0B1F5807F7C
:100950003AD126E0B1F5004F31D006DCB1F5806F19
:1009600025D0B1F5006F2FD124E0B1F5803F12D032
:10097000B1F5003F28D111E0154A826025E0082238
:10098000C26022E01022C2601FE0082202611CE067
:100990001022026119E00822426016E01022426033
:1009A00013E00422426010E0042242600DE00422C1
:1009B00042600AE0002282610422426005E00022D7
:1009C00082610422426000E000BF00BF7047000067
:1009D0000101010021B9C26842F02002C26003E0B7
:1009E000026942F0200202617047000070B50446BF
:1009F0000D4600266069284271D0B5F5807F5CD035
:100A000010DC082D35D006DC012D20D0022D24D09D
:100A1000042D77D127E0102D31D0202D35D0402D59
:100A200070D138E0B5F5004F60D009DCB5F5007F36
:100A300049D0B5F5806F4CD0B5F5006F62D14FE06D
:100A4000B5F5803F2DD0B5F5003F5BD12FE0A06814
:100A50002F4900F067F9064656E0E068032100F0F0
:100A600061F9064650E0E068082100F05BF90646AF
:100A70004AE0E068102100F055F9064644E020699C
:100A8000032100F04FF906463EE02069082100F0FE
:100A900049F9064638E02069102100F043F906467E
:100AA00032E06068082100F03DF906462CE06068FD
:100AB000102100F037F9064626E0A069012100F078
:100AC00031F9064620E0A069022100F02BF9064624
:100AD0001AE0A069042100F025F9064614E014E0AC
:100AE000A069702100F01EF906460DE0A06977218B
:100AF00000F018F906466068042100F013F9064377
:100B000002E0FFE7002600BF00E00026304670BD8F
:100B10000101010030B504460D46134604F5D870B6
:100B200000EB0510006800F004001872187A50B944
:100B300004F5D87000EB0510006840F2FF7101EA7F
:100B40005050186009E004F5D87000EB05100068FB
:100B50006FF0604101EAD000586004F5D87000EBF6
:100B60000510006800F00200587204F5D87000EB20
:100B70000510406800F00F00987204F5D87000EB83
:100B800005104068000AD87404F5D87000EB051011
:100B90008068D87204F5D87000EB05108068000AF0
:100BA000187304F5D87000EB05108068000C5873BA
:100BB00004F5D87000EB05108068000E987304F5FA
:100BC000D87000EB0510C068D87304F5D87000EB3E
:100BD0000510C068000A187404F5D87000EB051001
:100BE000C068000C587404F5D87000EB0510C0689C
:100BF000000E987429462046FFF7ECFE30BD10B574
:100C000002460020936803F08063B3F1806F00D147
:100C100010E0936803F00063B3F1006F01D101208D
:100C200008E0936803F08053B3F1805F01D10220A4
:100C300000E00420042874D002F5C07303EB001315
:100C40001B6803F0010402F5C07303EB00131C6082
:100C50000B7A7BB94B7A0C6843EA445302F5C074B3
:100C600004EB00142468234302F5C07404EB001461
:100C7000236010E00B7A4C6843EAC4034C7A2343A8
:100C800002F5C07404EB00142468234302F5C07419
:100C900004EB001423608B7A03F00F038B7202F5D0
:100CA000C07303EB00135B6823F00F0402F5C073FD
:100CB00003EB00135C6002F5C07303EB00135B6889
:100CC0008C7A234302F5C07404EB001463608B7BC1
:100CD0001C064B7B44EA03440B7B44EA0323CC7A97
:100CE000234302F5C07404EB0014A3608B7C1C0644
:100CF0004B7C44EA03440B7C44EA0323CC7B234330
:100D000002F5C07404EB0014E36002F5C07303EB5A
:100D100000131B6843F0010402F5C07303EB0013DA
:100D20001C6010BD024600200A4201D0012000E0F4
:100D30000020704710B5C82003F0E8FA012000F049
:100D4000AFF840B1012000F051F803A001F032FFEC
:100D500001200449086010BD0D0A6B6579300D0A49
:100D6000000000003000002010B5022000F098F8CC
:100D700028B1022000F03AF801A001F01BFF10BDDD
:100D80000D0ABDF8C8EBD6D0B6CF310D0A00000071
:100D900010B5082000F084F828B1082000F026F8EB
:100DA00001A001F007FF10BD0D0ABDF8C8EBC0B6E9
:100DB000D1C0D7B4CCACB1E4BBAFD6D0B6CFA3A131
:100DC000A3A1A3A10D0A000010B54FF4807000F09C
:100DD00067F840B14FF4807000F008F802480068EE
:100DE000401C0149086010BD38000020014908601E
:100DF00070470000140401401CB54FF40030FFF7A9
:100E0000F5FF4FF40030009000208DF8040008201A
:100E10008DF8050001208DF80600684600F056F8B0
:100E20000021084600F022FB0120FFF7DFFF012030
:100E3000009000208DF804000C208DF805000120A2
:100E40008DF80600684600F041F80121002000F00E
:100E50000DFB0220FFF7CAFF0220009000208DF852
:100E600004000C208DF8050001208DF8060068466E
:100E700000F02CF80321042000F0F8FA0820FFF716
:100E8000B5FF0820009000208DF8040010208DF898
:100E9000050001208DF80600684600F017F81CBD1B
:100EA000014600200022074B1B6803EA0102064BA3
:100EB000D3F814340B4202D00AB1012000E0002024
:100EC0007047000000040140000001400021274954
:100ED0008279DAB3264AD2F8002403689A43244B75
:100EE000C3F800241A46D2F8042403689A4301F197
:100EF00004031A60027911440A68036842EA030293
:100F00000A601B4AD2F80824036822EA0302184B3D
:100F1000C3F808241A46D2F80C24036822EA030214
:100F2000144B1A604279102A11D1114AD2F80824C0
:100F300003681A430E4BC3F808241A46D2F80C244F
:100F400003681A430A4BC3F80C240EE007E0074974
:100F5000427911440A6803681A430A6005E002797D
:100F600011440A6803689A430A607047000401400C
:100F7000000001400C04014004200C49C96801F044
:100F80000101012901D101200EE00849C96811F0D1
:100F9000040F01D0022007E00449C96811F0100FC6
:100FA00001D0032000E00420704700000020024030
:100FB0000348006940F08000014908617047000063
:100FC000002002400549096821F01001034A116020
:100FD000114609680143116070470000002002407B
:100FE000F0B504460D4604260027F00200F042F852
:100FF0000646042E22D11248006940F00100104933
:1010000008612580F00200F035F80646042E0ED166
:10101000A71C280C3880F00200F02CF8064608487F
:10102000006941F6FE7108400549086106E0044880
:10103000006941F6FE710840014908613046F0BD83
:101040000020024001460020034A106800F03800EA
:101050000843106070470000002002400248034926
:1010600048600348486070472301674500200240FC
:10107000AB89EFCD00B502460423FFF77DFF0346A1
:1010800003E0FFF779FF0346521E012B01D1002A2E
:10109000F7D102B90523184600BD000008B50121AB
:1010A00044F27D0000F078FC0121EC4800F064FC83
:1010B0004FF6FF70ADF8000000208DF8030003200C
:1010C0008DF802004FF40070ADF8000018208DF884
:1010D000030003208DF802006946E14800F0E6F9BC
:1010E0004FF48060ADF8000004208DF803006946DD
:1010F000DB4800F0DBF90420ADF8000018208DF883
:10110000030003208DF802006946D54800F0CEF9AF
:101110000820ADF8000004208DF803006946D0488F
:1011200000F0C4F94FF40060ADF8000004208DF821
:1011300003006946CB4800F0B9F94FF48060ADF880
:10114000000018208DF8030003208DF80200694686
:10115000C54800F0ABF94FF40060ADF80000042082
:101160008DF8030003208DF802006946BE4800F0A8
:101170009DF94FF48060ADF8000018208DF8030051
:1011800003208DF802006946B64800F08FF94FF44D
:101190000060ADF8000004208DF8030003208DF8F6
:1011A00002006946AF4800F081F903208DF8020083
:1011B0004FF40060ADF8000048208DF80300694648
:1011C000A74800F073F94FF48050ADF800001820E4
:1011D0008DF803006946A24800F068F90820ADF8D0
:1011E000000010208DF8030003208DF802006946EE
:1011F0009C4800F05BF9002208219A4800F028FA88
:101200001020ADF800008DF8030003208DF80200D7
:101210006946944800F04AF900221021914800F0F4
:1012200017FA2020ADF8000010208DF803000320ED
:101230008DF8020069468B4800F038F90022202121
:10124000884800F005FA0120ADF8000004208DF870
:10125000030003208DF802006946814800F026F95A
:101260000120ADF8000048208DF8030003208DF820
:10127000020069467C4800F019F94FF40050ADF8BF
:10128000000010208DF8030003208DF8020069464D
:10129000744800F00BF901225103724800F0D8F9AC
:1012A0001020ADF8000014208DF8030003208DF805
:1012B000020069466A4800F0F9F8012210216848E6
:1012C00000F0C6F94020ADF8000010208DF80300B2
:1012D00003208DF802006946614800F0E7F800221B
:1012E00040215F4800F0B4F90820ADF8000010205C
:1012F0008DF8030003208DF8020069465A4800F07B
:10130000D5F800220821584800F0A2F94FF4805087
:10131000ADF8000010208DF8030003208DF80200C6
:101320006946504800F0C2F800224FF480514D4801
:1013300000F08EF94FF40040ADF8000010208DF859
:10134000030003208DF802006946464800F0AEF81D
:101350000122D103434800F07BF94FF48040ADF8FF
:10136000000010208DF8030003208DF8020069466C
:101370003C4800F09BF8012291033A4800F068F9DC
:101380000220ADF8000010208DF8030003208DF836
:1013900002006946324800F089F8002202213048F4
:1013A00000F056F98020ADF8000048208DF80300C9
:1013B00003208DF8020069462A4800F077F84020A3
:1013C000ADF8000010208DF8030003208DF8020016
:1013D0006946244800F06AF800224021214800F0C4
:1013E00037F94FF48070ADF8000010208DF803003D
:1013F00003208DF8020069461A4800F057F80022D1
:101400004FF48071174800F023F94FF40070ADF8E5
:10141000000010208DF8030003208DF802006946BB
:10142000104800F043F800224FF400710D4800F01E
:101430000FF94FF40050ADF8000010208DF80300B4
:1014400003208DF802006946074800F02FF80022BB
:101450004FF40051044800F0FBF808BD02001E1ACA
:1014600000080140000C01400010014030B500228E
:101470008B071C0F0F2303FA04F20B4B8C1053F84D
:1014800024309343084C8D1044F8253023468C10AB
:1014900053F824308C07240F00FA04F42343024C41
:1014A0008D1044F8253030BD080001402DE9F04191
:1014B000024600250026002000230024002791F882
:1014C00003C00CF00F0591F803C01CF0100F03D0FF
:1014D00091F802C04CEA0505B1F800C01CF0FF0FFE
:1014E00031D0146800202BE04FF0010C0CFA00F30F
:1014F000B1F800C00CEA03069E4220D183004FF0F1
:101500000F0C0CFA03F7BC4305FA03FC4CEA040485
:1015100091F803C0BCF1280F06D14FF0010C0CFA72
:1015200000FCC2F814C00AE091F803C0BCF1480FF7
:1015300005D14FF0010C0CFA00FCC2F810C0401CA1
:101540000828D1D31460B1F800C0BCF1FF0F34DD1E
:10155000546800202EE000F1080C4FF0010808FA52
:101560000CF3B1F800C00CEA03069E4221D18300BF
:101570004FF00F0C0CFA03F7BC4305FA03FC4CEADE
:10158000040491F803C0BCF1280F05D100F1080C48
:1015900008FA0CF8C2F8148091F803C0BCF1480FA7
:1015A00007D100F1080C4FF0010808FA0CF8C2F856
:1015B0001080401C0828CED35460BDE8F0810000A4
:1015C000F0B50A46002300240021002500F0004663
:1015D000B6F1004F02D11D4EF16901E01B4E71685A
:1015E000C0F3034583B200F44016B6F5401F08D19E
:1015F00021F07061154E766826F07066134F7E609C
:1016000012E000F48016B6F5801F06D1032606FA14
:1016100005F4A14341F0706106E0460D360103FA7E
:1016200006F6B14341F0706122B1460D360103FA6E
:1016300006F6314300F00046B6F1004F02D1034EEA
:10164000F16101E0014E7160F0BD00000000014059
:101650000AB1016100E04161704700000AE006A0A4
:1016600001F0A8FA72B671B64FF4FA6002F04EFEBD
:1016700000F03AF9F3E700000D0A4552524F525F6D
:10168000484152445F4641554C540D0A0000000049
:101690000AE006A001F08EFA72B671B64FF4FA6055
:1016A00002F034FE00F020F9F3E700000D0A455285
:1016B000524F525F4D454D0D0A00000005A001F04C
:1016C00079FA72B671B64FF4FA6002F01FFE00F0BC
:1016D0000BF900000D0A4552524F525F4E4D490D15
:1016E0000A00000008B54FF4E06000F0F3F8252090
:1016F0008DF8000002208DF8010000208DF8020016
:1017000001208DF80300684600F0A2F84FF4E06075
:1017100000F0E0F826208DF8000000208DF8010090
:101720008DF8020001208DF80300684600F090F863
:101730004FF4E06000F0CEF827208DF80000012083
:101740008DF8010000208DF8020001208DF80300C3
:10175000684600F07DF84FF4E06000F0BBF83420FC
:101760008DF8000001208DF8010000208DF80200A6
:1017700001208DF80300684600F06AF84FF4E0603D
:1017800000F0A8F835208DF8000001208DF8010048
:1017900000208DF8020001208DF80300684600F05B
:1017A00057F84FF4C06000F095F829208DF800003C
:1017B00000208DF801008DF802008DF803006846C6
:1017C00000F046F84FF4C06000F084F806208DF871
:1017D000000000208DF801008DF802008DF8030054
:1017E000684600F035F84FF4C06000F073F8072049
:1017F0008DF8000000208DF801008DF802008DF8B2
:101800000300684600F024F84FF4C06000F062F86E
:1018100009208DF8000000208DF801008DF80200ED
:101820008DF80300684600F013F84FF4A06000F054
:1018300051F81D208DF8000000208DF801008DF872
:10184000020001208DF80300684600F001F808BD91
:1018500070B5002100230F22C4784CB31A4C2468C1
:1018600004F4E064C4F5E0644FEA1421C1F1040318
:1018700022FA01F2447804FA03F1847804EA0204BB
:1018800044EA01014FEA0111104C0678A155047891
:1018900004F01F054FF0010404FA05F405784FEA3F
:1018A00065154FF0E02606EB8505C5F8004109E017
:1018B000047804F01F050124AC40054D067876112C
:1018C00045F8264070BD00000CED00E000E400E0AB
:1018D00080E100E002490143024A116070470000C4
:1018E0000000FA050CED00E00848006800F4E06034
:1018F000074940EA010000F104004FF0E021C1F87F
:101900000C0DBFF3408F00BFFEE700000CED00E0C0
:101910000000FA050848006800F4E060074940EA62
:10192000010000F104004FF0E021C1F80C0DBFF3FD
:10193000408F00BFFEE700000CED00E00000FA055C
:10194000014908627047000000000E4205A001F046
:1019500031F972B671B64FF4FA6002F0D7FCFFF7B6
:10196000C3FF00000D0A4552524F525F50454E448E
:1019700053560D0A0000000029B1064AD2690243FD
:10198000044BDA6104E0034AD2698243014BDA6115
:10199000704700000010024029B1064A92690243D4
:1019A000044B9A6104E0034A92698243014B9A61B5
:1019B00070470000001002400149086070470000B5
:1019C0004004424210B500F03BF8012000F0FAF864
:1019D00000BF212000F0C4F80028FAD01020FFF743
:1019E000F1FA0220FFF72EFB002000F0DFF80020C4
:1019F00000F000F9002000F0F1F84FF46011002031
:101A000000F00AF9012000F001F900BF392000F0D0
:101A1000A7F80028FAD0022000F01AF900BF00F061
:101A2000BDF80828FBD1012144F27D00FFF7B4FF87
:101A300001210248FFF7A0FF10BD000002001E1A9E
:101A40000F48006840F001000D49086008464068F2
:101A50000C4908400A494860084600680A4908409D
:101A6000074908600846006820F48020086008469E
:101A7000406820F4FE0048604FF41F008860704703
:101A8000001002400000FFF8FFFFF6FE30B5002115
:101A90000022002400232D4D6D6805F00C0121B1BA
:101AA000042905D0082923D105E0294D056022E04D
:101AB000274D05601FE0254D6D6805F47012234D1C
:101AC0006D6805F48034022505EB92421CB9214D66
:101AD000554305600BE01D4D6D6815F4003F03D0C4
:101AE0001C4D5543056002E0194D5543056002E069
:101AF000174D056000BF00BF144D6D6805F0F00183
:101B00000909154D6B5C0568DD4045600F4D6D683A
:101B100005F4E061090A104D6B5C4568DD408560A5
:101B20000A4D6D6805F46051C90A0B4D6B5C456840
:101B3000DD40C560054D6D6805F44041890B074DDA
:101B40006B5CC568B5FBF3F5056130BD0010024064
:101B500000127A0000093D004800002058000020D3
:101B600010B501460022002300204A11012A02D1AB
:101B7000094C236806E0022A02D1074C236A01E0DF
:101B8000054C636A01F01F02012494401C4201D0FD
:101B9000012000E0002010BD001002400248406813
:101BA00000F00C00704700000010024001460020C9
:101BB000034A506820F0F00008435060704700006E
:101BC00000100240014908607047000000004242D6
:101BD000014908607047000080044242014600202D
:101BE000034A506820F4E0600843506070470000EA
:101BF0000010024001460020034A506820F4605063
:101C000040EAC10050607047001002400149086678
:101C1000704700000000424202460020044B586812
:101C200020F47C1042EA01031843014B58607047CE
:101C30000010024001490860704700003C04424225
:101C40000249096A0143014A1162704700100240CB
:101C500001460020034A506820F00300084350600A
:101C6000704700000010024010B5022000F066F836
:101C700050B14FF40030FFF7B9F800F0CBF8022074
:101C800000F004F800F0C6F810BD0000054909880E
:101C90006FEA000292B201EA0201034AA2F80418B4
:101CA00070470000042800400020004010B50120CB
:101CB000FFF746FEFEF71CFE0120FFF789FF4FF4F9
:101CC0000070FFF7BDFF0120FFF7B4FF00F0ACF894
:101CD00049F6404000F08CF800F09CF801210846DD
:101CE00000F05CF800F096F810BD00000348008892
:101CF00040F010000249A1F8040870470428004091
:101D000000200040044800884FF6EF7100EA01000F
:101D10000249A1F804087047042800400020004050
:101D20000021044801880448B0F8180841EA00403E
:101D3000704700001C2800400020004001460020A1
:101D4000074A128802EA0102D0B2064AB2F8002815
:101D50000A4202D008B1012000E0002070470000D4
:101D6000042800400020004010B50120FFF7E6FFE6
:101D700080B10120FFF78AFF04F074FC00F04AF8FC
:101D8000FFF7CEFF0449884204D1002000F01EF87E
:101D900000F040F810BD00008051010039B1094A3F
:101DA000128842EA0002084BA3F8002809E0054A1D
:101DB00012886FEA00039BB202EA0302024BA3F807
:101DC00000287047002800400020004000B502466F
:101DD000FFF78CFF100C044908800449A1F81C2867
:101DE000FFF790FF00BD00001828004000200040D1
:101DF00000B50246FFF77AFFC2F3034003490880AB
:101E00000349A1F80C28FFF77DFF00BD082800401A
:101E10000020004000BF0348008810F0200FFAD0D7
:101E20007047000004280040074800884FF6F7710B
:101E300000EA01000549A1F8040800BF0248008833
:101E400010F0080FFAD0704704280040002000402E
:101E500005A000F0AFFE72B671B64FF4FA6002F062
:101E600055FAFFF741FD00000D0A4552524F525FEF
:101E70005356430D0A0000002DE9F04104460F4679
:101E800016464FF496711748FEF787F90020164959
:101E9000086000250BE0615D144800F07EFD00BF86
:101EA0004021124800F0ACFC0028F9D06D1C605DA8
:101EB0000028F0D1012208210D48FFF7C9FB304668
:101EC00002F024FA002208210948FFF7C1FB394635
:101ED0000448FEF77CF910B10120BDE8F081002034
:101EE000FBE70000780600200400002000440040CA
:101EF000000C014010B500F001F810BD00210020D9
:101F00002E4A126842F480322C4B1A6000BF2B4AD2
:101F1000126802F40030491C10B9B1F5A06FF6D177
:101F2000264A126812F4003F01D0012000E0002090
:101F3000012842D1224A126842F01002204B1A6056
:101F40001A46126822F003021A601A46126842F01A
:101F500002021A60194A5268184B5A601A465268AF
:101F60005A601A46526842F480625A601A465268B1
:101F700022F47C125A601A46526842F4E8125A60FF
:101F80001A46126842F080721A6000BF0B4A12684B
:101F900012F0007FFAD0094A526822F00302074B80
:101FA0005A601A46526842F002025A6000BF034A61
:101FB000526802F00C02082AF9D170470010024062
:101FC000002002407047000010B51348006840F040
:101FD00001001149086008464068104908400E4950
:101FE0004860084600680E4908400B4908600846EA
:101FF000006820F4802008600846406820F4FE0055
:1020000048604FF41F008860FFF774FF4FF00060D6
:102010000449086010BD0000001002400000FFF8F5
:10202000FFFFF6FE08ED00E010B50121880700F083
:1020300077F860B10121880700F03CF800214FF0EB
:10204000804000F03AF800204FF08041888410BDB5
:1020500010B501210E4800F063F8B8B101210C4819
:1020600000F028F80B48006840B9012210210A4806
:10207000FFF7EEFA01200749086007E0002210216F
:102080000548FFF7E5FA00200249086010BD00008E
:102090000004004044000020000C014021B10288EF
:1020A00042F08002028004E002884FF67F731A40FB
:1020B00002807047CA430282704721B1028842F011
:1020C0000102028004E002884FF6FE731A4002808B
:1020D000704700000EB542F21070ADF804004FF4E6
:1020E000E150ADF800000020ADF80600ADF80200A8
:1020F00069460A4800F032F801210848FFF7CEFF90
:1021000001210648FFF7D6FF01221146034800F0DF
:1021100018F801210148FFF7D0FF0EBD0004004070
:1021200030B50246002000230024158A05EA010389
:10213000958905EA010413B10CB1012000E00020EB
:1021400030BD10B51AB183890B43838104E08389C4
:10215000CC43A4B22340838110BD0000002202883A
:102160001D4B98420ED01D4B98420BD0B0F1804FC2
:1021700008D01B4B984205D01A4B984202D01A4BFC
:10218000984204D14FF68F731A404B881A43174B6D
:10219000984207D0164B984204D04FF6FF431A409E
:1021A000CB881A4302808B8883850B8803850A4B72
:1021B00098420BD0094B984208D00E4B984205D05C
:1021C0000D4B984202D00D4B984201D10B7A0386F9
:1021D0000123838270470000002C0140003401403D
:1021E0000004004000080040000C004000100040C7
:1021F00000140040004001400044014000480140FC
:1022000010B508212F4800F0FBFA30B108212D4805
:1022100000F08CF92B4800F0BBFB40F22551294817
:1022200000F0FBFAE8B3274800F0B2FBC4B2214645
:10223000244800F0B2FB00BF4021224800F0E0FA41
:102240000028F9D0204801680068401C1E4A106030
:102250001E48445400201D491D4A126888541A48DB
:102260000068B0F5967F02D9002017490860194828
:10227000006804280AD12146174800F08EFB00BFF1
:102280004021154800F0BCFA0028F9D01348006836
:1022900038B121460B4800F080FB00BF40210948BF
:1022A00000E008E000F0ACFA0028F7D02021054853
:1022B00000F03CF910BD2021074800F037F900BFBD
:1022C000F8E70000004C00400C000020B80C002093
:1022D0000800002014000020003801401C000020ED
:1022E00010B50821154800F08BFA30B108211348C9
:1022F00000F01CF9114800F04BFB40F225510F484B
:1023000000F08BFAA8B10D4800F042FBC4B22046A1
:1023100002F028FC0A48006805280AD1214609482D
:1023200000F03BFB00BF4021064800F069FA00289E
:10233000F9D02021014800F0F9F810BD005000400C
:10234000140000200038014010B50821164800F0A4
:1023500057FA30B10821144800F0E8F8124800F0AC
:1023600017FB40F22551104800F057FAB8B10E485B
:1023700000F00EFB0D490870084601780C48026811
:102380000068401C0A4B18600A48815418460068CF
:1023900040F21451884202D90020194608602021D9
:1023A000014800F0C3F810BD003801404000002093
:1023B000000000206401002010B50821214800F031
:1023C0001FFA30B108211F4800F0B0F81D4800F096
:1023D000DFFA40F225511B4800F01FFA80B319487C
:1023E00000F0D6FA184908701848006802280BD186
:1023F00008460178164800F0D0FA00BF4021144882
:1024000000F0FEF90028F9D00F4801781148026861
:102410000068401C0F4B18600F48815400200E4983
:102420001A46126888541846006840F214518842CF
:1024300002D90020194608602021024800F076F8F1
:1024400010BD0000004400404100002014000020A6
:1024500000380140040000207806002010B501205B
:102460002A49086008212A4800F0CAF930B1082139
:10247000274800F05BF8264800F08AFA40F2255120
:10248000234800F0CAF9C8B3214800F081FAC4B269
:102490002048006803280AD121461F4800F07DFA31
:1024A00000BF40211C4800F0ABF90028F9D01B48C0
:1024B00001680068401C194A106019484454002003
:1024C00017491268885415480068B0F5967F02D9FC
:1024D0000020124908601348006880B121460C486A
:1024E00000F05BFA00BF4021094800F089F900289C
:1024F000F9D020210C4800F019F810BD03E020218C
:10250000034800F013F800BFF7E7000020000020A8
:10251000004800401400002000380140080000205E
:102520008C0B00201C000020004C004001F40072C5
:10253000B2F5007F00D100BFCA430280704721B1CD
:10254000828942F40052828104E082894DF6FF7351
:102550001A4082817047000000B585B0012144F225
:102560000400FFF719FA4FF40070ADF810001820BE
:102570008DF8130003208DF8120004A99748FEF788
:1025800095FF4FF48060ADF8100004208DF8130023
:1025900003208DF8120004A99048FEF787FF4FF43E
:1025A000613000900020ADF80400ADF80600ADF8F1
:1025B0000800ADF80C000C20ADF80A006946884808
:1025C00000F07AF9012240F22551854800F04FF9D8
:1025D00001218348FFF7B3FF01214804FFF7CCF93D
:1025E00001210420FFF7D8F90420ADF810001820CD
:1025F0008DF8130003208DF8120004A97748FEF728
:1026000055FF0820ADF8100004208DF813000320BA
:102610008DF8120004A97148FEF748FF4FF4E1302D
:1026200000900020ADF80400ADF80600ADF80800F9
:10263000ADF80C000C20ADF80A006946694800F0BE
:102640003BF9012240F22551664800F010F90121C2
:102650006448FFF774FF01218804FFF78DF9012119
:102660000820FFF799F94FF48060ADF810001820AA
:102670008DF8130003208DF8120004A95A48FEF7C4
:1026800015FF4FF40060ADF8100028208DF81300FE
:1026900003208DF8120004A95348FEF707FF4FF4FA
:1026A000164000900020ADF80400ADF80600ADF82B
:1026B0000800ADF80C000C20ADF80A0069464B4844
:1026C00000F0FAF8012240F22551484800F0CFF816
:1026D00001214648FFF733FF0121C804FFF74CF9F9
:1026E00001211020FFF758F94FF48060ADF8100079
:1026F00018208DF8130003208DF8120004A93C481F
:10270000FEF7D4FE4FF40060ADF8100004208DF801
:10271000130003208DF8120004A93548FEF7C6FE09
:102720004FF4165000900020ADF80400ADF80600FC
:10273000ADF80800ADF80C000C20ADF80A006946B1
:102740002C4800F0B9F8012240F22551294800F048
:102750008EF801212748FFF7F2FE01210805FFF757
:102760000BF901213020FFF717F94FF48050ADF835
:10277000100018208DF8130003208DF8120004A912
:102780001B48FEF793FE0420ADF810008DF81300EF
:1027900003208DF8120004A91748FEF787FE4FF4B6
:1027A000165000900020ADF80400ADF80600ADF81A
:1027B0000800ADF80C000C20ADF80A0069460F487F
:1027C00000F07AF8012240F225510C4800F04FF851
:1027D00001210A48FFF7B3FE05B000BD0008014023
:1027E0000038014000440040000C01400048004017
:1027F00000100140004C0040001401400050004017
:1028000002460020B1F5007F00D100BF13880B42C3
:1028100001D0012000E00020704770B5024600247E
:10282000002300250020A1F510666A3E00D100BFFC
:10283000C1F3421501F01F03012606FA03F3012D2F
:1028400002D19689334006E0022D02D1168A334028
:1028500001E0968A33400C12012606FA04F4168829
:10286000344013B10CB1012000E0002070BDF0B580
:1028700003460024002600250020A1F510676A3FCA
:1028800000D100BF1846C1F3421401F01F06012712
:1028900007FA06F5012C01D10C3004E0022C01D11D
:1028A000103000E014301AB107682F43076002E0CF
:1028B0000768AF430760F0BD2DE9F04786B00546D5
:1028C0000E460024A24600BFA1460027B08900B1F1
:1028D00000BF2F462C8A4CF6FF700440F08804435A
:1028E0002C82AC894EF6F3100440B088318908433D
:1028F000718908430443AC81AC8A4FF6FF40044021
:10290000B0890443AC8201A8FFF7C0F81F48874292
:1029100002D1DDF810A001E0DDF80CA0A88910F4C8
:10292000004F08D00AEBCA0000EB0A1031684900DA
:10293000B0FBF1F807E00AEBCA0000EB0A103168BF
:102940008900B0FBF1F86420B8FBF0F00401200925
:10295000642101FB1089A88910F4004F08D03220AF
:1029600000EBC900B0FBF1F000F00700044308E001
:10297000322000EB09106421B0FBF1F000F00F00F1
:1029800004432C8106B0BDE8F08700000038014008
:1029900001468888C0F308007047C1F308028280AE
:1029A0007047000000B585B0002201212848FEF7DD
:1029B0004FFE08212748FEF719F860B126A000F065
:1029C000F9F86A4600212348FEF7A4F808212148B7
:1029D000FDF7ACFF00BF40211E48FEF707F860B1CD
:1029E00022A000F0E7F86A4601211A48FEF792F8A3
:1029F00040211848FDF79AFF00BF02211548FDF756
:102A0000F5FF60B16A4600211248FEF783F8684678
:102A100001F054FE02210F48FDF788FF00BF10218E
:102A20000C48FDF7E3FF60B115A000F0C3F86A465B
:102A300001210848FEF76EF810210648FDF776FFE1
:102A400000BF012211460248FEF702FE05B000BD9C
:102A5000000C0140006400400D0A43414E206572A5
:102A6000726F723121210D0A000000000D0A4341EE
:102A70004E206572726F723221210D0A0000000033
:102A80000D0A43414E206572726F723321210D0A87
:102A9000000000000AE006A000F08CF872B671B6E3
:102AA0004FF4FA6001F032FCFEF71EFFF3E700007E
:102AB0000D0A4552524F525F55534147450D0A008A
:102AC0002DE9F04107460E4614461D464FF000081A
:102AD000E1B2304600F0EAFCA84206D015A000F0B2
:102AE00069F84FF0FF30BDE8F081224631463846A4
:102AF00001F09FFF4FF47A7001F008FCFF2240F2D2
:102B000014511B48FDF742FB22461949384601F093
:102B100081FFE1B2164800F0C9FCA84205D015A01B
:102B200000F048F86FF00100DDE719A000F042F86E
:102B30000120D8E70D0A6275662064617461206324
:102B40007263206572726F72202C63757272656E8B
:102B50007420646174612061626F72742C706C65A2
:102B60006173652072657472792121210D0A00005C
:102B7000341600200D0A7265616420666C6173680A
:102B80002064617461206572726F723A0D0A0000F0
:102B90000D0A7772697465207265616420636865E7
:102BA000636B20666C617368206F6B2B2B2B2B2B58
:102BB0000D0A00000FB4054B10B503A9044A029892
:102BC00000F0DAF810BC5DF814FB0000C54A0008FC
:102BD0005C0100200FB4084B10B504A902AA0398A9
:102BE00000F0CAF8044602A9002000F059FC204673
:102BF00010BC5DF814FB0000A134000800487047C9
:102C00006001002002E008C8121F08C1002AFAD1A2
:102C100070477047002001E001C1121F002AFBD15C
:102C2000704700002DE9FF5FDDE90210020DDDF8BD
:102C300038B001430FD10F9801244AA3012807D0CF
:102C400000980F9AC0E90031C0E90242BDE8FF9F39
:102C50006FEA0B01F4E7A2F2FF3244F61050424350
:102C600015140F9801280FD0A5EB0B00401C4FF056
:102C700000043D4EDFF8F490B0F1000AA046C0F128
:102C8000000717DB074615E0CBF10000EFE7F80778
:102C900007D02246334640464946FDF7A0FB804612
:102CA00089462246334620463146FDF798FB0446C6
:102CB0000E467F10002FEAD1DDE90201BAF1000FC4
:102CC00042464B4602DAFDF78AFB01E0FDF715FDAF
:102CD00004460E460022264BFDF796FD03D84FF022
:102CE000FF30014607E00022224B20463146FDF727
:102CF000D1FAFDF771FD102409E0002C0ADB0A224D
:102D00000023FDF7F3FB019B30321A55641E50EA95
:102D10000102F2D1641C019AC4F1110314440F9A08
:102D2000012A07D00122084301D15B450DDD0022B5
:102D30006D1C0DE0084303D1A3EB0B056D1E09E0EC
:102D400000204FF0110B0F908BE701DA00226D1E6F
:102D5000002A86D000980F99C0E90231C0E90045E9
:102D600074E7000030000000000024400000F03F45
:102D70000000F0430000E03F2DE9FF4F95B006460C
:102D80009A460F460025F2E1252878D10024761CCA
:102D9000FB4AA046012106943378203B01FA03F058
:102DA000104202D00443761CF6E730782A2811D06E
:102DB0006FF02F023078A0F13001092915D806995B
:102DC00044F0020401EB810102EB41010844761C4E
:102DD0000690EFE701CF0690002803DA404244F462
:102DE0000054069044F00204761C30782E2817D147
:102DF00016F8010F44F004042A280ED06FF02F02B9
:102E00003078A0F1300109290AD808EB880102EBDB
:102E1000410100EB0108761CF2E757F8048B761CA1
:102E200030786C280FD006DC4C2817D068280DD0DD
:102E30006A2814D104E0742810D07A280FD10DE04C
:102E400044F400140AE044F4801401E044F4401413
:102E50007178814202D1761C04F58014761C30789A
:102E6000864666280AD012DC582872D008DC80B367
:102E7000452803D0462801D047281AD196E118E00A
:102E8000632832D0642875D0652812D18EE170286D
:102E90006ED008DC67286CD069286BD06E280DD006
:102EA0006F2806D1A9E0732828D075286FD078281C
:102EB0006ED05246179990476D1C56E1C4F30250EC
:102EC000022807D003280BD0042801CF0BD00560BF
:102ED0004BE150E101CF4FEAE571C0E9005144E117
:102EE00001CF058041E105703FE101CF8DF8000081
:102EF00000208DF80100EB46012003E057F804BBE9
:102F00004FF0FF3061074FF0000102D40DE009F1EE
:102F10000101894641450FDA8145F8DB1BF80910AC
:102F20000029F4D108E009F1010189468142FADB68
:102F30001BF809100029F6D106985346A0EB0900AA
:102F400080462146179A00F094FA284400EB0905C0
:102F500005E047E01BF8010B524617999047B9F17D
:102F60000109F7D2534621464046179AFAE001E09C
:102F70003AE01BE10A21C4F302524FF0000B00912A
:102F8000022A06D001CFC117032A08D009E022E0A7
:102F900023E0FF1D27F00707F7E8020105E000B274
:102FA000C117042A01D140B2C117002906DA0A4626
:102FB0000021404261EB02012D2202E0220504D5EE
:102FC0002B228DF80420012203E0E20701D0202209
:102FD000F7E7914653E00A2110E010204FF0000B74
:102FE00000900EE0102109E010204FF0000B44F09B
:102FF00004044FF00808009003E008214FF0000B94
:103000000091C4F30252022A04D001CF0021032A06
:1030100006D007E0FF1D27F00707F7E8020105E0EB
:1030200080B20021042A01D1C0B200214FF0000972
:10303000220724D5BEF1700F2AD0009B83F0100325
:1030400053EA0B0309D150EA010206D030228DF871
:1030500004208DF805E002229146009B83F00803CE
:1030600053EA0B030BD150EA010201D1620706D5E6
:1030700030228DF804204FF00109A8F1010841A287
:10308000BEF1580F00D044A203920FAA02920FE0A3
:1030900040228DF804200122DEE75B46009AFDF70E
:1030A00025FA039B9B5C029AA2F101020292137023
:1030B00050EA0102F1D1029807A9A1EB000000F14A
:1030C000200B600702D524F4803401E04FF00108A2
:1030D000002041465A46D84501DDA1EB020000EB35
:1030E0000B01009006984944A0EB01000690E00314
:1030F00006D453462146179A069800F0BAF90544BB
:10310000002008E001A8524610F8080017999047DF
:103110006D1C08F1010080464845F3DBE0030CD547
:1031200053462146179A069800F0A3F9054404E097
:1031300030205246179990476D1C0099481E009008
:103140000029F5DC08E00298029952460078491CF3
:103150000291179990476D1CBBF10001ABF1010B77
:10316000F1DC67E100F072F9054406F10106307800
:1031700000287FF409AE19B02846BDE8F08F0000A2
:10318000092801003031323334353637383941427D
:103190004344454600000000303132333435363781
:1031A000383961626364656600000000600701D41D
:1031B0004FF0060807F1070727F00707A0A1F7E877
:1031C000020C0CF000431A0007D19EA1220504D482
:1031D0009DA1E20701D1AFF2440112912CF0004C05
:1031E0007146BEF1650F0ED007DC45290BD046298C
:1031F00020D0BEF1470F3DD13DE066291AD0BEF187
:10320000670F37D137E0002311224146B8F1110F83
:1032100000DA4A1CCDE900230246634607A902A84A
:10322000FFF700FD012000904FF0000B08F10109AD
:10323000039868E04FF000410F910123CDE900832E
:103240000246634607A902A8FFF7ECFCDDE90490FB
:103250004FF0000B20B9039908F1010001EB0009C0
:10326000B8EB090003D4C0F1FF3B08F10109A9EB59
:103270000800009048E04146B8F1010F01DA012151
:10328000884600231122B8F1110F00DC0A46CDE96F
:1032900000230246634607A902A8FFF7C3FC4FF0CC
:1032A000000BC14620070FD40499414503DA894633
:1032B00001E0A9F10109B9F1010F05DD0299A9F1B8
:1032C0000100085C3028F4D00399414502DA11F17D
:1032D000040F03DA01200F91009015E0002903DCB0
:1032E0008B44A9EB010005E0481C484503DD039829
:1032F00000F1010081460399A1EB0B0000F10100F0
:1033000000904FF000400F90200705D400984845EA
:1033100002DB4FF0FF30009000210F980DF14708BD
:103320008DF84710B0F1004F26D0022001902B20DD
:1033300013900F9800280CDA40420F902D20139024
:1033400007E00A210F98FDF7BBF830310F9008F81D
:10335000011D0199481E01900029F2DC0F980028F8
:10336000EFD1A8F1010213991170317801F0200119
:1033700041F0450108F8021D10A9A1EB080000F179
:10338000070001901298007800B1012000EB0901BC
:10339000009801EBE071019801440698A0EB010050
:1033A000A0F101000690E00306D453462146179A87
:1033B000069800F05EF805441298007820B1524655
:1033C0001799904705F10105E00322D553462146A0
:1033D000179A069800F04DF805441AE0BBF1000F6B
:1033E00007DB0499594504DD029911F80B00179980
:1033F00001E0179930205246904700986D1C401EFE
:103400000BF1010B009004D12E20524617999047E2
:103410006D1CB9F10001A9F10109DFDC05E018F824
:10342000010B5246179990476D1C0199481E019057
:103430000029F4DC53462146179A069892E60000CC
:103440002D0000002B000000200000002DE9F041BD
:103450000446002517461E46880405D406E0394672
:103460002020B04705F10105641EF8D52846BDE8C7
:10347000F0812DE9F04104460025302790461E4694
:10348000C80300D42027880405D506E04146384605
:10349000B04705F10105641EF8D52846BDE8F08166
:1034A0000A68531C0B60107070470000F0B5ADF552
:1034B000017D05460E464FF400720F4901A8FCF746
:1034C00053FE00240EE02046E11704EB1161C1F326
:1034D00007272006040C2878784001A931F810004D
:1034E00044406D1C3000A6F10101CEB2EBD1204664
:1034F0000DF5017DF0BD0000347B000810B50248D9
:1035000000F014FC10BD00002816002038B5044659
:10351000042C00D82CB916A0FFF74CFB4FF0FF305D
:1035200038BD224618A16846FFF754FB694617A02C
:10353000FFF740FB4FF4C8721EA121A0FEF79CFCD0
:1035400028B923A0FFF736FB4FF0FF30E8E76946C4
:103550002648FCF73CFE28B1694625A0FFF72AFB68
:103560000020DDE7694624A0FFF724FB0120D7E710
:10357000717565727920736F636B6574204944209F
:103580006572726F720D0A00256400000D0A63688F
:1035900065636B20736F636B657420257320737490
:1035A0006174652B2B2B2B2B2B2B2B2B2B2B2B2BB2
:1035B0000D0A00002B4D49504F50454E00000000B1
:1035C00041542B4D49504F50454E3F0D00000000D7
:1035D000717565727920736F636B657420636D64B8
:1035E000206572726F720D0A0000000078060020DC
:1035F00063616E206E6F742066696E642074686506
:1036000020736F636B65743A25730D0A0000000028
:1036100010B502460B460020002102E0545C6040D9
:10362000491C9942FADB10BD90B00024641C0220B2
:103630003949086000BF03F0A3FF4FF4FA7237A1C5
:1036400037A0FEF719FC4FF4FA7234A134A0FEF74C
:1036500013FC02F081FE33A13648FCF7B8FD20B917
:1036600035A13448FCF7B3FD30B135A0FFF7A2FA1D
:10367000012004F007F8DEE74DE0402236496846B5
:10368000FCF772FD34481438001D0FC800F04CFEE2
:1036900020B9214631A0FFF78DFACCE701F052FAAC
:1036A00000244FF4FA721DA134A0FEF7E5FB4FF49D
:1036B000FA621AA137A0FEF7DFFB3DA0FFF77AFA06
:1036C0004FF4FA623CA13DA0FEF7D6FB0022114662
:1036D0003EA0FEF7D1FB1A214048FFF75EF900BF7C
:1036E00040213E48FFF78CF80028F9D04FF47A705B
:1036F00000F00CFE40223A496846FCF735FD384898
:1037000010380FC802F090FF29A0FFF753FA40F6D7
:10371000B83000F0FBFDB0E7140000204F4B000074
:1037200041540D004E4F5420494E53455254454488
:10373000000000007806002052454D4F564500001D
:103740000D0A73696D2063617264206E6F74206965
:103750006E736572740D0A00240F00200D0A6573E4
:103760007461626C697368206E6574776F726B2028
:103770006661696C203A25640D0A000041542B4DA6
:103780004950534554533D312C352C313030300D98
:103790000000000041542B4D495053454E443D31EB
:1037A0002C2233303331333233333334220D0000A3
:1037B0000D0A0D0A000000003E00000041542B4D90
:1037C00049505453454E443D310D000068656C6CC2
:1037D0006F2C776F726C6421210000000044004060
:1037E000F02000202DE9FF4F95B00E461746984671
:1037F00000240025A146A2464FF47A71C848FCF780
:10380000CCFC142110A8FCF7C8FC00BF00BFB9F124
:10381000020F15DDB8F1010F07D1C2A0FFF7CAF9F9
:103820004FF0FF3019B0BDE8F08FC7A0FFF7C2F925
:103830004FF000094FF47A7000F068FD0020F1E7C6
:1038400009F10109379888B1C8A0FFF7B3F9402200
:1038500027A96846FCF788FC23A80FC800F064FD80
:10386000002803DCC8A0FFF7A5F9D0E74FF0000A55
:1038700000BF0AF1010ABAF1020F05DDC7A0FFF788
:1038800099F94FF0FF30CDE74FF47A71A448FCF777
:1038900084FC00242146C6A0FFF78CF90FB3A04A90
:1038A0001421C94803F09CFE044604EBD47149106E
:1038B000B4EB410103D0C5A0FFF77CF9D9E79848E4
:1038C0000219B1B2159803F08BFE204404B204EB48
:1038D000D4714910B4EB41011CD0C4A0FFF76AF9C0
:1038E000C7E78F48FCF789FC8D4900EB010B5A466E
:1038F000B1B2159803F074FE204404B204EBD47105
:103900004910B4EB410105D0B8A0FFF753F94FF0CF
:10391000FF3087E7A34604EBD4704010421CBAA1E5
:10392000BF48FFF757F9BE49BEA0FFF743F94FF470
:10393000FA72C2A1BA48FEF79FFA40F21451C04889
:10394000FCF72BFC0020BF4908601421BE48FCF79F
:1039500024FCBEA1BC482F9AFFF73CF97049BFA0D8
:10396000FFF728F96E4AB849C0A0FFF723F93021C4
:10397000C348FFF712F800BF4021C148FEF740FFDF
:103980000028F9D04421BE48FFF707F800BF4021C6
:10399000BB48FEF735FF0028F9D02221B848FEF7D2
:1039A000FCFF00BF4021B648FEF72AFF0028F9D0EF
:1039B0000D21B348FEF7F1FF00BF4021B048FEF7EC
:1039C0001FFF0028F9D00A21AD48FEF7E6FF00BF2F
:1039D0004021AB48FEF714FF0028F9D05048FCF70F
:1039E0000CFC83469848FCF708FC23465A460146DF
:1039F0000F90A4A0FFF7DEF84FF47A7000F086FC79
:103A00001421A7A0FFF7D6F82146AAA0FFF7D2F805
:103A100000250DE08C48405781B2AB48FEF7BDFF52
:103A200000BF4021A848FEF7EBFE0028F9D06D1C2E
:103A30008548FCF7E2FBA842ECD800251AE038489C
:103A4000405781B2A048FEF7A8FF00BF40219E4822
:103A5000FEF7D6FE0028F9D03148405781B2884899
:103A6000FEF79BFF00BF40218548FEF7C9FE0028F6
:103A7000F9D06D1CA542E2DB30219348FEF78DFFA3
:103A800000BF40219048FEF7BBFE0028F9D044213A
:103A90008D48FEF782FF00BF40218B48FEF7B0FE45
:103AA0000028F9D022218848FEF777FF00BF402187
:103AB0008548FEF7A5FE0028F9D00D218248FEF7C3
:103AC0006CFF00BF40218048FEF79AFE0028F9D025
:103AD0007EA0FFF76FF81BE0642000F017FC57A1F1
:103AE0005748FCF774FB18B179A0FFF763F810E0B2
:103AF0007EA15348FCF76BFB18B17EA0FFF75AF884
:103B000085E66D1C322D03DD83A0FFF753F800E03E
:103B1000E2E700BF229808B1FFF7F0FC012081E640
:103B2000981C00200D0ACAFDBEDDD6D8B7A2CAA7D0
:103B3000B0DCD7B4CCACA3ACB2BBB2B9B7A2CAFDAF
:103B4000BEDD0D0A000000000D0ACAFDBEDDD6D89C
:103B5000B7A2CAA7B0DCA3ACB4E6B4A2B5BDCAFD97
:103B6000BEDD466C617368D6D00D0A000D0ABCEC50
:103B7000B2E9CDF8C2E7CAC7B7F1D0E8D2AAD6D821
:103B8000C1AC0D0A000000000D0ACDF8C2E7D6D87E
:103B9000C1ACCAA7B0DC0D0A000000000D0A7374A6
:103BA0007232486578206572726F720D0A000000EB
:103BB0000D0A64617461206C656E677468203A2038
:103BC00025640D0A00000000A82000200D0A63688B
:103BD0006172207472616C617465206865616465EE
:103BE00072206572726F720D0A0000000D0A747205
:103BF000616E736C617465206461746120657272BA
:103C00006F720D0A0000000041542B4D495053457E
:103C100054533D312C25642C3530300D000000000C
:103C2000942000200D0A73657420736F636B6574B4
:103C300020636D643A25730D0A0000004F4B0000AD
:103C400078060020040000208020002041542B4DE5
:103C5000495053454E443D25642C22000D0A6461B1
:103C6000746120203A25730D0A0000000D0A736567
:103C70006E6420636D64203A257325730000000094
:103C8000003801400D0A636D643A25642020627596
:103C9000663A25642020646174613A25640D0A0047
:103CA0000D0A636D642073697A65203A25640D0AF4
:103CB000000000000D0A6275662073697A65203A7B
:103CC00025640D0A00000000004400400D0A0000B9
:103CD0000D0A46494E442053454E44204F4B2C4339
:103CE0004F4E54494E55450D0A0000004552524F63
:103CF000520000000D0A46494E44204552524F5290
:103D00002E474F544F2053544F524520414E44208C
:103D10004552524F520D0A000D0A54494D45204F4D
:103D20005554202C474F4F4E0D0A000038B504461D
:103D300000200090204600F0B9FC00B138BD12A070
:103D4000A168FEF737FF18E016A0A168FEF732FF62
:103D50006946204600F0E0FE0098D0F8801018A0D8
:103D6000FEF728FF009800F035F800200099C1F810
:103D7000800080210098FCF710FA204600F096FCA5
:103D80000028E1D000BFD9E70D0AB4FDB4A6C0ED0C
:103D9000B5C4CFC2B7A2CAFDBEDDC1BFA3BA2564F8
:103DA0000D0A00000D0ACAA3D3E0D0E8B4A6C0ED06
:103DB000B5C4D0C5CFA2C1BFA3BA25640D0A000007
:103DC0000D0ABDDAB5E3CAFDBEDDC1BFA3BA2564E5
:103DD0000D0A0000F8B507460025AFA0FEF7EAFE81
:103DE00000BF04E0795DB1A0FEF7E4FE6D1C802DFC
:103DF000F8DBAFA13846FCF7EAF90646761C7EB33D
:103E00003446E08800F11001201DFFF701FCE17845
:103E1000884273D1A8A0FEF7CDFEA08849F2F30234
:103E2000811A90423BD01CDC41F22212A0EB02012D
:103E300090427ED00BDCB0F5887F58D0A0F5807022
:103E4000113877D0A0F58050103874D1C5E0012921
:103E500072D0A1F5FE41CF3919D001296BD11AE0FA
:103E600017E11D293BD006DC0D2934D00E2927D0BF
:103E70000F2960D12BE02D2935D03D2902D03E29D4
:103E800059D100E000BF90A0FEF794FEE8E095A0B5
:103E9000FEF790FEE4E09AA0FEF78CFEE0E09EA024
:103EA000FEF788FEA3A0FEF785FE4FF4FA6000F04F
:103EB0002DFA26461436E188304602F05BFECFE04C
:103EC000A3A0FEF777FE0120A7490860C8E0A7A0DD
:103ED000FEF770FEC4E0ABA0FEF76CFEC0E0AEA043
:103EE000FEF768FEBCE0B1A0FEF764FEB8E0B4A047
:103EF000FEF760FE04F11406002505E0B1E0715DF7
:103F0000B5A0FEF757FE6D1CE088A842F7DCB3A011
:103F1000FEF750FEA08840F40040A0800020E08022
:103F20001021201DFFF774FBE07000231A461421B6
:103F300003E070E00AE08FE031E02046009302F0F9
:103F400019FC4FF4FA6000F0E1F989E0A9A0FEF74E
:103F500031FE04F11406002504E0715D9EA0FEF719
:103F600029FE6D1CE088A842F7DCAAA0FEF722FE1D
:103F7000A08840F40040A0800020E0801021201D97
:103F8000FFF746FBE07000231A46142120460093F9
:103F900002F0F0FB4FF4FA6000F0B8F960E0A2A084
:103FA000FEF708FE9BA0FEF705FEA08840F4004047
:103FB000A0800020E0801021201DFFF729FBE07089
:103FC00000231A4614212046009302F0D3FB9CA044
:103FD000FEF7F0FD03F0A2FB42E09EA0FEF7EAFD33
:103FE00004F11406A08840F40040A0800020E08086
:103FF0001021201DFFF70CFBE07000231A4614214E
:104000002046009302F0B6FB99A0FEF7D3FD0120F5
:1040100001F01AFC24E09CA0FEF7CCFD04F114068C
:104020007CA0FEF7C7FDA08840F40040A0800020DF
:10403000E0801021201DFFF7EBFAE07000231A4604
:1040400014212046009302F095FB96A0FEF7B2FDE6
:10405000022001F0F9FB03E098A0FEF7ABFD00BFE2
:1040600017E09CA0FEF7A6FDA1889EA0FEF7A2FD8A
:10407000A1A0A168FEF79EFD07A0FEF79BFD00250D
:1040800004E0615D09A0FEF795FD6D1C322DF8DBA3
:10409000F8BD00BFFCE700000D0A425546464552F8
:1040A0005420444144413A0D0A0000002533580091
:1040B0003A2A2A2A000000000D0A435243204F4B9F
:1040C00021210D0A000000000D0A41434B5F504FB3
:1040D0005745525F53544154455F4D53472D2D0D65
:1040E0000A0000000D0A41434B5F534F46545F5591
:1040F00050444154455F4D53472D2D0D0A0000009B
:104100000D0A41434B5F5345545F4E45545F4D5339
:10411000472D2D0D0A0000000D0A41434B5F53450A
:10412000545F5245504F52545F4D53472D2D0D0A49
:10413000000000000D0ABFAACABCD0DED5FDCDF834
:10414000C2E7C9CFB1A8B2CECAFD2D2D0D0A00001D
:104150000D0A41434B5F4F4E4C494E455F4D53470F
:104160002D2D0D0A000000005C0000200D0A4143C7
:104170004B5F4F46464C494E455F4D53472D2D0DE5
:104180000A0000000D0A41434B5F48454152545F0D
:104190004D53472D2D0D0A000D0A41434B5F4750EB
:1041A000535F4D53472D2D0D0A0000000D0A41436A
:1041B0004B5F43414E5F4D53472D2D0D0A000000CC
:1041C0000D0A0D0A0D0ACAD5B5BDC9FDBCB6D6B8D3
:1041D000C1EE2D2D0D0A0000253378000D0ABBD845
:1041E000B7A2C9FDBCB6C8B7C8CFCAFDBEDD0D0AAF
:1041F000000000000D0A0D0A0D0ACAD5B5BDCDF8A4
:10420000C2E7B2CECAFDC9E8D6C3D6B8C1EE2D2DDD
:104210000D0A00000D0ABBD8B7A2C8B7C8CFCAFDA7
:10422000BEDD0D0A000000000D0A0D0A0D0ACAD5F8
:10423000B5BDBDE2CBF8D6B8C1EE2D2D0D0A0000FC
:104240000D0AC9E8B1B8B3A2CAD4BDE2CBF80D0AD1
:10425000000000000D0A0D0A0D0ACAD5B5BDD2BB7B
:10426000BCB6CBF8BBFAD6B8C1EE2D2D0D0A0000B6
:104270000D0AC9E8B1B8B3A2CAD4D2BBBCB6CBF858
:10428000BBFA0D0A000000000D0A0D0A0D0ACAD57E
:10429000B5BDB6FEBCB6CBF8BBFAD6B8C1EE2D2D77
:1042A0000D0A00000D0AC9E8B1B8B3A2CAD4B6FE1F
:1042B000BCB6CBF8BBFA0D0A000000000D0A45524F
:1042C000524F52204D45534720545950452D2D0DE6
:1042D0000A0000000D0A435243204552524F520D2E
:1042E0000A0000000D0A4D534720545950453A200A
:1042F0002535580D0A0000000D0A4D53472049444A
:104300003A2020202535580D0A000000002107E042
:10431000002200E0521C43F2C8239A42FAD3491CFF
:104320008142F5D3704700000FB4FEB500256B48FD
:10433000007878BB4FF47A70FFF7E8FF50216848A7
:10434000FBF72BFF28216748FBF727FF09A9139BE1
:10435000169A8DE80E0064A16148DDE91423FEF78A
:1043600039FC012368A15F48149AFEF733FC5C49CD
:1043700069A0FEF71FFC5B496CA0FEF71BFC5849C7
:1043800065A0FEF717FC574968A0FEF713FC012053
:10439000524908701498FFF7B9F8002806DD68A0A4
:1043A000FEF708FC0120FEBC5DF814FB68A0FEF7D8
:1043B00001FC6DA0FEF7FEFB00BF032D08DD70A021
:1043C000FEF7F8FB012003F05DF90025681EEAE71F
:1043D0006D1C01F0D1FCD0B3002410E04FF47A72D0
:1043E00072A175A0FDF748FD00B10AE04FF47A72A2
:1043F00074A171A0FDF740FD00B102E0641C142C13
:10440000ECDB00BF0E2C06DB71A0FEF7D3FB002017
:1044100003F038F9D1E701F0E3FF02F0B3F8002030
:1044200002F026FD002800DAC7E7002441E04FF43F
:10443000C8726DA16DA0FDF71FFD4FF4FA62294906
:104440002748FDF719FD6AA0FEF7B4FB2EE03BE01C
:104450006BA16E48FBF7BBFE20B96DA16B48FBF763
:10446000B6FEB8B16DA0FEF7A5FB1498FFF74EF8A5
:1044700001280AD172A0FEF79DFB75A0FEF79AFBFA
:1044800079A0FEF797FB01208DE74FF47A70FFF7D4
:104490003DFF0CE04FF47A70FFF738FF78A0FEF78D
:1044A00089FB761C052E01DD002600E0D0E700BF69
:1044B000641C0A2CBBDB092C0DDB72A0FEF77AFB17
:1044C000002003F0DFF878E773A0FEF773FB00200D
:1044D00003F0D8F871E7012065E70000A80000208C
:1044E000201C0020701C002041542B4D49504F507F
:1044F000454E3D25642C25642C222573222C2564F1
:104500002C25640D000000002B4D49504F50454EA6
:104510003A2025642C2564000D0A736F636B657463
:1045200020636D64203A25730D0A00000D0A736F35
:10453000636B65742073746174653A25730D0A00AA
:104540006E6574776F726B206F6B0D0A0000000050
:104550004E6574204572726F722C7265436F6E6E79
:104560006563740D0A0000000D0A65737461626C66
:10457000697368206E6574776F726B0D0A000000B6
:104580000D0ACDF8C2E7D7A2B2E1CAA7B0DCB4CE1B
:10459000CAFDB9FDB6E02CC9E8B1B8B9CAD5CFA3F8
:1045A000ACC7EBBCECB2E90D0A0000002B4352454E
:1045B000473A20302C31000041542B435245473FAD
:1045C0000D0000002B435245473A20302C350000A7
:1045D0000D0A53494D393030CDF8C2E7D7A2B2E1C8
:1045E000CAA7B0DC0D0A00004F4B000041540D007B
:1045F0000D0A77616974696E67206E65740D0A0033
:104600002B4D4950535441540000000078060020BF
:104610002B4D49504F50454E000000000D0A6F7061
:10462000656E20636D64206F7665722C62656769C4
:104630006E20636865636B2073746174650D0A0096
:104640000D0A73636F6B6574206F6B0D0A000000B9
:104650000D0A53494D393030207265636F6E6E65B7
:104660006374204F4B0D0A000D0A53454E44204FF2
:104670004E4C494E45204D4553534147450D0A0088
:104680002B2B2B000D0A53494DCDF8C2E7BDA8C115
:10469000A2CAA7B0DC0D0A000D0A53494D393030CB
:1046A000C6F4B6AFCAA7B0DC0D0A000001468868A0
:1046B00008B9012070470020FCE7000010B504464F
:1046C000BB480068401CBA4908606068B0F5D47FF8
:1046D0007DD018DCB0F5A07F4CD00BDCC92877D09A
:1046E000B0F5907F28D0A0F580702D3871D00328C8
:1046F00070D130E0A0F5807091384AD00F2857D0A3
:10470000132867D167E040F24522811A904271D0A8
:104710000BDCB0F5D67F6ED0A0F5007015386BD0ED
:1047200010286AD0202855D1A6E0112975D021295A
:1047300074D031294ED1DBE09E4909884D22514386
:104740009C4A121D02EB810101F10800142221464E
:10475000FBF70AFD28E1974909884D225143954A04
:10476000121D02EB810101F11C0014222146FBF70E
:10477000FBFC19E18F4909884D2251438D4A121DD6
:1047800002EB810101F1300014222146FBF7ECFC21
:104790000AE1884909884D225143864A121D02EBDD
:1047A000810101F1440014222146FBF7DDFCFBE00E
:1047B000804909884D2251437E4A121D02EB810136
:1047C00001F1580014222146FBF7CEFCECE015E085
:1047D000BBE0BBE0E7E0774909884D225143754AC9
:1047E000121D02EB810101F16C0014222146FBF73E
:1047F000BBFCD9E04FE012E020E02EE06D490988D3
:104800004D2251436B4A121D02EB810101F18000E0
:1048100014222146FBF7A8FCC6E04BE059E06549AD
:1048200009884D225143634A121D02EB810101F1B7
:10483000940014222146FBF797FCB5E05D490988F6
:104840004D2251435B4A121D02EB810101F1A80088
:1048500014222146FBF788FCA6E0564909884D2220
:104860005143544A121D02EB810101F1BC00142294
:104870002146FBF779FC97E04E4909884D225143C8
:104880004C4A121D02EB810101F1D0001422214695
:10489000FBF76AFC88E0474909884D225143454AA5
:1048A000121D02EB810101F1E40014222146FBF705
:1048B0005BFC79E03F4909884D2251433D4A121D76
:1048C00002EB810101F1F80014222146FBF74CFCB8
:1048D0006AE0384909884D225143364A121D02EBDD
:1048E000810101F5867014222146FBF73DFC5BE057
:1048F000304909884D2251432E4A121D02EB810195
:1049000001F5907014222146FBF72EFCA07C30B1FB
:10491000012808D002280AD0032810D10BE000207B
:10492000254908600FE00120234908600BE00220C0
:104930002149086007E003201F49086003E00020C8
:104940001D49086000BF00BF2EE02DE01BA0FEF750
:1049500031F9E07A31280FD1207B46280CD1607BD9
:10496000682809D1A07B072806D1012018490860D2
:1049700018A0FEF71FF917E0E07A31280FD1207B4D
:1049800047280CD1607B682809D1A07B072806D175
:1049900001201549086015A0FEF70CF904E018A0E5
:1049A000FEF708F900E010BD00BF00BFFBE7000004
:1049B000C800002088240020CC0000200D0AC8B7C1
:1049C000C8CFD6B8C1EEB7B5BBD80D0A00000000FD
:1049D000AC0000200D0ACBF8BBFAC8B7C8CFB7B5FA
:1049E000BBD80D0A00000000B00000200D0ABDE297
:1049F000CBF8C8B7C8CFB7B5BBD80D0A00000000C8
:104A00000D0AC8B7C8CFD6B8C1EEB4EDCEF30D0AC3
:104A10000000000010B50346002000BF03E01C5852
:104A20000C54441CA0B29042F9DB10BD0246012098
:104A300070472DE9F04180460F461446FCF70EFB07
:104A4000E11704EB91718910B4EB81011BD00025B3
:104A500004E0FF2079190855681C85B2E11704EBC2
:104A600091718910A4EB8101C1F10401A942F0DC2C
:104A70002046E11704EB91718910A4EB8101C1F18B
:104A8000040121448CB2002515E000267819C07875
:104A90000643360278198078064336027819407842
:104AA00006433602785D064308EB05003146FCF705
:104AB00097FA281D85B2A542E7DBFCF779FABDE835
:104AC000F081000070B504460D46E1B20548FDF7DF
:104AD00064FF00BF80210348FDF792FE0028F9D053
:104AE000204670BD0038014030B503460A4600211B
:104AF0000020084C00BF02E0655C6840491C10299A
:104B0000FAD332B1002102E05D5C6840491C914259
:104B1000FADB30BD5424002000B502460B46104697
:104B2000FFF7C4FD10B10023002000BD106818601D
:104B30001068D0F8840010609068401E90600120DA
:104B4000F3E7000010B54FF4FA7202A102A0FDF7DE
:104B500093F910BD4F4B000041542B434D474C0D72
:104B600000000000FA49097879B3FA490968062972
:104B700002D0FF297ED12FE1F749C978472972D1A8
:104B8000F549097947296ED1F349497941296AD113
:104B90000121F24A11600021F14A116009E07822F6
:104BA000F049EF4B1B68CA54ED490968491CEC4AAF
:104BB0001160EB4909680929F1DB7821E94A921E65
:104BC000D1720021E64A11600BE0F3E37822E54957
:104BD0000A31E34B1B68CA54E1490968491CE04AA1
:104BE0001160DF4909680A29F0DB7821DD4A921E4D
:104BF0009175D1750021DA4A11600AE07822D9490D
:104C00001631D74B1B68CA54D5490968491CD44A88
:104C10001160D34909680229F0DB0021D04A1160F4
:104C20000AE07822CF491831CD4B1B68CA54CC49D1
:104C30000968491CCA4A1160C94909680429F0DB9E
:104C40000021C74A11600AE00022C6491C31C44B4A
:104C50001B68CA54C2490968491CC14A1160C0494D
:104C600009680A29F0DBBC494979562928D1042171
:104C7000BA4A00E0FEE311600021B94A11601BE06E
:104C80007822B949B64B1B6801F82320B44B1B6846
:104C900001EB83014A70B449B14B1B6801EB8301FE
:104CA0008A70B149AE4B1B6801EB8301CA70AC49F5
:104CB0000968491CAA4A1160A94909680C29DFDB67
:104CC000A5494979432971D10821A44A11600021DD
:104CD000A34A116009E07822A449A14B1B68CA5479
:104CE0009F490968491C9E4A11609D4909680A2923
:104CF000F1DB78219D4A921E11730021984A1160C0
:104D00000AE0782299490B31954B1B68CA549449A3
:104D10000968491C924A1160914909680929F0DB28
:104D20007821924A921E917500218D4A11600AE005
:104D300078228E4915318A4B1B68CA548849096804
:104D4000491C874A1160864909680A29F0DB7821E5
:104D5000864A921E82F821100021814A11600AE0E1
:104D60007822824920317E4B1B68CA547C490968ED
:104D7000491C7B4A11607A4909680529F0DB00214A
:104D8000774A11600AE0782278492531744B1B6814
:104D9000CA5473490968491C714A1160704909680D
:104DA0000529F0DB00216E4A11600BE00EE078224D
:104DB0006E492A316A4B1B68CA5469490968491C03
:104DC000674A1160664909680629F0DB2C2802D180
:104DD000FF21604A1160FEE360490968012904D09F
:104DE00004297ED008297DD1EDE02A2802D02C2884
:104DF00079D190E00021564A11705A49891EC97D27
:104E0000302971D05749891EC97E2E290FD15549A5
:104E1000891E097F3039534A921E927E303A02EB46
:104E2000820201EB42014F4A921E916220E04D49FD
:104E3000891E097F2E2916D14A49891E897E30395B
:104E400064225143474A921ED27E303A02EB8202DC
:104E500001EB42024349891E497F30391144414ADE
:104E6000921E916204E04FF47A713E4A921E916262
:104E70003C49891E896A3E4A926991424ADC002176
:104E8000374A11600CE03749354A1268895C384A64
:104E9000334B1B68D15432490968491C304A1160B0
:104EA0002F4909680929EEDB00212D4A11600EE027
:104EB0002C490A312A4A12688A5C2D490A31284B4A
:104EC0001B68CA5426490968491C254A11602449AF
:104ED00009680A29ECDB2349891EC97A244A5172E0
:104EE00003E0B9E1F6E320E014E01E49891E897D64
:104EF00011751C49891E097E11771A49891E4A7E3F
:104F00001B494A771749891E896A194A916101210B
:104F1000184A116055E01349891E0978491C114A45
:104F2000921E1170002151704BE00E49891E0978C4
:104F300009293ED2DFE801F03D052023282B2E333E
:104F400038000849891E4A78891C885432E00000DC
:104F50007C00002078000020700000206C00002001
:104F6000840000207E1B0020B01B00204A1B002074
:104F7000E01B002088000020FF49C8721AE0FE49AB
:104F80004A780C31885415E0FB49887512E0FA49DB
:104F9000C8750FE0F8494A78183188540AE0F64994
:104FA0004A781A31885400BFF3494A781E31885430
:104FB00000E000BF00BFF0494978491CEE4A51703B
:104FC00000BF00BFD6E32A2802D02C287DD1FEE006
:104FD0000021EA4A1170EA4A11600121E94A116090
:104FE000E949097B412978D10021E84A11600DE0A7
:104FF000E5490D31E54A12688A5CE549E34B1B68D7
:10500000CA54E2490968491CE04A1160DF4909684D
:105010000929EDDB0021DD4A11600EE0DA49173184
:10502000DA4A12688A5CDA490A31D84B1B68CA54DA
:10503000D6490968491CD54A1160D44909680A292A
:10504000ECDBD149897DD24A1E3A82F82710CE493D
:1050500091F8211082F832100021CC4A11600EE044
:10506000C9492231C94A12688A5CC9491731C74BFC
:105070001B68CA54C5490968491CC44A1160C34920
:1050800009680529ECDB0021C04A11600EE0BE4929
:105090002731BE4A12688A5CBD491C31BB4B1B6874
:1050A000CA54BA490968491CB84A1160B749096825
:1050B0000529ECDBB049097EB54A1E3A82F8331067
:1050C000AD494A7EB2491E3901E088E005E081F829
:1050D00034200121AF4A11607047AB49897D78299E
:1050E00074D00021A94A11600DE0A7490D31A74AEB
:1050F00012688A5CA649A54B1B68CA54A349096873
:10510000491CA24A1160A14909680929EDDB002167
:105110009E4A11600EE09C4917319C4A12688A5CD5
:105120009B490A31994B1B68CA5498490968491C24
:10513000964A1160954909680A29ECDB9249897DF4
:10514000934A1E3A82F827108F4991F8211082F86D
:10515000321000218D4A11600EE08B4922318B4ABA
:1051600012688A5C8A491731884B1B68CA54874980
:105170000968491C854A1160844909680529ECDBE6
:105180000021824A11600EE07F4927317F4A126870
:105190008A5C7F491C317D4B1B68CA547B49096876
:1051A000491C7A4A1160794909680529ECDB724982
:1051B000097E774A1E3A82F833106F494A7E744955
:1051C0001E3981F834200121734A116042E06E4992
:1051D0000978491C6C4A1170002151703AE06A4903
:1051E000097809292ED2DFE801F0050A0D12151AF7
:1051F0001E23280064494A78891C885423E06249A8
:10520000087320E060494A780D3188541BE05E49FC
:10521000887518E05C494A781731885413E05A4978
:1052200081F821000FE058494A78223188540AE079
:1052300055494A782731885405E053494A782C313A
:10524000885400E000BF00BF4F494978491C4E4ACE
:10525000517000BF00BF8DE22A2802D02C287ED1D9
:10526000DFE10021454A11704C49C978312977D1D5
:1052700000214B4A11604B4A11604B4A11604B4A66
:1052800011604B4A1160414A1160A2E04349083164
:105290003E4A126801EB8201C97878296BD04049F7
:1052A0000968491C3E4A11603C490831374A126876
:1052B00001EB8201C9783039384A0832334B1B6818
:1052C00002EB83029278303A02EB820201EB420158
:1052D0000A2904DB33490968491C324A11602F4905
:1052E00008312A4A126801EB8201C97830392B4A09
:1052F0000832264B1B6802EB83029278303A02EBAD
:10530000820201EB4201142904DB27490968491C88
:10531000254A1160214908311C4A126801EB8201BB
:10532000C97830391D4A0832184B1B6802EB8302DA
:105330009278303A02EB820201EB42011E2904DB33
:105340001A490968491C194A1160144908310F4A61
:10535000126801EB8201C9783039104A01E068E136
:105360003DE00832094B1B6802EB83029278303A29
:1053700002EB82021FE027E07C1B00207C00002063
:105380007800002080000020481B002084000020BE
:10539000FE1B0020900000208C000020A81B002095
:1053A00094000020980000209C000020A000002015
:1053B000A4000020F2E101EB4201282904DBFF49AF
:1053C0000968491CFD4A1160FD490968491CFC4AED
:1053D0001160FB4909680429FFF658AF20E1F9493B
:1053E000C97832297ED10421F54A116083E0F5495C
:1053F0000831F34A126801EB8201C978782975D027
:10540000F1490968491CF04A1160EE490831EC4A3B
:10541000126801EB8201C9783039EA4A0832E84B58
:105420001B6802EB83029278303A02EB820201EBB6
:1054300042010A2904DBE5490968491CE34A116075
:10544000E0490831DE4A126801EB8201C97830393F
:10545000DC4A0832DA4B1B6802EB83029278303A5E
:1054600002EB820201EB4201142906DBD8490968EC
:10547000491C00E080E1D64A1160D2490831D04A87
:10548000126801EB8201C9783039CE4A0832CC4B20
:105490001B6802EB83029278303A02EB820201EB46
:1054A00042011E2904DBCB490968491CC94A116025
:1054B000C4490831C24A126801EB8201C978303907
:1054C000C04A0832BE4B1B6802EB83029278303A26
:1054D00002EB820201EB4201282907DBB749096888
:1054E000491C01E00DE001E0B44A1160B4490968CB
:1054F000491CB34A1160B24909680829FFF677AF21
:105500008EE0B049C978332966D10821AC4A1160D0
:1055100081E0AC490831AA4A126801EB8201C978DE
:10552000782973D0A8490968491CA74A1160A54980
:105530000831A34A126801EB8201C9783039A14AC7
:1055400008329F4B1B6802EB83029278303A02EBE1
:10555000820201EB42010A2904DB9C490968491CCB
:105560009A4A116097490831954A126801EB820105
:10557000C9783039934A0832914B1B6802EB830299
:105580009278303A02EB820201EB4201142904DBEB
:105590008F490968491C8E4A11608A490831884A36
:1055A000126801EB8201C9783039864A0832844B8F
:1055B0001B6802EB83029278303A02EB820201EB25
:1055C00042011E2904DB83490968491C814A116094
:1055D0007C49083101E0E0E022E0794A126801EB01
:1055E0008201C9783039774A0832754B1B6802EB63
:1055F00083029278303A02EB820201EB42012829C1
:1056000004DB6E490968491C6C4A11606C490968E1
:10561000491C6B4A11606A4909680C29FFF679AF89
:10562000A2E068490978491C664A1170002151704E
:105630009AE064490978132974D2DFE801F00A0D71
:105640002A2B343536404C4D4E5A656667747F8040
:1056500081005C49887080E05A49C870C978312956
:1056600003D10021574A516012E05649C9783229C6
:1056700003D10421534A51600AE05249C9783329C1
:1056800003D108214F4A516002E008214D4A516080
:1056900063E062E04B494A68083101EB8201494A04
:1056A0005278885459E058E057E046494A68083132
:1056B00001EB8201891C434A527888544DE04149EC
:1056C0004968491C3F4A083202EB8101083A527886
:1056D000885442E04AE040E03FE03A494968491CCA
:1056E000384A083202EB8101891C083A5278885402
:1056F00033E034494968891C324A083202EB81019F
:10570000083A5278885428E027E026E02D49496875
:10571000891C2C4A083202EB8101891C083A527814
:1057200088541AE018E027494968C91C254A0832FC
:1057300002EB8101083A527888540EE00DE00CE04B
:1057400020494968C91C1F4A083202EB8101891CA3
:10575000083A5278885400E000BF00BF19494978E0
:10576000491C184A517000BF00BF03E000211A4ACB
:10577000117000BF00BF10E01849194A1268885420
:1057800017490968491C164A11601146096807291A
:1057900002DD0021104A117000BF33E0242831D10E
:1057A0000E4900220A608A808A71087001210A4A23
:1057B000117000210B4A1160012115E0A4000020A6
:1057C00084000020A81B00209400002098000020E6
:1057D0009C000020A00000207C0000207000002021
:1057E000780000206C000020074A11600021074A61
:1057F00011705170064A11705170064A1170517043
:10580000054A116000BF67E478000020481B0020B3
:10581000A81B00207C1B00208000002010B5FCF796
:10582000D1F801210748FBF7CBFEFBF737FCFCF76B
:1058300093FEFCF73BFAFBF7DFFAFBF753FFFCF7AD
:1058400049FC10BD0004300030B5ADB00446A022C4
:105850004F496846FAF788FC4D4890F89C104DA0D7
:10586000FDF7A8F95248016852A0FDF7A3F90020FE
:10587000574908602890C920299008208DF8AA006F
:1058800004208DF8A80000208DF8A90031208DF8A3
:10589000AB00062128A80173012C02D0022C2BD1C9
:1058A00015E03B4890F89C00012809D14048006869
:1058B000012805D147A0FDF77DF901202DB030BDAD
:1058C0004AA0FDF777F9012128A8417319E0304873
:1058D00090F89C00022808D135480068022804D1BD
:1058E00047A0FDF767F90120E8E74BA0FDF762F953
:1058F000022128A8417304E04CA0FDF75BF90020C9
:10590000DCE700BF072128A881730021C17301745F
:105910004174817428A94C48FBF771F9002522E0F5
:105920004FF47A70FEF7F2FC294648A0FDF742F9E1
:1059300027480068B0B14BA0FDF73CF9012C03D11A
:1059400001208DF89C0002E002208DF89C009DF85B
:105950009C000F4981F89C0040F6B830FEF7D6FC59
:105960000120ABE76D1CB42DDADB45A0FDF722F971
:10597000012C03D103208DF89C0002E004208DF857
:105980009C009DF89C00024981F89C00022095E74C
:10599000381000200D0AB5B1C7B0CFB5CDB3CBF8E4
:1059A000BBFAD7B4CCACA3BA25640D0A0000000042
:1059B000CC0000200D0AB5B1C7B063616ED0C5CF71
:1059C000A2D7B4CCAC20A3BA25640D0A0000000015
:1059D000AC0000200D0AC9E8B1B8D2D1BEADD2BB2F
:1059E000BCB6CBF8BBFA0D0A000000000D0ABFAA36
:1059F000CABCD2BBBCB6CBF8BBFA0D0A0000000093
:105A00000D0AC9E8B1B8D2D1BEADB6FEBCB6CBF86E
:105A1000BBFA0D0A000000000D0ABFAACABCB6FE00
:105A2000BCB6CBF8BBFA0D0A000000000D0ACBF89B
:105A3000BBFAB2CECAFDB4EDCEF3A3ACC8A1CFFB86
:105A4000B2D9D7F70D0A0000006400400D0ACBF868
:105A5000BBFAD2D1D3C3CAB1BCE4A3BA2564C3EBA9
:105A60000D0A00000D0ACBF8BBFAB3C9B9A62CBBCE
:105A7000D6B8B4B5E7D1B9CAE4B3F60D0A00000050
:105A80000D0ACBF8BBFAB3ACCAB1A3ACB8C4B1E44D
:105A90004441CAE4B3F60D0A0000000010B5FFF758
:105AA000BDFE02201449086001F06AFD4FF4FA605F
:105AB000FEF72CFC00F0BCFF10A0FDF77BF8114AAC
:105AC000114912A0FDF776F84FF4947218490E4868
:105AD000FEF7A0FF164801F019FB4FF49472144929
