:020000040800F2
:10000000C84700204501000889180008ED170008BE
:100010005D180008C90B0008F52B0008000000005F
:10002000000000000000000000000000E91F0008C0
:100030005901000800000000191B00085D2100089C
:100040005F0100085F0100085F010008C11E000891
:100050005F0100085F010008D90E0008050F0008C5
:100060005F0100082D0F00085F0100085F01000814
:100070005F0100085F0100085F0100085F010008E0
:100080005F0100085F0100085F0100085F010008D0
:10009000092B00085F0100085F010008650F0008D8
:1000A0005F0100085F0100085F0100085F010008B0
:1000B000C1210008E92100085F0100085F01000874
:1000C0005F0100085F0100085F0100085F01000890
:1000D0005F0100089924000815250008B9250008CB
:1000E0005F010008011E00085F0100085F010008B1
:1000F0005F0100085F0100085F0100085F01000860
:100100005F0100085F0100085F0100085F0100084F
:1001100099230008312400085F0100085F010008EE
:100120005F0100085F0100085F0100085F0100082F
:10013000DFF80CD000F0E8FC00480047C951000887
:10014000C84700200648804706480047FEE7FEE70C
:10015000FEE7FEE7FEE7FEE7FEE7FEE7FEE7FEE777
:10016000612100083101000840EA01039B0703D028
:1001700009E008C9121F08C0042AFAD203E011F8E6
:10018000013B00F8013B521EF9D27047D2B201E0A8
:1001900000F8012B491EFBD270470022F6E710B58C
:1001A00004460846114602462046FFF7EFFF204668
:1001B00010BD034600E0401C0278002AFBD111F874
:1001C000012B00F8012B002AF9D11846704730B5F1
:1001D0000EE003460A4601E05B1C521C1C781578B1
:1001E000AC4201D1002CF7D115F0FF0F04D0401C18
:1001F0000278002AEDD1002030BD0146002000E049
:10020000401C0A5C002AFBD170472DE9F0470F46DD
:10021000914680460446002614F8015B2DB100F09B
:10022000EDFA0068405DC007F6D12B2D02D02D2DD0
:1002300018D0641E4A463946204600F0E3FA27B13A
:100240003968A14201D1C7F8008071054FF002045E
:100250000BD54042002803DD02F080FD0460A007BA
:10026000BDE8F08746F48066E4E70028F8DA02F09B
:1002700075FD04606FF00040F2E770B5064602F0CD
:100280006DFD046805460A2200213046FFF7BDFFD8
:100290002C6070BDF0B480EA0102D20F4300B3EBD2
:1002A000410F02D20346084619464B0042D0C30D07
:1002B000DDB2C1F3C7542C1B202C35DAC1F3160173
:1002C00041F4000502B16D42C4F1200605FA06F1C1
:1002D00025412844B3EBD05F23D0C2B1012CA0EB61
:1002E000C35009DCF0BC4FF0004202EAC35200F5F3
:1002F0000000DBB200F0DDBA400000F1807000EBDE
:10030000C350A0F1807040EAD170490009E049086B
:1003100041EAC071A0EBC35000F50000400800EBBB
:10032000C350F0BC00F0BCBA5142012303EB4101C1
:10033000801AF6E7F0BC704781F00041AAE780F030
:100340000040A7E780EA010210B502F00042400039
:1003500026D04B0023D04FEA106101EB1361C0F3AC
:100360005600C3F3560340F4000043F40003A0FB1F
:100370000330A1F17F014FEA00401C0401D000F1DD
:10038000010050EA134001D44000491EC3B20C06DC
:1003900004EBD010401C4008802B02D003E000206A
:1003A00010BD20F00100002900DA0020104310BD2C
:1003B00080EA010202F0004330B430F0004221F044
:1003C000004015D0A0B1C0F3C755C2F3C754C2F363
:1003D0001601C0F31600651B41F4000140F4000053
:1003E0007D35814201D36D1C00E04900002D02DA09
:1003F00030BC002070474FF400020024814201D33A
:10040000091A144352084FEA4101F7D151B1814210
:1004100002D14FF0004105E002D24FF0010101E0AE
:100420006FF0010104EBC55030BC184400F038BA3D
:100430002DE9FE4F074681EA0300C00F0E460190EA
:1004400021F0004123F00044B81AA14105D23846FA
:10045000314617461E460B46024623F00040104325
:1004600004D13846314603B0BDE8F08F350DC5F3F1
:100470000A00C3F30A510290401A0090402867DA3C
:10048000C3F3130040F4801B0198924620B100236F
:10049000D2EB030A63EB0B0B00985946C0F1400204
:1004A000504600F089F980460C4650465946009A5D
:1004B00000F091F9C0197141EF1785EA11533B43E0
:1004C0003FD0019A4AB3009A012A11DC0022801A17
:1004D00061EB05514FF0004303EA0555CDE90025D6
:1004E000801841F580114246234600F01EFABAE713
:1004F0002E050025401B61EB0601401941F58012D5
:10050000001852412818A6F5001343EB020140EAF7
:10051000D47018EB0808644113E064084FEA380807
:100520004FF0000244EAC0744FEA0553801A61EBB1
:100530000301801841F5801149084FEA3000801806
:1005400059414246234603B0BDE8F04F00F0E0B900
:100550000198012240000023D0EB020263EBE0731C
:1005600001984FEAE074381A66EB0401EBE783F078
:1005700000435DE781F000415AE72DE9FE4F81EA33
:10058000030421F0004504F0004423F000414FF043
:10059000000A009450EA050302D052EA010304D194
:1005A0000020014603B0BDE8F08FC1F30A53C5F344
:1005B0000A542344A3F2F3330193A0FB02B3C5F31F
:1005C000130545F4801CC1F3130141F480180CFBA2
:1005D000023300FB083E810A930A41EA8C5143EA48
:1005E0008853A1FB03474FEA9C2505FB03734FEAA1
:1005F000982601FB06373D05260545EA1435BBEB79
:1006000006016EEB0503850E920E45EA8C1542EA53
:100610008812A5FB0206261E67EB00070C0D44EAB4
:100620000334A61947EB1350C1F313044FF0000332
:100630001946E5FB02014FEA033545EA1455019BD3
:100640004FEA0432009CA3F10C03CDE900A445EA73
:10065000060502932B4600F068F9A3E7C10F80EA74
:10066000E0700844CA079623002100F022B90EB5B5
:10067000C10F80EAE0700844CA07002140F233430A
:100680008DE80E000A460B4600F04FF903B000BD9E
:1006900000F0004220F00040C10DC0F3160040F40D
:1006A00000007F2901DA00207047962903DCC1F1A0
:1006B0009601C84001E096398840002AF4D04042B3
:1006C000704700F0004230F000400DD0C10D01F540
:1006D000607142EA01510022C0F31600520742EA5B
:1006E000D00240071143704700200146704701F0D7
:1006F000004230B421F0004150EA010306D00B0D56
:10070000A3F56073C1F31301002B02DC30BC0020A1
:100710007047440F44EAC104C100A01830BC00EB8C
:10072000C35000F0BDB830B50B4601460020202272
:10073000012409E021FA02F59D4205D303FA02F5EE
:10074000491B04FA02F52844151EA2F10102F1DC4E
:1007500030BD2DE9F05F0546002092469B46884655
:100760000646814640241DE028464146474622462B
:1007700000F0DCF9B0EB0A0052465B4671EB0B016E
:1007800010D310461946224600F016F82D1A67EBD2
:1007900001084F4622460120002100F00DF817EB1A
:1007A00000094E41201EA4F10104DDDC484631461B
:1007B0002A464346BDE8F09F202A04DB203A00FA8F
:1007C00002F1002070479140C2F1200320FA03F3A8
:1007D000194390407047202A06DBCB17203A41FA94
:1007E00002F043EAE07306E041FA02F3D040C2F1BE
:1007F00020029140084319467047000000487047A6
:100800001C6D00082DE9F05F824604460078002741
:10081000641C8B461546B946302801D09DB113E0C3
:1008200014F8010B0127782803D0582801D045B1CE
:100830000AE00DB1102D07D10027102514F8010B87
:1008400002E0082500E00A250026B0460EE005FB80
:10085000080005FB06F1012701EB10461FFA80F89E
:10086000B6F5803F00D3B94614F8010B294600F0D5
:100870006DF90028EBDABBF1000F04D0641E07B954
:100880005446CBF80040B9F1000F06D002F066FAEA
:1008900002210160C81EBDE8F09F48EA0640FAE761
:1008A0000029A8BF7047401C490008BF20F0010084
:1008B000704710B4B0FA80FC00FA0CF050EA010462
:1008C00004BF10BC704749B1CCF1200421FA04F4F4
:1008D00011FA0CF118BF012121430843A3EB0C01CD
:1008E000CB1D4FEA00614FEA102048BF0020BCBF7B
:1008F00010BC704700EBC35010440029A4BF10BCCB
:100900007047401C490008BF20F0010010BC704730
:1009100010B5002B08DA401C41F1000192185B4130
:100920001A4301D120F0010010BD2DE9FF4D93467F
:1009300011B1B1FA81F202E0B0FA80F220329246AF
:10094000FFF73AFF039A0746884640EA0B00114337
:100950005B46084304D13846414604B0BDE8F08DFB
:10096000114653EA020016D0CAF14002584600F080
:10097000DDF804460D464FF00106584652460399ED
:10098000FFF71AFF084300D10026344345EAE67515
:10099000274345EA08080E984FF00005A0EB0A012E
:1009A0004FEAD7200A314FEA47532A4640EA4850D7
:1009B0004FEAD82402D500200146CEE7281844EBA0
:1009C0000151DDE90C45001904B06941BDE8F04D65
:1009D0009EE72DE9F04D81EA030404F0004B21F07D
:1009E000004714464FF0000A23F0004150EA070286
:1009F00020D054EA01021DD0C1F30A550246C1F3CA
:100A00001300C7F30A56C7F3130340F4801143F4ED
:100A10008013A6EB0508101BD64608F2FD3873EBD1
:100A2000010002D308F1010801E092185B41B8F11E
:100A3000000F03DA00200146BDE8F08D00204FF4DE
:100A40008015064607460EE0B2EB040C73EB010C72
:100A500004D3121B064363EB01032F436D084FEAD7
:100A6000300092185B4150EA050CEDD152EA0300C8
:100A700012D082EA040083EA0105284303D1002250
:100A80004FF0004308E0101B8B4102D201220023EB
:100A900002E06FF0010253101AEB060047EB085119
:100AA00010EB0A0041EB0B01BDE8F04DFFF730BF42
:100AB000C1F30A52C1F3130140F2FF3341F4801134
:100AC0009A4202DA00200146704740F233439A42CC
:100AD000A2F2334202DC524200F028B8FFF76CBEAB
:100AE00030B5002904DB4FF00044404264EB0101C3
:100AF000002B04DB4FF00044524264EB03039942A5
:100B000008BF904230BD0000064C074D06E0E0688B
:100B100040F0010394E8070098471034AC42F6D344
:100B2000FFF70AFB206D0008406D0008202A04DB57
:100B3000203A21FA02F00021704721FA02F3D04056
:100B4000C2F1200291400843194670473A2800D26A
:100B5000303820F02002412A01D3A2F137004FF0B3
:100B6000FF32884200D202461046704770B501EB52
:100B7000020410F8015B15F0070301D110F8013BE6
:100B80002A1106D110F8012B03E010F8016B01F8CF
:100B9000016B5B1EF9D12B0705D40023521E0FD425
:100BA00001F8013BFAE710F8013B02F10202A1EB68
:100BB000030303E013F8015B01F8015B521EF9D552
:100BC000A142D6D3002070BD0AE006A002F0A2F830
:100BD00072B671B64FF4FA6002F06EFF00F06AFF71
:100BE000F3E700000D0A4552524F525F4255530D34
:100BF0000A000000B1F5007F3AD00FDC202928D090
:100C000006DC01291CD004291DD0082940D11DE093
:100C1000402921D0B1F5807F3AD126E0B1F5004FCF
:100C200031D006DCB1F5806F25D0B1F5006F2FD142
:100C300024E0B1F5803F12D0B1F5003F28D111E09A
:100C4000154A826025E00822C26022E01022C260BC
:100C50001FE0082202611CE01022026119E0082254
:100C6000426016E01022426013E00422426010E06D
:100C7000042242600DE0042242600AE00022826108
:100C80000422426005E0002282610422426000E00A
:100C900000BF00BF704700000101010021B9C26818
:100CA00042F02002C26003E0026942F020020261C9
:100CB0007047000070B504460D4600266069284262
:100CC00071D0B5F5807F5CD010DC082D35D006DC06
:100CD000012D20D0022D24D0042D77D127E0102D16
:100CE00031D0202D35D0402D70D138E0B5F5004FF2
:100CF00060D009DCB5F5007F49D0B5F5806F4CD0E8
:100D0000B5F5006F62D14FE0B5F5803F2DD0B5F558
:100D1000003F5BD12FE0A0682F4900F0D4F80646D1
:100D200056E0E068032100F0CEF8064650E0E068A7
:100D3000082100F0C8F806464AE0E068102100F0FB
:100D4000C2F8064644E02069032100F0BCF80646DC
:100D50003EE02069082100F0B6F8064638E0206938
:100D6000102100F0B0F8064632E06068082100F07B
:100D7000AAF806462CE06068102100F0A4F80646A8
:100D800026E0A069012100F09EF8064620E0A06957
:100D9000022100F098F806461AE0A069042100F04C
:100DA00092F8064614E014E0A069702100F08BF878
:100DB00006460DE0A069772100F085F806466068D8
:100DC000042100F080F8064302E0FFE7002600BFA0
:100DD00000E00026304670BD0101010030B5044638
:100DE0000D46134604F5D87000EB0510006800F0BE
:100DF00004001872187A50B904F5D87000EB051089
:100E0000006840F2FF7101EA5050186009E004F5F3
:100E1000D87000EB051000686FF0604101EAD00067
:100E2000586004F5D87000EB0510006800F002006F
:100E3000587204F5D87000EB0510406800F00F0000
:100E4000987204F5D87000EB05104068000AD87459
:100E500004F5D87000EB05108068D87204F5D870DE
:100E600000EB05108068000A187304F5D87000EBD9
:100E700005108068000C587304F5D87000EB05105D
:100E80008068000E987304F5D87000EB0510C068F8
:100E9000D87304F5D87000EB0510C068000A187408
:100EA00004F5D87000EB0510C068000C587404F508
:100EB000D87000EB0510C068000E987429462046D3
:100EC000FFF7ECFE30BD024600200A4201D00120AF
:100ED00000E000207047000010B5C82002F0ECFDD3
:100EE000012000F0A5F828B1012000F047F802A089
:100EF00001F010FF10BD00000D0A6B6579300D0A7E
:100F00000000000010B5022000F092F828B1022085
:100F100000F034F801A001F0FDFE10BD0D0ABDF88F
:100F2000C8EBD6D0B6CF310D0A00000010B50820AE
:100F300000F07EF828B1082000F020F801A001F0B0
:100F4000E9FE10BD0D0ABDF8C8EBC0B6D1C0D7B4DC
:100F5000CCACB1E4BBAFD6D0B6CFA3A1A3A1A3A123
:100F60000D0A000010B54FF4807000F061F818B160
:100F70004FF4807000F002F810BD000001490860D5
:100F800070470000140401401CB54FF40030FFF717
:100F9000F5FF4FF40030009000208DF80400082089
:100FA0008DF8050001208DF80600684600F056F81F
:100FB0000021084600F022FB0120FFF7DFFF01209F
:100FC000009000208DF804000C208DF80500012011
:100FD0008DF80600684600F041F80121002000F07D
:100FE0000DFB0220FFF7CAFF0220009000208DF8C1
:100FF00004000C208DF8050001208DF806006846DD
:1010000000F02CF80321042000F0F8FA0820FFF784
:10101000B5FF0820009000208DF8040010208DF806
:10102000050001208DF80600684600F017F81CBD89
:10103000014600200022074B1B6803EA0102064B11
:10104000D3F814340B4202D00AB1012000E0002092
:1010500070470000000401400000014000212749C2
:101060008279DAB3264AD2F8002403689A43244BE3
:10107000C3F800241A46D2F8042403689A4301F105
:1010800004031A60027911440A68036842EA030201
:101090000A601B4AD2F80824036822EA0302184BAC
:1010A000C3F808241A46D2F80C24036822EA030283
:1010B000144B1A604279102A11D1114AD2F808242F
:1010C00003681A430E4BC3F808241A46D2F80C24BE
:1010D00003681A430A4BC3F80C240EE007E00749E3
:1010E000427911440A6803681A430A6005E00279EC
:1010F00011440A6803689A430A607047000401407B
:10110000000001400C04014004200C49C96801F0B2
:101110000101012901D101200EE00849C96811F03F
:10112000040F01D0022007E00449C96811F0100F34
:1011300001D0032000E0042070470000002002409E
:101140000348006940F080000149086170470000D1
:10115000002002400549096821F01001034A11608E
:1011600011460968014311607047000000200240E9
:10117000F0B504460D4604260027F00200F042F8C0
:101180000646042E22D11248006940F001001049A1
:1011900008612580F00200F035F80646042E0ED1D5
:1011A000A71C280C3880F00200F02CF806460848EE
:1011B000006941F6FE7108400549086106E00448EF
:1011C000006941F6FE710840014908613046F0BDF2
:1011D0000020024001460020034A106800F0380059
:1011E0000843106070470000002002400248034995
:1011F000486003484860704723016745002002406B
:10120000AB89EFCD00B502460423FFF77DFF03460F
:1012100003E0FFF779FF0346521E012B01D1002A9C
:10122000F7D102B90523184600BD000008B5012119
:1012300044F27D0000F096FC0121EC4800F082FCB5
:101240004FF6FF70ADF8000000208DF8030003207A
:101250008DF802004FF40070ADF8000018208DF8F2
:10126000030003208DF802006946E14800F0E6F92A
:101270004FF48060ADF8000004208DF8030069464B
:10128000DB4800F0DBF90420ADF8000018208DF8F1
:10129000030003208DF802006946D54800F0CEF91E
:1012A0000820ADF8000004208DF803006946D048FE
:1012B00000F0C4F94FF40060ADF8000004208DF890
:1012C00003006946CB4800F0B9F94FF48060ADF8EF
:1012D000000018208DF8030003208DF802006946F5
:1012E000C54800F0ABF94FF40060ADF800000420F1
:1012F0008DF8030003208DF802006946BE4800F017
:101300009DF94FF48060ADF8000018208DF80300BF
:1013100003208DF802006946B64800F08FF94FF4BB
:101320000060ADF8000004208DF8030003208DF864
:1013300002006946AF4800F081F903208DF80200F1
:101340004FF40060ADF8000048208DF803006946B6
:10135000A74800F073F94FF48050ADF80000182052
:101360008DF803006946A24800F068F90820ADF83E
:10137000000010208DF8030003208DF8020069465C
:101380009C4800F05BF9002208219A4800F028FAF6
:101390001020ADF800008DF8030003208DF8020046
:1013A0006946944800F04AF900221021914800F063
:1013B00017FA2020ADF8000010208DF8030003205C
:1013C0008DF8020069468B4800F038F90022202190
:1013D000884800F005FA0120ADF8000004208DF8DF
:1013E000030003208DF802006946814800F026F9C9
:1013F0000120ADF8000048208DF8030003208DF88F
:10140000020069467C4800F019F94FF40050ADF82D
:10141000000010208DF8030003208DF802006946BB
:10142000744800F00BF901225103724800F0D8F91A
:101430001020ADF8000014208DF8030003208DF873
:10144000020069466A4800F0F9F801221021684854
:1014500000F0C6F94020ADF8000010208DF8030020
:1014600003208DF802006946614800F0E7F8002289
:1014700040215F4800F0B4F90820ADF800001020CA
:101480008DF8030003208DF8020069465A4800F0E9
:10149000D5F800220821584800F0A2F94FF48050F6
:1014A000ADF8000010208DF8030003208DF8020035
:1014B0006946504800F0C2F800224FF480514D4870
:1014C00000F08EF94FF40040ADF8000010208DF8C8
:1014D000030003208DF802006946464800F0AEF88C
:1014E0000122D103434800F07BF94FF48040ADF86E
:1014F000000010208DF8030003208DF802006946DB
:101500003C4800F09BF8012291033A4800F068F94A
:101510000220ADF8000010208DF8030003208DF8A4
:1015200002006946324800F089F800220221304862
:1015300000F056F98020ADF8000048208DF8030037
:1015400003208DF8020069462A4800F077F8402011
:10155000ADF8000010208DF8030003208DF8020084
:101560006946244800F06AF800224021214800F032
:1015700037F94FF48070ADF8000010208DF80300AB
:1015800003208DF8020069461A4800F057F800223F
:101590004FF48071174800F023F94FF40070ADF854
:1015A000000010208DF8030003208DF8020069462A
:1015B000104800F043F800224FF400710D4800F08D
:1015C0000FF94FF40050ADF8000010208DF8030023
:1015D00003208DF802006946074800F02FF800222A
:1015E0004FF40051044800F0FBF808BD02001E1A39
:1015F00000080140000C01400010014030B50022FD
:101600008B071C0F0F2303FA04F20B4B8C1053F8BB
:1016100024309343084C8D1044F8253023468C1019
:1016200053F824308C07240F00FA04F42343024CAF
:101630008D1044F8253030BD080001402DE9F041FF
:10164000024600250026002000230024002791F8F0
:1016500003C00CF00F0591F803C01CF0100F03D06D
:1016600091F802C04CEA0505B1F800C01CF0FF0F6C
:1016700031D0146800202BE04FF0010C0CFA00F37D
:10168000B1F800C00CEA03069E4220D183004FF05F
:101690000F0C0CFA03F7BC4305FA03FC4CEA0404F4
:1016A00091F803C0BCF1280F06D14FF0010C0CFAE1
:1016B00000FCC2F814C00AE091F803C0BCF1480F66
:1016C00005D14FF0010C0CFA00FCC2F810C0401C10
:1016D0000828D1D31460B1F800C0BCF1FF0F34DD8D
:1016E000546800202EE000F1080C4FF0010808FAC1
:1016F0000CF3B1F800C00CEA03069E4221D183002E
:101700004FF00F0C0CFA03F7BC4305FA03FC4CEA4C
:10171000040491F803C0BCF1280F05D100F1080CB6
:1017200008FA0CF8C2F8148091F803C0BCF1480F15
:1017300007D100F1080C4FF0010808FA0CF8C2F8C4
:101740001080401C0828CED35460BDE8F081000012
:10175000F0B50A46002300240021002500F00046D1
:10176000B6F1004F02D11D4EF16901E01B4E7168C8
:10177000C0F3034583B200F44016B6F5401F08D10C
:1017800021F07061154E766826F07066134F7E600A
:1017900012E000F48016B6F5801F06D1032606FA83
:1017A00005F4A14341F0706106E0460D360103FAED
:1017B00006F6B14341F0706122B1460D360103FADD
:1017C00006F6314300F00046B6F1004F02D1034E59
:1017D000F16101E0014E7160F0BD000000000140C8
:1017E0000AB1016100E04161704700000AE006A013
:1017F00001F090FA72B671B64FF4FA6002F05CF93B
:1018000000F058F9F3E700000D0A4552524F525FBD
:10181000484152445F4641554C540D0A00000000B7
:101820000146CA1701EB92729210B1EB820212D1FB
:10183000642091FBF0F200FB121050B94FF4C87015
:1018400091FBF0F200FB121008B901207047002054
:10185000FCE70120FAE70020F8E700000AE006A014
:1018600001F058FA72B671B64FF4FA6002F024F93A
:1018700000F020F9F3E700000D0A4552524F525F85
:101880004D454D0D0A00000005A001F043FA72B667
:1018900071B64FF4FA6002F00FF900F00BF9000096
:1018A0000D0A4552524F525F4E4D490D0A0000003D
:1018B00008B54FF4E06000F0F3F825208DF8000043
:1018C00002208DF8010000208DF8020001208DF823
:1018D0000300684600F0A2F84FF4E06000F0E0F882
:1018E00026208DF8000000208DF801008DF8020000
:1018F00001208DF80300684600F090F84FF4E06096
:1019000000F0CEF827208DF8000001208DF80100AE
:1019100000208DF8020001208DF80300684600F0D9
:101920007DF84FF4E06000F0BBF834208DF8000043
:1019300001208DF8010000208DF8020001208DF8B3
:101940000300684600F06AF84FF4E06000F0A8F881
:1019500035208DF8000001208DF8010000208DF861
:10196000020001208DF80300684600F057F84FF49C
:10197000C06000F095F829208DF8000000208DF857
:1019800001008DF802008DF80300684600F046F86B
:101990004FF4C06000F084F806208DF800000020AD
:1019A0008DF801008DF802008DF80300684600F004
:1019B00035F84FF4C06000F073F807208DF8000090
:1019C00000208DF801008DF802008DF803006846B4
:1019D00000F024F84FF4C06000F062F809208DF8A0
:1019E000000000208DF801008DF802008DF8030042
:1019F000684600F013F84FF4A06000F051F81D2085
:101A00008DF8000000208DF801008DF80200012003
:101A10008DF80300684600F001F808BD70B500219C
:101A200000230F22C4784CB31A4C246804F4E064F9
:101A3000C4F5E0644FEA1421C1F1040322FA01F273
:101A4000447804FA03F1847804EA020444EA0101C8
:101A50004FEA0111104C0678A155047804F01F05D7
:101A60004FF0010404FA05F405784FEA65154FF0CC
:101A7000E02606EB8505C5F8004109E0047804F08E
:101A80001F050124AC40054D0678761145F8264027
:101A900070BD00000CED00E000E400E080E100E03B
:101AA00002490143024A1160704700000000FA0534
:101AB0000CED00E00848006800F4E060074940EAE7
:101AC000010000F104004FF0E021C1F80C0DBFF35C
:101AD000408F00BFFEE700000CED00E00000FA05BB
:101AE0000848006800F4E060074940EA010000F19E
:101AF00004004FF0E021C1F80C0DBFF3408F00BF90
:101B0000FEE700000CED00E00000FA050149086264
:101B10007047000000000E4205A001F0FBF872B60D
:101B200071B64FF4FA6001F0C7FFFFF7C3FF000082
:101B30000D0A4552524F525F50454E4453560D0ABE
:101B40000000000029B1064AD2690243044BDA6161
:101B500004E0034AD2698243014BDA617047000016
:101B60000010024029B1064A92690243044B9A616F
:101B700004E0034A92698243014B9A617047000076
:101B80000010024010B500F03BF8012000F0FAF818
:101B900000BF212000F0C4F80028FAD01020FFF781
:101BA000D9FA0220FFF716FB002000F0DFF8002032
:101BB00000F0FAF8002000F0EBF84FF4601100207C
:101BC00000F004F9012000F0FBF800BF392000F01C
:101BD000A7F80028FAD0022000F006F900BF00F0B4
:101BE000BDF80828FBD1012144F27D00FFF7BAFFC0
:101BF00001210248FFF7A6FF10BD000002001E1AD7
:101C00000F48006840F001000D4908600846406830
:101C10000C4908400A494860084600680A490840DB
:101C2000074908600846006820F4802008600846DC
:101C3000406820F4FE0048604FF41F008860704741
:101C4000001002400000FFF8FFFFF6FE30B5002153
:101C50000022002400232D4D6D6805F00C0121B1F8
:101C6000042905D0082923D105E0294D056022E08B
:101C7000274D05601FE0254D6D6805F47012234D5A
:101C80006D6805F48034022505EB92421CB9214DA4
:101C9000554305600BE01D4D6D6815F4003F03D002
:101CA0001C4D5543056002E0194D5543056002E0A7
:101CB000174D056000BF00BF144D6D6805F0F001C1
:101CC0000909154D6B5C0568DD4045600F4D6D6879
:101CD00005F4E061090A104D6B5C4568DD408560E4
:101CE0000A4D6D6805F46051C90A0B4D6B5C45687F
:101CF000DD40C560054D6D6805F44041890B074D19
:101D00006B5CC568B5FBF3F5056130BD00100240A2
:101D100000127A0000093D002C0000203C00002049
:101D200010B501460022002300204A11012A02D1E9
:101D3000094C236806E0022A02D1074C236A01E01D
:101D4000054C636A01F01F02012494401C4201D03B
:101D5000012000E0002010BD001002400248406851
:101D600000F00C0070470000001002400146002007
:101D7000034A506820F0F0000843506070470000AC
:101D80000010024001490860704700000000424214
:101D900001460020034A506820F4E0600843506088
:101DA000704700000010024001460020034A5068BE
:101DB00020F4605040EAC1005060704700100240BB
:101DC00001490866704700000000424202460020B8
:101DD000044B586820F47C1042EA01031843014B7D
:101DE000586070470010024001460020034A5068C6
:101DF00020F00300084350607047000000100240CC
:101E000010B5022000F046F850B14FF40030FFF753
:101E1000B5F800F0DFF8022000F004F800F0DAF87E
:101E200010BD0000054909886FEA000292B201EA7C
:101E30000201034AA2F80418704700000428004079
:101E4000002000400348008840F010000249A1F83B
:101E5000040870470428004000200040044800881F
:101E60004FF6EF7100EA01000249A1F8040870473B
:101E70000428004000200040002104480188044854
:101E8000B0F8180841EA0040704700001C280040E4
:101E90000020004001460020074A128802EA0102A1
:101EA000D0B2064AB2F800280A4202D008B1012096
:101EB00000E000207047000004280040002000409F
:101EC00010B50120FFF7E6FF70B10120FFF7AAFF70
:101ED00000F080F8FFF7D0FF0449884204D10020C9
:101EE00000F066F800F076F810BD000080510100A7
:101EF0002DE9F05F06460F4690469946DDE90AABAC
:101F00000024B6F5FA6F03DB40F63300864202DDAB
:101F10000120BDE8F09F40F2B2750AE02846FFF7C5
:101F20007FFC10B11E48044401E01E480444681CB4
:101F300005B2B542F2DB781E47B2002510E01A4820
:101F4000405740F2A321484304EBC0143046FFF74A
:101F500067FC18B1012D01D114480444681C05B276
:101F6000BD42ECDBA8F1010040F2A321484304EBA1
:101F7000C014C9EB4910C0EB092004EB0014CAEBF4
:101F80000A1004EB80045C440120FFF7BFFD00F061
:101F900021F8204600F00CF800F01CF80020B8E70B
:101FA0000085E2018033E101186C000880510100D6
:101FB00000B50246FFF746FF100C044908800449AB
:101FC000A1F81C28FFF74AFF00BD000018280040B8
:101FD0000020004000BF0348008810F0200FFAD016
:101FE000704700000428004005A000F093FE72B680
:101FF00071B64FF4FA6001F05FFDFFF75BFD000082
:102000000D0A4552524F525F5356430D0A000000CD
:102010002DE9F04104460F4616464FF496711748D5
:10202000FEF7BBF800201649086000250BE0615D53
:10203000144800F064FD00BF4021124800F092FCFB
:102040000028F9D06D1C605D0028F0D10122082124
:102050000D48FFF7C5FB304601F02EFD0022082198
:102060000948FFF7BDFB39460448FEF7B0F810B148
:102070000120BDE8F0810020FBE70000AC26002035
:102080000400002000440040000C014010B500F0A6
:1020900001F810BD002100202E4A126842F480325F
:1020A0002C4B1A6000BF2B4A126802F40030491C06
:1020B00010B9B1F5A06FF6D1264A126812F4003FAC
:1020C00001D0012000E00020012842D1224A1268FC
:1020D00042F01002204B1A601A46126822F00302E6
:1020E0001A601A46126842F002021A60194A5268CF
:1020F000184B5A601A4652685A601A46526842F49F
:1021000080625A601A46526822F47C125A601A465B
:10211000526842F4E8125A601A46126842F080721D
:102120001A6000BF0B4A126812F0007FFAD0094A09
:10213000526822F00302074B5A601A46526842F076
:1021400002025A6000BF034A526802F00C02082AD9
:10215000F9D1704700100240002002407047000093
:1021600010B51348006840F00100114908600846A6
:102170004068104908400E494860084600680E490A
:1021800008400B4908600846006820F48020086079
:102190000846406820F4FE0048604FF41F00886045
:1021A000FFF774FF4FF000600449086010BD0000A5
:1021B000001002400000FFF8FFFFF6FE08ED00E00F
:1021C00010B50121880700F077F860B10121880778
:1021D00000F03CF800214FF0804000F03AF8002079
:1021E0004FF08041888410BD10B501210E4800F0E9
:1021F00063F8B8B101210C4800F028F80B480068DA
:1022000040B9012210210A48FFF7EAFA01200749E4
:10221000086007E0002210210548FFF7E1FA0020DE
:102220000249086010BD00000004004028000020A2
:10223000000C014021B1028842F08002028004E0DB
:1022400002884FF67F731A4002807047CA430282A9
:10225000704721B1028842F00102028004E0028846
:102260004FF6FE731A400280704700000EB542F22E
:102270001070ADF804004FF4E150ADF800000020FC
:10228000ADF80600ADF8020069460A4800F032F8E1
:1022900001210848FFF7CEFF01210648FFF7D6FFCE
:1022A00001221146034800F018F801210148FFF708
:1022B000D0FF0EBD0004004030B5024600200023D0
:1022C0000024158A05EA0103958905EA010413B182
:1022D0000CB1012000E0002030BD10B51AB1838997
:1022E0000B43838104E08389CC43A4B223408381E0
:1022F00010BD0000002202881D4B98420ED01D4BDD
:1023000098420BD0B0F1804F08D01B4B984205D0BB
:102310001A4B984202D01A4B984204D14FF68F7351
:102320001A404B881A43174B984207D0164B9842D5
:1023300004D04FF6FF431A40CB881A4302808B88A3
:1023400083850B8803850A4B98420BD0094B984232
:1023500008D00E4B984205D00D4B984202D00D4B41
:10236000984201D10B7A03860123838270470000D3
:10237000002C0140003401400004004000080040EF
:10238000000C0040001000400014004000400140DC
:10239000004401400048014010B508211F4800F0EA
:1023A000E1FA30B108211D4800F072F91B4800F035
:1023B000A1FB40F22551194800F0E1FA40B317485B
:1023C00000F098FBC4B216480068042803D12146E7
:1023D000144800F094FB14480068C8B15921114812
:1023E00000F08DFB2146114800F089FB00BF402121
:1023F0000C4800F0B7FA0028F9D02146094800F04F
:102400007EFB00BF4021074800F0ACFA0028F9D05D
:102410002021024800F03CF910BD0000004C0040B3
:1024200014000020003801401C000020004800403B
:1024300010B50821154800F095FA30B1082113486D
:1024400000F026F9114800F055FB40F225510F48E5
:1024500000F095FAA8B10D4800F04CFBC4B220463C
:1024600001F048FE0A48006805280AD121460948BB
:1024700000F045FB00BF4021064800F073FA002839
:10248000F9D02021014800F003F910BD00500040B0
:10249000140000200038014010B50821194800F050
:1024A00061FA30B10821174800F0F2F8154800F041
:1024B00021FB40F22551134800F061FAE0B11148C8
:1024C00000F018FB10490870084601780F480268B0
:1024D0000068401C0D4B18600D48815400200C49C9
:1024E0001A46126888541846006840F2145188420F
:1024F00002D90020194608602021024800F0C8F8DF
:1025000010BD000000380140240000200000002021
:102510009821002010B50821214800F023FA30B19D
:1025200008211F4800F0B4F81D4800F0E3FA40F21B
:1025300025511B4800F023FA80B3194800F0DAFA5D
:10254000184908701848006802280BD1084601781D
:10255000164800F0D4FA00BF4021144800F002FAF7
:102560000028F9D00F480178114802680068401C23
:102570000F4B18600F48815400200E491A4612680C
:1025800088541846006840F21451884202D900204D
:10259000194608602021024800F07AF810BD0000BA
:1025A00000440040250000201400002000380140B5
:1025B00004000020AC26002010B508212D4800F0B2
:1025C000D1F930B108212B4800F062F8294800F019
:1025D00091FA40F22551274800F0D1F9F0B325488F
:1025E00000F088FAC4B22448006803280AD12146C2
:1025F000224800F084FA00BF4021204800F0B2F9E0
:102600000028F9D01E4801680068401C1C4A106070
:102610001C48445400201B4912688854184800681C
:10262000B0F5967F02D90020154908601648006869
:10263000A0B15821114800F062FA2146134800F079
:102640005EFA00BF40210D4800F08CF90028F9D057
:1026500021460A4800F053FA00BF00E005E040219F
:10266000064800F07FF90028F7D02021014800F04B
:102670000FF810BD00480040140000200038014051
:1026800008000020C02B00201C000020004C00404F
:1026900001F40072B2F5007F00D100BFCA4302808E
:1026A000704721B1828942F40052828104E082891C
:1026B0004DF6FF731A4082817047000000B585B067
:1026C000012144F20400FFF74DFA4FF40070ADF819
:1026D000100018208DF8130003208DF8120004A9B3
:1026E0009748FEF7ABFF4FF48060ADF81000042070
:1026F0008DF8130003208DF8120004A99048FEF70E
:102700009DFF4FF47A3000900020ADF80400ADF842
:102710000600ADF80800ADF80C000C20ADF80A007A
:102720006946884800F07AF9012240F2255185482F
:1027300000F04FF901218348FFF7B3FF012148045E
:10274000FFF700FA01210420FFF70CFA0420ADF88E
:10275000100018208DF8130003208DF8120004A932
:102760007748FEF76BFF0820ADF8100004208DF8C5
:10277000130003208DF8120004A97148FEF75EFFD4
:102780004FF4E13000900020ADF80400ADF80600F1
:10279000ADF80800ADF80C000C20ADF80A00694651
:1027A000694800F03BF9012240F22551664800F0EB
:1027B00010F901216448FFF774FF01218804FFF735
:1027C000C1F901210820FFF7CDF94FF48060ADF881
:1027D000100018208DF8130003208DF8120004A9B2
:1027E0005A48FEF72BFF4FF40060ADF81000282088
:1027F0008DF8130003208DF8120004A95348FEF74A
:102800001DFF4FF4164000900020ADF80400ADF815
:102810000600ADF80800ADF80C000C20ADF80A0079
:1028200069464B4800F0FAF8012240F22551484829
:1028300000F0CFF801214648FFF733FF0121C8041B
:10284000FFF780F901211020FFF78CF94FF4806029
:10285000ADF8100018208DF8130003208DF8120039
:1028600004A93C48FEF7EAFE4FF40060ADF8100002
:1028700004208DF8130003208DF8120004A93548B8
:10288000FEF7DCFE4FF4164000900020ADF8040087
:10289000ADF80600ADF80800ADF80C000C20ADF85E
:1028A0000A0069462C4800F0B9F8012240F225518F
:1028B000294800F08EF801212748FFF7F2FE012198
:1028C0000805FFF73FF901213020FFF74BF94FF4DE
:1028D0008050ADF8100018208DF8130003208DF8FB
:1028E000120004A91B48FEF7A9FE0420ADF8100051
:1028F0008DF8130003208DF8120004A91748FEF785
:102900009DFE4FF4165000900020ADF80400ADF885
:102910000600ADF80800ADF80C000C20ADF80A0078
:1029200069460F4800F07AF8012240F225510C4820
:1029300000F04FF801210A48FFF7B3FE05B000BDD3
:10294000000801400038014000440040000C0140F4
:102950000048004000100140004C004000140140BD
:102960000050004002460020B1F5007F00D100BFBA
:1029700013880B4201D0012000E00020704770B5A1
:1029800002460024002300250020A1F510666A3EBF
:1029900000D100BFC1F3421501F01F03012606FA62
:1029A00003F3012D02D19689334006E0022D02D1B6
:1029B000168A334001E0968A33400C12012606FA4B
:1029C00004F41688344013B10CB1012000E000205B
:1029D00070BDF0B503460024002600250020A1F5B7
:1029E00010676A3F00D100BF1846C1F3421401F0DE
:1029F0001F06012707FA06F5012C01D10C3004E06F
:102A0000022C01D1103000E014301AB107682F43B6
:102A1000076002E00768AF430760F0BD2DE9F047AB
:102A200086B005460E460024A24600BFA1460027F8
:102A3000B08900B100BF2F462C8A4CF6FF700440CD
:102A4000F08804432C82AC894EF6F3100440B08821
:102A500031890843718908430443AC81AC8A4FF63D
:102A6000FF400440B0890443AC8201A8FFF7EEF8B0
:102A70001F48874202D1DDF810A001E0DDF80CA06C
:102A8000A88910F4004F08D00AEBCA0000EB0A1026
:102A900031684900B0FBF1F807E00AEBCA0000EB2F
:102AA0000A1031688900B0FBF1F86420B8FBF0F03F
:102AB00004012009642101FB1089A88910F4004F4A
:102AC00008D0322000EBC900B0FBF1F000F00700A5
:102AD000044308E0322000EB09106421B0FBF1F060
:102AE00000F00F0004432C8106B0BDE8F087000021
:102AF0000038014001468888C0F308007047C1F3E0
:102B0000080282807047000000B585B000220121D4
:102B10002748FEF765FE08212648FEF7CBF860B18E
:102B200025A000F0F7F86A4600212248FEF756F982
:102B300008212048FEF75EF800BF40211D48FEF73F
:102B4000B9F860B121A000F0E5F86A460121194802
:102B5000FEF744F940211748FEF74CF800BF022168
:102B60001448FEF7A7F848B16A4600211148FEF75D
:102B700035F902210F48FEF73DF800BF10210D483E
:102B8000FEF798F860B116A000F0C4F86A4601217B
:102B90000848FEF723F910210648FEF72BF800BF7E
:102BA000012211460248FEF71BFE05B000BD0000E1
:102BB000000C0140006400400D0A43414E20657244
:102BC000726F723121210D0A000000000D0A43418D
:102BD0004E206572726F723221210D0A00000000D2
:102BE0000D0A43414E206572726F723321210D0A26
:102BF000000000000AE006A000F08CF872B671B682
:102C00004FF4FA6000F058FFFEF754FFF3E70000BE
:102C10000D0A4552524F525F55534147450D0A0028
:102C20002DE9F04107460E4614461D464FF00008B8
:102C3000E1B2304600F026FEA84206D015A000F012
:102C400069F84FF0FF30BDE8F08122463146384642
:102C500001F0F1F84FF47A7000F02EFFFF2240F2FD
:102C600014511B48FDF792FA22461949384601F0E3
:102C7000D3F8E1B2164800F005FEA84205D015A031
:102C800000F048F86FF00100DDE719A000F042F80D
:102C90000120D8E70D0A62756620646174612063C3
:102CA0007263206572726F72202C63757272656E2A
:102CB0007420646174612061626F72742C706C6541
:102CC0006173652072657472792121210D0A0000FB
:102CD0006C3000200D0A7265616420666C61736857
:102CE0002064617461206572726F723A0D0A00008F
:102CF0000D0A777269746520726561642063686586
:102D0000636B20666C617368206F6B2B2B2B2B2BF6
:102D10000D0A00000FB4054B10B503A9044A029830
:102D200000F0DAF810BC5DF814FB0000C93E0008A2
:102D3000902100200FB4084B10B504A902AA0398F3
:102D400000F0CAF8044602A9002000F059FC204611
:102D500010BC5DF814FB0000013600080048704705
:102D60009421002002E008C8121F08C1002AFAD1ED
:102D700070477047002001E001C1121F002AFBD1FB
:102D8000704700002DE9FF5FDDE90210020DDDF85C
:102D900038B001430FD10F9801244AA3012807D06E
:102DA00000980F9AC0E90031C0E90242BDE8FF9FD8
:102DB0006FEA0B01F4E7A2F2FF3244F610504243EF
:102DC00015140F9801280FD0A5EB0B00401C4FF0F5
:102DD00000043D4EDFF8F490B0F1000AA046C0F1C7
:102DE000000717DB074615E0CBF10000EFE7F80717
:102DF00007D02246334640464946FDF7BEFB804693
:102E000089462246334620463146FDF7B6FB044646
:102E10000E467F10002FEAD1DDE90201BAF1000F62
:102E200042464B4602DAFDF7A8FB01E0FDF7D1FD73
:102E300004460E460022264BFDF752FE03D84FF003
:102E4000FF30014607E00022224B20463146FDF7C5
:102E5000EFFAFDF72DFE102409E0002C0ADB0A2210
:102E60000023FDF776FC019B30321A55641E50EAB0
:102E70000102F2D1641C019AC4F1110314440F9AA7
:102E8000012A07D00122084301D15B450DDD002254
:102E90006D1C0DE0084303D1A3EB0B056D1E09E08B
:102EA00000204FF0110B0F908BE701DA00226D1E0E
:102EB000002A86D000980F99C0E90231C0E9004588
:102EC00074E7000030000000000024400000F03FE4
:102ED0000000F0430000E03F2DE9FF4F95B00646AB
:102EE0009A460F460025F2E1252878D10024761C69
:102EF000FB4AA046012106943378203B01FA03F0F7
:102F0000104202D00443761CF6E730782A2811D00C
:102F10006FF02F023078A0F13001092915D80699F9
:102F200044F0020401EB810102EB41010844761CEC
:102F30000690EFE701CF0690002803DA404244F400
:102F40000054069044F00204761C30782E2817D1E5
:102F500016F8010F44F004042A280ED06FF02F0257
:102F60003078A0F1300109290AD808EB880102EB7A
:102F7000410100EB0108761CF2E757F8048B761C40
:102F800030786C280FD006DC4C2817D068280DD07C
:102F90006A2814D104E0742810D07A280FD10DE0EB
:102FA00044F400140AE044F4801401E044F44014B2
:102FB0007178814202D1761C04F58014761C307839
:102FC000864666280AD012DC582872D008DC80B306
:102FD000452803D0462801D047281AD196E118E0A9
:102FE000632832D0642875D0652812D18EE170280C
:102FF0006ED008DC67286CD069286BD06E280DD0A5
:103000006F2806D1A9E0732828D075286FD07828BA
:103010006ED05246179990476D1C56E1C4F302508A
:10302000022807D003280BD0042801CF0BD005605D
:103030004BE150E101CF4FEAE571C0E9005144E1B5
:1030400001CF058041E105703FE101CF8DF800001F
:1030500000208DF80100EB46012003E057F804BB87
:103060004FF0FF3061074FF0000102D40DE009F18D
:103070000101894641450FDA8145F8DB1BF809104B
:103080000029F4D108E009F1010189468142FADB07
:103090001BF809100029F6D106985346A0EB090049
:1030A00080462146179A00F094FA284400EB09055F
:1030B00005E047E01BF8010B524617999047B9F11C
:1030C0000109F7D2534621464046179AFAE001E03B
:1030D0003AE01BE10A21C4F302524FF0000B0091C9
:1030E000022A06D001CFC117032A08D009E022E046
:1030F00023E0FF1D27F00707F7E8020105E000B213
:10310000C117042A01D140B2C117002906DA0A46C4
:103110000021404261EB02012D2202E0220504D58C
:103120002B228DF80420012203E0E20701D02022A7
:10313000F7E7914653E00A2110E010204FF0000B12
:1031400000900EE0102109E010204FF0000B44F039
:1031500004044FF00808009003E008214FF0000B32
:103160000091C4F30252022A04D001CF0021032AA5
:1031700006D007E0FF1D27F00707F7E8020105E08A
:1031800080B20021042A01D1C0B200214FF0000911
:10319000220724D5BEF1700F2AD0009B83F01003C4
:1031A00053EA0B0309D150EA010206D030228DF810
:1031B00004208DF805E002229146009B83F008036D
:1031C00053EA0B030BD150EA010201D1620706D585
:1031D00030228DF804204FF00109A8F1010841A226
:1031E000BEF1580F00D044A203920FAA02920FE042
:1031F00040228DF804200122DEE75B46009AFDF7AD
:10320000A8FA039B9B5C029AA2F10102029213703E
:1032100050EA0102F1D1029807A9A1EB000000F1E8
:10322000200B600702D524F4803401E04FF0010840
:10323000002041465A46D84501DDA1EB020000EBD3
:103240000B01009006984944A0EB01000690E003B2
:1032500006D453462146179A069800F0BAF9054459
:10326000002008E001A8524610F80800179990477E
:103270006D1C08F1010080464845F3DBE0030CD5E6
:1032800053462146179A069800F0A3F9054404E036
:1032900030205246179990476D1C0099481E0090A7
:1032A0000029F5DC08E00298029952460078491C92
:1032B0000291179990476D1CBBF10001ABF1010B16
:1032C000F1DC67E100F072F9054406F1010630789F
:1032D00000287FF409AE19B02846BDE8F08F000041
:1032E000092801003031323334353637383941421C
:1032F0004344454600000000303132333435363720
:10330000383961626364656600000000600701D4BB
:103310004FF0060807F1070727F00707A0A1F7E815
:10332000020C0CF000431A0007D19EA1220504D420
:103330009DA1E20701D1AFF2440112912CF0004CA3
:103340007146BEF1650F0ED007DC45290BD046292A
:1033500020D0BEF1470F3DD13DE066291AD0BEF125
:10336000670F37D137E0002311224146B8F1110F22
:1033700000DA4A1CCDE900230246634607A902A8E9
:10338000FFF700FD012000904FF0000B08F101094C
:10339000039868E04FF000410F910123CDE90083CD
:1033A0000246634607A902A8FFF7ECFCDDE904909A
:1033B0004FF0000B20B9039908F1010001EB00095F
:1033C000B8EB090003D4C0F1FF3B08F10109A9EBF8
:1033D0000800009048E04146B8F1010F01DA0121F0
:1033E000884600231122B8F1110F00DC0A46CDE90E
:1033F00000230246634607A902A8FFF7C3FC4FF06B
:10340000000BC14620070FD40499414503DA8946D1
:1034100001E0A9F10109B9F1010F05DD0299A9F156
:103420000100085C3028F4D00399414502DA11F11B
:10343000040F03DA01200F91009015E0002903DC4E
:103440008B44A9EB010005E0481C484503DD0398C7
:1034500000F1010081460399A1EB0B0000F101008E
:1034600000904FF000400F90200705D40098484589
:1034700002DB4FF0FF30009000210F980DF147085C
:103480008DF84710B0F1004F26D0022001902B207C
:1034900013900F9800280CDA40420F902D201390C3
:1034A00007E00A210F98FDF73EF930310F9008F838
:1034B000011D0199481E01900029F2DC0F98002897
:1034C000EFD1A8F1010213991170317801F02001B8
:1034D00041F0450108F8021D10A9A1EB080000F118
:1034E000070001901298007800B1012000EB09015B
:1034F000009801EBE071019801440698A0EB0100EF
:10350000A0F101000690E00306D453462146179A25
:10351000069800F05EF805441298007820B15246F3
:103520001799904705F10105E00322D5534621463E
:10353000179A069800F04DF805441AE0BBF1000F09
:1035400007DB0499594504DD029911F80B0017991E
:1035500001E0179930205246904700986D1C401E9C
:103560000BF1010B009004D12E2052461799904781
:103570006D1CB9F10001A9F10109DFDC05E018F8C3
:10358000010B5246179990476D1C0199481E0190F6
:103590000029F4DC53462146179A069892E600006B
:1035A0002D0000002B000000200000002DE9F0415C
:1035B0000446002517461E46880405D406E0394611
:1035C0002020B04705F10105641EF8D52846BDE866
:1035D000F0812DE9F04104460025302790461E4633
:1035E000C80300D42027880405D506E041463846A4
:1035F000B04705F10105641EF8D52846BDE8F08105
:103600000A68531C0B601070704700002DE9F047EA
:1036100007460E463846FDF721F882460949FCF771
:1036200091FE81460849FCF7C3FE8046FDF749F844
:10363000044602460B4605A13046FFF77BFBBDE87A
:10364000F08700000000C84200007F43252E31664D
:10365000252500002DE9F04707460E463846FCF7C1
:10366000FDFF82460949FCF76DFE81460849FCF7DB
:103670009FFE8046FDF725F8044602460B4605A14D
:103680003046FFF757FBBDE8F08700000000C84256
:1036900000007F43252E3166252500002DE9F047E7
:1036A000814688464846FCF7E2FF0446064A074B37
:1036B000FCF763FF064602460B4605A14046FFF7AE
:1036C00039FBBDE8F08700007B14AE47E17A843F08
:1036D000252E326620672F73000000002DE9F05F71
:1036E00004460D46A4F128063046FCF7B7FF834692
:1036F0000B49FCF727FE81460A49FCF759FE804634
:103700004FF08441FCF7C6FD0746FCF7C1FF824637
:10371000B023324604A12846FFF70CFBBDE8F09F1A
:10372000000010410000A0402569256320430000EF
:1037300070B504460D46224602A12846FFF7FAFA64
:1037400070BD00002569206B506100002DE9F0413B
:1037500004460F46164600254FF496711148FCF7B3
:103760001CFD00BF0BE0615D0F48FFF7C8F900BF0B
:1037700040210D48FFF7F6F80028F9D06D1C605D78
:103780000028F0D109490860304600F095F9394623
:103790000448FCF71CFD10B10120BDE8F0810020B9
:1037A000FBE70000EC2C0020004C00400C00002047
:1037B00070B5044600250420174908604CB917A0CD
:1037C000FFF7A8FA002202211B48FEF709F80120A2
:1037D00070BD1AA0FFF79EFA012202211648FDF7DC
:1037E000FFFF4FF4FA6000F067F900250CE04FF49A
:1037F0007A7218A118A0FFF7A9FF20B117A0FFF750
:1038000089FA0120E4E76D1C052DF0DB18A0FFF715
:1038100081FA0020DCE70000140000200D0A626C31
:10382000756520746F6F74682070776F6572206F94
:1038300066660D0A00000000000801400D0A626C77
:10384000756520746F6F74682070776F6572206F74
:103850006E0D0A004F4B000041540D000D0A626CC2
:103860007565207374617274206F6B0D0A0000001F
:103870000D626C7565207374617274206572726F6D
:10388000720A0000F0B5ADF5017D05460E464FF415
:1038900000720F4901A8FCF767FC00240EE02046E7
:1038A000E11704EB1161C1F307272006040C287807
:1038B000784001A931F8100044406D1C3000A6F199
:1038C0000101CEB2EBD120460DF5017DF0BD000027
:1038D0000C6A00082DE9FE4F834688465846FCF7DF
:1038E000C6FE8146144A154BFCF747FE06460022E9
:1038F000134BFCF73CFE0446FCF7F9FE029011491D
:103900000298FCF71FFD05460F49FCF751FD0446E0
:103910004FF08441FCF7BEFC01900298FCF7D1FE09
:103920000446B023024600930B4608A14046FFF729
:1039300001FABDE8FE8F00009A9999999999B93FCB
:1039400000004440000010410000A040252E3166D8
:10395000256320430000000070B504460D46224652
:1039600002A12846FFF7E6F970BD00002569206B2B
:103970006D0000002DE9F04104460D463C2094FB0B
:10398000F0F100FB114694FBF0F733463A4603A1F1
:103990002846FFF7CFF9BDE8F081000025692068CF
:1039A0007273202569206D696E000000002400BF3D
:1039B00000BF0020244908600120FFF7F9FE012024
:1039C00001F00AFA4FF4FA6000F076F800BF2FE039
:1039D0000D211E48FFF793F800BF40211B48FEF75A
:1039E000C1FF0028F9D00A211848FFF788F800BF66
:1039F00040211648FEF7B6FF0028F9D041211348B0
:103A0000FFF77DF800BF40211048FEF7ABFF00280C
:103A1000F9D042210D48FFF772F800BF40210B4852
:103A2000FEF7A0FF0028F9D01E2000F045F8641C26
:103A3000642CCDDB01200449086001F077FE0120F1
:103A400001F056FB00BFFEE71C000020004C0040C8
:103A50002DE9F04707460E463846FCF7FFFD824643
:103A60000949FCF76FFC81460849FCF7A1FC804638
:103A7000FCF727FE044602460B4605A13046FFF739
:103A800059F9BDE8F08700000000C84200007F43FC
:103A9000252E31662525000070B504460D46A4F19B
:103AA0002802B02302A12846FFF744F970BD0000A8
:103AB0002569256320430000002107E0002200E083
:103AC000521C43F2C8239A42FAD3491C8142F5D3CF
:103AD000704700002DE9F047814688464846FCF7CC
:103AE000C6FD0446064A074BFCF747FD064602465C
:103AF0000B4605A14046FFF71DF9BDE8F087000021
:103B0000FCA9F1D24D62503F252E336620560000AD
:103B10002DE9F04706460F46A6F18000FCF79EFD12
:103B200082460C49FCF744FC81460B49FCF70AFC31
:103B30008046FCF7C6FD04460D46802E01D107A045
:103B400000E008A0014622462B463846FFF7F2F86F
:103B5000BDE8F08700007F430000C842302E3025CA
:103B600025000000252B2E31662525002DE9F04784
:103B700007460E463846FCF771FD82460949FCF7B8
:103B8000E1FB81460849FCF713FC8046FCF799FDF0
:103B9000044602460B4605A13046FFF7CBF8BDE8C8
:103BA000F08700000000C84200007F43252E3166E8
:103BB000252500002DE9F04105460C462846FCF776
:103BC0004DFD80464FF08141FCF7F2FB0746FCF7C4
:103BD0005FFD0646024603A12046FFF7ABF8BDE8AD
:103BE000F0810000256920722F6D696E00000000D1
:103BF0002DE9F84304460D464FF4616094FBF0F85C
:103C000094FBF0F100FB11403C2190FBF1F73C20CC
:103C100094FBF0F100FB11463B46424603A12846C7
:103C20000096FFF787F8BDE8F88300002530326979
:103C30003A253032693A2530326900002DE9F047E3
:103C4000814688464846FCF712FD0446064A074B63
:103C5000FCF793FC064602460B4605A14046FFF7DB
:103C600069F8BDE8F0870000D5CC5A0A48FBFF3E52
:103C7000252E3366000000002DE9F04707460E466A
:103C80003846FCF7EBFC82460949FCF791FB81467C
:103C90000849FCF757FB8046FCF713FD0446024633
:103CA0000B4605A13046FFF745F8BDE8F087000058
:103CB00000007F430000C842252E31662525000004
:103CC0002DE9F047814688464846FCF7D0FC04467B
:103CD0000022064BFCF751FC064602460B4604A1A7
:103CE0004046FFF727F8BDE8F08700000000D03F0E
:103CF000252E32662050610070B50446002504EB85
:103D00004400C0EB4410384B03EB800000F1640228
:103D100004EB4400C0EB441003EB8000011D33A012
:103D2000FEF7F8FF4FF496713448FCF736FA00209E
:103D30003349086030213348FEF7E1FE00BF4021DF
:103D40003048FEF70FFE0028F9D031212D48FEF74C
:103D5000D6FE00BF40212B48FEF704FE0028F9D014
:103D600004EB4400C0EB44101F4A02EB800090F8C3
:103D700064102448FEF7C3FE00BF40212148FEF72F
:103D8000F1FD0028F9D004EB4400C0EB4410164AC2
:103D900002EB800090F865101A48FEF7B0FE00BFF5
:103DA00040211848FEF7DEFD0028F9D00D21154806
:103DB000FEF7A5FE00BF40211248FEF7D3FD002804
:103DC000F9D04FF4FA60FFF777FE0FA0FEF7A2FFDD
:103DD000002505E00948415D0EA0FEF79BFF6D1C24
:103DE000282DF7DB70BD00007C0000200D0A257334
:103DF00009092D2D2D2D3E25730D0A00C02B002005
:103E000008000020004800400D0A44415441203A77
:103E10000D0A00002533580010B50346002000BFEE
:103E200003E01C580C54441CA0B29042F9DB10BDB6
:103E30000246012070472DE9F04180460F461446A6
:103E4000FDF7D4F9E11704EB91718910B4EB81010E
:103E50001BD0002504E0FF2079190855681C85B2A5
:103E6000E11704EB91718910A4EB8101C1F1040108
:103E7000A942F0DC2046E11704EB91718910A4EB14
:103E80008101C1F1040121448CB2002515E0002616
:103E90007819C078064336027819807806433602CE
:103EA0007819407806433602785D064308EB050032
:103EB0003146FDF75DF9281D85B2A542E7DBFDF728
:103EC0003FF9BDE8F081000070B504460D46E1B24F
:103ED0000548FEF714FE00BF80210348FEF742FDAF
:103EE0000028F9D0204670BD003801402DE9F05F70
:103EF000814688464846FCF7BAFB06460F4A104BF7
:103F0000FCF73BFB0446FCF7F2FB82465046FCF70D
:103F1000D8FB06460B4A0C4BFCF72FFB0446FCF77C
:103F2000E6FB83465046FCF7CCFB044602460B46B4
:103F300006A14046FEF7FEFEBDE8F09FD34D62109D
:103F40005839B43F1DAAB2BA9890C23F252E3366A5
:103F5000206B50610000000070B504460D4604EB74
:103F60008400460000BF324602A12846FEF7E2FE6A
:103F700070BD00002569206B506100002DE9F047FD
:103F800007460E463846FCF769FB82460949FCF7AE
:103F90000FFA81460849FCF7D5F98046FCF791FBFA
:103FA000044602460B4605A13046FEF7C3FEBDE8B7
:103FB000F087000000007F430000C842252E3166D4
:103FC0002525000070B504460D4604EB440202A10D
:103FD0002846FEF7AFFE70BD2569206B50610000DA
:103FE00070B504460D462946C4F3072000F00AF8D0
:103FF00070BD70B504460D46E0B2294600F002F8E7
:1040000070BD000070B504460D4624B916A12846BF
:10401000FEF790FE27E0012C04D115A12846FEF7FB
:1040200089FE20E0022C04D114A12846FEF782FE6E
:1040300019E0042C04D114A12846FEF77BFE12E0FF
:10404000082C04D118A12846FEF774FE0BE0102CB2
:1040500004D11CA12846FEF76DFE04E0224621A1F2
:104060002846FEF767FE70BD756E757365640000C7
:104070006F70656E206C6F6F70000000636C6F7303
:104080006564206C6F6F70006F70656E206C6F6F71
:1040900070202864726976696E6720636F6E646948
:1040A00074696F6E732900006F70656E206C6F6F9E
:1040B00070202873797374656D206661756C74293E
:1040C00000000000636C6F736564206C6F6F702C70
:1040D000204F322073656E736F72206661756C7449
:1040E00000000000756E6B6E6F776E3A2030782599
:1040F00030325800FA49097879B3FA490968062933
:1041000002D0FF297ED12FE1F749C978472972D122
:10411000F549097947296ED1F349497941296AD18D
:104120000121F24A11600021F14A116009E0782270
:10413000F049EF4B1B68CA54ED490968491CEC4A29
:104140001160EB4909680929F1DB7821E94A921EDF
:10415000D1720021E64A11600BE0F3E37822E549D1
:104160000A31E34B1B68CA54E1490968491CE04A1B
:104170001160DF4909680A29F0DB7821DD4A921EC7
:104180009175D1750021DA4A11600AE07822D94987
:104190001631D74B1B68CA54D5490968491CD44A03
:1041A0001160D34909680229F0DB0021D04A11606F
:1041B0000AE07822CF491831CD4B1B68CA54CC494C
:1041C0000968491CCA4A1160C94909680429F0DB19
:1041D0000021C74A11600AE00022C6491C31C44BC5
:1041E0001B68CA54C2490968491CC14A1160C049C8
:1041F00009680A29F0DBBC494979562928D10421EC
:10420000BA4A00E0FEE311600021B94A11601BE0E8
:104210007822B949B64B1B6801F82320B44B1B68C0
:1042200001EB83014A70B449B14B1B6801EB830178
:104230008A70B149AE4B1B6801EB8301CA70AC496F
:104240000968491CAA4A1160A94909680C29DFDBE1
:10425000A5494979432971D10821A44A1160002157
:10426000A34A116009E07822A449A14B1B68CA54F3
:104270009F490968491C9E4A11609D4909680A299D
:10428000F1DB78219D4A921E11730021984A11603A
:104290000AE0782299490B31954B1B68CA5494491E
:1042A0000968491C924A1160914909680929F0DBA3
:1042B0007821924A921E917500218D4A11600AE080
:1042C00078228E4915318A4B1B68CA54884909687F
:1042D000491C874A1160864909680A29F0DB782160
:1042E000864A921E82F821100021814A11600AE05C
:1042F0007822824920317E4B1B68CA547C49096868
:10430000491C7B4A11607A4909680529F0DB0021C4
:10431000774A11600AE0782278492531744B1B688E
:10432000CA5473490968491C714A11607049096887
:104330000529F0DB00216E4A11600BE00EE07822C7
:104340006E492A316A4B1B68CA5469490968491C7D
:10435000674A1160664909680629F0DB2C2802D1FA
:10436000FF21604A1160FEE360490968012904D019
:1043700004297ED008297DD1EDE02A2802D02C28FE
:1043800079D190E00021564A11705A49891EC97DA1
:10439000302971D05749891EC97E2E290FD1554920
:1043A000891E097F3039534A921E927E303A02EBC1
:1043B000820201EB42014F4A921E916220E04D4978
:1043C000891E097F2E2916D14A49891E897E3039D6
:1043D00064225143474A921ED27E303A02EB820257
:1043E00001EB42024349891E497F30391144414A59
:1043F000921E916204E04FF47A713E4A921E9162DD
:104400003C49891E896A3E4A926991424ADC0021F0
:10441000374A11600CE03749354A1268895C384ADE
:10442000334B1B68D15432490968491C304A11602A
:104430002F4909680929EEDB00212D4A11600EE0A1
:104440002C490A312A4A12688A5C2D490A31284BC4
:104450001B68CA5426490968491C254A1160244929
:1044600009680A29ECDB2349891EC97A244A51725A
:1044700003E0B9E1F6E320E014E01E49891E897DDE
:1044800011751C49891E097E11771A49891E4A7EB9
:104490001B494A771749891E896A194A9161012186
:1044A000184A116055E01349891E0978491C114AC0
:1044B000921E1170002151704BE00E49891E09783F
:1044C00009293ED2DFE801F03D052023282B2E33B9
:1044D00038000849891E4A78891C885432E0000057
:1044E000500000204C00002044000020400000202C
:1044F00058000020B6350020E83500208235002025
:10450000183600205C000020FF49C8721AE0FE49FE
:104510004A780C31885415E0FB49887512E0FA4955
:10452000C8750FE0F8494A78183188540AE0F6490E
:104530004A781A31885400BFF3494A781E318854AA
:1045400000E000BF00BFF0494978491CEE4A5170B5
:1045500000BF00BFD6E32A2802D02C287DD1FEE080
:104560000021EA4A1170EA4A11600121E94A11600A
:10457000E949097B412978D10021E84A11600DE021
:10458000E5490D31E54A12688A5CE549E34B1B6851
:10459000CA54E2490968491CE04A1160DF490968C8
:1045A0000929EDDB0021DD4A11600EE0DA491731FF
:1045B000DA4A12688A5CDA490A31D84B1B68CA5455
:1045C000D6490968491CD54A1160D44909680A29A5
:1045D000ECDBD149897DD24A1E3A82F82710CE49B8
:1045E00091F8211082F832100021CC4A11600EE0BF
:1045F000C9492231C94A12688A5CC9491731C74B77
:104600001B68CA54C5490968491CC44A1160C3499A
:1046100009680529ECDB0021C04A11600EE0BE49A3
:104620002731BE4A12688A5CBD491C31BB4B1B68EE
:10463000CA54BA490968491CB84A1160B74909689F
:104640000529ECDBB049097EB54A1E3A82F83310E1
:10465000AD494A7EB2491E3901E088E005E081F8A3
:1046600034200121AF4A11607047AB49897D782918
:1046700074D00021A94A11600DE0A7490D31A74A65
:1046800012688A5CA649A54B1B68CA54A3490968ED
:10469000491CA24A1160A14909680929EDDB0021E2
:1046A0009E4A11600EE09C4917319C4A12688A5C50
:1046B0009B490A31994B1B68CA5498490968491C9F
:1046C000964A1160954909680A29ECDB9249897D6F
:1046D000934A1E3A82F827108F4991F8211082F8E8
:1046E000321000218D4A11600EE08B4922318B4A35
:1046F00012688A5C8A491731884B1B68CA548749FB
:104700000968491C854A1160844909680529ECDB60
:104710000021824A11600EE07F4927317F4A1268EA
:104720008A5C7F491C317D4B1B68CA547B490968F0
:10473000491C7A4A1160794909680529ECDB7249FC
:10474000097E774A1E3A82F833106F494A7E7449CF
:104750001E3981F834200121734A116042E06E490C
:104760000978491C6C4A1170002151703AE06A497D
:10477000097809292ED2DFE801F0050A0D12151A71
:104780001E23280064494A78891C885423E0624922
:10479000087320E060494A780D3188541BE05E4977
:1047A000887518E05C494A781731885413E05A49F3
:1047B00081F821000FE058494A78223188540AE0F4
:1047C00055494A782731885405E053494A782C31B5
:1047D000885400E000BF00BF4F494978491C4E4A49
:1047E000517000BF00BF8DE22A2802D02C287ED154
:1047F000DFE10021454A11704C49C978312977D150
:1048000000214B4A11604B4A11604B4A11604B4AE0
:1048100011604B4A1160414A1160A2E043490831DE
:104820003E4A126801EB8201C97878296BD0404971
:104830000968491C3E4A11603C490831374A1268F0
:1048400001EB8201C9783039384A0832334B1B6892
:1048500002EB83029278303A02EB820201EB4201D2
:104860000A2904DB33490968491C324A11602F497F
:1048700008312A4A126801EB8201C97830392B4A83
:104880000832264B1B6802EB83029278303A02EB27
:10489000820201EB4201142904DB27490968491C03
:1048A000254A1160214908311C4A126801EB820136
:1048B000C97830391D4A0832184B1B6802EB830255
:1048C0009278303A02EB820201EB42011E2904DBAE
:1048D0001A490968491C194A1160144908310F4ADC
:1048E000126801EB8201C9783039104A01E068E1B1
:1048F0003DE00832094B1B6802EB83029278303AA4
:1049000002EB82021FE027E0B435002050000020B7
:104910004C0000205400002080350020580000206A
:10492000363600206400002060000020E0350020C2
:10493000680000206C00002070000020740000203F
:1049400078000020F2E101EB4201282904DBFF4955
:104950000968491CFD4A1160FD490968491CFC4A67
:104960001160FB4909680429FFF658AF20E1F949B5
:10497000C97832297ED10421F54A116083E0F549D6
:104980000831F34A126801EB8201C978782975D0A1
:10499000F1490968491CF04A1160EE490831EC4AB6
:1049A000126801EB8201C9783039EA4A0832E84BD3
:1049B0001B6802EB83029278303A02EB820201EB31
:1049C00042010A2904DBE5490968491CE34A1160F0
:1049D000E0490831DE4A126801EB8201C9783039BA
:1049E000DC4A0832DA4B1B6802EB83029278303AD9
:1049F00002EB820201EB4201142906DBD849096867
:104A0000491C00E080E1D64A1160D2490831D04A01
:104A1000126801EB8201C9783039CE4A0832CC4B9A
:104A20001B6802EB83029278303A02EB820201EBC0
:104A300042011E2904DBCB490968491CC94A11609F
:104A4000C4490831C24A126801EB8201C978303981
:104A5000C04A0832BE4B1B6802EB83029278303AA0
:104A600002EB820201EB4201282907DBB749096802
:104A7000491C01E00DE001E0B44A1160B449096845
:104A8000491CB34A1160B24909680829FFF677AF9B
:104A90008EE0B049C978332966D10821AC4A11604B
:104AA00081E0AC490831AA4A126801EB8201C97859
:104AB000782973D0A8490968491CA74A1160A549FB
:104AC0000831A34A126801EB8201C9783039A14A42
:104AD00008329F4B1B6802EB83029278303A02EB5C
:104AE000820201EB42010A2904DB9C490968491C46
:104AF0009A4A116097490831954A126801EB820180
:104B0000C9783039934A0832914B1B6802EB830213
:104B10009278303A02EB820201EB4201142904DB65
:104B20008F490968491C8E4A11608A490831884AB0
:104B3000126801EB8201C9783039864A0832844B09
:104B40001B6802EB83029278303A02EB820201EB9F
:104B500042011E2904DB83490968491C814A11600E
:104B60007C49083101E0E0E022E0794A126801EB7B
:104B70008201C9783039774A0832754B1B6802EBDD
:104B800083029278303A02EB820201EB420128293B
:104B900004DB6E490968491C6C4A11606C4909685C
:104BA000491C6B4A11606A4909680C29FFF679AF04
:104BB000A2E068490978491C664A117000215170C9
:104BC0009AE064490978132974D2DFE801F00A0DEC
:104BD0002A2B343536404C4D4E5A656667747F80BB
:104BE00081005C49887080E05A49C870C9783129D1
:104BF00003D10021574A516012E05649C978322941
:104C000003D10421534A51600AE05249C97833293B
:104C100003D108214F4A516002E008214D4A5160FA
:104C200063E062E04B494A68083101EB8201494A7E
:104C30005278885459E058E057E046494A680831AC
:104C400001EB8201891C434A527888544DE0414966
:104C50004968491C3F4A083202EB8101083A527800
:104C6000885442E04AE040E03FE03A494968491C44
:104C7000384A083202EB8101891C083A527888547C
:104C800033E034494968891C324A083202EB810119
:104C9000083A5278885428E027E026E02D494968F0
:104CA000891C2C4A083202EB8101891C083A52788F
:104CB00088541AE018E027494968C91C254A083277
:104CC00002EB8101083A527888540EE00DE00CE0C6
:104CD00020494968C91C1F4A083202EB8101891C1E
:104CE000083A5278885400E000BF00BF194949785B
:104CF000491C184A517000BF00BF03E000211A4A46
:104D0000117000BF00BF10E01849194A126888549A
:104D100017490968491C164A116011460968072994
:104D200002DD0021104A117000BF33E0242831D188
:104D30000E4900220A608A808A71087001210A4A9D
:104D4000117000210B4A1160012115E0780000204C
:104D500058000020E0350020680000206C00002092
:104D6000700000207400002050000020440000204B
:104D70004C00002040000020074A11600021074A33
:104D800011705170064A11705170064A11705170BD
:104D9000054A116000BF67E44C0000208035002008
:104DA000E0350020B43500205400002010B5FCF799
:104DB000E9FE01210748FCF7CBFCFCF737FAFDF7C9
:104DC0007DFCFCF7E1F8FCF773FDFDF791F8FDF7CA
:104DD0004DFA10BD0004300010B58CB0044678A028
:104DE000FDF798FF4FF4FA727BA17CA0FEF7AEFCB2
:104DF0004FF4FA7278A179A0FEF7A8FC794A7AA15B
:104E000004A8FDF797FF04A97AA0FDF783FF4FF4EC
:104E1000FA7271A104A8FEF799FC002803DA4FF09A
:104E2000FF300CB010BD4FF4FA726BA177A0FEF703
:104E30008DFC202104A8FBF7B0F96A4A143276A150
:104E400004A8FDF777FF04A976A0FDF763FF4FF4F0
:104E5000FA7261A104A8FEF779FC002802DA4FF08B
:104E6000FF30DEE74FF4FA725BA174A0FEF76EFC30
:104E7000202104A8FBF791F94FF416414EF2E842C5
:104E8000881A914247D014DCB1F5165F34D009DCA2
:104E9000B1F5966F21D0B1F5166F23D0B1F5965FBD
:104EA00057D124E0B1F5964F2BD0B1F5164F50D124
:104EB0002CE0654A811A90423CD007DCA0F55D40A9
:104EC00018382DD0B0F5E13F43D12EE0B1F5E12FF8
:104ED00035D0B1F5612F3CD136E05CA104A8FBF7D9
:104EE00068F93BE05CA104A8FBF763F936E05DA13B
:104EF00004A8FBF75EF931E05DA104A8FBF759F9BE
:104F00002CE05EA104A8FBF754F927E05EA104A8F9
:104F1000FBF74FF922E05FA104A8FBF74AF91DE077
:104F20005FA104A8FBF745F918E060A104A8FBF70E
:104F300040F913E060A104A8FBF73BF90EE061A182
:104F400004A8FBF736F909E061A104A8FBF731F9E1
:104F500004E04DA104A8FBF72CF900BF00BF04A991
:104F60005EA0FDF7D7FE4FF4FA721BA104A8FEF76E
:104F7000EDFB002802DA4FF0FF3052E74FF4FA72EF
:104F800015A12EA0FEF7E2FB4FF416400090002082
:104F9000ADF80400ADF80600ADF80800ADF80C005F
:104FA0000C20ADF80A0069465048FDF737FD012294
:104FB00040F225514D48FDF70CFD012031E700007E
:104FC0000D0A73657420626C7565746F6F74682068
:104FD0006D6F64650D0A00004F4B000041540D0ACF
:104FE000000000001430002041542B4E414D452557
:104FF000730D0A0073657420626C7565206E616DB7
:105000006520636D64203A257300000041542B4EE7
:10501000414D450D0A00000041542B50494E257367
:105020000D0A000073657420626C756520706173F1
:105030007320636D64203A257300000041542B50A7
:10504000494E0D0A000000001823060041542B426F
:10505000415544310D0A000041542B424155443220
:105060000D0A000041542B42415544330D0A000003
:1050700041542B42415544340D0A000041542B4207
:10508000415544350D0A000041542B4241554436E8
:105090000D0A000041542B42415544370D0A0000CF
:1050A00041542B42415544380D0A000041542B42D3
:1050B000415544390D0A000041542B4241554441A9
:1050C0000D0A000041542B42415544420D0A000094
:1050D00041542B42415544430D0A000062617564FE
:1050E00020636D64203A257300000000004C0040EE
:1050F00010B5044604A0FDF70DFEC82208A108A0C3
:1051000000F0E2FA012010BD0D0A736574206F6291
:105110006420776F726B206D6F64650D0A0000006C
:105120000000000070B504460D46A4F12802B0232B
:1051300002A12846FDF7FEFD70BD0000256925632C
:105140002043000070B504460D46224602A12846C1
:10515000FDF7F0FD70BD00002569206B5061000077
:105160002DE9F05F06460F46FF2E00DD3612304671
:10517000FBF774FA83464FF08641FBF7DDF8824671
:105180000C49FBF7DFF881464FF08641FBF710F939
:105190008046FBF796FA04460D46802E01D106A004
:1051A00000E007A0014622462B463846FDF7C2FD27
:1051B000BDE8F09F0000C842302E302525000000D9
:1051C000252B2E316625250010B5FFF7EFFD0220B7
:1051D000134908604FF4FA60FEF76EFC00F0CEFD54
:1051E000104A114911A0FDF795FD4FF4947218492A
:1051F0000D48FEF711FE164800F096FF4FF494722A
:1052000013490848FEF708FE114800F08DFF00F032
:1052100021F800F0C3FAFEF7C9FB002010BD000022
:105220001400002000F4000800F000080D0A5245A8
:1052300041442053595354454D20434F4E4649470E
:10524000203A2531305820253130580D0A00000011
:10525000442F002070B50025012208215D48FCF78D
:10526000BFFA012210215B48FCF7BAFA0122202183
:105270005848FCF7B5FA40F6B830FEF71DFC564822
:10528000D0F80200401C08D05348D0F80204401C5B
:1052900003D052A0FDF73EFD70BD012055490860C6
:1052A00055A0FDF737FD5BA0FDF734FD01216148F6
:1052B000FDF7F7F901F072F900BF00F0E1FB0028FB
:1052C000FBD04FF4FA725CA15CA0FCF7A1FE4FF496
:1052D000FA7259A159A0FCF79BFE00F06BFC00216B
:1052E0005748FCF7B6FF00215648FDF7DAF90121CF
:1052F0005048FDF7D6F900F0A1FB6AE04FF4967133
:105300005148FAF74AFF00205049086000240BE09A
:105310002A214848FDF7F3FB00BF40214548FDF72F
:1053200021FB0028F9D0641C042CF1DB7C214148CE
:10533000FDF7E5FB00BF40213E48FDF713FB0028C9
:10534000F9D000240CE04248015D3A48FDF7D7FB54
:1053500000BF40213748FDF705FB0028F9D0641C49
:105360000F2CF0DB7C213348FDF7C9FB00BF402147
:105370003048FDF7F7FA0028F9D031212D48FDF724
:10538000BEFB00BF40212B48FDF7ECFA0028F9D006
:1053900031212848FDF7B3FB00BF40212548FDF728
:1053A000E1FA0028F9D023212248FDF7A8FB00BF2D
:1053B00040212048FDF7D6FA0028F9D04FF47A7042
:1053C000FEF77AFB012000F07BFD4FF4FA60FEF758
:1053D00073FB93E7000C014000F000080D0A6465C0
:1053E000766963652073746172742E2E2E2E2E2EB4
:1053F0002E0D0A00140000200D0A6D6173735072A7
:105400006F64756374696F6E2E2E2E2E2E2E2E0DE8
:105410000A0000000D0A64657669636520696E699B
:10542000742E2E2E2E2E2E2E2E2E2E2E2E2E2E2E56
:105430000D0A0000003801404F4B000041540D00A0
:10544000000400400044004098210020000000209B
:105450008437002070B504460D46224602A1284636
:10546000FDF768FC70BD00002569206B6D00000031
:105470002DE9F04104460D463C2094FBF0F100FB81
:10548000114694FBF0F733463A4603A12846FDF750
:1054900051FCBDE8F0810000256920687273202569
:1054A00069206D696E0000002DE9FF5F8046894626
:1054B00008F0FF00FF2810D14FEA2820FBF7D7F8AB
:1054C00006461F4A1F4BFBF758F8044602460B4698
:1054D0001DA14846FDF72EFC30E008F0FF00FBF769
:1054E000BDF883464FF08641FAF726FF82461849F9
:1054F000FAF728FF05464FF08641FAF759FF0446B0
:10550000FBF7DFF806460F464FEA2820FBF7AFF817
:1055100004460B4A0B4BFBF730F8CDE90067CDE9A9
:10552000020108F0FF00802801D10AA000E011A0CC
:1055300001464846DDE90223FDF7FCFBBDE8FF9F7D
:105540007B14AE47E17A743F252E33662056000067
:105550000000C842252E33662056204020302E30D1
:10556000252520732E742E206675656C2074726953
:105570006D000000252E33662056204020252B2E5E
:105580003166252520732E742E206675656C207477
:1055900072696D002DE9FE4F804689464FEA28402A
:1055A000FBF75CF88346FBF78CF80646174A184B66
:1055B000FAF7E3FF0446FBF79AF882461FFA88F0F1
:1055C000FBF74CF84FF08E410190FAF7B5FE834699
:1055D000FBF777F8044600220E4BFAF7CEFF06469B
:1055E000FBF785F802905046FBF76BF806460F462E
:1055F0000298FBF766F8044602460B4606A14846A9
:10560000CDE90067FDF796FBBDE8FE8FD5CC5A0AC1
:1056100048FBFF3E0000703F252E3366206D412C75
:105620002045712E20726174696F3A20252E3366F1
:10563000000000002DE9FC5F804689464FEA2840C3
:10564000FBF70CF80190FBF73CF80646154A164BA1
:10565000FAF793FF0446FBF74AF882461FFA88F0F0
:10566000FAF7FCFF0190FBF72CF804460D4A0F4BAC
:10567000FAF783FF0646FBF73AF883465046FBF7F6
:1056800020F806460F465846FBF71BF8044602462C
:105690000B4607A14846CDE90067FDF74BFBBDE887
:1056A000FC9F0000D5CC5A0A48FBFF3E48FB1F3F39
:1056B000252E336620562C2045712E207261746988
:1056C0006F3A20252E3366002DE9F04104460F463F
:1056D000164600254FF496711148FAF75EFD00BF9B
:1056E0000BE0615D0F48FDF70AFA00BF40210D484D
:1056F000FDF738F90028F9D06D1C605D0028F0D165
:10570000094908603046FEF7D7F939460448FAF7E8
:105710005EFD10B10120BDE8F0810020FBE7000034
:10572000C02B0020004800400C00002010B50446AB
:105730004FF47A70FEF7C0F903200C49086054B9A1
:105740000BA0FDF7E7FA00224FF480510D48FCF75B
:1057500047F8012010BD0CA0FDF7DCFA012211036F
:105760000848FCF73DF80120F4E700001400002091
:105770000D0A4F424420706F776572206F66660D88
:105780000A000000000C01400D0A4F424420706FD7
:10579000776572206F6E0D0A0000000008B50024C6
:1057A00041208DF8000054208DF8010004208DF870
:1057B0000200694626A0FDF7ADFA032027490860DC
:1057C00000F03CF926A0FDF7A5FA00224FF4805125
:1057D0002D48FCF705F84FF47A70FEF76DF90120BB
:1057E000FFF7A4FF4FF47A70FEF766F92FE027A0C9
:1057F000FDF790FA4FF4FA7225A16846FFF764FFAF
:1058000022A0FDF787FA4FF4FA7221A16846FFF74C
:105810005BFF1EA0FDF77EFA4FF4FA721CA16846EA
:10582000FFF752FF19A0FDF775FA4FF4FA7218A1AD
:105830006846FFF749FF002407E02046FEF75CFAC0
:105840004FF4FA70FEF738F9641C362CF5DBCEE71E
:105850000D0A636D64203A25730D0A0014000020C0
:105860000D0A4F424420746573742B2B2B2B2B2B6A
:105870002B2B2B2B2B2B2B2B2B2B2B2B2B2B2B2B78
:105880002B2B2B2B2B0D0A00000C01400D0A0000C6
:105890004F4B000070B504460D460E2C49D2DFE890
:1058A00004F048070C11161B20252A2F34393E43DB
:1058B00024A12846FDF73EFA41E028A12846FDF73D
:1058C00039FA3CE02AA12846FDF734FA37E02CA14A
:1058D0002846FDF72FFA32E02BA12846FDF72AFAD9
:1058E0002DE02EA12846FDF725FA28E02FA1284615
:1058F000FDF720FA23E031A12846FDF71BFA1EE050
:1059000032A12846FDF716FA19E036A12846FDF720
:1059100011FA14E037A12846FDF70CFA0FE039A17F
:105920002846FDF707FA0AE03AA12846FDF702FAF1
:1059300005E022463DA12846FDF7FCF900BF00BF67
:1059400070BD00004F42442D4949202843616C69D5
:10595000666F726E69612041524229004F424420B5
:10596000284665646572616C20455041290000003D
:105970004F424420616E64204F42442D494900004B
:105980004F42442D490000004E6F74204F42442086
:10599000636F6D706C69616E74000000454F424426
:1059A00020284575726F706529000000454F4244FC
:1059B00020616E64204F42442D494900454F4244C6
:1059C00020616E64204F424400000000454F424475
:1059D0002C204F424420616E64204F42442D49499F
:1059E000000000004A4F424420284A6170616E293D
:1059F000000000004A4F424420616E64204F424440
:105A00002D4949004A4F424420616E6420454F426F
:105A1000440000004A4F42442C20454F42442C2071
:105A2000616E64204F42442D49490000556E6B6EF3
:105A30006F776E3A20307825303258001FB54FF41A
:105A40007A3000900020ADF80400ADF80600ADF803
:105A50000800ADF80C000C20ADF80A0069460748B4
:105A6000FCF7DCFF012240F225510448FCF7B1FFAE
:105A700001210248FCF715FE1FBD0000003801405F
:105A800010B51D491DA0FDF745F94FF4FA721EA18E
:105A90001EA0FCF7BDFA60BB1DA0FDF73BF94FF45B
:105AA000FA60FEF709F84FF4FA7217A117A0FCF795
:105AB000AFFAC8B91BA0FDF72DF900F06FFD4FF448
:105AC000FA60FDF7F9FF4FF4FA720FA10FA0FCF78F
:105AD0009FFA20B118A0FDF71DF9012010BD1EA0EE
