:020000040800F2
:10000000C028002045010008D91200083D12000850
:10001000AD120008B1040008CD280008000000005F
:10002000000000000000000000000000E11C0008CB
:100030005901000800000000451500083D1E000899
:100040005F0100085F0100085F010008391B00081C
:100050005F0100085F010008E50800081D090008AD
:100060005F010008450900085F0100085F01000802
:100070005F0100085F0100085F0100085F010008E0
:100080005F0100085F0100085F0100085F010008D0
:10009000DD2700085F0100085F0100087D090008F6
:1000A0005F0100085F0100085F0100085F010008B0
:1000B000A11E0008C91E00085F0100085F010008BA
:1000C0005F0100085F0100085F0100085F01000890
:1000D0005F0100089121000825220008C9220008BC
:1000E0005F010008A91800085F0100085F0100080F
:1000F0005F0100085F0100085F0100085F01000860
:100100005F0100085F0100085F0100085F0100084F
:1001100049200008292100085F0100085F0100084C
:100120005F0100085F0100085F0100085F0100082F
:10013000DFF80CD000F034F900480047FD52000809
:10014000C02800200648804706480047FEE7FEE733
:10015000FEE7FEE7FEE7FEE7FEE7FEE7FEE7FEE777
:10016000411E00083101000840EA01039B0703D04B
:1001700009E008C9121F08C0042AFAD203E011F8E6
:10018000013B00F8013B521EF9D27047D2B201E0A8
:1001900000F8012B491EFBD270470022F6E710B58C
:1001A00004460846114602462046FFF7EFFF204668
:1001B00010BD034600E0401C0278002AFBD111F874
:1001C000012B00F8012B002AF9D11846704730B5F1
:1001D0000EE003460A4601E05B1C521C1C781578B1
:1001E000AC4201D1002CF7D115F0FF0F04D0401C18
:1001F0000278002AEDD1002030BD0146002000E049
:10020000401C0A5C002AFBD170472DE9F0470F46DD
:10021000914680460446002614F8015B2DB100F09B
:100220006DF80068405DC007F6D12B2D02D02D2D52
:1002300018D0641E4A463946204600F063F827B1BC
:100240003968A14201D1C7F8008071054FF002045E
:100250000BD54042002803DD02F072FB0460A007CA
:10026000BDE8F08746F48066E4E70028F8DA02F09B
:1002700067FB04606FF00040F2E770B5064602F0DD
:100280005FFB046805460A2200213046FFF7BDFFE8
:100290002C6070BD2DE9F05F0546002092469B461C
:1002A00088460646814640241DE02846414647468A
:1002B000224600F096F8B0EB0A0052465B4671EB1E
:1002C0000B0110D310461946224600F07BF82D1A78
:1002D00067EB01084F4622460120002100F072F82A
:1002E00017EB00094E41201EA4F10104DDDC484655
:1002F00031462A464346BDE8F09F0000004870475B
:10030000E46B00082DE9F05F824604460078002780
:10031000641C8B461546B946302801D09DB113E0C8
:1003200014F8010B0127782803D0582801D045B1D3
:100330000AE00DB1102D07D10027102514F8010B8C
:1003400002E0082500E00A250026B0460EE005FB85
:10035000080005FB06F1012701EB10461FFA80F8A3
:10036000B6F5803F00D3B94614F8010B294600F0DA
:1003700048F80028EBDABBF1000F04D0641E07B97F
:100380005446CBF80040B9F1000F06D002F0D8FA7D
:1003900002210160C81EBDE8F09F48EA0640FAE766
:1003A000064C074D06E0E06840F0010394E80700C2
:1003B00098471034AC42F6D3FFF7BEFEE86B000856
:1003C000086C0008202A04DB203A00FA02F1002021
:1003D00070479140C2F1200320FA03F31943904083
:1003E0007047202A04DB203A21FA02F000217047EE
:1003F00021FA02F3D040C2F120029140084319468D
:1004000070473A2800D2303820F02002412A01D328
:10041000A2F137004FF0FF32884200D20246104668
:10042000704770B501EB020410F8015B15F007038B
:1004300001D110F8013B2A1106D110F8012B03E07D
:1004400010F8016B01F8016B5B1EF9D12B0705D485
:100450000023521E0FD401F8013BFAE710F8013BCC
:1004600002F10202A1EB030303E013F8015B01F8C0
:10047000015B521EF9D5A142D6D3002070BD10B544
:10048000012001F095F8002001F092F810BD000065
:1004900001460022014A0A4410887047006C00405F
:1004A0000022024A0244116070470000006C0040C4
:1004B0000AE006A002F020FA72B671B64FF4FA60B4
:1004C00003F0B8FB01F022F8F3E700000D0A4552F3
:1004D000524F525F4255530D0A000000B1F5007FA4
:1004E0003AD00FDC202928D006DC01291CD00429B1
:1004F0001DD0082940D11DE0402921D0B1F5807FD1
:100500003AD126E0B1F5004F31D006DCB1F5806F6D
:1005100025D0B1F5006F2FD124E0B1F5803F12D086
:10052000B1F5003F28D111E0154A826025E008228C
:10053000C26022E01022C2601FE0082202611CE0BB
:100540001022026119E00822426016E01022426087
:1005500013E00422426010E0042242600DE0042215
:1005600042600AE0002282610422426005E000222B
:1005700082610422426000E000BF00BF70470000BB
:100580000101010021B9C26842F02002C26003E00B
:10059000026942F0200202617047000070B5044613
:1005A0000D4600266069284271D0B5F5807F5CD089
:1005B00010DC082D35D006DC012D20D0022D24D0F2
:1005C000042D77D127E0102D31D0202D35D0402DAE
:1005D00070D138E0B5F5004F60D009DCB5F5007F8B
:1005E00049D0B5F5806F4CD0B5F5006F62D14FE0C2
:1005F000B5F5803F2DD0B5F5003F5BD12FE0A06869
:100600002F4900F067F9064656E0E068032100F044
:1006100061F9064650E0E068082100F05BF9064603
:100620004AE0E068102100F055F9064644E02069F0
:10063000032100F04FF906463EE02069082100F052
:1006400049F9064638E02069102100F043F90646D2
:1006500032E06068082100F03DF906462CE0606851
:10066000102100F037F9064626E0A069012100F0CC
:1006700031F9064620E0A069022100F02BF9064678
:100680001AE0A069042100F025F9064614E014E000
:10069000A069702100F01EF906460DE0A0697721DF
:1006A00000F018F906466068042100F013F90643CB
:1006B00002E0FFE7002600BF00E00026304670BDE4
:1006C0000101010030B504460D46134604F5D8700B
:1006D00000EB0510006800F004001872187A50B999
:1006E00004F5D87000EB0510006840F2FF7101EAD4
:1006F0005050186009E004F5D87000EB0510006850
:100700006FF0604101EAD000586004F5D87000EB4A
:100710000510006800F00200587204F5D87000EB74
:100720000510406800F00F00987204F5D87000EBD7
:1007300005104068000AD87404F5D87000EB051065
:100740008068D87204F5D87000EB05108068000A44
:10075000187304F5D87000EB05108068000C58730E
:1007600004F5D87000EB05108068000E987304F54E
:10077000D87000EB0510C068D87304F5D87000EB92
:100780000510C068000A187404F5D87000EB051055
:10079000C068000C587404F5D87000EB0510C068F0
:1007A000000E987429462046FFF7ECFE30BD10B5C8
:1007B00002460020936803F08063B3F1806F00D19C
:1007C00010E0936803F00063B3F1006F01D10120E2
:1007D00008E0936803F08053B3F1805F01D10220F9
:1007E00000E00420042874D002F5C07303EB00136A
:1007F0001B6803F0010402F5C07303EB00131C60D7
:100800000B7A7BB94B7A0C6843EA445302F5C07407
:1008100004EB00142468234302F5C07404EB0014B5
:10082000236010E00B7A4C6843EAC4034C7A2343FC
:1008300002F5C07404EB00142468234302F5C0746D
:1008400004EB001423608B7A03F00F038B7202F524
:10085000C07303EB00135B6823F00F0402F5C07351
:1008600003EB00135C6002F5C07303EB00135B68DD
:100870008C7A234302F5C07404EB001463608B7B15
:100880001C064B7B44EA03440B7B44EA0323CC7AEB
:10089000234302F5C07404EB0014A3608B7C1C0698
:1008A0004B7C44EA03440B7C44EA0323CC7B234384
:1008B00002F5C07404EB0014E36002F5C07303EBAF
:1008C00000131B6843F0010402F5C07303EB00132F
:1008D0001C6010BD024600200A4201D0012000E049
:1008E0000020704710B5C82003F0A4F9012000F0E3
:1008F000B1F840B1012000F053F803A001F0FCFF73
:1009000001200549086010BD0D0ABDF8C8EBD6D01E
:10091000B6CF300D0A0000003000002010B50220D4
:1009200000F098F828B1022000F03AF801A001F098
:10093000E3FF10BD0D0ABDF8C8EBD6D0B6CF310D20
:100940000A00000010B5082000F084F828B1082043
:1009500000F026F801A001F0CFFF10BD0D0ABDF890
:10096000C8EBC0B6D1C0D7B4CCACB1E4BBAFD6D025
:10097000B6CFA3A1A3A1A3A10D0A000010B54FF407
:10098000807000F067F840B14FF4807000F008F814
:1009900002480068401C0149086010BD3800002072
:1009A0000149086070470000140401401CB54FF471
:1009B0000030FFF7F5FF4FF40030009000208DF875
:1009C000040008208DF8050001208DF80600684617
:1009D00000F056F80021084600F038FB0120FFF730
:1009E000DFFF0120009000208DF804000C208DF81E
:1009F000050001208DF80600684600F041F801214D
:100A0000002000F023FB0220FFF7CAFF0220009025
:100A100000208DF804000C208DF8050001208DF8D1
:100A20000600684600F02CF80321042000F00EFBBD
:100A30000820FFF7B5FF0820009000208DF8040083
:100A400010208DF8050001208DF80600684600F0A2
:100A500017F81CBD014600200022074B1B6803EA63
:100A60000102064BD3F814340B4202D00AB1012024
:100A700000E0002070470000000401400000014039
:100A8000002127498279002A43D0264AD2F800243F
:100A900003689A43234BC3F800241A46D2F804246F
:100AA00003689A4301F104031A60027911440A6849
:100AB000036842EA03020A601A4AD2F8082403686B
:100AC00022EA0302174BC3F808241A46D2F80C2472
:100AD000036822EA0302144B1A604279102A10D1EB
:100AE000104AD2F8082403681A430E4BC3F80824AE
:100AF0001A46D2F80C2403681A430A4BC3F80C2494
:100B00000DE00749427911440A6803681A430A60F4
:100B100005E0027911440A6803689A430A60704745
:100B200000040140000001400C04014030B50446BF
:100B300004254FF4302000F09DF80546042D17D110
:100B40000C48006940F002000A4908610846446107
:100B5000006940F0400008614FF4302000F08AF84E
:100B600005460448006941F6FD71084001490861E5
:100B7000284630BD0020024004200C49C96801F01D
:100B80000101012901D101200EE00849C96811F0D5
:100B9000040F01D0022007E00449C96811F0100FCA
:100BA00001D0032000E00420704700000020024034
:100BB0000348006940F08000014908617047000067
:100BC000002002400549096821F01001034A116024
:100BD000114609680143116070470000002002407F
:100BE000F0B504460D4604260027F00200F042F856
:100BF0000646042E22D11248006940F00100104937
:100C000008612580F00200F035F80646042E0ED16A
:100C1000A71C280C3880F00200F02CF80646084883
:100C2000006941F6FE7108400549086106E0044884
:100C3000006941F6FE710840014908613046F0BD87
:100C40000020024001460020034A106800F03800EE
:100C5000084310607047000000200240024803492A
:100C60004860034848607047230167450020024000
:100C7000AB89EFCD00B502460423FFF77DFF0346A5
:100C800003E0FFF779FF0346521E012B01D1002A32
:100C9000F7D102B90523184600BD000008B50121AF
:100CA00044F27D0000F074FC0121E44800F060FC97
:100CB0004FF6FF70ADF8000000208DF80300032010
:100CC0008DF802004FF40070ADF8000018208DF888
:100CD000030003208DF802006946D94800F0D6F9D8
:100CE0004FF48060ADF8000004208DF803006946E1
:100CF000D34800F0CBF90420ADF8000018208DF89F
:100D0000030003208DF802006946CD4800F0BEF9CB
:100D10000820ADF8000004208DF803006946C8489B
:100D200000F0B4F94FF40060ADF8000004208DF835
:100D300003006946C34800F0A9F94FF48060ADF89C
:100D4000000018208DF8030003208DF8020069468A
:100D5000BD4800F09BF94FF40060ADF8000004209E
:100D60008DF8030003208DF802006946B64800F0B4
:100D70008DF94FF48060ADF8000018208DF8030065
:100D800003208DF802006946AE4800F07FF94FF469
:100D90000060ADF8000004208DF8030003208DF8FA
:100DA00002006946A74800F071F903208DF802009F
:100DB0004FF40060ADF8000048208DF8030069464C
:100DC0009F4800F063F94FF48050ADF80000182000
:100DD0008DF8030069469A4800F058F90820ADF8EC
:100DE000000010208DF8030003208DF802006946F2
:100DF000944800F04BF900220821924800F018FABC
:100E00001020ADF800008DF8030003208DF80200DB
:100E100069468C4800F03AF900221021894800F018
:100E200007FA2020ADF8000010208DF80300032001
:100E30008DF802006946834800F028F9002220213D
:100E4000804800F0F5F90120ADF8000004208DF88D
:100E5000030003208DF802006946794800F016F976
:100E60000120ADF8000048208DF8030003208DF824
:100E700002006946744800F009F94FF40050ADF8DB
:100E8000000010208DF8030003208DF80200694651
:100E90006C4800F0FBF800224FF40051694800F064
:100EA000C7F94020ADF8000010208DF803000320A2
:100EB0008DF802006946624800F0E8F800224021FF
:100EC0005F4800F0B5F90820ADF8000010208DF85B
:100ED000030003208DF8020069465B4800F0D6F855
:100EE00000220821584800F0A3F94FF48050ADF8D3
:100EF000000010208DF8030003208DF802006946E1
:100F0000504800F0C3F800224FF480514D4800F0E3
:100F10008FF94FF40040ADF8000010208DF8030069
:100F200003208DF802006946464800F0AFF8012220
:100F3000D103444800F07CF94FF48040ADF8000044
:100F400010208DF8030003208DF8020069463D480B
:100F500000F09CF8012291033A4800F069F9022060
:100F6000ADF8000010208DF8030003208DF802007A
:100F70006946334800F08AF800220221304800F028
:100F800057F98020ADF8000048208DF803000320B9
:100F90008DF8020069462B4800F078F84020ADF843
:100FA000000010208DF8030003208DF80200694630
:100FB000244800F06BF800224021224800F038F964
:100FC0004FF48070ADF8000010208DF8030003206E
:100FD0008DF8020069461B4800F058F800224FF4D3
:100FE0008071184800F024F94FF40070ADF800004B
:100FF00010208DF8030003208DF802006946114887
:1010000000F044F800224FF400710E4800F010F98F
:101010004FF40050ADF8000010208DF803000320BD
:101020008DF802006946084800F030F800224FF4BD
:101030000051054800F0FCF808BD000002001E1A2F
:1010400000080140000C01400010014030B50022B2
:101050008B071C0F0F2303FA04F20B4B8C1053F871
:1010600024309343084C8D1044F8253023468C10CF
:1010700053F824308C07240F00FA04F42343024C65
:101080008D1044F8253030BD080001402DE9F041B5
:10109000024600250026002000230024002791F8A6
:1010A00003C00CF00F0591F803C01CF0100F03D023
:1010B00091F802C04CEA0505B1F800C01CF0FF0F22
:1010C00031D0146800202BE04FF0010C0CFA00F333
:1010D000B1F800C00CEA03069E4220D183004FF015
:1010E0000F0C0CFA03F7BC4305FA03FC4CEA0404AA
:1010F00091F803C0BCF1280F06D14FF0010C0CFA97
:1011000000FCC2F814C00AE091F803C0BCF1480F1B
:1011100005D14FF0010C0CFA00FCC2F810C0401CC5
:101120000828D1D31460B1F800C0BCF1FF0F34DD42
:10113000546800202EE000F1080C4FF0010808FA76
:101140000CF3B1F800C00CEA03069E4221D18300E3
:101150004FF00F0C0CFA03F7BC4305FA03FC4CEA02
:10116000040491F803C0BCF1280F05D100F1080C6C
:1011700008FA0CF8C2F8148091F803C0BCF1480FCB
:1011800007D100F1080C4FF0010808FA0CF8C2F87A
:101190001080401C0828CED35460BDE8F0810000C8
:1011A000F0B50A46002300240021002500F0004687
:1011B000B6F1004F02D11D4EF16901E01B4E71687E
:1011C000C0F3034583B200F44016B6F5401F08D1C2
:1011D00021F07061154E766826F07066134F7E60C0
:1011E00012E000F48016B6F5801F06D1032606FA39
:1011F00005F4A14341F0706106E0460D360103FAA3
:1012000006F6B14341F0706122B1460D360103FA92
:1012100006F6314300F00046B6F1004F02D1034E0E
:10122000F16101E0014E7160F0BD0000000001407D
:101230000AB1016100E04161704700000AE006A0C8
:1012400001F05AFB72B671B64FF4FA6002F0F2FC8C
:1012500000F05CF9F3E700000D0A4552524F525F6F
:10126000484152445F4641554C540D0A000000006D
:101270000146CA1701EB92729210B1EB820212D1B1
:10128000642091FBF0F200FB121050B94FF4C870CB
:1012900091FBF0F200FB121008B90120704700200A
:1012A000FCE70120FAE70020F8E700000AE006A0CA
:1012B00001F022FB72B671B64FF4FA6002F0BAFC8C
:1012C00000F024F9F3E700000D0A4552524F525F37
:1012D0004D454D0D0A00000005A001F00DFB72B652
:1012E00071B64FF4FA6002F0A5FC00F00FF90000AF
:1012F0000D0A4552524F525F4E4D490D0A000000F3
:1013000008B54FF4E06000F0F7F825208DF80000F4
:1013100002208DF8010000208DF8020001208DF8D8
:101320000300684600F0A6F84FF4E06000F0E4F82F
:1013300026208DF8000000208DF801008DF80200B5
:1013400001208DF80300684600F094F84FF4E06047
:1013500000F0D2F827208DF8000001208DF8010060
:1013600000208DF8020001208DF80300684600F08F
:1013700081F84FF4E06000F0BFF834208DF80000F1
:1013800001208DF8010000208DF8020001208DF869
:101390000300684600F06EF84FF4E06000F0ACF82F
:1013A00035208DF8000001208DF8010000208DF817
:1013B000020001208DF80300684600F05BF84FF44E
:1013C000C06000F099F829208DF8000000208DF809
:1013D00001008DF8020001208DF80300684600F03E
:1013E00049F84FF4C06000F087F806208DF800003F
:1013F00000208DF801008DF8020001208DF8030017
:10140000684600F037F84FF4C06000F075F8072028
:101410008DF8000000208DF801008DF802000120F9
:101420008DF80300684600F025F84FF4C06000F026
:1014300063F809208DF8000000208DF801008DF878
:10144000020001208DF80300684600F013F84FF405
:10145000A06000F051F81D208DF8000000208DF8EC
:1014600001008DF8020001208DF80300684600F0AD
:1014700001F808BD70B5002100230F22C4784CB3D9
:101480001A4C246804F4E064C4F5E0644FEA1421C3
:10149000C1F1040322FA01F2447804FA03F18478DA
:1014A00004EA020444EA01014FEA0111104C0678F3
:1014B000A155047804F01F054FF0010404FA05F467
:1014C00005784FEA65154FF0E02606EB8505C5F86F
:1014D000004109E0047804F01F050124AC40054DEB
:1014E0000678761145F8264070BD00000CED00E04E
:1014F00000E400E080E100E002490143024A11609B
:10150000704700000000FA050CED00E00848006894
:1015100000F4E060074940EA010000F104004FF0E8
:10152000E021C1F80C0DBFF3408F00BFFEE70000C3
:101530000CED00E00000FA05014908627047000068
:1015400000000E4205A001F0D7F972B671B64FF453
:10155000FA6002F06FFBFFF7D9FF00000D0A455259
:10156000524F525F50454E4453560D0A0000000042
:1015700029B1064AD2690243044BDA6104E0034A06
:10158000D2698243014BDA617047000000100240CB
:1015900029B1064A92690243044B9A6104E0034A66
:1015A00092698243014B9A6170470000001002402B
:1015B0000149086070470000400442420348406A05
:1015C00040F08070014948627047000000100240FE
:1015D00010B500F03BF8012000F0FAF800BF212020
:1015E00000F0C4F80028FAD01020FFF7EBFA022030
:1015F000FFF728FB002000F0DFF8002000F01AF9C8
:10160000002000F00BF94FF46011002000F024F9E5
:10161000012000F01BF900BF392000F0A7F80028D6
:10162000FAD0022000F034F900BF00F0BDF808281D
:10163000FBD1012144F27D00FFF7AAFF01210248FE
:10164000FFF796FF10BD000002001E1A0F48006849
:1016500040F001000D490860084640680C49084008
:101660000A494860084600680A4908400749086076
:101670000846006820F4802008600846406820F48E
:10168000FE0048604FF41F00886070470010024061
:101690000000FFF8FFFFF6FE30B500210022002415
:1016A00000232D4D6D6805F00C0121B1042905D0F2
:1016B000082923D105E0294D056022E0274D05606A
:1016C0001FE0254D6D6805F47012234D6D6805F41B
:1016D0008034022505EB92421CB9214D554305602B
:1016E0000BE01D4D6D6815F4003F03D01C4D5543B4
:1016F000056002E0194D5543056002E0174D056095
:1017000000BF00BF144D6D6805F0F0010909154DCB
:101710006B5C0568DD4045600F4D6D6805F4E06168
:10172000090A104D6B5C4568DD4085600A4D6D68A7
:1017300005F46051C90A0B4D6B5C4568DD40C5601E
:10174000054D6D6805F44041890B074D6B5CC5681C
:10175000B5FBF3F5056130BD0010024000127A00C0
:1017600000093D00420000205200002010B5014653
:101770000022002300204A11012A02D1094C2368CB
:1017800006E0022A02D1074C236A01E0054C636A95
:1017900001F01F02012494401C4201D0012000E00E
:1017A000002010BD001002400248406800F00C000C
:1017B000704700000010024001460020034A5068B4
:1017C00020F0F00008435060704700000010024015
:1017D00001490860704700000000424200210A4AA7
:1017E00011700A4A82F82010012802D0042808D17A
:1017F00003E00121044A117004E00521024A11703E
:1018000000E000BF00BF70472010024000100240FF
:1018100001490860704700008004424201460020F0
:10182000034A506820F4E0600843506070470000AD
:101830000010024001460020034A506820F4605026
:1018400040EAC1005060704700100240014908663C
:10185000704700000000424202460020044B5868D6
:1018600020F47C1042EA01031843014B5860704792
:101870000010024001490860704700003C044242E9
:101880000249096A0143014A11627047001002408F
:1018900001460020034A506820F0030008435060CE
:1018A000704700000010024010B5022000F0F2F86E
:1018B00050B14FF40030FFF773F800F0F3F9022055
:1018C00000F004F800F0EEF910BD000005490988A9
:1018D0006FEA000292B201EA0201034AA2F8041878
:1018E00070470000042800400020004010B501208F
:1018F000FFF722FEFEF7C3FD0120FFF789FF4FF43B
:101900000070FFF7BDFF0120FFF7B4FF00F0D4F92E
:1019100049F6404000F0B4F900F0C4F9012108464E
:1019200000F024F900F0BEF910BD00000348008863
:1019300040F010000249A1F8040870470428004054
:1019400000200040044800884FF6EF7100EA0100D3
:101950000249A1F804087047042800400020004014
:1019600070B500260024002500F086F806463E48A3
:10197000B6FBF0F43D48B0F90000A04240D020B2E0
:101980003A49088040F2B27510E02846FFF770FC33
:1019900040B1B4F5B77F02D9A4F5B77404E0681C70
:1019A00005B206E0A4F26D14681C05B2B4F5B67F6A
:1019B000EBD800BF2E484580002517E02C49B1F92F
:1019C0000200FFF755FC30B1012D04D11D2C01D9C7
:1019D0001D3C09E00CE027484057A04203D82548A9
:1019E0004057241A00E003E0681C05B21C2CE5D225
:1019F00000BF681C40B21E490871601C40B24871AB
:101A00001948B6FBF0F100FB11644FF46160B4FBC0
:101A1000F0F040B2164988714FF46160B4FBF0F108
:101A200000FB11403C21B0FBF1F040B21049C871FD
:101A30004FF46160B4FBF0F100FB11403C21B0FBBE
:101A4000F1F201FB120040B2094908720B4693F90A
:101A5000052093F90410B3F9020000F031F80449AD
:101A60000870002070BD0000805101007801002046
:101A7000B0240020546B0008002104480188044869
:101A8000B0F8180841EA0040704700001C280040E8
:101A90000020004001460020074A128802EA0102A5
:101AA000D0B2064AB2F800280A4202D008B101209A
:101AB00000E00020704700000428004000200040A3
:101AC000F0B503460C461546642093FBF0F046B291
:101AD000642093FBF0F700FB173041B2132E02DDB8
:101AE00001F1640041B20846CF1701EB977701EB93
:101AF000A702072092FBF0F700FB172002B257194C
:101B0000601EDFF830C01CF90000384402B2CF1765
:101B100001EB9777BF10B1EB870703D1032C01DAF4
:101B2000501E02B2072092FBF0F700FB172040B2D4
:101B3000F0BD0000486B000810B50120FFF7AAFFB8
:101B400080B10120FFF7C2FE04F0DCF900F0AAF832
:101B5000FFF792FF0449884204D1002000F07EF88C
:101B600000F0A0F810BD00008051010039B1094A11
:101B7000128842EA0002084BA3F8002809E0054A4F
:101B800012886FEA00039BB202EA0302024BA3F839
:101B90000028704700280040002000402DE9F05F39
:101BA00006460F4690469946DDE90AAB0024B6F595
:101BB000FA6F03DB40F63300864202DD0120BDE808
:101BC000F09F40F2B2750AE02846FFF751FB10B1D2
:101BD0001E48044401E01E480444681C05B2B54296
:101BE000F2DB781E47B2002510E01A48405740F259
:101BF000A321484304EBC0143046FFF739FB18B16A
:101C0000012D01D114480444681C05B2BD42ECDB2F
:101C1000A8F1010040F2A321484304EBC014C9EB32
:101C20004910C0EB092004EB0014CAEB0A1004EBC6
:101C300080045C440120FFF77FFC00F033F820466D
:101C400000F00CF800F02EF80020B8E70085E20163
:101C50008033E101546B00088051010000B5024659
:101C6000FFF764FE100C044908800449A1F81C2801
:101C7000FFF768FE00BD000018280040002000406B
:101C800000B50246FFF752FEC2F303400349088045
:101C90000349A1F80C28FFF755FE00BD08280040B5
:101CA0000020004000BF0348008810F0200FFAD049
:101CB0007047000004280040074800884FF6F7717D
:101CC00000EA01000549A1F8040800BF02480088A5
:101CD00010F0080FFAD070470428004000200040A0
:101CE00005A000F009FE72B671B64FF4FA6001F07B
:101CF000A1FFFFF70BFC00000D0A4552524F525F47
:101D00005356430D0A0000002DE9F04104460F46EA
:101D100016464FF496711248FEF73FFA002011491B
:101D2000086000250BE0615D0F4800F052FD00BF28
:101D300040210D4800F080FC0028F9D06D1C605D4A
:101D40000028F0D1304601F075FF39460448FEF70F
:101D50003EFA10B10120BDE8F0810020FBE7000051
:101D600098060020040000200044004010B500F058
:101D700001F810BD002100202E4A126842F4803282
:101D80002C4B1A6000BF2B4A126802F40030491C29
:101D900010B9B1F5A06FF6D1264A126812F4003FCF
:101DA00001D0012000E00020012842D1224A12681F
:101DB00042F01002204B1A601A46126822F0030209
:101DC0001A601A46126842F002021A60194A5268F2
:101DD000184B5A601A4652685A601A46526842F4C2
:101DE00080625A601A46526822F47C125A601A467F
:101DF000526842F4E8125A601A46126842F0807241
:101E00001A6000BF0B4A126812F0007FFAD0094A2C
:101E1000526822F00302074B5A601A46526842F099
:101E200002025A6000BF034A526802F00C02082AFC
:101E3000F9D17047001002400020024070470000B6
:101E400010B51348006840F00100114908600846C9
:101E50004068104908400E494860084600680E492D
:101E600008400B4908600846006820F4802008609C
:101E70000846406820F4FE0048604FF41F00886068
:101E8000FFF774FF4FF000600449086010BD0000C8
:101E9000001002400000FFF8FFFFF6FE08ED00E032
:101EA00010B50121880700F05FF860B101218807B3
:101EB00000F024F800214FF0804000F022F80020CC
:101EC0004FF08041888410BD10B50121044800F016
:101ED0004BF818B10121024800F010F810BD0000C5
:101EE0000004004021B1028842F08002028004E038
:101EF00002884FF67F731A4002807047CA430282FD
:101F0000704721B1028842F00102028004E0028899
:101F10004FF6FE731A400280704700000EB542F281
:101F20001070ADF804004FF4E150ADF8000000204F
:101F3000ADF80600ADF8020069460A4800F032F834
:101F400001210848FFF7CEFF01210648FFF7D6FF21
:101F500001221146034800F018F801210148FFF75B
:101F6000D0FF0EBD0004004030B502460020002323
:101F70000024158A05EA0103958905EA010413B1D5
:101F80000CB1012000E0002030BD10B51AB18389EA
:101F90000B43838104E08389CC43A4B22340838133
:101FA00010BD0000002202881D4B98420ED01D4B30
:101FB00098420BD0B0F1804F08D01B4B984205D00F
:101FC0001A4B984202D01A4B984204D14FF68F73A5
:101FD0001A404B881A43174B984207D0164B984229
:101FE00004D04FF6FF431A40CB881A4302808B88F7
:101FF00083850B8803850A4B98420BD0094B984286
:1020000008D00E4B984205D00D4B984202D00D4B94
:10201000984201D10B7A0386012383827047000026
:10202000002C014000340140000400400008004042
:10203000000C00400010004000140040004001402F
:10204000004401400048014010B508212E4800F02E
:10205000F3FA30B108212C4800F084F92A4800F046
:10206000B3FB40F22551284800F0F3FA002845D090
:10207000254800F0A9FBC4B22146244800F0A9FB82
:1020800000BF4021214800F0D7FA0028F9D02048AD
:1020900001680068401C1E4A10601E48445400201D
:1020A0001C491D4A1268885419480068B0F5967F8B
:1020B00002D90020164908601848006804280AD18F
:1020C0002146174800F085FB00BF4021144800F06E
:1020D000B3FA0028F9D01348006878B121460A48BD
:1020E00000F077FB00BF4021074800F0A5FA002868
:1020F000F9D02021044800F035F910BD202108480E
:1021000000F030F900BFF8E7004C00400048004004
:102110000C000020D80C0020080000201400002033
:10212000003801401C00002010B50821154800F0BF
:1021300083FA30B10821134800F014F9114800F077
:1021400043FB40F225510F4800F083FAA8B10D4837
:1021500000F03AFBC4B2204602F0E6F80A480068F4
:1021600005280AD12146094800F033FB00BF402171
:10217000064800F061FA0028F9D02021014800F05B
:10218000F1F810BD0050004014000020003801405C
:1021900010B508211E4800F04FFA30B108211C4844
:1021A00000F0E0F81A4800F00FFB40F22551184803
:1021B00000F04FFA38B3164800F006FB15490870D6
:1021C00008460178144802680068401C124B1860E9
:1021D0001248815400211A4612688154184600683A
:1021E00040F21451884202D900201946086009487B
:1021F00001780B4800F0EDFA00BF4021084800F0DC
:102200001BFA0028F9D02021014800F0ABF810BDDE
:102210000038014040000020000000208401002020
:102220000048004010B50821214800F005FA30B1FF
:1022300008211F4800F096F81D4800F0C5FA40F24A
:1022400025511B4800F005FA80B3194800F0BCFA8C
:10225000184908701848006802280BD10846017810
:10226000164800F0B6FA00BF4021144800F0E4F927
:102270000028F9D00F480178114802680068401C16
:102280000F4B18600F48815400200E491A461268FF
:1022900088541846006840F21451884202D9002040
:1022A000194608602021024800F05CF810BD0000CB
:1022B000004400404100002014000020003801408C
:1022C000040000209806002010B501201F49086076
:1022D00008211F4800F0B0F930B108211C4800F077
:1022E00041F81B4800F070FA40F22551184800F000
:1022F000B0F948B3164800F067FAC4B21548006850
:1023000003280AD12146144800F063FA00BF402197
:10231000114800F091F90028F9D0104801680068D0
:10232000401C0E4A10600E4844540021126881542B
:102330000A480068B0F5967F02D900200749086076
:102340002021034800F00EF810BD000020000020FE
:102350000048004014000020003801400800002020
:10236000AC0B002001F40072B2F5007F00D100BF79
:10237000CA430280704721B1828942F400528281AF
:1023800004E082894DF6FF731A4082817047000095
:1023900000B585B0012144F20400FFF7F9F84FF4CD
:1023A0000070ADF8100018208DF8130003208DF890
:1023B000120004A99748FEF769FE4FF48060ADF85B
:1023C000100004208DF8130003208DF8120004A9DA
:1023D0009048FEF75BFE4FF4613000900020ADF8AE
:1023E0000400ADF80600ADF80800ADF80C000C20B4
:1023F000ADF80A006946884800F07AF9012240F2F7
:102400002551854800F04FF901218348FFF7B3FFBC
:1024100001214804FFF7ACF801210420FFF7B8F8C8
:102420000420ADF8100018208DF8130003208DF85B
:10243000120004A97748FEF729FE0820ADF8100025
:1024400004208DF8130003208DF8120004A97148B0
:10245000FEF71CFE4FF4E13000900020ADF80400C0
:10246000ADF80600ADF80800ADF80C000C20ADF892
:102470000A006946694800F03BF9012240F2255103
:10248000664800F010F901216448FFF774FF01214C
:102490008804FFF76DF801210820FFF779F84FF461
:1024A0008060ADF8100018208DF8130003208DF81F
:1024B000120004A95A48FEF7E9FD4FF40060ADF898
:1024C000100028208DF8130003208DF8120004A9B5
:1024D0005348FEF7DBFD4DF6C02000900020ADF81C
:1024E0000400ADF80600ADF80800ADF80C000C20B3
:1024F000ADF80A0069464B4800F0FAF8012240F2B4
:102500002551484800F0CFF801214648FFF733FF36
:102510000121C804FFF72CF801211020FFF738F83B
:102520004FF48060ADF8100018208DF813000320E0
:102530008DF8120004A93C48FEF7A8FD4FF4006096
:10254000ADF8100004208DF8130003208DF8120060
:1025500004A93548FEF79AFD4FF41650009000206C
:10256000ADF80400ADF80600ADF80800ADF80C00B9
:102570000C20ADF80A0069462C4800F0B9F8012299
:1025800040F22551294800F08EF801212748FFF735
:10259000F2FE01210805FEF7EBFF01213020FEF7D6
:1025A000F7FF4FF48050ADF8100018208DF813009D
:1025B00003208DF8120004A91B48FEF767FD0420D4
:1025C000ADF810008DF8130003208DF8120004A957
:1025D0001748FEF75BFD4FF4165000900020ADF851
:1025E0000400ADF80600ADF80800ADF80C000C20B2
:1025F000ADF80A0069460F4800F07AF8012240F26F
:1026000025510C4800F04FF801210A48FFF7B3FEAE
:1026100005B000BD00080140003801400044004002
:10262000000C01400048004000100140004C0040F8
:10263000001401400050004002460020B1F5007F28
:1026400000D100BF13880B4201D0012000E0002020
:10265000704770B502460024002300250020A1F534
:1026600010666A3E00D100BFC1F3421501F01F039E
:10267000012606FA03F3012D02D19689334006E0C4
:10268000022D02D1168A334001E0968A33400C12A3
:10269000012606FA04F41688344013B10CB1012067
:1026A00000E0002070BDF0B50346002400260025A0
:1026B0000020A1F510676A3F00D100BF1846C1F3A2
:1026C000421401F01F06012707FA06F5012C01D17B
:1026D0000C3004E0022C01D1103000E014301AB1AB
:1026E00007682F43076002E00768AF430760F0BD4B
:1026F0002DE9F04786B005460E460024A24600BFED
:10270000A1460027B08900B100BF2F462C8A4CF6A5
:10271000FF700440F08804432C82AC894EF6F3101D
:102720000440B08831890843718908430443AC816F
:10273000AC8A4FF6FF400440B0890443AC8201A844
:10274000FEF7AAFF1F48874202D1DDF810A001E082
:10275000DDF80CA0A88910F4004F08D00AEBCA00DD
:1027600000EB0A1031684900B0FBF1F807E00AEB12
:10277000CA0000EB0A1031688900B0FBF1F8642050
:10278000B8FBF0F004012009642101FB1089A8893D
:1027900010F4004F08D0322000EBC900B0FBF1F07C
:1027A00000F00700044308E0322000EB0910642128
:1027B000B0FBF1F000F00F0004432C8106B0BDE83F
:1027C000F08700000038014001468888C0F3080007
:1027D0007047C1F3080282807047000000B585B0E1
:1027E000002201212848FEF723FD08212748FDF794
:1027F000D5FE60B126A000F07FF86A46002123488C
:10280000FDF760FF08212148FDF768FE00BF402169
:102810001E48FDF7C3FE60B122A000F06DF86A46C5
:1028200001211A48FDF74EFF40211848FDF756FEDA
:1028300000BF02211548FDF7B1FE60B16A460021D4
:102840001248FDF73FFF684601F082FB02210F4866
:10285000FDF744FE00BF10210C48FDF79FFE60B15C
:1028600015A000F049F86A4601210848FDF72AFF43
:1028700010210648FDF732FE00BF01221146024832
:10288000FEF7D6FC05B000BD000C0140006400401E
:102890000D0A43414E206572726F723121210D0A7B
:1028A000000000000D0A43414E206572726F7232C3
:1028B00021210D0A000000000D0A43414E206572DF
:1028C000726F723321210D0A000000000AE006A099
:1028D00000F012F872B671B64FF4FA6001F0AAF97E
:1028E000FEF714FEF3E700000D0A4552524F525F07
:1028F00055534147450D0A000FB4054B10B503A9C8
:10290000044A029800F030F810BC5DF814FB000097
:10291000A94200087C0100200FB4084B10B504A99F
:1029200002AA039800F020F8044602A9002000F053
:1029300059FA204610BC5DF814FB0000E52D000894
:10294000004870478001002002E008C8121F08C13B
:10295000002AFAD170477047002001E001C1121F20
:10296000002AFBD1704700002DE9FF4F8DB00546CE
:102970000F460026EEE1252879D100246D1CF94A86
:10298000A246A14601212B78203B01FA03F0104218
:1029900002D004436D1CF6E728782A2810D06FF087
:1029A0002F022878A0F13001092915D80AEB8A01F5
:1029B00002EB410144F0020400EB010A6D1CF0E758
:1029C00057F804ABBAF1000F03DA44F40054CAF12B
:1029D000000A44F002046D1C28782E2817D115F83F
:1029E000010F44F004042A280ED06FF02F0228783B
:1029F000A0F1300109290AD809EB890102EB410154
:102A000000EB01096D1CF2E757F8049B6D1C287858
:102A10006C280FD006DC4C2817D068280DD06A2807
:102A200014D104E0742810D07A280FD10DE044F4BA
:102A300000140AE044F4801401E044F4401469787E
:102A4000814202D16D1C04F580146D1C95F800C004
:102A5000BCF16E0F2AD012DCBCF1630F3CD007DC56
:102A6000BCF1000F76D0BCF1580F19D1ACE018E0E2
:102A7000BCF1640F6FD0BCF1690F11D16BE0BCF1F8
:102A8000730F32D006DCBCF16F0F71D0BCF1700F48
:102A900006D19BE0BCF1750F6BD0BCF1780F69D00B
:102AA0006046DDE90F129047761C52E1C4F30250F4
:102AB000022806D003280AD0042801CF0AD00660D5
:102AC00047E101CF4FEAE671C0E9006141E101CF82
:102AD00006803EE106703CE101CF8DF80000002049
:102AE0008DF80100EB46012003E057F804BB4FF0DE
:102AF000FF3061074FF0000102D40DE008F1010141
:102B0000884649450FDA8045F8DB1BF80810002994
:102B1000F4D108E008F1010188468142FADB1BF894
:102B200008100029F6D1DDE90F23AAEB0800814641
:102B3000214600F040F9304400EB080604E0DDE9EE
:102B40000F121BF8010B9047B8F10108F7D221468C
:102B50004846F9E002E10A20C4F302524FF0000BAC
:102B60000890022A07D001CFC117032A09D00AE032
:102B700035E022E023E0FF1D27F00707F7E8020118
:102B800005E000B2C117042A01D140B2C1170029E3
:102B900006DA0023D0EB030063EB01012D2202E0F3
:102BA000220504D52B228DF82420012203E0E20720
:102BB00001D02022F7E7904653E00A2110E01020D0
:102BC0004FF0000B08900EE0102109E010214FF0AB
:102BD000000B44F004044FF00809089103E00821B9
:102BE0004FF0000B0891C4F30252022A04D001CF27
:102BF0000021032A06D007E0FF1D27F00707F7E8AA
:102C0000020105E080B20021042A01D1C0B20021F6
:102C10004FF00008220724D5BCF1700F2AD0089B82
:102C200083F0100353EA0B0309D150EA010206D0E6
:102C300030228DF824208DF825C002229046089B72
:102C400083F0080353EA0B030BD150EA010201D1D0
:102C5000620706D530228DF824204FF00108A9F133
:102C6000010941A2BCF1580F00D044A20B9208AA5E
:102C70000A920FE040228DF824200122DEE75B4615
:102C8000089AFDF707FB0B9B9B5C0A9AA2F10102D5
:102C90000A92137050EA0102F1D10A98ADEB0000DC
:102CA00000F1200B600702D524F4803401E04FF0DE
:102CB0000109002049465A46D94501DDA1EB020031
:102CC00000EB0B0141440890AAEB01000B90E003DC
:102CD00006D4DDE90F2321460B9800F06CF806447A
:102CE0004FF000090DF1240A07E0DDE90F121AF890
:102CF00009009047761C09F10109C145F5DBE003A5
:102D00000CD5DDE90F2321460B9800F054F806445A
:102D100004E0DDE90F1230209047761C0899481E28
:102D200008900029F5DC08E00A980A990078491C07
:102D30000A91DDE90F129047761CBBF10001ABF15F
:102D4000010BF1DC0B982146DDE90F2300F020F8A0
:102D500006446D1C287800287FF40DAE11B0304673
:102D6000BDE8F08F09280100303132333435363771
:102D70003839414243444546000000003031323387
:102D800034353637383961626364656600000000A7
:102D90002DE9F0410446002517461E46880405D457
:102DA00006E039462020B04705F10105641EF8D53C
:102DB0002846BDE8F0812DE9F04104460025302782
:102DC00090461E46C80300D42027880405D506E097
:102DD00041463846B04705F10105641EF8D528463E
:102DE000BDE8F0810A68531C0B601070704700004A
:102DF00010B5024800F026FC10BD00002015002090
:102E000038B50446042C00D82CB916A0FFF774FD81
:102E10004FF0FF3038BD224618A16846FFF77CFD11
:102E2000694617A0FFF768FD4FF4C8721EA121A0E4
:102E3000FEF76AFF28B923A0FFF75EFD4FF0FF30D1
:102E4000E8E769462648FDF7C2F928B1694625A09A
:102E5000FFF752FD0020DDE7694624A0FFF74CFD97
:102E60000120D7E7717565727920736F636B6574A4
:102E7000204944206572726F720D0A0025640000BB
:102E80000D0A636865636B20736F636B657420253F
:102E9000732073746174652B2B2B2B2B2B2B2B2BFB
:102EA0002B2B2B2B0D0A00002B4D49504F50454E1C
:102EB0000000000041542B4D49504F50454E3F0DEE
:102EC00000000000717565727920736F636B657423
:102ED00020636D64206572726F720D0A000000003D
:102EE0009806002063616E206E6F742066696E64C0
:102EF0002074686520736F636B65743A25730D0ADF
:102F00000000000010B502460B460020002102E040
:102F1000545C6040491C9942FADB10BD8EB000241D
:102F200040A14348FDF745F9502041490C39C86399
:102F30000864012048638863641C02203D490860DE
:102F400000BF03F05DFC4FF4FA723BA13BA0FEF71B
:102F5000DBFE4FF4FA7238A138A0FEF7D5FE3848F0
:102F600002F04CFE37A13B48FDF731F920B93AA1F8
:102F70003848FDF72CF930B139A0FFF7BDFC01202E
:102F800003F0D0FCDDE74CE034222949091D6846F6
:102F9000FDF7EAF826480C380FC800F059FE20B9B2
:102FA000214635A0FFF7A8FCCBE700244FF4FA72C6
:102FB00021A139A0FEF7A8FE4FF4FA621EA13CA0A1
:102FC000FEF7A2FE41A0FFF797FC4FF4FA6241A181
:102FD00041A0FEF799FE0022114643A0FEF794FEA1
:102FE0001A214548FFF7F5FB00BF40214248FFF793
:102FF00023FB0028F9D04FF47A7000F01BFE342236
:103000000B49091D6846FDF7AFF809480C380FC891
:1030100002F05AFF2DA0FFF76FFC40F6B83000F029
:1030200009FEB1E731312E31312E31312E313100EF
:103030008C1A0020140000204F4B000041540D005A
:10304000782400204E4F5420494E53455254454455
:10305000000000009806002052454D4F56450000E4
:103060000D0A73696D2063617264206E6F7420694C
:103070006E736572740D0A000D0A65737461626C7B
:10308000697368206E6574776F726B206661696C16
:10309000203A25640D0A000041542B4D49505345F8
:1030A00054533D312C352C313030300D00000000B0
:1030B00041542B4D495053454E443D312C22333021
:1030C0003331333233333334220D00000D0A0D0A0D
:1030D000000000003E00000041542B4D4950545365
:1030E000454E443D310D000068656C6C6F2C776F68
:1030F000726C642121000000004400402DE9FF4F64
:1031000093B00E461746984600240025A146A246D5
:103110004FF47A71C848FDF740F814210EA8FDF766
:103120003CF800BF00BFB9F1020F15DDB8F1010F87
:1031300007D1C2A0FFF7E0FB4FF0FF3017B0BDE8AA
:10314000F08FC7A0FFF7D8FB4FF000094FF47A705B
:1031500000F070FD0020F1E709F10109329888B113
:10316000C8A0FFF7C9FB342225A96846FCF7FCFF7D
:1031700021A80FC800F06CFD002803DCC8A0FFF7F1
:10318000BBFBD0E74FF0000A00BF0AF1010ABAF119
:10319000020F05DDC7A0FFF7AFFB4FF0FF30CDE713
:1031A0004FF47A71A448FCF7F8FF00242146C6A02A
:1031B000FFF7A2FB0FB3A04A1421C94803F060FB3C
:1031C000044604EBD4714910B4EB410103D0C5A00F
:1031D000FFF792FBD9E798480219B1B2139803F0B0
:1031E0004FFB204404B204EBD4714910B4EB41010D
:1031F0001CD0C4A0FFF780FBC7E78F48FCF7FDFF9A
:103200008D4900EB010B5A46B1B2139803F038FB1D
:10321000204404B204EBD4714910B4EB410105D051
:10322000B8A0FFF769FB4FF0FF3087E7A34604EB38
:10323000D4704010421CBAA1BF48FFF76DFBBE49D5
:10324000BEA0FFF759FB4FF4FA72C2A1BA48FEF7CD
:103250005BFD40F21451C048FCF79FFF0020BF49BE
:1032600008601421BE48FCF798FFBEA1BC482F9A05
:10327000FFF752FB7049BFA0FFF73EFB6E4AB8490B
:10328000C0A0FFF739FB3021C348FFF7A2FA00BF07
:103290004021C148FFF7D0F90028F9D04421BE48A9
:1032A000FFF797FA00BF4021BB48FFF7C5F9002898
:1032B000F9D02221B848FFF78CFA00BF4021B64868
:1032C000FFF7BAF90028F9D00D21B348FFF781FACA
:1032D00000BF4021B048FFF7AFF90028F9D00A211C
:1032E000AD48FFF776FA00BF4021AB48FFF7A4F9DD
:1032F0000028F9D05048FCF780FF83469848FCF737
:103300007CFF23465A4601460D90A4A0FFF7F4FA2D
:103310004FF47A7000F08EFC1421A7A0FFF7ECFAAE
:103320002146AAA0FFF7E8FA00250DE08C48405797
:1033300081B2AB48FFF74DFA00BF4021A848FFF724
:103340007BF90028F9D06D1C8548FCF756FFA84290
:10335000ECD800251AE03848405781B2A048FFF762
:1033600038FA00BF40219E48FFF766F90028F9D0DF
:103370003148405781B28848FFF72BFA00BF4021FF
:103380008548FFF759F90028F9D06D1CA542E2DB0A
:1033900030219348FFF71DFA00BF40219048FFF706
:1033A0004BF90028F9D044218D48FFF712FA00BFED
:1033B00040218B48FFF740F90028F9D022218848A6
:1033C000FFF707FA00BF40218548FFF735F90028CD
:1033D000F9D00D218248FFF7FCF900BF4021804859
:1033E000FFF72AF90028F9D07EA0FFF785FA1BE045
:1033F000642000F01FFC57A15748FCF7E8FE18B105
:1034000079A0FFF779FA10E07EA15348FCF7DFFEC0
:1034100018B17EA0FFF770FA85E66D1C322D03DD32
:1034200083A0FFF769FA00E0E2E700BF209808B147
:10343000FFF7DEFC012081E6361600200D0ACAFDEA
:10344000BEDDD6D8B7A2CAA7B0DCD7B4CCACA3AC8B
:10345000B2BBB2B9B7A2CAFDBEDD0D0A00000000C2
:103460000D0ACAFDBEDDD6D8B7A2CAA7B0DCA3AC90
:10347000B4E6B4A2B5BDCAFDBEDD466C617368D6C4
:10348000D00D0A000D0ABCECB2E9CDF8C2E7CAC7FC
:10349000B7F1D0E8D2AAD6D8C1AC0D0A000000001E
:1034A0000D0ACDF8C2E7D6D8C1ACCAA7B0DC0D0A68
:1034B000000000000D0A737472324865782065724E
:1034C000726F720D0A0000000D0A64617461206C55
:1034D000656E677468203A2025640D0A00000000BC
:1034E000481A00200D0A63686172207472616C6171
:1034F000746520686561646572206572726F720D13
:103500000A0000000D0A7472616E736C61746520AC
:1035100064617461206572726F720D0A00000000B0
:1035200041542B4D4950534554533D312C25642C67
:103530003530300D00000000321A00200D0A73658E
:103540007420736F636B657420636D643A25730D2B
:103550000A0000004F4B00009806002004000020E5
:103560001E1A002041542B4D495053454E443D25D1
:10357000642C22000D0A6461746120203A25730DC9
:103580000A0000000D0A73656E6420636D64203AC2
:103590002573257300000000003801400D0A636D9B
:1035A000643A256420206275663A256420206461AF
:1035B00074613A25640D0A000D0A636D6420736915
:1035C0007A65203A25640D0A000000000D0A627534
:1035D000662073697A65203A25640D0A00000000B0
:1035E000004400400D0A00000D0A46494E44205395
:1035F000454E44204F4B2C434F4E54494E55450D9C
:103600000A0000004552524F520000000D0A464980
:103610004E44204552524F522E474F544F20535440
:103620004F524520414E44204552524F520D0A0000
:103630000D0A54494D45204F5554202C474F4F4EAD
:103640000D0A000038B5044600200090204600F026
:1036500077FC00B138BD12A0A168FFF74DF918E062
:1036600016A0A168FFF748F96946204600F046FE1B
:103670000098D0F8801018A0FFF73EF9009800F0ED
:1036800035F800200099C1F8800080210098FCF7EF
:1036900084FD204600F054FC0028E1D000BFD9E7AB
:1036A0000D0AB4FDB4A6C0EDB5C4CFC2B7A2CAFD21
:1036B000BEDDC1BFA3BA25640D0A00000D0ACAA36E
:1036C000D3E0D0E8B4A6C0EDB5C4D0C5CFA2C1BF89
:1036D000A3BA25640D0A00000D0ABDDAB5E3CAFDE0
:1036E000BEDDC1BFA3BA25640D0A0000F8B50746C8
:1036F0000025B3A0FFF700F900BF04E0795DB5A095
:10370000FFF7FAF86D1C802DF8DBB3A13846FCF703
:103710005EFD0646761C002E71D03446E08800F12E
:103720001001201DFFF7EEFBE178884268D1ACA0C4
:10373000FFF7E2F8A08849F2F302811A90423AD0EA
:103740001BDC41F22212A0EB020190427ED00BDC86
:10375000B0F5887F59D0A0F58070113877D0A0F5EA
:103760008050103874D1C9E0012972D0A1F5FE4112
:10377000CF3918D00129F5D119E01D293BD006DC3D
:103780000D2934D00E2927D00F29EBD12BE02D297C
:1037900037D03D2902D03E29E4D100E000BF94A0FB
:1037A000FFF7AAF8F1E099A0FFF7A6F8EDE09EA0D8
:1037B000FFF7A2F8E9E0A2A0FFF79EF8A7A0FFF7A5
:1037C0009BF84FF4FA6000F035FA26461436E1888B
:1037D000304602F03FFED8E0A7A0FFF78DF80120A9
:1037E000AB490860D1E0ABA0FFF786F8CDE0AFA011
:1037F000FFF782F8C9E0B2A0FFF77EF8C5E0DDE090
:10380000C4E0B4A0FFF778F8BFE000F091FBB6A0E9
:10381000FFF772F804F11406002504E0715DB8A00A
:10382000FFF76AF86D1CE088A842F7DCB5A0FFF747
:1038300063F8A08840F40040A0800020E0801021C0
:10384000201DFFF75FFBE070002303E076E00CE053
:1038500097E035E01A4614212046009302F09AFCC6
:103860004FF4FA6000F0E6F98FE000F061FBABA0E6
:10387000FFF742F804F11406002504E0715DA0A0F2
:10388000FFF73AF86D1CE088A842F7DCABA0FFF721
:1038900033F8A08840F40040A0800020E080102190
:1038A000201DFFF72FFBE07000231A46142120464D
:1038B000009302F06FFC4FF4FA6000F0BBF964E093
:1038C000A3A0FFF719F89DA0FFF716F8A08840F411
:1038D0000040A0800020E0801021201DFFF712FB97
:1038E000E07000231A4614212046009302F052FC97
:1038F0009DA0FFF701F803F061F846E000F018FB27
:103900009EA0FEF7F9FF04F11406A08840F40040E1
:10391000A0800020E0801021201DFFF7F3FAE07066
:1039200000231A4614212046009302F033FC9AA08B
:10393000FEF7E2FF012001F0A9FB26E000F0F8FA13
:103940009BA0FEF7D9FF04F114067CA0FEF7D4FF7C
:10395000A08840F40040A0800020E0801021201DBD
:10396000FFF7D0FAE07000231A4614212046009396
:1039700002F010FC95A0FEF7BFFF022001F086FBCD
:1039800003E098A0FEF7B8FF00BF17E09BA0FEF78A
:10399000B3FFA1889DA0FEF7AFFFA1A0A168FEF72D
:1039A000ABFF07A0FEF7A8FF002504E0615D09A0BA
:1039B000FEF7A2FF6D1C322DF8DBF8BD00BFFCE75F
:1039C0000D0A4255464645525420444144413A0D61
:1039D0000A000000253358003A2A2A2A0000000075
:1039E0000D0A435243204F4B21210D0A00000000D5
:1039F0000D0A41434B5F504F5745525F535441545A
:103A0000455F4D53472D2D0D0A0000000D0A41431F
:103A10004B5F534F46545F5550444154455F4D539F
:103A2000472D2D0D0A0000000D0A41434B5F534501
:103A3000545F4E45545F4D53472D2D0D0A00000035
:103A40000D0A41434B5F5345545F5245504F52540A
:103A50005F4D53472D2D0D0A000000000D0ABFAA2F
:103A6000CABCD0DED5FDCDF8C2E7C9CFB1A8B2CE71
:103A7000CAFD2D2D0D0A00000D0A41434B5F4F4E2C
:103A80004C494E455F4D53472D2D0D0A0000000057
:103A9000580000200D0A41434B5F4F46464C494EAB
:103AA000455F4D53472D2D0D0A0000000D0A41437F
:103AB0004B5F48454152545F4D53472D2D0D0A0031
:103AC0000D0A41434B5F4750535F4D53472D2D0D1A
:103AD0000A0000000D0A41434B5F43414E5F4D53C6
:103AE000472D2D0D0A0000000D0A0D0A0D0ACAD53A
:103AF000B5BDC9FDBCB6D6B8C1EE2D2D0D0A00006E
:103B0000253378000D0ABBD8B7A2C9FDBCB6C8B72B
:103B1000C8CFCAFDBEDD0D0A000000000D0A0D0A67
:103B20000D0ACAD5B5BDCDF8C2E7B2CECAFDC9E807
:103B3000D6C3D6B8C1EE2D2D0D0A00000D0ABBD894
:103B4000B7A2C8B7C8CFCAFDBEDD0D0A000000008D
:103B50000D0A0D0A0D0ACAD5B5BDBDE2CBF8D6B81F
:103B6000C1EE2D2D0D0A00000D0AC9E8B1B8B3A2AF
:103B7000CAD4BDE2CBF80D0A000000000D0A0D0A00
:103B80000D0ACAD5B5BDD2BBBCB6CBF8BBFAD6B808
:103B9000C1EE2D2D0D0A00000D0AC9E8B1B8B3A27F
:103BA000CAD4D2BBBCB6CBF8BBFA0D0A00000000E9
:103BB0000D0A0D0A0D0ACAD5B5BDB6FEBCB6CBF8C6
:103BC000BBFAD6B8C1EE2D2D0D0A00000D0AC9E8CA
:103BD000B1B8B3A2CAD4B6FEBCB6CBF8BBFA0D0AD4
:103BE000000000000D0A4552524F52204D455347E8
:103BF00020545950452D2D0D0A0000000D0A435246
:103C000043204552524F520D0A0000000D0A4D53F9
:103C10004720545950453A202535580D0A000000D8
:103C20000D0A4D53472049443A2020202535580D90
:103C30000A000000002107E0002200E0521C43F2CD
:103C4000C8239A42FAD3491C8142F5D37047000039
:103C50000FB43EB5002555A0FEF74EFE594800783A
:103C6000002827D14FF47A70FFF7E4FF2821564847
:103C7000FCF793FA28215548FCF78FFA012309A98C
:103C8000169A8DE80E0052A14F48159B139AFEF725
:103C900043FE012356A14D48149AFEF73DFE4A49C2
:103CA00057A0FEF729FE49495AA0FEF725FE01203C
:103CB000444908701498FFF7A3F8002806DD5AA0BD
:103CC000FEF71AFE01203EBC5DF814FB5AA0FEF779
:103CD00013FE00BF032D08DD5DA0FEF70DFE0120E1
:103CE00002F020FE0025681EEDE76D1C01F0C4FB0C
:103CF00000284CD0002410E04FF4FA725FA162A0BB
:103D0000FEF702F800B10AE04FF4FA7261A15EA07A
:103D1000FDF7FAFF00B102E0641C142CECDB00BFDD
:103D20000E2C06DB5EA0FEF7E7FD002002F0FAFD98
:103D3000D0E701F0A5FF02F075F8002002F012FCB8
:103D4000002800DAC6E7002415E04FF4FA621F49A4
:103D50001D48FDF7D9FF012803D157A0FEF7CCFD80
:103D60000BE01498FFF74CF8002803DD56A0FEF78F
:103D7000C3FD02E0641C0A2CE7DB00BF092C0DDB4D
:103D800055A0FEF7B9FD002002F0CCFDA2E757A038
:103D9000FEF7B2FD002002F0C5FD9BE758A0FEF73C
:103DA000ABFD5DA0FEF7A8FD01208CE70D0A657351
:103DB0007461626C697368206E6574776F726B0DE5
:103DC0000A000000C0000020041600202C1600206D
:103DD00041542B4D49504F50454E3D25642C256490
:103DE0002C222573222C25642C25640D0000000054
:103DF0002B4D49504F50454E3A2025642C256400E8
:103E00000D0A736F636B657420636D64203A2573CC
:103E10000D0A00000D0A736F636B65742073746183
:103E200074653A25730D0A006E6574776F726B20A6
:103E30006F6B0D0A000000004E6574204572726FB2
:103E4000722C7265436F6E6E6563740D0A0000001C
:103E50000D0ACDF8C2E7D7A2B2E1CAA7B0DCB4CE52
:103E6000CAFDB9FDB6E02CC9E8B1B8B9CAD5CFA32F
:103E7000ACC7EBBCECB2E90D0A0000002B43524585
:103E8000473A20302C31000041542B435245473FE4
:103E90000D0000002B435245473A20302C350000DE
:103EA0000D0A53494D393030CDF8C2E7D7A2B2E1FF
:103EB000CAA7B0DC0D0A00000D0A73636F6B65744E
:103EC000206F6B0D0A0000000D0A6E6574776F722B
:103ED0006B206F6B0D0A00000D0A53494DCDF8C2DF
:103EE000E7BDA8C1A2CAA7B0DC0D0A000D0A53495C
:103EF0004D393030C6F4B6AFCAA7B0DC0D0A0000A9
:103F00000D0A53494D393030207265636F6E6E650E
:103F10006374204F4B0D0A000D0A53454E44204F49
:103F20004E4C494E45204D4553534147450D0A00DF
:103F300002480068C043014908607047B40000208F
:103F40000146886808B9012070470020FCE700009E
:103F500010B50446BB480068401CBA490860606858
:103F6000B0F5D47F7DD018DCB0F5A07F4CD00BDC51
:103F7000C92877D0B0F5907F28D0A0F580702D3873
:103F800071D0032870D130E0A0F5807091384AD00C
:103F90000F2857D01328F5D167E040F24522811A47
:103FA000904271D00BDCB0F5D67F6ED0A0F50070DA
:103FB00015386BD010286AD02028E3D1A6E011294B
:103FC00075D0212974D03129DCD1DBE09E490988E4
:103FD0004D2251439C4A121D02EB810101F1080060
:103FE00014222146FCF7C0F828E1974909884D22A0
:103FF0005143954A121D02EB810101F11C0014226C
:104000002146FCF7B1F819E18F4909884D22514347
:104010008D4A121D02EB810101F13000142221466C
:10402000FCF7A2F80AE1884909884D225143864AE3
:10403000121D02EB810101F1440014222146FCF71C
:1040400093F8FBE0804909884D2251437E4A121DB6
:1040500002EB810101F1580014222146FCF784F89B
:10406000ECE015E0BBE0BBE0E7E0774909884D22D2
:104070005143754A121D02EB810101F16C001422BB
:104080002146FCF771F8D9E04FE012E020E02EE085
:104090006D4909884D2251436B4A121D02EB810183
:1040A00001F1800014222146FCF75EF8C6E04BE0E7
:1040B00059E0654909884D225143634A121D02EBBC
:1040C000810101F1940014222146FCF74DF8B5E07E
:1040D0005D4909884D2251435B4A121D02EB810163
:1040E00001F1A80014222146FCF73EF8A6E056494B
:1040F00009884D225143544A121D02EB810101F1FE
:10410000BC0014222146FCF72FF897E04E4909889D
:104110004D2251434C4A121D02EB810101F1D000A6
:1041200014222146FCF720F888E0474909884D22EF
:104130005143454A121D02EB810101F1E4001422B2
:104140002146FCF711F879E03F4909884D22514397
:104150003D4A121D02EB810101F1F80014222146B3
:10416000FCF702F86AE0384909884D225143364A83
:10417000121D02EB810101F5867014222146FBF726
:10418000F3FF5BE0304909884D2251432E4A121D4E
:1041900002EB810101F5907014222146FBF7E4FF48
:1041A000A07C30B1012808D002280AD0032810D101
:1041B0000BE00020254908600FE00120234908603A
:1041C0000BE002202149086007E003201F49086036
:1041D00003E000201D49086000BF00BF2EE02DE075
:1041E0001BA0FEF789FBE07A31280FD1207B4628FF
:1041F0000CD1607B682809D1A07B072806D101205B
:104200001849086018A0FEF777FB17E0E07A31281C
:104210000FD1207B47280CD1607B682809D1A07B77
:10422000072806D101201549086015A0FEF764FB98
:1042300004E018A0FEF760FB00E010BD00BF00BF67
:10424000FBE70000E00000201C1E0020E40000202E
:104250000D0AC8B7C8CFD6B8C1EEB7B5BBD80D0ADE
:1042600000000000C40000200D0ACBF8BBFAC8B75C
:10427000C8CFB7B5BBD80D0A00000000C8000020A9
:104280000D0ABDE2CBF8C8B7C8CFB7B5BBD80D0A89
:10429000000000000D0AC8B7C8CFD6B8C1EEB4ED13
:1042A000CEF30D0A0000000070B504460D46E1B2E1
:1042B0000548FEF78EFA00BF80210348FEF7BCF9DF
:1042C0000028F9D0204670BD0038014030B50346C3
:1042D0000A4600210020084C00BF02E0655C6840EF
:1042E000491C1029FAD332B1002102E05D5C68401C
:1042F000491C9142FADB30BDE81D002000B50246A2
:104300000B461046FFF71CFE10B10023002000BD35
:10431000106818601068D0F8840010609068401E23
:1043200090600120F3E70000FA49097800297ED067
:10433000F9490968062902D0FF2979D12FE1F74907
:10434000C978472971D1F549097947296DD1F349D0
:104350004979412969D10121F14A11600021F14ACD
:10436000116009E07822F049EE4B1B68CA54ED4910
:104370000968491CEB4A1160EA4909680929F1DB1F
:104380007821E94A921ED1720021E64A11600AE0C2
:104390007822E5490A31E34B1B68CA54E1490968B0
:1043A000491CE04A1160DF4909680A29F0DB7821DD
:1043B000DD4A921E9175D1750021DA4A11600AE03A
:1043C0007822D9491631D74B1B68CA54D549096898
:1043D000491CD44A1160D34909680229F0DB002145
:1043E000D04A11600AE07822CF491831CD4B1B68C2
:1043F000CA54CC490968491CCA4A1160C9490968AC
:104400000429F0DB0021C74A11600AE00022C649F6
:104410001C31C44B1B68CA54C2490968491CC14AB3
:104420001160C04909680A29F0DBBC4901E0FEE3DC
:10443000FEE34979562926D10421B94A11600021A9
:10444000B84A11601BE07822B849B64B1B6801F8E6
:104450002320B44B1B6801EB83014A70B349B14B75
:104460001B6801EB83018A70B049AE4B1B6801EBFE
:104470008301CA70AB490968491CAA4A1160A9495D
:1044800009680C29DFDBA5494979432971D1082145
:10449000A34A11600021A34A116009E07822A449CF
:1044A000A04B1B68CA549F490968491C9D4A11606A
:1044B0009C4909680A29F1DB78219D4A921E1173F3
:1044C0000021984A11600AE0782299490B31954BF6
:1044D0001B68CA5493490968491C924A1160914962
:1044E00009680929F0DB7821914A921E9175002113
:1044F0008C4A11600AE078228D491531894B1B687E
:10450000CA5488490968491C864A11608549096866
:104510000A29F0DB7821864A921E82F821100021B8
:10452000804A11600AE07822814920317D4B1B6866
:10453000CA547C490968491C7A4A1160794909685A
:104540000529F0DB0021774A11600AE078227849DA
:104550002531744B1B68CA5472490968491C714A59
:104560001160704909680529F0DB00216D4A11606E
:104570000BE00EE078226E492A316A4B1B68CA5460
:1045800068490968491C674A116066490968062933
:10459000F0DB2C2802D1FF215F4A1160FEE3604965
:1045A0000968012904D004297ED008297DD1ECE0D6
:1045B0002A2802D02C2879D190E00021554A117088
:1045C0005949891EC97D302971D05749891EC97E34
:1045D0002E290FD15449891E097F3039524A921E23
:1045E000927E303A02EB820201EB42014E4A921E69
:1045F000916220E04C49891E097F2E2916D14A4933
:10460000891E897E303964225143474A921ED27EE8
:10461000303A02EB820201EB42024349891E497F94
:1046200030391144404A921E916204E04FF47A718D
:104630003D4A921E91623C49891E896A3D4A9269AF
:1046400091424ADC0021374A11600CE03649354A74
:104650001268895C374A334B1B68D1543149096869
:10466000491C304A11602F4909680929EEDB0021F5
:104670002C4A11600EE02C490A312A4A12688A5CE1
:104680002C490A31274B1B68CA5426490968491C22
:10469000244A1160234909680A29ECDB2249891E52
:1046A000C97A244A517203E0B8E1F5E320E014E04E
:1046B0001D49891E897D11751B49891E097E117747
:1046C0001949891E4A7E1B494A771749891E896AFA
:1046D000184A91610121184A116054E01249891E5B
:1046E0000978491C104A921E1170002151704AE04D
:1046F0000D49891E097809293DD2DFE801F03C0502
:104700001F22272A2D3237000749891E4A78891C23
:10471000885431E078000020740000206C000020F4
:104720006800002080000020621500209415002001
:104730002E150020C415002084000020FF49C872F7
:104740001AE0FE494A780C31885415E0FB49887517
:1047500012E0FA49C8750FE0F8494A7818318854D0
:104760000AE0F6494A781A31885400BFF3494A787A
:104770001E31885400E000BF00BFF0494978491C51
:10478000EE4A517000BF00BFD6E32A2802D02C2881
:104790007DD1FEE00021EA4A1170EA4A1160012150
:1047A000E94A1160E949097B412978D10021E84AA9
:1047B00011600DE0E5490D31E54A12688A5CE54972
:1047C000E34B1B68CA54E2490968491CE04A11607E
:1047D000DF4909680929EDDB0021DD4A11600EE09F
:1047E000DA491731DA4A12688A5CDA490A31D84B59
:1047F0001B68CA54D6490968491CD54A1160D44976
:1048000009680A29ECDBD149897DD24A1E3A82F82F
:104810002710CE4991F8211082F832100021CC4A9D
:1048200011600EE0C9492231C94A12688A5CC9493F
:104830001731C74B1B68CA54C5490968491CC44A8B
:104840001160C34909680529ECDB0021C04A1160E9
:104850000EE0BE492731BE4A12688A5CBD491C3150
:10486000BB4B1B68CA54BA490968491CB84A116055
:10487000B74909680529ECDBB049097EB54A1E3AFB
:1048800082F83310AD494A7EB2491E3901E088E012
:1048900005E081F834200121AF4A11607047AB492F
:1048A000897D782974D00021A94A11600DE0A749BB
:1048B0000D31A74A12688A5CA649A54B1B68CA54E9
:1048C000A3490968491CA24A1160A149096809293C
:1048D000EDDB00219E4A11600EE09C4917319C4A95
:1048E00012688A5C9B490A31994B1B68CA549849E3
:1048F0000968491C964A1160954909680A29ECDB48
:104900009249897D934A1E3A82F827108F4991F87F
:10491000211082F8321000218D4A11600EE08B497F
:1049200022318B4A12688A5C8A491731884B1B688E
:10493000CA5487490968491C854A11608449096835
:104940000529ECDB0021824A11600EE07F49273106
:104950007F4A12688A5C7F491C317D4B1B68CA54B0
:104960007B490968491C7A4A116079490968052917
:10497000ECDB7249097E774A1E3A82F833106F49A0
:104980004A7E74491E3981F834200121734A11602E
:1049900042E06E490978491C6C4A1170002151703F
:1049A0003AE06A49097809292ED2DFE801F0050AC0
:1049B0000D12151A1E23280064494A78891C885450
:1049C00023E06249087320E060494A780D31885439
:1049D0001BE05E49887518E05C494A7817318854B5
:1049E00013E05A4981F821000FE058494A782231F2
:1049F00088540AE055494A782731885405E05349DC
:104A00004A782C31885400E000BF00BF4F494978F4
:104A1000491C4E4A517000BF00BF8DE22A2802D0C7
:104A20002C287ED1DFE10021454A11704C49C9781C
:104A3000312977D100214B4A11604B4A11604B4A12
:104A400011604B4A11604B4A1160414A1160A1E06C
:104A5000434908313E4A126801EB8201C97878293E
:104A60006BD040490968491C3E4A11603C490831F5
:104A7000374A126801EB8201C9783039384A083266
:104A8000334B1B6802EB83029278303A02EB8202CE
:104A900001EB42010A2904DB33490968491C324A07
:104AA00011602F4908312A4A126801EB8201C97846
:104AB00030392B4A0832264B1B6802EB830292786E
:104AC000303A02EB820201EB4201142904DB274950
:104AD0000968491C254A1160214908311C4A12689D
:104AE00001EB8201C97830391D4A0832184B1B6826
:104AF00002EB83029278303A02EB820201EB420130
:104B00001E2904DB1A490968491C194A1160144915
:104B100008310F4A126801EB8201C9783039104A16
:104B200001E068E13CE00832094B1B6802EB8302BC
:104B30009278303A02EB82021EE026E060150020F7
:104B400078000020740000207C0000202C1500203C
:104B500080000020E21500208C000020880000204A
:104B60008C15002090000020940000209800002068
:104B70009C000020A000002001EB4201282904DB5A
:104B8000FF490968491CFE4A1160FE490968491C31
:104B9000FC4A1160FB4909680429FFF659AF21E17D
:104BA000F949C97832297ED10421F64A116084E09E
:104BB000F5490831F34A126801EB8201C978782976
:104BC00076D0F2490968491CF04A1160EE49083173
:104BD000EC4A126801EB8201C9783039EA4A08329E
:104BE000E84B1B6802EB83029278303A02EB8202B8
:104BF00001EB42010A2904DBE5490968491CE44A42
:104C00001160E1490831DF4A126801EB8201C9787D
:104C10003039DD4A0832DB4B1B6802EB83029278A5
:104C2000303A02EB820201EB4201142901E097E1E4
:104C300084E104DBD7490968491CD64A1160D2498E
:104C40000831D04A126801EB8201C9783039CE4A66
:104C50000832CC4B1B6802EB83029278303A02EBAD
:104C6000820201EB42011E2904DBCB490968491C81
:104C7000C94A1160C4490831C24A126801EB820175
:104C8000C9783039C04A0832BE4B1B6802EB830238
:104C90009278303A02EB820201EB4201282907DBCD
:104CA000B749096801E00EE002E0491CB44A11600E
:104CB000B4490968491CB34A1160B2490968082916
:104CC000FFF676AF8EE0B049C978332967D1082165
:104CD000AC4A116081E0AC490831AA4A126801EB84
:104CE0008201C978782973D0A8490968491CA74A64
:104CF0001160A5490831A34A126801EB8201C97805
:104D00003039A14A08329F4B1B6802EB830292782C
:104D1000303A02EB820201EB42010A2904DB9C4992
:104D20000968491C9A4A116097490831954A1268E6
:104D300001EB8201C9783039934A0832914B1B68E4
:104D400002EB83029278303A02EB820201EB4201DD
:104D5000142904DB8F490968491C8E4A11608A496D
:104D60000831884A126801EB8201C9783039864AD5
:104D70000832844B1B6802EB83029278303A02EBD4
:104D8000820201EB42011E2904DB83490968491CA8
:104D9000814A11607C4908317A4A01E0DFE021E074
:104DA000126801EB8201C9783039774A0832754BB5
:104DB0001B6802EB83029278303A02EB820201EB2D
:104DC0004201282904DB6E490968491C6C4A1160BC
:104DD0006C490968491C6B4A11606A4909680C29C9
:104DE000FFF679AFA2E068490978491C664A11705C
:104DF000002151709AE064490978132974D2DFE8E0
:104E000001F00A0D2A2B343536404C4D4E5A65665A
:104E100067747F8081005C49887080E05A49C8705F
:104E2000C978312903D10021574A516012E056490F
:104E3000C978322903D10421534A51600AE052490A
:104E4000C978332903D108214F4A516002E0082173
:104E50004D4A516063E062E04B494A68083101EB1A
:104E60008201494A5278885459E058E057E046494F
:104E70004A68083101EB8201891C434A5278885400
:104E80004DE041494968491C3F4A083202EB810123
:104E9000083A5278885442E04AE040E03FE03A491C
:104EA0004968491C384A083202EB8101891C083ADA
:104EB0005278885433E034494968891C324A0832B0
:104EC00002EB8101083A5278885428E027E026E076
:104ED0002D494968891C2C4A083202EB8101891C42
:104EE000083A527888541AE018E027494968C91CE2
:104EF000254A083202EB8101083A527888540EE0C4
:104F00000DE00CE020494968C91C1F4A083202EB39
:104F10008101891C083A5278885400E000BF00BF24
:104F200019494978491C184A517000BF00BF03E075
:104F300000211A4A117000BF00BF10E01849194A39
:104F40001268885417490968491C164A11601146AD
:104F50000968072902DD0021104A117000BF33E003
:104F6000242831D10E4900220A608A808A71087093
:104F700001210A4A117000210B4A1160012115E03C
:104F8000A0000020800000208C1500209000002050
:104F900094000020980000209C0000207800002051
:104FA0006C0000207400002068000020074A116097
:104FB0000021074A11705170064A11705170064A5B
:104FC00011705170054A116000BF67E47400002041
:104FD0002C1500208C150020601500207C0000207E
:104FE00010B50BA0FDF788FC002208210F48FCF744
:104FF0001FF94FF4FA70FEF71DFE012208210B483D
:10500000FCF716F94FF4FA70FEF714FE10BD00001D
:105010000D0A4F50454E2047505320506F77657210
:105020002E2E2E2E2E2E2E2E0D0A000000100140A8
:1050300005200649086006A0FDF75EFC4FF4FA6003
:10504000FEF7F8FDFFF7CCFF00BFFEE714000020DD
:105050000D0A47505320746573740D0A0000000058
:1050600010B5FCF7B5FA01210748FCF799F8FBF7F2
:1050700015FEFDF78DF9FCF739FCFBF797FCFCF703
:105080003FF9FCF74BFF10BD0004300030B5ADB068
:105090000446A02255496846FBF766F8534890F845
:1050A0009C1053A0FDF728FC5848016858A0FDF754
:1050B00023FC00205D4908602890C9202990082021
:1050C0008DF8AA0004208DF8A80000208DF8A90012
:1050D00031208DF8AB00062128A80173012C02D0E5
:1050E000022C2BD115E0414890F89C00012809D1F1
:1050F00046480068012805D14DA0FDF7FDFB0120C1
:105100002DB030BD50A0FDF7F7FB012128A8417359
:1051100019E0364890F89C00022808D13B48006806
:10512000022804D14DA0FDF7E7FB0120E8E751A0DC
:10513000FDF7E2FB022128A8417304E052A0FDF72D
:10514000DBFB0020DCE700BF072128A881730021DA
:10515000C17301744174817428A95248FBF727FB7D
:105160006946514800F07CFC002526E04FF47A7037
:10517000FEF760FD29464DA0FDF7BEFB2B480068F9
:10518000D0B150A0FDF7B8FB012C03D101208DF860
:105190009C0002E002208DF89C006946424801F024
:1051A000BCFC9DF89C00114981F89C0040F6B83089
:1051B000FEF740FD0120A3E76D1CB42DD6DB48A00F
:1051C000FDF79AFB012C03D103208DF89C0002E02F
:1051D00004208DF89C006946334801F09EFC9DF840
:1051E0009C00024981F89C00022089E7300F0020D2
:1051F0000D0AB5B1C7B0CFB5CDB3CBF8BBFAD7B4B4
:10520000CCACA3BA25640D0A00000000E400002025
:105210000D0AB5B1C7B063616ED0C5CFA2D7B4CC0B
:10522000AC20A3BA25640D0A00000000C4000020D1
:105230000D0AC9E8B1B8D2D1BEADD2BBBCB6CBF86D
:10524000BBFA0D0A000000000D0ABFAACABCD2BBFF
:10525000BCB6CBF8BBFA0D0A000000000D0AC9E885
:10526000B1B8D2D1BEADB6FEBCB6CBF8BBFA0D0A12
:10527000000000000D0ABFAACABCB6FEBCB6CBF83F
:10528000BBFA0D0A000000000D0ACBF8BBFAB2CE43
:10529000CAFDB4EDCEF3A3ACC8A1CFFBB2D9D7F70A
:1052A0000D0A00000064004000F000080D0ACBF871
:1052B000BBFAD2D1D3C3CAB1BCE4A3BA2564C3EB51
:1052C0000D0A00000D0ACBF8BBFAB3C9B9A62CBB76
:1052D000D6B8B4B5E7D1B9CAE4B3F60D0A000000F8
:1052E0000D0ACBF8BBFAB3ACCAB1A3ACB8C4B1E4F5
:1052F0004441CAE4B3F60D0A0000000010B5FFF700
:10530000AFFE4FF4FA60FEF795FC10A0FDF7F4FA3B
:10531000012208211148FBF78BFF012210210F48C1
:10532000FBF786FF012220210C48FBF781FF40F6A6
:10533000B830FEF77FFCFFF77BFE00F0F3FE00F0D5
:105340000FF8FDF7EBFD002010BD00000D0A6C69A1
:10535000676874206C65640D0A000000000C014051
:1053600008B541208DF8000054208DF8010004207C
:105370008DF80200694616A0FDF7BEFA0320174912
:10538000086000F057F816A0FDF7B6FA00224FF4B7
:1053900080511D48FBF74CFF18E011A0FDF7ACFA57
:1053A000012211031848FBF743FF41F28830FEF752
:1053B00041FC16A0FDF7A0FA00224FF480511248DC
:1053C000FBF736FF41F28830FEF734FCE5E70000DA
:1053D0000D0A636D64203A25730D0A001400002045
:1053E0000D0A4F424420746573742B2B2B2B2B2BEF
:1053F0002B2B2B2B2B2B2B2B2B2B2B2B2B2B2B2BFD
:105400002B2B2B2B2B0D0A00000C01400D0A4F42B9
:105410004420746573742D2D2D2D2D2D2D2D2D2DA6
:105420002D2D2D2D2D2D2D2D2D2D2D2D2D2D2D2DAC
:105430002D0D0A001FB54FF4613000900020ADF82B
:105440000400ADF80600ADF80800ADF80C000C2023
:10545000ADF80A0069460748FDF74AF9012240F213
:1054600025510448FDF71FF901210248FCF783FF8D
:105470001FBD00000038014010B51DA0FDF73CFA2B
:105480004FF4FA721FA120A0FCF73EFC00282DD19A
:105490001EA0FDF731FA4FF4FA60FEF7CBFB4FF494
:1054A000FA7218A118A0FCF72FFC002819D11CA033
:1054B000FDF722FA01F0A4F94FF4FA60FEF7BAFB07
:1054C0004FF4FA720FA110A0FCF71EFC20B119A036
:1054D000FDF712FA012010BD1EA0FDF70DFA002005
:1054E000F9E714A0FDF708FA0120F4E70120F2E73C
:1054F0000D0A494E20504F5745525F53494D3930A0
:10550000300D0A004F4B000041540D000D0A466952
:10551000727374204154206661696C0D0A000000AA
:105520000D0A5365636F6E64204154206661696C97
:105530000D0A00000D0A504F5745525F53494D392F
:105540003030204F4B202C52455455524E20310DB7
:105550000A0000000D0A494E20504F5745525F5334
:10556000494D393030204641494C2052455455521E
:105570004E20300D0A00000010B586B04FF4FA72CC
:10558000A5A1A8A0FCF7C0FB28B1AAA0FDF7B4F91B
:10559000012006B010BDABA0FDF7AEF90020B04968
:1055A000086000BFAE480068012809DDADA0FDF726
:1055B000A3F9012001F0B6F90020A9490860E8E745
:1055C000A7480068401CA6490860FFF755FF00285F
:1055D00077D04FF4967292A1ABA0FCF795FB4FF4F5
:1055E00096728FA1ACA0FCF78FFB002414E04FF45F
:1055F0009672ACA1AEA0FCF787FB00B10EE04FF4B1
:105600009672AEA1AAA0FCF77FFB00B106E04FF4B2
:10561000FA70FEF70FFB641C0F2CE8DB00BF0E2CAA
:1056200006DBA9A0FDF768F9002001F07BF9B9E7D6
:1056300000F026FB00F0A0FB00F0F4FB002408E0E3
:1056400040F2DC5276A1A648FCF75EFB00B102E016
:10565000641C0A2CF4DB00BF092C06DBA1A0FDF7BB
:105660004BF9002001F05EF99CE700242BE040F2AA
:10567000DC50FEF7DFFA68A1A048FAF7A8FD20B9D0
:105680009FA19E48FAF7A3FD00B11EE0A0A19B4890
:10569000FAF79DFD70B9A0A19848FAF798FD48B9AE
:1056A0009FA19648FAF793FD20B99FA19348FAF776
:1056B0008EFD38B19EA0FDF71FF9032001F032F9ED
:1056C00070E723E0641C0A2CD1DB00BF0A2C06DB48
:1056D00097A0FDF711F9032001F024F962E70024F7
:1056E00008E040F2DC524EA199A0FCF70DFB00B19E
:1056F00002E0641C0A2CF4DB00BF0A2C0DDB98A02E
:10570000FDF7FAF8032001F00DF94BE79CA0FDF737
:10571000F3F8002001F006F944E79EA0FDF7ECF84D
:10572000A2A0FDF7E9F82A208DF804008DF8050005
:105730008DF806000020ADF80A0003901120ADF8A6
:105740000800002405E066482038015D04A80155E2
:10575000641C082CF7DB00244FF47A7299A19A4854
:10576000FCF7D2FA10BB4FF47A70FEF763FA1BE035
:1057700094A16248FAF72BFD00B116E064A15F48DE
:10578000FAF725FD28B14FF47A728EA18E48FCF706
:10579000BBFA4FF47A70FEF74DFA641C0A2C03DD55
:1057A0008AA0FDF7A9F8FDE6E2E700BF00240CE0BF
:1057B00001A8015D8E48FDF70CF800BF40218C4820
:1057C000FCF73AFF0028F9D0641C142CF0DB00240D
:1057D0001BE06420FEF72EFA86A14848FAF7F7FC92
:1057E00018B186A0FDF788F810E049A14348FAF700
:1057F000EEFC18B188A0FDF77FF8D3E6641C3C2CC2
:1058000003DD8EA0FDF778F800E0E2E700BFFDF7CA
:10581000EFFA0120BDE60000434F4E4E45435420B1
:105820004F4B000041542B4349505354415455535E
:105830000D0000000D0A544350204E4554204F4B9C
:105840000D0A00000D0A53494D3930302054525989
:1058500020544F205245434F4E4E4543540D0A00AD
:10586000040100200D0A5245474549474953544514
:1058700052204552524F52204558434545545320DB
:105880004D41580D0A00000041542B434950434CF0
:105890004F53450D0000000041542B4349505348DD
:1058A00055540D002B435245473A20302C3100000F
:1058B00041542B435245473F0D0000002B435245B6
:1058C000473A20302C3500000D0A53494D3930300D
:1058D000CDF8C2E7D7A2B2E1CAA7B0DC0D0A00003A
:1058E000540F00200D0A53494D3930302054435095
:1058F000C1ACBDD3CAA7B0DC0D0A000098060020D9
:10590000414C524541445920434F4E4E454354006B
:105910004552524F5200000044454143540000009C
:105920004641494C00000000434C4F5345000000E5
:105930000D0A53494D393030204E455420455354BB
:1059400041424C495348204641494C0D0A00000051
:1059500041542B434950484541443D310D0000001E
:105960000D0A53494D3930302073657420736F63CD
:105970006B657420636F6E6669670D0A0000000036
:105980000D0A53494D393030C6F4B6AFCAA7B0DC62
:105990000D0A00000D0A53494D39303020726563FD
:1059A0006F6E6E656374204F4B0D0A000D0A5345F0
:1059B0004E44204F4E4C494E45204D455353414790
:1059C000450D0A003E000000F00000200D0A53497A
:1059D0004D393030CAFDBEDDB7A2CBCDCAA7B0DC91
:1059E0002CB3A2CAD4D6D8D0C2B7A2CBCD0D0A0050
:1059F0000044004053454E44204F4B000D0A464999
:105A00004E442053454E44204F4B2C434F4E544957
:105A10004E55450D0A0000000D0A46494E442045EA
:105A200052524F522E474F544F2053544F524520FD
:105A3000414E44204552524F520D0A000D0A54491E
:105A40004D45204F5554202C474F204F4E20524556
:105A5000434F4E4E4543543F3F3F0D0A0000000068
:105A60002DE9F04706460C464FF028093746A04678
:105A7000002504E057F8250048F825006D1C4D4529
:105A8000F8DB19A0FCF738FF211D1DA0FCF734FF3F
:105A900004F10C0120A0FCF72FFF04F11C0123A04E
:105AA000FCF72AFF04F1240126A0FCF725FF2BA018
:105AB000616EFCF721FF2FA0A16EFCF71DFF33A044
:105AC000216FFCF719FF38A0E16EFCF715FF94F881
:105AD0009C103CA0FCF710FF41A02168FCF70CFFD4
