:020000040800F2
:10000000001F002065010008F90D0008990D000887
:10001000CD0D000855040008991C000800000000E0
:10002000000000000000000000000000691300084C
:1000300079010008000000007D100008DD140008B0
:100040007F0100087F0100087F0100086713000896
:100050007F0100087F01000881040008B504000842
:100060007F010008DD0400087F0100087F0100080F
:100070007F0100087F0100087F0100087F01000860
:100080007F0100087F0100087F0100087F01000850
:10009000971C00087F0100087F0100081505000873
:1000A0007F0100087F0100087F0100087F01000830
:1000B00041150008431500087F0100087F01000872
:1000C0007F0100087F0100087F0100087F01000810
:1000D0007F01000875160008E5160008851700085E
:1000E0007F010008651300087F0100087F010008F8
:1000F0007F0100087F0100087F0100087F010008E0
:100100007F0100087F0100087F0100087F010008CF
:100110005D150008111600087F0100087F01000826
:100120007F0100087F0100087F0100087F010008AF
:10013000DFF80CD000F0F2F8004800472930000842
:10014000001F0020EFF30980704780F30988704793
:10015000EFF30880704780F30888704740BA704713
:10016000C0BA70470648804706480047FEE7FEE7EA
:10017000FEE7FEE7FEE7FEE7FEE7FEE7FEE7FEE757
:10018000E11400083101000840EA01039B0703D095
:1001900009E008C9121F08C0042AFAD203E011F8C6
:1001A000013B00F8013B521EF9D27047D2B201E088
:1001B00000F8012B491EFBD270470022F6E710B56C
:1001C00004460846114602462046FFF7EFFF204648
:1001D00010BD034600E0401C0278002AFBD111F854
:1001E000012B00F8012B002AF9D11846704730B5D1
:1001F0000EE003460A4601E05B1C521C1C78157891
:10020000AC4201D1002CF7D115F0FF0F04D0401CF7
:100210000278002AEDD1002030BD0146002000E028
:10022000401C0A5C002AFBD1704770B5064601F0FD
:10023000E5FD046805460A220021304600F035F845
:100240002C6070BD2DE9F05F0546002092469B466C
:1002500088460646814640241DE0284641464746DA
:10026000224600F07CF8B0EB0A0052465B4671EB88
:100270000B0110D310461946224600F061F82D1AE2
:1002800067EB01084F4622460120002100F058F894
:1002900017EB00094E41201EA4F10104DDDC4846A5
:1002A00031462A464346BDE8F09F2DE9F0470F4608
:1002B000914680460446002614F8015B2DB100F0FB
:1002C0005FF80068405DC007F6D12B2D02D02D2DC0
:1002D00018D0641E4A463946204600F055F827B12A
:1002E0003968A14201D1C7F8008071054FF00204BE
:1002F0000BD54042002803DD01F080FD0460A0071B
:10030000BDE8F08746F48066E4E70028F8DA01F0FB
:1003100075FD04606FF00040F2E70000064C074DE9
:1003200006E0E06840F0010394E8070098471034C5
:10033000AC42F6D3FFF700FF88530008A85300082B
:10034000202A04DB203A00FA02F100207047914095
:10035000C2F1200320FA03F3194390407047202A8A
:1003600004DB203A21FA02F00021704721FA02F35F
:10037000D040C2F120029140084319467047000066
:1003800000487047845300082DE9F05F8246044618
:1003900000780027641C8B461546B946302801D0EA
:1003A0009DB113E014F8010B0127782803D05828D9
:1003B00001D045B10AE00DB1102D07D1002710255D
:1003C00014F8010B02E0082500E00A250026B046DB
:1003D0000EE005FB080005FB06F1012701EB1046C6
:1003E0001FFA80F8B6F5803F00D3B94614F8010B28
:1003F000294600F017F80028EBDABBF1000F04D013
:10040000641E07B95446CBF80040B9F1000F06D07E
:1004100001F0F4FC02210160C81EBDE8F09F48EA2B
:100420000640FAE73A2800D2303820F02002412A6C
:1004300001D3A2F137004FF0FF32884200D20246CA
:100440001046704701460022014A0A44108870474E
:10045000006C00400AE006A001F0ACFC72B671B678
:100460004FF4FA6002F036FB00F0DCFDF3E7000029
:100470000D0A4552524F525F4255530D0A0000007B
:1004800010B5C82002F026FB012000F09FF840B113
:10049000012000F041F803A001F08CFC0120044988
:1004A000086010BD0D0A6B6579300D0A0000000070
:1004B0003000002010B5022000F088F828B102209A
:1004C00000F02AF801A001F075FC10BD0D0ABDF87E
:1004D000C8EBD6D0B6CF310D0A00000010B5082009
:1004E00000F074F828B1082000F016F801A001F01F
:1004F00061FC10BD0D0ABDF8C8EBC0B6D1C0D7B4C1
:10050000CCACB1E4BBAFD6D0B6CFA3A1A3A1A3A17D
:100510000D0A0000704700000149086070470000A4
:10052000140401401CB54FF40030FFF7F5FF4FF401
:100530000030009000208DF8040008208DF80500A0
:1005400001208DF80600684600F056F800210846A4
:1005500000F022FB0120FFF7DFFF012000900020C8
:100560008DF804000C208DF8050001208DF80600A0
:10057000684600F041F80121002000F00DFB022048
:10058000FFF7CAFF0220009000208DF804000C2025
:100590008DF8050001208DF80600684600F02CF863
:1005A0000321042000F0F8FA0820FFF7B5FF082027
:1005B000009000208DF8040010208DF80500012027
:1005C0008DF80600684600F017F81CBD01460020B3
:1005D0000022074B1B6803EA0102064BD3F81434D0
:1005E0000B4202D00AB1012000E000207047000059
:1005F0000004014000000140002127498279DAB35C
:10060000264AD2F8002403689A43244BC3F80024F6
:100610001A46D2F8042403689A4301F104031A60CD
:10062000027911440A68036842EA03020A601B4A1D
:10063000D2F80824036822EA0302184BC3F80824FE
:100640001A46D2F80C24036822EA0302144B1A60FB
:100650004279102A11D1114AD2F8082403681A43AA
:100660000E4BC3F808241A46D2F80C2403681A4328
:100670000A4BC3F80C240EE007E007494279114405
:100680000A6803681A430A6005E0027911440A689F
:1006900003689A430A60704700040140000001406B
:1006A0000C04014004200C49C96801F00101012932
:1006B00001D101200EE00849C96811F0040F01D0F2
:1006C000022007E00449C96811F0100F01D003208F
:1006D00000E0042070470000002002400348006949
:1006E00040F080000149086170470000002002408E
:1006F0000549096821F01001034A11601146096893
:10070000014311607047000000200240F0B504462C
:100710000D4604260027F00200F042F80646042E9B
:1007200022D11248006940F001001049086125807B
:10073000F00200F035F80646042E0ED1A71C280C56
:100740003880F00200F02CF806460848006941F6AF
:10075000FE7108400549086106E00448006941F659
:10076000FE710840014908613046F0BD002002409A
:1007700001460020034A106800F03800084310606A
:1007800070470000002002400248034948600348C7
:10079000486070472301674500200240AB89EFCDD8
:1007A00000B502460423FFF77DFF034603E0FFF791
:1007B00079FF0346521E012B01D1002AF7D102B95D
:1007C0000523184600BD000008B5012144F27D0054
:1007D00000F07AFC0121EC4800F066FC4FF6FF7057
:1007E000ADF8000000208DF8030003208DF8020012
:1007F0004FF40070ADF8000018208DF803000320BE
:100800008DF802006946E14800F0E6F94FF4806097
:10081000ADF8000004208DF803006946DB4800F0C5
:10082000DBF90420ADF8000018208DF80300032048
:100830008DF802006946D54800F0CEF90820ADF8E1
:10084000000004208DF803006946D04800F0C4F988
:100850004FF40060ADF8000004208DF803006946F5
:10086000CB4800F0B9F94FF48060ADF800001820D3
:100870008DF8030003208DF802006946C54800F09A
:10088000ABF94FF40060ADF8000004208DF80300D0
:1008900003208DF802006946BE4800F09DF94FF430
:1008A0008060ADF8000018208DF8030003208DF85B
:1008B00002006946B64800F08FF94FF40060ADF8C9
:1008C000000004208DF8030003208DF80200694623
:1008D000AF4800F081F903208DF802004FF400606A
:1008E000ADF8000048208DF803006946A74800F0E5
:1008F00073F94FF48050ADF8000018208DF8030014
:100900006946A24800F068F90820ADF80000102000
:100910008DF8030003208DF8020069469C4800F022
:100920005BF9002208219A4800F031FA1020ADF856
:1009300000008DF8030003208DF8020069469448FA
:1009400000F04AF900221021914800F020FA2020FE
:10095000ADF8000010208DF8030003208DF8020090
:1009600069468B4800F038F900222021884800F0C1
:100970000EFA0120ADF8000004208DF803000320DA
:100980008DF802006946814800F026F90120ADF893
:10099000000048208DF8030003208DF8020069460E
:1009A0007C4800F019F94FF40050ADF80000102019
:1009B0008DF8030003208DF802006946744800F0AA
:1009C0000BF901225103724800F0E1F91020ADF853
:1009D000000014208DF8030003208DF80200694602
:1009E0006A4800F0F9F801221021684800F0CFF9B8
:1009F0004020ADF8000010208DF8030003208DF892
:100A000002006946614800F0E7F8002240215F4893
:100A100000F0BDF90820ADF8000010208DF80300AB
:100A200003208DF8020069465A4800F0D5F80022EC
:100A30000821584800F0ABF94FF48050ADF80000A1
:100A400010208DF8030003208DF8020069465048FD
:100A500000F0C2F800224FF480514D4800F097F9A1
:100A60004FF40040ADF8000010208DF80300032083
:100A70008DF802006946464800F0AEF80122D10325
:100A8000434800F084F94FF48040ADF80000102096
:100A90008DF8030003208DF8020069463C4800F001
:100AA0009BF8012291033A4800F071F90220ADF859
:100AB000000010208DF8030003208DF80200694625
:100AC000324800F089F800220221304800F05FF936
:100AD0008020ADF8000048208DF8030003208DF839
:100AE000020069462A4800F077F84020ADF800007F
:100AF00010208DF8030003208DF802006946244879
:100B000000F06AF800224021214800F040F94FF43B
:100B10008070ADF8000010208DF8030003208DF8E0
:100B2000020069461A4800F057F800224FF480711D
:100B3000174800F02CF94FF40070ADF800001020B9
:100B40008DF8030003208DF802006946104800F07C
:100B500043F800224FF400710D4800F018F94FF4EB
:100B60000050ADF8000010208DF8030003208DF830
:100B700002006946074800F02FF800224FF40051A8
:100B8000044800F004F908BD02001E1A00080140E4
:100B9000000C01400010014030B500228B071C0FF3
:100BA0000F2303FA04F20B4B8C1053F824309343B9
:100BB000084C8D1044F8253023468C1053F824300F
:100BC0008C07240F00FA04F42343024C8D1044F8E0
:100BD000253030BD080001402DE9F04102460025D6
:100BE0000026002000230024002791F803C00CF009
:100BF0000F0591F803C01CF0100F03D091F802C04C
:100C00004CEA0505B1F800C01CF0FF0F31D01468A4
:100C100000202BE04FF0010C0CFA00F3B1F800C0FB
:100C20000CEA03069E4220D183004FF00F0C0CFA11
:100C300003F7BC4305FA03FC4CEA040491F803C033
:100C4000BCF1280F06D14FF0010C0CFA00FCC2F8E1
:100C500014C00AE091F803C0BCF1480F05D14FF071
:100C6000010C0CFA00FCC2F810C0401C0828D1D3BB
:100C70001460B1F800C0BCF1FF0F34DD54680020EF
:100C80002EE000F1080C4FF0010808FA0CF3B1F85F
:100C900000C00CEA03069E4221D183004FF00F0CE6
:100CA0000CFA03F7BC4305FA03FC4CEA040491F880
:100CB00003C0BCF1280F05D100F1080C08FA0CF8AC
:100CC000C2F8148091F803C0BCF1480F07D100F1BD
:100CD000080C4FF0010808FA0CF8C2F81080401C0C
:100CE0000828CED35460BDE8F0810000F0B50A4674
:100CF000002300240021002500F00046B6F1004F3B
:100D000002D11D4EF16901E01B4E7168C0F303452D
:100D100083B200F44016B6F5401F08D121F070618F
:100D2000154E766826F07066134F7E6012E000F470
:100D30008016B6F5801F06D1032606FA05F4A143F6
:100D400041F0706106E0460D360103FA06F6B14344
:100D500041F0706122B1460D360103FA06F63143C7
:100D600000F00046B6F1004F02D1034EF16101E000
:100D7000014E7160F0BD00000000014002460020FD
:100D800093680B4201D0012000E0002070470AB1B7
:100D9000016100E0416170470AE006A001F00AF835
:100DA00072B671B64FF4FA6001F094FE00F03AF9B1
:100DB000F3E700000D0A4552524F525F484152443A
:100DC0005F4641554C540D0A000000000AE006A0A1
:100DD00000F0F0FF72B671B64FF4FA6001F07AFEDF
:100DE00000F020F9F3E700000D0A4552524F525F20
:100DF0004D454D0D0A00000005A000F0DBFF72B666
:100E000071B64FF4FA6001F065FE00F00BF90000D6
:100E10000D0A4552524F525F4E4D490D0A000000D7
:100E200008B54FF4E06000F0F3F825208DF80000DD
:100E300002208DF8010000208DF8020001208DF8BD
:100E40000300684600F0A2F84FF4E06000F0E0F81C
:100E500026208DF8000000208DF801008DF802009A
:100E600001208DF80300684600F090F84FF4E06030
:100E700000F0CEF827208DF8000001208DF8010049
:100E800000208DF8020001208DF80300684600F074
:100E90007DF84FF4E06000F0BBF834208DF80000DE
:100EA00001208DF8010000208DF8020001208DF84E
:100EB0000300684600F06AF84FF4E06000F0A8F81C
:100EC00035208DF8000001208DF8010000208DF8FC
:100ED000020001208DF80300684600F057F84FF437
:100EE000C06000F095F829208DF8000000208DF8F2
:100EF00001008DF802008DF80300684600F046F806
:100F00004FF4C06000F084F806208DF80000002047
:100F10008DF801008DF802008DF80300684600F09E
:100F200035F84FF4C06000F073F807208DF800002A
:100F300000208DF801008DF802008DF8030068464E
:100F400000F024F84FF4C06000F062F809208DF83A
:100F5000000000208DF801008DF802008DF80300DC
:100F6000684600F013F84FF4A06000F051F81D201F
:100F70008DF8000000208DF801008DF802008DF83A
:100F80000300684600F002F808BD000070B50021BB
:100F900000230F22C4784CB31A4C246804F4E06494
:100FA000C4F5E0644FEA1421C1F1040322FA01F20E
:100FB000447804FA03F1847804EA020444EA010163
:100FC0004FEA0111104C0678A155047804F01F0572
:100FD0004FF0010404FA05F405784FEA65154FF067
:100FE000E02606EB8505C5F8004109E0047804F029
:100FF0001F050124AC40054D0678761145F82640C2
:1010000070BD00000CED00E000E400E080E100E0D5
:1010100002490143024A1160704700000000FA05CE
:101020000CED00E00848006800F4E060074940EA81
:10103000010000F104004FF0E021C1F80C0DBFF3F6
:10104000408F00BFFEE700000CED00E00000FA0555
:101050000848006800F4E060074940EA010000F138
:1010600004004FF0E021C1F80C0DBFF3408F00BF2A
:10107000FEE700000CED00E00000FA0505A000F01E
:1010800099FE72B671B64FF4FA6001F023FDFFF7D6
:10109000C9FF00000D0A4552524F525F50454E4461
:1010A00053560D0A0000000029B1064AD2690243D6
:1010B000044BDA6104E0034AD2698243014BDA61EE
:1010C000704700000010024029B1064A92690243AD
:1010D000044B9A6104E0034A92698243014B9A618E
:1010E000704700000010024010B500F03BF80120EE
:1010F00000F0FAF800BF212000F0C4F80028FAD070
:101100001020FFF7F5FA0220FFF732FB002000F075
:10111000DFF8002000F0FAF8002000F0EBF84FF4C0
:101120006011002000F004F9012000F0FBF800BF7E
:10113000392000F0A7F80028FAD0022000F006F9C4
:1011400000BF00F0BDF80828FBD1012144F27D006A
:10115000FFF7BAFF01210248FFF7A6FF10BD00000C
:1011600002001E1A0F48006840F001000D49086097
:10117000084640680C4908400A494860084600682B
:101180000A490840074908600846006820F48020A2
:1011900008600846406820F4FE0048604FF41F00D5
:1011A00088607047001002400000FFF8FFFFF6FE65
:1011B00030B500210022002400232D4D6D6805F07C
:1011C0000C0121B1042905D0082923D105E0294DBE
:1011D000056022E0274D05601FE0254D6D6805F490
:1011E0007012234D6D6805F48034022505EB9242A0
:1011F0001CB9214D554305600BE01D4D6D6815F47C
:10120000003F03D01C4D5543056002E0194D554386
:10121000056002E0174D056000BF00BF144D6D680A
:1012200005F0F0010909154D6B5C0568DD4045606E
:101230000F4D6D6805F4E061090A104D6B5C45685F
:10124000DD4085600A4D6D6805F46051C90A0B4D9B
:101250006B5C4568DD40C560054D6D6805F4404137
:10126000890B074D6B5CC568B5FBF3F5056130BDB7
:101270000010024000127A0000093D0042000020E8
:101280005200002010B501460022002300204A1120
:10129000012A02D1094C236806E0022A02D1074C38
:1012A000236A01E0054C636A01F01F0201249440A7
:1012B0001C4201D0012000E0002010BD00100240BF
:1012C0000248406800F00C00704700000010024027
:1012D00001460020034A506820F0F00008435060A7
:1012E000704700000010024001490860704700008C
:1012F0000000424201460020034A506820F4E060AA
:101300000843506070470000001002400146002072
:10131000034A506820F4605040EAC10050607047B2
:101320000010024001490866704700000000424278
:1013300002460020044B586820F47C1042EA010366
:101340001843014B586070470010024001460020CE
:10135000034A506820F003000843506070470000C3
:10136000001002407047704705A000F023FD72B6E0
:1013700071B64FF4FA6001F0ADFBFFF753FE0000C9
:101380000D0A4552524F525F5356430D0A0000005A
:101390002DE9F04104460F4616464FF49671174862
:1013A000FEF70BFF00201649086000250BE0615D89
:1013B000144800F06CFC00BF4021124800F09AFB7A
:1013C0000028F9D06D1C605D0028F0D101220821B1
:1013D0000D48FFF7DCFC304601F07CFB00220821C1
:1013E0000948FFF7D4FC39460448FEF700FF10B166
:1013F0000120BDE8F0810020FBE70000AC050020E3
:101400000400002000440040000C014010B500F032
:1014100001F810BD002100202E4A126842F48032EB
:101420002C4B1A6000BF2B4A126802F40030491C92
:1014300010B9B1F5A06FF6D1264A126812F4003F38
:1014400001D0012000E00020012842D1224A126888
:1014500042F01002204B1A601A46126822F0030272
:101460001A601A46126842F002021A60194A52685B
:10147000184B5A601A4652685A601A46526842F42B
:1014800080625A601A46526822F47C125A601A46E8
:10149000526842F4E8125A601A46126842F08072AA
:1014A0001A6000BF0B4A126812F0007FFAD0094A96
:1014B000526822F00302074B5A601A46526842F003
:1014C00002025A6000BF034A526802F00C02082A66
:1014D000F9D1704700100240002002407047000020
:1014E00010B51348006840F0010011490860084633
:1014F0004068104908400E494860084600680E4997
:1015000008400B4908600846006820F48020086005
:101510000846406820F4FE0048604FF41F008860D1
:10152000FFF774FF4FF000600449086010BD000031
:10153000001002400000FFF8FFFFF6FE08ED00E09B
:101540007047704721B1028842F00102028004E036
:1015500002884FF6FE731A400280704710B50821CA
:10156000244800F0C7FA30B10821224800F058F9A9
:10157000204800F087FB40F225511E4800F0C7FAD2
:1015800090B31C4800F07EFBC4B221461A4800F01C
:101590007EFB00BF4021184800F0ACFA0028F9D0CB
:1015A000164801680068401C144A106014484454EE
:1015B00000201349134A1268885410480068B0F597
:1015C000967F02D900200D4908600F480068042862
:1015D0000AD121460D4800F05AFB00BF40210B48BC
:1015E00000F088FA0028F9D02021084800F018F906
:1015F00010BD0000004C0040004800400C000020DE
:10160000EC0B0020080000201400002000380140EE
:1016100010B50821144800F06DFA30B108211248C5
:1016200000F0FEF8104800F02DFB40F225510E4866
:1016300000F06DFA90B10C4800F024FBC4B20B48E6
:10164000006805280AD12146094800F020FB00BFA8
:101650004021074800F04EFA0028F9D02021024826
:1016600000F0DEF810BD0000005000401400002023
:101670000038014010B50821164800F03BFA30B19F
:101680000821144800F0CCF8124800F0FBFA40F2B0
:101690002551104800F03BFAB8B10E4800F0F2FABC
:1016A0000D490870084601780C4802680068401C23
:1016B0000A4B18600A4881541846006840F21451D9
:1016C000884202D90020194608602021014800F014
:1016D000A7F810BD003801404000002000000020A5
:1016E0009800002010B50821204800F003FA30B11E
:1016F00008211E4800F094F81C4800F0C3FA40F29C
:1017000025511A4800F003FA78B3184800F0BAFAE5
:101710001749087008460178164802680068401C9E
:10172000144B18601448815400211A4612688154E1
:101730001846006840F21451884202D90020194628
:1017400008600E48006802280BD1094801780C484F
:1017500000F09DFA00BF4021094800F0CBF90028B5
:10176000F9D02021014800F05BF810BD0044004092
:101770004100002004000020AC05002014000020DF
:101780000038014010B501201F49086008211F489A
:1017900000F0B0F930B108211C4800F041F81B48B6
:1017A00000F070FA40F22551184800F0B0F948B343
:1017B000164800F067FAC4B21548006803280AD139
:1017C0002146144800F063FA00BF4021114800F0A0
:1017D00091F90028F9D0104801680068401C0E4AB1
:1017E00010600E4844540021126881540A48006871
:1017F000B0F5967F02D900200749086020210348F0
:1018000000F00EF810BD000020000020004800404D
:10181000140000200038014008000020C00A002009
:1018200001F40072B2F5007F00D100BFCA4302800C
:10183000704721B1828942F40052828104E082899A
:101840004DF6FF731A4082817047000000B585B0E5
:10185000012144F20400FFF737FC4FF40070ADF8AB
:10186000100018208DF8130003208DF8120004A931
:101870009748FFF7B1F94FF48060ADF810000420ED
:101880008DF8130003208DF8120004A99048FFF78B
:10189000A3F94FF4613000900020ADF80400ADF8DA
:1018A0000600ADF80800ADF80C000C20ADF80A00F9
:1018B0006946884800F07AF9012240F225518548AE
:1018C00000F04FF901218348FFF7B3FF01214804DD
:1018D000FFF7EAFB01210420FFF7F6FB0420ADF837
:1018E000100018208DF8130003208DF8120004A9B1
:1018F0007748FFF771F90820ADF8100004208DF843
:10190000130003208DF8120004A97148FFF764F951
:101910004FF4E13000900020ADF80400ADF806006F
:10192000ADF80800ADF80C000C20ADF80A006946CF
:10193000694800F03BF9012240F22551664800F069
:1019400010F901216448FFF774FF01218804FFF7B3
:10195000ABFB01210820FFF7B7FB4FF48060ADF827
:10196000100018208DF8130003208DF8120004A930
:101970005A48FFF731F94FF40060ADF81000282005
:101980008DF8130003208DF8120004A95348FFF7C7
:1019900023F94FF4164000900020ADF80400ADF894
:1019A0000600ADF80800ADF80C000C20ADF80A00F8
:1019B00069464B4800F0FAF8012240F225514848A8
:1019C00000F0CFF801214648FFF733FF0121C8049A
:1019D000FFF76AFB01211020FFF776FB4FF48060D0
:1019E000ADF8100018208DF8130003208DF81200B8
:1019F00004A93C48FFF7F0F84FF40060ADF8100080
:101A000004208DF8130003208DF8120004A9354836
:101A1000FFF7E2F84FF4165000900020ADF80400F4
:101A2000ADF80600ADF80800ADF80C000C20ADF8DC
:101A30000A0069462C4800F0B9F8012240F225510D
:101A4000294800F08EF801212748FFF7F2FE012116
:101A50000805FFF729FB01213020FFF735FB4FF484
:101A60008050ADF8100018208DF8130003208DF879
:101A7000120004A91B48FFF7AFF80420ADF81000CE
:101A80008DF8130003208DF8120004A91748FFF702
:101A9000A3F84FF4165000900020ADF80400ADF804
:101AA0000600ADF80800ADF80C000C20ADF80A00F7
:101AB00069460F4800F07AF8012240F225510C489F
:101AC00000F04FF801210A48FFF7B3FE05B000BD52
:101AD000000801400038014000440040000C014073
:101AE0000048004000100140004C0040001401403C
:101AF0000050004002460020B1F5007F00D100BF39
:101B000013880B4201D0012000E00020704770B51F
:101B100002460024002300250020A1F510666A3E3D
:101B200000D100BFC1F3421501F01F03012606FAE0
:101B300003F3012D02D19689334006E0022D02D134
:101B4000168A334001E0968A33400C12012606FAC9
:101B500004F41688344013B10CB1012000E00020D9
:101B600070BDF0B503460024002600250020A1F535
:101B700010676A3F00D100BF1846C1F3421401F05C
:101B80001F06012707FA06F5012C01D10C3004E0ED
:101B9000022C01D1103000E014301AB107682F4335
:101BA000076002E00768AF430760F0BD2DE9F0472A
:101BB00086B005460E460024A24600BFA146002777
:101BC000B08900B100BF2F462C8A4CF6FF7004404C
:101BD000F08804432C82AC894EF6F3100440B088A0
:101BE00031890843718908430443AC81AC8A4FF6BC
:101BF000FF400440B0890443AC8201A8FFF7D8FA43
:101C00001F48874202D1DDF810A001E0DDF80CA0EA
:101C1000A88910F4004F08D00AEBCA0000EB0A10A4
:101C200031684900B0FBF1F807E00AEBCA0000EBAD
:101C30000A1031688900B0FBF1F86420B8FBF0F0BD
:101C400004012009642101FB1089A88910F4004FC8
:101C500008D0322000EBC900B0FBF1F000F0070023
:101C6000044308E0322000EB09106421B0FBF1F0DE
:101C700000F00F0004432C8106B0BDE8F08700009F
:101C80000038014001468888C0F308007047C1F35E
:101C900008028280704770470AE006A000F08AF8C8
:101CA00072B671B64FF4FA6000F014FFFFF7BAF99C
:101CB000F3E700000D0A4552524F525F555341471A
:101CC000450D0A002DE9F04107460D4616461C4613
:101CD0003146284600F0EAFAA04206D015A000F0EE
:101CE00069F84FF0FF30BDE8F081324629463846AA
:101CF00001F0CFF8FF2240F214511D48FEF756FACA
:101D00004FF47A7000F0E6FE32461949384601F089
:101D1000B1F83146164800F0C9FAA04205D015A026
:101D200000F048F86FF00100DDE719A000F042F87C
:101D30000120D8E70D0A6275662064617461206332
:101D40007263206572726F72202C63757272656E99
:101D50007420646174612061626F72742C706C65B0
:101D60006173652072657472792121210D0A00006A
:101D7000EC1500200D0A7265616420666C61736861
:101D80002064617461206572726F723A0D0A0000FE
:101D90000D0A7772697465207265616420636865F5
:101DA000636B20666C617368206F6B2B2B2B2B2B66
:101DB0000D0A00000FB4054B10B503A9044A0298A0
:101DC00000F030F810BC5DF814FB0000252F00086F
:101DD000900000200FB4084B10B504A902AA039884
:101DE00000F020F8044602A9002000F059FA20462D
:101DF00010BC5DF814FB0000A122000800487047E9
:101E00009400002002E008C8121F08C1002AFAD17D
:101E100070477047002001E001C1121F002AFBD16A
:101E2000704700002DE9FF4F8DB005460F46002694
:101E3000EEE1252879D100246D1CF94AA246A1467D
:101E400001212B78203B01FA03F0104202D0044319
:101E50006D1CF6E728782A2810D06FF02F0228781A
:101E6000A0F13001092915D80AEB8A0102EB4101E2
:101E700044F0020400EB010A6D1CF0E757F804ABD4
:101E8000BAF1000F03DA44F40054CAF1000A44F036
:101E900002046D1C28782E2817D115F8010F44F084
:101EA00004042A280ED06FF02F022878A0F1300108
:101EB00009290AD809EB890102EB410100EB01096C
:101EC0006D1CF2E757F8049B6D1C28786C280FD026
:101ED00006DC4C2817D068280DD06A2814D104E0FD
:101EE000742810D07A280FD10DE044F400140AE0D1
:101EF00044F4801401E044F440146978814202D132
:101F00006D1C04F580146D1C95F800C0BCF16E0FBB
:101F10002AD012DCBCF1630F3CD007DCBCF1000F0F
:101F200076D0BCF1580F19D1ACE018E0BCF1640FC9
:101F30006FD0BCF1690F11D16BE0BCF1730F32D0DF
:101F400006DCBCF16F0F71D0BCF1700F06D19BE0C5
:101F5000BCF1750F6BD0BCF1780F69D06046DDE93C
:101F60000F129047761C52E1C4F30250022806D0AB
:101F700003280AD0042801CF0AD0066047E101CF28
:101F80004FEAE671C0E9006141E101CF06803EE120
:101F900006703CE101CF8DF8000000208DF80100B3
:101FA000EB46012003E057F804BB4FF0FF30610718
:101FB0004FF0000102D40DE008F1010188464945C7
:101FC0000FDA8045F8DB1BF808100029F4D108E08F
:101FD00008F1010188468142FADB1BF8081000294C
:101FE000F6D1DDE90F23AAEB08008146214600F077
:101FF00040F9304400EB080604E0DDE90F121BF85D
:10200000010B9047B8F10108F7D221464846F9E0A4
:1020100002E10A20C4F302524FF0000B0890022A9A
:1020200007D001CFC117032A09D00AE035E022E02A
:1020300023E0FF1D27F00707F7E8020105E000B2E3
:10204000C117042A01D140B2C117002906DA0023C2
:10205000D0EB030063EB01012D2202E0220504D541
:102060002B228DF82420012203E0E20701D0202258
:10207000F7E7904653E00A2110E010204FF0000BE4
:1020800008900EE0102109E010214FF0000B44F001
:1020900004044FF00809089103E008214FF0000BF9
:1020A0000891C4F30252022A04D001CF0021032A6E
:1020B00006D007E0FF1D27F00707F7E8020105E05B
:1020C00080B20021042A01D1C0B200214FF00008E3
:1020D000220724D5BCF1700F2AD0089B83F010038F
:1020E00053EA0B0309D150EA010206D030228DF8E1
:1020F00024208DF825C002229046089B83F0080317
:1021000053EA0B030BD150EA010201D1620706D555
:1021100030228DF824204FF00108A9F1010941A2D5
:10212000BCF1580F00D044A20B9208AA0A920FE00B
:1021300040228DF824200122DEE75B46089AFEF754
:1021400081F80B9B9B5C0A9AA2F101020A92137020
:1021500050EA0102F1D10A98ADEB000000F1200B2A
:10216000600702D524F4803401E04FF0010900201B
:1021700049465A46D94501DDA1EB020000EB0B01AF
:1021800041440890AAEB01000B90E00306D4DDE97E
:102190000F2321460B9800F06CF806444FF000091D
:1021A0000DF1240A07E0DDE90F121AF80900904743
:1021B000761C09F10109C145F5DBE0030CD5DDE929
:1021C0000F2321460B9800F054F8064404E0DDE9A3
:1021D0000F1230209047761C0899481E089000295D
:1021E000F5DC08E00A980A990078491C0A91DDE9B3
:1021F0000F129047761CBBF10001ABF1010BF1DC33
:102200000B982146DDE90F2300F020F806446D1CF1
:10221000287800287FF40DAE11B03046BDE8F08F6D
:1022200009280100303132333435363738394142EC
:1022300043444546000000003031323334353637F0
:102240003839616263646566000000002DE9F04181
:102250000446002517461E46880405D406E0394684
:102260002020B04705F10105641EF8D52846BDE8D9
:10227000F0812DE9F04104460025302790461E46A6
:10228000C80300D42027880405D506E04146384617
:10229000B04705F10105641EF8D52846BDE8F08178
:1022A0000A68531C0B60107070470000F0B5ADF564
:1022B000017D05460E464FF400720E4901A8FDF758
:1022C00063FF00240EE02046E11704EB1161C1F327
:1022D00007272006040C2878784001A931F810005F
:1022E00044406D1C3000A6F10106ECD120460DF5EE
:1022F000017DF0BD004F00082DE9F043ADF5017DF3
:1023000006460F4600254FF40072104901A8FDF75C
:102310003BFF002400BF11E0705900F0FF09204688
:10232000E11704EB1161C1F307282006040C88EAC9
:10233000090001A931F8100044406D1CBD42EBD3E7
:1023400020460DF5017DBDE8F08300000051000836
:1023500010B514210948FFF7A9FF04460748008873
:10236000A04208D005480188224605A0FFF722FDBB
:102370004FF0FF3010BD0120FCE70000440E0020AC
:10238000636F6E66696720637263203A2531305847
:10239000202531305800000070B504460A48E16835
:1023A000FFF7AAFF85B26089A84207D061892A4653
:1023B00006A0FFF7FFFC4FF0FF3070BD0BA0FFF74A
:1023C000F9FC0120F9E7000000A000080D0A6D618A
:1023D000696E2061707020637263206572726F7223
:1023E000203A255820202025580D0A000D0A6D613D
:1023F000696E2061707020637263206F6B0D0A003C
:1024000010B50848FFF7C8FF002802DA4FF0FF3088
:1024100010BDFFF79DFF002802DA4FF0FF30F7E70D
:102420000120F5E7E80E002038B50446042C00D85A
:102430002CB916A0FFF7BEFC4FF0FF3038BD224686
:1024400018A16846FFF7C6FC694617A0FFF7B2FC63
:102450004FF4C8721EA121A0FEF79AFF28B923A04D
:10246000FFF7A8FC4FF0FF30E8E769462648FDF784
:10247000BEFE28B1694625A0FFF79CFC0020DDE7E1
:10248000694624A0FFF796FC0120D7E771756572B5
:102490007920736F636B6574204944206572726F95
:1024A000720D0A00256400000D0A636865636B20E5
:1024B000736F636B65742025732073746174652B6F
:1024C0002B2B2B2B2B2B2B2B2B2B2B2B0D0A0000F1
:1024D0002B4D49504F50454E0000000041542B4DAC
:1024E00049504F50454E3F0D000000007175657218
:1024F0007920736F636B657420636D6420657272FD
:102500006F720D0A00000000AC05002063616E20B0
:102510006E6F742066696E642074686520736F63E3
:102520006B65743A25730D0A0000000070B5002534
:1025300000244FF4FA6000F0CDFA00BF35E002212C
:102540001C48FEF71BFC08B9641E00E0641C012255
:1025500008211948FEF71BFC012210211648FEF73E
:1025600016FC012220211448FEF711FC642000F023
:10257000B1FA01211148FEF701FC012801D1641EC6
:1025800000E0641C002208210B48FEF700FC00223A
:1025900010210948FEF7FBFB002220210648FEF728
:1025A000F6FB642000F096FA6D1C1E2DC7D320B2F6
:1025B00070BD000000100140000C01400008014007
:1025C0002DE9FF4F95B00E4617469846002400258A
:1025D000A146A2464FF47A71BB48FDF7EEFD1421E7
:1025E00010A8FDF7EAFD00BF00BFB9F1020F15DD2D
:1025F000B8F1010F07D1B5A0FFF7DCFB4FF0FF30BA
:1026000019B0BDE8F08FBAA0FFF7D4FB4FF0000976
:102610004FF47A7000F05EFA0020F1E709F1010949
:10262000379888B1BBA0FFF7C5FB402227A96846B1
:10263000FDF7AAFD23A80FC800F05AFA002803DC12
:10264000BBA0FFF7B7FBD0E74FF0000A00BF0AF1CD
:10265000010ABAF1020F05DDBAA0FFF7ABFB4FF09C
:10266000FF30CDE74FF47A719748FDF7A6FD0024BF
:102670002146B9A0FFF79EFB0FB3934A1421BC4833
:1026800001F0BEFD044604EBD4714910B4EB4101E6
:1026900003D0B8A0FFF78EFBD9E78B480219B1B27F
:1026A000159801F0ADFD204404B204EBD47149103B
:1026B000B4EB41011CD0B7A0FFF77CFBC7E7824811
:1026C000FDF7ABFD804900EB010B5A46B1B21598FE
:1026D00001F096FD204404B204EBD4714910B4EB30
:1026E000410105D0ABA0FFF765FB4FF0FF3087E756
:1026F000A34604EBD4704210ADA1B348FFF76AFBC8
:10270000B149B2A0FFF756FB4FF4FA72B5A1AE483B
:10271000FEF73EFE40F21451B348FDF74EFD002097
:10272000B24908601421B248FDF747FDB1A1B04895
:102730002F9AFFF74FFB6449B2A0FFF73BFB624AB9
:10274000AB49B4A0FFF736FB2221B748FFF79FFA49
:1027500000BF4021B448FFF7CDF90028F9D00D2182
:10276000B148FFF794FA00BF4021AF48FFF7C2F924
:102770000028F9D00A21AC48FFF789FA00BF4021B0
:10278000A948FFF7B7F90028F9D04F48FDF745FDF4
:1027900083469748FDF741FD23465A4601460F9070
:1027A000A2A0FFF707FB4FF47A7000F093F9142111
:1027B000A5A0FFF7FFFA2146A8A0FFF7FBFA002526
:1027C0000DE08B48405781B2A948FFF760FA00BF7F
:1027D0004021A748FFF78EF90028F9D06D1C8448E6
:1027E000FDF71BFDA842ECD800251AE036484057FB
:1027F00081B29F48FFF74BFA00BF40219C48FFF78A
:1028000079F90028F9D03048405781B28648FFF75F
:102810003EFA00BF40218448FFF76CF90028F9D048
:102820006D1CA542E2DB30219148FFF730FA00BF72
:1028300040218F48FFF75EF90028F9D044218C48E9
:10284000FFF725FA00BF40218948FFF753F9002818
:10285000F9D022218648FFF71AFA00BF40218448A8
:10286000FFF748F90028F9D00D218148FFF70FFA4A
:1028700000BF40217E48FFF73DF90028F9D07DA038
:10288000FFF798FA1BE0642000F024F955A15648A0
:10289000FDF7ADFC18B178A0FFF78CFA10E07DA130
:1028A0005148FDF7A4FC18B17CA0FFF783FA9CE621
:1028B0006D1C322D03DD82A0FFF77CFA00E0E2E719
:1028C00000BF01209CE60000E80F00200D0ACAFDB1
:1028D000BEDDD6D8B7A2CAA7B0DCD7B4CCACA3AC07
:1028E000B2BBB2B9B7A2CAFDBEDD0D0A000000003E
:1028F0000D0ACAFDBEDDD6D8B7A2CAA7B0DCA3AC0C
:10290000B4E6B4A2B5BDCAFDBEDD466C617368D63F
:10291000D00D0A000D0ABCECB2E9CDF8C2E7CAC777
:10292000B7F1D0E8D2AAD6D8C1AC0D0A0000000099
:102930000D0ACDF8C2E7D6D8C1ACCAA7B0DC0D0AE3
:10294000000000000D0A73747232486578206572C9
:10295000726F720D0A0000000D0A64617461206CD0
:10296000656E677468203A2025640D0A0000000037
:10297000F81300200D0A63686172207472616C6143
:10298000746520686561646572206572726F720D8E
:102990000A0000000D0A7472616E736C6174652028
:1029A00064617461206572726F720D0A000000002C
:1029B00041542B4D4950534554533D312C25642CE3
:1029C0003530300D00000000E41300200D0A73655F
:1029D0007420736F636B657420636D643A25730DA7
:1029E0000A0000004F4B0000AC050020040000204E
:1029F000D013002041542B4D495053454E443D25A2
:102A0000642C22000D0A6461746120203A25730D44
:102A10000A0000000D0A73656E6420636D64203A3D
:102A20002573257300000000003801400D0A636D16
:102A3000643A256420206275663A2564202064612A
:102A400074613A25640D0A000D0A636D6420736990
:102A50007A65203A25640D0A000000000D0A6275AF
:102A6000662073697A65203A25640D0A000000002B
:102A7000004400400D0A00000D0A46494E44205310
:102A8000454E44204F4B2C434F4E54494E55450D17
:102A90000A0000004552524F520000000D0A4649FC
:102AA0004E44204552524F522E474F544F205354BC
:102AB0004F524520414E44204552524F520D0A007C
:102AC0000D0A54494D45204F5554202C474F4F4E29
:102AD0000D0A0000002107E0002200E0521C43F232
:102AE000C8239A42FAD3491C8142F5D370470000AB
:102AF0000FB4FEB500256B48007878BB4FF47A70B0
:102B0000FFF7E8FF50216848FDF757FB2821674889
:102B1000FDF753FB09A9139B169A8DE80E0064A1DB
:102B20006148DDE91423FFF755F9012368A15F48E7
:102B3000149AFFF74FF95C4969A0FFF73BF95B492D
:102B40006CA0FFF737F9584965A0FFF733F95749EB
:102B500068A0FFF72FF90120524908701498FFF779
:102B600063FC002806DD68A0FFF724F90120FEBC05
:102B70005DF814FB68A0FFF71DF96DA0FFF71AF9C7
:102B800000BF032D08DD70A0FFF714F9012001F04C
:102B900089FB0025681EEAE76D1C00F0D3FBD0B36B
:102BA000002410E04FF47A7272A175A0FEF7F0FBDA
:102BB00000B10AE04FF47A7274A171A0FEF7E8FB4D
:102BC00000B102E0641C142CECDB00BF0E2C06DB11
:102BD00071A0FFF7EFF8002001F064FBD1E700F0EF
:102BE00091FC00F061FD002000F052FF002800DAA7
:102BF000C7E7002441E04FF4C8726DA16DA0FEF755
:102C0000C7FB4FF4FA6229492748FEF7C1FB6AA0C7
:102C1000FFF7D0F82EE03BE06BA16E48FDF7E7FA36
:102C200020B96DA16B48FDF7E2FAB8B16DA0FFF7CE
:102C3000C1F81498FFF7F8FB01280AD172A0FFF73A
:102C4000B9F875A0FFF7B6F879A0FFF7B3F801203F
:102C50008DE74FF47A70FFF73DFF0CE04FF47A7088
:102C6000FFF738FF78A0FFF7A5F8761C052E01DDE9
:102C7000002600E0D0E700BF641C0A2CBBDB092C57
:102C80000DDB72A0FFF796F8002001F00BFB78E750
:102C900073A0FFF78FF8002001F004FB71E701201B
:102CA00065E7000056000020700F0020C00F0020D4
:102CB00041542B4D49504F50454E3D25642C2564C1
:102CC0002C222573222C25642C25640D0000000085
:102CD0002B4D49504F50454E3A2025642C25640019
:102CE0000D0A736F636B657420636D64203A2573FE
:102CF0000D0A00000D0A736F636B657420737461B5
:102D000074653A25730D0A006E6574776F726B20D7
:102D10006F6B0D0A000000004E6574204572726FE3
:102D2000722C7265436F6E6E6563740D0A0000004D
:102D30000D0A65737461626C697368206E657477DF
:102D40006F726B0D0A0000000D0ACDF8C2E7D7A222
:102D5000B2E1CAA7B0DCB4CECAFDB9FDB6E02CC959
:102D6000E8B1B8B9CAD5CFA3ACC7EBBCECB2E90D9A
:102D70000A0000002B435245473A20302C31000016
:102D800041542B435245473F0D0000002B43524511
:102D9000473A20302C3500000D0A53494D39303068
:102DA000CDF8C2E7D7A2B2E1CAA7B0DC0D0A000095
:102DB0004F4B000041540D000D0A77616974696E34
:102DC00067206E65740D0A002B4D495053544154D1
:102DD00000000000AC0500202B4D49504F50454EDF
:102DE000000000000D0A6F70656E20636D64206F37
:102DF0007665722C626567696E20636865636B2017
:102E000073746174650D0A000D0A73636F6B6574EA
:102E1000206F6B0D0A0000000D0A53494D39303008
:102E2000207265636F6E6E656374204F4B0D0A00F0
:102E30000D0A53454E44204F4E4C494E45204D45BA
:102E400053534147450D0A002B2B2B000D0A5349C4
:102E50004DCDF8C2E7BDA8C1A2CAA7B0DC0D0A00DB
:102E60000D0A53494D393030C6F4B6AFCAA7B0DCAD
:102E70000D0A000010B50346002000BF03E01C58F7
:102E80000C54441CA0B29042F9DB10BD0246012054
:102E900070472DE9F04180460F461446FDF774FC5B
:102EA000E11704EB91718910B4EB81011BD000256F
:102EB00004E0FF2079190855681C85B2E11704EB7E
:102EC00091718910A4EB8101C1F10401A942F0DCE8
:102ED0002046E11704EB91718910A4EB8101C1F147
:102EE000040121448CB2002515E000267819C07831
:102EF00006433602781980780643360278194078FE
:102F000006433602785D064308EB05003146FDF7BF
:102F1000FDFB281D85B2A542E7DBFDF7DFFBBDE821
:102F2000F081000070B504460D46E1B20548FEF799
:102F3000AEFE00BF80210348FEF7DCFD0028F9D07B
:102F4000204670BD0038014010B5FEF7CDF80121D4
:102F50000548FDF7CBFEFDF737FCFEF777FCFDF7E4
:102F6000E1FAFDF75DFF10BD0004300010B500F080
:102F700059F8FFF7DBFA10F1050F0ADA01220821F0
:102F80001848FDF704FF4FF4FA60FFF7A3FD01F0C6
:102F90007FFEFFF735FA002807DB1020FDF752FA15
:102FA000112802D0FFF7D4F930B1012220210D48B9
:102FB000FDF7EDFE01F0B8FA0BA0FEF7FBFE72B6CE
:102FC00071B64FF4FA60FFF785FD14484468144861
:102FD000046012490868FDF7BEF811480068804790
:102FE00010BD0000000C01400D0A676F20746F20B7
:102FF0006F6264206170702B2B2B2B2B2B2B2B2BB8
:103000002B2B2B2B2B2B2B2B2B2B2B2B2B2B2B2B10
:103010002B2B2B2B2B2B2B2B2B0D0A0000A000086E
:103020008C000020704700003EB526A207CA8DE83C
:103030000700FFF789FF00F089FB4FF4FA60FFF704
:1030400049FD0A216846FFF731F90446014620A0F0
:10305000FEF7B0FE4FF4FA60FFF73CFD4FF49672B6
:1030600020492148FFF706FF1E4800F05FFE4FF49D
:1030700096721C491D48FFF7FDFE1A4800F056FEE7
:1030800000F042F802201A4908601AA0FEF792FEEA
:10309000012208211B48FDF77AFE01221021194860
:1030A000FDF775FE012220211648FDF770FE01F0A4
:1030B0003BFAFFF75BFF40F6B830FFF70BFD00204F
:1030C0003EBD000046464646464646464646000049
:1030D0000D0A6372632074657374203A25580D0AD3
:1030E00000000000440E002000E8030800EC030884
:1030F000140000200D0A6C69676874206C65640D0B
:103100000A000000000C014010B5012208215C48B3
:10311000FDF73DFE012210215948FDF738FE01223E
:1031200020215748FDF733FE40F6B830FFF7D2FCB8
:1031300054484088A0F5AA41553904D152A0FEF761
:1031400039FE012010BD01205549086055A0FEF749
:1031500031FE5BA0FEF72EFE01216148FEF769FB00
:1031600001F01EF800BF00F0EDF80028FBD04FF48E
:10317000FA725CA15CA0FEF70BF94FF4FA7259A148
:1031800059A0FEF705F900F04FF900215748FEF766
:10319000D9F900215648FEF74CFB01215048FEF7B3
:1031A00048FB00F0ADF86AE04FF496715148FDF726
:1031B00004F800205049086000240BE02A21484808
:1031C000FEF765FD00BF40214548FEF793FC00284F
:1031D000F9D0641C042CF1DB7C214148FEF757FD3B
:1031E00000BF40213E48FEF785FC0028F9D00024AE
:1031F0000CE04248015D3A48FEF749FD00BF40211E
:103200003748FEF777FC0028F9D0641C0F2CF0DB60
:103210007C213348FEF73BFD00BF40213048FEF7DC
:1032200069FC0028F9D031212D48FEF730FD00BFA0
:1032300040212B48FEF75EFC0028F9D031212848B8
:10324000FEF725FD00BF40212548FEF753FC00286E
:10325000F9D023212248FEF71AFD00BF4021204863
:10326000FEF748FC0028F9D04FF47A70FFF732FCE3
:10327000012000F00DFB4FF4FA60FFF72BFC93E701
:10328000000C0140440E00200D0A646576696365F8
:103290002073746172742E2E2E2E2E2E2E0D0A0087
:1032A000140000200D0A6D61737350726F647563B2
:1032B00074696F6E2E2E2E2E2E2E2E0D0A000000FB
:1032C0000D0A64657669636520696E69742E2E2E19
:1032D0002E2E2E2E2E2E2E2E2E2E2E2E0D0A0000AF
:1032E000003801404F4B000041540D0000040040E5
:1032F000004400409800002000000020AC15002091
:103300001FB54FF4613000900020ADF80400ADF817
:103310000600ADF80800ADF80C000C20ADF80A006E
:1033200069460748FEF742FC012240F22551044855
:10333000FEF717FC01210248FEF77BFA1FBD0000D3
:103340000038014010B54FF4FA721AA11AA0FEF726
:103350001FF860BB19A0FEF72DFD4FF4FA60FFF7D0
:10336000B9FB4FF4FA7213A113A0FEF711F8C8B914
:1033700017A0FEF71FFD00F013FF4FF4FA60FFF7F0
:10338000A9FB4FF4FA720BA10BA0FEF701F820B1D4
:1033900014A0FEF70FFD012010BD1AA0FEF70AFDD4
:1033A0000020F9E70FA0FEF705FD0120F4E701205A
:1033B000F2E700004F4B000041540D000D0A466932
:1033C000727374204154206661696C0D0A0000001C
:1033D0000D0A5365636F6E64204154206661696C09
:1033E0000D0A00000D0A504F5745525F53494D39A1
:1033F0003030204F4B202C52455455524E20310D29
:103400000A0000000D0A494E20504F5745525F53A5
:10341000494D393030204641494C2052455455528F
:103420004E20300D0A0000003EB500241221224833
:10343000FCF7C3FE4FF47A7220A121A0FDF7A8FF8C
:1034400020B922A0FEF7B6FC601E3EBD1BA1244899
:10345000FCF7CDFE0546133D002404E0285D164927
:103460000855601C84B20F2CF8DB13491DA0FEF731
:10347000A1FC1148016800918188ADF804108079A1
:103480008DF806006846FCF7D0FE0B4988630020E3
:10349000009001900290C91D6846FCF79AFE6846AC
:1034A000FCF7C3FE0449C8630846C26B816B10A0D9
:1034B000FEF780FC0120C8E7AC1500204F4B000050
:1034C00041542B4347534E0D000000000D0A676521
:1034D000742069656D69206572726F720D0A000053
:1034E000AC0500200D0A696D65693A25730D0A0067
:1034F0000D0A69656D69203A2564202025640D0A4E
:103500000000000070B509212948FCF756FEC822CA
:1035100028A129A0FDF73CFF4FF4FA70FFF7DAFA73
:10352000C82224A127A0FDF733FF4FF4FA70FFF75C
:10353000D1FA27A12848FCF75AFE0546287B3028F7
:1035400002DB287B392805DD287B412821DB287B0D
:103550005A281EDC012405E02819C27A601E14498D
:103560000A54641C052CF7DB082405E02819C27AEC
:10357000201F0F490A54641C0C2CF7DBC8220DA134
:1035800016A0FDF705FF0A4917A0FEF713FC01205E
:1035900070BD002403E0302105480155641C082C4F
:1035A000F9DBC82203A10DA0FDF7F2FE0020EFE732
:1035B000D01500204F4B000041542B435245473D4E
:1035C000320D000041542B435245473F0D0000008F
:1035D0002B435245473A0000AC05002041542B4391
:1035E0005245473D300D00000D0A63656C6C6964FF
:1035F000206973203A25730D0A00000070B51E483B
:103600000021C0F81510A0F819104FF4FA721BA190
:103610001BA0FDF7BDFE1DA11E48FCF7E8FD0446FA
:10362000E079302825DBE079392822DC207A30283F
:103630001FDB207A39281CDC607A302819DB607A9D
:10364000392816DCA07A302813DBA07A392810DC60
:10365000002505E0E01D415D0748153041556D1C12
:10366000052DF7DB044915310BA0FEF7A3FB012064
:1036700070BD0020FCE70000AC1500204F4B00009F
:1036800041542B43494D490D0000000043494D4929
:1036900000000000AC0500200D0A63696D69093A5D
:1036A00025730D0A0000000010B54FF47A721DA1B9
:1036B0001DA0FDF76DFE1EA11F48FCF798FD0446F6
:1036C000E0792C2812D1A07930280FDBA079392895
:1036D0000CDC302019498874A1791848C17400F1B4
:1036E000120117A0FEF766FB012010BDA07930285B
:1036F00015DBA079392812DCE07930280FDBE0797E
:1037000039280CDCA0790D498874E1790B48C17423
:1037100000F112010AA0FEF74DFB0120E5E70020B1
:10372000E3E700004F4B000041542B4353510D0081
:103730002B4353513A000000AC050020AC1500208B
:103740000D0A637371093A25730D0A0008B545F235
:1037500055514448A0F8561043A15830FCF739FDA4
:1037600000214048C0F880100121C0F8841041F2C7
:103770008831C0F8881042F22831C0F88C105630D9
:103780004E21FEF793FD00B23649A1F8540045F2F0
:1037900055513448C18034A10830FCF71AFD01218D
:1037A00030480163416341F28831816342F229313B
:1037B000C163801D4E21FEF779FD00B22949888042
:1037C0004FF416412748C0F8D0102DA1D430FCF793
:1037D00000FD2DA12348E830FCF7FBFC2148CE304A
:1037E0004221FEF763FD00B21E4988804FF4164166
:1037F0001C48C0F8141100F589701A21FEF756FD17
:103800001849A1F8100145F25550088001211548CA
:1038100080F8AA1080F8AB10FF21A0F8AC1045F298
:103820005551A0F8AE1043F23901C0F8B0102A206B
:103830000C4981F8A4002A210A4880F8A5100E211D
:10384000AA30FEF733FD0749A1F8A60001F58873F9
:103850000093443B01F1A4025431084601F0CEF834
:1038600008BD0000440E0020696E2E70686F6E6502
:1038700077696E6773746563682E636F6D0000000F
:103880004F42445F32000000303030300000000012
:1038900070B5C2B0064670A17148FCF7A8FC04469A
:1038A00084B300250BE0615D6E48FEF7F0F900BFC0
:1038B00040216C48FEF71EF90028F9D06D1C204607
:1038C000FCF7ABFCA842EED8241D002504E02078CC
:1038D0003DA94855641C6D1C20787C28F7D1641CD8
:1038E000002505E0207841B227A84155641C6D1CD5
:1038F00020787C28F6D1641C00203A903B903C90C4
:10390000002505E054E020783AA94855641C6D1C58
:1039100020787C28F7D13AA8FCF787FC3490641C07
:10392000002505E0207841B213A84155641C6D1CA8
:1039300020787C28F6D1641C00203A903B903C9083
:10394000002504E020783AA94855641C6D1C2078B5
:103950007C28F7D13AA8FCF768FC2090641C00256D
:1039600004E0217803A84155641C6D1C20787C2854
:10397000F7D1641C002504E0217808A84155641C97
:103980006D1C20787C28F7D1641C00203A903B9075
:103990003C90002504E020783AA94855641C6D1C31
:1039A00020782328F7D13AA8FCF73FFC029001E0E9
:1039B00042B070BD40F6B830FFF78CF80020ADF88B
:1039C0009A0031900120329041F2883033900DF10D
:1039D0009A004E21FEF76AFC00B2ADF89800002074
:1039E000ADF84A0001201D901E9041F289301F90D1
:1039F0000DF14A004E21FEF759FC00B2ADF8480027
:103A00004E210DF10600FEF751FCADF80400002335
:103A1000009301AB002226A912A800F0EFFF12A02C
:103A2000FEF7C8F972B671B64FF47A70FFF752F824
:103A300000BF1548006800F4E060144940EA010046
:103A400000F104004FF0E021C1F80C0DBFF3408FEE
:103A500000BF00BFFEE700002A2A2A2A000000005B
:103A600098000020003801400D0A434F4E46494758
:103A700020555044415445204F4B202C5245424F35
:103A80004F540D0A000000000CED00E00000FA05A4
:103A900070B504460025FFF7B1FD4FF4FA7242A15C
:103AA00044A0FDF775FC38B94648016846A0FEF70A
:103AB00081F94448006870BD4A48FCF7B6FB0546EA
:103AC000294649A0FEF776F9A5F53340B0380B2812
:103AD00064D2DFE800F00622075E63636308636375
:103AE000230000BF00BF43A0FEF764F954B946A00D
:103AF000FEF760F94FF4FA7248A149A0FDF748FCBF
:103B00000120D8E74CA0FEF755F94FF4FA7243A113
:103B10004EA0FDF73DFC0220CDE700BF51A0FEF70F
:103B200049F9032C06D0042C0FD0052C18D0062CF4
:103B30002CD120E050A0FEF73DF94FF4FA7237A1E6
:103B400052A0FDF725FC0320B5E756A0FEF732F999
:103B50004FF4FA7231A158A0FDF71AFC0420AAE72D
:103B600045A0FEF727F94FF4FA722CA158A0FDF7F3
:103B70000FFC05209FE740A0FEF71CF94FF4FA72F6
:103B800026A159A0FDF704FC062094E74FF0FF3072
:103B900091E75BA0FEF70EF907208CE75EA0FEF729
:103BA00009F94FF0FF3086E72B4D495043414C4C0B
:103BB0003A20300041542B4D495043414C4C3F0D6D
:103BC00000000000840000200D0A61706E20736503
:103BD00074206F6B202C74797065203A25640D0A6F
:103BE00000000000C11500200D0A63696D693A25C7
:103BF000640D0A000D0A73696D20747970653A636B
:103C00006D63630D0A0000000D0A73657420617016
:103C10006E20636D7761700D0A0000004F4B00004D
:103C200041542B4D495043414C4C3D312C22434D86
:103C3000574150220D0000000D0A73657420617019
:103C40006E20636D6E65740D0A00000041542B4DAB
:103C5000495043414C4C3D312C22434D4E4554225A
:103C60000D0000000D0A73696D20747970653A7556
:103C70006E69636F6D0D0A000D0A736574206170C3
:103C80006E20756E697761700D0A000041542B4DEE
:103C9000495043414C4C3D312C22554E49574150DF
:103CA000220D00000D0A7365742061706E20756E20
:103CB000696E65740D0A000041542B4D4950434113
:103CC0004C4C3D312C22554E494E4554220D00009E
:103CD00041542B4D495043414C4C3D312C223347EC
:103CE000574150220D00000041542B4D4950434193
:103CF0004C4C3D312C2233474E4554220D000000E0
:103D00000D0A73696D20747970653A74656C65632A
:103D10006F6D0D0A0000000073696D207479706585
:103D2000203A756E6B6E6F776E00000070B50446BA
:103D300000257148FEF73EF8218870A0FEF73AF89A
:103D4000618873A0FEF736F876A0FEF733F8B4F971
:103D5000041079A0FEF72EF8B4F906107BA0FEF748
:103D600029F804F108017EA0FEF724F881A0216B58
:103D7000FEF720F884A0616BFEF71CF887A0A16B0A
:103D8000FEF718F889A0E16BFEF714F88BA0FEF798
:103D900011F800BF06E004F14000415D8CA0FEF781
:103DA00009F86D1C142DF6DB8AA0FEF703F8B4F9B0
:103DB00054108DA0FDF7FEFFB4F956108EA0FDF74C
:103DC000F9FF04F1580190A0FDF7F4FF802001599C
:103DD00091A0FDF7EFFF8420015994A0FDF7EAFFC1
:103DE0008820015996A0FDF7E5FF8C20015999A084
:103DF000FDF7E0FF71A0FDF7DDFF002506E004F10F
:103E00009000415D72A0FDF7D5FF6D1C142DF6DB0F
:103E100095A0FDF7CFFF04F1A40197A0FDF7CAFF1D
:103E2000A620015B99A0FDF7C5FFAA20015D9CA01B
:103E3000FDF7C0FFAB20015D9EA0FDF7BBFFAC20EE
:103E4000015BA0A0FDF7B6FFAE20015BA2A0FDF7CD
:103E5000B1FFB0200159A5A0FDF7ACFFA8A0FDF768
:103E6000A9FFB4F8CC1034A0FDF7A4FFCE20015B6D
:103E7000A8A0FDF79FFF04F1D401ABA0FDF79AFFC6
:103E800004F1E801ADA0FDF795FFD0200159B0A0E5
:103E9000FDF790FF49A0FDF78DFF002506E004F532
:103EA0008C70415D4AA0FDF785FF6D1C142DF6DB7B
:103EB000ACA0FDF77FFFB4F8101174A0FDF77AFFF6
:103EC0004FF48970015BACA0FDF774FF4FF48A706A
:103ED0000159AEA0FDF76EFF38A0FDF76BFF00257E
:103EE00006E004F58C70415D39A0FDF763FF6D1CA1
:103EF000142DF6DB70BD00009C4E00080D0A4352E5
:103F000043092020202020093A25580D0A000000EE
:103F10000D0A464C41472020202020093A25580D03
:103F20000A0000000D0A0D0A4E455420534F434B22
:103F300045540D0A000000000D0A43524320202082
:103F40002020093A0925580D0A0000000D0A464CA8
:103F500041472020202020093A0925580D0A000059
:103F60000D0A495020202020202020093A092573DD
:103F70000D0A00000D0A5544505443502020093AC0
:103F80000925580D0A0000000D0A534F434B4554B4
:103F90002009093A0925580D0A0000000D0A4C5065
:103FA0004F525409093A0925640D0A000D0A44507C
:103FB0004F525409093A0925640D0A000D0A524569
:103FC00053455256454420444154413A0D0A00009D
:103FD000253358000D0A0D0A49415020534F434BD9
:103FE00045540D0A000000000D0A43524320090900
:103FF0003A0925580D0A00000D0A464C41470909A7
:104000003A0925580D0A00000D0A49500909093AD4
:104010000925730D0A0D0A000D0A554450544350EA
:10402000202020093A0925580D0A00000D0A534F97
:10403000434B45542020093A0925580D0A00000039
:104040000D0A4C504F525420202020093A0925587F
:104050000D0A00000D0A44504F5254202020200920
:104060003A0925580D0A00000D0A0D0A4941502051
:1040700042524946450D0A000D0A535441525420FC
:104080002009093A0925730D0A0000000D0A435260
:104090004320202009093A0925580D0A0000000094
:1040A0000D0A48562020202009093A0925580D0AF2
:1040B000000000000D0A535620202009093A092566
:1040C000580D0A000D0A5041434B5F4E554D093AB9
:1040D0000925640D0A0000000D0A4352435F415058
:1040E000502020093A0925580D0A00000D0A5349AD
:1040F0005A455F415050093A0925580D0A00000001
:104100000D0A0D0A424C554520434F4E4649470D76
:104110000A0000000D0A4F54484552202020093A59
:104120000925580D0A0000000D0A4E414D4520207A
:104130002009093A0925730D0A0000000D0A5041B3
:10414000535320202009093A0925730D0A00000065
:104150000D0A626175647261746520093A09255817
:104160000D0A00000D0A0D0A4F424420434F4E46EF
:1041700049470D0A000000000D0A464C4147202027
:104180002020093A0925580D0A0000000D0A424175
:1041900055445241544520093A0925580D0A00005A
:1041A00010B540F6B830FEF795FC0EA0FDF702FE04
:1041B000002240211048FCF7EAFD012251030F487C
:1041C000FCF7E5FD4FF47A70FEF784FC00224FF413
:1041D00000510A48FCF7DBFD40F6B830FEF77AFCE8
:1041E00010BD00000D0A4F50454E2053494D393047
:1041F000302E2E2E2E0D0A0000080140000C01402A
:104200002DE9F84305460E4617460024A0464FF018
:10421000300905B137B91AA0FDF7CCFD4FF0FF30DA
:10422000BDE8F8831BA0FDF7C5FD002405E0295D6E
:1042300019A0FDF7BFFD601C04B2B442F7DB15A066
:10424000FDF7B8FD002417E02A5D15A16846FDF7CB
:10425000C1FD28570F2805DC2857002802DB302035
:104260008DF8000069463846FBF7B3FF08F10200FD
:104270000FFA80F8601C04B2B442E5DB4046CFE799
:104280000D0A737472696E6720696E6974206572B5
:10429000726F72210D0A00002534642000000000B6
:1042A0002532580070B50546002419A0FDF782FD9F
:1042B00000BF26E0012208211A48FCF768FD012210
:1042C00010211848FCF763FD012220211548FCF756
:1042D0005EFD4FF4FA70FEF7FDFB00220821114845
:1042E000FCF755FD002210210E48FCF750FD00227E
:1042F00020210C48FCF74BFD4FF4FA70FEF7EAFB67
:10430000641C0A2CD6DB08A0FDF754FD002070BD0C
:104310000D0A4572726F722068616E646C650D0AD9
:1043200000000000000C01400D0A73797374656D84
:10433000206572726F720D0A000000002DE9F047CF
:104340009AB080468A46174600250026781E4249C4
:104350004A1402FB0019002016901790189019902B
:104360002322022116A8FBF721FFADF85C700C2177
:1043700017A8FDF79BFFADF85A00002350224146D5
:1043800001A81593FBF700FF00231A46102116A879
:104390000093FEF715F94FF4FA60FEF79BFB2FA18F
:1043A0002F48FBF724FF0546F5BB2C4661882DA05E
:1043B000FDF700FDB4F904102FA0FDF7FBFC6189A7
:1043C00032A0FDF7F7FC218935A0FDF7F3FC1021A1
:1043D000201DFDF76BFF618888422AD135A0FDF7CB
:1043E000E9FC251D2389628929464846FDF76AFCB8
:1043F000002806DA36A0FDF7DDFC701E1AB0BDE815
:10440000F08700260EE0A95737A0FDF7D3FC0A205D
:1044100096FBF0F100FB116010B934A0FDF7CAFC67
:10442000701C06B2608900E00DE0B042EBDC0120B8
:10443000E4E72FA0FDF7BEFC4FF4FA60FEF74AFB5D
:104440004FF0FF30DAE72EA0FDF7B4FC4FF47A709E
:10445000FEF740FB00BFD1E700A0000823230000C7
:10446000AC0500200D0A637263202020202020204C
:104470003A25640D0A0000000D0A696E6465782013
:10448000202020203A25640D0A0000000D0A6C65EA
:104490006E677468202020203A25640D0A00000011
:1044A0000D0A637263446174612020203A25640D13
:1044B0000A0000000D0A676574206961702062724D
:1044C0006966652064617461206F6B0D0A000000ED
:1044D0000D0A777269746520666C61736820657275
:1044E000726F720D0A000000253358000D0A00009B
:1044F0000D0A637263206572726F720D0A0000000C
:104500000D0A6765742064617461206572726F7250
:104510002C7768657468657220746F207265436FCC
:104520006E6E6563740D0A0098B0002400250026A5
:104530006D1C02205549086000BF40F214515448D8
:10454000FBF73BFEFFF72CFE40F6B830FEF7C2FA51
:1045500050A14F48FBF74BFE20B952A14C48FBF746
:1045600046FE30B151A0FDF725FC0120FFF79AFE71
:10457000E3E74FF4FA7253A153A0FCF709FF4FF49D
:10458000FA7250A150A0FCF703FFFEF74DFF232263
:10459000022115A8FBF70AFE76E04C49D1F8840009
:1045A000FDF742FF00283CDD49A0FDF703FC214652
:1045B0004FA0FDF7FFFB4FF47A70FEF78BFA22B2A3
:1045C0004249A431A1F15000FFF7B8FE002800DAFB
:1045D0005AE0601C84B23D48B0F8AC00A04252DA08
:1045E00010A8FDF7D9FE00284DDA48A0FDF7E2FB40
:1045F00072B671B64FF4FA60FEF76CFA00BF494824
:10460000006800F4E060484940EA010000F104005D
:104610004FF0E021C1F80C0DBFF3408F00BF00BF89
:10462000FEE700262CE041A0FDF7C4FB07E0294689
:1046300044A0FDF7BFFB4FF47A70FEF74BFA40221F
:10464000224964316846FBF79FFD204854300FC86B
:10465000FEF74EFA0028EADD1C49A431A1F1500012
:1046600000F088F8002808DA3EA0FDF7A3FB4FF41D
:10467000FA60FEF72FFA002601E04FF47A76761CF6
:10468000B6F5FA7FCFDB00BF87E7000014000020FB
:10469000AC0500204E4F5420494E534552544544DA
:1046A0000000000052454D4F564500000D0A736949
:1046B0006D2063617264206E6F7420696E73657221
:1046C000740D0A004F4B000041540D00440E0020B1
:1046D0006E6574776F726B206F6B2C626567696EA5
:1046E000206765742061707020646174650D0A0034
:1046F00043555252454E54204441544120494E4462
:104700004558203A25640D0A000000000D0A61702A
:104710007020637263206572726F722E72657365AA
:10472000740D0A000CED00E00000FA054E657420DF
:104730004572726F722C7265436F6E6E6563740D95
:104740000A0000000D0A65737461626C6973682069
:104750006E6574776F726B206661696C203A2564B0
:104760000D0A00000D0A736C656570203220730D10
:104770000A0000002DE9F0439BB0074688464FF041
:1047800000090025002654A0FDF714FB56A0FDF7F4
:1047900011FB00BFB9F1030F07DD58A0FDF70AFBBD
:1047A0004FF0FF301BB0BDE8F08309F101000FFAB4
:1047B00080F900201790189019901A902322022156
:1047C00017A8FBF7F3FC53A0FDF7F4FA0020ADF8AF
:1047D00060005248806B19905048C06B1A900120BD
:1047E0008DF862008DF86300BDF85E10481C0A2148
:1047F000FDF75CFDADF85E0049A0FDF7DBFA002691
:1048000005E017A881194AA0FDF7D4FA761C102EEE
:10481000F7D301235022394601A81593FBF7B4FCC6
:1048200000231A46102117A80093FDF7C9FE41F294
:104830008830FEF74FF93FA13F48FBF7D8FC05460B
:104840003EA0FDF7B7FA002605E03B48815D38A0A1
:10485000FDF7B0FA761C322EF7DB27A0FDF7AAFA97
:104860008DB32C4661883AA0FDF7A4FAA1793CA04B
:10487000FDF7A0FAE1793EA0FDF79CFA218940A05E
:10488000FDF798FA618942A0FDF794FA44A0E16827
:10489000FDF790FA0E21201DFDF708FD698888427A
:1048A00009D1142221464046FBF76EFC40A0FDF7DB
:1048B00081FA012076E745A0FDF77CFA4FF4FA6013
:1048C000FEF708F966E7FFE744A0FDF773FA4FF437
:1048D000FA60FEF7FFF85DE70D0A54435020535489
:1048E0004152540D0A0000000D0A73656E64206881
:1048F0006561646572206F6B0D0A00000D0A6361CB
:104900006E2C74206765742069617020627269661C
:10491000650D0A000D0A0D0A00000000AC1500200C
:104920000D0A62756666657220646174613A000002
:104930002533580023230000AC0500200D0A5349FD
:104940004D20425546464552203A0D0A00000000CF
:104950000D0A6372632020203A25580D0A000000DA
:104960000D0A6876202020203A25580D0A00000004
:104970000D0A7376202020203A25580D0A000000E9
:104980000D0A7061636B65743A25580D0A000000CA
:104990000D0A6F74686572203A25580D0A000000F0
:1049A0000D0A73697A6520203A25580D0A00000027
:1049B0000D0A6765742069617020627269666520FE
:1049C00064617461206F6B0D0A0000000D0A637250
:1049D00063206572726F720D0A0000000D0A6E6F1F
:1049E0002062726966652064617461207265747505
:1049F000726E202C6572726F720D0A002DE9F04FF5
:104A0000CDB00546884616461F46DDF858914FF052
:104A1000000A02AC25B15022294603A8FBF7B4FBDB
:104A2000B8F1000F04D05022414617A8FBF7ACFBA9
:104A300026B1142231462BA8FBF7A6FB27B144224E
:104A4000394635A8FBF7A0FBB9F1000F04D01C22B2
:104A5000494646A8FBF798FB45F25550ADF80A00C9
:104A60004FF49571A01CFDF721FCADF808004FF440
:104A700096712046FDF71AFC83464FF49673224642
:104A800012490090124800F009F9002807DA11A035
:104A9000FDF790F94FF0FF304DB0BDE8F08F17A053
:104AA000FDF788F94FF4967102A8FBF786FB1BA06F
:104AB000FDF780F94FF4967221460548FEF7DAF9C2
:104AC00002A8FFF733F90120E6E7000000EC030835
:104AD00000E803080D0A20706172616D65746572EB
:104AE00020757064617465206572726F722C646FDA
:104AF000206E6F7468696E670D0A00000D0A7061A0
:104B000072616D657465722075706461746520737F
:104B10007563636573730D0A000000000D0A666C0F
:104B2000617368206E6F772062650D0A00000000D7
:104B30007FB5044600256E4600BF012208214F487C
:104B4000FCF725F9012210214C48FCF720F901223D
:104B500020214A48FCF71BF923208DF800008DF82E
:104B600001004748806B02904548C06B03900120CC
:104B70008DF806008DF807000C2101A8FDF796FBC3
:104B8000ADF8020040F214513E48FBF716FB002539
:104B90000BE0715D3C48FDF77AF800BF40213A48D0
:104BA000FCF7A8FF0028F9D06D1C102DF1D34FF4AD
:104BB0007A70FDF78FFF35A13248FBF718FB0646E8
:104BC00006B9BAE714212046FBF7F7FA142231465A
:104BD0002046FBF7D9FA1021201DFDF767FB6188FD
:104BE000884224D0012220212448FCF7D0F84FF439
:104BF0009670FDF76FFF002220212048FCF7C7F8D0
:104C00004FF49670FDF766FF012220211B48FCF748
:104C1000BEF84FF49670FDF75DFF00222021174883
:104C2000FCF7B5F84FF49670FDF754FF85E70122C5
:104C300010211248FCF7ABF84FF49670FDF74AFFCD
:104C4000002210210D48FCF7A2F84FF49670FDF7F2
:104C500041FF012210210948FCF799F84FF49670A2
:104C6000FDF738FF002210210448FCF790F84FF4BC
:104C70009670FDF72FFF012004B070BD000C0140BD
:104C8000AC150020980000200038014023230000CC
:104C900086B002E001A8FFF74BFFFBE72DE9F047E4
:104CA00006460F4690461C46DDF820904FF0000A5D
:104CB00000253A46314647A0FDF77CF83FE04B46D9
:104CC000A2B241463046FCF7FDFF002804DD314624
:104CD00049A0FDF76FF833E021464046FDF7E6FABC
:104CE000484503D1BAF1040F00DA28E031463846CE
:104CF000FEF7CCF800280FDA00250AE032463946E4
:104D000044A0FDF757F841F28830FDF7E3FE681C38
:104D100085B2322DF2DB11E04CA0FDF74BF856A026
:104D2000FDF748F84FF47A70FDF7D4FE72B671B60D
:104D30004FF4FA60FDF7CEFEFCF78AF900BFBEE73C
:104D400000BF3FE04B46A2B241463846FCF7BAFFEF
:104D5000002804DD394628A0FDF72CF833E0214671
:104D60004046FDF7A3FA484503D1BAF1040F00DA33
:104D700028E039463046FEF789F800280FDA00258A
:104D80000AE03A46314623A0FDF714F841F2883094
:104D9000FDF7A0FE681C85B2322DF2DB11E02BA0DE
:104DA000FDF708F834A0FDF705F84FF47A70FDF729
:104DB00091FE72B671B64FF4FA60FDF78BFEFCF708
:104DC00047F900BFBEE700BF2FA0FCF7F3FF0120AB
:104DD000BDE8F0870D0A666C6173682061646472D7
:104DE000657373203A25313058202020202025314A
:104DF00030580D0A000000000D0A636F6E66696787
:104E0000207772697465206F6B203A2025580D0A4F
:104E1000000000000D0A73797374656D206661757A
:104E20006C74206572726F7220A3AC726F6C6C2010
:104E30006261636B206572726F72202C66726F6D97
:104E400020255820746F2025580D0A000D0A757012
:104E50006461746520636F6E666967206661696C62
:104E6000202C726F6C6C206261636B2073756363BE
:104E700065737321210D0A0073797374656D207257
:104E800065626F6F740000000D0A636F6E6669677C
:104E90002072656E6577206F6B0D0A000D0A0D0A92
:104EA0000D0A434F4E46494720444154412B2B2B7A
:104EB0002B2B2B2B2B2B2B2B2B2B2B2B2B2B2B2B42
:104EC0002B2B2B2B2B2B2B2B2B2B2B2B2B2B2B2B32
:104ED0002B2B2B2B2B2B2B2B2B2B2B2B2B2B2B2B22
:104EE0002B2B2B2B2B2B2B2B2B2B2B2B2B2B2B2B12
:104EF0002B2B2B2B2B2B2B2B2B2B2B2B2B0D0A006C
:104F000000002110422063308440A550C660E77045
:104F1000088129914AA16BB18CC1ADD1CEE1EFF1ED
:104F20003112100273325222B5529442F772D66295
:104F3000399318837BB35AA3BDD39CC3FFF3DEE33D
:104F40006224433420040114E664C774A4448554E5
:104F50006AA54BB528850995EEE5CFF5ACC58DD58D
:104F60005336722611163006D776F6669556B44635
:104F70005BB77AA719973887DFF7FEE79DD7BCC7DD
:104F8000C448E5588668A778400861180228233885
:104F9000CCC9EDD98EE9AFF9488969990AA92BB92D
:104FA000F55AD44AB77A966A711A500A333A122AD5
:104FB000FDDBDCCBBFFB9EEB799B588B3BBB1AAB7D
:104FC000A66C877CE44CC55C222C033C600C411C25
:104FD000AEED8FFDECCDCDDD2AAD0BBD688D499DCD
:104FE000977EB66ED55EF44E133E322E511E700E75
:104FF0009FFFBEEFDDDFFCCF1BBF3AAF599F788F1D
:105000008891A981CAB1EBA10CD12DC14EF16FE1FC
:105010008010A100C230E320045025404670676034
:10502000B9839893FBA3DAB33DC31CD37FE35EF34C
:10503000B1029012F322D232354214527762567284
:10504000EAB5CBA5A89589856EF54FE52CD50DC59C
:10505000E234C324A01481046674476424540544D4
:10506000DBA7FAB79987B8975FE77EF71DC73CD7EC
:10507000D326F2369106B016576676761546345624
:105080004CD96DC90EF92FE9C899E9898AB9ABA93C
:105090004458654806782768C018E1088238A32874
:1050A0007DCB5CDB3FEB1EFBF98BD89BBBAB9ABB8C
:1050B000754A545A376A167AF10AD01AB32A923AC4
:1050C0002EFD0FED6CDD4DCDAABD8BADE89DC98DDC
:1050D000267C076C645C454CA23C832CE01CC10C14
:1050E0001FEF3EFF5DCF7CDF9BAFBABFD98FF89F2C
:1050F000176E367E554E745E932EB23ED10EF01E64
:1051000000002110422063308440A550C660E77043
:10511000088129914AA16BB18CC1ADD1CEE1EFF1EB
:105120003112100273325222B5529442F772D66293
:10513000399318837BB35AA3BDD39CC3FFF3DEE33B
:105140006224433420040114E664C774A4448554E3
:105150006AA54BB528850995EEE5CFF5ACC58DD58B
:105160005336722611163006D776F6669556B44633
:105170005BB77AA719973887DFF7FEE79DD7BCC7DB
:10518000C448E5588668A778400861180228233883
:10519000CCC9EDD98EE9AFF9488969990AA92BB92B
:1051A000F55AD44AB77A966A711A500A333A122AD3
:1051B000FDDBDCCBBFFB9EEB799B588B3BBB1AAB7B
:1051C000A66C877CE44CC55C222C033C600C411C23
:1051D000AEED8FFDECCDCDDD2AAD0BBD688D499DCB
:1051E000977EB66ED55EF44E133E322E511E700E73
:1051F0009FFFBEEFDDDFFCCF1BBF3AAF599F788F1B
:105200008891A981CAB1EBA10CD12DC14EF16FE1FA
:105210008010A100C230E320045025404670676032
:10522000B9839893FBA3DAB33DC31CD37FE35EF34A
:10523000B1029012F322D232354214527762567282
:10524000EAB5CBA5A89589856EF54FE52CD50DC59A
:10525000E234C324A01481046674476424540544D2
:10526000DBA7FAB79987B8975FE77EF71DC73CD7EA
:10527000D326F2369106B016576676761546345622
:105280004CD96DC90EF92FE9C899E9898AB9ABA93A
:105290004458654806782768C018E1088238A32872
:1052A0007DCB5CDB3FEB1EFBF98BD89BBBAB9ABB8A
:1052B000754A545A376A167AF10AD01AB32A923AC2
:1052C0002EFD0FED6CDD4DCDAABD8BADE89DC98DDA
:1052D000267C076C645C454CA23C832CE01CC10C12
:1052E0001FEF3EFF5DCF7CDF9BAFBABFD98FF89F2A
:1052F000176E367E554E745E932EB23ED10EF01E62
:1053000000404040404040404040414141414140D8
:10531000404040404040404040404040404040408D
:10532000400502020202020202020202020202021C
:105330000220202020202020202020020202020221
:105340000202909090909090101010101010101079
:105350001010101010101010101010100202020285
:1053600002028888888888880808080808080808C9
:1053700008080808080808080808080802020202C5
:105380004000000001530008A8530008000000205E
:1053900098000000041E00084054000898000020F7
:1053A000681E0000141E000800000000000000003D
:1053B00000000000000000000000000000000000ED
:1053C00000000000000000000000000001000000DC
:1053D00000000000000000000000000000000000CD
:1053E00000000000000000000000000000000102BA
:1053F000030401020304060708090204060800006A
:105400003030333030303330303033303030333090
:105410003030333030303330303033303030333080
:105420003030333030303330303033300000000033
:10543000010000000000000000000000000000006B
:0400000508000131BD
:00000001FF
