:020000040800F2
:10000000D839002065010008610E0008010E0008C3
:10001000350E000865040008B91E00080000000045
:10002000000000000000000000000000FD130008B8
:100030007901000800000000111100087115000886
:100040007F0100087F0100087F010008FB13000802
:100050007F0100087F01000891040008C504000822
:100060007F010008ED0400087F0100087F010008FF
:100070007F0100087F0100087F0100087F01000860
:100080007F0100087F0100087F0100087F01000850
:10009000B71E00087F0100087F0100082505000841
:1000A0007F0100087F0100087F0100087F01000830
:1000B000D5150008D91500087F0100087F01000848
:1000C0007F0100087F0100087F0100087F01000810
:1000D0007F010008A118000811190008A5190008DF
:1000E0007F010008F91300087F0100087F01000864
:1000F0007F0100087F0100087F0100087F010008E0
:100100007F0100087F0100087F0100087F010008CF
:10011000891700083D1800087F0100087F010008CA
:100120007F0100087F0100087F0100087F010008AF
:10013000DFF80CD000F0F2F80048004791340008D6
:10014000D8390020EFF30980704780F309887047A1
:10015000EFF30880704780F30888704740BA704713
:10016000C0BA70470648804706480047FEE7FEE7EA
:10017000FEE7FEE7FEE7FEE7FEE7FEE7FEE7FEE757
:10018000751500083101000840EA01039B0703D000
:1001900009E008C9121F08C0042AFAD203E011F8C6
:1001A000013B00F8013B521EF9D27047D2B201E088
:1001B00000F8012B491EFBD270470022F6E710B56C
:1001C00004460846114602462046FFF7EFFF204648
:1001D00010BD034600E0401C0278002AFBD111F854
:1001E000012B00F8012B002AF9D11846704730B5D1
:1001F0000EE003460A4601E05B1C521C1C78157891
:10020000AC4201D1002CF7D115F0FF0F04D0401CF7
:100210000278002AEDD1002030BD0146002000E028
:10022000401C0A5C002AFBD1704770B5064601F0FD
:10023000CFFE046805460A220021304600F035F85A
:100240002C6070BD2DE9F05F0546002092469B466C
:1002500088460646814640241DE0284641464746DA
:10026000224600F07CF8B0EB0A0052465B4671EB88
:100270000B0110D310461946224600F061F82D1AE2
:1002800067EB01084F4622460120002100F058F894
:1002900017EB00094E41201EA4F10104DDDC4846A5
:1002A00031462A464346BDE8F09F2DE9F0470F4608
:1002B000914680460446002614F8015B2DB100F0FB
:1002C0005FF80068405DC007F6D12B2D02D02D2DC0
:1002D00018D0641E4A463946204600F055F827B12A
:1002E0003968A14201D1C7F8008071054FF00204BE
:1002F0000BD54042002803DD01F06AFE0460A00730
:10030000BDE8F08746F48066E4E70028F8DA01F0FB
:100310005FFE04606FF00040F2E70000064C074DFE
:1003200006E0E06840F0010394E8070098471034C5
:10033000AC42F6D3FFF700FF88610008A86100080F
:10034000202A04DB203A00FA02F100207047914095
:10035000C2F1200320FA03F3194390407047202A8A
:1003600004DB203A21FA02F00021704721FA02F35F
:10037000D040C2F120029140084319467047000066
:1003800000487047846100082DE9F05F824604460A
:1003900000780027641C8B461546B946302801D0EA
:1003A0009DB113E014F8010B0127782803D05828D9
:1003B00001D045B10AE00DB1102D07D1002710255D
:1003C00014F8010B02E0082500E00A250026B046DB
:1003D0000EE005FB080005FB06F1012701EB1046C6
:1003E0001FFA80F8B6F5803F00D3B94614F8010B28
:1003F000294600F017F80028EBDABBF1000F04D013
:10040000641E07B95446CBF80040B9F1000F06D07E
:1004100001F0DEFD02210160C81EBDE8F09F48EA40
:100420000640FAE73A2800D2303820F02002412A6C
:1004300001D3A2F137004FF0FF32884200D20246CA
:100440001046704701460022014A0A44108870474E
:10045000006C00400022024A024411607047000014
:10046000006C00400AE006A001F08EFD72B671B685
:100470004FF4FA6002F090FC00F008FEF3E7000091
:100480000D0A4552524F525F4255530D0A0000006B
:1004900010B5C82002F080FC012000F09FF840B1A8
:1004A000012000F041F803A001F06EFD0120044995
:1004B000086010BD0D0A6B6579300D0A0000000060
:1004C0003000002010B5022000F088F828B102208A
:1004D00000F02AF801A001F057FD10BD0D0ABDF88B
:1004E000C8EBD6D0B6CF310D0A00000010B50820F9
:1004F00000F074F828B1082000F016F801A001F00F
:1005000043FD10BD0D0ABDF8C8EBC0B6D1C0D7B4CD
:10051000CCACB1E4BBAFD6D0B6CFA3A1A3A1A3A16D
:100520000D0A000070470000014908607047000094
:10053000140401401CB54FF40030FFF7F5FF4FF4F1
:100540000030009000208DF8040008208DF8050090
:1005500001208DF80600684600F056F80021084694
:1005600000F04EFB0120FFF7DFFF0120009000208C
:100570008DF804000C208DF8050001208DF8060090
:10058000684600F041F80121002000F039FB02200C
:10059000FFF7CAFF0220009000208DF804000C2015
:1005A0008DF8050001208DF80600684600F02CF853
:1005B0000321042000F024FB0820FFF7B5FF0820EA
:1005C000009000208DF8040010208DF80500012017
:1005D0008DF80600684600F017F81CBD01460020A3
:1005E0000022074B1B6803EA0102064BD3F81434C0
:1005F0000B4202D00AB1012000E000207047000049
:100600000004014000000140002127498279DAB34B
:10061000264AD2F8002403689A43244BC3F80024E6
:100620001A46D2F8042403689A4301F104031A60BD
:10063000027911440A68036842EA03020A601B4A0D
:10064000D2F80824036822EA0302184BC3F80824EE
:100650001A46D2F80C24036822EA0302144B1A60EB
:100660004279102A11D1114AD2F8082403681A439A
:100670000E4BC3F808241A46D2F80C2403681A4318
:100680000A4BC3F80C240EE007E0074942791144F5
:100690000A6803681A430A6005E0027911440A688F
:1006A00003689A430A60704700040140000001405B
:1006B0000C0401400149C86070470000002002405E
:1006C00030B5044604254FF4302000F09DF805466F
:1006D000042D17D10C48006940F002000A49086156
:1006E00008464461006940F0400008614FF4302042
:1006F00000F08AF805460448006941F6FD7108409B
:1007000001490861284630BD0020024004200C4900
:10071000C96801F00101012901D101200EE0084959
:10072000C96811F0040F01D0022007E00449C9682C
:1007300011F0100F01D0032000E0042070470000EA
:10074000002002400348006940F080000149086130
:1007500070470000002002400549096821F010019F
:10076000034A116011460968014311607047000097
:1007700000200240F0B504460D4604260027F00292
:1007800000F042F80646042E22D11248006940F0DB
:100790000100104908612580F00200F035F8064696
:1007A000042E0ED1A71C280C3880F00200F02CF883
:1007B00006460848006941F6FE710840054908618F
:1007C00006E00448006941F6FE71084001490861ED
:1007D0003046F0BD0020024001460020034A106868
:1007E00000F038000843106070470000002002400D
:1007F0000248034948600348486070472301674541
:1008000000200240AB89EFCD00B502460423FFF77C
:100810007DFF034603E0FFF779FF0346521E012BDD
:1008200001D1002AF7D102B90523184600BD000006
:1008300008B5012144F27D0000F090FC0121EC4854
:1008400000F07CFC4FF6FF70ADF8000000208DF842
:10085000030003208DF802004FF40070ADF8000093
:1008600018208DF8030003208DF802006946E14846
:1008700000F0E6F94FF48060ADF8000004208DF838
:1008800003006946DB4800F0DBF90420ADF8000006
:1008900018208DF8030003208DF802006946D54822
:1008A00000F0CEF90820ADF8000004208DF8030018
:1008B0006946D04800F0C4F94FF40060ADF800007C
:1008C00004208DF803006946CB4800F0B9F94FF4D5
:1008D0008060ADF8000018208DF8030003208DF82B
:1008E00002006946C54800F0ABF94FF40060ADF86E
:1008F000000004208DF8030003208DF802006946F3
:10090000BE4800F09DF94FF48060ADF8000018205B
:100910008DF8030003208DF802006946B64800F008
:100920008FF94FF40060ADF8000004208DF803004B
:1009300003208DF802006946AF4800F081F90320DA
:100940008DF802004FF40060ADF8000048208DF8EB
:1009500003006946A74800F073F94FF48050ADF8E2
:10096000000018208DF803006946A24800F068F9DD
:100970000820ADF8000010208DF8030003208DF84A
:10098000020069469C4800F05BF9002208219A4861
:1009900000F031FA1020ADF800008DF803000320BC
:1009A0008DF802006946944800F04AF900221021AF
:1009B000914800F020FA2020ADF8000010208DF8BA
:1009C000030003208DF8020069468B4800F038F9D7
:1009D00000222021884800F00EFA0120ADF8000026
:1009E00004208DF8030003208DF802006946814839
:1009F00000F026F90220ADF8000048208DF8030031
:100A000003208DF8020069467C4800F019F94FF484
:100A10000050ADF8000010208DF8030003208DF881
:100A200002006946744800F00BF901225103724834
:100A300000F0E1F91020ADF8000014208DF803005B
:100A400003208DF8020069466A4800F0F9F8012297
:100A50001021684800F0CFF94020ADF800001020C8
:100A60008DF8030003208DF802006946614800F00C
:100A7000E7F8002240215F4800F0BDF90820ADF8FA
:100A8000000010208DF8030003208DF80200694655
:100A90005A4800F0D5F800220821584800F0ABF978
:100AA0004FF48050ADF8000010208DF803000320B3
:100AB0008DF802006946504800F0C2F800224FF459
:100AC00080514D4800F097F94FF40040ADF8000018
:100AD00010208DF8030003208DF802006946464877
:100AE00000F0AEF80122D103434800F084F94FF43E
:100AF0008040ADF8000010208DF8030003208DF831
:100B0000020069463C4800F09BF8012291033A48F4
:100B100000F071F90220ADF8000010208DF80300FC
:100B200003208DF802006946324800F089F800225F
:100B30000221304800F05FF98020ADF80000482025
:100B40008DF8030003208DF8020069462A4800F062
:100B500077F84020ADF8000010208DF80300032046
:100B60008DF802006946244800F06AF8002240210E
:100B7000214800F040F94FF48070ADF800001020DB
:100B80008DF8030003208DF8020069461A4800F032
:100B900057F800224FF48071174800F02CF94FF4F9
:100BA0000070ADF8000010208DF8030003208DF8D0
:100BB00002006946104800F043F800224FF400712B
:100BC0000D4800F018F94FF40050ADF80000102067
:100BD0008DF8030003208DF802006946074800F0F5
:100BE0002FF800224FF40051044800F004F908BD2A
:100BF00002001E1A00080140000C014000100140D4
:100C000030B500228B071C0F0F2303FA04F20B4BA5
:100C10008C1053F824309343084C8D1044F8253041
:100C200023468C1053F824308C07240F00FA04F468
:100C30002343024C8D1044F8253030BD080001409C
:100C40002DE9F04102460025002600200023002463
:100C5000002791F803C00CF00F0591F803C01CF0B9
:100C6000100F03D091F802C04CEA0505B1F800C09E
:100C70001CF0FF0F31D0146800202BE04FF0010C66
:100C80000CFA00F3B1F800C00CEA03069E4220D132
:100C900083004FF00F0C0CFA03F7BC4305FA03FC7A
:100CA0004CEA040491F803C0BCF1280F06D14FF0C0
:100CB000010C0CFA00FCC2F814C00AE091F803C061
:100CC000BCF1480F05D14FF0010C0CFA00FCC2F842
:100CD00010C0401C0828D1D31460B1F800C0BCF18A
:100CE000FF0F34DD546800202EE000F1080C4FF0B7
:100CF000010808FA0CF3B1F800C00CEA03069E42A2
:100D000021D183004FF00F0C0CFA03F7BC4305FA16
:100D100003FC4CEA040491F803C0BCF1280F05D190
:100D200000F1080C08FA0CF8C2F8148091F803C01E
:100D3000BCF1480F07D100F1080C4FF0010808FA88
:100D40000CF8C2F81080401C0828CED35460BDE8CF
:100D5000F0810000F0B50A460023002400210025A0
:100D600000F00046B6F1004F02D11D4EF16901E0DE
:100D70001B4E7168C0F3034583B200F44016B6F50C
:100D8000401F08D121F07061154E766826F070661C
:100D9000134F7E6012E000F48016B6F5801F06D176
:100DA000032606FA05F4A14341F0706106E0460D02
:100DB000360103FA06F6B14341F0706122B1460DE7
:100DC000360103FA06F6314300F00046B6F1004F53
:100DD00002D1034EF16101E0014E7160F0BD0000EF
:100DE000000001400246002093680B4201D0012020
:100DF00000E0002070470AB1016100E041617047E6
:100E00000AE006A001F0C0F872B671B64FF4FA60BD
:100E100001F0C2FF00F03AF9F3E700000D0A455275
:100E2000524F525F484152445F4641554C540D0A5F
:100E3000000000000AE006A001F0A6F872B671B644
:100E40004FF4FA6001F0A8FF00F020F9F3E700008A
:100E50000D0A4552524F525F4D454D0D0A0000009C
:100E600005A001F091F872B671B64FF4FA6001F086
:100E700093FF00F00BF900000D0A4552524F525FEC
:100E80004E4D490D0A00000008B54FF4E06000F037
:100E9000F3F825208DF8000002208DF801000020D5
:100EA0008DF8020001208DF80300684600F0A2F8DA
:100EB0004FF4E06000F0E0F826208DF800000020FC
:100EC0008DF801008DF8020001208DF803006846BE
:100ED00000F090F84FF4E06000F0CEF827208DF895
:100EE000000001208DF8010000208DF80200012093
:100EF0008DF80300684600F07DF84FF4E06000F0E4
:100F0000BBF834208DF8000001208DF8010000208E
:100F10008DF8020001208DF80300684600F06AF8A1
:100F20004FF4E06000F0A8F835208DF800000120B3
:100F30008DF8010000208DF8020001208DF80300DB
:100F4000684600F057F84FF4C06000F095F829208B
:100F50008DF8000000208DF801008DF802008DF85A
:100F60000300684600F046F84FF4C06000F084F8D3
:100F700006208DF8000000208DF801008DF8020099
:100F80008DF80300684600F035F84FF4C06000F0BB
:100F900073F807208DF8000000208DF801008DF80F
:100FA00002008DF80300684600F024F84FF4C0609A
:100FB00000F062F809208DF8000000208DF8010093
:100FC0008DF802008DF80300684600F013F84FF426
:100FD000A06000F051F81D208DF8000000208DF871
:100FE00001008DF8020001208DF80300684600F032
:100FF00001F808BD70B5002100230F22C4784CB35E
:101000001A4C246804F4E064C4F5E0644FEA142147
:10101000C1F1040322FA01F2447804FA03F184785E
:1010200004EA020444EA01014FEA0111104C067877
:10103000A155047804F01F054FF0010404FA05F4EB
:1010400005784FEA65154FF0E02606EB8505C5F8F3
:10105000004109E0047804F01F050124AC40054D6F
:101060000678761145F8264070BD00000CED00E0D2
:1010700000E400E080E100E002490143024A11601F
:10108000704700000000FA050CED00E00848006819
:1010900000F4E060074940EA010000F104004FF06D
:1010A000E021C1F80C0DBFF3408F00BFFEE7000048
:1010B0000CED00E00000FA050848006800F4E0606C
:1010C000074940EA010000F104004FF0E021C1F8B7
:1010D0000C0DBFF3408F00BFFEE700000CED00E0F9
:1010E0000000FA050848006800F4E060074940EA9B
:1010F000010000F104004FF0E021C1F80C0DBFF336
:10110000408F00BFFEE700000CED00E00000FA0594
:1011100005A000F039FF72B671B64FF4FA6001F025
:101120003BFEFFF7B3FF00000D0A4552524F525FDE
:1011300050454E4453560D0A0000000029B1064A9E
:10114000D2690243044BDA6104E0034AD269824364
:10115000014BDA61704700000010024029B1064AD5
:1011600092690243044B9A6104E0034A9269824304
:10117000014B9A61704700000010024010B500F06A
:101180003BF8012000F0FAF800BF212000F0C4F87D
:101190000028FAD01020FFF7DFFA0220FFF71CFB2F
:1011A000002000F0DFF8002000F0FAF8002000F046
:1011B000EBF84FF46011002000F004F9012000F07A
:1011C000FBF800BF392000F0A7F80028FAD0022071
:1011D00000F006F900BF00F0BDF80828FBD101219E
:1011E00044F27D00FFF7BAFF01210248FFF7A6FF96
:1011F00010BD000002001E1A0F48006840F00100F8
:101200000D490860084640680C4908400A49486092
:10121000084600680A49084007490860084600680F
:1012200020F4802008600846406820F4FE004860F2
:101230004FF41F0088607047001002400000FFF864
:10124000FFFFF6FE30B500210022002400232D4DC3
:101250006D6805F00C0121B1042905D0082923D1BE
:1012600005E0294D056022E0274D05601FE0254D72
:101270006D6805F47012234D6D6805F48034022505
:1012800005EB92421CB9214D554305600BE01D4D05
:101290006D6815F4003F03D01C4D5543056002E016
:1012A000194D5543056002E0174D056000BF00BFB2
:1012B000144D6D6805F0F0010909154D6B5C05686A
:1012C000DD4045600F4D6D6805F4E061090A104D81
:1012D0006B5C4568DD4085600A4D6D6805F46051C2
:1012E000C90A0B4D6B5C4568DD40C560054D6D68F6
:1012F00005F44041890B074D6B5CC568B5FBF3F500
:10130000056130BD0010024000127A0000093D0066
:10131000440000205400002010B5014600220023A4
:1013200000204A11012A02D1094C236806E0022A52
:1013300002D1074C236A01E0054C636A01F01F02E9
:10134000012494401C4201D0012000E0002010BD87
:10135000001002400248406800F00C007047000096
:101360000010024001460020034A506820F0F000BF
:1013700008435060704700000010024001490860B7
:10138000704700000000424201460020034A5068B6
:1013900020F4E060084350607047000000100240F5
:1013A00001460020034A506820F4605040EAC10022
:1013B0005060704700100240014908667047000005
:1013C0000000424202460020044B586820F47C1082
:1013D00042EA01031843014B586070470010024075
:1013E00001460020034A506820F003000843506083
:1013F00070470000001002407047704705A000F0E1
:10140000C3FD72B671B64FF4FA6001F0C5FCFFF788
:101410003DFE00000D0A4552524F525F5356430D98
:101420000A0000002DE9F04104460F4616464FF42D
:1014300096711748FEF7C1FE002016490860002586
:101440000BE0615D144800F032FD00BF40211248FE
:1014500000F060FC0028F9D06D1C605D0028F0D120
:10146000012208210D48FFF7C6FC304601F094FC2C
:10147000002208210948FFF7BEFC39460448FEF760
:10148000B6FE10B10120BDE8F0810020FBE70000AE
:10149000AC0500200400002000440040000C014086
:1014A00010B500F001F810BD002100202E4A12688E
:1014B00042F480322C4B1A6000BF2B4A126802F4AF
:1014C0000030491C10B9B1F5A06FF6D1264A126858
:1014D00012F4003F01D0012000E00020012842D199
:1014E000224A126842F01002204B1A601A46126813
:1014F00022F003021A601A46126842F002021A60D1
:10150000194A5268184B5A601A4652685A601A466D
:10151000526842F480625A601A46526822F47C1281
:101520005A601A46526842F4E8125A601A46126823
:1015300042F080721A6000BF0B4A126812F0007FFE
:10154000FAD0094A526822F00302074B5A601A4641
:10155000526842F002025A6000BF034A526802F029
:101560000C02082AF9D17047001002400020024006
:101570007047000010B51348006840F001001149A1
:10158000086008464068104908400E49486008460F
:1015900000680E4908400B4908600846006820F4BE
:1015A000802008600846406820F4FE0048604FF440
:1015B0001F008860FFF774FF4FF000600449086067
:1015C00010BD0000001002400000FFF8FFFFF6FE13
:1015D00008ED00E07047000010B501210E4800F052
:1015E00063F8B8B101210C4800F028F80B480068F6
:1015F00040B9012210210A48FFF7FDFB01200749ED
:10160000086007E0002210210548FFF7F4FB0020E6
:101610000249086010BD00000004004040000020A6
:10162000000C014021B1028842F08002028004E0F7
:1016300002884FF67F731A4002807047CA430282C5
:10164000704721B1028842F00102028004E0028862
:101650004FF6FE731A400280704700000EB542F24A
:101660001070ADF804004FF4E150ADF80000002018
:10167000ADF80600ADF8020069460A4800F032F8FD
:1016800001210848FFF7CEFF01210648FFF7D6FFEA
:1016900001221146034800F018F801210148FFF724
:1016A000D0FF0EBD0004004030B5024600200023EC
:1016B0000024158A05EA0103958905EA010413B19E
:1016C0000CB1012000E0002030BD10B51AB18389B3
:1016D0000B43838104E08389CC43A4B223408381FC
:1016E00010BD0000002202881D4B98420ED01D4BF9
:1016F00098420BD0B0F1804F08D01B4B984205D0D8
:101700001A4B984202D01A4B984204D14FF68F736D
:101710001A404B881A43174B984207D0164B9842F1
:1017200004D04FF6FF431A40CB881A4302808B88BF
:1017300083850B8803850A4B98420BD0094B98424E
:1017400008D00E4B984205D00D4B984202D00D4B5D
:10175000984201D10B7A03860123838270470000EF
:10176000002C01400034014000040040000800400B
:10177000000C0040001000400014004000400140F8
:10178000004401400048014010B50821244800F001
:10179000C1FA30B10821224800F052F9204800F087
:1017A00081FB40F225511E4800F0C1FA90B31C485D
:1017B00000F078FBC4B221461A4800F078FB00BF65
:1017C0004021184800F0A6FA0028F9D01648016810
:1017D0000068401C144A1060144844540020134907
:1017E000134A1268885410480068B0F5967F02D9F1
:1017F00000200D4908600F48006804280AD12146DE
:101800000D4800F054FB00BF40210B4800F082FA65
:101810000028F9D02021084800F012F910BD00007E
:10182000004C0040004800400C000020EC0B002061
:1018300008000020140000200038014010B50821E5
:10184000144800F067FA30B10821124800F0F8F8A7
:10185000104800F027FB40F225510E4800F067FACF
:1018600090B10C4800F01EFBC4B20B48006805287C
:101870000AD12146094800F01AFB00BF4021074861
:1018800000F048FA0028F9D02021024800F0D8F8EA
:1018900010BD00000050004014000020003801403E
:1018A00010B50821174800F035FA30B10821154865
:1018B00000F0C6F8134800F0F5FA40F2255111483F
:1018C00000F035FAC0B10F4800F0ECFAC4B20E488F
:1018D00001680068401C0C4A10600C484454002009
:1018E0000A49126888540848006840F21451884236
:1018F00002D90020044908602021024800F0A0F825
:1019000010BD0000003801400000002098000020B9
:1019100010B508211E4800F0FDF930B108211C481F
:1019200000F08EF81A4800F0BDFA40F22551184830
:1019300000F0FDF958B3164800F0B4FAC4B21548E7
:1019400001680068401C134A10601348445400208A
:101950001149126888540F48006840F214518842B7
:1019600002D900200B4908600C48006802280AD1FF
:1019700021460B4800F09BFA00BF4021084800F0C8
:10198000C9F90028F9D02021014800F059F810BD0C
:101990000044004004000020AC050020140000209A
:1019A0000038014010B501201F49086008211F4878
:1019B00000F0B0F930B108211C4800F041F81B4894
:1019C00000F070FA40F22551184800F0B0F948B321
:1019D000164800F067FAC4B21548006803280AD117
:1019E0002146144800F063FA00BF4021114800F07E
:1019F00091F90028F9D0104801680068401C0E4A8F
:101A000010600E4844540021126881540A4800684E
:101A1000B0F5967F02D900200749086020210348CD
:101A200000F00EF810BD000020000020004800402B
:101A3000140000200038014008000020C00A0020E7
:101A400001F40072B2F5007F00D100BFCA430280EA
:101A5000704721B1828942F40052828104E0828978
:101A60004DF6FF731A4082817047000000B585B0C3
:101A7000012144F20400FFF771FB4FF40070ADF850
:101A8000100018208DF8130003208DF8120004A90F
:101A90009748FFF7D5F84FF48060ADF810000420A8
:101AA0008DF8130003208DF8120004A99048FFF769
:101AB000C7F84FF4E13000900020ADF80400ADF815
:101AC0000600ADF80800ADF80C000C20ADF80A00D7
:101AD0006946884800F07AF9012240F2255185488C
:101AE00000F04FF901218348FFF7B3FF01214804BB
:101AF000FFF724FB01210420FFF730FB0420ADF8A1
:101B0000100018208DF8130003208DF8120004A98E
:101B10007748FFF795F80820ADF8100004208DF8FD
:101B2000130003208DF8120004A97148FFF788F80C
:101B30004FF4E13000900020ADF80400ADF806004D
:101B4000ADF80800ADF80C000C20ADF80A006946AD
:101B5000694800F03BF9012240F22551664800F047
:101B600010F901216448FFF774FF01218804FFF791
:101B7000E5FA01210820FFF7F1FA4FF48060ADF893
:101B8000100018208DF8130003208DF8120004A90E
:101B90005A48FFF755F84FF40060ADF810002820C0
:101BA0008DF8130003208DF8120004A95348FFF7A5
:101BB00047F84FF4164000900020ADF80400ADF84F
:101BC0000600ADF80800ADF80C000C20ADF80A00D6
:101BD00069464B4800F0FAF8012240F22551484886
:101BE00000F0CFF801214648FFF733FF0121C80478
:101BF000FFF7A4FA01211020FFF7B0FA4FF480603C
:101C0000ADF8100018208DF8130003208DF8120095
:101C100004A93C48FFF714F84FF40060ADF8100039
:101C200004208DF8130003208DF8120004A9354814
:101C3000FFF706F84FF4165000900020ADF80400AE
:101C4000ADF80600ADF80800ADF80C000C20ADF8BA
:101C50000A0069462C4800F0B9F8012240F22551EB
:101C6000294800F08EF801212748FFF7F2FE0121F4
:101C70000805FFF763FA01213020FFF76FFA4FF4F0
:101C80008050ADF8100018208DF8130003208DF857
:101C9000120004A91B48FEF7D3FF0420ADF8100082
:101CA0008DF8130003208DF8120004A91748FEF7E1
:101CB000C7FF4FF4165000900020ADF80400ADF8B7
:101CC0000600ADF80800ADF80C000C20ADF80A00D5
:101CD00069460F4800F07AF8012240F225510C487D
:101CE00000F04FF801210A48FFF7B3FE05B000BD30
:101CF000000801400038014000440040000C014051
:101D00000048004000100140004C00400014014019
:101D10000050004002460020B1F5007F00D100BF16
:101D200013880B4201D0012000E00020704770B5FD
:101D300002460024002300250020A1F510666A3E1B
:101D400000D100BFC1F3421501F01F03012606FABE
:101D500003F3012D02D19689334006E0022D02D112
:101D6000168A334001E0968A33400C12012606FAA7
:101D700004F41688344013B10CB1012000E00020B7
:101D800070BDF0B503460024002600250020A1F513
:101D900010676A3F00D100BF1846C1F3421401F03A
:101DA0001F06012707FA06F5012C01D10C3004E0CB
:101DB000022C01D1103000E014301AB107682F4313
:101DC000076002E00768AF430760F0BD2DE9F04708
:101DD00086B005460E460024A24600BFA146002755
:101DE000B08900B100BF2F462C8A4CF6FF7004402A
:101DF000F08804432C82AC894EF6F3100440B0887E
:101E000031890843718908430443AC81AC8A4FF699
:101E1000FF400440B0890443AC8201A8FFF712FAE6
:101E20001F48874202D1DDF810A001E0DDF80CA0C8
:101E3000A88910F4004F08D00AEBCA0000EB0A1082
:101E400031684900B0FBF1F807E00AEBCA0000EB8B
:101E50000A1031688900B0FBF1F86420B8FBF0F09B
:101E600004012009642101FB1089A88910F4004FA6
:101E700008D0322000EBC900B0FBF1F000F0070001
:101E8000044308E0322000EB09106421B0FBF1F0BC
:101E900000F00F0004432C8106B0BDE8F08700007D
:101EA0000038014001468888C0F308007047C1F33C
:101EB00008028280704770470AE006A000F064F8CC
:101EC00072B671B64FF4FA6000F066FFFFF7DEF805
:101ED000F3E700000D0A4552524F525F55534147F8
:101EE000450D0A002DE9F04107460D4616461C46F1
:101EF0003146284600F0C4FAA04203D04FF0FF302C
:101F0000BDE8F0817805400D06D10123324629460F
:101F1000384601F021F905E00023324629463846CB
:101F200001F01AF93146384600F0D0FAA0420FD03D
:101F3000214608A000F028F80DA000F025F80CA01C
:101F400000F022F80AA000F01FF86FF00100D7E7B8
:101F50000120D5E70D0A63616C20666C617368200F
:101F6000637263206572726F72203A25580D0A0001
:101F70000D0A63616C20666C617368206372632074
:101F80006572726F720D0A000FB4054B10B503A98C
:101F9000044A029800F030F810BC5DF814FB000011
:101FA00021320008900000200FB4084B10B504A99E
:101FB00002AA039800F020F8044602A9002000F0CD
:101FC00059FA204610BC5DF814FB00007524000887
:101FD000004870479400002002E008C8121F08C1A2
:101FE000002AFAD170477047002001E001C1121F9A
:101FF000002AFBD1704700002DE9FF4F8DB0054648
:102000000F460026EEE1252879D100246D1CF94AFF
:10201000A246A14601212B78203B01FA03F0104291
:1020200002D004436D1CF6E728782A2810D06FF000
:102030002F022878A0F13001092915D80AEB8A016E
:1020400002EB410144F0020400EB010A6D1CF0E7D1
:1020500057F804ABBAF1000F03DA44F40054CAF1A4
:10206000000A44F002046D1C28782E2817D115F8B8
:10207000010F44F004042A280ED06FF02F022878B4
:10208000A0F1300109290AD809EB890102EB4101CD
:1020900000EB01096D1CF2E757F8049B6D1C2878D2
:1020A0006C280FD006DC4C2817D068280DD06A2881
:1020B00014D104E0742810D07A280FD10DE044F434
:1020C00000140AE044F4801401E044F440146978F8
:1020D000814202D16D1C04F580146D1C95F800C07E
:1020E000BCF16E0F2AD012DCBCF1630F3CD007DCD0
:1020F000BCF1000F76D0BCF1580F19D1ACE018E05C
:10210000BCF1640F6FD0BCF1690F11D16BE0BCF171
:10211000730F32D006DCBCF16F0F71D0BCF1700FC1
:1021200006D19BE0BCF1750F6BD0BCF1780F69D084
:102130006046DDE90F129047761C52E1C4F302506D
:10214000022806D003280AD0042801CF0AD006604E
:1021500047E101CF4FEAE671C0E9006141E101CFFB
:1021600006803EE106703CE101CF8DF800000020C2
:102170008DF80100EB46012003E057F804BB4FF057
:10218000FF3061074FF0000102D40DE008F10101BA
:10219000884649450FDA8045F8DB1BF8081000290E
:1021A000F4D108E008F1010188468142FADB1BF80E
:1021B00008100029F6D1DDE90F23AAEB08008146BB
:1021C000214600F040F9304400EB080604E0DDE968
:1021D0000F121BF8010B9047B8F10108F7D2214606
:1021E0004846F9E002E10A20C4F302524FF0000B26
:1021F0000890022A07D001CFC117032A09D00AE0AC
:1022000035E022E023E0FF1D27F00707F7E8020191
:1022100005E000B2C117042A01D140B2C11700295C
:1022200006DA0023D0EB030063EB01012D2202E06C
:10223000220504D52B228DF82420012203E0E20799
:1022400001D02022F7E7904653E00A2110E0102049
:102250004FF0000B08900EE0102109E010214FF024
:10226000000B44F004044FF00809089103E0082132
:102270004FF0000B0891C4F30252022A04D001CFA0
:102280000021032A06D007E0FF1D27F00707F7E823
:10229000020105E080B20021042A01D1C0B2002170
:1022A0004FF00008220724D5BCF1700F2AD0089BFC
:1022B00083F0100353EA0B0309D150EA010206D060
:1022C00030228DF824208DF825C002229046089BEC
:1022D00083F0080353EA0B030BD150EA010201D14A
:1022E000620706D530228DF824204FF00108A9F1AD
:1022F000010941A2BCF1580F00D044A20B9208AAD8
:102300000A920FE040228DF824200122DEE75B468E
:10231000089AFDF797FF0B9B9B5C0A9AA2F10102BA
:102320000A92137050EA0102F1D10A98ADEB000055
:1023300000F1200B600702D524F4803401E04FF057
:102340000109002049465A46D94501DDA1EB0200AA
:1023500000EB0B0141440890AAEB01000B90E00355
:1023600006D4DDE90F2321460B9800F06CF80644F3
:102370004FF000090DF1240A07E0DDE90F121AF809
:1023800009009047761C09F10109C145F5DBE0031E
:102390000CD5DDE90F2321460B9800F054F80644D4
:1023A00004E0DDE90F1230209047761C0899481EA2
:1023B00008900029F5DC08E00A980A990078491C81
:1023C0000A91DDE90F129047761CBBF10001ABF1D9
:1023D000010BF1DC0B982146DDE90F2300F020F81A
:1023E00006446D1C287800287FF40DAE11B03046ED
:1023F000BDE8F08F092801003031323334353637EB
:102400003839414243444546000000003031323300
:102410003435363738396162636465660000000020
:102420002DE9F0410446002517461E46880405D4D0
:1024300006E039462020B04705F10105641EF8D5B5
:102440002846BDE8F0812DE9F041044600253027FB
:1024500090461E46C80300D42027880405D506E010
:1024600041463846B04705F10105641EF8D52846B7
:10247000BDE8F0810A68531C0B60107070470000C3
:10248000F0B5ADF5017D05460E464FF400720E49DC
:1024900001A8FDF779FE00240EE02046E11704EBC9
:1024A0001161C1F307272006040C2878784001A9A0
:1024B00031F8100044406D1C3000A6F10106ECD14B
:1024C00020460DF5017DF0BD005D00082DE9F043CB
:1024D000ADF5017D06460F4600254FF40072104908
:1024E00001A8FDF751FE002400BF11E0705900F073
:1024F000FF092046E11704EB1161C1F3072820060C
:10250000040C88EA090001A931F8100044406D1C50
:10251000BD42EBD320460DF5017DBDE8F083000000
:10252000005F000810B54FF493710C48FFF7A8FF47
:1025300004460BA0FFF728FD0848801E0088A04233
:1025400009D00648801E018822460BA0FFF71CFD1B
:102550004FF0FF3010BD0120FCE70000460E0020C8
:102560000D0A636865636B2061707020636F6E662F
:1025700069670D0A00000000636F6E66696720637B
:102580007263203A253130582063616C2063726396
:10259000203A25313058000070B5044600250D4919
:1025A0000DA0E268FFF7F0FC0A48E168FFF78EFF34
:1025B00005466089A84207D061892A460FA0FFF727
:1025C000E3FC4FF0FF3070BD14A0FFF7DDFC0120ED
:1025D000F9E7000000A000080D0A43414C204641E5
:1025E0004C534820435243203A30782558202D2D13
:1025F0002D3E20202564200D0A0000000D0A6D618B
:10260000696E2061707020637263206572726F72F0
:10261000203A255820202025580D0A000D0A6D610A
:10262000696E2061707020637263206F6B0D0A0009
:1026300010B510A0FFF7A8FC1348FFF7ADFF002866
:1026400005DA12A0FFF7A0FC4FF0FF3010BD14A078
:10265000FFF79AFCFFF766FF002805DA14A0FFF7E2
:1026600093FC4FF0FF30F1E718A0FFF78DFC01203D
:10267000ECE700000D0A636865636B2061707020F1
:1026800073746174650D0A00E80E00200D0A617014
:102690007020637263206572726F720D0A00000011
:1026A0000D0A61707020637263206F6B0D0A000069
:1026B0000D0A61707020636F6E66696720637263D4
:1026C000206572726F720D0A000000000D0A6170C1
:1026D0007020636F6E66696720637263206F6B0D95
:1026E0000A00000038B50446042C00D854B921462D
:1026F00022A0FFF749FC4FF4FA6000F04DFB4FF0C9
:10270000FF3038BD00200090224624A16846FFF724
:102710004BFC4FF4967222A122A0FEF783FE69467D
:1027200022A0FFF731FC4FF4C8722AA12CA0FEF7BB
:1027300079FE30B969462EA0FFF726FC4FF0FF3036
:10274000DFE769463048FDF752FD58B1694628A0D9
:10275000FFF71AFC4FF4967211A12CA0FEF762FE4F
:102760000020CEE769462BA0FFF70EFC4FF49672CF
:102770000BA126A0FEF756FE0120C2E77175657217
:102780007920736F636B6574204944206572726FA2
:102790007220203A25640D0A000000002564000024
:1027A0004F4B0000415445310D0000000D0A636895
:1027B00065636B20736F636B65742025732073747E
:1027C0006174652B2B2B2B2B2B2B2B2B2B2B2B2BA0
:1027D0000D0A00002B4D49504F50454E000000009F
:1027E00041542B4D49504F50454E3F0D00000000C5
:1027F0000D0A534F4B434B455420257320434C4FF8
:1028000053450D0A00000000AC050020415445303E
:102810000D0000000D0A534F4B434B4554202573C8
:10282000204F4B0D0A00000070B50025002400BFAA
:1028300034E002211D48FEF7D5FA08B9641E00E015
:10284000641C012208211A48FEF7D5FA0122102142
:102850001748FEF7D0FA012220211548FEF7CBFADF
:10286000642000F099FA02211048FEF7BBFA08B97B
:10287000641E00E0641C002208210D48FEF7BBFA2C
:10288000002210210A48FEF7B6FA0022202108484B
:10289000FEF7B1FA642000F07FFA6D1C0F2DC8D34B
:1028A000214604A0FFF770FB20B270BD001001406C
:1028B000000C01400D0A6B6579203A25640D0A0071
:1028C0002DE9FF4FADF2644D0E46174698460024A1
:1028D0000025A146A2464FF47A711FA8FDF76DFCB2
:1028E000142110A8FDF769FC00BF00BFB9F1020F69
:1028F00016DDB8F1010F08D1A5A0FFF745FB4FF099
:10290000FF300DF2744DBDE8F08FAAA0FFF73CFB3D
:102910004FF000094FF47A7000F03EFA0020F0E723
:1029200009F10109DDF8EC0498B1ABA0FFF72CFB2D
:1029300040220DF2AC416846FDF726FC0DF29C40AA
:102940000FC800F037FA002803DCAAA0FFF71CFB31
:10295000CCE74FF0000A00BF0AF1010ABAF1020FFA
:1029600005DDA9A0FFF710FB4FF0FF30C9E74FF4DA
:102970007A711FA8FDF721FC00242146A7A0FFF7CC
:1029800003FB17B31FAA1421AA4801F019FE04463D
:1029900004EBD4714910B4EB410103D0A6A0FFF7BA
:1029A000F3FAD9E71FA80219B1B2DDF8640401F007
:1029B00007FE204404B204EBD4714910B4EB41018A
:1029C0001DD0A5A0FFF7E0FAC6E71FA8FDF725FC7C
:1029D0001FA900EB010B5A46B1B2DDF8640401F007
:1029E000EFFD204404B204EBD4714910B4EB410173
:1029F00005D099A0FFF7C8FA4FF0FF3081E74FF4F8
:102A0000FA729CA19CA0FEF70DFDA34604EBD470C6
:102A100042109BA115A8FFF7C7FA15A99EA0FFF7C2
:102A2000B3FA4FF4FA7293A115A8FEF7FBFC142138
:102A30001AA8FDF7C2FB9EA11AA8DDF8CC24FFF767
:102A4000B3FA1FA99EA0FFF79FFA1FAA1AA9A0A078
:102A5000FFF79AFA002505E01AA84157A1A0FFF751
:102A600093FA6D1C142DF7DB9DA0FFF78DFA002063
:102A70009D49086040F214519C48FDF79EFB1FA839
:102A8000FDF7CBFB83461AA8FDF7C7FB23465A4642
:102A900001460F9096A0FFF777FA4FF47A7000F096
:102AA0007BF9142199A0FFF76FFA21469CA0FFF74C
:102AB0006BFA00250DE01AA8405781B29D48FFF738
:102AC000F6F900BF40219B48FFF724F90028F9D010
:102AD0006D1C1AA8FDF7A1FBA842ECD800251AE04E
:102AE0001FA8405781B29348FFF7E1F900BF40218A
:102AF0009048FFF70FF90028F9D01FA8405781B27E
:102B00008D48FFF7D4F900BF40218B48FFF702F949
:102B10000028F9D06D1CA542E2DB22218548FFF791
:102B2000C6F900BF40218348FFF7F4F80028F9D028
:102B30000D218048FFF7BBF900BF40217D48FFF71A
:102B4000E9F80028F9D066A0FFF71EFA1BE0642020
:102B500000F022F947A16548FDF749FB18B177A0BD
:102B6000FFF712FA10E07CA16048FDF740FB18B1B6
:102B70007BA0FFF709FAB9E66D1C322D03DD81A0B9
:102B8000FFF702FA00E0E2E700BF0120B9E600002B
:102B90000D0ACAFDBEDDD6D8B7A2CAA7B0DCD7B42D
:102BA000CCACA3ACB2BBB2B9B7A2CAFDBEDD0D0AB4
:102BB000000000000D0ACAFDBEDDD6D8B7A2CAA724
:102BC000B0DCA3ACB4E6B4A2B5BDCAFDBEDD466CB4
:102BD000617368D6D00D0A000D0ABCECB2E9CDF8DD
:102BE000C2E7CAC7B7F1D0E8D2AAD6D8C1AC0D0A9D
:102BF000000000000D0ACDF8C2E7D6D8C1ACCAA7C4
:102C0000B0DC0D0A000000000D0A737472324865D2
:102C100078206572726F720D0A0000000D0A6461FF
:102C20007461206C656E677468203A2025640D0A13
:102C300000000000E40F00200D0A63686172207438
:102C400072616C617465206865616465722065728B
:102C5000726F720D0A0000000D0A7472616E736C5F
:102C60006174652064617461206572726F720D0A0F
:102C7000000000004F4B0000415445300D000000A3
:102C800041542B4D4950534554533D312C25642C10
:102C90003530300D000000000D0A73657420736F2D
:102CA000636B657420636D643A25730D0A00000040
:102CB00041542B4D495053454E443D25642C220030
:102CC0000D0A6461746120203A25730D0A0000002A
:102CD0000D0A73656E6420636D64203A2573257355
:102CE0000D0A00002533580004000020AC05002028
:102CF0000D0A636D643A256420206275663A256486
:102D00002020646174613A25640D0A000D0A636D28
:102D1000642073697A65203A25640D0A000000007A
:102D20000D0A6275662073697A65203A25640D0A7A
:102D30000000000000440040003801400D0A4649F0
:102D40004E442053454E44204F4B2C434F4E544944
:102D50004E55450D0A0000004552524F52000000EA
:102D60000D0A46494E44204552524F522E474F5469
:102D70004F2053544F524520414E44204552524F0C
:102D8000520D0A000D0A54494D45204F5554202C30
:102D9000474F4F4E0D0A0000002107E0002200E0DF
:102DA000521C43F2C8239A42FAD3491C8142F5D3FC
:102DB000704700000FB4FEB500256B48007878BB63
:102DC0004FF47A70FFF7E8FF50216848FDF7F5F9F6
:102DD00028216748FDF7F1F909A9139B169A8DE898
:102DE0000E0064A16148DDE91423FFF7DDF801233B
:102DF00068A15F48149AFFF7D7F85C4969A0FFF70C
:102E0000C3F85B496CA0FFF7BFF8584965A0FFF70E
:102E1000BBF8574968A0FFF7B7F80120524908707E
:102E20001498FFF75FFC002806DD68A0FFF7ACF8F8
:102E30000120FEBC5DF814FB68A0FFF7A5F86DA0AB
:102E4000FFF7A2F800BF032D08DD70A0FFF79CF884
:102E5000012001F007FC0025681EEAE76D1C00F068
:102E600091FCD0B3002410E04FF47A7272A175A0E7
:102E7000FEF7D8FA00B10AE04FF47A7274A171A09B
:102E8000FEF7D0FA00B102E0641C142CECDB00BFAA
:102E90000E2C06DB71A0FFF777F8002001F0E2FBB3
:102EA000D1E700F04FFD00F039FE002000F0A0FF58
:102EB000002800DAC7E7002441E04FF4C8726DA192
:102EC0006DA0FEF7AFFA4FF4FA6229492748FEF7E2
:102ED000A9FA6AA0FFF758F82EE03BE06BA16E4814
:102EE000FDF785F920B96DA16B48FDF780F9B8B100
:102EF0006DA0FFF749F81498FFF7F4FB01280AD1F9
:102F000072A0FFF741F875A0FFF73EF879A0FFF730
:102F10003BF801208DE74FF47A70FFF73DFF0CE09E
:102F20004FF47A70FFF738FF78A0FFF72DF8761C82
:102F3000052E01DD002600E0D0E700BF641C0A2C4E
:102F4000BBDB092C0DDB72A0FFF71EF8002001F09F
:102F500089FB78E773A0FFF717F8002001F082FBE8
:102F600071E7012065E70000580000206C0F002089
:102F7000BC0F002041542B4D49504F50454E3D252C
:102F8000642C25642C222573222C25642C25640DA9
:102F9000000000002B4D49504F50454E3A2025640B
:102FA0002C2564000D0A736F636B657420636D6478
:102FB000203A25730D0A00000D0A736F636B657468
:102FC0002073746174653A25730D0A006E65747719
:102FD0006F726B206F6B0D0A000000004E6574204D
:102FE0004572726F722C7265436F6E6E6563740DFD
:102FF0000A0000000D0A65737461626C69736820D1
:103000006E6574776F726B0D0A0000000D0ACDF8C3
:10301000C2E7D7A2B2E1CAA7B0DCB4CECAFDB9FDFF
:10302000B6E02CC9E8B1B8B9CAD5CFA3ACC7EBBCE0
:10303000ECB2E90D0A0000002B435245473A20301C
:103040002C31000041542B435245473F0D000000F6
:103050002B435245473A20302C3500000D0A534986
:103060004D393030CDF8C2E7D7A2B2E1CAA7B0DC03
:103070000D0A00004F4B000041540D000D0A77610E
:103080006974696E67206E65740D0A002B4D495096
:103090005354415400000000AC0500202B4D495012
:1030A0004F50454E000000000D0A6F70656E2063A2
:1030B0006D64206F7665722C626567696E20636847
:1030C00065636B2073746174650D0A000D0A736388
:1030D0006F6B6574206F6B0D0A0000000D0A534979
:1030E0004D393030207265636F6E6E656374204FAA
:1030F0004B0D0A000D0A53454E44204F4E4C494E8D
:1031000045204D4553534147450D0A002B2B2B00BD
:103110000D0A53494DCDF8C2E7BDA8C1A2CAA7B058
:10312000DC0D0A000D0A53494D393030C6F4B6AFF4
:10313000CAA7B0DC0D0A000010B50346002000BF8E
:1031400003E01C580C54441CA0B29042F9DB10BDA3
:1031500002460120704700002DE9F04780460F46E7
:1031600014469946FDF744FB3420FDF7A3FAB9F164
:10317000000F06D04046FDF7A3FA414621A0FEF716
:1031800003FFE11704EB91718910B4EB81011BD0AF
:10319000002504E0FF2079190855681C85B2E11765
:1031A00004EB91718910A4EB8101C1F10401A942E2
:1031B000F0DC2046E11704EB91718910A4EB81014A
:1031C000C1F1040121448CB2002515E000267819D4
:1031D000C07806433602781980780643360278199B
:1031E000407806433602785D064308EB0500314619
:1031F000FDF7C0FA281D85B2A542E7DBFDF7A2FA6C
:10320000BDE8F087636C6561722063757272656EEC
:10321000742070616765203A3078255800000000FE
:1032200070B504460D46E1B20548FEF740FE00BF0A
:1032300080210348FEF76EFD0028F9D0204670BDBE
:103240000038014010B5FDF799FF01210648FDF750
:1032500081FDFDF7EDFAFEF709FCFDF76BF9FDF7CF
:1032600013FEFEF7FBF910BD0004300070470000AC
:1032700038B5FFF7FBFF4CA0FEF786FEFFF7D4FA48
:1032800010F10A0F13DA012208214C48FDF7B3FDB3
:10329000002220214948FDF7AEFD002210214748B9
:1032A000FDF7A9FD46A0FEF76FFE02F0D1FAFFF789
:1032B000BFF9002804DB1020FDF7C4F855282ED1F3
:1032C000002208213D48FDF796FD002210213B48D1
:1032D000FDF791FD012220213848FDF78CFD3FA02C
:1032E000FEF752FE4FF4FA60FFF756FD0220424906
:1032F000086001F02BFC0023404A19461846009351
:1033000001F07CFF002803DA3DA0FEF73DFE02E05D
:1033100041A0FEF739FE00211020FDF79BF8374849
:10332000FFF73AF900280ADA42A0FEF72DFE72B63E
:1033300071B64FF4FA60FFF72FFDFDF7BDFE44486C
:10334000FEF722FE4248FEF71FFE4148FEF71CFE34
:103350003F48FEF719FE3E48FEF716FE72B671B6FC
:103360004FF4FA60FFF718FD3A4844683A480460A1
:1033700038490868FCF7EFFE37480068804737A0F7
:10338000FEF702FE72B671B64FF4FA60FFF704FD65
:1033900030484468304804602E490868FCF7DBFE7A
:1033A0002D480068804738BD0D0A494150204B45E3
:1033B0005920544553540D0A00000000000C0140F0
:1033C0000D0A626567696E207063206961702075FF
:1033D0007067726164650D0A000000000D0A626585
:1033E00067696E206E657420696170207570677200
:1033F0006164650D0A00000014000020E80E002042
:103400000D0A757064617465206961704272696645
:1034100065206F6B0D0A00000D0A7570646174659C
:10342000206961704272696665206572726F720D03
:103430000A0000000D0A464C4153482043524320E5
:10344000434845434B204552524F520D0A0000005D
:10345000AC5C000800A000088C0000200D0A676F1B
:1034600020746F206F6264206170702B2B2B2B2BCC
:103470002B2B2B2B2B2B2B2B2B2B2B2B2B2B2B2B9C
:103480002B2B2B2B2B2B2B2B2B2B2B2B2B0D0A00F6
:1034900010B50024FFF7D6FE18A0FEF775FD012237
:1034A00008211A48FDF7A7FC012210211748FDF753
:1034B000A2FC012220211548FDF79DFC14A0FEF777
:1034C00063FD154A154916A0FEF75EFD4FF4947290
:1034D0001C491248FFF730FE1A4800F007FE4FF46F
:1034E000947218490C48FFF727FE164800F0FEFDBD
:1034F00000F02AF8FFF7BCFE002010BD0D0A6C6931
:10350000676874206C65640D0A000000000C0140BF
:103510000D0A0D0A0000000000F0030800E803088F
:103520000D0A524541442053595354454D20434FB1
:103530004E464947203A2531305820253130580D24
:103540000A000000440E002010B5012208215C484A
:10355000FDF751FC012210215948FDF74CFC0122D6
:1035600020215748FDF747FC40F6B830FFF714FC20
:1035700054484088A0F5AA41553904D152A0FEF71D
:1035800003FD012010BD01205549086055A0FEF73C
:10359000FBFC5BA0FEF7F8FC01216148FEF759FA3D
:1035A00000F0DEFF00BF00F0EDF80028FBD04FF484
:1035B000FA725CA15CA0FDF735FF4FF4FA7259A1D5
:1035C00059A0FDF72FFF00F04FF900215748FEF7F3
:1035D00038F800215648FEF73CFA01215048FEF722
:1035E00038FA00F0ADF86AE04FF496715148FCF7F4
:1035F000E4FD00205049086000240BE023214848E6
:10360000FEF755FC00BF40214548FEF783FB00282C
:10361000F9D0641C042CF1DB7C214148FEF747FC07
:1036200000BF40213E48FEF775FB0028F9D000247A
:103630000CE04248015D3A48FEF739FC00BF4021EA
:103640003748FEF767FB0028F9D0641C0F2CF0DB2D
:103650007C213348FEF72BFC00BF40213048FEF7A9
:1036600059FB0028F9D031212D48FEF720FC00BF7E
:1036700040212B48FEF74EFB0028F9D03121284885
:10368000FEF715FC00BF40212548FEF743FB00284C
:10369000F9D02A212248FEF70AFC00BF4021204829
:1036A000FEF738FB0028F9D04FF47A70FFF774FB6F
:1036B000012000F085FA4FF4FA60FFF76DFB93E705
:1036C000000C0140440E00200D0A646576696365B4
:1036D0002073746172742E2E2E2E2E2E2E0D0A0043
:1036E000140000200D0A6D61737350726F6475636E
:1036F00074696F6E2E2E2E2E2E2E2E0D0A000000B7
:103700000D0A64657669636520696E69742E2E2ED4
:103710002E2E2E2E2E2E2E2E2E2E2E2E0D0A00006A
:10372000003801404F4B000041540D0000040040A0
:103730000044004098000020000000209811002064
:103740001FB54FF4E13000900020ADF80400ADF853
:103750000600ADF80800ADF80C000C20ADF80A002A
:1037600069460748FEF732FB012240F22551044822
:10377000FEF707FB01210248FEF76BF91FBD0000B1
:103780000038014010B54FF4FA721AA11AA0FDF7E3
:1037900049FE60BB19A0FEF7F7FB4FF4FA60FFF794
:1037A000FBFA4FF4FA7213A113A0FDF73BFEC8B960
:1037B00017A0FEF7E9FB00F0D3FE4FF4FA60FFF725
:1037C000EBFA4FF4FA720BA10BA0FDF72BFE20B120
:1037D00014A0FEF7D9FB012010BD1AA0FEF7D4FB00
:1037E0000020F9E70FA0FEF7CFFB0120F4E701204E
:1037F000F2E700004F4B000041540D000D0A4669EE
:10380000727374204154206661696C0D0A000000D7
:103810000D0A5365636F6E64204154206661696CC4
:103820000D0A00000D0A504F5745525F53494D395C
:103830003030204F4B202C52455455524E20310DE4
:103840000A0000000D0A494E20504F5745525F5361
:10385000494D393030204641494C2052455455524B
:103860004E20300D0A0000003EB5002412212248EF
:10387000FCF7A3FC4FF47A7220A121A0FDF7D2FD42
:1038800020B922A0FEF780FB601E3EBD1BA124488C
:10389000FCF7ADFC0546133D002404E0285D164905
:1038A0000855601C84B20F2CF8DB13491DA0FEF7ED
:1038B0006BFB1148016800918188ADF80410807994
:1038C0008DF806006846FCF7B0FC0B4988630020C1
:1038D000009001900290C91D6846FCF77AFC68468A
:1038E000FCF7A3FC0449C8630846C26B816B10A0B7
:1038F000FEF74AFB0120C8E7981100204F4B00005B
:1039000041542B4347534E0D000000000D0A6765DC
:10391000742069656D69206572726F720D0A00000E
:10392000AC0500200D0A696D65693A25730D0A0022
:103930000D0A69656D69203A2564202025640D0A09
:103940000000000070B509212948FCF736FCC822A8
:1039500028A129A0FDF766FD4FF4FA70FFF71CFAC5
:10396000C82224A127A0FDF75DFD4FF4FA70FFF7F0
:1039700013FA27A12848FCF73AFC0546287B302893
:1039800002DB287B392805DD287B412821DB287BC9
:103990005A281EDC012405E02819C27A601E144949
:1039A0000A54641C052CF7DB082405E02819C27AA8
:1039B000201F0F490A54641C0C2CF7DBC8220DA1F0
:1039C00016A0FDF72FFD0A4917A0FEF7DDFA01202A
:1039D00070BD002403E0302105480155641C082C0B
:1039E000F9DBC82203A10DA0FDF71CFD0020EFE7C5
:1039F000BC1100204F4B000041542B435245473D22
:103A0000320D000041542B435245473F0D0000004A
:103A10002B435245473A0000AC05002041542B434C
:103A20005245473D300D00000D0A63656C6C6964BA
:103A3000206973203A25730D0A00000070B52748ED
:103A40000021C0F81510A0F819104FF4FA7224A143
:103A500024A0FDF7E7FC4FF4FA7221A123A0FDF7A3
:103A6000E1FC25A12648FCF7C2FB0446E07930289A
:103A70002BDBE079392828DC207A302825DB207AF6
:103A8000392822DC607A30281FDB607A39281CDC78
:103A9000A07A302819DBA07A392816DC002505E049
:103AA000E01D415D0D48153041556D1C052DF7DBBE
:103AB0000A49153113A0FEF767FA4FF4FA7208A10C
:103AC00014A0FDF7AFFC012070BD4FF4FA7204A101
:103AD00010A0FDF7A7FC0020F6E7000098110020D9
:103AE0004F4B0000415445310D00000041542B4321
:103AF000494D490D0000000043494D4900000000B8
:103B0000AC0500200D0A63696D69093A25730D0A39
:103B100000000000415445300D00000010B54FF486
:103B20007A721DA11DA0FDF77DFC1EA11F48FCF7A8
:103B30005EFB0446E0792C2812D1A07930280FDBF7
:103B4000A07939280CDC302019498874A1791848EB
:103B5000C17400F1120117A0FEF716FA012010BD82
:103B6000A079302815DBA079392812DCE0793028DB
:103B70000FDBE07939280CDCA0790D498874E179F4
:103B80000B48C17400F112010AA0FEF7FDF90120F3
:103B9000E5E70020E3E700004F4B000041542B43D2
:103BA00053510D002B4353513A000000AC05002047
:103BB000981100200D0A637371093A25730D0A00EC
:103BC00070B5C6B006467CA17D48FCF710FB0446E4
:103BD00084B300250BE0615D7A48FEF768F900BF09
:103BE00040217848FEF796F80028F9D06D1C204651
:103BF000FCF713FBA842EED8241D002504E0207832
:103C000041A94855641C6D1C20787C28F7D1641CA0
:103C1000002505E0207841B22BA84155641C6D1C9D
:103C200020787C28F6D1641C00203E903F90409084
:103C3000002505E054E020783EA94855641C6D1C21
:103C400020787C28F7D13EA8FCF7EFFA3890641C66
:103C5000002505E0207841B217A84155641C6D1C71
:103C600020787C28F6D1641C00203E903F90409044
:103C7000002504E020783EA94855641C6D1C20787E
:103C80007C28F7D13EA8FCF7D0FA2490641C0025CC
:103C900004E0217807A84155641C6D1C20787C281D
:103CA000F7D1641C002504E021780CA84155641C60
:103CB0006D1C20787C28F7D1641C00203E903F903A
:103CC0004090002504E020783EA94855641C6D1CF6
:103CD00020782A28F7D13EA8FCF7A7FA069001E041
:103CE00046B070BD40F6B830FFF756F80020ADF88A
:103CF000AA0035900120369041F2883037900DF1BE
:103D0000AA004E21FEF7BCFB00B2ADF8A8000020CF
:103D1000ADF85A0001202190229041F28930239081
:103D20000DF15A004E21FEF7ABFB00B2ADF8580082
:103D30004E210DF11600FEF7A3FBADF81400642030
:103D400004904FF6FF70ADF80E0001208DF80A00C8
:103D50008DF80B0023208DF804008DF8050000205D
:103D6000ADF80C000C2102A8FEF78AFBADF80600A6
:103D70000023009305AB01AA2AA916A801F03EFA78
:103D800011A0FEF701F972B671B64FF47A70FFF721
:103D900003F800BF1448006800F4E060134940EAEB
:103DA000010000F104004FF0E021C1F80C0DBFF359
:103DB000408F00BF00BFFEE7232323230000000045
:103DC00098000020003801400D0A434F4E464947F5
:103DD00020555044415445204F4B202C5245424FD2
:103DE0004F540D0A000000000CED00E00000FA0541
:103DF00070B504460025FFF721FE4FF4FA7242A188
:103E000044A0FDF70FFB38B94648016846A0FEF70D
:103E1000BBF84448006870BD4A48FCF706FA0546FE
:103E2000294649A0FEF7B0F8A5F53340B0380B2875
:103E300064D2DFE800F00622075E63636308636311
:103E4000230000BF00BF43A0FEF79EF854B946A070
:103E5000FEF79AF84FF4FA7248A149A0FDF7E2FA8A
:103E60000120D8E74CA0FEF78FF84FF4FA7243A177
:103E70004EA0FDF7D7FA0220CDE700BF51A0FEF714
:103E800083F8032C06D0042C0FD0052C18D0062C58
:103E90002CD120E050A0FEF777F84FF4FA7237A14A
:103EA00052A0FDF7BFFA0320B5E756A0FEF76CF865
:103EB0004FF4FA7231A158A0FDF7B4FA0420AAE732
:103EC00045A0FEF761F84FF4FA722CA158A0FDF757
:103ED000A9FA05209FE740A0FEF756F84FF4FA72C2
:103EE00026A159A0FDF79EFA062094E74FF0FF3077
:103EF00091E75BA0FEF748F807208CE75EA0FEF78D
:103F000043F84FF0FF3086E72B4D495043414C4C6E
:103F10003A20300041542B4D495043414C4C3F0D09
:103F200000000000880000200D0A61706E2073659B
:103F300074206F6B202C74797065203A25640D0A0B
:103F400000000000AD1100200D0A63696D693A257B
:103F5000640D0A000D0A73696D20747970653A6307
:103F60006D63630D0A0000000D0A736574206170B3
:103F70006E20636D7761700D0A0000004F4B0000EA
:103F800041542B4D495043414C4C3D312C22434D23
:103F9000574150220D0000000D0A736574206170B6
:103FA0006E20636D6E65740D0A00000041542B4D48
:103FB000495043414C4C3D312C22434D4E455422F7
:103FC0000D0000000D0A73696D20747970653A75F3
:103FD0006E69636F6D0D0A000D0A73657420617060
:103FE0006E20756E697761700D0A000041542B4D8B
:103FF000495043414C4C3D312C22554E495741507C
:10400000220D00000D0A7365742061706E20756EBC
:10401000696E65740D0A000041542B4D49504341AF
:104020004C4C3D312C22554E494E4554220D00003A
:1040300041542B4D495043414C4C3D312C22334788
:10404000574150220D00000041542B4D495043412F
:104050004C4C3D312C2233474E4554220D0000007C
:104060000D0A73696D20747970653A74656C6563C7
:104070006F6D0D0A0000000073696D207479706522
:10408000203A756E6B6E6F776E0000007FB5064646
:104090000C46154600960020ADF80400ADF8060069
:1040A000ADF80800ADF80C000C20ADF80A00694628
:1040B0000D48FDF78BFE34B1012240F225510A482C
:1040C000FDF75FFE05E0002240F225510648FDF7AE
:1040D00058FE25B101210448FDF7BBFC03E0002197
:1040E0000148FDF7B6FC7FBD0038014070B50446BD
:1040F00000257148FDF748FF218870A0FDF744FFB7
:10410000618873A0FDF740FF76A0FDF73DFFB4F98D
:10411000041079A0FDF738FFB4F906107BA0FDF775
:1041200033FF04F108017EA0FDF72EFF81A0216B73
:10413000FDF72AFF84A0616BFDF726FF87A0A16B26
:10414000FDF722FF89A0E16BFDF71EFF8BA0FDF7B5
:104150001BFF00BF06E004F14000415D8CA0FDF7AD
:1041600013FF6D1C142DF6DB8AA0FDF70DFFB4F9CB
:1041700054108DA0FDF708FFB4F956108EA0FDF77E
:1041800003FF04F1580190A0FDF7FEFE80200159C5
:1041900091A0FDF7F9FE8420015994A0FDF7F4FEEB
:1041A0008820015996A0FDF7EFFE8C20015999A0B7
:1041B000FDF7EAFE71A0FDF7E7FE002506E004F139
:1041C0009000415D72A0FDF7DFFE6D1C142DF6DB43
:1041D00095A0FDF7D9FE04F1A40197A0FDF7D4FE48
:1041E000A620015B99A0FDF7CFFEAA20015D9CA04F
:1041F000FDF7CAFEAB20015D9EA0FDF7C5FEAC2019
:10420000015BA0A0FDF7C0FEAE20015BA2A0FDF700
:10421000BBFEB0200159A5A0FDF7B6FEA8A0FDF792
:10422000B3FEB4F8C81034A0FDF7AEFECA20015B9F
:10423000A8A0FDF7A9FE04F1D001ABA0FDF7A4FEF4
:1042400004F1E401ADA0FDF79FFECC200159B0A020
:10425000FDF79AFE49A0FDF797FE002506E004F55C
:104260008A70415D4AA0FDF78FFE6D1C142DF6DBB0
:10427000ACA0FDF789FEB4F80C1174A0FDF784FE24
:104280004FF48770015BACA0FDF77EFE4FF48870A1
:104290000159AEA0FDF778FE38A0FDF775FE0025A8
:1042A00006E004F58A70415D39A0FDF76DFE6D1CD6
:1042B000142DF6DB70BD0000DC5B00080D0A4352D4
:1042C00043092020202020093A25580D0A0000002B
:1042D0000D0A464C41472020202020093A25580D40
:1042E0000A0000000D0A0D0A4E455420534F434B5F
:1042F00045540D0A000000000D0A435243202020BF
:104300002020093A0925580D0A0000000D0A464CE4
:1043100041472020202020093A0925580D0A000095
:104320000D0A495020202020202020093A09257319
:104330000D0A00000D0A5544505443502020093AFC
:104340000925580D0A0000000D0A534F434B4554F0
:104350002009093A0925580D0A0000000D0A4C50A1
:104360004F525409093A0925640D0A000D0A4450B8
:104370004F525409093A0925640D0A000D0A5245A5
:1043800053455256454420444154413A0D0A0000D9
:10439000253358000D0A0D0A49415020534F434B15
:1043A00045540D0A000000000D0A4352432009093C
:1043B0003A0925580D0A00000D0A464C41470909E3
:1043C0003A0925580D0A00000D0A49500909093A11
:1043D0000925730D0A0D0A000D0A55445054435027
:1043E000202020093A0925580D0A00000D0A534FD4
:1043F000434B45542020093A0925580D0A00000076
:104400000D0A4C504F525420202020093A092558BB
:104410000D0A00000D0A44504F525420202020095C
:104420003A0925580D0A00000D0A0D0A494150208D
:1044300042524946450D0A000D0A53544152542038
:104440002009093A0925730D0A0000000D0A43529C
:104450004320202009093A0925580D0A00000000D0
:104460000D0A48562020202009093A0925580D0A2E
:10447000000000000D0A535620202009093A0925A2
:10448000580D0A000D0A5041434B5F4E554D093AF5
:104490000925640D0A0000000D0A4352435F415094
:1044A000502020093A0925580D0A00000D0A5349E9
:1044B0005A455F415050093A0925580D0A0000003D
:1044C0000D0A0D0A424C554520434F4E4649470DB3
:1044D0000A0000000D0A4F54484552202020093A96
:1044E0000925580D0A0000000D0A4E414D452020B7
:1044F0002009093A0925730D0A0000000D0A5041F0
:10450000535320202009093A0925730D0A000000A1
:104510000D0A626175647261746520093A09255853
:104520000D0A00000D0A0D0A4F424420434F4E462B
:1045300049470D0A000000000D0A464C4147202063
:104540002020093A0925580D0A0000000D0A4241B1
:1045500055445241544520093A0925580D0A000096
:1045600010B540F6B830FEF717FC0EA0FDF70CFDB5
:10457000002240211048FCF73EFC012251030F4865
:10458000FCF739FC4FF47A70FEF706FC00224FF47A
:1045900000510A48FCF72FFC40F6B830FEF7FCFB50
:1045A00010BD00000D0A4F50454E2053494D393083
:1045B000302E2E2E2E0D0A0000080140000C014066
:1045C0002DE9F84305460E4617460024A0464FF055
:1045D000300905B137B91AA0FDF7D6FC4FF0FF300E
:1045E000BDE8F8831BA0FDF7CFFC002405E0295DA2
:1045F00019A0FDF7C9FC601C04B2B442F7DB15A09A
:10460000FDF7C2FC002417E02A5D15A16846FDF7FE
:10461000CBFC28570F2805DC2857002802DB302068
:104620008DF8000069463846FBF7D3FD08F102001B
:104630000FFA80F8601C04B2B442E5DB4046CFE7D5
:104640000D0A737472696E6720696E6974206572F1
:10465000726F72210D0A00002534642000000000F2
:104660002532580070B50546002419A0FDF78CFCD2
:1046700000BF26E0012208211A48FCF7BCFB0122FA
:1046800010211848FCF7B7FB012220211548FCF740
:10469000B2FB4FF4FA70FEF77FFB002208211148AD
:1046A000FCF7A9FB002210210E48FCF7A4FB002216
:1046B00020210C48FCF79FFB4FF4FA70FEF76CFBCF
:1046C000641C0A2CD6DB08A0FDF75EFC002070BD40
:1046D0000D0A4572726F722068616E646C650D0A16
:1046E00000000000000C01400D0A73797374656DC1
:1046F000206572726F720D0A000000002DE9F04F04
:104700009BB08046894616460025AA46AB46002047
:104710001790189019901A902322022117A8FBF7DE
:1047200045FDADF86060884890F8AA008DF86200F9
:10473000854890F8AB008DF863008448806B199031
:104740008248C06B1A900C2118A8FDF799FEADF8AD
:104750005E0000235022414601A81593FBF714FD8B
:1047600000231A46102117A80093FEF7A9F84FF46A
:104770007A60FEF711FB76A17648FBF738FD054617
:10478000F5B32C46618874A0FDF7FEFBB4F9041064
:1047900075A0FDF7F9FBA17978A0FDF7F5FBE179AC
:1047A0007AA0FDF7F1FB21897CA0FDF7EDFB618983
:1047B0007FA0FDF7E9FB0C21201DFDF761FE0146FE
:1047C000169080A0FDF7E0FB04F1100A0C21201DDB
:1047D000FDF756FE6188884272D17FA0FDF7D4FBB9
:1047E000554661892846FDF74BFE2189884208D04D
:1047F00080A0FDF7C9FB4FF0FF301BB0BDE8F08F84
:1048000093E006EBD6714910B6EB410141D04FF46D
:1048100080617D48FBF7D1FC628929467A48FBF725
:10482000B3FC61897848FDF72BFE2189884206D0C8
:10483000314676A0FDF7A8FB4FF0FF30DDE7B9F871
:104840000800B04201DD0120D7E731467648FDF788
:104850009BFB304606EBD6714910744A531403FB98
:1048600001272389628968493846FDF73BFB002808
:1048700009DA6FA0FDF788FB4FF47A70FEF78CFA27
:104880004FF0FF30B9E731466FA0FDF77DFB012007
:10489000B3E7628929467248FBF776FC314671A07E
:1048A000FDF772FB61896E48FDF7EAFD21898842B8
:1048B00007D0314655A0FDF767FB4FF0FF309CE76E
:1048C00029E0304606EBD6714910491E574A531469
:1048D00003FB0127608900F500714B48FDF7D0FD0F
:1048E0001690608900F5007082B247493846169BE1
:1048F000FDF7F8FA002809DA4DA0FDF745FB4FF463
:104900007A70FEF749FA4FF0FF3076E75BA0FDF7CB
:104910003BFB012071E75FA0FDF736FB4FF4FA6027
:10492000FEF73AFA4FF0FF3067E75EA0FDF72CFB89
:104930006BA0FDF729FB76A0FDF726FB4FF4FA608C
:10494000FEF72AFA00BF58E7440E00209811002015
:1049500023230000AC0500200D0A637263090909D6
:104960003A25580D0A0000000D0A747970654F72DF
:10497000496E646578093A25640D0A000D0A687667
:104980000909093A25580D0A000000000D0A73763E
:104990000909093A25580D0A000000000D0A706146
:1049A000636B6574437263093A25580D0A00000071
:1049B0000D0A7061636B65744C656E6774683A25A7
:1049C000580D0A000D0A0D0A0D0A43414C204352AE
:1049D00043202534580D0A000D0A6765742069616B
:1049E00070206170702064617461206F6B203A0DDB
:1049F0000A0000000D0A6170702063726320657206
:104A0000726F720D0A000000D81500200D0A0D0A01
:104A1000636F70792064617461206572726F723A9D
:104A200025640D0A00000000405C000800A000089A
:104A30000D0A777269746520666C6173682065720F
:104A4000726F720D0A0000000D0A5752495445203A
:104A5000494E20425546203A25640D0A00000000C8
:104A6000D81700200D0A575249544520464C41534F
:104A700048203A2025640D0A000000000D0A0D0AA6
:104A8000777269746520666C617368206F6B0D0ABC
:104A9000000000000D0A637263206572726F720D70
:104AA0000A0000000D0A242424242424242424247D
:104AB00024242424242424242424242424242424B6
:104AC00024242424242424242424242424242424A6
:104AD000242424242424242424242424240D0A00EB
:104AE0000D0A0D0A63616E27742066696E64206486
:104AF0006174612C7768657468657220746F2072C8
:104B000065436F6E6E6563740D0A0D0A0D0A000031
:104B10000D0A632424242424242424242424242447
:104B20002424242424242424242424242424242445
:104B30002424242424242424242424242424242435
:104B4000242424242424240D0A00000070B590B0ED
:104B50000124002500265EA0FDF716FA4FF4FA6046
:104B6000FEF71AF9012200214FF46130FFF78EFAA7
:104B70006D1C02206149086000BF40F2145160487A
:104B8000FBF71BFBFFF7ECFC40F6B830FEF704F92F
:104B90005CA15B48FBF72BFB20B95EA15848FBF7F3
:104BA00026FB30B15DA0FDF7EFF90120FFF75AFDBC
:104BB000E3E74FF4FA725FA15FA0FCF733FC4FF418
:104BC000FA725CA15CA0FCF72DFCFEF74DFE7EE0C6
:104BD0005A49D1F88400FDF785FD002844DD2146BF
:104BE00057A0FDF7D1F922465449A431A1F1500054
:104BF000FFF784FD002800DA69E0601C04B24F482A
:104C0000B0F8AC1055A0FDF7BFF921465FA0FDF745
:104C1000BBF94A48B0F8AE1066A0FDF7B5F94748B1
:104C2000D0F8B01068A0FDF7AFF94448B0F8AC0078
:104C3000A0424BDA01244148A430FDF7ADFC002826
:104C40000ADA66A0FDF7A0F972B671B64FF4FA6001
:104C5000FEF7A2F8FCF730FA67A0FDF795F973A00C
:104C6000FDF792F910B070BD00262CE07DA0FDF795
:104C70008BF907E0294681A0FDF786F94FF47A7099
:104C8000FEF78AF840222D4964316846FBF77CFA2A
:104C90002A4854300FC8FEF78DF80028EADD27496E
:104CA000A431A1F1500000F001F9002808DA7BA03E
:104CB000FDF76AF94FF4FA60FEF76EF8002601E09E
:104CC0004FF47A76761CB6F5FA7FCFDB00BF7FE72C
:104CD0000D0A706C6561736520736574207573616E
:104CE00072742062617564726174657420746F20DF
:104CF0003233303430300D0A000000001400002040
:104D0000AC0500204E4F5420494E53455254454463
:104D10000000000052454D4F564500000D0A7369D2
:104D20006D2063617264206E6F7420696E736572AA
:104D3000740D0A004F4B000041540D00440E00203A
:104D40000D0A43555252454E542044415441204986
:104D50004E444558203A25640D0A00000D0A616C46
:104D60006C207061636B6574206E756D6265722076
:104D70006973203A25642B2B2B2B2B2B2B2B2B2BC6
:104D80002B2B2B2B2B2B0D0A000000000D0A4E4560
:104D90005854205041434B4554204E554D203A2500
:104DA000642B2B2B2B2B2B2B2B2B2B2B2B2B2B2B1A
:104DB0002B0D0A000D0A2061707020637263203A87
:104DC00025580D0A000000000D0A20617070207344
:104DD000697A65203A25580D0A0000000D0A464CF4
:104DE0004153482043524320434845434B204552BA
:104DF000524F520D0A0000000D0A676F20746F2099
:104E00006F6264206170702B2B2B2B2B2B2B2B2B89
:104E10002B2B2B2B2B2B2B2B2B2B2B2B2B2B2B2BE2
:104E20002B2B2B2B2B2B2B2B2B0D0A000D0A6E65FE
:104E3000742069617020757064617465206F6B2BDC
:104E40002B2B2B2B2B2B2B2B2B2B2B2B2B2B2B2BB2
:104E50002B2B2B2B2B2B2B2B2B2B2B2B2B2B2B2BA2
:104E60002B0D0A004E6574204572726F722C7265AC
:104E7000436F6E6E6563740D0A0000000D0A657362
:104E80007461626C697368206E6574776F726B20F1
:104E90006661696C203A25640D0A00000D0A736C86
:104EA000656570203220730D0A0000002DE9F0477F
:104EB0009AB007460D464FF000080026A946002488
:104EC00068A0FDF761F86BA0FDF75EF800BFB8F1D0
:104ED000030F07DD6CA0FDF757F84FF0FF301AB055
:104EE000BDE8F08708F101000FFA80F80020169065
:104EF0001790189019902322022116A8FBF756F953
:104F000067A0FDF741F80020ADF85C006648806BB3
:104F100018906548C06B199001208DF85E008DF8DF
:104F20005F000C2117A8FDF7ABFAADF85A005FA09F
:104F3000FDF72AF8002405E016A8015D5EA0FDF744
:104F400023F8641C102CF7D301235022394601A802
:104F50001593FBF719F900231A46102116A80093A0
:104F6000FDF7AEFC41F28830FDF716FF53A0FDF7C8
:104F70000BF8002405E05648015D4FA0FDF704F84A
:104F8000641CC82CF7DB53A0FCF7FEFF54A150486B
:104F9000FBF72DF90646002404E0315746A0FCF744
:104FA000F3FF641C142CF8DB36A0FCF7EDFFEEB326
:104FB000002403E0305D09F80400641C102CF9D3D0
:104FC000698848A0FCF7E0FFB5F904104AA0FCF797
:104FD000DBFFA9794DA0FCF7D7FFE97950A0FCF7DA
:104FE000D3FF298953A0FCF7CFFF698956A0FCF7AE
:104FF000CBFF5AA0E968FCF7C7FF5DA0FCF7C4FF30
:10500000002404E0295D2CA0FCF7BEFF641C102CDA
:10501000F8D30C21281DFDF733FA82466A88014631
:105020005AA0FCF7B1FF0C21281D00E011E0FDF7AC
:1050300027FA6988884204D15DA0FCF7A5FF01200A
:105040004DE762A0FCF7A0FF4FF4FA60FDF7A4FE65
:105050003DE762A0FCF798FF4FF4FA60FDF79CFE75
:1050600035E700000D0A5443502053544152540D6B
:105070000A0000000D0A73656E642068656164654E
:1050800072206F6B0D0A00000D0A63616E2C742094
:10509000676574206961702062726966650D0A0037
:1050A0000D0A0D0A00000000981100200D0A43525D
:1050B0004320646174613A00253358000D0A534956
:1050C0004D20425546464552203A0D0A0000000048
:1050D000AC0500200D0A44415441203A0D0A00005D
:1050E000232300000D0A637263202020202020204B
:1050F00020203A25580D0A000D0A747970654F7208
:10510000496E646578203A25580D0A000D0A6876C4
:10511000202020202020202020203A25580D0A0081
:105120000D0A7376202020202020202020203A25E0
:10513000580D0A000D0A7061636B65744E756D2021
:1051400020203A25580D0A000D0A617070437263E1
:105150002020202020203A25580D0A000D0A7369CE
:105160007A6520202020202020203A25580D0A0092
:105170000D0A726561647920666F72206372632024
:1051800064617461203A0D0A000000000D0A6C6F22
:1051900063616C20637263203A25335820202D3ED2
:1051A000646573437263203A2533580D0A0000008A
:1051B0000D0A6765742069617020627269666520F6
:1051C00064617461206F6B0D0A0000000D0A637248
:1051D00063206572726F720D0A0000000D0A6E6F17
:1051E00020627269666520646174612072657475FD
:1051F000726E202C6572726F720D0A002DE9F04FED
:10520000CBB00546884616461F46DDF850914FF054
:10521000000A01AC4FF4947201A92F48FDF78CFFEE
:1052200025B15022294602A8FAF7AEFFB8F1000FC7
:1052300004D05022414616A8FAF7A6FF2EB196E8F0
:105240000F00CDE92C23CDE92A0127B144223946AC
:1052500033A8FAF799FFB9F1000F04D01C22494690
:1052600044A8FAF791FF45F25550ADF806004FF407
:105270009371A01CFDF704F9ADF804004FF494718C
:105280002046FDF7FDF883464FF4947322461349F8
:105290000090114800F0A2FB002807DA10A0FCF7EC
:1052A00073FE4FF0FF304BB0BDE8F08F16A0FCF757
:1052B0006BFE4FF4947101A8FAF77FFF1AA0FCF778
:1052C00063FE4FF4947221460348FDF735FF01A8B1
:1052D000FEF70CFF0120E6E700E8030800F00308F2
:1052E0000D0A20706172616D65746572207570645D
:1052F000617465206572726F722C646F206E6F74BA
:1053000068696E670D0A00000D0A706172616D6553
:10531000746572207570646174652073756363656C
:1053200073730D0A000000000D0A666C617368203B
:105330006E6F772062650D0A000000002DE9FF47BF
:105340000446002500262746E84601220821534846
:10535000FBF751FD012210215048FBF74CFD0122C3
:1053600020214E48FBF747FD23208DF800008DF8E3
:1053700001000020029003908DF806008DF80700D0
:10538000ADF804000C2101A8FDF77AF8ADF8020091
:1053900040F214514248FAF710FF002041490860DA
:1053A00000BF0CE018F805103F48FCF780FD00BF77
:1053B00040213D48FCF7AEFC0028F9D06D1C102DB3
:1053C000F0D340F6B830FDF7E7FC38A13448FAF7DF
:1053D0000EFF0646AEB3002502E0705D78556D1CE9
:1053E000102DFAD332A0FCF7CFFD002505E035489B
:1053F000415D35A0FCF7C8FD6D1CC82DF7DB618849
:1054000032A0FCF7C1FDB4F9041035A0FCF7BCFDD7
:10541000A17938A0FCF7B8FDE1793BA0FCF7B4FD19
:1054200021893EA0FCF7B0FD618941A0FCF7ACFDED
:1054300044A0E168FCF7A8FD47A0FCF7A5FD002506
:1054400005E028E0615D20A0FCF79EFD6D1C102D9D
:10545000F8D30C21201DFDF713F881466288014620
:1054600044A0FCF791FD0C21201DFDF709F861888F
:10547000884206D148A0FCF787FD012004B0BDE8B2
:10548000F0874CA0FCF780FD4FF4FA60FDF784FC38
:105490004FF0FF30F2E74FF0FF30EFE7000C014034
:1054A0009800002000000020003801402323000065
:1054B0000D0A53494D20425546464552203A0D0AA1
:1054C00000000000AC050020253358000D0A63726F
:1054D000632020202020202020203A25580D0A007B
:1054E0000D0A747970654F72496E646578203A25AB
:1054F000580D0A000D0A6876202020202020202048
:1055000020203A25580D0A000D0A7376202020200D
:105510002020202020203A25580D0A000D0A706115
:10552000636B65744E756D2020203A25580D0A0076
:105530000D0A6170704372632020202020203A25DC
:10554000580D0A000D0A73697A652020202020205A
:1055500020203A25580D0A000D0A726561647920F1
:10556000666F72206372632064617461203A0D0A71
:10557000000000000D0A6C6F63616C206372632091
:105580003A25335820202D3E646573437263203AD8
:105590002533580D0A0000000D0A67657420696103
:1055A000702062726966652064617461206F6B0DA2
:1055B0000A0000000D0A637263206572726F720D3B
:1055C0000A0000002DE9F04F85B081460D464FF0EE
:1055D000000801AEC34623208DF804008DF80500B5
:1055E00028B2ADF8080000200390049001208DF847
:1055F0000A008DF80B000C2102A8FCF741FFADF862
:10560000060040F214516848FAF7D7FD00206749B8
:10561000086000BF0DE016F808106548FCF747FC6D
:1056200000BF40216248FCF775FB0028F9D008F163
:105630000108B8F1100FEED34FF4FA60FDF7ACFBA0
:105640005CA15948FAF7D3FD0646E6B3344604F1A7
:10565000100A0C21201DFCF713FF618888427ED1BF
:10566000294655A0FCF790FC04F1100661893046EC
:10567000FCF706FF2189884207D056A0FCF784FC7E
:105680004FF0FF3005B0BDE8F08F05EBD571491044
:10569000B5EB41013ED04FF480615348FAF78DFDE0
:1056A000628931465048FAF76FFD61894E48FCF730
:1056B000E7FE2189884207D029464CA0FCF764FC0C
:1056C0004FF0FF30DEE76BE0B9F80800A84201DDDB
:1056D0000120D7E7284605EBD57149104A4A5314F3
:1056E00003FB0127238962893F493846FCF7FAFB0F
:1056F000002809DA45A0FCF747FC4FF47A70FDF763
:105700004BFB4FF0FF30BDE7294646A0FCF73CFCC1
:105710000120B7E7628931464848FAF735FD6189CB
:105720004648FCF7ADFE2189884206D029462FA0C5
:10573000FCF72AFC4FF0FF30A4E7284605EBD571B3
:105740004910491E304A531403FB0127608900F5B4
:1057500000712548FCF794FE0090608900E015E098
:1057600000F5007082B220493846009BFCF7BAFB76
:10577000002809DA25A0FCF707FC4FF47A70FDF742
:105780000BFB4FF0FF307DE701207BE72CA0FCF7FF
:10579000FBFB4FF4FA60FDF7FFFA4FF0FF3071E7C3
:1057A0004FF0FF306EE7000098000020000000205E
:1057B00000380140232300000D0A676574206961E9
:1057C00070206170702064617461206F6B203A25D5
:1057D000640D0A000D0A61707020637263206572A7
:1057E000726F720D0A000000D81100200D0A0D0A18
:1057F000636F70792064617461206572726F723AB0
:1058000025640D0A0000000000A000080D0A777250
:1058100069746520666C617368206572726F720DC1
:105820000A0000000D0A575249544520494E2042B3
:105830005546203A25640D0A00000000D8130020C8
:105840000D0A637263206572726F720D0A000000A8
:1058500008B501240026FDF773FF29E03A48FFF759
:105860006DFD002811DD0023374A194618460093C4
:10587000FFF7C4FC002803DD34A0FCF785FB03E040
:1058800038A0FCF781FB13E013E0002220213C4804
:10589000FBF7B1FA4FF49670FDF77EFA0122202152
:1058A0003748FBF7A8FA4FF49670FDF775FA00BF7A
:1058B000D4E700BF47E021462348FFF783FE0028D6
:1058C00014DA701C06B2002208212D48FBF793FA67
:1058D0004FF49670FDF760FA012208212848FBF783
:1058E0008AFA4FF49670FDF757FA2CE0601C04B268
:1058F00000261548A438B0F8AC00A04223DA1248BC
:10590000FCF74AFE00280ADA1EA0FCF73DFB72B63F
:1059100071B64FF4FA60FDF73FFAFBF7CDFB20A01C
:10592000FCF732FB72B671B64FF4FA60FDF734FA49
:10593000284845682848056026490868FAF70BFC9E
:10594000254800688047B6E7E80E00200D0A75700C
:1059500064617465206961704272696665206F6B6D
:105960000D0A00000D0A757064617465206961702C
:105970004272696665206572726F720D0A000000DE
:10598000000C01400D0A464C41534820435243202D
:10599000434845434B204552524F520D0A000000E8
:1059A0000D0A676F20746F206F6264206170702B26
:1059B0002B2B2B2B2B2B2B2B2B2B2B2B2B2B2B2B37
:1059C0002B2B2B2B2B2B2B2B2B2B2B2B2B2B2B2B27
:1059D0002B0D0A0000A000088C0000202DE9F047E4
:1059E00006460F4690461C46DDF820904FF0000A10
:1059F00000253A46314647A0FCF7C6FA3FE04B4641
:105A0000A2B241463046FCF76DFA002804DD31466B
:105A100049A0FCF7B9FA33E021464046FCF730FDD7
:105A2000484503D1BAF1040F00DA28E03146384680
:105A3000FDF78EFB00280FDA00250AE032463946D2
:105A400044A0FCF7A1FA41F28830FDF7A5F9681CE3
:105A500085B2322DF2DB11E04CA0FCF795FA56A08E
:105A6000FCF792FA4FF47A70FDF796F972B671B6B8
:105A70004FF4FA60FDF790F9FBF734FB00BFBEE787
:105A800000BF3FE04B46A2B241463846FCF72AFA37
:105A9000002804DD394628A0FCF776FA33E02146D9
:105AA0004046FCF7EDFC484503D1BAF1040F00DA9B
:105AB00028E039463046FDF74BFB00280FDA002579
:105AC0000AE03A46314623A0FCF75EFA41F28830FC
:105AD000FDF762F9681C85B2322DF2DB11E02BA0D4
