:020000040800F2
:10000000A02B002045010008E51000084910000859
:10001000B910000825040008512400080000000061
:10002000000000000000000000000000451800086B
:10003000590100080000000075130008B9190008F4
:100040005F0100085F0100085F0100081D1700083C
:100050005F0100085F01000835070008610700081C
:100060005F010008890700085F0100085F010008C0
:100070005F0100085F0100085F0100085F010008E0
:100080005F0100085F0100085F0100085F010008D0
:10009000652300085F0100085F010008C107000830
:1000A0005F0100085F0100085F0100085F010008B0
:1000B0001D1A0008451A00085F0100085F010008CA
:1000C0005F0100085F0100085F0100085F01000890
:1000D0005F010008F51C0008711D0008151E0008CE
:1000E0005F0100085D1600085F0100085F0100085D
:1000F0005F0100085F0100085F0100085F01000860
:100100005F0100085F0100085F0100085F0100084F
:10011000F51B00088D1C00085F0100085F01000846
:100120005F0100085F0100085F0100085F0100082F
:10013000DFF80CD000F034F900480047294C0008E3
:10014000A02B00200648804706480047FEE7FEE750
:10015000FEE7FEE7FEE7FEE7FEE7FEE7FEE7FEE777
:10016000BD1900083101000840EA01039B0703D0D4
:1001700009E008C9121F08C0042AFAD203E011F8E6
:10018000013B00F8013B521EF9D27047D2B201E0A8
:1001900000F8012B491EFBD270470022F6E710B58C
:1001A00004460846114602462046FFF7EFFF204668
:1001B00010BD034600E0401C0278002AFBD111F874
:1001C000012B00F8012B002AF9D11846704730B5F1
:1001D0000EE003460A4601E05B1C521C1C781578B1
:1001E000AC4201D1002CF7D115F0FF0F04D0401C18
:1001F0000278002AEDD1002030BD0146002000E049
:10020000401C0A5C002AFBD170472DE9F0470F46DD
:10021000914680460446002614F8015B2DB100F09B
:100220006DF80068405DC007F6D12B2D02D02D2D52
:1002300018D0641E4A463946204600F063F827B1BC
:100240003968A14201D1C7F8008071054FF002045E
:100250000BD54042002803DD02F0AEF90460A00790
:10026000BDE8F08746F48066E4E70028F8DA02F09B
:10027000A3F904606FF00040F2E770B5064602F0A3
:100280009BF9046805460A2200213046FFF7BDFFAE
:100290002C6070BD2DE9F05F0546002092469B461C
:1002A00088460646814640241DE02846414647468A
:1002B000224600F096F8B0EB0A0052465B4671EB1E
:1002C0000B0110D310461946224600F07BF82D1A78
:1002D00067EB01084F4622460120002100F072F82A
:1002E00017EB00094E41201EA4F10104DDDC484655
:1002F00031462A464346BDE8F09F0000004870475B
:10030000ECB800082DE9F05F82460446007800272B
:10031000641C8B461546B946302801D09DB113E0C8
:1003200014F8010B0127782803D0582801D045B1D3
:100330000AE00DB1102D07D10027102514F8010B8C
:1003400002E0082500E00A250026B0460EE005FB85
:10035000080005FB06F1012701EB10461FFA80F8A3
:10036000B6F5803F00D3B94614F8010B294600F0DA
:1003700048F80028EBDABBF1000F04D0641E07B97F
:100380005446CBF80040B9F1000F06D002F014F942
:1003900002210160C81EBDE8F09F48EA0640FAE766
:1003A000064C074D06E0E06840F0010394E80700C2
:1003B00098471034AC42F6D3FFF7BEFEF0B8000801
:1003C00010B90008202A04DB203A00FA02F10020CC
:1003D00070479140C2F1200320FA03F31943904083
:1003E0007047202A04DB203A21FA02F000217047EE
:1003F00021FA02F3D040C2F120029140084319468D
:1004000070473A2800D2303820F02002412A01D328
:10041000A2F137004FF0FF32884200D20246104668
:10042000704700000AE006A002F0A2F872B671B6AA
:100430004FF4FA6002F0AEFE00F06AFFF3E700004E
:100440000D0A4552524F525F4255530D0A000000AB
:10045000B1F5007F3AD00FDC202928D006DC012935
:100460001CD004291DD0082940D11DE0402921D0ED
:10047000B1F5807F3AD126E0B1F5004F31D006DCEE
:10048000B1F5806F25D0B1F5006F2FD124E0B1F523
:10049000803F12D0B1F5003F28D111E0154A8260AB
:1004A00025E00822C26022E01022C2601FE008227C
:1004B00002611CE01022026119E00822426016E08D
:1004C0001022426013E00422426010E004224260E5
:1004D0000DE0042242600AE00022826104224260B0
:1004E00005E0002282610422426000E000BF00BFFC
:1004F000704700000101010021B9C26842F02002EA
:10050000C26003E0026942F020020261704700000D
:1005100070B504460D4600266069284271D0B5F5D5
:10052000807F5CD010DC082D35D006DC012D20D07A
:10053000022D24D0042D77D127E0102D31D0202D8D
:1005400035D0402D70D138E0B5F5004F60D009DCD2
:10055000B5F5007F49D0B5F5806F4CD0B5F5006F8B
:1005600062D14FE0B5F5803F2DD0B5F5003F5BD1AE
:100570002FE0A0682F4900F0D4F8064656E0E06866
:10058000032100F0CEF8064650E0E068082100F0B4
:10059000C8F806464AE0E068102100F0C2F80646B6
:1005A00044E02069032100F0BCF806463EE02069E3
:1005B000082100F0B6F8064638E02069102100F066
:1005C000B0F8064632E06068082100F0AAF8064656
:1005D0002CE06068102100F0A4F8064626E0A0692F
:1005E000012100F09EF8064620E0A069022100F0FB
:1005F00098F806461AE0A069042100F092F8064631
:1006000014E014E0A069702100F08BF806460DE0BC
:10061000A069772100F085F806466068042100F0A3
:1006200080F8064302E0FFE7002600BF00E0002656
:10063000304670BD0101010030B504460D46134639
:1006400004F5D87000EB0510006800F00400187283
:10065000187A50B904F5D87000EB0510006840F224
:10066000FF7101EA5050186009E004F5D87000EB02
:10067000051000686FF0604101EAD000586004F591
:10068000D87000EB0510006800F00200587204F505
:10069000D87000EB0510406800F00F00987204F568
:1006A000D87000EB05104068000AD87404F5D870C3
:1006B00000EB05108068D87204F5D87000EB0510C7
:1006C0008068000A187304F5D87000EB0510806884
:1006D000000C587304F5D87000EB05108068000E0C
:1006E000987304F5D87000EB0510C068D87304F552
:1006F000D87000EB0510C068000A187404F5D870B3
:1007000000EB0510C068000C587404F5D87000EBBD
:100710000510C068000E987429462046FFF7ECFECD
:1007200030BD024600200A4201D0012000E0002036
:100730007047000010B5C82002F02CFD012000F029
:10074000A5F828B1012000F047F802A001F010FF41
:1007500010BD00000D0A6B6579300D0A0000000025
:1007600010B5022000F092F828B1022000F034F811
:1007700001A001F0FDFE10BD0D0ABDF8C8EBD6D0FA
:10078000B6CF310D0A00000010B5082000F07EF849
:1007900028B1082000F020F801A001F0E9FE10BD0A
:1007A0000D0ABDF8C8EBC0B6D1C0D7B4CCACB1E42B
:1007B000BBAFD6D0B6CFA3A1A3A1A3A10D0A0000C1
:1007C00010B54FF4807000F061F818B14FF48070EC
:1007D00000F002F810BD00000149086070470000F9
:1007E000140401401CB54FF40030FFF7F5FF4FF43F
:1007F0000030009000208DF8040008208DF80500DE
:1008000001208DF80600684600F056F800210846E1
:1008100000F022FB0120FFF7DFFF01200090002005
:100820008DF804000C208DF8050001208DF80600DD
:10083000684600F041F80121002000F00DFB022085
:10084000FFF7CAFF0220009000208DF804000C2062
:100850008DF8050001208DF80600684600F02CF8A0
:100860000321042000F0F8FA0820FFF7B5FF082064
:10087000009000208DF8040010208DF80500012064
:100880008DF80600684600F017F81CBD01460020F0
:100890000022074B1B6803EA0102064BD3F814340D
:1008A0000B4202D00AB1012000E000207047000096
:1008B0000004014000000140002127498279DAB399
:1008C000264AD2F8002403689A43244BC3F8002434
:1008D0001A46D2F8042403689A4301F104031A600B
:1008E000027911440A68036842EA03020A601B4A5B
:1008F000D2F80824036822EA0302184BC3F808243C
:100900001A46D2F80C24036822EA0302144B1A6038
:100910004279102A11D1114AD2F8082403681A43E7
:100920000E4BC3F808241A46D2F80C2403681A4365
:100930000A4BC3F80C240EE007E007494279114442
:100940000A6803681A430A6005E0027911440A68DC
:1009500003689A430A6070470004014000000140A8
:100960000C04014004200C49C96801F0010101296F
:1009700001D101200EE00849C96811F0040F01D02F
:10098000022007E00449C96811F0100F01D00320CC
:1009900000E0042070470000002002400348006986
:1009A00040F08000014908617047000000200240CB
:1009B0000549096821F01001034A116011460968D0
:1009C000014311607047000000200240F0B504466A
:1009D0000D4604260027F00200F042F80646042ED9
:1009E00022D11248006940F00100104908612580B9
:1009F000F00200F035F80646042E0ED1A71C280C94
:100A00003880F00200F02CF806460848006941F6EC
:100A1000FE7108400549086106E00448006941F696
:100A2000FE710840014908613046F0BD00200240D7
:100A300001460020034A106800F0380008431060A7
:100A40007047000000200240024803494860034804
:100A5000486070472301674500200240AB89EFCD15
:100A600000B502460423FFF77DFF034603E0FFF7CE
:100A700079FF0346521E012B01D1002AF7D102B99A
:100A80000523184600BD000008B5012144F27D0091
:100A900000F096FC0121EC4800F082FC4FF6FF705C
:100AA000ADF8000000208DF8030003208DF802004F
:100AB0004FF40070ADF8000018208DF803000320FB
:100AC0008DF802006946E14800F0E6F94FF48060D5
:100AD000ADF8000004208DF803006946DB4800F003
:100AE000DBF90420ADF8000018208DF80300032086
:100AF0008DF802006946D54800F0CEF90820ADF81F
:100B0000000004208DF803006946D04800F0C4F9C5
:100B10004FF40060ADF8000004208DF80300694632
:100B2000CB4800F0B9F94FF48060ADF80000182010
:100B30008DF8030003208DF802006946C54800F0D7
:100B4000ABF94FF40060ADF8000004208DF803000D
:100B500003208DF802006946BE4800F09DF94FF46D
:100B60008060ADF8000018208DF8030003208DF898
:100B700002006946B64800F08FF94FF40060ADF806
:100B8000000004208DF8030003208DF80200694660
:100B9000AF4800F081F903208DF802004FF40060A7
:100BA000ADF8000048208DF803006946A74800F022
:100BB00073F94FF48050ADF8000018208DF8030051
:100BC0006946A24800F068F90820ADF8000010203E
:100BD0008DF8030003208DF8020069469C4800F060
:100BE0005BF9002208219A4800F028FA1020ADF89D
:100BF00000008DF8030003208DF802006946944838
:100C000000F04AF900221021914800F017FA202044
:100C1000ADF8000010208DF8030003208DF80200CD
:100C200069468B4800F038F900222021884800F0FE
:100C300005FA0120ADF8000004208DF80300032020
:100C40008DF802006946814800F026F90120ADF8D0
:100C5000000048208DF8030003208DF8020069464B
:100C60007C4800F019F94FF40050ADF80000102056
:100C70008DF8030003208DF802006946744800F0E7
:100C80000BF901225103724800F0D8F91020ADF899
:100C9000000014208DF8030003208DF8020069463F
:100CA0006A4800F0F9F801221021684800F0C6F9FE
:100CB0004020ADF8000010208DF8030003208DF8CF
:100CC00002006946614800F0E7F8002240215F48D1
:100CD00000F0B4F90820ADF8000010208DF80300F2
:100CE00003208DF8020069465A4800F0D5F800222A
:100CF0000821584800F0A2F94FF48050ADF80000E8
:100D000010208DF8030003208DF80200694650483A
:100D100000F0C2F800224FF480514D4800F08EF9E7
:100D20004FF40040ADF8000010208DF803000320C0
:100D30008DF802006946464800F0AEF80122D10362
:100D4000434800F07BF94FF48040ADF800001020DC
:100D50008DF8030003208DF8020069463C4800F03E
:100D60009BF8012291033A4800F068F90220ADF89F
:100D7000000010208DF8030003208DF80200694662
:100D8000324800F089F800220221304800F056F97C
:100D90008020ADF8000048208DF8030003208DF876
:100DA000020069462A4800F077F84020ADF80000BC
:100DB00010208DF8030003208DF8020069462448B6
:100DC00000F06AF800224021214800F037F94FF482
:100DD0008070ADF8000010208DF8030003208DF81E
:100DE000020069461A4800F057F800224FF480715B
:100DF000174800F023F94FF40070ADF80000102000
:100E00008DF8030003208DF802006946104800F0B9
:100E100043F800224FF400710D4800F00FF94FF431
:100E20000050ADF8000010208DF8030003208DF86D
:100E300002006946074800F02FF800224FF40051E5
:100E4000044800F0FBF808BD02001E1A000801402B
:100E5000000C01400010014030B500228B071C0F30
:100E60000F2303FA04F20B4B8C1053F824309343F6
:100E7000084C8D1044F8253023468C1053F824304C
:100E80008C07240F00FA04F42343024C8D1044F81D
:100E9000253030BD080001402DE9F0410246002513
:100EA0000026002000230024002791F803C00CF046
:100EB0000F0591F803C01CF0100F03D091F802C089
:100EC0004CEA0505B1F800C01CF0FF0F31D01468E2
:100ED00000202BE04FF0010C0CFA00F3B1F800C039
:100EE0000CEA03069E4220D183004FF00F0C0CFA4F
:100EF00003F7BC4305FA03FC4CEA040491F803C071
:100F0000BCF1280F06D14FF0010C0CFA00FCC2F81E
:100F100014C00AE091F803C0BCF1480F05D14FF0AE
:100F2000010C0CFA00FCC2F810C0401C0828D1D3F8
:100F30001460B1F800C0BCF1FF0F34DD546800202C
:100F40002EE000F1080C4FF0010808FA0CF3B1F89C
:100F500000C00CEA03069E4221D183004FF00F0C23
:100F60000CFA03F7BC4305FA03FC4CEA040491F8BD
:100F700003C0BCF1280F05D100F1080C08FA0CF8E9
:100F8000C2F8148091F803C0BCF1480F07D100F1FA
:100F9000080C4FF0010808FA0CF8C2F81080401C49
:100FA0000828CED35460BDE8F0810000F0B50A46B1
:100FB000002300240021002500F00046B6F1004F78
:100FC00002D11D4EF16901E01B4E7168C0F303456B
:100FD00083B200F44016B6F5401F08D121F07061CD
:100FE000154E766826F07066134F7E6012E000F4AE
:100FF0008016B6F5801F06D1032606FA05F4A14334
:1010000041F0706106E0460D360103FA06F6B14381
:1010100041F0706122B1460D360103FA06F6314304
:1010200000F00046B6F1004F02D1034EF16101E03D
:10103000014E7160F0BD0000000001400AB1016185
:1010400000E04161704700000AE006A001F090FA5C
:1010500072B671B64FF4FA6002F09CF800F058F9DD
:10106000F3E700000D0A4552524F525F4841524487
:101070005F4641554C540D0A000000000146CA1756
:1010800001EB92729210B1EB820212D1642091FBBB
:10109000F0F200FB121050B94FF4C87091FBF0F25F
:1010A00000FB121008B9012070470020FCE7012066
:1010B000FAE70020F8E700000AE006A001F058FA7D
:1010C00072B671B64FF4FA6002F064F800F020F9DD
:1010D000F3E700000D0A4552524F525F4D454D0D4A
:1010E0000A00000005A001F043FA72B671B64FF491
:1010F000FA6002F04FF800F00BF900000D0A4552BB
:10110000524F525F4E4D490D0A00000008B54FF492
:10111000E06000F0F3F825208DF8000002208DF843
:10112000010000208DF8020001208DF803006846C0
:1011300000F0A2F84FF4E06000F0E0F826208DF80F
:10114000000000208DF801008DF8020001208DF8CC
:101150000300684600F090F84FF4E06000F0CEF82D
:1011600027208DF8000001208DF8010000208DF867
:10117000020001208DF80300684600F07DF84FF46E
:10118000E06000F0BBF834208DF8000001208DF8FD
:10119000010000208DF8020001208DF80300684650
:1011A00000F06AF84FF4E06000F0A8F835208DF800
:1011B000000001208DF8010000208DF802000120C0
:1011C0008DF80300684600F057F84FF4C06000F057
:1011D00095F829208DF8000000208DF801008DF889
:1011E00002008DF80300684600F046F84FF4C06036
:1011F00000F084F806208DF8000000208DF8010032
:101200008DF802008DF80300684600F035F84FF4C1
:10121000C06000F073F807208DF8000000208DF802
:1012200001008DF802008DF80300684600F024F8F4
:101230004FF4C06000F062F809208DF80000002033
:101240008DF801008DF802008DF80300684600F06B
:1012500013F84FF4A06000F051F81D208DF8000045
:1012600000208DF801008DF8020001208DF80300A8
:10127000684600F001F808BD70B5002100230F2278
:10128000C4784CB31A4C246804F4E064C4F5E064F8
:101290004FEA1421C1F1040322FA01F2447804FA5E
:1012A00003F1847804EA020444EA01014FEA0111DF
:1012B000104C0678A155047804F01F054FF0010486
:1012C00004FA05F405784FEA65154FF0E02606EBC1
:1012D0008505C5F8004109E0047804F01F050124E4
:1012E000AC40054D0678761145F8264070BD0000EB
:1012F0000CED00E000E400E080E100E00249014381
:10130000024A1160704700000000FA050CED00E091
:101310000848006800F4E060074940EA010000F175
:1013200004004FF0E021C1F80C0DBFF3408F00BF67
:10133000FEE700000CED00E00000FA050848006838
:1013400000F4E060074940EA010000F104004FF0BA
:10135000E021C1F80C0DBFF3408F00BFFEE7000095
:101360000CED00E00000FA0501490862704700003A
:1013700000000E4205A001F0FBF872B671B64FF402
:10138000FA6001F007FFFFF7C3FF00000D0A4552A6
:10139000524F525F50454E4453560D0A0000000014
:1013A00029B1064AD2690243044BDA6104E0034AD8
:1013B000D2698243014BDA6170470000001002409D
:1013C00029B1064A92690243044B9A6104E0034A38
:1013D00092698243014B9A617047000000100240FD
:1013E00010B500F03BF8012000F0FAF800BF212012
:1013F00000F0C4F80028FAD01020FFF7D9FA022034
:10140000FFF716FB002000F0DFF8002000F0FAF8EC
:10141000002000F0EBF84FF46011002000F004F918
:10142000012000F0FBF800BF392000F0A7F80028E9
:10143000FAD0022000F006F900BF00F0BDF808283D
:10144000FBD1012144F27D00FFF7BAFF01210248E0
:10145000FFF7A6FF10BD000002001E1A0F4800682B
:1014600040F001000D490860084640680C490840FA
:101470000A494860084600680A4908400749086068
:101480000846006820F4802008600846406820F480
:10149000FE0048604FF41F00886070470010024053
:1014A0000000FFF8FFFFF6FE30B500210022002407
:1014B00000232D4D6D6805F00C0121B1042905D0E4
:1014C000082923D105E0294D056022E0274D05605C
:1014D0001FE0254D6D6805F47012234D6D6805F40D
:1014E0008034022505EB92421CB9214D554305601D
:1014F0000BE01D4D6D6815F4003F03D01C4D5543A6
:10150000056002E0194D5543056002E0174D056086
:1015100000BF00BF144D6D6805F0F0010909154DBD
:101520006B5C0568DD4045600F4D6D6805F4E0615A
:10153000090A104D6B5C4568DD4085600A4D6D6899
:1015400005F46051C90A0B4D6B5C4568DD40C56010
:10155000054D6D6805F44041890B074D6B5CC5680E
:10156000B5FBF3F5056130BD0010024000127A00B2
:1015700000093D002C0000203C00002010B5014671
:101580000022002300204A11012A02D1094C2368BD
:1015900006E0022A02D1074C236A01E0054C636A87
:1015A00001F01F02012494401C4201D0012000E000
:1015B000002010BD001002400248406800F00C00FE
:1015C000704700000010024001460020034A5068A6
:1015D00020F0F00008435060704700000010024007
:1015E00001490860704700000000424201460020A7
:1015F000034A506820F4E0600843506070470000E0
:101600000010024001460020034A506820F4605058
:1016100040EAC1005060704700100240014908666E
:10162000704700000000424202460020044B586808
:1016300020F47C1042EA01031843014B58607047C4
:101640000010024001460020034A506820F00300C9
:1016500008435060704700000010024010B502209F
:1016600000F046F850B14FF40030FFF7B5F800F045
:10167000DFF8022000F004F800F0DAF810BD0000F6
:10168000054909886FEA000292B201EA0201034AA1
:10169000A2F8041870470000042800400020004011
:1016A0000348008840F010000249A1F80408704780
:1016B0000428004000200040044800884FF6EF71E5
:1016C00000EA01000249A1F804087047042800401C
:1016D000002000400021044801880448B0F81808A0
:1016E00041EA0040704700001C28004000200040F4
:1016F00001460020074A128802EA0102D0B2064AD7
:10170000B2F800280A4202D008B1012000E000200F
:1017100070470000042800400020004010B5012060
:10172000FFF7E6FF70B10120FFF7AAFF00F080F895
:10173000FFF7D0FF0449884204D1002000F066F88A
:1017400000F076F810BD0000805101002DE9F05F37
:1017500006460F4690469946DDE90AAB0024B6F5E9
:10176000FA6F03DB40F63300864202DD0120BDE85C
:10177000F09F40F2B2750AE02846FFF77FFC10B1F7
:101780001E48044401E01E480444681C05B2B542EA
:10179000F2DB781E47B2002510E01A48405740F2AD
:1017A000A321484304EBC0143046FFF767FC18B18F
:1017B000012D01D114480444681C05B2BD42ECDB84
:1017C000A8F1010040F2A321484304EBC014C9EB87
:1017D0004910C0EB092004EB0014CAEB0A1004EB1B
:1017E00080045C440120FFF7BFFD00F021F8204693
:1017F00000F00CF800F01CF80020B8E70085E201CA
:101800008033E101A4B600088051010000B5024612
:10181000FFF746FF100C044908800449A1F81C2872
:10182000FFF74AFF00BD00001828004000200040DC
:1018300000BF0348008810F0200FFAD07047000066
:101840000428004005A000F093FE72B671B64FF474
:10185000FA6001F09FFCFFF75BFD00000D0A4552A6
:10186000524F525F5356430D0A0000002DE9F041DC
:1018700004460F4616464FF496711748FEF78DFC46
:1018800000201649086000250BE0615D144800F057
:1018900064FD00BF4021124800F092FC0028F9D0FE
:1018A0006D1C605D0028F0D1012208210D48FFF772
:1018B000C5FB304601F06EFC002208210948FFF705
:1018C000BDFB39460448FEF782FC10B10120BDE89B
:1018D000F0810020FBE70000A405002004000020A8
:1018E00000440040000C014010B500F001F810BDAC
:1018F000002100202E4A126842F480322C4B1A60DC
:1019000000BF2B4A126802F40030491C10B9B1F52F
:10191000A06FF6D1264A126812F4003F01D00120D0
:1019200000E00020012842D1224A126842F0100251
:10193000204B1A601A46126822F003021A601A46F7
:10194000126842F002021A60194A5268184B5A6033
:101950001A4652685A601A46526842F480625A60C7
:101960001A46526822F47C125A601A46526842F4AF
:10197000E8125A601A46126842F080721A6000BF7C
:101980000B4A126812F0007FFAD0094A526822F01E
:101990000302074B5A601A46526842F002025A602C
:1019A00000BF034A526802F00C02082AF9D17047BE
:1019B00000100240002002407047000010B513489C
:1019C000006840F00100114908600846406810496D
:1019D00008400E494860084600680E4908400B4917
:1019E00008600846006820F48020086008464068C7
:1019F00020F4FE0048604FF41F008860FFF774FF7A
:101A00004FF000600449086010BD00000010024063
:101A10000000FFF8FFFFF6FE08ED00E010B5012121
:101A2000880700F077F860B10121880700F03CF8E2
:101A300000214FF0804000F03AF800204FF0804144
:101A4000888410BD10B501210E4800F063F8B8B1CC
:101A500001210C4800F028F80B48006840B9012229
:101A600010210A48FFF7EAFA01200749086007E059
:101A7000002210210548FFF7E1FA00200249086022
:101A800010BD00000004004028000020000C0140B0
:101A900021B1028842F08002028004E002884FF601
:101AA0007F731A4002807047CA430282704721B197
:101AB000028842F00102028004E002884FF6FE73C1
:101AC0001A400280704700000EB542F21070ADF867
:101AD00004004FF4E150ADF800000020ADF806001E
:101AE000ADF8020069460A4800F032F801210848C2
:101AF000FFF7CEFF01210648FFF7D6FF012211466E
:101B0000034800F018F801210148FFF7D0FF0EBD8F
:101B10000004004030B50246002000230024158A4E
:101B200005EA0103958905EA010413B10CB101200E
:101B300000E0002030BD10B51AB183890B438381CA
:101B400004E08389CC43A4B22340838110BD00000C
:101B5000002202881D4B98420ED01D4B98420BD09C
:101B6000B0F1804F08D01B4B984205D01A4B9842D9
:101B700002D01A4B984204D14FF68F731A404B880B
:101B80001A43174B984207D0164B984204D04FF691
:101B9000FF431A40CB881A4302808B8883850B88C9
:101BA00003850A4B98420BD0094B984208D00E4B44
:101BB000984205D00D4B984202D00D4B984201D16E
:101BC0000B7A03860123838270470000002C0140BA
:101BD000003401400004004000080040000C0040B8
:101BE000001000400014004000400140004401404B
:101BF0000048014010B508211F4800F0E1FA30B15B
:101C000008211D4800F072F91B4800F0A1FB40F2CA
:101C10002551194800F0E1FA40B3174800F098FB4D
:101C2000C4B216480068042803D12146144800F0C5
:101C300094FB14480068C8B15921114800F08DFB8D
:101C40002146114800F089FB00BF40210C4800F0FC
:101C5000B7FA0028F9D02146094800F07EFB00BF02
:101C60004021074800F0ACFA0028F9D020210248B2
:101C700000F03CF910BD0000004C004014000020B2
:101C8000003801401C0000200048004010B5082129
:101C9000154800F095FA30B10821134800F026F9F4
:101CA000114800F055FB40F225510F4800F095FA1D
:101CB000A8B10D4800F04CFBC4B2204601F0C2FEB2
:101CC0000A48006805280AD12146094800F045FB6A
:101CD00000BF4021064800F073FA0028F9D0202107
:101CE000014800F003F910BD00500040140000202E
:101CF0000038014010B50821194800F061FA30B1F0
:101D00000821174800F0F2F8154800F021FB40F2D6
:101D10002551134800F061FAE0B1114800F018FBBA
:101D200010490870084601780F4802680068401C96
:101D30000D4B18600D48815400200C491A4612685A
:101D400088541846006840F21451884202D9002095
:101D5000194608602021024800F0C8F810BD0000B4
:101D600000380140240000200000002090000020E6
:101D700010B50821214800F023FA30B108211F488E
:101D800000F0B4F81D4800F0E3FA40F225511B487A
:101D900000F023FA80B3194800F0DAFA1849087005
:101DA0001848006802280BD108460178164800F050
:101DB000D4FA00BF4021144800F002FA0028F9D0FC
:101DC0000F480178114802680068401C0F4B1860EA
:101DD0000F48815400200E491A461268885418464C
:101DE000006840F21451884202D900201946086068
:101DF0002021024800F07AF810BD000000440040A5
:101E000025000020140000200038014004000020BC
:101E1000A405002010B508212D4800F0D1F930B1FB
:101E200008212B4800F062F8294800F091FA40F2AE
:101E30002551274800F0D1F9F0B3254800F088FA81
:101E4000C4B22448006803280AD12146224800F081
:101E500084FA00BF4021204800F0B2F90028F9D0F0
:101E60001E4801680068401C1C4A10601C4844540D
:101E700000201B491268885418480068B0F5967F06
:101E800002D900201549086016480068A0B1582101
:101E9000114800F062FA2146134800F05EFA00BFD4
:101EA00040210D4800F08CF90028F9D021460A485D
:101EB00000F053FA00BF00E005E04021064800F0C2
:101EC0007FF90028F7D02021014800F00FF810BD5D
:101ED00000480040140000200038014008000020A5
:101EE000B80A00201C000020004C004001F40072E1
:101EF000B2F5007F00D100BFCA430280704721B114
:101F0000828942F40052828104E082894DF6FF7397
:101F10001A4082817047000000B585B0012144F26B
:101F20000400FFF74DFA4FF40070ADF810001820D0
:101F30008DF8130003208DF8120004A99748FEF7CE
:101F4000ABFF4FF48060ADF8100004208DF8130053
:101F500003208DF8120004A99048FEF79DFF4FF46E
:101F60007A3000900020ADF80400ADF80600ADF81E
:101F70000800ADF80C000C20ADF80A00694688484E
:101F800000F07AF9012240F22551854800F04FF91E
:101F900001218348FFF7B3FF01214804FFF700FA4E
:101FA00001210420FFF70CFA0420ADF810001820DE
:101FB0008DF8130003208DF8120004A97748FEF76E
:101FC0006BFF0820ADF8100004208DF813000320EB
:101FD0008DF8120004A97148FEF75EFF4FF4E1305E
:101FE00000900020ADF80400ADF80600ADF8080040
:101FF000ADF80C000C20ADF80A006946694800F005
:102000003BF9012240F22551664800F010F9012108
:102010006448FFF774FF01218804FFF7C1F901212B
:102020000820FFF7CDF94FF48060ADF810001820BC
:102030008DF8130003208DF8120004A95A48FEF70A
:102040002BFF4FF40060ADF8100028208DF813002E
:1020500003208DF8120004A95348FEF71DFF4FF42A
:10206000164000900020ADF80400ADF80600ADF871
:102070000800ADF80C000C20ADF80A0069464B488A
:1020800000F0FAF8012240F22551484800F0CFF85C
:1020900001214648FFF733FF0121C804FFF780F90B
:1020A00001211020FFF78CF94FF48060ADF810008B
:1020B00018208DF8130003208DF8120004A93C4865
:1020C000FEF7EAFE4FF40060ADF8100004208DF832
:1020D000130003208DF8120004A93548FEF7DCFE3A
:1020E0004FF4164000900020ADF80400ADF8060053
:1020F000ADF80800ADF80C000C20ADF80A006946F8
:102100002C4800F0B9F8012240F22551294800F08E
:102110008EF801212748FFF7F2FE01210805FFF79D
:102120003FF901213020FFF74BF94FF48050ADF813
:10213000100018208DF8130003208DF8120004A958
:102140001B48FEF7A9FE0420ADF810008DF813001F
:1021500003208DF8120004A91748FEF79DFE4FF4E6
:10216000165000900020ADF80400ADF80600ADF860
:102170000800ADF80C000C20ADF80A0069460F48C5
:1021800000F07AF8012240F225510C4800F04FF897
:1021900001210A48FFF7B3FE05B000BD0008014069
:1021A0000038014000440040000C0140004800405D
:1021B00000100140004C004000140140005000405D
:1021C00002460020B1F5007F00D100BF13880B420A
:1021D00001D0012000E00020704770B502460024C5
:1021E000002300250020A1F510666A3E00D100BF43
:1021F000C1F3421501F01F03012606FA03F3012D76
:1022000002D19689334006E0022D02D1168A33406E
:1022100001E0968A33400C12012606FA04F416886F
:10222000344013B10CB1012000E0002070BDF0B5C6
:1022300003460024002600250020A1F510676A3F10
:1022400000D100BF1846C1F3421401F01F06012758
:1022500007FA06F5012C01D10C3004E0022C01D163
:10226000103000E014301AB107682F43076002E015
:102270000768AF430760F0BD2DE9F04786B005461B
:102280000E460024A24600BFA1460027B08900B137
:1022900000BF2F462C8A4CF6FF700440F0880443A0
:1022A0002C82AC894EF6F3100440B0883189084383
:1022B000718908430443AC81AC8A4FF6FF40044067
:1022C000B0890443AC8201A8FFF7EEF81F488742AB
:1022D00002D1DDF810A001E0DDF80CA0A88910F40F
:1022E000004F08D00AEBCA0000EB0A103168490021
:1022F000B0FBF1F807E00AEBCA0000EB0A10316806
:102300008900B0FBF1F86420B8FBF0F0040120096B
:10231000642101FB1089A88910F4004F08D03220F5
:1023200000EBC900B0FBF1F000F00700044308E047
:10233000322000EB09106421B0FBF1F000F00F0037
:1023400004432C8106B0BDE8F0870000003801404E
:1023500001468888C0F308007047C1F308028280F4
:102360007047000000B585B0002201212748FEF724
:1023700065FE08212648FEF7CBF860B125A000F0E5
:10238000F7F86A4600212248FEF756F9082120484E
:10239000FEF75EF800BF40211D48FEF7B9F860B1B6
:1023A00021A000F0E5F86A4601211948FEF744F93A
:1023B00040211748FEF74CF800BF02211448FEF7F1
:1023C000A7F848B16A4600211148FEF735F9022105
:1023D0000F48FEF73DF800BF10210D48FEF798F8B2
:1023E00060B116A000F0C4F86A4601210848FEF763
:1023F00023F910210648FEF72BF800BF01221146F1
:102400000248FEF71BFE05B000BD0000000C0140B5
:10241000006400400D0A43414E206572726F7231B4
:1024200021210D0A000000000D0A43414E20657273
:10243000726F723221210D0A000000000D0A434123
:102440004E206572726F723321210D0A0000000068
:102450000AE006A000F08CF872B671B64FF4FA608C
:1024600000F098FEFEF754FFF3E700000D0A455216
:10247000524F525F55534147450D0A002DE9F04137
:1024800007460E4614461D464FF00008E1B230469E
:1024900000F0C6FCA84206D015A000F069F84FF085
:1024A000FF30BDE8F08122463146384601F0C3F8DE
:1024B0004FF47A7000F06EFEFF2240F214511B4878
:1024C000FDF764FE22461949384601F0A5F8E1B24D
:1024D000164800F0A5FCA84205D015A000F048F869
:1024E0006FF00100DDE719A000F042F80120D8E705
:1024F0000D0A6275662064617461206372632065F1
:1025000072726F72202C63757272656E74206461D2
:1025100074612061626F72742C706C6561736520E8
:1025200072657472792121210D0A0000CC110020FE
:102530000D0A7265616420666C6173682064617461
:1025400061206572726F723A0D0A00000D0A77728F
:10255000697465207265616420636865636B2066D9
:102560006C617368206F6B2B2B2B2B2B0D0A0000DB
:102570000FB4054B10B503A9044A029800F030F8D7
:1025800010BC5DF814FB0000C9360008880000206C
:102590000FB4084B10B504A902AA039800F020F864
:1025A000044602A9002000F059FA204610BC5DF84C
:1025B00014FB00005D2A0008004870478C000020D2
:1025C00002E008C8121F08C1002AFAD170477047FC
:1025D000002001E001C1121F002AFBD1704700005A
:1025E0002DE9FF4F8DB005460F460026EEE1252868
:1025F00079D100246D1CF94AA246A14601212B780D
:10260000203B01FA03F0104202D004436D1CF6E7B0
:1026100028782A2810D06FF02F022878A0F13001F6
:10262000092915D80AEB8A0102EB410144F00204A2
:1026300000EB010A6D1CF0E757F804ABBAF1000F8C
:1026400003DA44F40054CAF1000A44F002046D1C99
:1026500028782E2817D115F8010F44F004042A28F1
:102660000ED06FF02F022878A0F1300109290AD886
:1026700009EB890102EB410100EB01096D1CF2E756
:1026800057F8049B6D1C28786C280FD006DC4C286A
:1026900017D068280DD06A2814D104E0742810D00F
:1026A0007A280FD10DE044F400140AE044F48014B9
:1026B00001E044F440146978814202D16D1C04F5B4
:1026C00080146D1C95F800C0BCF16E0F2AD012DC8E
:1026D000BCF1630F3CD007DCBCF1000F76D0BCF13D
:1026E000580F19D1ACE018E0BCF1640F6FD0BCF109
:1026F000690F11D16BE0BCF1730F32D006DCBCF175
:102700006F0F71D0BCF1700F06D19BE0BCF1750F5B
:102710006BD0BCF1780F69D06046DDE90F129047AD
:10272000761C52E1C4F30250022806D003280AD0D6
:10273000042801CF0AD0066047E101CF4FEAE671D5
:10274000C0E9006141E101CF06803EE106703CE155
:1027500001CF8DF8000000208DF80100EB4601202C
:1027600003E057F804BB4FF0FF3061074FF0000162
:1027700002D40DE008F10101884649450FDA804591
:10278000F8DB1BF808100029F4D108E008F101017A
:1027900088468142FADB1BF808100029F6D1DDE9F2
:1027A0000F23AAEB08008146214600F040F930448F
:1027B00000EB080604E0DDE90F121BF8010B90475F
:1027C000B8F10108F7D221464846F9E002E10A20B3
:1027D000C4F302524FF0000B0890022A07D001CF39
:1027E000C117032A09D00AE035E022E023E0FF1DEB
:1027F00027F00707F7E8020105E000B2C117042A35
:1028000001D140B2C117002906DA0023D0EB030042
:1028100063EB01012D2202E0220504D52B228DF865
:102820002420012203E0E20701D02022F7E79046AE
:1028300053E00A2110E010204FF0000B08900EE04A
:10284000102109E010214FF0000B44F004044FF078
:102850000809089103E008214FF0000B0891C4F328
:102860000252022A04D001CF0021032A06D007E039
:10287000FF1D27F00707F7E8020105E080B20021FD
:10288000042A01D1C0B200214FF00008220724D54C
:10289000BCF1700F2AD0089B83F0100353EA0B039E
:1028A00009D150EA010206D030228DF824208DF89B
:1028B00025C002229046089B83F0080353EA0B03CD
:1028C0000BD150EA010201D1620706D530228DF802
:1028D00024204FF00108A9F1010941A2BCF1580FD1
:1028E00000D044A20B9208AA0A920FE040228DF871
:1028F00024200122DEE75B46089AFDF7CBFC0B9B08
:102900009B5C0A9AA2F101020A92137050EA01023A
:10291000F1D10A98ADEB000000F1200B600702D561
:1029200024F4803401E04FF00109002049465A4662
:10293000D94501DDA1EB020000EB0B0141440890F9
:10294000AAEB01000B90E00306D4DDE90F2321463A
:102950000B9800F06CF806444FF000090DF1240AC2
:1029600007E0DDE90F121AF809009047761C09F11B
:102970000109C145F5DBE0030CD5DDE90F23214654
:102980000B9800F054F8064404E0DDE90F12302003
:102990009047761C0899481E08900029F5DC08E04D
:1029A0000A980A990078491C0A91DDE90F129047AC
:1029B000761CBBF10001ABF1010BF1DC0B98214659
:1029C000DDE90F2300F020F806446D1C287800286C
:1029D0007FF40DAE11B03046BDE8F08F092801003C
:1029E0003031323334353637383941424344454645
:1029F0000000000030313233343536373839616207
:102A000063646566000000002DE9F041044600257E
:102A100017461E46880405D406E039462020B047F4
:102A200005F10105641EF8D52846BDE8F0812DE9C1
:102A3000F04104460025302790461E46C80300D4C6
:102A40002027880405D506E041463846B04705F101
:102A50000105641EF8D52846BDE8F0810A68531CBC
:102A60000B6010707047000070B504460D460CA155
:102A70002846FDF7ACFB06460F21284600F078FA01
:102A8000002806DA2EB100222946A0B200F030FD5F
:102A900004E00122311DA0B200F02AFD70BD00004B
:102AA000343135330000000070B504460D460CA1EA
:102AB0002846FDF78CFB06460F21284600F058FA01
:102AC000002806DA2EB100222946A0B200F010FD3F
:102AD00004E00122311DA0B200F00AFD70BD00002B
:102AE000343134330000000070B504460D460CA1AB
:102AF0002846FDF76CFB06460F21284600F038FA01
:102B0000002806DA2EB100222946A0B200F0F0FC1F
:102B100004E00122311DA0B200F0EAFC70BD00000B
:102B2000343134370000000070B504460D460CA166
:102B30002846FDF74CFB06460F21284600F018FA00
:102B4000002806DA2EB100222946A0B200F0D0FCFF
:102B500004E00122311DA0B200F0CAFC70BD0000EB
:102B6000343134380000000070B504460D460CA125
:102B70002846FDF72CFB06460F21284600F0F8F901
:102B8000002806DA2EB100222946A0B200F0B0FCDF
:102B900004E00122311DA0B200F0AAFC70BD0000CB
:102BA000343134390000000070B504460D460CA1E4
:102BB0002846FDF70CFB06460F21284600F0D8F901
:102BC000002806DA2EB100222946A0B200F090FCBF
:102BD00004E00122311DA0B200F08AFC70BD0000AB
:102BE000343134410000000070B504460D460CA19C
:102BF0002846FDF7ECFA06460F21284600F0B8F902
:102C0000002806DA2EB100222946A0B200F070FC9E
:102C100004E00122311DA0B200F06AFC70BD00008A
:102C2000343134420000000070B504460D460CA15A
:102C30002846FDF7CCFA06460F21284600F098F901
:102C4000002806DA2EB100222946A0B200F050FC7E
:102C500004E00122311DA0B200F04AFC70BD00006A
:102C6000343131300000000070B504460D460CA12F
:102C70002846FDF7ACFA06460F21284600F078F901
:102C8000002806DA2EB100222946A0B200F030FC5E
:102C900004E00122311DA0B200F02AFC70BD00004A
:102CA000343134360000000070B504460D460CA1E6
:102CB0002846FDF78CFA06460F21284600F058F901
:102CC000002806DA2EB100222946A0B200F010FC3E
:102CD00004E00122311DA0B200F00AFC70BD00002A
:102CE00034313333000000002DE9F04104460F4633
:102CF000164600254FF496711148FDF74EFA00BFB5
:102D00000BE0615D0F48FFF728FB00BF40210D4835
:102D1000FFF756FA0028F9D06D1C605D0028F0D14D
:102D200009490860304600F035FA39460448FDF795
:102D30004EFA10B10120BDE8F0810020FBE7000051
:102D4000E40B0020004C00400C00002070B504464D
:102D500000250420174908604CB917A0FFF708FCAC
:102D6000002202211B48FEF769F9012070BD1AA05C
:102D7000FFF7FEFB012202211648FEF75FF94FF430
:102D8000FA6000F007FA00250CE04FF47A7218A1FF
:102D900018A0FFF7A9FF20B117A0FFF7E9FB01205A
:102DA000E4E76D1C052DF0DB18A0FFF7E1FB002028
:102DB000DCE70000140000200D0A626C75652074C9
:102DC0006F6F74682070776F6572206F66660D0A8A
:102DD00000000000000801400D0A626C7565207457
:102DE0006F6F74682070776F6572206F6E0D0A00C8
:102DF0004F4B000041540D000D0A626C7565207345
:102E000074617274206F6B0D0A0000000D626C75A6
:102E100065207374617274206572726F720A0000AB
:102E2000F0B5ADF5017D05460E464FF400720F4931
:102E300001A8FDF799F900240EE02046E11704EB04
:102E40001161C1F307272006040C2878784001A9F6
:102E500031F8100044406D1C3000A6F10101CEB2E3
:102E6000EBD120460DF5017DF0BD0000B06D0008EE
:102E700070B504460D460CA12846FDF7A8F9064694
:102E80000F21284600F074F8002806DA2EB100223F
:102E90002946A0B200F02CFB04E00122311DA0B2B3
:102EA00000F026FB70BD0000343133430000000009
:102EB00070B504460D460CA12846FDF788F9064674
:102EC0000F21284600F054F8002806DA2EB100221F
:102ED0002946A0B200F00CFB04E00122311DA0B293
:102EE00000F006FB70BD00003431334400000000E8
:102EF00070B504460D460CA12846FDF768F9064654
:102F00000F21284600F034F8002806DA2EB10022FE
:102F10002946A0B200F0ECFA04E00122311DA0B273
:102F200000F0E6FA70BD00003431334500000000C7
:102F300070B504460D460CA12846FDF748F9064633
:102F40000F21284600F014F8002806DA2EB10022DE
:102F50002946A0B200F0CCFA04E00122311DA0B253
:102F600000F0C6FA70BD00003431334600000000A6
:102F700070B505460C4614F0080F07D015A1284679
:102F8000FDF725F910B14FF0FF3070BD14F0020FBE
:102F900007D012A12846FDF71AF910B16FF0010011
:102FA000F3E714F0040F07D00EA12846FDF70FF940
:102FB00010B16FF00200E8E714F0010F07D00BA189
:102FC0002846FDF704F910B94FF0FF30DDE7012086
:102FD000DBE7000044415441000000004E454354EB
:102FE00000000000524348494E4700003E000000E8
:102FF00070B504460D460CA12846FDF7E8F80646D4
:103000000F212846FFF7B4FF002806DA2EB1002270
:103010002946A0B200F06CFA04E00122311DA0B2F2
:1030200000F066FA70BD000034313331000000005A
:1030300070B504460D460CA12846FDF7C8F80646B3
:103040000F212846FFF794FF002806DA2EB1002250
:103050002946A0B200F04CFA04E00122311DA0B2D2
:1030600000F046FA70BD0000343134450000000025
:10307000002400BF00BF0020244908600120FFF7A2
:1030800065FE012001F070FB4FF4FA6000F082F859
:1030900000BF2FE00D211E48FFF75FF900BF402160
:1030A0001B48FFF78DF80028F9D00A211848FFF7D0
:1030B00054F900BF40211648FFF782F80028F9D0E4
:1030C00041211348FFF749F900BF40211048FFF79D
:1030D00077F80028F9D042210D48FFF73EF900BFEC
:1030E00040210B48FFF76CF80028F9D01E2000F0B3
:1030F00051F8641C642CCDDB01200449086002F007
:1031000081FC012001F0BCFC00BFFEE71C00002098
:10311000004C004070B504460D460CA12846FDF752
:1031200056F806460F212846FFF722FF002806DA48
:103130002EB100222946A0B200F0DAF904E0012203
:10314000311DA0B200F0D4F970BD0000343132431B
:103150000000000070B504460D460CA12846FDF79E
:1031600036F806460F212846FFF702FF002806DA48
:103170002EB100222946A0B200F0BAF904E00122E3
:10318000311DA0B200F0B4F970BD0000343130350B
:1031900000000000002107E0002200E0521C43F282
:1031A000C8239A42FAD3491C8142F5D370470000E4
:1031B00070B504460D460CA12846FDF708F80646F2
:1031C0000F212846FFF7D4FE002806DA2EB1002290
:1031D0002946A0B200F08CF904E00122311DA0B212
:1031E00000F086F970BD0000343134320000000078
:1031F00070B504460D460CA12846FCF7E8FF0646CC
:103200000F212846FFF7B4FE002806DA2EB100226F
:103210002946A0B200F06CF904E00122311DA0B2F1
:1032200000F066F970BD0000343132440000000047
:1032300070B504460D460CA12846FCF7C8FF0646AB
:103240000F212846FFF794FE002806DA2EB100224F
:103250002946A0B200F04CF904E00122311DA0B2D1
:1032600000F046F970BD0000343135460000000022
:1032700070B504460D460CA12846FCF7A8FF06468B
:103280000F212846FFF774FE002806DA2EB100222F
:103290002946A0B200F02CF904E00122311DA0B2B1
:1032A00000F026F970BD0000343130340000000019
:1032B00070B504460D460CA12846FCF788FF06466B
:1032C0000F212846FFF754FE002806DA2EB100220F
:1032D0002946A0B200F00CF904E00122311DA0B291
:1032E00000F006F970BD00003431354300000000E5
:1032F00070B504460D460CA12846FCF768FF06464B
:103300000F212846FFF734FE002806DA2EB10022EE
:103310002946A0B200F0ECF804E00122311DA0B271
:1033200000F0E6F870BD00003431304300000000CA
:1033300070B504460D460CA12846FCF748FF06462A
:103340000F212846FFF714FE002806DA2EB10022CE
:103350002946A0B200F0CCF804E00122311DA0B251
:1033600000F0C6F870BD00003431314600000000A6
:1033700070B504460D460CA12846FCF728FF06460A
:103380000F212846FFF7F4FD002806DA2EB10022AF
:103390002946A0B200F0ACF804E00122311DA0B231
:1033A00000F0A6F870BD0000343134340000000095
:1033B00070B504460D460CA12846FCF708FF0646EA
:1033C0000F212846FFF7D4FD002806DA2EB100228F
:1033D0002946A0B200F08CF804E00122311DA0B211
:1033E00000F086F870BD0000343132450000000066
:1033F00070B504460D460CA12846FCF7E8FE0646CB
:103400000F212846FFF7B4FD002806DA2EB100226E
:103410002946A0B200F06CF804E00122311DA0B2F0
:1034200000F066F870BD0000343135340000000053
:1034300070B504460D460CA12846FCF7C8FE0646AA
:103440000F212846FFF794FD002806DA2EB100224E
:103450002946A0B200F04CF804E00122311DA0B2D0
:1034600000F046F870BD0000343133320000000037
:1034700070B504460D460CA12846FCF7A8FE06468A
:103480000F212846FFF774FD002806DA2EB100222E
:103490002946A0B200F02CF804E00122311DA0B2B0
:1034A00000F026F870BD0000343134460000000002
:1034B00070B504460D460CA12846FCF788FE06466A
:1034C0000F212846FFF754FD002806DA2EB100220E
:1034D0002946A0B200F00CF804E00122311DA0B290
:1034E00000F006F870BD00003431353000000000F7
:1034F0002DE9F0470646884691460024284800EB0F
:1035000086008578314627A0FFF732F8C6EB061013
:103510002A4A02EBC000011D29A0FFF729F8C6EBDB
:103520000610264A02EBC00000F1440128A0FFF774
:103530001FF815B928B2BDE8F087304600F010FA40
:1035400007464A46394625A0FFF712F8002406E050
:1035500018F804102AA0FFF70BF8601C84B2AC42E4
:10356000F6DB28A0FFF704F8B9F1000F0BD0002418
:1035700006E018F804103A1926488154601C84B2F9
:10358000AC42F6DB09E0002405E000213A192148AD
:103590008154601C84B2AC42F7DB28B2CBE7000058
:1035A000600F00200D0A43555252454E5420494E9B
:1035B0004445583A25640D0A00000000B071000827
:1035C0000D0A6C6162656C203A25730D0A000000DB
:1035D0000D0A434D44203A25730D0A000D0A6E650D
:1035E000656420646174612073697A653A2025649A
:1035F000202076616C7565203A25640D0A00000074
:10360000253358000D0A6461746120656E640D0AEB
:10361000000000005419002010B50346002000BF30
:1036200003E01C580C54441CA0B29042F9DB10BDBE
:103630000246012070472DE9F04180460F461446AE
:10364000FDF702FAE11704EB91718910B4EB8101E7
:103650001BD0002504E0FF2079190855681C85B2AD
:10366000E11704EB91718910A4EB8101C1F1040110
:10367000A942F0DC2046E11704EB91718910A4EB1C
:103680008101C1F1040121448CB2002515E000261E
:103690007819C078064336027819807806433602D6
:1036A0007819407806433602785D064308EB05003A
:1036B0003146FDF78BF9281D85B2A542E7DBFDF702
:1036C0006DF9BDE8F081000070B504460D46E1B229
:1036D0000548FEF742FE00BF80210348FEF770FD5B
:1036E0000028F9D0204670BD0038014070B504466E
:1036F0000D460CA12846FCF76AFD06460F21284618
:10370000FFF736FC002806DA2EB100222946A0B2C7
:10371000FFF7EEFE04E00122311DA0B2FFF7E8FE44
:1037200070BD0000343132320000000070B5044634
:103730000D460CA12846FCF74AFD06460F212846F7
:10374000FFF716FC002806DA2EB100222946A0B2A7
:10375000FFF7CEFE04E00122311DA0B2FFF7C8FE44
:1037600070BD0000343132330000000070B50446F3
:103770000D460CA12846FCF72AFD06460F212846D7
:10378000FFF7F6FB002806DA2EB100222946A0B288
:10379000FFF7AEFE04E00122311DA0B2FFF7A8FE44
:1037A00070BD0000343135440000000070B504469F
:1037B0000D460CA12846FCF70AFD06460F212846B7
:1037C000FFF7D6FB002806DA2EB100222946A0B268
:1037D000FFF78EFE04E00122311DA0B2FFF788FE44
:1037E00070BD0000343132460000000070B5044660
:1037F0000D460CA12846FCF7EAFC06460F21284698
:10380000FFF7B6FB002806DA2EB100222946A0B247
:10381000FFF76EFE04E00122311DA0B2FFF768FE43
:1038200070BD0000343130410000000070B5044626
:103830000D460CA12846FCF7CAFC06460F21284677
:10384000FFF796FB002806DA2EB100222946A0B227
:10385000FFF74EFE04E00122311DA0B2FFF748FE43
:1038600070BD0000343135450000000070B50446DD
:103870000D4609A12846FCF7AAFC06462EB10122F6
:103880003146A0B2FFF734FE04E000223146A0B278
:10389000FFF72EFE70BD0000343130320000000012
:1038A00070B504460D460CA12846FCF790FC064670
:1038B0000F212846FFF75CFB002806DA2EB1002214
:1038C0002946A0B2FFF714FE04E00122311DA0B288
:1038D000FFF70EFE70BD00003431303300000000F1
:1038E00070B504460D460CA12846FCF770FC064650
:1038F0000F212846FFF73CFB002806DA2EB10022F4
:103900002946A0B2FFF7F4FD04E00122311DA0B268
:10391000FFF7EEFD70BD00003431353100000000CE
:1039200070B504460D460CA12846FCF750FC06462F
:103930000F212846FFF71CFB002806DA2EB10022D3
:103940002946A0B2FFF7D4FD04E00122311DA0B248
:10395000FFF7CEFD70BD00003431353900000000A6
:1039600070B5054600241E480088A0BB00201D49F4
:10397000088000BF0EE01B49601C31F810101A4887
:1039800000EB85008078084481B2164A601C22F85A
:10399000101084B21548D0F82001A042EBD814A032
:1039A000FEF7E6FD002411E0142094FBF0F100FB8B
:1039B000114010B912A0FEF7DBFD0A4830F81420C0
:1039C000214610A0FEF7D4FD601C84B2C82CEBDBAE
:1039D000012003490880034830F8150070BD00003D
:1039E0007C000020B8170020600F00203C0E002053
:1039F0000D0A494E444558204D41500D0A00000023
:103A00000D0A00002533642D3E253364202000007C
:103A100070B506460D46002401212846FFF7A8FA96
:103A2000002807DA03E0285D05490855641C142CBA
:103A3000F9DB04E0142200210148FCF7A7FB70BD6C
:103A40001C1A0020FA49097879B3FA49096806294D
:103A500002D0FF297ED12FE1F749C978472972D1D9
:103A6000F549097947296ED1F349497941296AD144
:103A70000121F24A11600021F14A116009E0782227
:103A8000F049EF4B1B68CA54ED490968491CEC4AE0
:103A90001160EB4909680929F1DB7821E94A921E96
:103AA000D1720021E64A11600BE0F3E37822E54988
:103AB0000A31E34B1B68CA54E1490968491CE04AD2
:103AC0001160DF4909680A29F0DB7821DD4A921E7E
:103AD0009175D1750021DA4A11600AE07822D9493E
:103AE0001631D74B1B68CA54D5490968491CD44ABA
:103AF0001160D34909680229F0DB0021D04A116026
:103B00000AE07822CF491831CD4B1B68CA54CC4902
:103B10000968491CCA4A1160C94909680429F0DBCF
:103B20000021C74A11600AE00022C6491C31C44B7B
:103B30001B68CA54C2490968491CC14A1160C0497E
:103B400009680A29F0DBBC494979562928D10421A2
:103B5000BA4A00E0FEE311600021B94A11601BE09F
:103B60007822B949B64B1B6801F82320B44B1B6877
:103B700001EB83014A70B449B14B1B6801EB83012F
:103B80008A70B149AE4B1B6801EB8301CA70AC4926
:103B90000968491CAA4A1160A94909680C29DFDB98
:103BA000A5494979432971D10821A44A116000210E
:103BB000A34A116009E07822A449A14B1B68CA54AA
:103BC0009F490968491C9E4A11609D4909680A2954
:103BD000F1DB78219D4A921E11730021984A1160F1
:103BE0000AE0782299490B31954B1B68CA549449D5
:103BF0000968491C924A1160914909680929F0DB5A
:103C00007821924A921E917500218D4A11600AE036
:103C100078228E4915318A4B1B68CA548849096835
:103C2000491C874A1160864909680A29F0DB782116
:103C3000864A921E82F821100021814A11600AE012
:103C40007822824920317E4B1B68CA547C4909681E
:103C5000491C7B4A11607A4909680529F0DB00217B
:103C6000774A11600AE0782278492531744B1B6845
:103C7000CA5473490968491C714A1160704909683E
:103C80000529F0DB00216E4A11600BE00EE078227E
:103C90006E492A316A4B1B68CA5469490968491C34
:103CA000674A1160664909680629F0DB2C2802D1B1
:103CB000FF21604A1160FEE360490968012904D0D0
:103CC00004297ED008297DD1EDE02A2802D02C28B5
:103CD00079D190E00021564A11705A49891EC97D58
:103CE000302971D05749891EC97E2E290FD15549D7
:103CF000891E097F3039534A921E927E303A02EB78
:103D0000820201EB42014F4A921E916220E04D492E
:103D1000891E097F2E2916D14A49891E897E30398C
:103D200064225143474A921ED27E303A02EB82020D
:103D300001EB42024349891E497F30391144414A0F
:103D4000921E916204E04FF47A713E4A921E916293
:103D50003C49891E896A3E4A926991424ADC0021A7
:103D6000374A11600CE03749354A1268895C384A95
:103D7000334B1B68D15432490968491C304A1160E1
:103D80002F4909680929EEDB00212D4A11600EE058
:103D90002C490A312A4A12688A5C2D490A31284B7B
:103DA0001B68CA5426490968491C254A11602449E0
:103DB00009680A29ECDB2349891EC97A244A517211
:103DC00003E0B9E1F6E320E014E01E49891E897D95
:103DD00011751C49891E097E11771A49891E4A7E70
:103DE0001B494A771749891E896A194A916101213D
:103DF000184A116055E01349891E0978491C114A77
:103E0000921E1170002151704BE00E49891E0978F5
:103E100009293ED2DFE801F03D052023282B2E336F
:103E200038000849891E4A78891C885432E000000D
:103E3000500000204C0000204400002040000020E2
:103E4000580000201617002048170020E216002016
:103E5000781700205C000020FF49C8721AE0FE4974
:103E60004A780C31885415E0FB49887512E0FA490C
:103E7000C8750FE0F8494A78183188540AE0F649C5
:103E80004A781A31885400BFF3494A781E31885461
:103E900000E000BF00BFF0494978491CEE4A51706C
:103EA00000BF00BFD6E32A2802D02C287DD1FEE037
:103EB0000021EA4A1170EA4A11600121E94A1160C1
:103EC000E949097B412978D10021E84A11600DE0D8
:103ED000E5490D31E54A12688A5CE549E34B1B6808
:103EE000CA54E2490968491CE04A1160DF4909687F
:103EF0000929EDDB0021DD4A11600EE0DA491731B6
:103F0000DA4A12688A5CDA490A31D84B1B68CA540B
:103F1000D6490968491CD54A1160D44909680A295B
:103F2000ECDBD149897DD24A1E3A82F82710CE496E
:103F300091F8211082F832100021CC4A11600EE075
:103F4000C9492231C94A12688A5CC9491731C74B2D
:103F50001B68CA54C5490968491CC44A1160C34951
:103F600009680529ECDB0021C04A11600EE0BE495A
:103F70002731BE4A12688A5CBD491C31BB4B1B68A5
:103F8000CA54BA490968491CB84A1160B749096856
:103F90000529ECDBB049097EB54A1E3A82F8331098
:103FA000AD494A7EB2491E3901E088E005E081F85A
:103FB00034200121AF4A11607047AB49897D7829CF
:103FC00074D00021A94A11600DE0A7490D31A74A1C
:103FD00012688A5CA649A54B1B68CA54A3490968A4
:103FE000491CA24A1160A14909680929EDDB002199
:103FF0009E4A11600EE09C4917319C4A12688A5C07
:104000009B490A31994B1B68CA5498490968491C55
:10401000964A1160954909680A29ECDB9249897D25
:10402000934A1E3A82F827108F4991F8211082F89E
:10403000321000218D4A11600EE08B4922318B4AEB
:1040400012688A5C8A491731884B1B68CA548749B1
:104050000968491C854A1160844909680529ECDB17
:104060000021824A11600EE07F4927317F4A1268A1
:104070008A5C7F491C317D4B1B68CA547B490968A7
:10408000491C7A4A1160794909680529ECDB7249B3
:10409000097E774A1E3A82F833106F494A7E744986
:1040A0001E3981F834200121734A116042E06E49C3
:1040B0000978491C6C4A1170002151703AE06A4934
:1040C000097809292ED2DFE801F0050A0D12151A28
:1040D0001E23280064494A78891C885423E06249D9
:1040E000087320E060494A780D3188541BE05E492E
:1040F000887518E05C494A781731885413E05A49AA
:1041000081F821000FE058494A78223188540AE0AA
:1041100055494A782731885405E053494A782C316B
:10412000885400E000BF00BF4F494978491C4E4AFF
:10413000517000BF00BF8DE22A2802D02C287ED10A
:10414000DFE10021454A11704C49C978312977D106
:1041500000214B4A11604B4A11604B4A11604B4A97
:1041600011604B4A1160414A1160A2E04349083195
:104170003E4A126801EB8201C97878296BD0404928
:104180000968491C3E4A11603C490831374A1268A7
:1041900001EB8201C9783039384A0832334B1B6849
:1041A00002EB83029278303A02EB820201EB420189
:1041B0000A2904DB33490968491C324A11602F4936
:1041C00008312A4A126801EB8201C97830392B4A3A
:1041D0000832264B1B6802EB83029278303A02EBDE
:1041E000820201EB4201142904DB27490968491CBA
:1041F000254A1160214908311C4A126801EB8201ED
:10420000C97830391D4A0832184B1B6802EB83020B
:104210009278303A02EB820201EB42011E2904DB64
:104220001A490968491C194A1160144908310F4A92
:10423000126801EB8201C9783039104A01E068E167
:104240003DE00832094B1B6802EB83029278303A5A
:1042500002EB82021FE027E014170020500000202C
:104260004C00002054000020E016002058000020E0
:1042700096170020640000206000002040170020F6
:10428000680000206C0000207000002074000020F6
:1042900078000020F2E101EB4201282904DBFF490C
:1042A0000968491CFD4A1160FD490968491CFC4A1E
:1042B0001160FB4909680429FFF658AF20E1F9496C
:1042C000C97832297ED10421F54A116083E0F5498D
:1042D0000831F34A126801EB8201C978782975D058
:1042E000F1490968491CF04A1160EE490831EC4A6D
:1042F000126801EB8201C9783039EA4A0832E84B8A
:104300001B6802EB83029278303A02EB820201EBE7
:1043100042010A2904DBE5490968491CE34A1160A6
:10432000E0490831DE4A126801EB8201C978303970
:10433000DC4A0832DA4B1B6802EB83029278303A8F
:1043400002EB820201EB4201142906DBD84909681D
:10435000491C00E080E1D64A1160D2490831D04AB8
:10436000126801EB8201C9783039CE4A0832CC4B51
:104370001B6802EB83029278303A02EB820201EB77
:1043800042011E2904DBCB490968491CC94A116056
:10439000C4490831C24A126801EB8201C978303938
:1043A000C04A0832BE4B1B6802EB83029278303A57
:1043B00002EB820201EB4201282907DBB7490968B9
:1043C000491C01E00DE001E0B44A1160B4490968FC
:1043D000491CB34A1160B24909680829FFF677AF52
:1043E0008EE0B049C978332966D10821AC4A116002
:1043F00081E0AC490831AA4A126801EB8201C97810
:10440000782973D0A8490968491CA74A1160A549B1
:104410000831A34A126801EB8201C9783039A14AF8
:1044200008329F4B1B6802EB83029278303A02EB12
:10443000820201EB42010A2904DB9C490968491CFC
:104440009A4A116097490831954A126801EB820136
:10445000C9783039934A0832914B1B6802EB8302CA
:104460009278303A02EB820201EB4201142904DB1C
:104470008F490968491C8E4A11608A490831884A67
:10448000126801EB8201C9783039864A0832844BC0
:104490001B6802EB83029278303A02EB820201EB56
:1044A00042011E2904DB83490968491C814A1160C5
:1044B0007C49083101E0E0E022E0794A126801EB32
:1044C0008201C9783039774A0832754B1B6802EB94
:1044D00083029278303A02EB820201EB42012829F2
:1044E00004DB6E490968491C6C4A11606C49096813
:1044F000491C6B4A11606A4909680C29FFF679AFBB
:10450000A2E068490978491C664A1170002151707F
:104510009AE064490978132974D2DFE801F00A0DA2
:104520002A2B343536404C4D4E5A656667747F8071
:1045300081005C49887080E05A49C870C978312987
:1045400003D10021574A516012E05649C9783229F7
:1045500003D10421534A51600AE05249C9783329F2
:1045600003D108214F4A516002E008214D4A5160B1
:1045700063E062E04B494A68083101EB8201494A35
:104580005278885459E058E057E046494A68083163
:1045900001EB8201891C434A527888544DE041491D
:1045A0004968491C3F4A083202EB8101083A5278B7
:1045B000885442E04AE040E03FE03A494968491CFB
:1045C000384A083202EB8101891C083A5278885433
:1045D00033E034494968891C324A083202EB8101D0
:1045E000083A5278885428E027E026E02D494968A7
:1045F000891C2C4A083202EB8101891C083A527846
:1046000088541AE018E027494968C91C254A08322D
:1046100002EB8101083A527888540EE00DE00CE07C
:1046200020494968C91C1F4A083202EB8101891CD4
:10463000083A5278885400E000BF00BF1949497811
:10464000491C184A517000BF00BF03E000211A4AFC
:10465000117000BF00BF10E01849194A1268885451
:1046600017490968491C164A11601146096807294B
:1046700002DD0021104A117000BF33E0242831D13F
:104680000E4900220A608A808A71087001210A4A54
:10469000117000210B4A1160012115E07800002003
:1046A0005800002040170020680000206C00002007
:1046B0007000002074000020500000204400002002
:1046C0004C00002040000020074A11600021074AEA
:1046D00011705170064A11705170064A1170517074
:1046E000054A116000BF67E44C000020E01600207E
:1046F00040170020141700205400002010B5FCF7CC
:104700006FFE01210748FCF751FCFCF7BDF9FDF7EE
:1047100003FCFCF767F8FCF7F9FCFDF717F8FDF769
:10472000D3F910BD0004300070B504460D460CA14D
:104730002846FBF74CFD06460F212846FEF718FCDD
:10474000002806DA2EB100222946A0B2FEF7D0FEDC
:1047500004E00122311DA0B2FEF7CAFE70BD0000C8
:10476000343135420000000010B58CB0044678A00A
:10477000FDF7FEFE4FF4FA727BA17CA0FEF7B4FABF
:104780004FF4FA7278A179A0FEF7AEFA794A7AA1CD
:1047900004A8FDF7FDFE04A97AA0FDF7E9FE4FF499
:1047A000FA7271A104A8FEF79FFA002803DA4FF00D
:1047B000FF300CB010BD4FF4FA726BA177A0FEF77A
:1047C00093FA202104A8FBF7E8FC6A4A143276A188
:1047D00004A8FDF7DDFE04A976A0FDF7C9FE4FF49D
:1047E000FA7261A104A8FEF77FFA002802DA4FF0FE
:1047F000FF30DEE74FF4FA725BA174A0FEF774FAA3
:10480000202104A8FBF7C9FC4FF416414EF2E84200
:10481000881A914247D014DCB1F5165F34D009DC18
:10482000B1F5966F21D0B1F5166F23D0B1F5965F33
:1048300057D124E0B1F5964F2BD0B1F5164F50D19A
:104840002CE0654A811A90423CD007DCA0F55D401F
:1048500018382DD0B0F5E13F43D12EE0B1F5E12F6E
:1048600035D0B1F5612F3CD136E05CA104A8FBF74F
:10487000A0FC3BE05CA104A8FBF79BFC36E05DA13B
:1048800004A8FBF796FC31E05DA104A8FBF791FCBE
:104890002CE05EA104A8FBF78CFC27E05EA104A835
:1048A000FBF787FC22E05FA104A8FBF782FC1DE078
:1048B0005FA104A8FBF77DFC18E060A104A8FBF74A
:1048C00078FC13E060A104A8FBF773FC0EE061A183
:1048D00004A8FBF76EFC09E061A104A8FBF769FCE2
:1048E00004E04DA104A8FBF764FC00BF00BF04A9CD
:1048F0005EA0FDF73DFE4FF4FA721BA104A8FEF77F
:10490000F3F9002802DA4FF0FF3052E74FF4FA7261
:1049100015A12EA0FEF7E8F94FF4164000900020F4
:10492000ADF80400ADF80600ADF80800ADF80C00D5
:104930000C20ADF80A0069465048FDF79DFC0122A5
:1049400040F225514D48FDF772FC012031E700008F
:104950000D0A73657420626C7565746F6F746820DE
:104960006D6F64650D0A00004F4B000041540D0A45
:10497000000000000C0F002041542B4E414D4525F6
:10498000730D0A0073657420626C7565206E616D2D
:104990006520636D64203A257300000041542B4E5E
:1049A000414D450D0A00000041542B50494E2573DE
:1049B0000D0A000073657420626C75652070617368
:1049C0007320636D64203A257300000041542B501E
:1049D000494E0D0A000000001823060041542B42E6
:1049E000415544310D0A000041542B424155443297
:1049F0000D0A000041542B42415544330D0A00007A
:104A000041542B42415544340D0A000041542B427D
:104A1000415544350D0A000041542B42415544365E
:104A20000D0A000041542B42415544370D0A000045
:104A300041542B42415544380D0A000041542B4249
:104A4000415544390D0A000041542B42415544411F
:104A50000D0A000041542B42415544420D0A00000A
:104A600041542B42415544430D0A00006261756474
:104A700020636D64203A257300000000004C004064
:104A800010B5044602A0FDF773FD012010BD000023
:104A90000D0A736574206F626420776F726B206DEE
:104AA0006F64650D0A00000070B504460D460CA148
:104AB0002846FBF78CFB06460F212846FEF758FADE
:104AC000002806DA2EB100222946A0B2FEF710FD1A
:104AD00004E00122311DA0B2FEF70AFD70BD000006
:104AE000343130460000000070B504460D460CA17C
:104AF0002846FBF76CFB06460F212846FEF738FADE
:104B0000002806DA2EB100222946A0B2FEF7F0FCFA
:104B100004E00122311DA0B2FEF7EAFC70BD0000E6
:104B2000343130420000000070B504460D460CA13F
:104B30002846FBF74CFB06460F212846FEF718FADD
:104B4000002806DA2EB100222946A0B2FEF7D0FCDA
:104B500004E00122311DA0B2FEF7CAFC70BD0000C6
:104B6000343130370000000070B504460D460CA10A
:104B70002846FBF72CFB06460F212846FEF7F8F9DE
:104B8000002806DA2EB100222946A0B2FEF7B0FCBA
:104B900004E00122311DA0B2FEF7AAFC70BD0000A6
:104BA000343130390000000070B504460D460CA1C8
:104BB0002846FBF70CFB06460F212846FEF7D8F9DE
:104BC000002806DA2EB100222946A0B2FEF790FC9A
:104BD00004E00122311DA0B2FEF78AFC70BD000086
:104BE000343135360000000070B504460D460CA186
:104BF0002846FBF7ECFA06460F212846FEF7B8F9DF
:104C0000002806DA2EB100222946A0B2FEF770FC79
:104C100004E00122311DA0B2FEF76AFC70BD000065
:104C2000343135380000000010B5FFF767FD022071
:104C3000194908604FF4FA60FEF7ACFA01F078F910
:104C4000164A174917A0FDF793FC4FF464721E49EA
:104C50001348FEF7E1FC1C4801F0BCFB4FF4647202
:104C600019490E48FEF7D8FC174801F0B3FB00F0D5
:104C700039F84FF4647115A0FDF77AFC022006495B
:104C8000086000F0E1FC00F0FDFC00F0F3FEFEF730
:104C9000EFF9002010BD00001400002000F400080F
:104CA00000F000080D0A5245414420535953544521
:104CB0004D20434F4E464947203A25313058202554
:104CC0003130580D0A0000003C0E00200D0A666CC1
:104CD00061736820636F6E666967203A25640D0A08
:104CE0000000000070B50025012208215D48FCF796
:104CF000A5F9012210215B48FCF7A0F9012220212F
:104D00005848FCF79BF940F6B830FEF743FA56488E
:104D1000D0F80200401C08D05348D0F80204401CD0
:104D200003D052A0FDF724FC70BD01205549086056
:104D300055A0FDF71DFC5BA0FDF71AFC01216148A1
:104D4000FDF7DDF801F080FD00BF00F085FF0028D1
:104D5000FBD04FF4FA725CA15CA0FCF787FD4FF426
:104D6000FA7259A159A0FCF781FD01F013F8002156
:104D70005748FCF79CFE00215648FDF7C0F801217A
:104D80005048FDF7BCF800F0E5FE6AE04FF496717C
:104D90005148FBF702FA00205049086000240BE05C
:104DA0002A214848FDF7D9FA00BF40214548FDF7C0
:104DB00007FA0028F9D0641C042CF1DB7C2141485F
:104DC000FDF7CBFA00BF40213E48FDF7F9F9002876
:104DD000F9D000240CE04248015D3A48FDF7BDFAE5
:104DE00000BF40213748FDF7EBF90028F9D0641CDB
:104DF0000F2CF0DB7C213348FDF7AFFA00BF4021D8
:104E00003048FDF7DDF90028F9D031212D48FDF7B4
:104E1000A4FA00BF40212B48FDF7D2F90028F9D0B1
:104E200031212848FDF799FA00BF40212548FDF7B8
:104E3000C7F90028F9D023212248FDF78EFA00BFD8
:104E400040212048FDF7BCF90028F9D04FF47A70D2
:104E5000FEF7A0F9012001F03DF94FF4FA60FEF7EA
:104E600099F993E7000C014000F000080D0A646511
:104E7000766963652073746172742E2E2E2E2E2E29
:104E80002E0D0A00140000200D0A6D61737350721C
:104E90006F64756374696F6E2E2E2E2E2E2E2E0D5E
:104EA0000A0000000D0A64657669636520696E6911
:104EB000742E2E2E2E2E2E2E2E2E2E2E2E2E2E2ECC
:104EC0000D0A0000003801404F4B000041540D0016
:104ED000000400400044004090000020000000203A
:104EE0005C1B002070B504460D460CA12846FBF75C
:104EF0006EF906460F212846FEF73AF8002806DA32
:104F00002EB100222946A0B2FEF7F2FA04E00122F7
:104F1000311DA0B2FEF7ECFA70BD00003431323121
:104F20000000000070B504460D460CA12846FBF7B2
:104F30004EF906460F212846FEF71AF8002806DA31
:104F40002EB100222946A0B2FEF7D2FA04E00122D7
:104F5000311DA0B2FEF7CCFA70BD000034313444EC
:104F60000000000070B504460D460CA12846FBF772
:104F70002EF906460F212846FDF7FAFF002806DA2B
:104F80002EB100222946A0B2FEF7B2FA04E00122B7
:104F9000311DA0B2FEF7ACFA70BD000034313431DF
:104FA0000000000070B504460D460CA12846FBF732
:104FB0000EF906460F212846FDF7DAFF002806DA2B
:104FC0002EB100222946A0B2FEF792FA04E0012297
:104FD000311DA0B2FEF78CFA70BD000034313031C3
:104FE0000000000070B504460D460CA12846FBF7F2
:104FF000EEF806460F212846FDF7BAFF002806DA2C
:105000002EB100222946A0B2FEF772FA04E0012276
:10501000311DA0B2FEF76CFA70BD0000343131349E
:105020000000000070B504460D460CA12846FBF7B1
:10503000CEF806460F212846FDF79AFF002806DA2B
:105040002EB100222946A0B2FEF752FA04E0012256
:10505000311DA0B2FEF74CFA70BD0000343131357D
:105060000000000070B504460D460CA12846FBF771
:10507000AEF806460F212846FDF77AFF002806DA2B
:105080002EB100222946A0B2FEF732FA04E0012236
:10509000311DA0B2FEF72CFA70BD0000343131365C
:1050A0000000000070B504460D460CA12846FBF731
:1050B0008EF806460F212846FDF75AFF002806DA2B
:1050C0002EB100222946A0B2FEF712FA04E0012216
:1050D000311DA0B2FEF70CFA70BD0000343131373B
:1050E0000000000070B504460D460CA12846FBF7F1
:1050F0006EF806460F212846FDF73AFF002806DA2B
:105100002EB100222946A0B2FEF7F2F904E00122F6
:10511000311DA0B2FEF7ECF970BD0000343131381A
:105120000000000070B504460D460CA12846FBF7B0
:105130004EF806460F212846FDF71AFF002806DA2A
:105140002EB100222946A0B2FEF7D2F904E00122D6
:10515000311DA0B2FEF7CCF970BD000034313139F9
:105160000000000070B504460D460CA12846FBF770
:105170002EF806460F212846FDF7FAFE002806DA2B
:105180002EB100222946A0B2FEF7B2F904E00122B6
:10519000311DA0B2FEF7ACF970BD000034313141D1
:1051A0000000000070B504460D460CA12846FBF730
:1051B0000EF806460F212846FDF7DAFE002806DA2B
:1051C0002EB100222946A0B2FEF792F904E0012296
:1051D000311DA0B2FEF78CF970BD000034313142B0
:1051E0000000000070B504460D460CA12846FAF7F1
:1051F000EEFF06460F212846FDF7BAFE002806DA24
:105200002EB100222946A0B2FEF772F904E0012275
:10521000311DA0B2FEF76CF970BD0000343133349B
:105220000000000070B504460D460CA12846FAF7B0
:10523000CEFF06460F212846FDF79AFE002806DA23
:105240002EB100222946A0B2FEF752F904E0012255
:10525000311DA0B2FEF74CF970BD0000343133357A
:105260000000000070B504460D460CA12846FAF770
:10527000AEFF06460F212846FDF77AFE002806DA23
:105280002EB100222946A0B2FEF732F904E0012235
:10529000311DA0B2FEF72CF970BD00003431333659
:1052A0000000000070B504460D460CA12846FAF730
:1052B0008EFF06460F212846FDF75AFE002806DA23
:1052C0002EB100222946A0B2FEF712F904E0012215
:1052D000311DA0B2FEF70CF970BD00003431333738
:1052E0000000000070B504460D460CA12846FAF7F0
:1052F0006EFF06460F212846FDF73AFE002806DA23
:105300002EB100222946A0B2FEF7F2F804E00122F5
:10531000311DA0B2FEF7ECF870BD00003431333817
:105320000000000070B504460D460CA12846FAF7AF
:105330004EFF06460F212846FDF71AFE002806DA22
:105340002EB100222946A0B2FEF7D2F804E00122D5
:10535000311DA0B2FEF7CCF870BD000034313339F6
:105360000000000070B504460D460CA12846FAF76F
:105370002EFF06460F212846FDF7FAFD002806DA23
:105380002EB100222946A0B2FEF7B2F804E00122B5
:10539000311DA0B2FEF7ACF870BD000034313341CE
:1053A0000000000070B504460D460CA12846FAF72F
:1053B0000EFF06460F212846FDF7DAFD002806DA23
:1053C0002EB100222946A0B2FEF792F804E0012295
:1053D000311DA0B2FEF78CF870BD000034313342AD
:1053E0000000000070B504460D460CA12846FAF7EF
:1053F000EEFE06460F212846FDF7BAFD002806DA24
:105400002EB100222946A0B2FEF772F804E0012274
:10541000311DA0B2FEF76CF870BD0000343132349B
:105420000000000070B504460D460CA12846FAF7AE
:10543000CEFE06460F212846FDF79AFD002806DA23
:105440002EB100222946A0B2FEF752F804E0012254
:10545000311DA0B2FEF74CF870BD0000343132357A
:105460000000000070B504460D460CA12846FAF76E
:10547000AEFE06460F212846FDF77AFD002806DA23
:105480002EB100222946A0B2FEF732F804E0012234
:10549000311DA0B2FEF72CF870BD00003431323659
:1054A0000000000070B504460D460CA12846FAF72E
:1054B0008EFE06460F212846FDF75AFD002806DA23
:1054C0002EB100222946A0B2FEF712F804E0012214
:1054D000311DA0B2FEF70CF870BD00003431323738
:1054E0000000000070B504460D460CA12846FAF7EE
:1054F0006EFE06460F212846FDF73AFD002806DA23
:105500002EB100222946A0B2FDF7F2FF04E00122ED
:10551000311DA0B2FDF7ECFF70BD00003431323810
:105520000000000070B504460D460CA12846FAF7AD
:105530004EFE06460F212846FDF71AFD002806DA22
:105540002EB100222946A0B2FDF7D2FF04E00122CD
:10555000311DA0B2FDF7CCFF70BD000034313239EF
:105560000000000070B504460D460CA12846FAF76D
:105570002EFE06460F212846FDF7FAFC002806DA23
:105580002EB100222946A0B2FDF7B2FF04E00122AD
:10559000311DA0B2FDF7ACFF70BD000034313241C7
:1055A0000000000070B504460D460CA12846FAF72D
:1055B0000EFE06460F212846FDF7DAFC002806DA23
:1055C0002EB100222946A0B2FDF792FF04E001228D
:1055D000311DA0B2FDF78CFF70BD000034313242A6
:1055E000000000002DE9F04104460F461646002554
:1055F0004FF496711148FAF7D0FD00201049086069
:1056000000BF0BE0615D0F48FCF7A7FE00BF402123
:105610000C48FCF7D5FD0028F9D06D1C605D002812
:10562000F0D13046FDF7B6FD39460448FAF7CFFD14
:1056300010B10120BDE8F0810020FBE7B80A00208E
:10564000080000200048004001200C4908600020AC
:1056500000F0D8F90120FDF779FB4FF47A70FDF7DF
:1056600099FD012000F0CEF94FF47A70FDF792FD1C
:105670004FF002000249086000BFFEE71C00002056
:105680001400002088B014223DA16846FAF76CFD92
:1056900000BF4FF4FA60FDF77DFD3EA0FCF768FF08
:1056A000002000F0AFF94FF47A70FDF773FD012090
:1056B00000F0A8F94FF4FA7200213BA0FFF792FF27
:1056C0004FF4FA72002139A0FFF78CFF4FF4FA7201
:1056D000002138A0FFF786FF4FF4FA72002137A0AF
:1056E000FFF780FF4FF4FA72002136A0FFF77AFF30
:1056F0004FF4FA7200212DA0FFF774FF4FF4FA72F5
:1057000000212CA0FFF76EFF4FF4FA7200212BA0AE
:10571000FFF768FF012430E000252BE0002626E09B
:1057200030208DF814001DF804008DF815001DF8C8
:1057300005008DF816001DF806008DF817000D20E5
:105740008DF8180005A921A0FCF712FF4FF4FA62AA
:10575000002105A8FFF746FF002705E01E48C15DB0
:105760001EA0FCF705FF7F1C1E2FF7DB761C102EFA
:10577000D6DB6D1C102DD1DB641C092CCCDB88E73B
:105780003031323334353637383941424344454677
:10579000000000000D0A626567696E206F62642078
:1057A000746573740D0A000061740D0061744031FA
:1057B0000D000000617440320D0000006174690D3D
:1057C00000000000415445300D0000000D0A434D1B
:1057D00044203A25730D0A00B80A002025335800EA
:1057E0007CB5002457485849096800EB810085784A
:1057F00054485549096800EB8100C078534909783D
:10580000884206DB51480078401C5049087000204F
:105810007CBD00204D4908704B480068C0EB00106B
:105820004B4901EBC003443346484749096800EB44
:105830008100C2784548CDE9002303782A464248D2
:10584000016844A0FCF794FEFDB13F480068C0EB3E
:1058500000103F4951F83000B8B14AA14B48FAF75F
:10586000B6FC38B14AA0FCF783FE00203649086038
:10587000401ECDE734480068C0EB0010344951F8B1
:10588000302042493048006890474FF496713F48B5
:10589000FAF783FC0020464908602B480068401C4A
:1058A000294908604348D0F820010968884207D296
:1058B00041A0FCF75DFE3F48D0F81C01224908607A
:1058C0003C48D0F8201147A0FCF752FE002400BF4E
:1058D0001C481D4A126830F82200C0EB00101C4A18
:1058E00002EBC0004430015D4448FCF736FD15482A
:1058F000154A126830F82200C0EB0010144A02EB7F
:10590000C0004430015D3E48FCF727FD00BF402148
:105910003A48FCF755FC0028F9D00A480A490968BA
:1059200030F82100C0EB0010094901EBC000443001
:10593000005D0D2800D101E0641CC9E700BF012013
:1059400066E70000600F0020800000208400002037
:10595000B07100080D0A6465616C202D2D3E202574
:1059600064202D2D3E20256420202D2D3E256420F1
:105970002D2D3E20256420202D2D3E2573200D0A3F
:1059800000000000554E41424C450000B80A00207E
:105990000D0A646576696365206C6F73652C7265AA
:1059A000696E6974206465766963650D0A0000009C
:1059B000080000203C0E00200D0A0A4355525245B3
:1059C0004E5420434952434C45204F5645522C6279
:1059D0006567696E206E6578742074696D65720AFA
:1059E000000000000D0A0909090920696E64657844
:1059F000203A2564202C636D64203A000048004062
:105A00000038014010B504464FF47A70FDF7C2FB30
:105A100003200C49086054B90BA0FCF7A9FD002233
:105A20004FF480510D48FBF709FB012010BD0CA07D
:105A3000FCF79EFD012211030848FBF7FFFA012045
:105A4000F4E70000140000200D0A4F424420706F5C
:105A5000776572206F66660D0A000000000C014039
:105A60000D0A4F424420706F776572206F6E0D0AE9
:105A70000000000008B500BF41208DF80000542050
:105A80008DF8010004208DF80200694612A0FCF791
:105A90006FFD03201349086013A0FCF769FD002285
:105AA0004FF480511A48FBF7C9FA4FF47A70FDF7AA
:105AB00071FB0120FFF7A6FF4FF47A70FDF76AFB38
:105AC0004FF47A70FDF766FB05E0FFF789FE4FF4AF
:105AD000C870FDF75FFBF8E70D0A636D64203A2597
